{
  "_format": "hh-sol-artifact-1",
  "contractName": "ProposalGateway",
  "sourceName": "contracts/ProposalGateway.sol",
  "abi": [
    {
      "inputs": [],
      "stateMutability": "nonpayable",
      "type": "constructor"
    },
    {
      "anonymous": false,
      "inputs": [
        {
          "indexed": false,
          "internalType": "address",
          "name": "previousAdmin",
          "type": "address"
        },
        {
          "indexed": false,
          "internalType": "address",
          "name": "newAdmin",
          "type": "address"
        }
      ],
      "name": "AdminChanged",
      "type": "event"
    },
    {
      "anonymous": false,
      "inputs": [
        {
          "indexed": true,
          "internalType": "address",
          "name": "beacon",
          "type": "address"
        }
      ],
      "name": "BeaconUpgraded",
      "type": "event"
    },
    {
      "anonymous": false,
      "inputs": [
        {
          "indexed": false,
          "internalType": "uint8",
          "name": "version",
          "type": "uint8"
        }
      ],
      "name": "Initialized",
      "type": "event"
    },
    {
      "anonymous": false,
      "inputs": [
        {
          "indexed": true,
          "internalType": "address",
          "name": "previousOwner",
          "type": "address"
        },
        {
          "indexed": true,
          "internalType": "address",
          "name": "newOwner",
          "type": "address"
        }
      ],
      "name": "OwnershipTransferred",
      "type": "event"
    },
    {
      "anonymous": false,
      "inputs": [
        {
          "indexed": true,
          "internalType": "address",
          "name": "implementation",
          "type": "address"
        }
      ],
      "name": "Upgraded",
      "type": "event"
    },
    {
      "inputs": [
        {
          "internalType": "contract IPool",
          "name": "pool",
          "type": "address"
        },
        {
          "internalType": "uint256",
          "name": "ballotQuorumThreshold",
          "type": "uint256"
        },
        {
          "internalType": "uint256",
          "name": "ballotDecisionThreshold",
          "type": "uint256"
        },
        {
          "internalType": "uint256",
          "name": "ballotLifespan",
          "type": "uint256"
        },
        {
          "internalType": "string",
          "name": "description",
          "type": "string"
        }
      ],
      "name": "createGovernanceSettingsProposal",
      "outputs": [
        {
          "internalType": "uint256",
          "name": "proposalId",
          "type": "uint256"
        }
      ],
      "stateMutability": "nonpayable",
      "type": "function"
    },
    {
      "inputs": [
        {
          "internalType": "contract IPool",
          "name": "pool",
          "type": "address"
        },
        {
          "components": [
            {
              "internalType": "string",
              "name": "metadataURI",
              "type": "string"
            },
            {
              "internalType": "uint256",
              "name": "price",
              "type": "uint256"
            },
            {
              "internalType": "uint256",
              "name": "hardcap",
              "type": "uint256"
            },
            {
              "internalType": "uint256",
              "name": "softcap",
              "type": "uint256"
            },
            {
              "internalType": "uint256",
              "name": "minPurchase",
              "type": "uint256"
            },
            {
              "internalType": "uint256",
              "name": "maxPurchase",
              "type": "uint256"
            },
            {
              "internalType": "uint256",
              "name": "lockupPercent",
              "type": "uint256"
            },
            {
              "internalType": "uint256",
              "name": "lockupDuration",
              "type": "uint256"
            },
            {
              "internalType": "uint256",
              "name": "lockupTVL",
              "type": "uint256"
            },
            {
              "internalType": "uint256",
              "name": "duration",
              "type": "uint256"
            },
            {
              "internalType": "address[]",
              "name": "userWhitelist",
              "type": "address[]"
            },
            {
              "internalType": "address",
              "name": "unitOfAccount",
              "type": "address"
            }
          ],
          "internalType": "struct ITGE.TGEInfo",
          "name": "info",
          "type": "tuple"
        },
        {
          "internalType": "string",
          "name": "description",
          "type": "string"
        }
      ],
      "name": "createTGEProposal",
      "outputs": [
        {
          "internalType": "uint256",
          "name": "proposalId",
          "type": "uint256"
        }
      ],
      "stateMutability": "nonpayable",
      "type": "function"
    },
    {
      "inputs": [
        {
          "internalType": "contract IPool",
          "name": "pool",
          "type": "address"
        },
        {
          "internalType": "address",
          "name": "token",
          "type": "address"
        },
        {
          "internalType": "address",
          "name": "to",
          "type": "address"
        },
        {
          "internalType": "uint256",
          "name": "value",
          "type": "uint256"
        },
        {
          "internalType": "string",
          "name": "description",
          "type": "string"
        }
      ],
      "name": "createTransferERC20Proposal",
      "outputs": [
        {
          "internalType": "uint256",
          "name": "proposalId",
          "type": "uint256"
        }
      ],
      "stateMutability": "nonpayable",
      "type": "function"
    },
    {
      "inputs": [
        {
          "internalType": "contract IPool",
          "name": "pool",
          "type": "address"
        },
        {
          "internalType": "address",
          "name": "to",
          "type": "address"
        },
        {
          "internalType": "uint256",
          "name": "value",
          "type": "uint256"
        },
        {
          "internalType": "string",
          "name": "description",
          "type": "string"
        }
      ],
      "name": "createTransferETHProposal",
      "outputs": [
        {
          "internalType": "uint256",
          "name": "proposalId",
          "type": "uint256"
        }
      ],
      "stateMutability": "nonpayable",
      "type": "function"
    },
    {
      "inputs": [],
      "name": "initialize",
      "outputs": [],
      "stateMutability": "nonpayable",
      "type": "function"
    },
    {
      "inputs": [],
      "name": "owner",
      "outputs": [
        {
          "internalType": "address",
          "name": "",
          "type": "address"
        }
      ],
      "stateMutability": "view",
      "type": "function"
    },
    {
      "inputs": [],
      "name": "proxiableUUID",
      "outputs": [
        {
          "internalType": "bytes32",
          "name": "",
          "type": "bytes32"
        }
      ],
      "stateMutability": "view",
      "type": "function"
    },
    {
      "inputs": [],
      "name": "renounceOwnership",
      "outputs": [],
      "stateMutability": "nonpayable",
      "type": "function"
    },
    {
      "inputs": [
        {
          "internalType": "address",
          "name": "newOwner",
          "type": "address"
        }
      ],
      "name": "transferOwnership",
      "outputs": [],
      "stateMutability": "nonpayable",
      "type": "function"
    },
    {
      "inputs": [
        {
          "internalType": "address",
          "name": "newImplementation",
          "type": "address"
        }
      ],
      "name": "upgradeTo",
      "outputs": [],
      "stateMutability": "nonpayable",
      "type": "function"
    },
    {
      "inputs": [
        {
          "internalType": "address",
          "name": "newImplementation",
          "type": "address"
        },
        {
          "internalType": "bytes",
          "name": "data",
          "type": "bytes"
        }
      ],
      "name": "upgradeToAndCall",
      "outputs": [],
      "stateMutability": "payable",
      "type": "function"
    }
  ],
  "bytecode": "0x60a0604052306080523480156200001557600080fd5b506200002062000026565b62000156565b6200003260ff62000035565b50565b60008054610100900460ff1615620000ce578160ff1660011480156200006e57506200006c306200014760201b62000dfe1760201c565b155b620000c65760405162461bcd60e51b815260206004820152602e602482015260008051602062001dc983398151915260448201526d191e481a5b9a5d1a585b1a5e995960921b60648201526084015b60405180910390fd5b506000919050565b60005460ff8084169116106200012d5760405162461bcd60e51b815260206004820152602e602482015260008051602062001dc983398151915260448201526d191e481a5b9a5d1a585b1a5e995960921b6064820152608401620000bd565b506000805460ff191660ff92909216919091179055600190565b6001600160a01b03163b151590565b608051611c3b6200018e600039600081816101fa015281816102430152818161051a0152818161055a01526105ed0152611c3b6000f3fe60806040526004361061009c5760003560e01c80638129fc1c116100645780638129fc1c146101335780638da5cb5b14610148578063e50cfd2214610170578063f0e5b1c414610190578063f0eae652146101b0578063f2fde38b146101d057600080fd5b80633659cfe6146100a1578063388ef0fb146100c35780634f1ef286146100f657806352d1902d14610109578063715018a61461011e575b600080fd5b3480156100ad57600080fd5b506100c16100bc366004611359565b6101f0565b005b3480156100cf57600080fd5b506100e36100de36600461145f565b6102d8565b6040519081526020015b60405180910390f35b6100c16101043660046114de565b610510565b34801561011557600080fd5b506100e36105e0565b34801561012a57600080fd5b506100c1610693565b34801561013f57600080fd5b506100c16106c9565b34801561015457600080fd5b506033546040516001600160a01b0390911681526020016100ed565b34801561017c57600080fd5b506100e361018b3660046115c0565b610745565b34801561019c57600080fd5b506100e36101ab3660046116fb565b6109d2565b3480156101bc57600080fd5b506100e36101cb36600461174f565b610b7d565b3480156101dc57600080fd5b506100c16101eb366004611359565b610d66565b6001600160a01b037f00000000000000000000000000000000000000000000000000000000000000001630036102415760405162461bcd60e51b8152600401610238906117bb565b60405180910390fd5b7f00000000000000000000000000000000000000000000000000000000000000006001600160a01b031661028a600080516020611bbf833981519152546001600160a01b031690565b6001600160a01b0316146102b05760405162461bcd60e51b815260040161023890611807565b6102b981610e0d565b604080516000808252602082019092526102d591839190610e37565b50565b6000856000816001600160a01b031663fc0c546a6040518163ffffffff1660e01b8152600401602060405180830381865afa15801561031b573d6000803e3d6000fd5b505050506040513d601f19601f8201168201806040525081019061033f9190611853565b6040516370a0823160e01b81523360048201526001600160a01b0391909116906370a0823190602401602060405180830381865afa158015610385573d6000803e3d6000fd5b505050506040513d601f19601f820116820180604052508101906103a99190611870565b116103c65760405162461bcd60e51b815260040161023890611889565b806001600160a01b031663e47bfee86040518163ffffffff1660e01b8152600401602060405180830381865afa158015610404573d6000803e3d6000fd5b505050506040513d601f19601f8201168201806040525081019061042891906118b2565b6104445760405162461bcd60e51b8152600401610238906118d4565b6040516001600160a01b038681166024830152604482018690528816906309e252c490889060009063a9059cbb60e01b906064015b60408051601f198184030181529181526020820180516001600160e01b03166001600160e01b03199485161790525160e086901b90921682526104c2939291899060040161194f565b6020604051808303816000875af11580156104e1573d6000803e3d6000fd5b505050506040513d601f19601f820116820180604052508101906105059190611870565b979650505050505050565b6001600160a01b037f00000000000000000000000000000000000000000000000000000000000000001630036105585760405162461bcd60e51b8152600401610238906117bb565b7f00000000000000000000000000000000000000000000000000000000000000006001600160a01b03166105a1600080516020611bbf833981519152546001600160a01b031690565b6001600160a01b0316146105c75760405162461bcd60e51b815260040161023890611807565b6105d082610e0d565b6105dc82826001610e37565b5050565b6000306001600160a01b037f000000000000000000000000000000000000000000000000000000000000000016146106805760405162461bcd60e51b815260206004820152603860248201527f555550535570677261646561626c653a206d757374206e6f742062652063616c60448201527f6c6564207468726f7567682064656c656761746563616c6c00000000000000006064820152608401610238565b50600080516020611bbf83398151915290565b6033546001600160a01b031633146106bd5760405162461bcd60e51b815260040161023890611988565b6106c76000610fa7565b565b60006106d56001610ff9565b905080156106ed576000805461ff0019166101001790555b6106f5611086565b6106fd6110b5565b80156102d5576000805461ff0019169055604051600181527f7f26b83ff96e1f2b6a682f133852f6798a09c465da95921460cefb38474024989060200160405180910390a150565b6000836000816001600160a01b031663fc0c546a6040518163ffffffff1660e01b8152600401602060405180830381865afa158015610788573d6000803e3d6000fd5b505050506040513d601f19601f820116820180604052508101906107ac9190611853565b6040516370a0823160e01b81523360048201526001600160a01b0391909116906370a0823190602401602060405180830381865afa1580156107f2573d6000803e3d6000fd5b505050506040513d601f19601f820116820180604052508101906108169190611870565b116108335760405162461bcd60e51b815260040161023890611889565b806001600160a01b031663e47bfee86040518163ffffffff1660e01b8152600401602060405180830381865afa158015610871573d6000803e3d6000fd5b505050506040513d601f19601f8201168201806040525081019061089591906118b2565b6108b15760405162461bcd60e51b8152600401610238906118d4565b846001600160a01b03166309e252c4866001600160a01b031663d598d4c96040518163ffffffff1660e01b8152600401602060405180830381865afa1580156108fe573d6000803e3d6000fd5b505050506040513d601f19601f820116820180604052508101906109229190611853565b6000636e0e69f960e01b8860405160240161093d9190611a01565b60408051601f198184030181529181526020820180516001600160e01b03166001600160e01b03199485161790525160e086901b9092168252610986939291899060040161194f565b6020604051808303816000875af11580156109a5573d6000803e3d6000fd5b505050506040513d601f19601f820116820180604052508101906109c99190611870565b95945050505050565b6000856000816001600160a01b031663fc0c546a6040518163ffffffff1660e01b8152600401602060405180830381865afa158015610a15573d6000803e3d6000fd5b505050506040513d601f19601f82011682018060405250810190610a399190611853565b6040516370a0823160e01b81523360048201526001600160a01b0391909116906370a0823190602401602060405180830381865afa158015610a7f573d6000803e3d6000fd5b505050506040513d601f19601f82011682018060405250810190610aa39190611870565b11610ac05760405162461bcd60e51b815260040161023890611889565b806001600160a01b031663e47bfee86040518163ffffffff1660e01b8152600401602060405180830381865afa158015610afe573d6000803e3d6000fd5b505050506040513d601f19601f82011682018060405250810190610b2291906118b2565b610b3e5760405162461bcd60e51b8152600401610238906118d4565b6040516024810187905260448101869052606481018590526001600160a01b038816906309e252c4908990600090630168dfb560e41b90608401610479565b6000846000816001600160a01b031663fc0c546a6040518163ffffffff1660e01b8152600401602060405180830381865afa158015610bc0573d6000803e3d6000fd5b505050506040513d601f19601f82011682018060405250810190610be49190611853565b6040516370a0823160e01b81523360048201526001600160a01b0391909116906370a0823190602401602060405180830381865afa158015610c2a573d6000803e3d6000fd5b505050506040513d601f19601f82011682018060405250810190610c4e9190611870565b11610c6b5760405162461bcd60e51b815260040161023890611889565b806001600160a01b031663e47bfee86040518163ffffffff1660e01b8152600401602060405180830381865afa158015610ca9573d6000803e3d6000fd5b505050506040513d601f19601f82011682018060405250810190610ccd91906118b2565b610ce95760405162461bcd60e51b8152600401610238906118d4565b60405163027894b160e21b81526001600160a01b038716906309e252c490610d1990889088908890600401611ac1565b6020604051808303816000875af1158015610d38573d6000803e3d6000fd5b505050506040513d601f19601f82011682018060405250810190610d5c9190611870565b9695505050505050565b6033546001600160a01b03163314610d905760405162461bcd60e51b815260040161023890611988565b6001600160a01b038116610df55760405162461bcd60e51b815260206004820152602660248201527f4f776e61626c653a206e6577206f776e657220697320746865207a65726f206160448201526564647265737360d01b6064820152608401610238565b6102d581610fa7565b6001600160a01b03163b151590565b6033546001600160a01b031633146102d55760405162461bcd60e51b815260040161023890611988565b7f4910fdfa16fed3260ed0e7147f7cc6da11a60208b5b9406d12a635614ffd91435460ff1615610e6f57610e6a836110dc565b505050565b826001600160a01b03166352d1902d6040518163ffffffff1660e01b8152600401602060405180830381865afa925050508015610ec9575060408051601f3d908101601f19168201909252610ec691810190611870565b60015b610f2c5760405162461bcd60e51b815260206004820152602e60248201527f45524331393637557067726164653a206e657720696d706c656d656e7461746960448201526d6f6e206973206e6f74205555505360901b6064820152608401610238565b600080516020611bbf8339815191528114610f9b5760405162461bcd60e51b815260206004820152602960248201527f45524331393637557067726164653a20756e737570706f727465642070726f786044820152681a58589b195555525160ba1b6064820152608401610238565b50610e6a838383611178565b603380546001600160a01b038381166001600160a01b0319831681179093556040519116919082907f8be0079c531659141344cd1fd0a4f28419497f9722a3daafe3b4186f6b6457e090600090a35050565b60008054610100900460ff1615611040578160ff16600114801561101c5750303b155b6110385760405162461bcd60e51b815260040161023890611af6565b506000919050565b60005460ff8084169116106110675760405162461bcd60e51b815260040161023890611af6565b506000805460ff191660ff92909216919091179055600190565b919050565b600054610100900460ff166110ad5760405162461bcd60e51b815260040161023890611b44565b6106c76111a3565b600054610100900460ff166106c75760405162461bcd60e51b815260040161023890611b44565b6001600160a01b0381163b6111495760405162461bcd60e51b815260206004820152602d60248201527f455243313936373a206e657720696d706c656d656e746174696f6e206973206e60448201526c1bdd08184818dbdb9d1c9858dd609a1b6064820152608401610238565b600080516020611bbf83398151915280546001600160a01b0319166001600160a01b0392909216919091179055565b611181836111d3565b60008251118061118e5750805b15610e6a5761119d8383611213565b50505050565b600054610100900460ff166111ca5760405162461bcd60e51b815260040161023890611b44565b6106c733610fa7565b6111dc816110dc565b6040516001600160a01b038216907fbc7cd75a20ee27fd9adebab32041f755214dbc6bffa90cc0225b39da2e5c2d3b90600090a250565b60606001600160a01b0383163b61127b5760405162461bcd60e51b815260206004820152602660248201527f416464726573733a2064656c65676174652063616c6c20746f206e6f6e2d636f6044820152651b9d1c9858dd60d21b6064820152608401610238565b600080846001600160a01b0316846040516112969190611b8f565b600060405180830381855af49150503d80600081146112d1576040519150601f19603f3d011682016040523d82523d6000602084013e6112d6565b606091505b50915091506109c98282604051806060016040528060278152602001611bdf6027913960608315611308575081611332565b8251156113185782518084602001fd5b8160405162461bcd60e51b81526004016102389190611bab565b9392505050565b6001600160a01b03811681146102d557600080fd5b803561108181611339565b60006020828403121561136b57600080fd5b813561133281611339565b634e487b7160e01b600052604160045260246000fd5b604051610180810167ffffffffffffffff811182821017156113b0576113b0611376565b60405290565b604051601f8201601f1916810167ffffffffffffffff811182821017156113df576113df611376565b604052919050565b600067ffffffffffffffff83111561140157611401611376565b611414601f8401601f19166020016113b6565b905082815283838301111561142857600080fd5b828260208301376000602084830101529392505050565b600082601f83011261145057600080fd5b611332838335602085016113e7565b600080600080600060a0868803121561147757600080fd5b853561148281611339565b9450602086013561149281611339565b935060408601356114a281611339565b925060608601359150608086013567ffffffffffffffff8111156114c557600080fd5b6114d18882890161143f565b9150509295509295909350565b600080604083850312156114f157600080fd5b82356114fc81611339565b9150602083013567ffffffffffffffff81111561151857600080fd5b8301601f8101851361152957600080fd5b611538858235602084016113e7565b9150509250929050565b600082601f83011261155357600080fd5b8135602067ffffffffffffffff82111561156f5761156f611376565b8160051b61157e8282016113b6565b928352848101820192828101908785111561159857600080fd5b83870192505b848310156105055782356115b181611339565b8252918301919083019061159e565b6000806000606084860312156115d557600080fd5b83356115e081611339565b9250602084013567ffffffffffffffff808211156115fd57600080fd5b90850190610180828803121561161257600080fd5b61161a61138c565b82358281111561162957600080fd5b6116358982860161143f565b8252506020830135602082015260408301356040820152606083013560608201526080830135608082015260a083013560a082015260c083013560c082015260e083013560e082015261010080840135818301525061012080840135818301525061014080840135838111156116aa57600080fd5b6116b68a828701611542565b8284015250506101606116ca81850161134e565b90820152935060408601359150808211156116e457600080fd5b506116f18682870161143f565b9150509250925092565b600080600080600060a0868803121561171357600080fd5b853561171e81611339565b9450602086013593506040860135925060608601359150608086013567ffffffffffffffff8111156114c557600080fd5b6000806000806080858703121561176557600080fd5b843561177081611339565b9350602085013561178081611339565b925060408501359150606085013567ffffffffffffffff8111156117a357600080fd5b6117af8782880161143f565b91505092959194509250565b6020808252602c908201527f46756e6374696f6e206d7573742062652063616c6c6564207468726f7567682060408201526b19195b1959d85d1958d85b1b60a21b606082015260800190565b6020808252602c908201527f46756e6374696f6e206d7573742062652063616c6c6564207468726f7567682060408201526b6163746976652070726f787960a01b606082015260800190565b60006020828403121561186557600080fd5b815161133281611339565b60006020828403121561188257600080fd5b5051919050565b6020808252600f908201526e2737ba1039b430b932b437b63232b960891b604082015260600190565b6000602082840312156118c457600080fd5b8151801515811461133257600080fd5b6020808252600990820152684e6f7420612044414f60b81b604082015260600190565b60005b838110156119125781810151838201526020016118fa565b8381111561119d5750506000910152565b6000815180845261193b8160208601602086016118f7565b601f01601f19169290920160200192915050565b60018060a01b03851681528360208201526080604082015260006119766080830185611923565b82810360608401526105058185611923565b6020808252818101527f4f776e61626c653a2063616c6c6572206973206e6f7420746865206f776e6572604082015260600190565b600081518084526020808501945080840160005b838110156119f65781516001600160a01b0316875295820195908201906001016119d1565b509495945050505050565b6020815260008251610180806020850152611a206101a0850183611923565b9150602085015160408501526040850151606085015260608501516080850152608085015160a085015260a085015160c085015260c085015160e085015260e0850151610100818187015280870151915050610120818187015280870151915050610140818187015280870151915050610160601f198685030181870152611aa884836119bd565b9601516001600160a01b03169190940152509192915050565b60018060a01b0384168152826020820152608060408201526000608082015260a0606082015260006109c960a0830184611923565b6020808252602e908201527f496e697469616c697a61626c653a20636f6e747261637420697320616c72656160408201526d191e481a5b9a5d1a585b1a5e995960921b606082015260800190565b6020808252602b908201527f496e697469616c697a61626c653a20636f6e7472616374206973206e6f74206960408201526a6e697469616c697a696e6760a81b606082015260800190565b60008251611ba18184602087016118f7565b9190910192915050565b602081526000611332602083018461192356fe360894a13ba1a3210667c828492db98dca3e2076cc3735a920a3ca505d382bbc416464726573733a206c6f772d6c6576656c2064656c65676174652063616c6c206661696c6564a26469706673582212207d5db2374b90ad020bf42f589feccf51a2950060cc7d0bef518152cc7548e3f764736f6c634300080d0033496e697469616c697a61626c653a20636f6e747261637420697320616c726561",
  "linkReferences": {},
  "deployedLinkReferences": {}
}