{
  "_format": "hh-sol-artifact-1",
  "contractName": "Metadata",
  "sourceName": "contracts/Metadata.sol",
  "abi": [
    {
      "inputs": [],
      "stateMutability": "nonpayable",
      "type": "constructor"
    },
    {
      "anonymous": false,
      "inputs": [
        {
          "indexed": false,
          "internalType": "address",
          "name": "previousAdmin",
          "type": "address"
        },
        {
          "indexed": false,
          "internalType": "address",
          "name": "newAdmin",
          "type": "address"
        }
      ],
      "name": "AdminChanged",
      "type": "event"
    },
    {
      "anonymous": false,
      "inputs": [
        {
          "indexed": true,
          "internalType": "address",
          "name": "beacon",
          "type": "address"
        }
      ],
      "name": "BeaconUpgraded",
      "type": "event"
    },
    {
      "anonymous": false,
      "inputs": [
        {
          "indexed": false,
          "internalType": "uint8",
          "name": "version",
          "type": "uint8"
        }
      ],
      "name": "Initialized",
      "type": "event"
    },
    {
      "anonymous": false,
      "inputs": [
        {
          "indexed": true,
          "internalType": "address",
          "name": "previousOwner",
          "type": "address"
        },
        {
          "indexed": true,
          "internalType": "address",
          "name": "newOwner",
          "type": "address"
        }
      ],
      "name": "OwnershipTransferred",
      "type": "event"
    },
    {
      "anonymous": false,
      "inputs": [
        {
          "indexed": false,
          "internalType": "uint256",
          "name": "id",
          "type": "uint256"
        },
        {
          "indexed": false,
          "internalType": "uint256",
          "name": "jurisdiction",
          "type": "uint256"
        },
        {
          "indexed": false,
          "internalType": "string",
          "name": "serialNumber",
          "type": "string"
        },
        {
          "indexed": false,
          "internalType": "string",
          "name": "dateOfIncorporation",
          "type": "string"
        },
        {
          "indexed": false,
          "internalType": "string",
          "name": "legalAddress",
          "type": "string"
        },
        {
          "indexed": false,
          "internalType": "string",
          "name": "taxationStatus",
          "type": "string"
        },
        {
          "indexed": false,
          "internalType": "string",
          "name": "registeredName",
          "type": "string"
        }
      ],
      "name": "RecordCreated",
      "type": "event"
    },
    {
      "anonymous": false,
      "inputs": [
        {
          "indexed": false,
          "internalType": "uint256",
          "name": "id",
          "type": "uint256"
        }
      ],
      "name": "RecordDeleted",
      "type": "event"
    },
    {
      "anonymous": false,
      "inputs": [
        {
          "indexed": true,
          "internalType": "address",
          "name": "implementation",
          "type": "address"
        }
      ],
      "name": "Upgraded",
      "type": "event"
    },
    {
      "inputs": [
        {
          "internalType": "uint256",
          "name": "jurisdiction",
          "type": "uint256"
        },
        {
          "internalType": "string",
          "name": "serialNumber",
          "type": "string"
        },
        {
          "internalType": "string",
          "name": "dateOfIncorporation",
          "type": "string"
        },
        {
          "internalType": "string",
          "name": "legalAddress",
          "type": "string"
        },
        {
          "internalType": "string",
          "name": "taxationStatus",
          "type": "string"
        },
        {
          "internalType": "string",
          "name": "registeredName",
          "type": "string"
        }
      ],
      "name": "createRecord",
      "outputs": [],
      "stateMutability": "nonpayable",
      "type": "function"
    },
    {
      "inputs": [],
      "name": "currentId",
      "outputs": [
        {
          "internalType": "uint256",
          "name": "",
          "type": "uint256"
        }
      ],
      "stateMutability": "view",
      "type": "function"
    },
    {
      "inputs": [
        {
          "internalType": "uint256",
          "name": "id",
          "type": "uint256"
        }
      ],
      "name": "deleteRecord",
      "outputs": [],
      "stateMutability": "nonpayable",
      "type": "function"
    },
    {
      "inputs": [
        {
          "internalType": "uint256",
          "name": "id",
          "type": "uint256"
        }
      ],
      "name": "getInfo",
      "outputs": [
        {
          "internalType": "string[5]",
          "name": "",
          "type": "string[5]"
        }
      ],
      "stateMutability": "view",
      "type": "function"
    },
    {
      "inputs": [
        {
          "internalType": "uint256",
          "name": "id",
          "type": "uint256"
        }
      ],
      "name": "getQueueInfo",
      "outputs": [
        {
          "components": [
            {
              "internalType": "uint256",
              "name": "jurisdiction",
              "type": "uint256"
            },
            {
              "internalType": "string",
              "name": "serialNumber",
              "type": "string"
            },
            {
              "internalType": "string",
              "name": "dateOfIncorporation",
              "type": "string"
            },
            {
              "internalType": "string",
              "name": "legalAddress",
              "type": "string"
            },
            {
              "internalType": "string",
              "name": "taxationStatus",
              "type": "string"
            },
            {
              "internalType": "string",
              "name": "registeredName",
              "type": "string"
            },
            {
              "internalType": "enum IMetadata.Status",
              "name": "status",
              "type": "uint8"
            },
            {
              "internalType": "address",
              "name": "owner",
              "type": "address"
            }
          ],
          "internalType": "struct IMetadata.QueueInfo",
          "name": "",
          "type": "tuple"
        }
      ],
      "stateMutability": "view",
      "type": "function"
    },
    {
      "inputs": [],
      "name": "initialize",
      "outputs": [],
      "stateMutability": "nonpayable",
      "type": "function"
    },
    {
      "inputs": [
        {
          "internalType": "uint256",
          "name": "jurisdiction",
          "type": "uint256"
        }
      ],
      "name": "jurisdictionAvailable",
      "outputs": [
        {
          "internalType": "uint256",
          "name": "",
          "type": "uint256"
        }
      ],
      "stateMutability": "view",
      "type": "function"
    },
    {
      "inputs": [
        {
          "internalType": "uint256",
          "name": "jurisdiction",
          "type": "uint256"
        }
      ],
      "name": "lockRecord",
      "outputs": [
        {
          "internalType": "uint256",
          "name": "",
          "type": "uint256"
        }
      ],
      "stateMutability": "nonpayable",
      "type": "function"
    },
    {
      "inputs": [],
      "name": "owner",
      "outputs": [
        {
          "internalType": "address",
          "name": "",
          "type": "address"
        }
      ],
      "stateMutability": "view",
      "type": "function"
    },
    {
      "inputs": [],
      "name": "proxiableUUID",
      "outputs": [
        {
          "internalType": "bytes32",
          "name": "",
          "type": "bytes32"
        }
      ],
      "stateMutability": "view",
      "type": "function"
    },
    {
      "inputs": [
        {
          "internalType": "uint256",
          "name": "",
          "type": "uint256"
        }
      ],
      "name": "queueInfo",
      "outputs": [
        {
          "internalType": "uint256",
          "name": "jurisdiction",
          "type": "uint256"
        },
        {
          "internalType": "string",
          "name": "serialNumber",
          "type": "string"
        },
        {
          "internalType": "string",
          "name": "dateOfIncorporation",
          "type": "string"
        },
        {
          "internalType": "string",
          "name": "legalAddress",
          "type": "string"
        },
        {
          "internalType": "string",
          "name": "taxationStatus",
          "type": "string"
        },
        {
          "internalType": "string",
          "name": "registeredName",
          "type": "string"
        },
        {
          "internalType": "enum IMetadata.Status",
          "name": "status",
          "type": "uint8"
        },
        {
          "internalType": "address",
          "name": "owner",
          "type": "address"
        }
      ],
      "stateMutability": "view",
      "type": "function"
    },
    {
      "inputs": [],
      "name": "renounceOwnership",
      "outputs": [],
      "stateMutability": "nonpayable",
      "type": "function"
    },
    {
      "inputs": [],
      "name": "service",
      "outputs": [
        {
          "internalType": "contract IService",
          "name": "",
          "type": "address"
        }
      ],
      "stateMutability": "view",
      "type": "function"
    },
    {
      "inputs": [
        {
          "internalType": "uint256",
          "name": "id",
          "type": "uint256"
        },
        {
          "internalType": "address",
          "name": "owner",
          "type": "address"
        }
      ],
      "name": "setOwner",
      "outputs": [],
      "stateMutability": "nonpayable",
      "type": "function"
    },
    {
      "inputs": [
        {
          "internalType": "address",
          "name": "service_",
          "type": "address"
        }
      ],
      "name": "setService",
      "outputs": [],
      "stateMutability": "nonpayable",
      "type": "function"
    },
    {
      "inputs": [
        {
          "internalType": "address",
          "name": "newOwner",
          "type": "address"
        }
      ],
      "name": "transferOwnership",
      "outputs": [],
      "stateMutability": "nonpayable",
      "type": "function"
    },
    {
      "inputs": [
        {
          "internalType": "address",
          "name": "newImplementation",
          "type": "address"
        }
      ],
      "name": "upgradeTo",
      "outputs": [],
      "stateMutability": "nonpayable",
      "type": "function"
    },
    {
      "inputs": [
        {
          "internalType": "address",
          "name": "newImplementation",
          "type": "address"
        },
        {
          "internalType": "bytes",
          "name": "data",
          "type": "bytes"
        }
      ],
      "name": "upgradeToAndCall",
      "outputs": [],
      "stateMutability": "payable",
      "type": "function"
    }
  ],
  "bytecode": "0x60a0604052306080523480156200001557600080fd5b506200002062000026565b62000156565b6200003260ff62000035565b50565b60008054610100900460ff1615620000ce578160ff1660011480156200006e57506200006c306200014760201b620017a51760201c565b155b620000c65760405162461bcd60e51b815260206004820152602e60248201526000805160206200282f83398151915260448201526d191e481a5b9a5d1a585b1a5e995960921b60648201526084015b60405180910390fd5b506000919050565b60005460ff8084169116106200012d5760405162461bcd60e51b815260206004820152602e60248201526000805160206200282f83398151915260448201526d191e481a5b9a5d1a585b1a5e995960921b6064820152608401620000bd565b506000805460ff191660ff92909216919091179055600190565b6001600160a01b03163b151590565b6080516126a16200018e60003960008181610c2201528181610c620152818161105e0152818161109e015261142801526126a16000f3fe6080604052600436106101095760003560e01c8063715018a611610095578063bf8bdac111610064578063bf8bdac1146102d5578063d598d4c9146102f5578063dbcb0bc914610315578063e00dd16114610335578063f2fde38b1461034b57600080fd5b8063715018a6146102595780637fd392471461026e5780638129fc1c1461028e5780638da5cb5b146102a357600080fd5b80633659cfe6116100dc5780633659cfe6146101b05780634bedf369146101d05780634f1ef286146101fd57806352211b461461021057806352d1902d1461024457600080fd5b8063061f98111461010e5780630ca3d0fb146101305780630d602f15146101635780631a3cd59a14610183575b600080fd5b34801561011a57600080fd5b5061012e610129366004611e39565b61036b565b005b34801561013c57600080fd5b5061015061014b366004611e39565b6104a4565b6040519081526020015b60405180910390f35b34801561016f57600080fd5b5061012e61017e366004611efe565b61057f565b34801561018f57600080fd5b506101a361019e366004611e39565b6108cc565b60405161015a9190612030565b3480156101bc57600080fd5b5061012e6101cb366004612094565b610c18565b3480156101dc57600080fd5b506101f06101eb366004611e39565b610cf7565b60405161015a91906120e7565b61012e61020b3660046121b9565b611054565b34801561021c57600080fd5b5061023061022b366004611e39565b611124565b60405161015a98979695949392919061221b565b34801561025057600080fd5b5061015061141b565b34801561026557600080fd5b5061012e6114ce565b34801561027a57600080fd5b5061012e6102893660046122b3565b611504565b34801561029a57600080fd5b5061012e611584565b3480156102af57600080fd5b506033546001600160a01b03165b6040516001600160a01b03909116815260200161015a565b3480156102e157600080fd5b5061012e6102f0366004612094565b6115ff565b34801561030157600080fd5b5060c9546102bd906001600160a01b031681565b34801561032157600080fd5b50610150610330366004611e39565b61164b565b34801561034157600080fd5b5061015060ca5481565b34801561035757600080fd5b5061012e610366366004612094565b61170d565b6033546001600160a01b0316331461039e5760405162461bcd60e51b8152600401610395906122df565b60405180910390fd5b600081815260cb602052604081206006015460ff1660018111156103c4576103c46120af565b146104045760405162461bcd60e51b815260206004820152601060248201526f5265636f726420697320696e2075736560801b6044820152606401610395565b600081815260cb60205260408120818155906104236001830182611ce9565b610431600283016000611ce9565b61043f600383016000611ce9565b61044d600483016000611ce9565b61045b600583016000611ce9565b5060060180546001600160a81b03191690556040518181527fb88d8be2c9fe5e1ef7087e07e8a84d625e33292845de220553103e7d540ada0c906020015b60405180910390a150565b60c9546000906001600160a01b031633146104ef5760405162461bcd60e51b815260206004820152600b60248201526a4e6f74207365727669636560a81b6044820152606401610395565b60015b60ca54811161057457600081815260cb60205260409020548314801561053b5750600081815260cb602052604081206006015460ff166001811115610539576105396120af565b145b1561056257600081815260cb60205260409020600601805460ff1916600117905592915050565b8061056c8161232a565b9150506104f2565b50600090505b919050565b6033546001600160a01b031633146105a95760405162461bcd60e51b8152600401610395906122df565b6000861180156105b95750845115155b6106115760405162461bcd60e51b8152602060048201526024808201527f496e76616c6964206a7572697364696374696f6e206f722073657269616c4e7560448201526336b132b960e11b6064820152608401610395565b600160ca60008282546106249190612343565b90915550600190505b60ca5481101561073c57600081815260cb6020526040902054871415806106c65750600081815260cb6020526040902054871480156106c6575085604051602001610678919061235b565b60408051601f198184030181528282528051602091820120600085815260cb83529290922091926106ad9260010191016123b1565b6040516020818303038152906040528051906020012014155b61072a5760405162461bcd60e51b815260206004820152602f60248201527f6a7572697364696374696f6e206d757374206861766520646966666572656e7460448201526e2073657269616c206e756d6265727360881b6064820152608401610395565b806107348161232a565b91505061062d565b5060405180610100016040528087815260200186815260200185815260200184815260200183815260200182815260200160006001811115610780576107806120af565b81526000602091820181905260ca54815260cb8252604090208251815582820151805191926107b792600185019290910190611d23565b50604082015180516107d3916002840191602090910190611d23565b50606082015180516107ef916003840191602090910190611d23565b506080820151805161080b916004840191602090910190611d23565b5060a08201518051610827916005840191602090910190611d23565b5060c082015160068201805460ff19166001838181111561084a5761084a6120af565b021790555060e09190910151600690910180546001600160a01b0390921661010002610100600160a81b031990921691909117905560ca546040517f1a642a202970c59e33f6b49e26f01883125b735c83df6eb7aa253c9c484895cd916108bc9189908990899089908990899061244c565b60405180910390a1505050505050565b6108d4611da7565b6040518060a0016040528060cb6000858152602001908152602001600020600101805461090090612377565b80601f016020809104026020016040519081016040528092919081815260200182805461092c90612377565b80156109795780601f1061094e57610100808354040283529160200191610979565b820191906000526020600020905b81548152906001019060200180831161095c57829003601f168201915b5050505050815260200160cb600085815260200190815260200160002060020180546109a490612377565b80601f01602080910402602001604051908101604052809291908181526020018280546109d090612377565b8015610a1d5780601f106109f257610100808354040283529160200191610a1d565b820191906000526020600020905b815481529060010190602001808311610a0057829003601f168201915b5050505050815260200160cb60008581526020019081526020016000206003018054610a4890612377565b80601f0160208091040260200160405190810160405280929190818152602001828054610a7490612377565b8015610ac15780601f10610a9657610100808354040283529160200191610ac1565b820191906000526020600020905b815481529060010190602001808311610aa457829003601f168201915b5050505050815260200160cb60008581526020019081526020016000206004018054610aec90612377565b80601f0160208091040260200160405190810160405280929190818152602001828054610b1890612377565b8015610b655780601f10610b3a57610100808354040283529160200191610b65565b820191906000526020600020905b815481529060010190602001808311610b4857829003601f168201915b5050505050815260200160cb60008581526020019081526020016000206005018054610b9090612377565b80601f0160208091040260200160405190810160405280929190818152602001828054610bbc90612377565b8015610c095780601f10610bde57610100808354040283529160200191610c09565b820191906000526020600020905b815481529060010190602001808311610bec57829003601f168201915b50505050508152509050919050565b6001600160a01b037f0000000000000000000000000000000000000000000000000000000000000000163003610c605760405162461bcd60e51b8152600401610395906124c7565b7f00000000000000000000000000000000000000000000000000000000000000006001600160a01b0316610ca9600080516020612625833981519152546001600160a01b031690565b6001600160a01b031614610ccf5760405162461bcd60e51b815260040161039590612513565b610cd8816117b4565b60408051600080825260208201909252610cf4918391906117de565b50565b610cff611dce565b60cb60008381526020019081526020016000206040518061010001604052908160008201548152602001600182018054610d3890612377565b80601f0160208091040260200160405190810160405280929190818152602001828054610d6490612377565b8015610db15780601f10610d8657610100808354040283529160200191610db1565b820191906000526020600020905b815481529060010190602001808311610d9457829003601f168201915b50505050508152602001600282018054610dca90612377565b80601f0160208091040260200160405190810160405280929190818152602001828054610df690612377565b8015610e435780601f10610e1857610100808354040283529160200191610e43565b820191906000526020600020905b815481529060010190602001808311610e2657829003601f168201915b50505050508152602001600382018054610e5c90612377565b80601f0160208091040260200160405190810160405280929190818152602001828054610e8890612377565b8015610ed55780601f10610eaa57610100808354040283529160200191610ed5565b820191906000526020600020905b815481529060010190602001808311610eb857829003601f168201915b50505050508152602001600482018054610eee90612377565b80601f0160208091040260200160405190810160405280929190818152602001828054610f1a90612377565b8015610f675780601f10610f3c57610100808354040283529160200191610f67565b820191906000526020600020905b815481529060010190602001808311610f4a57829003601f168201915b50505050508152602001600582018054610f8090612377565b80601f0160208091040260200160405190810160405280929190818152602001828054610fac90612377565b8015610ff95780601f10610fce57610100808354040283529160200191610ff9565b820191906000526020600020905b815481529060010190602001808311610fdc57829003601f168201915b5050509183525050600682015460209091019060ff166001811115611020576110206120af565b6001811115611031576110316120af565b81526006919091015461010090046001600160a01b031660209091015292915050565b6001600160a01b037f000000000000000000000000000000000000000000000000000000000000000016300361109c5760405162461bcd60e51b8152600401610395906124c7565b7f00000000000000000000000000000000000000000000000000000000000000006001600160a01b03166110e5600080516020612625833981519152546001600160a01b031690565b6001600160a01b03161461110b5760405162461bcd60e51b815260040161039590612513565b611114826117b4565b611120828260016117de565b5050565b60cb602052600090815260409020805460018201805491929161114690612377565b80601f016020809104026020016040519081016040528092919081815260200182805461117290612377565b80156111bf5780601f10611194576101008083540402835291602001916111bf565b820191906000526020600020905b8154815290600101906020018083116111a257829003601f168201915b5050505050908060020180546111d490612377565b80601f016020809104026020016040519081016040528092919081815260200182805461120090612377565b801561124d5780601f106112225761010080835404028352916020019161124d565b820191906000526020600020905b81548152906001019060200180831161123057829003601f168201915b50505050509080600301805461126290612377565b80601f016020809104026020016040519081016040528092919081815260200182805461128e90612377565b80156112db5780601f106112b0576101008083540402835291602001916112db565b820191906000526020600020905b8154815290600101906020018083116112be57829003601f168201915b5050505050908060040180546112f090612377565b80601f016020809104026020016040519081016040528092919081815260200182805461131c90612377565b80156113695780601f1061133e57610100808354040283529160200191611369565b820191906000526020600020905b81548152906001019060200180831161134c57829003601f168201915b50505050509080600501805461137e90612377565b80601f01602080910402602001604051908101604052809291908181526020018280546113aa90612377565b80156113f75780601f106113cc576101008083540402835291602001916113f7565b820191906000526020600020905b8154815290600101906020018083116113da57829003601f168201915b5050506006909301549192505060ff8116906001600160a01b036101009091041688565b6000306001600160a01b037f000000000000000000000000000000000000000000000000000000000000000016146114bb5760405162461bcd60e51b815260206004820152603860248201527f555550535570677261646561626c653a206d757374206e6f742062652063616c60448201527f6c6564207468726f7567682064656c656761746563616c6c00000000000000006064820152608401610395565b5060008051602061262583398151915290565b6033546001600160a01b031633146114f85760405162461bcd60e51b8152600401610395906122df565b611502600061194e565b565b60c9546001600160a01b0316331461154c5760405162461bcd60e51b815260206004820152600b60248201526a4e6f74207365727669636560a81b6044820152606401610395565b600091825260cb602052604090912060060180546001600160a01b0390921661010002610100600160a81b0319909216919091179055565b600061159060016119a0565b905080156115a8576000805461ff0019166101001790555b6115b0611a28565b6115b8611a57565b600060ca558015610cf4576000805461ff0019169055604051600181527f7f26b83ff96e1f2b6a682f133852f6798a09c465da95921460cefb384740249890602001610499565b6033546001600160a01b031633146116295760405162461bcd60e51b8152600401610395906122df565b60c980546001600160a01b0319166001600160a01b0392909216919091179055565b60008060015b60ca54811161170657600081815260cb6020526040902054841480159061169b5750600081815260cb602052604081206006015460ff166001811115611699576116996120af565b145b156116a557600191505b600081815260cb6020526040902054841480156116e55750600081815260cb602052604081206006015460ff1660018111156116e3576116e36120af565b145b156116f4575060029392505050565b806116fe8161232a565b915050611651565b5092915050565b6033546001600160a01b031633146117375760405162461bcd60e51b8152600401610395906122df565b6001600160a01b03811661179c5760405162461bcd60e51b815260206004820152602660248201527f4f776e61626c653a206e6577206f776e657220697320746865207a65726f206160448201526564647265737360d01b6064820152608401610395565b610cf48161194e565b6001600160a01b03163b151590565b6033546001600160a01b03163314610cf45760405162461bcd60e51b8152600401610395906122df565b7f4910fdfa16fed3260ed0e7147f7cc6da11a60208b5b9406d12a635614ffd91435460ff16156118165761181183611a7e565b505050565b826001600160a01b03166352d1902d6040518163ffffffff1660e01b8152600401602060405180830381865afa925050508015611870575060408051601f3d908101601f1916820190925261186d9181019061255f565b60015b6118d35760405162461bcd60e51b815260206004820152602e60248201527f45524331393637557067726164653a206e657720696d706c656d656e7461746960448201526d6f6e206973206e6f74205555505360901b6064820152608401610395565b60008051602061262583398151915281146119425760405162461bcd60e51b815260206004820152602960248201527f45524331393637557067726164653a20756e737570706f727465642070726f786044820152681a58589b195555525160ba1b6064820152608401610395565b50611811838383611b1a565b603380546001600160a01b038381166001600160a01b0319831681179093556040519116919082907f8be0079c531659141344cd1fd0a4f28419497f9722a3daafe3b4186f6b6457e090600090a35050565b60008054610100900460ff16156119e7578160ff1660011480156119c35750303b155b6119df5760405162461bcd60e51b815260040161039590612578565b506000919050565b60005460ff808416911610611a0e5760405162461bcd60e51b815260040161039590612578565b506000805460ff191660ff92909216919091179055600190565b600054610100900460ff16611a4f5760405162461bcd60e51b8152600401610395906125c6565b611502611b45565b600054610100900460ff166115025760405162461bcd60e51b8152600401610395906125c6565b6001600160a01b0381163b611aeb5760405162461bcd60e51b815260206004820152602d60248201527f455243313936373a206e657720696d706c656d656e746174696f6e206973206e60448201526c1bdd08184818dbdb9d1c9858dd609a1b6064820152608401610395565b60008051602061262583398151915280546001600160a01b0319166001600160a01b0392909216919091179055565b611b2383611b75565b600082511180611b305750805b1561181157611b3f8383611bb5565b50505050565b600054610100900460ff16611b6c5760405162461bcd60e51b8152600401610395906125c6565b6115023361194e565b611b7e81611a7e565b6040516001600160a01b038216907fbc7cd75a20ee27fd9adebab32041f755214dbc6bffa90cc0225b39da2e5c2d3b90600090a250565b60606001600160a01b0383163b611c1d5760405162461bcd60e51b815260206004820152602660248201527f416464726573733a2064656c65676174652063616c6c20746f206e6f6e2d636f6044820152651b9d1c9858dd60d21b6064820152608401610395565b600080846001600160a01b031684604051611c38919061235b565b600060405180830381855af49150503d8060008114611c73576040519150601f19603f3d011682016040523d82523d6000602084013e611c78565b606091505b5091509150611ca0828260405180606001604052806027815260200161264560279139611ca9565b95945050505050565b60608315611cb8575081611ce2565b825115611cc85782518084602001fd5b8160405162461bcd60e51b81526004016103959190612611565b9392505050565b508054611cf590612377565b6000825580601f10611d05575050565b601f016020900490600052602060002090810190610cf49190611e24565b828054611d2f90612377565b90600052602060002090601f016020900481019282611d515760008555611d97565b82601f10611d6a57805160ff1916838001178555611d97565b82800160010185558215611d97579182015b82811115611d97578251825591602001919060010190611d7c565b50611da3929150611e24565b5090565b6040518060a001604052806005905b6060815260200190600190039081611db65790505090565b60405180610100016040528060008152602001606081526020016060815260200160608152602001606081526020016060815260200160006001811115611e1757611e176120af565b8152600060209091015290565b5b80821115611da35760008155600101611e25565b600060208284031215611e4b57600080fd5b5035919050565b634e487b7160e01b600052604160045260246000fd5b600067ffffffffffffffff80841115611e8357611e83611e52565b604051601f8501601f19908116603f01168101908282118183101715611eab57611eab611e52565b81604052809350858152868686011115611ec457600080fd5b858560208301376000602087830101525050509392505050565b600082601f830112611eef57600080fd5b611ce283833560208501611e68565b60008060008060008060c08789031215611f1757600080fd5b86359550602087013567ffffffffffffffff80821115611f3657600080fd5b611f428a838b01611ede565b96506040890135915080821115611f5857600080fd5b611f648a838b01611ede565b95506060890135915080821115611f7a57600080fd5b611f868a838b01611ede565b94506080890135915080821115611f9c57600080fd5b611fa88a838b01611ede565b935060a0890135915080821115611fbe57600080fd5b50611fcb89828a01611ede565b9150509295509295509295565b60005b83811015611ff3578181015183820152602001611fdb565b83811115611b3f5750506000910152565b6000815180845261201c816020860160208601611fd8565b601f01601f19169290920160200192915050565b602080825260009060c0830183820185845b600581101561207157601f1987850301835261205f848351612004565b93509184019190840190600101612042565b50919695505050505050565b80356001600160a01b038116811461057a57600080fd5b6000602082840312156120a657600080fd5b611ce28261207d565b634e487b7160e01b600052602160045260246000fd5b600281106120e357634e487b7160e01b600052602160045260246000fd5b9052565b602081528151602082015260006020830151610100806040850152612110610120850183612004565b91506040850151601f198086850301606087015261212e8483612004565b9350606087015191508086850301608087015261214b8483612004565b935060808701519150808685030160a08701526121688483612004565b935060a08701519150808685030160c0870152506121868382612004565b92505060c085015161219b60e08601826120c5565b5060e08501516001600160a01b038116858301525090949350505050565b600080604083850312156121cc57600080fd5b6121d58361207d565b9150602083013567ffffffffffffffff8111156121f157600080fd5b8301601f8101851361220257600080fd5b61221185823560208401611e68565b9150509250929050565b60006101008a83528060208401526122358184018b612004565b90508281036040840152612249818a612004565b9050828103606084015261225d8189612004565b905082810360808401526122718188612004565b905082810360a08401526122858187612004565b91505061229560c08301856120c5565b6001600160a01b039290921660e09190910152979650505050505050565b600080604083850312156122c657600080fd5b823591506122d66020840161207d565b90509250929050565b6020808252818101527f4f776e61626c653a2063616c6c6572206973206e6f7420746865206f776e6572604082015260600190565b634e487b7160e01b600052601160045260246000fd5b60006001820161233c5761233c612314565b5060010190565b6000821982111561235657612356612314565b500190565b6000825161236d818460208701611fd8565b9190910192915050565b600181811c9082168061238b57607f821691505b6020821081036123ab57634e487b7160e01b600052602260045260246000fd5b50919050565b600080835481600182811c9150808316806123cd57607f831692505b602080841082036123ec57634e487b7160e01b86526022600452602486fd5b81801561240057600181146124115761243e565b60ff1986168952848901965061243e565b60008a81526020902060005b868110156124365781548b82015290850190830161241d565b505084890196505b509498975050505050505050565b87815286602082015260e06040820152600061246b60e0830188612004565b828103606084015261247d8188612004565b905082810360808401526124918187612004565b905082810360a08401526124a58186612004565b905082810360c08401526124b98185612004565b9a9950505050505050505050565b6020808252602c908201527f46756e6374696f6e206d7573742062652063616c6c6564207468726f7567682060408201526b19195b1959d85d1958d85b1b60a21b606082015260800190565b6020808252602c908201527f46756e6374696f6e206d7573742062652063616c6c6564207468726f7567682060408201526b6163746976652070726f787960a01b606082015260800190565b60006020828403121561257157600080fd5b5051919050565b6020808252602e908201527f496e697469616c697a61626c653a20636f6e747261637420697320616c72656160408201526d191e481a5b9a5d1a585b1a5e995960921b606082015260800190565b6020808252602b908201527f496e697469616c697a61626c653a20636f6e7472616374206973206e6f74206960408201526a6e697469616c697a696e6760a81b606082015260800190565b602081526000611ce2602083018461200456fe360894a13ba1a3210667c828492db98dca3e2076cc3735a920a3ca505d382bbc416464726573733a206c6f772d6c6576656c2064656c65676174652063616c6c206661696c6564a264697066735822122001cf19ccde9e5d625e42447085b161d841120e971d0a395236ea5bbc9baf1eaa64736f6c634300080d0033496e697469616c697a61626c653a20636f6e747261637420697320616c726561",
  "linkReferences": {},
  "deployedLinkReferences": {}
}