{
  "_format": "hh-sol-artifact-1",
  "contractName": "Directory",
  "sourceName": "contracts/Directory.sol",
  "abi": [
    {
      "inputs": [],
      "stateMutability": "nonpayable",
      "type": "constructor"
    },
    {
      "anonymous": false,
      "inputs": [
        {
          "indexed": false,
          "internalType": "address",
          "name": "previousAdmin",
          "type": "address"
        },
        {
          "indexed": false,
          "internalType": "address",
          "name": "newAdmin",
          "type": "address"
        }
      ],
      "name": "AdminChanged",
      "type": "event"
    },
    {
      "anonymous": false,
      "inputs": [
        {
          "indexed": true,
          "internalType": "address",
          "name": "beacon",
          "type": "address"
        }
      ],
      "name": "BeaconUpgraded",
      "type": "event"
    },
    {
      "anonymous": false,
      "inputs": [
        {
          "indexed": false,
          "internalType": "uint256",
          "name": "index",
          "type": "uint256"
        },
        {
          "indexed": false,
          "internalType": "string",
          "name": "description",
          "type": "string"
        }
      ],
      "name": "ContractDescriptionSet",
      "type": "event"
    },
    {
      "anonymous": false,
      "inputs": [
        {
          "indexed": false,
          "internalType": "uint256",
          "name": "index",
          "type": "uint256"
        },
        {
          "indexed": false,
          "internalType": "address",
          "name": "addr",
          "type": "address"
        },
        {
          "indexed": false,
          "internalType": "enum IDirectory.ContractType",
          "name": "contractType",
          "type": "uint8"
        }
      ],
      "name": "ContractRecordAdded",
      "type": "event"
    },
    {
      "anonymous": false,
      "inputs": [
        {
          "indexed": false,
          "internalType": "uint8",
          "name": "version",
          "type": "uint8"
        }
      ],
      "name": "Initialized",
      "type": "event"
    },
    {
      "anonymous": false,
      "inputs": [
        {
          "indexed": true,
          "internalType": "address",
          "name": "previousOwner",
          "type": "address"
        },
        {
          "indexed": true,
          "internalType": "address",
          "name": "newOwner",
          "type": "address"
        }
      ],
      "name": "OwnershipTransferred",
      "type": "event"
    },
    {
      "anonymous": false,
      "inputs": [
        {
          "indexed": false,
          "internalType": "uint256",
          "name": "index",
          "type": "uint256"
        },
        {
          "indexed": false,
          "internalType": "string",
          "name": "description",
          "type": "string"
        }
      ],
      "name": "ProposalDescriptionSet",
      "type": "event"
    },
    {
      "anonymous": false,
      "inputs": [
        {
          "indexed": false,
          "internalType": "uint256",
          "name": "index",
          "type": "uint256"
        },
        {
          "indexed": false,
          "internalType": "address",
          "name": "pool",
          "type": "address"
        },
        {
          "indexed": false,
          "internalType": "uint256",
          "name": "proposalId",
          "type": "uint256"
        }
      ],
      "name": "ProposalRecordAdded",
      "type": "event"
    },
    {
      "anonymous": false,
      "inputs": [
        {
          "indexed": false,
          "internalType": "address",
          "name": "service",
          "type": "address"
        }
      ],
      "name": "ServiceSet",
      "type": "event"
    },
    {
      "anonymous": false,
      "inputs": [
        {
          "indexed": true,
          "internalType": "address",
          "name": "implementation",
          "type": "address"
        }
      ],
      "name": "Upgraded",
      "type": "event"
    },
    {
      "inputs": [
        {
          "internalType": "address",
          "name": "addr",
          "type": "address"
        },
        {
          "internalType": "enum IDirectory.ContractType",
          "name": "contractType",
          "type": "uint8"
        }
      ],
      "name": "addContractRecord",
      "outputs": [
        {
          "internalType": "uint256",
          "name": "index",
          "type": "uint256"
        }
      ],
      "stateMutability": "nonpayable",
      "type": "function"
    },
    {
      "inputs": [
        {
          "internalType": "address",
          "name": "pool",
          "type": "address"
        },
        {
          "internalType": "uint256",
          "name": "proposalId",
          "type": "uint256"
        }
      ],
      "name": "addProposalRecord",
      "outputs": [
        {
          "internalType": "uint256",
          "name": "index",
          "type": "uint256"
        }
      ],
      "stateMutability": "nonpayable",
      "type": "function"
    },
    {
      "inputs": [
        {
          "internalType": "uint256",
          "name": "",
          "type": "uint256"
        }
      ],
      "name": "contractRecordAt",
      "outputs": [
        {
          "internalType": "address",
          "name": "addr",
          "type": "address"
        },
        {
          "internalType": "enum IDirectory.ContractType",
          "name": "contractType",
          "type": "uint8"
        },
        {
          "internalType": "string",
          "name": "description",
          "type": "string"
        }
      ],
      "stateMutability": "view",
      "type": "function"
    },
    {
      "inputs": [
        {
          "internalType": "address",
          "name": "",
          "type": "address"
        }
      ],
      "name": "indexOfContract",
      "outputs": [
        {
          "internalType": "uint256",
          "name": "",
          "type": "uint256"
        }
      ],
      "stateMutability": "view",
      "type": "function"
    },
    {
      "inputs": [],
      "name": "initialize",
      "outputs": [],
      "stateMutability": "nonpayable",
      "type": "function"
    },
    {
      "inputs": [],
      "name": "lastContractRecordIndex",
      "outputs": [
        {
          "internalType": "uint256",
          "name": "",
          "type": "uint256"
        }
      ],
      "stateMutability": "view",
      "type": "function"
    },
    {
      "inputs": [],
      "name": "lastProposalRecordIndex",
      "outputs": [
        {
          "internalType": "uint256",
          "name": "",
          "type": "uint256"
        }
      ],
      "stateMutability": "view",
      "type": "function"
    },
    {
      "inputs": [],
      "name": "owner",
      "outputs": [
        {
          "internalType": "address",
          "name": "",
          "type": "address"
        }
      ],
      "stateMutability": "view",
      "type": "function"
    },
    {
      "inputs": [
        {
          "internalType": "uint256",
          "name": "",
          "type": "uint256"
        }
      ],
      "name": "proposalRecordAt",
      "outputs": [
        {
          "internalType": "address",
          "name": "pool",
          "type": "address"
        },
        {
          "internalType": "uint256",
          "name": "proposalId",
          "type": "uint256"
        },
        {
          "internalType": "string",
          "name": "description",
          "type": "string"
        }
      ],
      "stateMutability": "view",
      "type": "function"
    },
    {
      "inputs": [],
      "name": "proxiableUUID",
      "outputs": [
        {
          "internalType": "bytes32",
          "name": "",
          "type": "bytes32"
        }
      ],
      "stateMutability": "view",
      "type": "function"
    },
    {
      "inputs": [],
      "name": "renounceOwnership",
      "outputs": [],
      "stateMutability": "nonpayable",
      "type": "function"
    },
    {
      "inputs": [],
      "name": "service",
      "outputs": [
        {
          "internalType": "address",
          "name": "",
          "type": "address"
        }
      ],
      "stateMutability": "view",
      "type": "function"
    },
    {
      "inputs": [
        {
          "internalType": "uint256",
          "name": "index",
          "type": "uint256"
        },
        {
          "internalType": "string",
          "name": "description",
          "type": "string"
        }
      ],
      "name": "setContractDescription",
      "outputs": [],
      "stateMutability": "nonpayable",
      "type": "function"
    },
    {
      "inputs": [
        {
          "internalType": "uint256",
          "name": "index",
          "type": "uint256"
        },
        {
          "internalType": "string",
          "name": "description",
          "type": "string"
        }
      ],
      "name": "setProposalDescription",
      "outputs": [],
      "stateMutability": "nonpayable",
      "type": "function"
    },
    {
      "inputs": [
        {
          "internalType": "address",
          "name": "service_",
          "type": "address"
        }
      ],
      "name": "setService",
      "outputs": [],
      "stateMutability": "nonpayable",
      "type": "function"
    },
    {
      "inputs": [
        {
          "internalType": "address",
          "name": "newOwner",
          "type": "address"
        }
      ],
      "name": "transferOwnership",
      "outputs": [],
      "stateMutability": "nonpayable",
      "type": "function"
    },
    {
      "inputs": [
        {
          "internalType": "address",
          "name": "addr",
          "type": "address"
        }
      ],
      "name": "typeOf",
      "outputs": [
        {
          "internalType": "enum IDirectory.ContractType",
          "name": "",
          "type": "uint8"
        }
      ],
      "stateMutability": "view",
      "type": "function"
    },
    {
      "inputs": [
        {
          "internalType": "address",
          "name": "newImplementation",
          "type": "address"
        }
      ],
      "name": "upgradeTo",
      "outputs": [],
      "stateMutability": "nonpayable",
      "type": "function"
    },
    {
      "inputs": [
        {
          "internalType": "address",
          "name": "newImplementation",
          "type": "address"
        },
        {
          "internalType": "bytes",
          "name": "data",
          "type": "bytes"
        }
      ],
      "name": "upgradeToAndCall",
      "outputs": [],
      "stateMutability": "payable",
      "type": "function"
    }
  ],
  "bytecode": "0x60a0604052306080523480156200001557600080fd5b506200002062000026565b62000156565b6200003260ff62000035565b50565b60008054610100900460ff1615620000ce578160ff1660011480156200006e57506200006c306200014760201b62000cd21760201c565b155b620000c65760405162461bcd60e51b815260206004820152602e6024820152600080516020620019e083398151915260448201526d191e481a5b9a5d1a585b1a5e995960921b60648201526084015b60405180910390fd5b506000919050565b60005460ff8084169116106200012d5760405162461bcd60e51b815260206004820152602e6024820152600080516020620019e083398151915260448201526d191e481a5b9a5d1a585b1a5e995960921b6064820152608401620000bd565b506000805460ff191660ff92909216919091179055600190565b6001600160a01b03163b151590565b6080516118526200018e6000396000818161054a0152818161058a015281816106b6015281816106f6015261078901526118526000f3fe6080604052600436106101145760003560e01c8063740b2e82116100a0578063bf8bdac111610064578063bf8bdac114610314578063d598d4c914610334578063e863325c14610354578063f2fde38b14610383578063f4be9369146103a357600080fd5b8063740b2e82146102685780638129fc1c14610288578063867c5ce41461029d5780638da5cb5b146102b35780638f78131d146102e557600080fd5b80634dcbe29c116100e75780634dcbe29c146101bb5780634f1ef286146101d157806352d1902d146101e45780636dcb0cf8146101f9578063715018a61461025357600080fd5b80630c80f36414610119578063121f661c1461014c5780633659cfe6146101795780633cf6f97e1461019b575b600080fd5b34801561012557600080fd5b506101396101343660046112cd565b6103c3565b6040519081526020015b60405180910390f35b34801561015857600080fd5b50610139610167366004611308565b60cc6020526000908152604090205481565b34801561018557600080fd5b50610199610194366004611308565b610540565b005b3480156101a757600080fd5b506101996101b63660046113af565b61061f565b3480156101c757600080fd5b5061013960ce5481565b6101996101df36600461140a565b6106ac565b3480156101f057600080fd5b5061013961077c565b34801561020557600080fd5b50610246610214366004611308565b6001600160a01b0316600090815260cc6020908152604080832054835260ca909152902054600160a01b900460ff1690565b604051610143919061147a565b34801561025f57600080fd5b5061019961082f565b34801561027457600080fd5b506101996102833660046113af565b610865565b34801561029457600080fd5b506101996108e6565b3480156102a957600080fd5b5061013960cb5481565b3480156102bf57600080fd5b506033546001600160a01b03165b6040516001600160a01b039091168152602001610143565b3480156102f157600080fd5b50610305610300366004611488565b610963565b604051610143939291906114f9565b34801561032057600080fd5b5061019961032f366004611308565b610a18565b34801561034057600080fd5b5060c9546102cd906001600160a01b031681565b34801561036057600080fd5b5061037461036f366004611488565b610ae6565b60405161014393929190611529565b34801561038f57600080fd5b5061019961039e366004611308565b610b1e565b3480156103af57600080fd5b506101396103be366004611558565b610bb6565b60c9546000906001600160a01b031633146104135760405162461bcd60e51b815260206004820152600b60248201526a4e6f74207365727669636560a81b60448201526064015b60405180910390fd5b60cb6000815461042290611582565b91905081905590506040518060600160405280846001600160a01b0316815260200183600381111561045657610456611442565b8152604080516020818101835260008083529381019190915284835260ca81529120825181546001600160a01b039091166001600160a01b031982168117835592840151919283916001600160a81b03191617600160a01b8360038111156104c0576104c0611442565b0217905550604082015180516104e091600184019160209091019061121d565b5050506001600160a01b038316600090815260cc602052604090819020829055517f30ae76c641f7b77628da0dd91b34591e5b1dc7422220e5eb1080af2adfa142ef90610532908390869086906115a9565b60405180910390a192915050565b6001600160a01b037f00000000000000000000000000000000000000000000000000000000000000001630036105885760405162461bcd60e51b815260040161040a906115d4565b7f00000000000000000000000000000000000000000000000000000000000000006001600160a01b03166105d16000805160206117d6833981519152546001600160a01b031690565b6001600160a01b0316146105f75760405162461bcd60e51b815260040161040a90611620565b61060081610ce1565b6040805160008082526020820190925261061c91839190610d0b565b50565b6033546001600160a01b031633146106495760405162461bcd60e51b815260040161040a9061166c565b600082815260cd60209081526040909120825161066e9260029092019184019061121d565b507fd4b52f51f8409bb81cfc40bc8589bda5074506c1be73813a83f4920ee7c1760c82826040516106a09291906116a1565b60405180910390a15050565b6001600160a01b037f00000000000000000000000000000000000000000000000000000000000000001630036106f45760405162461bcd60e51b815260040161040a906115d4565b7f00000000000000000000000000000000000000000000000000000000000000006001600160a01b031661073d6000805160206117d6833981519152546001600160a01b031690565b6001600160a01b0316146107635760405162461bcd60e51b815260040161040a90611620565b61076c82610ce1565b61077882826001610d0b565b5050565b6000306001600160a01b037f0000000000000000000000000000000000000000000000000000000000000000161461081c5760405162461bcd60e51b815260206004820152603860248201527f555550535570677261646561626c653a206d757374206e6f742062652063616c60448201527f6c6564207468726f7567682064656c656761746563616c6c0000000000000000606482015260840161040a565b506000805160206117d683398151915290565b6033546001600160a01b031633146108595760405162461bcd60e51b815260040161040a9061166c565b6108636000610e7b565b565b6033546001600160a01b0316331461088f5760405162461bcd60e51b815260040161040a9061166c565b600082815260ca6020908152604090912082516108b49260019092019184019061121d565b507f69e93226f950dc1ac48f9d4ce72d39b74e7dca96d8083af3fa382ca2c9f5b7b882826040516106a09291906116a1565b60006108f26001610ecd565b9050801561090a576000805461ff0019166101001790555b610912610f5a565b61091a610f89565b801561061c576000805461ff0019169055604051600181527f7f26b83ff96e1f2b6a682f133852f6798a09c465da95921460cefb3847402498906020015b60405180910390a150565b60cd602052600090815260409020805460018201546002830180546001600160a01b03909316939192610995906116ba565b80601f01602080910402602001604051908101604052809291908181526020018280546109c1906116ba565b8015610a0e5780601f106109e357610100808354040283529160200191610a0e565b820191906000526020600020905b8154815290600101906020018083116109f157829003601f168201915b5050505050905083565b6033546001600160a01b03163314610a425760405162461bcd60e51b815260040161040a9061166c565b6001600160a01b038116610a985760405162461bcd60e51b815260206004820152601760248201527f496e76616c696420736572766963652061646472657373000000000000000000604482015260640161040a565b60c980546001600160a01b0319166001600160a01b0383169081179091556040519081527fba4ef9f2abdeba1a78e372c28a47041ab716052e293845701bc5465fc4e7cf6190602001610958565b60ca60205260009081526040902080546001820180546001600160a01b03831693600160a01b90930460ff16929190610995906116ba565b6033546001600160a01b03163314610b485760405162461bcd60e51b815260040161040a9061166c565b6001600160a01b038116610bad5760405162461bcd60e51b815260206004820152602660248201527f4f776e61626c653a206e6577206f776e657220697320746865207a65726f206160448201526564647265737360d01b606482015260840161040a565b61061c81610e7b565b60c9546000906001600160a01b03163314610c015760405162461bcd60e51b815260206004820152600b60248201526a4e6f74207365727669636560a81b604482015260640161040a565b60ce60008154610c1090611582565b9182905550604080516060810182526001600160a01b038681168252602080830187815284518083018652600080825285870191825287815260cd845295909520845181546001600160a01b03191694169390931783555160018301559251805194955091939092610c8992600285019291019061121d565b5050604080518381526001600160a01b03861660208201529081018490527f275b6fbf6c9e793a28d01c614ff750fb316acacb6c25f06fdb8ac72d9dbabb089150606001610532565b6001600160a01b03163b151590565b6033546001600160a01b0316331461061c5760405162461bcd60e51b815260040161040a9061166c565b7f4910fdfa16fed3260ed0e7147f7cc6da11a60208b5b9406d12a635614ffd91435460ff1615610d4357610d3e83610fb0565b505050565b826001600160a01b03166352d1902d6040518163ffffffff1660e01b8152600401602060405180830381865afa925050508015610d9d575060408051601f3d908101601f19168201909252610d9a918101906116f4565b60015b610e005760405162461bcd60e51b815260206004820152602e60248201527f45524331393637557067726164653a206e657720696d706c656d656e7461746960448201526d6f6e206973206e6f74205555505360901b606482015260840161040a565b6000805160206117d68339815191528114610e6f5760405162461bcd60e51b815260206004820152602960248201527f45524331393637557067726164653a20756e737570706f727465642070726f786044820152681a58589b195555525160ba1b606482015260840161040a565b50610d3e83838361104c565b603380546001600160a01b038381166001600160a01b0319831681179093556040519116919082907f8be0079c531659141344cd1fd0a4f28419497f9722a3daafe3b4186f6b6457e090600090a35050565b60008054610100900460ff1615610f14578160ff166001148015610ef05750303b155b610f0c5760405162461bcd60e51b815260040161040a9061170d565b506000919050565b60005460ff808416911610610f3b5760405162461bcd60e51b815260040161040a9061170d565b506000805460ff191660ff92909216919091179055600190565b919050565b600054610100900460ff16610f815760405162461bcd60e51b815260040161040a9061175b565b610863611077565b600054610100900460ff166108635760405162461bcd60e51b815260040161040a9061175b565b6001600160a01b0381163b61101d5760405162461bcd60e51b815260206004820152602d60248201527f455243313936373a206e657720696d706c656d656e746174696f6e206973206e60448201526c1bdd08184818dbdb9d1c9858dd609a1b606482015260840161040a565b6000805160206117d683398151915280546001600160a01b0319166001600160a01b0392909216919091179055565b611055836110a7565b6000825111806110625750805b15610d3e5761107183836110e7565b50505050565b600054610100900460ff1661109e5760405162461bcd60e51b815260040161040a9061175b565b61086333610e7b565b6110b081610fb0565b6040516001600160a01b038216907fbc7cd75a20ee27fd9adebab32041f755214dbc6bffa90cc0225b39da2e5c2d3b90600090a250565b60606001600160a01b0383163b61114f5760405162461bcd60e51b815260206004820152602660248201527f416464726573733a2064656c65676174652063616c6c20746f206e6f6e2d636f6044820152651b9d1c9858dd60d21b606482015260840161040a565b600080846001600160a01b03168460405161116a91906117a6565b600060405180830381855af49150503d80600081146111a5576040519150601f19603f3d011682016040523d82523d6000602084013e6111aa565b606091505b50915091506111d282826040518060600160405280602781526020016117f6602791396111dd565b925050505b92915050565b606083156111ec575081611216565b8251156111fc5782518084602001fd5b8160405162461bcd60e51b815260040161040a91906117c2565b9392505050565b828054611229906116ba565b90600052602060002090601f01602090048101928261124b5760008555611291565b82601f1061126457805160ff1916838001178555611291565b82800160010185558215611291579182015b82811115611291578251825591602001919060010190611276565b5061129d9291506112a1565b5090565b5b8082111561129d57600081556001016112a2565b80356001600160a01b0381168114610f5557600080fd5b600080604083850312156112e057600080fd5b6112e9836112b6565b91506020830135600481106112fd57600080fd5b809150509250929050565b60006020828403121561131a57600080fd5b611216826112b6565b634e487b7160e01b600052604160045260246000fd5b600067ffffffffffffffff8084111561135457611354611323565b604051601f8501601f19908116603f0116810190828211818310171561137c5761137c611323565b8160405280935085815286868601111561139557600080fd5b858560208301376000602087830101525050509392505050565b600080604083850312156113c257600080fd5b82359150602083013567ffffffffffffffff8111156113e057600080fd5b8301601f810185136113f157600080fd5b61140085823560208401611339565b9150509250929050565b6000806040838503121561141d57600080fd5b611426836112b6565b9150602083013567ffffffffffffffff8111156113e057600080fd5b634e487b7160e01b600052602160045260246000fd5b6004811061147657634e487b7160e01b600052602160045260246000fd5b9052565b602081016111d78284611458565b60006020828403121561149a57600080fd5b5035919050565b60005b838110156114bc5781810151838201526020016114a4565b838111156110715750506000910152565b600081518084526114e58160208601602086016114a1565b601f01601f19169290920160200192915050565b60018060a01b038416815282602082015260606040820152600061152060608301846114cd565b95945050505050565b6001600160a01b03841681526115426020820184611458565b60606040820152600061152060608301846114cd565b6000806040838503121561156b57600080fd5b611574836112b6565b946020939093013593505050565b6000600182016115a257634e487b7160e01b600052601160045260246000fd5b5060010190565b8381526001600160a01b0383166020820152606081016115cc6040830184611458565b949350505050565b6020808252602c908201527f46756e6374696f6e206d7573742062652063616c6c6564207468726f7567682060408201526b19195b1959d85d1958d85b1b60a21b606082015260800190565b6020808252602c908201527f46756e6374696f6e206d7573742062652063616c6c6564207468726f7567682060408201526b6163746976652070726f787960a01b606082015260800190565b6020808252818101527f4f776e61626c653a2063616c6c6572206973206e6f7420746865206f776e6572604082015260600190565b8281526040602082015260006115cc60408301846114cd565b600181811c908216806116ce57607f821691505b6020821081036116ee57634e487b7160e01b600052602260045260246000fd5b50919050565b60006020828403121561170657600080fd5b5051919050565b6020808252602e908201527f496e697469616c697a61626c653a20636f6e747261637420697320616c72656160408201526d191e481a5b9a5d1a585b1a5e995960921b606082015260800190565b6020808252602b908201527f496e697469616c697a61626c653a20636f6e7472616374206973206e6f74206960408201526a6e697469616c697a696e6760a81b606082015260800190565b600082516117b88184602087016114a1565b9190910192915050565b60208152600061121660208301846114cd56fe360894a13ba1a3210667c828492db98dca3e2076cc3735a920a3ca505d382bbc416464726573733a206c6f772d6c6576656c2064656c65676174652063616c6c206661696c6564a26469706673582212203b1fc68a19dfe8122fd9669f6495c9e6c26cfd89571a372a31b2dc1071d391a464736f6c634300080d0033496e697469616c697a61626c653a20636f6e747261637420697320616c726561",
  "linkReferences": {},
  "deployedLinkReferences": {}
}