{
  "_format": "hh-sol-artifact-1",
  "contractName": "TGE",
  "sourceName": "contracts/TGE.sol",
  "abi": [
    {
      "inputs": [],
      "stateMutability": "nonpayable",
      "type": "constructor"
    },
    {
      "anonymous": false,
      "inputs": [
        {
          "indexed": false,
          "internalType": "uint8",
          "name": "version",
          "type": "uint8"
        }
      ],
      "name": "Initialized",
      "type": "event"
    },
    {
      "anonymous": false,
      "inputs": [
        {
          "indexed": true,
          "internalType": "address",
          "name": "previousOwner",
          "type": "address"
        },
        {
          "indexed": true,
          "internalType": "address",
          "name": "newOwner",
          "type": "address"
        }
      ],
      "name": "OwnershipTransferred",
      "type": "event"
    },
    {
      "anonymous": false,
      "inputs": [
        {
          "indexed": false,
          "internalType": "address",
          "name": "buyer",
          "type": "address"
        },
        {
          "indexed": false,
          "internalType": "uint256",
          "name": "amount",
          "type": "uint256"
        }
      ],
      "name": "Purchased",
      "type": "event"
    },
    {
      "inputs": [],
      "name": "claim",
      "outputs": [],
      "stateMutability": "nonpayable",
      "type": "function"
    },
    {
      "inputs": [],
      "name": "claimAvailable",
      "outputs": [
        {
          "internalType": "bool",
          "name": "",
          "type": "bool"
        }
      ],
      "stateMutability": "view",
      "type": "function"
    },
    {
      "inputs": [],
      "name": "createdAt",
      "outputs": [
        {
          "internalType": "uint256",
          "name": "",
          "type": "uint256"
        }
      ],
      "stateMutability": "view",
      "type": "function"
    },
    {
      "inputs": [],
      "name": "duration",
      "outputs": [
        {
          "internalType": "uint256",
          "name": "",
          "type": "uint256"
        }
      ],
      "stateMutability": "view",
      "type": "function"
    },
    {
      "inputs": [],
      "name": "getTotalLocked",
      "outputs": [
        {
          "internalType": "uint256",
          "name": "",
          "type": "uint256"
        }
      ],
      "stateMutability": "view",
      "type": "function"
    },
    {
      "inputs": [],
      "name": "getTotalLockedValue",
      "outputs": [
        {
          "internalType": "uint256",
          "name": "",
          "type": "uint256"
        }
      ],
      "stateMutability": "view",
      "type": "function"
    },
    {
      "inputs": [],
      "name": "getTotalPurchased",
      "outputs": [
        {
          "internalType": "uint256",
          "name": "",
          "type": "uint256"
        }
      ],
      "stateMutability": "view",
      "type": "function"
    },
    {
      "inputs": [],
      "name": "getTotalPurchasedValue",
      "outputs": [
        {
          "internalType": "uint256",
          "name": "",
          "type": "uint256"
        }
      ],
      "stateMutability": "view",
      "type": "function"
    },
    {
      "inputs": [],
      "name": "getUnitOfAccount",
      "outputs": [
        {
          "internalType": "address",
          "name": "",
          "type": "address"
        }
      ],
      "stateMutability": "view",
      "type": "function"
    },
    {
      "inputs": [],
      "name": "hardcap",
      "outputs": [
        {
          "internalType": "uint256",
          "name": "",
          "type": "uint256"
        }
      ],
      "stateMutability": "view",
      "type": "function"
    },
    {
      "inputs": [
        {
          "internalType": "address",
          "name": "owner_",
          "type": "address"
        },
        {
          "internalType": "address",
          "name": "token_",
          "type": "address"
        },
        {
          "components": [
            {
              "internalType": "string",
              "name": "metadataURI",
              "type": "string"
            },
            {
              "internalType": "uint256",
              "name": "price",
              "type": "uint256"
            },
            {
              "internalType": "uint256",
              "name": "hardcap",
              "type": "uint256"
            },
            {
              "internalType": "uint256",
              "name": "softcap",
              "type": "uint256"
            },
            {
              "internalType": "uint256",
              "name": "minPurchase",
              "type": "uint256"
            },
            {
              "internalType": "uint256",
              "name": "maxPurchase",
              "type": "uint256"
            },
            {
              "internalType": "uint256",
              "name": "lockupPercent",
              "type": "uint256"
            },
            {
              "internalType": "uint256",
              "name": "lockupDuration",
              "type": "uint256"
            },
            {
              "internalType": "uint256",
              "name": "lockupTVL",
              "type": "uint256"
            },
            {
              "internalType": "uint256",
              "name": "duration",
              "type": "uint256"
            },
            {
              "internalType": "address[]",
              "name": "userWhitelist",
              "type": "address[]"
            },
            {
              "internalType": "address",
              "name": "unitOfAccount",
              "type": "address"
            }
          ],
          "internalType": "struct ITGE.TGEInfo",
          "name": "info",
          "type": "tuple"
        }
      ],
      "name": "initialize",
      "outputs": [],
      "stateMutability": "nonpayable",
      "type": "function"
    },
    {
      "inputs": [
        {
          "internalType": "address",
          "name": "",
          "type": "address"
        }
      ],
      "name": "isTokenWhitelisted",
      "outputs": [
        {
          "internalType": "bool",
          "name": "",
          "type": "bool"
        }
      ],
      "stateMutability": "view",
      "type": "function"
    },
    {
      "inputs": [
        {
          "internalType": "address",
          "name": "",
          "type": "address"
        }
      ],
      "name": "isUserWhitelisted",
      "outputs": [
        {
          "internalType": "bool",
          "name": "",
          "type": "bool"
        }
      ],
      "stateMutability": "view",
      "type": "function"
    },
    {
      "inputs": [
        {
          "internalType": "address",
          "name": "",
          "type": "address"
        }
      ],
      "name": "lockedBalanceOf",
      "outputs": [
        {
          "internalType": "uint256",
          "name": "",
          "type": "uint256"
        }
      ],
      "stateMutability": "view",
      "type": "function"
    },
    {
      "inputs": [],
      "name": "lockupDuration",
      "outputs": [
        {
          "internalType": "uint256",
          "name": "",
          "type": "uint256"
        }
      ],
      "stateMutability": "view",
      "type": "function"
    },
    {
      "inputs": [],
      "name": "lockupPercent",
      "outputs": [
        {
          "internalType": "uint256",
          "name": "",
          "type": "uint256"
        }
      ],
      "stateMutability": "view",
      "type": "function"
    },
    {
      "inputs": [],
      "name": "lockupTVL",
      "outputs": [
        {
          "internalType": "uint256",
          "name": "",
          "type": "uint256"
        }
      ],
      "stateMutability": "view",
      "type": "function"
    },
    {
      "inputs": [],
      "name": "lockupTVLReached",
      "outputs": [
        {
          "internalType": "bool",
          "name": "",
          "type": "bool"
        }
      ],
      "stateMutability": "view",
      "type": "function"
    },
    {
      "inputs": [],
      "name": "maxPurchase",
      "outputs": [
        {
          "internalType": "uint256",
          "name": "",
          "type": "uint256"
        }
      ],
      "stateMutability": "view",
      "type": "function"
    },
    {
      "inputs": [
        {
          "internalType": "address",
          "name": "account",
          "type": "address"
        }
      ],
      "name": "maxPurchaseOf",
      "outputs": [
        {
          "internalType": "uint256",
          "name": "",
          "type": "uint256"
        }
      ],
      "stateMutability": "view",
      "type": "function"
    },
    {
      "inputs": [],
      "name": "metadataURI",
      "outputs": [
        {
          "internalType": "string",
          "name": "",
          "type": "string"
        }
      ],
      "stateMutability": "view",
      "type": "function"
    },
    {
      "inputs": [],
      "name": "minPurchase",
      "outputs": [
        {
          "internalType": "uint256",
          "name": "",
          "type": "uint256"
        }
      ],
      "stateMutability": "view",
      "type": "function"
    },
    {
      "inputs": [],
      "name": "owner",
      "outputs": [
        {
          "internalType": "address",
          "name": "",
          "type": "address"
        }
      ],
      "stateMutability": "view",
      "type": "function"
    },
    {
      "inputs": [],
      "name": "price",
      "outputs": [
        {
          "internalType": "uint256",
          "name": "",
          "type": "uint256"
        }
      ],
      "stateMutability": "view",
      "type": "function"
    },
    {
      "inputs": [
        {
          "internalType": "uint256",
          "name": "amount",
          "type": "uint256"
        }
      ],
      "name": "purchase",
      "outputs": [],
      "stateMutability": "payable",
      "type": "function"
    },
    {
      "inputs": [
        {
          "internalType": "address",
          "name": "",
          "type": "address"
        }
      ],
      "name": "purchaseOf",
      "outputs": [
        {
          "internalType": "uint256",
          "name": "",
          "type": "uint256"
        }
      ],
      "stateMutability": "view",
      "type": "function"
    },
    {
      "inputs": [],
      "name": "redeem",
      "outputs": [],
      "stateMutability": "nonpayable",
      "type": "function"
    },
    {
      "inputs": [],
      "name": "renounceOwnership",
      "outputs": [],
      "stateMutability": "nonpayable",
      "type": "function"
    },
    {
      "inputs": [],
      "name": "setLockupTVLReached",
      "outputs": [],
      "stateMutability": "nonpayable",
      "type": "function"
    },
    {
      "inputs": [],
      "name": "softcap",
      "outputs": [
        {
          "internalType": "uint256",
          "name": "",
          "type": "uint256"
        }
      ],
      "stateMutability": "view",
      "type": "function"
    },
    {
      "inputs": [],
      "name": "state",
      "outputs": [
        {
          "internalType": "enum ITGE.State",
          "name": "",
          "type": "uint8"
        }
      ],
      "stateMutability": "view",
      "type": "function"
    },
    {
      "inputs": [],
      "name": "token",
      "outputs": [
        {
          "internalType": "contract IGovernanceToken",
          "name": "",
          "type": "address"
        }
      ],
      "stateMutability": "view",
      "type": "function"
    },
    {
      "inputs": [],
      "name": "transferFunds",
      "outputs": [],
      "stateMutability": "nonpayable",
      "type": "function"
    },
    {
      "inputs": [
        {
          "internalType": "address",
          "name": "newOwner",
          "type": "address"
        }
      ],
      "name": "transferOwnership",
      "outputs": [],
      "stateMutability": "nonpayable",
      "type": "function"
    },
    {
      "inputs": [
        {
          "internalType": "uint256",
          "name": "",
          "type": "uint256"
        }
      ],
      "name": "userWhitelist",
      "outputs": [
        {
          "internalType": "address",
          "name": "",
          "type": "address"
        }
      ],
      "stateMutability": "view",
      "type": "function"
    }
  ],
  "bytecode": "0x60806040523480156200001157600080fd5b506200001c62000022565b62000152565b6200002e60ff62000031565b50565b60008054610100900460ff1615620000ca578160ff1660011480156200006a575062000068306200014360201b620017a81760201c565b155b620000c25760405162461bcd60e51b815260206004820152602e6024820152600080516020620024db83398151915260448201526d191e481a5b9a5d1a585b1a5e995960921b60648201526084015b60405180910390fd5b506000919050565b60005460ff808416911610620001295760405162461bcd60e51b815260206004820152602e6024820152600080516020620024db83398151915260448201526d191e481a5b9a5d1a585b1a5e995960921b6064820152608401620000b9565b506000805460ff191660ff92909216919091179055600190565b6001600160a01b03163b151590565b61237980620001626000396000f3fe6080604052600436106102045760003560e01c80638da5cb5b11610118578063cf09e0d0116100a0578063f2fde38b1161006f578063f2fde38b14610560578063f4732da614610580578063f89be59314610595578063fb237eb2146105ab578063fc0c546a146105db57600080fd5b8063cf09e0d014610507578063e15c38bd1461051d578063ec76d21514610533578063efef39a11461054d57600080fd5b8063b5af090f116100e7578063b5af090f1461045e578063b75979141461048e578063be040fb0146104a3578063bf7fec08146104b8578063c19d93fb146104e557600080fd5b80638da5cb5b146103fe578063977b055b1461041c578063a035b1fe14610432578063b071cbe61461044857600080fd5b806337c62eb11161019b5780634e71d92d1161016a5780634e71d92d146103725780635638b5e91461038757806359355736146103a757806367887a77146103d4578063715018a6146103e957600080fd5b806337c62eb1146102f85780633a7d190b1461031d5780633c68eb811461033d57806342ee5d841461035257600080fd5b8063205decf4116101d7578063205decf4146102845780632df311eb1461029b57806333b5b62e146102cd57806337938720146102e357600080fd5b806303ee438c146102095780630409f6f8146102345780630fb5a6b4146102585780631ada70a81461026e575b600080fd5b34801561021557600080fd5b5061021e6105fb565b60405161022b9190611dc8565b60405180910390f35b34801561024057600080fd5b5061024a609f5481565b60405190815260200161022b565b34801561026457600080fd5b5061024a60a15481565b34801561027a57600080fd5b5061024a60a05481565b34801561029057600080fd5b50610299610689565b005b3480156102a757600080fd5b5060a3546001600160a01b03165b6040516001600160a01b03909116815260200161022b565b3480156102d957600080fd5b5061024a609c5481565b3480156102ef57600080fd5b5060aa5461024a565b34801561030457600080fd5b5061030d6107bf565b604051901515815260200161022b565b34801561032957600080fd5b50610299610338366004611f7a565b61080d565b34801561034957600080fd5b50610299610b44565b34801561035e57600080fd5b5061024a61036d3660046120a7565b610d08565b34801561037e57600080fd5b50610299610d34565b34801561039357600080fd5b506102b56103a23660046120c4565b610ec6565b3480156103b357600080fd5b5061024a6103c23660046120a7565b60a96020526000908152604090205481565b3480156103e057600080fd5b5061024a610ef0565b3480156103f557600080fd5b50610299610f02565b34801561040a57600080fd5b506033546001600160a01b03166102b5565b34801561042857600080fd5b5061024a609d5481565b34801561043e57600080fd5b5061024a60995481565b34801561045457600080fd5b5061024a609a5481565b34801561046a57600080fd5b5061030d6104793660046120a7565b60a56020526000908152604090205460ff1681565b34801561049a57600080fd5b5061024a610f66565b3480156104af57600080fd5b50610299610f78565b3480156104c457600080fd5b5061024a6104d33660046120a7565b60a76020526000908152604090205481565b3480156104f157600080fd5b506104fa611249565b60405161022b91906120f3565b34801561051357600080fd5b5061024a60a65481565b34801561052957600080fd5b5061024a609e5481565b34801561053f57600080fd5b5060a85461030d9060ff1681565b61029961055b3660046120c4565b611290565b34801561056c57600080fd5b5061029961057b3660046120a7565b6116e0565b34801561058c57600080fd5b5060ab5461024a565b3480156105a157600080fd5b5061024a609b5481565b3480156105b757600080fd5b5061030d6105c63660046120a7565b60a46020526000908152604090205460ff1681565b3480156105e757600080fd5b506097546102b5906001600160a01b031681565b609880546106089061211b565b80601f01602080910402602001604051908101604052809291908181526020018280546106349061211b565b80156106815780601f1061065657610100808354040283529160200191610681565b820191906000526020600020905b81548152906001019060200180831161066457829003601f168201915b505050505081565b60a8805460ff19166001179055609f54609754604080516316f0115b60e01b815290516001600160a01b03909216916316f0115b916004808201926020929091908290030181865afa1580156106e3573d6000803e3d6000fd5b505050506040513d601f19601f820116820180604052508101906107079190612155565b6001600160a01b03166397b3fcaa6040518163ffffffff1660e01b81526004016020604051808303816000875af1158015610746573d6000803e3d6000fd5b505050506040513d601f19601f8201168201806040525081019061076a9190612172565b10156107bd5760405162461bcd60e51b815260206004820152601a60248201527f4c6f636b75702054564c206e6f7420796574207265616368656400000000000060448201526064015b60405180910390fd5b565b60a85460009060ff1680156107e3575060a05460a6546107df91906121a1565b4310155b8015610808575060016107f4611249565b6002811115610805576108056120dd565b14155b905090565b600061081960016117b7565b90508015610831576000805461ff0019166101001790555b610839611844565b6000836001600160a01b03166318160ddd6040518163ffffffff1660e01b8152600401602060405180830381865afa158015610879573d6000803e3d6000fd5b505050506040513d601f19601f8201168201806040525081019061089d9190612172565b846001600160a01b031663355274ea6040518163ffffffff1660e01b8152600401602060405180830381865afa1580156108db573d6000803e3d6000fd5b505050506040513d601f19601f820116820180604052508101906108ff9190612172565b61090991906121b9565b9050808360400151111561096b5760405162461bcd60e51b8152602060048201526024808201527f4861726463617020686967686572207468616e2072656d61696e696e6720737560448201526370706c7960e01b60648201526084016107b4565b61097485611873565b609780546001600160a01b0319166001600160a01b038616179055825180516109a591609891602090910190611d03565b5060208301516099556040830151609a556060830151609b556080830151609c5560a080840151609d5560c0840151609e55610100840151609f81905560a8805460ff1916911591909117905560e0840151905561012083015160a15561016083015160a380546001600160a01b039092166001600160a01b031990921691909117905560005b83610140015151811015610af25760a28461014001518281518110610a5357610a536121d0565b60209081029190910181015182546001808201855560009485529284200180546001600160a01b0319166001600160a01b039092169190911790556101408601518051919260a49290919085908110610aae57610aae6121d0565b6020908102919091018101516001600160a01b03168252810191909152604001600020805460ff191691151591909117905580610aea816121e6565b915050610a2c565b50504360a6558015610b3e576000805461ff0019169055604051600181527f7f26b83ff96e1f2b6a682f133852f6798a09c465da95921460cefb38474024989060200160405180910390a15b50505050565b600280610b4f611249565b6002811115610b6057610b606120dd565b14610b7d5760405162461bcd60e51b81526004016107b4906121ff565b60a3546001600160a01b0316610c1a57610c1747609760009054906101000a90046001600160a01b03166001600160a01b03166316f0115b6040518163ffffffff1660e01b8152600401602060405180830381865afa158015610be4573d6000803e3d6000fd5b505050506040513d601f19601f82011682018060405250810190610c089190612155565b6001600160a01b0316906118c5565b50565b609754604080516316f0115b60e01b81529051610c17926001600160a01b0316916316f0115b9160048083019260209291908290030181865afa158015610c65573d6000803e3d6000fd5b505050506040513d601f19601f82011682018060405250810190610c899190612155565b60a3546040516370a0823160e01b81523060048201526001600160a01b03909116906370a0823190602401602060405180830381865afa158015610cd1573d6000803e3d6000fd5b505050506040513d601f19601f82011682018060405250810190610cf59190612172565b60a3546001600160a01b031691906119e3565b6001600160a01b038116600090815260a76020526040812054609d54610d2e91906121b9565b92915050565b610d3c6107bf565b610d885760405162461bcd60e51b815260206004820152601760248201527f636c61696d206e6f742079657420617661696c61626c6500000000000000000060448201526064016107b4565b33600090815260a96020526040902054610dd85760405162461bcd60e51b81526020600482015260116024820152704e6f206c6f636b65642062616c616e636560781b60448201526064016107b4565b33600090815260a96020526040812080549082905560ab805491928392610e009084906121b9565b909155505060975460405163a9059cbb60e01b8152336004820152602481018390526000916001600160a01b03169063a9059cbb906044016020604051808303816000875af1158015610e57573d6000803e3d6000fd5b505050506040513d601f19601f82011682018060405250810190610e7b919061222b565b905080610ec25760405162461bcd60e51b8152602060048201526015602482015274151bdad95b881d1c985b9cd9995c8819985a5b1959605a1b60448201526064016107b4565b5050565b60a28181548110610ed657600080fd5b6000918252602090912001546001600160a01b0316905081565b600060995460aa54610808919061224d565b6033546001600160a01b03163314610f5c5760405162461bcd60e51b815260206004820181905260248201527f4f776e61626c653a2063616c6c6572206973206e6f7420746865206f776e657260448201526064016107b4565b6107bd6000611873565b600060995460ab54610808919061224d565b600180610f83611249565b6002811115610f9457610f946120dd565b14610fb15760405162461bcd60e51b81526004016107b4906121ff565b6097546040516370a0823160e01b81523360048201526000916001600160a01b0316906370a0823190602401602060405180830381865afa158015610ffa573d6000803e3d6000fd5b505050506040513d601f19601f8201168201806040525081019061101e9190612172565b33600090815260a960205260408120549192509061103c90836121a1565b9050818111156111135761105082826121b9565b33600090815260a960205260408120805490919061106f9084906121b9565b9091555061107f905082826121b9565b60ab600082825461109091906121b9565b90915550506097546001600160a01b0316639dc29fac306110b185856121b9565b6040516001600160e01b031960e085901b1681526001600160a01b0390921660048301526024820152604401600060405180830381600087803b1580156110f757600080fd5b505af115801561110b573d6000803e3d6000fd5b505050508190505b609754604051632770a7eb60e21b8152336004820152602481018390526001600160a01b0390911690639dc29fac90604401600060405180830381600087803b15801561115f57600080fd5b505af1158015611173573d6000803e3d6000fd5b50505050600060995482611187919061224d565b60a3549091506001600160a01b03166111cd57604051339082156108fc029083906000818181858888f193505050501580156111c7573d6000803e3d6000fd5b50610b3e565b60a35460405163a9059cbb60e01b8152336004820152602481018390526001600160a01b039091169063a9059cbb906044016020604051808303816000875af115801561121e573d6000803e3d6000fd5b505050506040513d601f19601f82011682018060405250810190611242919061222b565b5050505050565b6000609a5460aa540361125c5750600290565b60a15460a65461126c91906121a1565b4310156112795750600090565b609b5460aa541061128a5750600290565b50600190565b60a25415806112ae575033600090815260a4602052604090205460ff165b6112ec5760405162461bcd60e51b815260206004820152600f60248201526e139bdd081dda1a5d195b1a5cdd1959608a1b60448201526064016107b4565b6000806112f7611249565b6002811115611308576113086120dd565b146113255760405162461bcd60e51b81526004016107b4906121ff565b6002606554036113775760405162461bcd60e51b815260206004820152601f60248201527f5265656e7472616e637947756172643a207265656e7472616e742063616c6c0060448201526064016107b4565b600260655560a3546001600160a01b03166113ec57609954611399908361224d565b34146113e75760405162461bcd60e51b815260206004820152601860248201527f496e76616c6964204554482076616c756520706173736564000000000000000060448201526064016107b4565b611413565b6114133330609954856113ff919061224d565b60a3546001600160a01b0316929190611a46565b609c548210156114655760405162461bcd60e51b815260206004820152601d60248201527f416d6f756e74206c657373207468616e206d696e20707572636861736500000060448201526064016107b4565b61146e33610d08565b8211156114b65760405162461bcd60e51b81526020600482015260166024820152754f766572666c6f7773206d617820707572636861736560501b60448201526064016107b4565b609a548260aa546114c791906121a1565b11156115095760405162461bcd60e51b815260206004820152601160248201527004f766572666c6f7773206861726463617607c1b60448201526064016107b4565b8160aa600082825461151b91906121a1565b909155505033600090815260a760205260408120805484929061153f9084906121a1565b9091555050609e54600090606490611557908561224d565b6115629060636121a1565b61156c919061226c565b9050600061157a82856121b9565b11156115fb576097546001600160a01b03166340c10f193361159c84876121b9565b6040516001600160e01b031960e085901b1681526001600160a01b0390921660048301526024820152604401600060405180830381600087803b1580156115e257600080fd5b505af11580156115f6573d6000803e3d6000fd5b505050505b6097546040516340c10f1960e01b8152306004820152602481018390526001600160a01b03909116906340c10f1990604401600060405180830381600087803b15801561164757600080fd5b505af115801561165b573d6000803e3d6000fd5b505033600090815260a960205260408120805485945090925061167f9084906121a1565b925050819055508060ab600082825461169891906121a1565b909155505060408051338152602081018590527fa512fb2532ca8587f236380171326ebb69670e86a2ba0c4412a3fcca4c3ada9b910160405180910390a15050600160655550565b6033546001600160a01b0316331461173a5760405162461bcd60e51b815260206004820181905260248201527f4f776e61626c653a2063616c6c6572206973206e6f7420746865206f776e657260448201526064016107b4565b6001600160a01b03811661179f5760405162461bcd60e51b815260206004820152602660248201527f4f776e61626c653a206e6577206f776e657220697320746865207a65726f206160448201526564647265737360d01b60648201526084016107b4565b610c1781611873565b6001600160a01b03163b151590565b60008054610100900460ff16156117fe578160ff1660011480156117da5750303b155b6117f65760405162461bcd60e51b81526004016107b49061228e565b506000919050565b60005460ff8084169116106118255760405162461bcd60e51b81526004016107b49061228e565b506000805460ff191660ff92909216919091179055600190565b919050565b600054610100900460ff1661186b5760405162461bcd60e51b81526004016107b4906122dc565b6107bd611a7e565b603380546001600160a01b038381166001600160a01b0319831681179093556040519116919082907f8be0079c531659141344cd1fd0a4f28419497f9722a3daafe3b4186f6b6457e090600090a35050565b804710156119155760405162461bcd60e51b815260206004820152601d60248201527f416464726573733a20696e73756666696369656e742062616c616e636500000060448201526064016107b4565b6000826001600160a01b03168260405160006040518083038185875af1925050503d8060008114611962576040519150601f19603f3d011682016040523d82523d6000602084013e611967565b606091505b50509050806119de5760405162461bcd60e51b815260206004820152603a60248201527f416464726573733a20756e61626c6520746f2073656e642076616c75652c207260448201527f6563697069656e74206d6179206861766520726576657274656400000000000060648201526084016107b4565b505050565b6040516001600160a01b0383166024820152604481018290526119de90849063a9059cbb60e01b906064015b60408051601f198184030181529190526020810180516001600160e01b03166001600160e01b031990931692909217909152611aae565b6040516001600160a01b0380851660248301528316604482015260648101829052610b3e9085906323b872dd60e01b90608401611a0f565b600054610100900460ff16611aa55760405162461bcd60e51b81526004016107b4906122dc565b6107bd33611873565b6000611b03826040518060400160405280602081526020017f5361666545524332303a206c6f772d6c6576656c2063616c6c206661696c6564815250856001600160a01b0316611b809092919063ffffffff16565b8051909150156119de5780806020019051810190611b21919061222b565b6119de5760405162461bcd60e51b815260206004820152602a60248201527f5361666545524332303a204552433230206f7065726174696f6e20646964206e6044820152691bdd081cdd58d8d9595960b21b60648201526084016107b4565b6060611b8f8484600085611b99565b90505b9392505050565b606082471015611bfa5760405162461bcd60e51b815260206004820152602660248201527f416464726573733a20696e73756666696369656e742062616c616e636520666f6044820152651c8818d85b1b60d21b60648201526084016107b4565b6001600160a01b0385163b611c515760405162461bcd60e51b815260206004820152601d60248201527f416464726573733a2063616c6c20746f206e6f6e2d636f6e747261637400000060448201526064016107b4565b600080866001600160a01b03168587604051611c6d9190612327565b60006040518083038185875af1925050503d8060008114611caa576040519150601f19603f3d011682016040523d82523d6000602084013e611caf565b606091505b5091509150611cbf828286611cca565b979650505050505050565b60608315611cd9575081611b92565b825115611ce95782518084602001fd5b8160405162461bcd60e51b81526004016107b49190611dc8565b828054611d0f9061211b565b90600052602060002090601f016020900481019282611d315760008555611d77565b82601f10611d4a57805160ff1916838001178555611d77565b82800160010185558215611d77579182015b82811115611d77578251825591602001919060010190611d5c565b50611d83929150611d87565b5090565b5b80821115611d835760008155600101611d88565b60005b83811015611db7578181015183820152602001611d9f565b83811115610b3e5750506000910152565b6020815260008251806020840152611de7816040850160208701611d9c565b601f01601f19169190910160400192915050565b6001600160a01b0381168114610c1757600080fd5b803561183f81611dfb565b634e487b7160e01b600052604160045260246000fd5b604051610180810167ffffffffffffffff81118282101715611e5557611e55611e1b565b60405290565b604051601f8201601f1916810167ffffffffffffffff81118282101715611e8457611e84611e1b565b604052919050565b600082601f830112611e9d57600080fd5b813567ffffffffffffffff811115611eb757611eb7611e1b565b611eca601f8201601f1916602001611e5b565b818152846020838601011115611edf57600080fd5b816020850160208301376000918101602001919091529392505050565b600082601f830112611f0d57600080fd5b8135602067ffffffffffffffff821115611f2957611f29611e1b565b8160051b611f38828201611e5b565b9283528481018201928281019087851115611f5257600080fd5b83870192505b84831015611cbf578235611f6b81611dfb565b82529183019190830190611f58565b600080600060608486031215611f8f57600080fd5b8335611f9a81611dfb565b92506020840135611faa81611dfb565b9150604084013567ffffffffffffffff80821115611fc757600080fd5b908501906101808288031215611fdc57600080fd5b611fe4611e31565b823582811115611ff357600080fd5b611fff89828601611e8c565b8252506020830135602082015260408301356040820152606083013560608201526080830135608082015260a083013560a082015260c083013560c082015260e083013560e0820152610100808401358183015250610120808401358183015250610140808401358381111561207457600080fd5b6120808a828701611efc565b8284015250506101609150612096828401611e10565b828201528093505050509250925092565b6000602082840312156120b957600080fd5b8135611b9281611dfb565b6000602082840312156120d657600080fd5b5035919050565b634e487b7160e01b600052602160045260246000fd5b602081016003831061211557634e487b7160e01b600052602160045260246000fd5b91905290565b600181811c9082168061212f57607f821691505b60208210810361214f57634e487b7160e01b600052602260045260246000fd5b50919050565b60006020828403121561216757600080fd5b8151611b9281611dfb565b60006020828403121561218457600080fd5b5051919050565b634e487b7160e01b600052601160045260246000fd5b600082198211156121b4576121b461218b565b500190565b6000828210156121cb576121cb61218b565b500390565b634e487b7160e01b600052603260045260246000fd5b6000600182016121f8576121f861218b565b5060010190565b60208082526012908201527154474520696e2077726f6e6720737461746560701b604082015260600190565b60006020828403121561223d57600080fd5b81518015158114611b9257600080fd5b60008160001904831182151516156122675761226761218b565b500290565b60008261228957634e487b7160e01b600052601260045260246000fd5b500490565b6020808252602e908201527f496e697469616c697a61626c653a20636f6e747261637420697320616c72656160408201526d191e481a5b9a5d1a585b1a5e995960921b606082015260800190565b6020808252602b908201527f496e697469616c697a61626c653a20636f6e7472616374206973206e6f74206960408201526a6e697469616c697a696e6760a81b606082015260800190565b60008251612339818460208701611d9c565b919091019291505056fea26469706673582212205f8a262be00d9685c805dc0bf72ff42382ea9d565e645b4602821c36cfcc1c2b64736f6c634300080d0033496e697469616c697a61626c653a20636f6e747261637420697320616c726561",
  "linkReferences": {},
  "deployedLinkReferences": {}
}