{
  "_format": "hh-sol-artifact-1",
  "contractName": "TGE",
  "sourceName": "contracts/TGE.sol",
  "abi": [
    {
      "inputs": [],
      "stateMutability": "nonpayable",
      "type": "constructor"
    },
    {
      "anonymous": false,
      "inputs": [
        {
          "indexed": false,
          "internalType": "uint8",
          "name": "version",
          "type": "uint8"
        }
      ],
      "name": "Initialized",
      "type": "event"
    },
    {
      "anonymous": false,
      "inputs": [
        {
          "indexed": true,
          "internalType": "address",
          "name": "previousOwner",
          "type": "address"
        },
        {
          "indexed": true,
          "internalType": "address",
          "name": "newOwner",
          "type": "address"
        }
      ],
      "name": "OwnershipTransferred",
      "type": "event"
    },
    {
      "inputs": [],
      "name": "claim",
      "outputs": [],
      "stateMutability": "nonpayable",
      "type": "function"
    },
    {
      "inputs": [],
      "name": "claimAvailable",
      "outputs": [
        {
          "internalType": "bool",
          "name": "",
          "type": "bool"
        }
      ],
      "stateMutability": "view",
      "type": "function"
    },
    {
      "inputs": [],
      "name": "createdAt",
      "outputs": [
        {
          "internalType": "uint256",
          "name": "",
          "type": "uint256"
        }
      ],
      "stateMutability": "view",
      "type": "function"
    },
    {
      "inputs": [],
      "name": "duration",
      "outputs": [
        {
          "internalType": "uint256",
          "name": "",
          "type": "uint256"
        }
      ],
      "stateMutability": "view",
      "type": "function"
    },
    {
      "inputs": [],
      "name": "getTotalLocked",
      "outputs": [
        {
          "internalType": "uint256",
          "name": "",
          "type": "uint256"
        }
      ],
      "stateMutability": "view",
      "type": "function"
    },
    {
      "inputs": [],
      "name": "getTotalLockedValue",
      "outputs": [
        {
          "internalType": "uint256",
          "name": "",
          "type": "uint256"
        }
      ],
      "stateMutability": "view",
      "type": "function"
    },
    {
      "inputs": [],
      "name": "getTotalPurchased",
      "outputs": [
        {
          "internalType": "uint256",
          "name": "",
          "type": "uint256"
        }
      ],
      "stateMutability": "view",
      "type": "function"
    },
    {
      "inputs": [],
      "name": "getTotalPurchasedValue",
      "outputs": [
        {
          "internalType": "uint256",
          "name": "",
          "type": "uint256"
        }
      ],
      "stateMutability": "view",
      "type": "function"
    },
    {
      "inputs": [],
      "name": "getUnitOfAccount",
      "outputs": [
        {
          "internalType": "address",
          "name": "",
          "type": "address"
        }
      ],
      "stateMutability": "view",
      "type": "function"
    },
    {
      "inputs": [],
      "name": "hardcap",
      "outputs": [
        {
          "internalType": "uint256",
          "name": "",
          "type": "uint256"
        }
      ],
      "stateMutability": "view",
      "type": "function"
    },
    {
      "inputs": [
        {
          "internalType": "address",
          "name": "owner_",
          "type": "address"
        },
        {
          "internalType": "address",
          "name": "token_",
          "type": "address"
        },
        {
          "components": [
            {
              "internalType": "string",
              "name": "metadataURI",
              "type": "string"
            },
            {
              "internalType": "uint256",
              "name": "price",
              "type": "uint256"
            },
            {
              "internalType": "uint256",
              "name": "hardcap",
              "type": "uint256"
            },
            {
              "internalType": "uint256",
              "name": "softcap",
              "type": "uint256"
            },
            {
              "internalType": "uint256",
              "name": "minPurchase",
              "type": "uint256"
            },
            {
              "internalType": "uint256",
              "name": "maxPurchase",
              "type": "uint256"
            },
            {
              "internalType": "uint256",
              "name": "lockupPercent",
              "type": "uint256"
            },
            {
              "internalType": "uint256",
              "name": "lockupDuration",
              "type": "uint256"
            },
            {
              "internalType": "uint256",
              "name": "lockupTVL",
              "type": "uint256"
            },
            {
              "internalType": "uint256",
              "name": "duration",
              "type": "uint256"
            },
            {
              "internalType": "address[]",
              "name": "userWhitelist",
              "type": "address[]"
            },
            {
              "internalType": "address",
              "name": "unitOfAccount",
              "type": "address"
            }
          ],
          "internalType": "struct ITGE.TGEInfo",
          "name": "info",
          "type": "tuple"
        }
      ],
      "name": "initialize",
      "outputs": [],
      "stateMutability": "nonpayable",
      "type": "function"
    },
    {
      "inputs": [
        {
          "internalType": "address",
          "name": "",
          "type": "address"
        }
      ],
      "name": "isTokenWhitelisted",
      "outputs": [
        {
          "internalType": "bool",
          "name": "",
          "type": "bool"
        }
      ],
      "stateMutability": "view",
      "type": "function"
    },
    {
      "inputs": [
        {
          "internalType": "address",
          "name": "",
          "type": "address"
        }
      ],
      "name": "isUserWhitelisted",
      "outputs": [
        {
          "internalType": "bool",
          "name": "",
          "type": "bool"
        }
      ],
      "stateMutability": "view",
      "type": "function"
    },
    {
      "inputs": [
        {
          "internalType": "address",
          "name": "",
          "type": "address"
        }
      ],
      "name": "lockedBalanceOf",
      "outputs": [
        {
          "internalType": "uint256",
          "name": "",
          "type": "uint256"
        }
      ],
      "stateMutability": "view",
      "type": "function"
    },
    {
      "inputs": [],
      "name": "lockupDuration",
      "outputs": [
        {
          "internalType": "uint256",
          "name": "",
          "type": "uint256"
        }
      ],
      "stateMutability": "view",
      "type": "function"
    },
    {
      "inputs": [],
      "name": "lockupPercent",
      "outputs": [
        {
          "internalType": "uint256",
          "name": "",
          "type": "uint256"
        }
      ],
      "stateMutability": "view",
      "type": "function"
    },
    {
      "inputs": [],
      "name": "lockupTVL",
      "outputs": [
        {
          "internalType": "uint256",
          "name": "",
          "type": "uint256"
        }
      ],
      "stateMutability": "view",
      "type": "function"
    },
    {
      "inputs": [],
      "name": "lockupTVLReached",
      "outputs": [
        {
          "internalType": "bool",
          "name": "",
          "type": "bool"
        }
      ],
      "stateMutability": "view",
      "type": "function"
    },
    {
      "inputs": [],
      "name": "maxPurchase",
      "outputs": [
        {
          "internalType": "uint256",
          "name": "",
          "type": "uint256"
        }
      ],
      "stateMutability": "view",
      "type": "function"
    },
    {
      "inputs": [
        {
          "internalType": "address",
          "name": "account",
          "type": "address"
        }
      ],
      "name": "maxPurchaseOf",
      "outputs": [
        {
          "internalType": "uint256",
          "name": "",
          "type": "uint256"
        }
      ],
      "stateMutability": "view",
      "type": "function"
    },
    {
      "inputs": [],
      "name": "metadataURI",
      "outputs": [
        {
          "internalType": "string",
          "name": "",
          "type": "string"
        }
      ],
      "stateMutability": "view",
      "type": "function"
    },
    {
      "inputs": [],
      "name": "minPurchase",
      "outputs": [
        {
          "internalType": "uint256",
          "name": "",
          "type": "uint256"
        }
      ],
      "stateMutability": "view",
      "type": "function"
    },
    {
      "inputs": [],
      "name": "owner",
      "outputs": [
        {
          "internalType": "address",
          "name": "",
          "type": "address"
        }
      ],
      "stateMutability": "view",
      "type": "function"
    },
    {
      "inputs": [],
      "name": "price",
      "outputs": [
        {
          "internalType": "uint256",
          "name": "",
          "type": "uint256"
        }
      ],
      "stateMutability": "view",
      "type": "function"
    },
    {
      "inputs": [
        {
          "internalType": "uint256",
          "name": "amount",
          "type": "uint256"
        }
      ],
      "name": "purchase",
      "outputs": [],
      "stateMutability": "payable",
      "type": "function"
    },
    {
      "inputs": [
        {
          "internalType": "address",
          "name": "",
          "type": "address"
        }
      ],
      "name": "purchaseOf",
      "outputs": [
        {
          "internalType": "uint256",
          "name": "",
          "type": "uint256"
        }
      ],
      "stateMutability": "view",
      "type": "function"
    },
    {
      "inputs": [],
      "name": "redeem",
      "outputs": [],
      "stateMutability": "nonpayable",
      "type": "function"
    },
    {
      "inputs": [],
      "name": "renounceOwnership",
      "outputs": [],
      "stateMutability": "nonpayable",
      "type": "function"
    },
    {
      "inputs": [],
      "name": "setLockupTVLReached",
      "outputs": [],
      "stateMutability": "nonpayable",
      "type": "function"
    },
    {
      "inputs": [],
      "name": "softcap",
      "outputs": [
        {
          "internalType": "uint256",
          "name": "",
          "type": "uint256"
        }
      ],
      "stateMutability": "view",
      "type": "function"
    },
    {
      "inputs": [],
      "name": "state",
      "outputs": [
        {
          "internalType": "enum ITGE.State",
          "name": "",
          "type": "uint8"
        }
      ],
      "stateMutability": "view",
      "type": "function"
    },
    {
      "inputs": [],
      "name": "token",
      "outputs": [
        {
          "internalType": "contract IGovernanceToken",
          "name": "",
          "type": "address"
        }
      ],
      "stateMutability": "view",
      "type": "function"
    },
    {
      "inputs": [],
      "name": "transferFunds",
      "outputs": [],
      "stateMutability": "nonpayable",
      "type": "function"
    },
    {
      "inputs": [
        {
          "internalType": "address",
          "name": "newOwner",
          "type": "address"
        }
      ],
      "name": "transferOwnership",
      "outputs": [],
      "stateMutability": "nonpayable",
      "type": "function"
    },
    {
      "inputs": [
        {
          "internalType": "uint256",
          "name": "",
          "type": "uint256"
        }
      ],
      "name": "userWhitelist",
      "outputs": [
        {
          "internalType": "address",
          "name": "",
          "type": "address"
        }
      ],
      "stateMutability": "view",
      "type": "function"
    }
  ],
  "bytecode": "0x60806040523480156200001157600080fd5b506200001c62000022565b62000152565b6200002e60ff62000031565b50565b60008054610100900460ff1615620000ca578160ff1660011480156200006a575062000068306200014360201b620016d61760201c565b155b620000c25760405162461bcd60e51b815260206004820152602e60248201526000805160206200240983398151915260448201526d191e481a5b9a5d1a585b1a5e995960921b60648201526084015b60405180910390fd5b506000919050565b60005460ff808416911610620001295760405162461bcd60e51b815260206004820152602e60248201526000805160206200240983398151915260448201526d191e481a5b9a5d1a585b1a5e995960921b6064820152608401620000b9565b506000805460ff191660ff92909216919091179055600190565b6001600160a01b03163b151590565b6122a780620001626000396000f3fe6080604052600436106102045760003560e01c80638da5cb5b11610118578063cf09e0d0116100a0578063f2fde38b1161006f578063f2fde38b14610560578063f4732da614610580578063f89be59314610595578063fb237eb2146105ab578063fc0c546a146105db57600080fd5b8063cf09e0d014610507578063e15c38bd1461051d578063ec76d21514610533578063efef39a11461054d57600080fd5b8063b5af090f116100e7578063b5af090f1461045e578063b75979141461048e578063be040fb0146104a3578063bf7fec08146104b8578063c19d93fb146104e557600080fd5b80638da5cb5b146103fe578063977b055b1461041c578063a035b1fe14610432578063b071cbe61461044857600080fd5b806337c62eb11161019b5780634e71d92d1161016a5780634e71d92d146103725780635638b5e91461038757806359355736146103a757806367887a77146103d4578063715018a6146103e957600080fd5b806337c62eb1146102f85780633a7d190b1461031d5780633c68eb811461033d57806342ee5d841461035257600080fd5b8063205decf4116101d7578063205decf4146102845780632df311eb1461029b57806333b5b62e146102cd57806337938720146102e357600080fd5b806303ee438c146102095780630409f6f8146102345780630fb5a6b4146102585780631ada70a81461026e575b600080fd5b34801561021557600080fd5b5061021e6105fb565b60405161022b9190611cf6565b60405180910390f35b34801561024057600080fd5b5061024a606d5481565b60405190815260200161022b565b34801561026457600080fd5b5061024a606f5481565b34801561027a57600080fd5b5061024a606e5481565b34801561029057600080fd5b50610299610689565b005b3480156102a757600080fd5b506071546001600160a01b03165b6040516001600160a01b03909116815260200161022b565b3480156102d957600080fd5b5061024a606a5481565b3480156102ef57600080fd5b5060785461024a565b34801561030457600080fd5b5061030d6107c8565b604051901515815260200161022b565b34801561032957600080fd5b50610299610338366004611ea8565b610816565b34801561034957600080fd5b50610299610b4d565b34801561035e57600080fd5b5061024a61036d366004611fd5565b610d11565b34801561037e57600080fd5b50610299610d3d565b34801561039357600080fd5b506102b56103a2366004611ff2565b610e87565b3480156103b357600080fd5b5061024a6103c2366004611fd5565b60776020526000908152604090205481565b3480156103e057600080fd5b5061024a610eb1565b3480156103f557600080fd5b50610299610ec3565b34801561040a57600080fd5b506033546001600160a01b03166102b5565b34801561042857600080fd5b5061024a606b5481565b34801561043e57600080fd5b5061024a60675481565b34801561045457600080fd5b5061024a60685481565b34801561046a57600080fd5b5061030d610479366004611fd5565b60736020526000908152604090205460ff1681565b34801561049a57600080fd5b5061024a610f29565b3480156104af57600080fd5b50610299610f3b565b3480156104c457600080fd5b5061024a6104d3366004611fd5565b60756020526000908152604090205481565b3480156104f157600080fd5b506104fa61120c565b60405161022b9190612021565b34801561051357600080fd5b5061024a60745481565b34801561052957600080fd5b5061024a606c5481565b34801561053f57600080fd5b5060765461030d9060ff1681565b61029961055b366004611ff2565b611253565b34801561056c57600080fd5b5061029961057b366004611fd5565b61160e565b34801561058c57600080fd5b5060795461024a565b3480156105a157600080fd5b5061024a60695481565b3480156105b757600080fd5b5061030d6105c6366004611fd5565b60726020526000908152604090205460ff1681565b3480156105e757600080fd5b506065546102b5906001600160a01b031681565b6066805461060890612049565b80601f016020809104026020016040519081016040528092919081815260200182805461063490612049565b80156106815780601f1061065657610100808354040283529160200191610681565b820191906000526020600020905b81548152906001019060200180831161066457829003601f168201915b505050505081565b606d54606560009054906101000a90046001600160a01b03166001600160a01b03166316f0115b6040518163ffffffff1660e01b8152600401602060405180830381865afa1580156106df573d6000803e3d6000fd5b505050506040513d601f19601f820116820180604052508101906107039190612083565b6001600160a01b03166397b3fcaa6040518163ffffffff1660e01b81526004016020604051808303816000875af1158015610742573d6000803e3d6000fd5b505050506040513d601f19601f8201168201806040525081019061076691906120a0565b10156107b95760405162461bcd60e51b815260206004820152601a60248201527f4c6f636b75702054564c206e6f7420796574207265616368656400000000000060448201526064015b60405180910390fd5b6076805460ff19166001179055565b60765460009060ff1680156107ec5750606e546074546107e891906120cf565b4310155b8015610811575060016107fd61120c565b600281111561080e5761080e61200b565b14155b905090565b600061082260016116e5565b9050801561083a576000805461ff0019166101001790555b610842611772565b6000836001600160a01b03166318160ddd6040518163ffffffff1660e01b8152600401602060405180830381865afa158015610882573d6000803e3d6000fd5b505050506040513d601f19601f820116820180604052508101906108a691906120a0565b846001600160a01b031663355274ea6040518163ffffffff1660e01b8152600401602060405180830381865afa1580156108e4573d6000803e3d6000fd5b505050506040513d601f19601f8201168201806040525081019061090891906120a0565b61091291906120e7565b905080836040015111156109745760405162461bcd60e51b8152602060048201526024808201527f4861726463617020686967686572207468616e2072656d61696e696e6720737560448201526370706c7960e01b60648201526084016107b0565b61097d856117a1565b606580546001600160a01b0319166001600160a01b038616179055825180516109ae91606691602090910190611c31565b506020830151606755604083015160685560608301516069556080830151606a5560a0830151606b5560c0830151606c55610100830151606d8190556076805460ff1916911591909117905560e0830151606e55610120830151606f55610160830151607180546001600160a01b039092166001600160a01b031990921691909117905560005b83610140015151811015610afb5760708461014001518281518110610a5c57610a5c6120fe565b60209081029190910181015182546001808201855560009485529284200180546001600160a01b0319166001600160a01b039092169190911790556101408601518051919260729290919085908110610ab757610ab76120fe565b6020908102919091018101516001600160a01b03168252810191909152604001600020805460ff191691151591909117905580610af381612114565b915050610a35565b5050436074558015610b47576000805461ff0019169055604051600181527f7f26b83ff96e1f2b6a682f133852f6798a09c465da95921460cefb38474024989060200160405180910390a15b50505050565b600280610b5861120c565b6002811115610b6957610b6961200b565b14610b865760405162461bcd60e51b81526004016107b09061212d565b6071546001600160a01b0316610c2357610c2047606560009054906101000a90046001600160a01b03166001600160a01b03166316f0115b6040518163ffffffff1660e01b8152600401602060405180830381865afa158015610bed573d6000803e3d6000fd5b505050506040513d601f19601f82011682018060405250810190610c119190612083565b6001600160a01b0316906117f3565b50565b606554604080516316f0115b60e01b81529051610c20926001600160a01b0316916316f0115b9160048083019260209291908290030181865afa158015610c6e573d6000803e3d6000fd5b505050506040513d601f19601f82011682018060405250810190610c929190612083565b6071546040516370a0823160e01b81523060048201526001600160a01b03909116906370a0823190602401602060405180830381865afa158015610cda573d6000803e3d6000fd5b505050506040513d601f19601f82011682018060405250810190610cfe91906120a0565b6071546001600160a01b03169190611911565b6001600160a01b038116600090815260756020526040812054606b54610d3791906120e7565b92915050565b610d456107c8565b610d915760405162461bcd60e51b815260206004820152601760248201527f636c61696d206e6f742079657420617661696c61626c6500000000000000000060448201526064016107b0565b33600090815260776020526040902054610de15760405162461bcd60e51b81526020600482015260116024820152704e6f206c6f636b65642062616c616e636560781b60448201526064016107b0565b3360009081526077602052604081208054908290556079805491928392610e099084906120e7565b909155505060655460405163a9059cbb60e01b8152336004820152602481018390526001600160a01b039091169063a9059cbb906044016020604051808303816000875af1158015610e5f573d6000803e3d6000fd5b505050506040513d601f19601f82011682018060405250810190610e839190612159565b5050565b60708181548110610e9757600080fd5b6000918252602090912001546001600160a01b0316905081565b6000606754607854610811919061217b565b6033546001600160a01b03163314610f1d5760405162461bcd60e51b815260206004820181905260248201527f4f776e61626c653a2063616c6c6572206973206e6f7420746865206f776e657260448201526064016107b0565b610f2760006117a1565b565b6000606754607954610811919061217b565b600180610f4661120c565b6002811115610f5757610f5761200b565b14610f745760405162461bcd60e51b81526004016107b09061212d565b6065546040516370a0823160e01b81523360048201526000916001600160a01b0316906370a0823190602401602060405180830381865afa158015610fbd573d6000803e3d6000fd5b505050506040513d601f19601f82011682018060405250810190610fe191906120a0565b3360009081526077602052604081205491925090610fff90836120cf565b9050818111156110d65761101382826120e7565b33600090815260776020526040812080549091906110329084906120e7565b90915550611042905082826120e7565b6079600082825461105391906120e7565b90915550506065546001600160a01b0316639dc29fac3061107485856120e7565b6040516001600160e01b031960e085901b1681526001600160a01b0390921660048301526024820152604401600060405180830381600087803b1580156110ba57600080fd5b505af11580156110ce573d6000803e3d6000fd5b505050508190505b606554604051632770a7eb60e21b8152336004820152602481018390526001600160a01b0390911690639dc29fac90604401600060405180830381600087803b15801561112257600080fd5b505af1158015611136573d6000803e3d6000fd5b5050505060006067548261114a919061217b565b6071549091506001600160a01b031661119057604051339082156108fc029083906000818181858888f1935050505015801561118a573d6000803e3d6000fd5b50610b47565b60715460405163a9059cbb60e01b8152336004820152602481018390526001600160a01b039091169063a9059cbb906044016020604051808303816000875af11580156111e1573d6000803e3d6000fd5b505050506040513d601f19601f820116820180604052508101906112059190612159565b5050505050565b60006068546078540361121f5750600290565b606f5460745461122f91906120cf565b43101561123c5750600090565b6069546078541061124d5750600290565b50600190565b607054158061127157503360009081526072602052604090205460ff165b6112af5760405162461bcd60e51b815260206004820152600f60248201526e139bdd081dda1a5d195b1a5cdd1959608a1b60448201526064016107b0565b6000806112ba61120c565b60028111156112cb576112cb61200b565b146112e85760405162461bcd60e51b81526004016107b09061212d565b6071546001600160a01b031661135857606754611305908361217b565b34146113535760405162461bcd60e51b815260206004820152601860248201527f496e76616c6964204554482076616c756520706173736564000000000000000060448201526064016107b0565b61137f565b61137f33306067548561136b919061217b565b6071546001600160a01b0316929190611974565b606a548210156113d15760405162461bcd60e51b815260206004820152601d60248201527f416d6f756e74206c657373207468616e206d696e20707572636861736500000060448201526064016107b0565b6113da33610d11565b8211156114225760405162461bcd60e51b81526020600482015260166024820152754f766572666c6f7773206d617820707572636861736560501b60448201526064016107b0565b6068548260785461143391906120cf565b11156114755760405162461bcd60e51b815260206004820152601160248201527004f766572666c6f7773206861726463617607c1b60448201526064016107b0565b816078600082825461148791906120cf565b909155505033600090815260756020526040812080548492906114ab9084906120cf565b9091555050606c546000906064906114c3908561217b565b6114ce9060636120cf565b6114d8919061219a565b905060006114e682856120e7565b1115611567576065546001600160a01b03166340c10f193361150884876120e7565b6040516001600160e01b031960e085901b1681526001600160a01b0390921660048301526024820152604401600060405180830381600087803b15801561154e57600080fd5b505af1158015611562573d6000803e3d6000fd5b505050505b6065546040516340c10f1960e01b8152306004820152602481018390526001600160a01b03909116906340c10f1990604401600060405180830381600087803b1580156115b357600080fd5b505af11580156115c7573d6000803e3d6000fd5b505033600090815260776020526040812080548594509092506115eb9084906120cf565b92505081905550806079600082825461160491906120cf565b9091555050505050565b6033546001600160a01b031633146116685760405162461bcd60e51b815260206004820181905260248201527f4f776e61626c653a2063616c6c6572206973206e6f7420746865206f776e657260448201526064016107b0565b6001600160a01b0381166116cd5760405162461bcd60e51b815260206004820152602660248201527f4f776e61626c653a206e6577206f776e657220697320746865207a65726f206160448201526564647265737360d01b60648201526084016107b0565b610c20816117a1565b6001600160a01b03163b151590565b60008054610100900460ff161561172c578160ff1660011480156117085750303b155b6117245760405162461bcd60e51b81526004016107b0906121bc565b506000919050565b60005460ff8084169116106117535760405162461bcd60e51b81526004016107b0906121bc565b506000805460ff191660ff92909216919091179055600190565b919050565b600054610100900460ff166117995760405162461bcd60e51b81526004016107b09061220a565b610f276119ac565b603380546001600160a01b038381166001600160a01b0319831681179093556040519116919082907f8be0079c531659141344cd1fd0a4f28419497f9722a3daafe3b4186f6b6457e090600090a35050565b804710156118435760405162461bcd60e51b815260206004820152601d60248201527f416464726573733a20696e73756666696369656e742062616c616e636500000060448201526064016107b0565b6000826001600160a01b03168260405160006040518083038185875af1925050503d8060008114611890576040519150601f19603f3d011682016040523d82523d6000602084013e611895565b606091505b505090508061190c5760405162461bcd60e51b815260206004820152603a60248201527f416464726573733a20756e61626c6520746f2073656e642076616c75652c207260448201527f6563697069656e74206d6179206861766520726576657274656400000000000060648201526084016107b0565b505050565b6040516001600160a01b03831660248201526044810182905261190c90849063a9059cbb60e01b906064015b60408051601f198184030181529190526020810180516001600160e01b03166001600160e01b0319909316929092179091526119dc565b6040516001600160a01b0380851660248301528316604482015260648101829052610b479085906323b872dd60e01b9060840161193d565b600054610100900460ff166119d35760405162461bcd60e51b81526004016107b09061220a565b610f27336117a1565b6000611a31826040518060400160405280602081526020017f5361666545524332303a206c6f772d6c6576656c2063616c6c206661696c6564815250856001600160a01b0316611aae9092919063ffffffff16565b80519091501561190c5780806020019051810190611a4f9190612159565b61190c5760405162461bcd60e51b815260206004820152602a60248201527f5361666545524332303a204552433230206f7065726174696f6e20646964206e6044820152691bdd081cdd58d8d9595960b21b60648201526084016107b0565b6060611abd8484600085611ac7565b90505b9392505050565b606082471015611b285760405162461bcd60e51b815260206004820152602660248201527f416464726573733a20696e73756666696369656e742062616c616e636520666f6044820152651c8818d85b1b60d21b60648201526084016107b0565b6001600160a01b0385163b611b7f5760405162461bcd60e51b815260206004820152601d60248201527f416464726573733a2063616c6c20746f206e6f6e2d636f6e747261637400000060448201526064016107b0565b600080866001600160a01b03168587604051611b9b9190612255565b60006040518083038185875af1925050503d8060008114611bd8576040519150601f19603f3d011682016040523d82523d6000602084013e611bdd565b606091505b5091509150611bed828286611bf8565b979650505050505050565b60608315611c07575081611ac0565b825115611c175782518084602001fd5b8160405162461bcd60e51b81526004016107b09190611cf6565b828054611c3d90612049565b90600052602060002090601f016020900481019282611c5f5760008555611ca5565b82601f10611c7857805160ff1916838001178555611ca5565b82800160010185558215611ca5579182015b82811115611ca5578251825591602001919060010190611c8a565b50611cb1929150611cb5565b5090565b5b80821115611cb15760008155600101611cb6565b60005b83811015611ce5578181015183820152602001611ccd565b83811115610b475750506000910152565b6020815260008251806020840152611d15816040850160208701611cca565b601f01601f19169190910160400192915050565b6001600160a01b0381168114610c2057600080fd5b803561176d81611d29565b634e487b7160e01b600052604160045260246000fd5b604051610180810167ffffffffffffffff81118282101715611d8357611d83611d49565b60405290565b604051601f8201601f1916810167ffffffffffffffff81118282101715611db257611db2611d49565b604052919050565b600082601f830112611dcb57600080fd5b813567ffffffffffffffff811115611de557611de5611d49565b611df8601f8201601f1916602001611d89565b818152846020838601011115611e0d57600080fd5b816020850160208301376000918101602001919091529392505050565b600082601f830112611e3b57600080fd5b8135602067ffffffffffffffff821115611e5757611e57611d49565b8160051b611e66828201611d89565b9283528481018201928281019087851115611e8057600080fd5b83870192505b84831015611bed578235611e9981611d29565b82529183019190830190611e86565b600080600060608486031215611ebd57600080fd5b8335611ec881611d29565b92506020840135611ed881611d29565b9150604084013567ffffffffffffffff80821115611ef557600080fd5b908501906101808288031215611f0a57600080fd5b611f12611d5f565b823582811115611f2157600080fd5b611f2d89828601611dba565b8252506020830135602082015260408301356040820152606083013560608201526080830135608082015260a083013560a082015260c083013560c082015260e083013560e08201526101008084013581830152506101208084013581830152506101408084013583811115611fa257600080fd5b611fae8a828701611e2a565b8284015250506101609150611fc4828401611d3e565b828201528093505050509250925092565b600060208284031215611fe757600080fd5b8135611ac081611d29565b60006020828403121561200457600080fd5b5035919050565b634e487b7160e01b600052602160045260246000fd5b602081016003831061204357634e487b7160e01b600052602160045260246000fd5b91905290565b600181811c9082168061205d57607f821691505b60208210810361207d57634e487b7160e01b600052602260045260246000fd5b50919050565b60006020828403121561209557600080fd5b8151611ac081611d29565b6000602082840312156120b257600080fd5b5051919050565b634e487b7160e01b600052601160045260246000fd5b600082198211156120e2576120e26120b9565b500190565b6000828210156120f9576120f96120b9565b500390565b634e487b7160e01b600052603260045260246000fd5b600060018201612126576121266120b9565b5060010190565b60208082526012908201527154474520696e2077726f6e6720737461746560701b604082015260600190565b60006020828403121561216b57600080fd5b81518015158114611ac057600080fd5b6000816000190483118215151615612195576121956120b9565b500290565b6000826121b757634e487b7160e01b600052601260045260246000fd5b500490565b6020808252602e908201527f496e697469616c697a61626c653a20636f6e747261637420697320616c72656160408201526d191e481a5b9a5d1a585b1a5e995960921b606082015260800190565b6020808252602b908201527f496e697469616c697a61626c653a20636f6e7472616374206973206e6f74206960408201526a6e697469616c697a696e6760a81b606082015260800190565b60008251612267818460208701611cca565b919091019291505056fea264697066735822122049b39d1e67e561e896b1028855d23654551651683b06398038f262cfa7816c1464736f6c634300080d0033496e697469616c697a61626c653a20636f6e747261637420697320616c726561",
  "linkReferences": {},
  "deployedLinkReferences": {}
}