{
  "_format": "hh-sol-artifact-1",
  "contractName": "WhitelistedTokens",
  "sourceName": "contracts/WhitelistedTokens.sol",
  "abi": [
    {
      "inputs": [],
      "stateMutability": "nonpayable",
      "type": "constructor"
    },
    {
      "anonymous": false,
      "inputs": [
        {
          "indexed": false,
          "internalType": "address",
          "name": "previousAdmin",
          "type": "address"
        },
        {
          "indexed": false,
          "internalType": "address",
          "name": "newAdmin",
          "type": "address"
        }
      ],
      "name": "AdminChanged",
      "type": "event"
    },
    {
      "anonymous": false,
      "inputs": [
        {
          "indexed": true,
          "internalType": "address",
          "name": "beacon",
          "type": "address"
        }
      ],
      "name": "BeaconUpgraded",
      "type": "event"
    },
    {
      "anonymous": false,
      "inputs": [
        {
          "indexed": false,
          "internalType": "uint8",
          "name": "version",
          "type": "uint8"
        }
      ],
      "name": "Initialized",
      "type": "event"
    },
    {
      "anonymous": false,
      "inputs": [
        {
          "indexed": true,
          "internalType": "address",
          "name": "previousOwner",
          "type": "address"
        },
        {
          "indexed": true,
          "internalType": "address",
          "name": "newOwner",
          "type": "address"
        }
      ],
      "name": "OwnershipTransferred",
      "type": "event"
    },
    {
      "anonymous": false,
      "inputs": [
        {
          "indexed": false,
          "internalType": "address",
          "name": "token",
          "type": "address"
        },
        {
          "indexed": false,
          "internalType": "bool",
          "name": "whitelisted",
          "type": "bool"
        }
      ],
      "name": "TokenWhitelistedSet",
      "type": "event"
    },
    {
      "anonymous": false,
      "inputs": [
        {
          "indexed": true,
          "internalType": "address",
          "name": "implementation",
          "type": "address"
        }
      ],
      "name": "Upgraded",
      "type": "event"
    },
    {
      "inputs": [
        {
          "internalType": "address[]",
          "name": "tokens",
          "type": "address[]"
        },
        {
          "internalType": "bytes[]",
          "name": "swapPaths",
          "type": "bytes[]"
        },
        {
          "internalType": "bytes[]",
          "name": "swapReversePaths",
          "type": "bytes[]"
        }
      ],
      "name": "addTokensToWhitelist",
      "outputs": [],
      "stateMutability": "nonpayable",
      "type": "function"
    },
    {
      "inputs": [],
      "name": "initialize",
      "outputs": [],
      "stateMutability": "nonpayable",
      "type": "function"
    },
    {
      "inputs": [
        {
          "internalType": "address",
          "name": "token",
          "type": "address"
        }
      ],
      "name": "isTokenWhitelisted",
      "outputs": [
        {
          "internalType": "bool",
          "name": "",
          "type": "bool"
        }
      ],
      "stateMutability": "view",
      "type": "function"
    },
    {
      "inputs": [],
      "name": "owner",
      "outputs": [
        {
          "internalType": "address",
          "name": "",
          "type": "address"
        }
      ],
      "stateMutability": "view",
      "type": "function"
    },
    {
      "inputs": [],
      "name": "proxiableUUID",
      "outputs": [
        {
          "internalType": "bytes32",
          "name": "",
          "type": "bytes32"
        }
      ],
      "stateMutability": "view",
      "type": "function"
    },
    {
      "inputs": [
        {
          "internalType": "address[]",
          "name": "tokens",
          "type": "address[]"
        }
      ],
      "name": "removeTokensFromWhitelist",
      "outputs": [],
      "stateMutability": "nonpayable",
      "type": "function"
    },
    {
      "inputs": [],
      "name": "renounceOwnership",
      "outputs": [],
      "stateMutability": "nonpayable",
      "type": "function"
    },
    {
      "inputs": [
        {
          "internalType": "address",
          "name": "",
          "type": "address"
        }
      ],
      "name": "tokenSwapPath",
      "outputs": [
        {
          "internalType": "bytes",
          "name": "",
          "type": "bytes"
        }
      ],
      "stateMutability": "view",
      "type": "function"
    },
    {
      "inputs": [
        {
          "internalType": "address",
          "name": "",
          "type": "address"
        }
      ],
      "name": "tokenSwapReversePath",
      "outputs": [
        {
          "internalType": "bytes",
          "name": "",
          "type": "bytes"
        }
      ],
      "stateMutability": "view",
      "type": "function"
    },
    {
      "inputs": [],
      "name": "tokenWhitelist",
      "outputs": [
        {
          "internalType": "address[]",
          "name": "",
          "type": "address[]"
        }
      ],
      "stateMutability": "view",
      "type": "function"
    },
    {
      "inputs": [
        {
          "internalType": "address",
          "name": "newOwner",
          "type": "address"
        }
      ],
      "name": "transferOwnership",
      "outputs": [],
      "stateMutability": "nonpayable",
      "type": "function"
    },
    {
      "inputs": [
        {
          "internalType": "address",
          "name": "newImplementation",
          "type": "address"
        }
      ],
      "name": "upgradeTo",
      "outputs": [],
      "stateMutability": "nonpayable",
      "type": "function"
    },
    {
      "inputs": [
        {
          "internalType": "address",
          "name": "newImplementation",
          "type": "address"
        },
        {
          "internalType": "bytes",
          "name": "data",
          "type": "bytes"
        }
      ],
      "name": "upgradeToAndCall",
      "outputs": [],
      "stateMutability": "payable",
      "type": "function"
    }
  ],
  "bytecode": "0x60a0604052306080523480156200001557600080fd5b506200002062000026565b62000156565b6200003260ff62000035565b50565b60008054610100900460ff1615620000ce578160ff1660011480156200006e57506200006c306200014760201b62000a2d1760201c565b155b620000c65760405162461bcd60e51b815260206004820152602e602482015260008051602062001a1c83398151915260448201526d191e481a5b9a5d1a585b1a5e995960921b60648201526084015b60405180910390fd5b506000919050565b60005460ff8084169116106200012d5760405162461bcd60e51b815260206004820152602e602482015260008051602062001a1c83398151915260448201526d191e481a5b9a5d1a585b1a5e995960921b6064820152608401620000bd565b506000805460ff191660ff92909216919091179055600190565b6001600160a01b03163b151590565b60805161188e6200018e60003960008181610283015281816102cc0152818161036b015281816103ab01526104d8015261188e6000f3fe6080604052600436106100c25760003560e01c80638129fc1c1161007f578063b36bb0e311610059578063b36bb0e3146101e7578063b5af090f14610207578063ca735cc114610237578063f2fde38b1461025957600080fd5b80638129fc1c1461018a5780638da5cb5b1461019f578063a7ca279f146101c757600080fd5b80633659cfe6146100c75780634f1ef286146100e957806350eb1c43146100fc57806352d1902d1461013257806363d08dff14610155578063715018a614610175575b600080fd5b3480156100d357600080fd5b506100e76100e2366004611217565b610279565b005b6100e76100f73660046112e9565b610361565b34801561010857600080fd5b5061011c610117366004611217565b610431565b604051610129919061138f565b60405180910390f35b34801561013e57600080fd5b506101476104cb565b604051908152602001610129565b34801561016157600080fd5b5061011c610170366004611217565b61057e565b34801561018157600080fd5b506100e7610597565b34801561019657600080fd5b506100e76105cd565b3480156101ab57600080fd5b506033546040516001600160a01b039091168152602001610129565b3480156101d357600080fd5b506100e76101e23660046114b8565b610649565b3480156101f357600080fd5b506100e7610202366004611540565b610847565b34801561021357600080fd5b50610227610222366004611217565b610971565b6040519015158152602001610129565b34801561024357600080fd5b5061024c610984565b604051610129919061157d565b34801561026557600080fd5b506100e7610274366004611217565b610995565b6001600160a01b037f00000000000000000000000000000000000000000000000000000000000000001630036102ca5760405162461bcd60e51b81526004016102c1906115ca565b60405180910390fd5b7f00000000000000000000000000000000000000000000000000000000000000006001600160a01b0316610313600080516020611812833981519152546001600160a01b031690565b6001600160a01b0316146103395760405162461bcd60e51b81526004016102c190611616565b61034281610a3c565b6040805160008082526020820190925261035e91839190610a66565b50565b6001600160a01b037f00000000000000000000000000000000000000000000000000000000000000001630036103a95760405162461bcd60e51b81526004016102c1906115ca565b7f00000000000000000000000000000000000000000000000000000000000000006001600160a01b03166103f2600080516020611812833981519152546001600160a01b031690565b6001600160a01b0316146104185760405162461bcd60e51b81526004016102c190611616565b61042182610a3c565b61042d82826001610a66565b5050565b60cb602052600090815260409020805461044a90611662565b80601f016020809104026020016040519081016040528092919081815260200182805461047690611662565b80156104c35780601f10610498576101008083540402835291602001916104c3565b820191906000526020600020905b8154815290600101906020018083116104a657829003601f168201915b505050505081565b6000306001600160a01b037f0000000000000000000000000000000000000000000000000000000000000000161461056b5760405162461bcd60e51b815260206004820152603860248201527f555550535570677261646561626c653a206d757374206e6f742062652063616c60448201527f6c6564207468726f7567682064656c656761746563616c6c000000000000000060648201526084016102c1565b5060008051602061181283398151915290565b60cc602052600090815260409020805461044a90611662565b6033546001600160a01b031633146105c15760405162461bcd60e51b81526004016102c19061169c565b6105cb6000610bd6565b565b60006105d96001610c28565b905080156105f1576000805461ff0019166101001790555b6105f9610cb5565b610601610ce4565b801561035e576000805461ff0019169055604051600181527f7f26b83ff96e1f2b6a682f133852f6798a09c465da95921460cefb38474024989060200160405180910390a150565b6033546001600160a01b031633146106735760405162461bcd60e51b81526004016102c19061169c565b60005b8351811015610841576106ac848281518110610694576106946116d1565b602002602001015160c9610d0b90919063ffffffff16565b6106ee5760405162461bcd60e51b8152602060048201526013602482015272105b1c9958591e481dda1a5d195b1a5cdd1959606a1b60448201526064016102c1565b828181518110610700576107006116d1565b602002602001015160cb600086848151811061071e5761071e6116d1565b60200260200101516001600160a01b03166001600160a01b031681526020019081526020016000209080519060200190610759929190611167565b5081818151811061076c5761076c6116d1565b602002602001015160cc600086848151811061078a5761078a6116d1565b60200260200101516001600160a01b03166001600160a01b0316815260200190815260200160002090805190602001906107c5929190611167565b507f56141cd46fa0d7cb29ad16da2ac6b833fb19832cf2c38b83fcc8333bf9165cc78482815181106107f9576107f96116d1565b602002602001015160016040516108279291906001600160a01b039290921682521515602082015260400190565b60405180910390a180610839816116fd565b915050610676565b50505050565b6033546001600160a01b031633146108715760405162461bcd60e51b81526004016102c19061169c565b60005b815181101561042d576108aa828281518110610892576108926116d1565b602002602001015160c9610d2790919063ffffffff16565b6108f65760405162461bcd60e51b815260206004820152601760248201527f416c7265616479206e6f742077686974656c697374656400000000000000000060448201526064016102c1565b7f56141cd46fa0d7cb29ad16da2ac6b833fb19832cf2c38b83fcc8333bf9165cc7828281518110610929576109296116d1565b602002602001015160006040516109579291906001600160a01b039290921682521515602082015260400190565b60405180910390a180610969816116fd565b915050610874565b600061097e60c983610d3c565b92915050565b606061099060c9610d5e565b905090565b6033546001600160a01b031633146109bf5760405162461bcd60e51b81526004016102c19061169c565b6001600160a01b038116610a245760405162461bcd60e51b815260206004820152602660248201527f4f776e61626c653a206e6577206f776e657220697320746865207a65726f206160448201526564647265737360d01b60648201526084016102c1565b61035e81610bd6565b6001600160a01b03163b151590565b6033546001600160a01b0316331461035e5760405162461bcd60e51b81526004016102c19061169c565b7f4910fdfa16fed3260ed0e7147f7cc6da11a60208b5b9406d12a635614ffd91435460ff1615610a9e57610a9983610d6b565b505050565b826001600160a01b03166352d1902d6040518163ffffffff1660e01b8152600401602060405180830381865afa925050508015610af8575060408051601f3d908101601f19168201909252610af591810190611716565b60015b610b5b5760405162461bcd60e51b815260206004820152602e60248201527f45524331393637557067726164653a206e657720696d706c656d656e7461746960448201526d6f6e206973206e6f74205555505360901b60648201526084016102c1565b6000805160206118128339815191528114610bca5760405162461bcd60e51b815260206004820152602960248201527f45524331393637557067726164653a20756e737570706f727465642070726f786044820152681a58589b195555525160ba1b60648201526084016102c1565b50610a99838383610e07565b603380546001600160a01b038381166001600160a01b0319831681179093556040519116919082907f8be0079c531659141344cd1fd0a4f28419497f9722a3daafe3b4186f6b6457e090600090a35050565b60008054610100900460ff1615610c6f578160ff166001148015610c4b5750303b155b610c675760405162461bcd60e51b81526004016102c19061172f565b506000919050565b60005460ff808416911610610c965760405162461bcd60e51b81526004016102c19061172f565b506000805460ff191660ff92909216919091179055600190565b919050565b600054610100900460ff16610cdc5760405162461bcd60e51b81526004016102c19061177d565b6105cb610e2c565b600054610100900460ff166105cb5760405162461bcd60e51b81526004016102c19061177d565b6000610d20836001600160a01b038416610e5c565b9392505050565b6000610d20836001600160a01b038416610eab565b6001600160a01b03811660009081526001830160205260408120541515610d20565b60606000610d2083610f9e565b6001600160a01b0381163b610dd85760405162461bcd60e51b815260206004820152602d60248201527f455243313936373a206e657720696d706c656d656e746174696f6e206973206e60448201526c1bdd08184818dbdb9d1c9858dd609a1b60648201526084016102c1565b60008051602061181283398151915280546001600160a01b0319166001600160a01b0392909216919091179055565b610e1083610ffa565b600082511180610e1d5750805b15610a9957610841838361103a565b600054610100900460ff16610e535760405162461bcd60e51b81526004016102c19061177d565b6105cb33610bd6565b6000818152600183016020526040812054610ea35750815460018181018455600084815260208082209093018490558454848252828601909352604090209190915561097e565b50600061097e565b60008181526001830160205260408120548015610f94576000610ecf6001836117c8565b8554909150600090610ee3906001906117c8565b9050818114610f48576000866000018281548110610f0357610f036116d1565b9060005260206000200154905080876000018481548110610f2657610f266116d1565b6000918252602080832090910192909255918252600188019052604090208390555b8554869080610f5957610f596117df565b60019003818190600052602060002001600090559055856001016000868152602001908152602001600020600090556001935050505061097e565b600091505061097e565b606081600001805480602002602001604051908101604052809291908181526020018280548015610fee57602002820191906000526020600020905b815481526020019060010190808311610fda575b50505050509050919050565b61100381610d6b565b6040516001600160a01b038216907fbc7cd75a20ee27fd9adebab32041f755214dbc6bffa90cc0225b39da2e5c2d3b90600090a250565b60606001600160a01b0383163b6110a25760405162461bcd60e51b815260206004820152602660248201527f416464726573733a2064656c65676174652063616c6c20746f206e6f6e2d636f6044820152651b9d1c9858dd60d21b60648201526084016102c1565b600080846001600160a01b0316846040516110bd91906117f5565b600060405180830381855af49150503d80600081146110f8576040519150601f19603f3d011682016040523d82523d6000602084013e6110fd565b606091505b509150915061112582826040518060600160405280602781526020016118326027913961112e565b95945050505050565b6060831561113d575081610d20565b82511561114d5782518084602001fd5b8160405162461bcd60e51b81526004016102c1919061138f565b82805461117390611662565b90600052602060002090601f01602090048101928261119557600085556111db565b82601f106111ae57805160ff19168380011785556111db565b828001600101855582156111db579182015b828111156111db5782518255916020019190600101906111c0565b506111e79291506111eb565b5090565b5b808211156111e757600081556001016111ec565b80356001600160a01b0381168114610cb057600080fd5b60006020828403121561122957600080fd5b610d2082611200565b634e487b7160e01b600052604160045260246000fd5b604051601f8201601f1916810167ffffffffffffffff8111828210171561127157611271611232565b604052919050565b600082601f83011261128a57600080fd5b813567ffffffffffffffff8111156112a4576112a4611232565b6112b7601f8201601f1916602001611248565b8181528460208386010111156112cc57600080fd5b816020850160208301376000918101602001919091529392505050565b600080604083850312156112fc57600080fd5b61130583611200565b9150602083013567ffffffffffffffff81111561132157600080fd5b61132d85828601611279565b9150509250929050565b60005b8381101561135257818101518382015260200161133a565b838111156108415750506000910152565b6000815180845261137b816020860160208601611337565b601f01601f19169290920160200192915050565b602081526000610d206020830184611363565b600067ffffffffffffffff8211156113bc576113bc611232565b5060051b60200190565b600082601f8301126113d757600080fd5b813560206113ec6113e7836113a2565b611248565b82815260059290921b8401810191818101908684111561140b57600080fd5b8286015b8481101561142d5761142081611200565b835291830191830161140f565b509695505050505050565b600082601f83011261144957600080fd5b813560206114596113e7836113a2565b82815260059290921b8401810191818101908684111561147857600080fd5b8286015b8481101561142d57803567ffffffffffffffff81111561149c5760008081fd5b6114aa8986838b0101611279565b84525091830191830161147c565b6000806000606084860312156114cd57600080fd5b833567ffffffffffffffff808211156114e557600080fd5b6114f1878388016113c6565b9450602086013591508082111561150757600080fd5b61151387838801611438565b9350604086013591508082111561152957600080fd5b5061153686828701611438565b9150509250925092565b60006020828403121561155257600080fd5b813567ffffffffffffffff81111561156957600080fd5b611575848285016113c6565b949350505050565b6020808252825182820181905260009190848201906040850190845b818110156115be5783516001600160a01b031683529284019291840191600101611599565b50909695505050505050565b6020808252602c908201527f46756e6374696f6e206d7573742062652063616c6c6564207468726f7567682060408201526b19195b1959d85d1958d85b1b60a21b606082015260800190565b6020808252602c908201527f46756e6374696f6e206d7573742062652063616c6c6564207468726f7567682060408201526b6163746976652070726f787960a01b606082015260800190565b600181811c9082168061167657607f821691505b60208210810361169657634e487b7160e01b600052602260045260246000fd5b50919050565b6020808252818101527f4f776e61626c653a2063616c6c6572206973206e6f7420746865206f776e6572604082015260600190565b634e487b7160e01b600052603260045260246000fd5b634e487b7160e01b600052601160045260246000fd5b60006001820161170f5761170f6116e7565b5060010190565b60006020828403121561172857600080fd5b5051919050565b6020808252602e908201527f496e697469616c697a61626c653a20636f6e747261637420697320616c72656160408201526d191e481a5b9a5d1a585b1a5e995960921b606082015260800190565b6020808252602b908201527f496e697469616c697a61626c653a20636f6e7472616374206973206e6f74206960408201526a6e697469616c697a696e6760a81b606082015260800190565b6000828210156117da576117da6116e7565b500390565b634e487b7160e01b600052603160045260246000fd5b60008251611807818460208701611337565b919091019291505056fe360894a13ba1a3210667c828492db98dca3e2076cc3735a920a3ca505d382bbc416464726573733a206c6f772d6c6576656c2064656c65676174652063616c6c206661696c6564a26469706673582212200eec58337fb449d6e9ece32436c160805062ecb2d14ecb4f7f7ee43a946208d364736f6c634300080d0033496e697469616c697a61626c653a20636f6e747261637420697320616c726561",
  "linkReferences": {},
  "deployedLinkReferences": {}
}