{
  "_format": "hh-sol-artifact-1",
  "contractName": "Service",
  "sourceName": "contracts/Service.sol",
  "abi": [
    {
      "inputs": [],
      "stateMutability": "nonpayable",
      "type": "constructor"
    },
    {
      "anonymous": false,
      "inputs": [
        {
          "indexed": false,
          "internalType": "address",
          "name": "previousAdmin",
          "type": "address"
        },
        {
          "indexed": false,
          "internalType": "address",
          "name": "newAdmin",
          "type": "address"
        }
      ],
      "name": "AdminChanged",
      "type": "event"
    },
    {
      "anonymous": false,
      "inputs": [
        {
          "indexed": true,
          "internalType": "address",
          "name": "beacon",
          "type": "address"
        }
      ],
      "name": "BeaconUpgraded",
      "type": "event"
    },
    {
      "anonymous": false,
      "inputs": [
        {
          "indexed": false,
          "internalType": "uint256",
          "name": "fee",
          "type": "uint256"
        }
      ],
      "name": "FeeSet",
      "type": "event"
    },
    {
      "anonymous": false,
      "inputs": [
        {
          "indexed": false,
          "internalType": "uint256",
          "name": "quorumThreshold",
          "type": "uint256"
        },
        {
          "indexed": false,
          "internalType": "uint256",
          "name": "decisionThreshold",
          "type": "uint256"
        },
        {
          "indexed": false,
          "internalType": "uint256",
          "name": "lifespan",
          "type": "uint256"
        }
      ],
      "name": "GovernanceSettingsSet",
      "type": "event"
    },
    {
      "anonymous": false,
      "inputs": [
        {
          "indexed": false,
          "internalType": "uint8",
          "name": "version",
          "type": "uint8"
        }
      ],
      "name": "Initialized",
      "type": "event"
    },
    {
      "anonymous": false,
      "inputs": [
        {
          "indexed": true,
          "internalType": "address",
          "name": "previousOwner",
          "type": "address"
        },
        {
          "indexed": true,
          "internalType": "address",
          "name": "newOwner",
          "type": "address"
        }
      ],
      "name": "OwnershipTransferred",
      "type": "event"
    },
    {
      "anonymous": false,
      "inputs": [
        {
          "indexed": false,
          "internalType": "address",
          "name": "pool",
          "type": "address"
        },
        {
          "indexed": false,
          "internalType": "address",
          "name": "token",
          "type": "address"
        },
        {
          "indexed": false,
          "internalType": "address",
          "name": "tge",
          "type": "address"
        }
      ],
      "name": "PoolCreated",
      "type": "event"
    },
    {
      "anonymous": false,
      "inputs": [
        {
          "indexed": false,
          "internalType": "address",
          "name": "pool",
          "type": "address"
        },
        {
          "indexed": false,
          "internalType": "address",
          "name": "tge",
          "type": "address"
        }
      ],
      "name": "SecondaryTGECreated",
      "type": "event"
    },
    {
      "anonymous": false,
      "inputs": [
        {
          "indexed": false,
          "internalType": "address",
          "name": "token",
          "type": "address"
        },
        {
          "indexed": false,
          "internalType": "bool",
          "name": "whitelisted",
          "type": "bool"
        }
      ],
      "name": "TokenWhitelistedSet",
      "type": "event"
    },
    {
      "anonymous": false,
      "inputs": [
        {
          "indexed": true,
          "internalType": "address",
          "name": "implementation",
          "type": "address"
        }
      ],
      "name": "Upgraded",
      "type": "event"
    },
    {
      "anonymous": false,
      "inputs": [
        {
          "indexed": false,
          "internalType": "address",
          "name": "account",
          "type": "address"
        },
        {
          "indexed": false,
          "internalType": "bool",
          "name": "whitelisted",
          "type": "bool"
        }
      ],
      "name": "UserWhitelistedSet",
      "type": "event"
    },
    {
      "inputs": [],
      "name": "ThresholdDecimals",
      "outputs": [
        {
          "internalType": "uint256",
          "name": "",
          "type": "uint256"
        }
      ],
      "stateMutability": "view",
      "type": "function"
    },
    {
      "inputs": [
        {
          "internalType": "uint256",
          "name": "proposalId",
          "type": "uint256"
        }
      ],
      "name": "addProposal",
      "outputs": [],
      "stateMutability": "nonpayable",
      "type": "function"
    },
    {
      "inputs": [
        {
          "internalType": "address",
          "name": "account",
          "type": "address"
        }
      ],
      "name": "addUserToWhitelist",
      "outputs": [],
      "stateMutability": "nonpayable",
      "type": "function"
    },
    {
      "inputs": [
        {
          "internalType": "contract IPool",
          "name": "pool",
          "type": "address"
        },
        {
          "components": [
            {
              "internalType": "string",
              "name": "name",
              "type": "string"
            },
            {
              "internalType": "string",
              "name": "symbol",
              "type": "string"
            },
            {
              "internalType": "uint256",
              "name": "cap",
              "type": "uint256"
            }
          ],
          "internalType": "struct IGovernanceToken.TokenInfo",
          "name": "tokenInfo",
          "type": "tuple"
        },
        {
          "components": [
            {
              "internalType": "string",
              "name": "metadataURI",
              "type": "string"
            },
            {
              "internalType": "uint256",
              "name": "price",
              "type": "uint256"
            },
            {
              "internalType": "uint256",
              "name": "hardcap",
              "type": "uint256"
            },
            {
              "internalType": "uint256",
              "name": "softcap",
              "type": "uint256"
            },
            {
              "internalType": "uint256",
              "name": "minPurchase",
              "type": "uint256"
            },
            {
              "internalType": "uint256",
              "name": "maxPurchase",
              "type": "uint256"
            },
            {
              "internalType": "uint256",
              "name": "lockupPercent",
              "type": "uint256"
            },
            {
              "internalType": "uint256",
              "name": "lockupDuration",
              "type": "uint256"
            },
            {
              "internalType": "uint256",
              "name": "lockupTVL",
              "type": "uint256"
            },
            {
              "internalType": "uint256",
              "name": "duration",
              "type": "uint256"
            },
            {
              "internalType": "address[]",
              "name": "userWhitelist",
              "type": "address[]"
            },
            {
              "internalType": "address",
              "name": "unitOfAccount",
              "type": "address"
            }
          ],
          "internalType": "struct ITGE.TGEInfo",
          "name": "tgeInfo",
          "type": "tuple"
        },
        {
          "internalType": "uint256",
          "name": "ballotQuorumThreshold_",
          "type": "uint256"
        },
        {
          "internalType": "uint256",
          "name": "ballotDecisionThreshold_",
          "type": "uint256"
        },
        {
          "internalType": "uint256",
          "name": "ballotLifespan_",
          "type": "uint256"
        },
        {
          "internalType": "uint256",
          "name": "jurisdiction",
          "type": "uint256"
        },
        {
          "internalType": "string",
          "name": "trademark",
          "type": "string"
        }
      ],
      "name": "createPool",
      "outputs": [],
      "stateMutability": "payable",
      "type": "function"
    },
    {
      "inputs": [
        {
          "components": [
            {
              "internalType": "string",
              "name": "metadataURI",
              "type": "string"
            },
            {
              "internalType": "uint256",
              "name": "price",
              "type": "uint256"
            },
            {
              "internalType": "uint256",
              "name": "hardcap",
              "type": "uint256"
            },
            {
              "internalType": "uint256",
              "name": "softcap",
              "type": "uint256"
            },
            {
              "internalType": "uint256",
              "name": "minPurchase",
              "type": "uint256"
            },
            {
              "internalType": "uint256",
              "name": "maxPurchase",
              "type": "uint256"
            },
            {
              "internalType": "uint256",
              "name": "lockupPercent",
              "type": "uint256"
            },
            {
              "internalType": "uint256",
              "name": "lockupDuration",
              "type": "uint256"
            },
            {
              "internalType": "uint256",
              "name": "lockupTVL",
              "type": "uint256"
            },
            {
              "internalType": "uint256",
              "name": "duration",
              "type": "uint256"
            },
            {
              "internalType": "address[]",
              "name": "userWhitelist",
              "type": "address[]"
            },
            {
              "internalType": "address",
              "name": "unitOfAccount",
              "type": "address"
            }
          ],
          "internalType": "struct ITGE.TGEInfo",
          "name": "tgeInfo",
          "type": "tuple"
        }
      ],
      "name": "createSecondaryTGE",
      "outputs": [],
      "stateMutability": "nonpayable",
      "type": "function"
    },
    {
      "inputs": [],
      "name": "directory",
      "outputs": [
        {
          "internalType": "contract IDirectory",
          "name": "",
          "type": "address"
        }
      ],
      "stateMutability": "view",
      "type": "function"
    },
    {
      "inputs": [],
      "name": "fee",
      "outputs": [
        {
          "internalType": "uint256",
          "name": "",
          "type": "uint256"
        }
      ],
      "stateMutability": "view",
      "type": "function"
    },
    {
      "inputs": [],
      "name": "getBallotDecisionThreshold",
      "outputs": [
        {
          "internalType": "uint256",
          "name": "",
          "type": "uint256"
        }
      ],
      "stateMutability": "view",
      "type": "function"
    },
    {
      "inputs": [],
      "name": "getBallotLifespan",
      "outputs": [
        {
          "internalType": "uint256",
          "name": "",
          "type": "uint256"
        }
      ],
      "stateMutability": "view",
      "type": "function"
    },
    {
      "inputs": [],
      "name": "getBallotQuorumThreshold",
      "outputs": [
        {
          "internalType": "uint256",
          "name": "",
          "type": "uint256"
        }
      ],
      "stateMutability": "view",
      "type": "function"
    },
    {
      "inputs": [
        {
          "internalType": "contract IDirectory",
          "name": "directory_",
          "type": "address"
        },
        {
          "internalType": "address",
          "name": "poolBeacon_",
          "type": "address"
        },
        {
          "internalType": "address",
          "name": "proposalGateway_",
          "type": "address"
        },
        {
          "internalType": "address",
          "name": "tokenBeacon_",
          "type": "address"
        },
        {
          "internalType": "address",
          "name": "tgeBeacon_",
          "type": "address"
        },
        {
          "internalType": "contract IMetadata",
          "name": "metadata_",
          "type": "address"
        },
        {
          "internalType": "uint256",
          "name": "fee_",
          "type": "uint256"
        },
        {
          "internalType": "uint256[3]",
          "name": "ballotParams",
          "type": "uint256[3]"
        },
        {
          "internalType": "contract ISwapRouter",
          "name": "uniswapRouter_",
          "type": "address"
        },
        {
          "internalType": "contract IQuoter",
          "name": "uniswapQuoter_",
          "type": "address"
        },
        {
          "internalType": "contract IWhitelistedTokens",
          "name": "whitelistedTokens_",
          "type": "address"
        }
      ],
      "name": "initialize",
      "outputs": [],
      "stateMutability": "nonpayable",
      "type": "function"
    },
    {
      "inputs": [
        {
          "internalType": "address",
          "name": "account",
          "type": "address"
        }
      ],
      "name": "isUserWhitelisted",
      "outputs": [
        {
          "internalType": "bool",
          "name": "",
          "type": "bool"
        }
      ],
      "stateMutability": "view",
      "type": "function"
    },
    {
      "inputs": [],
      "name": "metadata",
      "outputs": [
        {
          "internalType": "contract IMetadata",
          "name": "",
          "type": "address"
        }
      ],
      "stateMutability": "view",
      "type": "function"
    },
    {
      "inputs": [],
      "name": "owner",
      "outputs": [
        {
          "internalType": "address",
          "name": "",
          "type": "address"
        }
      ],
      "stateMutability": "view",
      "type": "function"
    },
    {
      "inputs": [],
      "name": "poolBeacon",
      "outputs": [
        {
          "internalType": "address",
          "name": "",
          "type": "address"
        }
      ],
      "stateMutability": "view",
      "type": "function"
    },
    {
      "inputs": [],
      "name": "proposalGateway",
      "outputs": [
        {
          "internalType": "address",
          "name": "",
          "type": "address"
        }
      ],
      "stateMutability": "view",
      "type": "function"
    },
    {
      "inputs": [],
      "name": "proxiableUUID",
      "outputs": [
        {
          "internalType": "bytes32",
          "name": "",
          "type": "bytes32"
        }
      ],
      "stateMutability": "view",
      "type": "function"
    },
    {
      "inputs": [
        {
          "internalType": "address",
          "name": "account",
          "type": "address"
        }
      ],
      "name": "removeUserFromWhitelist",
      "outputs": [],
      "stateMutability": "nonpayable",
      "type": "function"
    },
    {
      "inputs": [],
      "name": "renounceOwnership",
      "outputs": [],
      "stateMutability": "nonpayable",
      "type": "function"
    },
    {
      "inputs": [
        {
          "internalType": "uint256",
          "name": "fee_",
          "type": "uint256"
        }
      ],
      "name": "setFee",
      "outputs": [],
      "stateMutability": "nonpayable",
      "type": "function"
    },
    {
      "inputs": [
        {
          "internalType": "uint256",
          "name": "ballotQuorumThreshold_",
          "type": "uint256"
        },
        {
          "internalType": "uint256",
          "name": "ballotDecisionThreshold_",
          "type": "uint256"
        },
        {
          "internalType": "uint256",
          "name": "ballotLifespan_",
          "type": "uint256"
        }
      ],
      "name": "setGovernanceSettings",
      "outputs": [],
      "stateMutability": "nonpayable",
      "type": "function"
    },
    {
      "inputs": [
        {
          "internalType": "address",
          "name": "poolBeacon_",
          "type": "address"
        }
      ],
      "name": "setPoolBeacon",
      "outputs": [],
      "stateMutability": "nonpayable",
      "type": "function"
    },
    {
      "inputs": [
        {
          "internalType": "address",
          "name": "tgeBeacon_",
          "type": "address"
        }
      ],
      "name": "setTGEBeacon",
      "outputs": [],
      "stateMutability": "nonpayable",
      "type": "function"
    },
    {
      "inputs": [
        {
          "internalType": "address",
          "name": "tokenBeacon_",
          "type": "address"
        }
      ],
      "name": "setTokenBeacon",
      "outputs": [],
      "stateMutability": "nonpayable",
      "type": "function"
    },
    {
      "inputs": [],
      "name": "tgeBeacon",
      "outputs": [
        {
          "internalType": "address",
          "name": "",
          "type": "address"
        }
      ],
      "stateMutability": "view",
      "type": "function"
    },
    {
      "inputs": [],
      "name": "tokenBeacon",
      "outputs": [
        {
          "internalType": "address",
          "name": "",
          "type": "address"
        }
      ],
      "stateMutability": "view",
      "type": "function"
    },
    {
      "inputs": [],
      "name": "tokenWhitelist",
      "outputs": [
        {
          "internalType": "address[]",
          "name": "",
          "type": "address[]"
        }
      ],
      "stateMutability": "view",
      "type": "function"
    },
    {
      "inputs": [
        {
          "internalType": "address",
          "name": "to",
          "type": "address"
        }
      ],
      "name": "transferFunds",
      "outputs": [],
      "stateMutability": "nonpayable",
      "type": "function"
    },
    {
      "inputs": [
        {
          "internalType": "address",
          "name": "newOwner",
          "type": "address"
        }
      ],
      "name": "transferOwnership",
      "outputs": [],
      "stateMutability": "nonpayable",
      "type": "function"
    },
    {
      "inputs": [],
      "name": "uniswapQuoter",
      "outputs": [
        {
          "internalType": "contract IQuoter",
          "name": "",
          "type": "address"
        }
      ],
      "stateMutability": "view",
      "type": "function"
    },
    {
      "inputs": [],
      "name": "uniswapRouter",
      "outputs": [
        {
          "internalType": "contract ISwapRouter",
          "name": "",
          "type": "address"
        }
      ],
      "stateMutability": "view",
      "type": "function"
    },
    {
      "inputs": [
        {
          "internalType": "address",
          "name": "newImplementation",
          "type": "address"
        }
      ],
      "name": "upgradeTo",
      "outputs": [],
      "stateMutability": "nonpayable",
      "type": "function"
    },
    {
      "inputs": [
        {
          "internalType": "address",
          "name": "newImplementation",
          "type": "address"
        },
        {
          "internalType": "bytes",
          "name": "data",
          "type": "bytes"
        }
      ],
      "name": "upgradeToAndCall",
      "outputs": [],
      "stateMutability": "payable",
      "type": "function"
    },
    {
      "inputs": [],
      "name": "userWhitelist",
      "outputs": [
        {
          "internalType": "address[]",
          "name": "",
          "type": "address[]"
        }
      ],
      "stateMutability": "view",
      "type": "function"
    },
    {
      "inputs": [
        {
          "internalType": "uint256",
          "name": "index",
          "type": "uint256"
        }
      ],
      "name": "userWhitelistAt",
      "outputs": [
        {
          "internalType": "address",
          "name": "",
          "type": "address"
        }
      ],
      "stateMutability": "view",
      "type": "function"
    },
    {
      "inputs": [],
      "name": "userWhitelistLength",
      "outputs": [
        {
          "internalType": "uint256",
          "name": "",
          "type": "uint256"
        }
      ],
      "stateMutability": "view",
      "type": "function"
    },
    {
      "inputs": [],
      "name": "whitelistedTokens",
      "outputs": [
        {
          "internalType": "contract IWhitelistedTokens",
          "name": "",
          "type": "address"
        }
      ],
      "stateMutability": "view",
      "type": "function"
    }
  ],
  "bytecode": "0x60a0604052306080523480156200001557600080fd5b506200002062000026565b62000156565b6200003260ff62000035565b50565b60008054610100900460ff1615620000ce578160ff1660011480156200006e57506200006c306200014760201b6200270b1760201c565b155b620000c65760405162461bcd60e51b815260206004820152602e6024820152600080516020620049a483398151915260448201526d191e481a5b9a5d1a585b1a5e995960921b60648201526084015b60405180910390fd5b506000919050565b60005460ff8084169116106200012d5760405162461bcd60e51b815260206004820152602e6024820152600080516020620049a483398151915260448201526d191e481a5b9a5d1a585b1a5e995960921b6064820152608401620000bd565b506000805460ff191660ff92909216919091179055600190565b6001600160a01b03163b151590565b6080516148166200018e600039600081816109430152818161098601528181610b4e01528181610b910152610c2901526148166000f3fe608060405260043610620002475760003560e01c806386c36a6b116200013b578063d419f54711620000b9578063e39ff19f1162000078578063e39ff19f1462000667578063f2fde38b146200068c578063f7f5e5a614620006b1578063f9902bb114620006d6578063fb237eb214620006fb57600080fd5b8063d419f54714620005d4578063da96043114620005f9578063dad01e5b1462000611578063ddca3f431462000629578063e228a63c146200064257600080fd5b8063a1db8b4c1162000106578063a1db8b4c146200053d578063c41c2f241462000555578063c5a7b2ea1462000577578063ca735cc11462000599578063ccf5a77c14620005b157600080fd5b806386c36a6b14620004c25780638da5cb5b14620004d95780639421873714620004f15780639459c173146200051857600080fd5b806352d1902d11620001c95780636e0e69f911620001945780636e0e69f91462000425578063715018a6146200044a578063735de9f71462000462578063747b8050146200048557806378809b8314620004aa57600080fd5b806352d1902d14620003a05780635e1762a014620003c757806369fe0e2d14620003e95780636aca4f49146200040e57600080fd5b80633659cfe611620002165780633659cfe614620002fa578063392f37e9146200031f5780633fec91a414620003415780634db4a35214620003665780634f1ef286146200038957600080fd5b806301569ab0146200024c57806304e31dfb146200028c5780630f842e0c14620002ae578063168dfb5014620002d5575b600080fd5b3480156200025957600080fd5b50610101546200026f906001600160a01b031681565b6040516001600160a01b0390911681526020015b60405180910390f35b3480156200029957600080fd5b5060fe546200026f906001600160a01b031681565b348015620002bb57600080fd5b50620002d3620002cd36600462002f24565b62000731565b005b348015620002e257600080fd5b50620002d3620002f436600462002f44565b620007ba565b3480156200030757600080fd5b50620002d36200031936600462002f24565b62000939565b3480156200032c57600080fd5b5060fb546200026f906001600160a01b031681565b3480156200034e57600080fd5b50620002d36200036036600462002f71565b62000a24565b3480156200037357600080fd5b50610107546200026f906001600160a01b031681565b620002d36200039a366004620030b7565b62000b44565b348015620003ad57600080fd5b50620003b862000c1c565b60405190815260200162000283565b348015620003d457600080fd5b5060fd546200026f906001600160a01b031681565b348015620003f657600080fd5b50620002d36200040836600462002f71565b62000cd2565b620002d36200041f3660046200336d565b62000d43565b3480156200043257600080fd5b50620002d36200044436600462003438565b62001884565b3480156200045757600080fd5b50620002d362001d1f565b3480156200046f57600080fd5b50610106546200026f906001600160a01b031681565b3480156200049257600080fd5b50620002d3620004a436600462002f24565b62001d61565b348015620004b757600080fd5b5061010454620003b8565b348015620004cf57600080fd5b50620003b8600281565b348015620004e657600080fd5b506200026f62001e27565b348015620004fe57600080fd5b506200050962001e41565b60405162000283919062003478565b3480156200052557600080fd5b506200026f6200053736600462002f71565b62001e50565b3480156200054a57600080fd5b5061010354620003b8565b3480156200056257600080fd5b5060fc546200026f906001600160a01b031681565b3480156200058457600080fd5b5060ff546200026f906001600160a01b031681565b348015620005a657600080fd5b506200050962001e66565b348015620005be57600080fd5b50610100546200026f906001600160a01b031681565b348015620005e157600080fd5b50620002d3620005f336600462002f24565b62001edb565b3480156200060657600080fd5b5061010554620003b8565b3480156200061e57600080fd5b50620003b862001f5a565b3480156200063657600080fd5b50620003b86101025481565b3480156200064f57600080fd5b50620002d362000661366004620034c7565b62001f69565b3480156200067457600080fd5b50620002d36200068636600462002f24565b62002442565b3480156200069957600080fd5b50620002d3620006ab36600462002f24565b62002505565b348015620006be57600080fd5b50620002d3620006d036600462002f24565b620025ab565b348015620006e357600080fd5b50620002d3620006f536600462002f24565b6200262b565b3480156200070857600080fd5b50620007206200071a36600462002f24565b620026fb565b604051901515815260200162000283565b336200073c62001e27565b6001600160a01b0316146200076e5760405162461bcd60e51b81526004016200076590620035ed565b60405180910390fd5b6001600160a01b038116620007975760405162461bcd60e51b8152600401620007659062003622565b61010180546001600160a01b0319166001600160a01b0392909216919091179055565b33620007c562001e27565b6001600160a01b031614620007ee5760405162461bcd60e51b81526004016200076590620035ed565b612710831115620008425760405162461bcd60e51b815260206004820152601d60248201527f496e76616c69642062616c6c6f7451756f72756d5468726573686f6c64000000604482015260640162000765565b612710821115620008965760405162461bcd60e51b815260206004820152601f60248201527f496e76616c69642062616c6c6f744465636973696f6e5468726573686f6c6400604482015260640162000765565b60008111620008e15760405162461bcd60e51b815260206004820152601660248201527524b73b30b634b2103130b63637ba2634b332b9b830b760511b604482015260640162000765565b61010383905561010482905561010581905560408051848152602081018490529081018290527fae6075a1f7b230b994c46ac23890f3aea156bbf1195be708ad574a240164a6559060600160405180910390a1505050565b6001600160a01b037f0000000000000000000000000000000000000000000000000000000000000000163003620009845760405162461bcd60e51b815260040162000765906200364b565b7f00000000000000000000000000000000000000000000000000000000000000006001600160a01b0316620009cf6000805160206200479a833981519152546001600160a01b031690565b6001600160a01b031614620009f85760405162461bcd60e51b8152600401620007659062003697565b62000a03816200271a565b6040805160008082526020820190925262000a21918391906200274e565b50565b60fc54604051630db9619f60e31b81523360048201526001916001600160a01b031690636dcb0cf890602401602060405180830381865afa15801562000a6e573d6000803e3d6000fd5b505050506040513d601f19601f8201168201806040525081019062000a949190620036f9565b600381111562000aa85762000aa8620036e3565b1462000ac85760405162461bcd60e51b815260040162000765906200371c565b60fc5460405163f4be936960e01b8152336004820152602481018390526001600160a01b039091169063f4be9369906044016020604051808303816000875af115801562000b1a573d6000803e3d6000fd5b505050506040513d601f19601f8201168201806040525081019062000b40919062003740565b5050565b6001600160a01b037f000000000000000000000000000000000000000000000000000000000000000016300362000b8f5760405162461bcd60e51b815260040162000765906200364b565b7f00000000000000000000000000000000000000000000000000000000000000006001600160a01b031662000bda6000805160206200479a833981519152546001600160a01b031690565b6001600160a01b03161462000c035760405162461bcd60e51b8152600401620007659062003697565b62000c0e826200271a565b62000b40828260016200274e565b6000306001600160a01b037f0000000000000000000000000000000000000000000000000000000000000000161462000cbe5760405162461bcd60e51b815260206004820152603860248201527f555550535570677261646561626c653a206d757374206e6f742062652063616c60448201527f6c6564207468726f7567682064656c656761746563616c6c0000000000000000606482015260840162000765565b506000805160206200479a83398151915290565b3362000cdd62001e27565b6001600160a01b03161462000d065760405162461bcd60e51b81526004016200076590620035ed565b6101028190556040518181527f20461e09b8e557b77e107939f9ce6544698123aad0fc964ac5cc59b7df2e608f906020015b60405180910390a150565b62000d4e33620026fb565b62000d8e5760405162461bcd60e51b815260206004820152600f60248201526e139bdd081dda1a5d195b1a5cdd1959608a1b604482015260640162000765565b600260c9540362000de25760405162461bcd60e51b815260206004820152601f60248201527f5265656e7472616e637947756172643a207265656e7472616e742063616c6c00604482015260640162000765565b600260c9556101608601516001600160a01b0316158062000e1157506101608601516001600160a01b03163b15155b62000e305760405162461bcd60e51b815260040162000765906200375a565b6001600160a01b038816620011955761010254341462000e8a5760405162461bcd60e51b8152602060048201526014602482015273125b98dbdc9c9958dd08199959481c185cdcd95960621b604482015260640162000765565b60fb54604051630ca3d0fb60e01b8152600481018490526000916001600160a01b031690630ca3d0fb906024016020604051808303816000875af115801562000ed7573d6000803e3d6000fd5b505050506040513d601f19601f8201168201806040525081019062000efd919062003740565b90506000811162000f515760405162461bcd60e51b815260206004820152601b60248201527f4176616c6961626c6520636f6d70616e79206e6f7420666f756e640000000000604482015260640162000765565b60fb54604051630d1e6acd60e11b8152600481018390526000916001600160a01b031690631a3cd59a90602401600060405180830381865afa15801562000f9c573d6000803e3d6000fd5b505050506040513d6000823e601f3d908101601f1916820160405262000fc691908101906200381c565b60ff546040519192506001600160a01b03169062000fe49062002ef3565b62000ff09190620038c1565b604051809103906000f0801580156200100d573d6000803e3d6000fd5b5099506001600160a01b038a1663acec84dc3386846000602002015185600160200201518660026020020151876003602002015188600460200201518f8f8f8e6040518c63ffffffff1660e01b8152600401620010759b9a9998979695949392919062003928565b600060405180830381600087803b1580156200109057600080fd5b505af1158015620010a5573d6000803e3d6000fd5b505060fb54604051637fd3924760e01b8152600481018690526001600160a01b038e811660248301529091169250637fd392479150604401600060405180830381600087803b158015620010f857600080fd5b505af11580156200110d573d6000803e3d6000fd5b505060fc546040516303203cd960e21b81526001600160a01b039091169250630c80f364915062001146908d90600190600401620039eb565b6020604051808303816000875af115801562001166573d6000803e3d6000fd5b505050506040513d601f19601f820116820180604052508101906200118c919062003740565b505050620013b6565b60fc54604051630db9619f60e31b81526001600160a01b038a811660048301526001921690636dcb0cf890602401602060405180830381865afa158015620011e1573d6000803e3d6000fd5b505050506040513d601f19601f82011682018060405250810190620012079190620036f9565b60038111156200121b576200121b620036e3565b146200123b5760405162461bcd60e51b815260040162000765906200371c565b876001600160a01b0316638da5cb5b6040518163ffffffff1660e01b8152600401602060405180830381865afa1580156200127a573d6000803e3d6000fd5b505050506040513d601f19601f82011682018060405250810190620012a0919062003a27565b6001600160a01b0316336001600160a01b031614620013025760405162461bcd60e51b815260206004820152601860248201527f53656e646572206973206e6f7420706f6f6c206f776e65720000000000000000604482015260640162000765565b876001600160a01b031663e47bfee86040518163ffffffff1660e01b8152600401602060405180830381865afa15801562001341573d6000803e3d6000fd5b505050506040513d601f19601f8201168201806040525081019062001367919062003a47565b15620013b65760405162461bcd60e51b815260206004820152601760248201527f50726576696f757320544745206e6f74206661696c6564000000000000000000604482015260640162000765565b610100546040516000916001600160a01b031690620013d59062002ef3565b620013e19190620038c1565b604051809103906000f080158015620013fe573d6000803e3d6000fd5b5060fc546040516303203cd960e21b81529192506001600160a01b031690630c80f3649062001435908490600290600401620039eb565b6020604051808303816000875af115801562001455573d6000803e3d6000fd5b505050506040513d601f19601f820116820180604052508101906200147b919062003740565b50610101546040516000916001600160a01b0316906200149b9062002ef3565b620014a79190620038c1565b604051809103906000f080158015620014c4573d6000803e3d6000fd5b5060fc546040516303203cd960e21b81529192506001600160a01b031690630c80f36490620014fb908490600390600401620039eb565b6020604051808303816000875af11580156200151b573d6000803e3d6000fd5b505050506040513d601f19601f8201168201806040525081019062001541919062003740565b506001600160a01b038a16620015bb576040516322ae8aef60e01b81526001600160a01b038316906322ae8aef9062001581908d908d9060040162003a6b565b600060405180830381600087803b1580156200159c57600080fd5b505af1158015620015b1573d6000803e3d6000fd5b50505050620016aa565b816001600160a01b03166322ae8aef8b60405180606001604052808e6001600160a01b0316630f74fdb06040518163ffffffff1660e01b8152600401600060405180830381865afa15801562001615573d6000803e3d6000fd5b505050506040513d6000823e601f3d908101601f191682016040526200163f919081019062003ace565b81526020018d6020015181526020018d604001518152506040518363ffffffff1660e01b81526004016200167592919062003a6b565b600060405180830381600087803b1580156200169057600080fd5b505af1158015620016a5573d6000803e3d6000fd5b505050505b60405163144fa6d760e01b81526001600160a01b0383811660048301528b169063144fa6d790602401600060405180830381600087803b158015620016ee57600080fd5b505af115801562001703573d6000803e3d6000fd5b5050604051633a7d190b60e01b81526001600160a01b0384169250633a7d190b91506200173990339086908d9060040162003b4c565b600060405180830381600087803b1580156200175457600080fd5b505af115801562001769573d6000803e3d6000fd5b505060405163024aa90f60e61b81526001600160a01b0384811660048301528d1692506392aa43c09150602401600060405180830381600087803b158015620017b157600080fd5b505af1158015620017c6573d6000803e3d6000fd5b5050604051631bd974ad60e31b81526001600160a01b0384811660048301528d16925063decba5689150602401600060405180830381600087803b1580156200180e57600080fd5b505af115801562001823573d6000803e3d6000fd5b5050604080516001600160a01b038e81168252868116602083015285168183015290517f9c5d829b9b23efc461f9aeef91979ec04bb903feb3bee4f26d22114abfc7335b9350908190036060019150a15050600160c9555050505050505050565b60fc54604051630db9619f60e31b81523360048201526001916001600160a01b031690636dcb0cf890602401602060405180830381865afa158015620018ce573d6000803e3d6000fd5b505050506040513d601f19601f82011682018060405250810190620018f49190620036f9565b6003811115620019085762001908620036e3565b14620019285760405162461bcd60e51b815260040162000765906200371c565b600260c954036200197c5760405162461bcd60e51b815260206004820152601f60248201527f5265656e7472616e637947756172643a207265656e7472616e742063616c6c00604482015260640162000765565b600260c9556000336001600160a01b031663a7497fa56040518163ffffffff1660e01b8152600401602060405180830381865afa158015620019c2573d6000803e3d6000fd5b505050506040513d601f19601f82011682018060405250810190620019e8919062003a27565b6001600160a01b031663c19d93fb6040518163ffffffff1660e01b8152600401602060405180830381865afa15801562001a26573d6000803e3d6000fd5b505050506040513d601f19601f8201168201806040525081019062001a4c919062003c40565b600281111562001a605762001a60620036e3565b0362001aa05760405162461bcd60e51b815260206004820152600e60248201526d486173206163746976652054474560901b604482015260640162000765565b6101608101516001600160a01b0316158062001aca57506101608101516001600160a01b03163b15155b62001ae95760405162461bcd60e51b815260040162000765906200375a565b610101546040516000916001600160a01b03169062001b089062002ef3565b62001b149190620038c1565b604051809103906000f08015801562001b31573d6000803e3d6000fd5b5060fc546040516303203cd960e21b81529192506001600160a01b031690630c80f3649062001b68908490600390600401620039eb565b6020604051808303816000875af115801562001b88573d6000803e3d6000fd5b505050506040513d601f19601f8201168201806040525081019062001bae919062003740565b50806001600160a01b0316633a7d190b33336001600160a01b031663fc0c546a6040518163ffffffff1660e01b8152600401602060405180830381865afa15801562001bfe573d6000803e3d6000fd5b505050506040513d601f19601f8201168201806040525081019062001c24919062003a27565b856040518463ffffffff1660e01b815260040162001c459392919062003b4c565b600060405180830381600087803b15801562001c6057600080fd5b505af115801562001c75573d6000803e3d6000fd5b505060405163024aa90f60e61b81526001600160a01b03841660048201523392506392aa43c09150602401600060405180830381600087803b15801562001cbb57600080fd5b505af115801562001cd0573d6000803e3d6000fd5b5050604080513381526001600160a01b03851660208201527f0e3dbd8c6caab1c68013fb13d63b7ff61db8fed8b3e7ce4e8e294ee1d0c22e8e935001905060405180910390a15050600160c955565b3362001d2a62001e27565b6001600160a01b03161462001d535760405162461bcd60e51b81526004016200076590620035ed565b62001d5f6000620028cb565b565b3362001d6c62001e27565b6001600160a01b03161462001d955760405162461bcd60e51b81526004016200076590620035ed565b62001da3610108826200291d565b62001de75760405162461bcd60e51b8152602060048201526013602482015272105b1c9958591e481dda1a5d195b1a5cdd1959606a1b604482015260640162000765565b604080516001600160a01b0383168152600160208201527fdf3714d6f88cdae2b889250b70116def7fb5083073c65cce38b56d2b0b0ef64e910162000d38565b600062001e3c6033546001600160a01b031690565b905090565b606062001e3c6101086200293b565b600062001e60610108836200294a565b92915050565b60fd546040805163ca735cc160e01b815290516060926001600160a01b03169163ca735cc19160048083019260009291908290030181865afa15801562001eb1573d6000803e3d6000fd5b505050506040513d6000823e601f3d908101601f1916820160405262001e3c919081019062003c63565b3362001ee662001e27565b6001600160a01b03161462001f0f5760405162461bcd60e51b81526004016200076590620035ed565b6001600160a01b03811662001f385760405162461bcd60e51b8152600401620007659062003622565b60ff80546001600160a01b0319166001600160a01b0392909216919091179055565b600062001e3c61010862002958565b600062001f77600162002963565b9050801562001f90576000805461ff0019166101001790555b6001600160a01b038c1662001fe85760405162461bcd60e51b815260206004820152601960248201527f496e76616c6964204469726563746f7279206164647265737300000000000000604482015260640162000765565b6001600160a01b038b16620020405760405162461bcd60e51b815260206004820152601b60248201527f496e76616c696420506f6f6c20426561636f6e20616464726573730000000000604482015260640162000765565b6001600160a01b038a16620020985760405162461bcd60e51b815260206004820152601f60248201527f496e76616c69642050726f706f73616c47617465776179206164647265737300604482015260640162000765565b6001600160a01b038916620020f05760405162461bcd60e51b815260206004820152601c60248201527f496e76616c696420546f6b656e20426561636f6e206164647265737300000000604482015260640162000765565b6001600160a01b038816620021485760405162461bcd60e51b815260206004820152601a60248201527f496e76616c69642054474520426561636f6e2061646472657373000000000000604482015260640162000765565b6001600160a01b038716620021a05760405162461bcd60e51b815260206004820152601860248201527f496e76616c6964204d6574616461746120616464726573730000000000000000604482015260640162000765565b6001600160a01b038416620021f85760405162461bcd60e51b815260206004820152601d60248201527f496e76616c696420556e6973776170526f757465722061646472657373000000604482015260640162000765565b6001600160a01b038316620022505760405162461bcd60e51b815260206004820152601d60248201527f496e76616c696420556e697377617051756f7465722061646472657373000000604482015260640162000765565b6001600160a01b038216620022b25760405162461bcd60e51b815260206004820152602160248201527f496e76616c69642057686974656c6973746564546f6b656e73206164647265736044820152607360f81b606482015260840162000765565b620022bc620029f8565b620022c662002a2c565b60fc80546001600160a01b038e81166001600160a01b03199283161790925560fe80548d841690831617905560ff80548e841690831617905561010080548c841690831617905561010180548b841690831617905560fb80548a84169083161790556101028890558651610103556020808801516101045560408089015161010555610106805484168986161790556101078054841688861617905560fd80549093169386169390931790915590518781527f20461e09b8e557b77e107939f9ce6544698123aad0fc964ac5cc59b7df2e608f910160405180910390a184516020808701516040808901518151948552928401919091528201527fae6075a1f7b230b994c46ac23890f3aea156bbf1195be708ad574a240164a6559060600160405180910390a1801562002434576000805461ff0019169055604051600181527f7f26b83ff96e1f2b6a682f133852f6798a09c465da95921460cefb38474024989060200160405180910390a15b505050505050505050505050565b336200244d62001e27565b6001600160a01b031614620024765760405162461bcd60e51b81526004016200076590620035ed565b6001600160a01b038116620024ce5760405162461bcd60e51b815260206004820181905260248201527f43616e206e6f74207472616e7366657220746f207a65726f2061646472657373604482015260640162000765565b6040516001600160a01b03821690303180156108fc02916000818181858888f1935050505015801562000b40573d6000803e3d6000fd5b336200251062001e27565b6001600160a01b031614620025395760405162461bcd60e51b81526004016200076590620035ed565b6001600160a01b038116620025a05760405162461bcd60e51b815260206004820152602660248201527f4f776e61626c653a206e6577206f776e657220697320746865207a65726f206160448201526564647265737360d01b606482015260840162000765565b62000a2181620028cb565b33620025b662001e27565b6001600160a01b031614620025df5760405162461bcd60e51b81526004016200076590620035ed565b6001600160a01b038116620026085760405162461bcd60e51b8152600401620007659062003622565b61010080546001600160a01b0319166001600160a01b0392909216919091179055565b336200263662001e27565b6001600160a01b0316146200265f5760405162461bcd60e51b81526004016200076590620035ed565b6200266d6101088262002a56565b620026bb5760405162461bcd60e51b815260206004820152601760248201527f416c7265616479206e6f742077686974656c6973746564000000000000000000604482015260640162000765565b604080516001600160a01b0383168152600060208201527fdf3714d6f88cdae2b889250b70116def7fb5083073c65cce38b56d2b0b0ef64e910162000d38565b600062001e606101088362002a6d565b6001600160a01b03163b151590565b336200272562001e27565b6001600160a01b03161462000a215760405162461bcd60e51b81526004016200076590620035ed565b7f4910fdfa16fed3260ed0e7147f7cc6da11a60208b5b9406d12a635614ffd91435460ff16156200278957620027848362002a90565b505050565b826001600160a01b03166352d1902d6040518163ffffffff1660e01b8152600401602060405180830381865afa925050508015620027e6575060408051601f3d908101601f19168201909252620027e39181019062003740565b60015b6200284b5760405162461bcd60e51b815260206004820152602e60248201527f45524331393637557067726164653a206e657720696d706c656d656e7461746960448201526d6f6e206973206e6f74205555505360901b606482015260840162000765565b6000805160206200479a8339815191528114620028bd5760405162461bcd60e51b815260206004820152602960248201527f45524331393637557067726164653a20756e737570706f727465642070726f786044820152681a58589b195555525160ba1b606482015260840162000765565b506200278483838362002b2f565b603380546001600160a01b038381166001600160a01b0319831681179093556040519116919082907f8be0079c531659141344cd1fd0a4f28419497f9722a3daafe3b4186f6b6457e090600090a35050565b600062002934836001600160a01b03841662002b60565b9392505050565b60606000620029348362002bb2565b600062002934838362002c10565b600062001e60825490565b60008054610100900460ff1615620029af578160ff166001148015620029885750303b155b620029a75760405162461bcd60e51b8152600401620007659062003d07565b506000919050565b60005460ff808416911610620029d95760405162461bcd60e51b8152600401620007659062003d07565b506000805460ff191660ff92909216919091179055600190565b919050565b600054610100900460ff1662002a225760405162461bcd60e51b8152600401620007659062003d55565b62001d5f62002c3d565b600054610100900460ff1662001d5f5760405162461bcd60e51b8152600401620007659062003d55565b600062002934836001600160a01b03841662002c72565b6001600160a01b0381166000908152600183016020526040812054151562002934565b6001600160a01b0381163b62002aff5760405162461bcd60e51b815260206004820152602d60248201527f455243313936373a206e657720696d706c656d656e746174696f6e206973206e60448201526c1bdd08184818dbdb9d1c9858dd609a1b606482015260840162000765565b6000805160206200479a83398151915280546001600160a01b0319166001600160a01b0392909216919091179055565b62002b3a8362002d76565b60008251118062002b485750805b15620027845762002b5a838362002db8565b50505050565b600081815260018301602052604081205462002ba95750815460018181018455600084815260208082209093018490558454848252828601909352604090209190915562001e60565b50600062001e60565b60608160000180548060200260200160405190810160405280929190818152602001828054801562002c0457602002820191906000526020600020905b81548152602001906001019080831162002bef575b50505050509050919050565b600082600001828154811062002c2a5762002c2a620038e4565b9060005260206000200154905092915050565b600054610100900460ff1662002c675760405162461bcd60e51b8152600401620007659062003d55565b62001d5f33620028cb565b6000818152600183016020526040812054801562002d6b57600062002c9960018362003da0565b855490915060009062002caf9060019062003da0565b905081811462002d1b57600086600001828154811062002cd35762002cd3620038e4565b906000526020600020015490508087600001848154811062002cf95762002cf9620038e4565b6000918252602080832090910192909255918252600188019052604090208390555b855486908062002d2f5762002d2f62003dc6565b60019003818190600052602060002001600090559055856001016000868152602001908152602001600020600090556001935050505062001e60565b600091505062001e60565b62002d818162002a90565b6040516001600160a01b038216907fbc7cd75a20ee27fd9adebab32041f755214dbc6bffa90cc0225b39da2e5c2d3b90600090a250565b60606001600160a01b0383163b62002e225760405162461bcd60e51b815260206004820152602660248201527f416464726573733a2064656c65676174652063616c6c20746f206e6f6e2d636f6044820152651b9d1c9858dd60d21b606482015260840162000765565b600080846001600160a01b03168460405162002e3f919062003ddc565b600060405180830381855af49150503d806000811462002e7c576040519150601f19603f3d011682016040523d82523d6000602084013e62002e81565b606091505b509150915062002eac8282604051806060016040528060278152602001620047ba6027913962002eb5565b95945050505050565b6060831562002ec657508162002934565b82511562002ed75782518084602001fd5b8160405162461bcd60e51b815260040162000765919062003dfa565b61098a8062003e1083390190565b6001600160a01b038116811462000a2157600080fd5b8035620029f38162002f01565b60006020828403121562002f3757600080fd5b8135620029348162002f01565b60008060006060848603121562002f5a57600080fd5b505081359360208301359350604090920135919050565b60006020828403121562002f8457600080fd5b5035919050565b634e487b7160e01b600052604160045260246000fd5b60405161018081016001600160401b038111828210171562002fc75762002fc762002f8b565b60405290565b604051606081016001600160401b038111828210171562002fc75762002fc762002f8b565b60405160a081016001600160401b038111828210171562002fc75762002fc762002f8b565b604051601f8201601f191681016001600160401b038111828210171562003042576200304262002f8b565b604052919050565b60006001600160401b0382111562003066576200306662002f8b565b50601f01601f191660200190565b60006200308b62003085846200304a565b62003017565b9050828152838383011115620030a057600080fd5b828260208301376000602084830101529392505050565b60008060408385031215620030cb57600080fd5b8235620030d88162002f01565b915060208301356001600160401b03811115620030f457600080fd5b8301601f810185136200310657600080fd5b620031178582356020840162003074565b9150509250929050565b600082601f8301126200313357600080fd5b620029348383356020850162003074565b6000606082840312156200315757600080fd5b604051606081016001600160401b0382821081831117156200317d576200317d62002f8b565b8160405282935084359150808211156200319657600080fd5b620031a48683870162003121565b83526020850135915080821115620031bb57600080fd5b50620031ca8582860162003121565b602083015250604083013560408201525092915050565b60006001600160401b03821115620031fd57620031fd62002f8b565b5060051b60200190565b600082601f8301126200321957600080fd5b813560206200322c6200308583620031e1565b82815260059290921b840181019181810190868411156200324c57600080fd5b8286015b8481101562003274578035620032668162002f01565b835291830191830162003250565b509695505050505050565b600061018082840312156200329357600080fd5b6200329d62002fa1565b905081356001600160401b0380821115620032b757600080fd5b620032c58583860162003121565b83526020840135602084015260408401356040840152606084013560608401526080840135608084015260a084013560a084015260c084013560c084015260e084013560e08401526101009150818401358284015261012091508184013582840152610140915081840135818111156200333e57600080fd5b6200334c8682870162003207565b838501525050506101606200336381840162002f17565b9082015292915050565b600080600080600080600080610100898b0312156200338b57600080fd5b620033968962002f17565b975060208901356001600160401b0380821115620033b357600080fd5b620033c18c838d0162003144565b985060408b0135915080821115620033d857600080fd5b620033e68c838d016200327f565b975060608b0135965060808b0135955060a08b0135945060c08b0135935060e08b01359150808211156200341957600080fd5b50620034288b828c0162003121565b9150509295985092959890939650565b6000602082840312156200344b57600080fd5b81356001600160401b038111156200346257600080fd5b62003470848285016200327f565b949350505050565b6020808252825182820181905260009190848201906040850190845b81811015620034bb5783516001600160a01b03168352928401929184019160010162003494565b50909695505050505050565b60008060008060008060008060008060006101a08c8e031215620034ea57600080fd5b8b35620034f78162002f01565b9a5060208c0135620035098162002f01565b995060408c01356200351b8162002f01565b985060608c01356200352d8162002f01565b975060808c01356200353f8162002f01565b965060a08c0135620035518162002f01565b955060c08c0135945060ff8c018d136200356a57600080fd5b6200357462002fcd565b806101408e018f8111156200358857600080fd5b60e08f015b81811015620035a75780358452602093840193016200358d565b50819650620035b68162002f17565b9550505050620035ca6101608d0162002f17565b9150620035db6101808d0162002f17565b90509295989b509295989b9093969950565b6020808252818101527f4f776e61626c653a2063616c6c6572206973206e6f7420746865206f776e6572604082015260600190565b6020808252600f908201526e496e76616c6964206164647265737360881b604082015260600190565b6020808252602c908201527f46756e6374696f6e206d7573742062652063616c6c6564207468726f7567682060408201526b19195b1959d85d1958d85b1b60a21b606082015260800190565b6020808252602c908201527f46756e6374696f6e206d7573742062652063616c6c6564207468726f7567682060408201526b6163746976652070726f787960a01b606082015260800190565b634e487b7160e01b600052602160045260246000fd5b6000602082840312156200370c57600080fd5b8151600481106200293457600080fd5b6020808252600a9082015269139bdd0818481c1bdbdb60b21b604082015260600190565b6000602082840312156200375357600080fd5b5051919050565b60208082526027908201527f436f6e747261637420646f6573206e6f7420737570706f72742076616c6964206040820152661c185e5b595b9d60ca1b606082015260800190565b60005b83811015620037be578181015183820152602001620037a4565b8381111562002b5a5750506000910152565b600082601f830112620037e257600080fd5b8151620037f362003085826200304a565b8181528460208386010111156200380957600080fd5b62003470826020830160208701620037a1565b600060208083850312156200383057600080fd5b82516001600160401b03808211156200384857600080fd5b818501915085601f8301126200385d57600080fd5b6200386762002ff2565b8060a08401888111156200387a57600080fd5b845b81811015620038b357805185811115620038965760008081fd5b620038a48b828901620037d0565b8552509286019286016200387c565b509098975050505050505050565b6001600160a01b0391909116815260406020820181905260009082015260600190565b634e487b7160e01b600052603260045260246000fd5b6000815180845262003914816020860160208601620037a1565b601f01601f19169290920160200192915050565b6001600160a01b038c168152602081018b905261016060408201819052600090620039568382018d620038fa565b905082810360608401526200396c818c620038fa565b9050828103608084015262003982818b620038fa565b905082810360a084015262003998818a620038fa565b905082810360c0840152620039ae8189620038fa565b90508660e08401528561010084015284610120840152828103610140840152620039d98185620038fa565b9e9d5050505050505050505050505050565b6001600160a01b0383168152604081016004831062003a1a57634e487b7160e01b600052602160045260246000fd5b8260208301529392505050565b60006020828403121562003a3a57600080fd5b8151620029348162002f01565b60006020828403121562003a5a57600080fd5b815180151581146200293457600080fd5b60018060a01b038316815260406020820152600082516060604084015262003a9760a0840182620038fa565b90506020840151603f1984830301606085015262003ab68282620038fa565b91505060408401516080840152809150509392505050565b60006020828403121562003ae157600080fd5b81516001600160401b0381111562003af857600080fd5b6200347084828501620037d0565b600081518084526020808501945080840160005b8381101562003b415781516001600160a01b03168752958201959082019060010162003b1a565b509495945050505050565b6001600160a01b03848116825283166020820152606060408201819052825161018091830182905260009162003b876101e0850183620038fa565b915060208501516080850152604085015160a0850152606085015160c0850152608085015160e085015260a0850151610100818187015260c08701519150610120828188015260e0880151925061014083818901528289015193506101609250838389015281890151858901528089015194505050605f19868503016101a087015262003c15848462003b06565b9350808701519250505062003c366101c08501826001600160a01b03169052565b5095945050505050565b60006020828403121562003c5357600080fd5b8151600381106200293457600080fd5b6000602080838503121562003c7757600080fd5b82516001600160401b0381111562003c8e57600080fd5b8301601f8101851362003ca057600080fd5b805162003cb16200308582620031e1565b81815260059190911b8201830190838101908783111562003cd157600080fd5b928401925b8284101562003cfc57835162003cec8162002f01565b8252928401929084019062003cd6565b979650505050505050565b6020808252602e908201527f496e697469616c697a61626c653a20636f6e747261637420697320616c72656160408201526d191e481a5b9a5d1a585b1a5e995960921b606082015260800190565b6020808252602b908201527f496e697469616c697a61626c653a20636f6e7472616374206973206e6f74206960408201526a6e697469616c697a696e6760a81b606082015260800190565b60008282101562003dc157634e487b7160e01b600052601160045260246000fd5b500390565b634e487b7160e01b600052603160045260246000fd5b6000825162003df0818460208701620037a1565b9190910192915050565b602081526000620029346020830184620038fa56fe608060405260405161098a38038061098a8339810160408190526100229161048b565b61004d60017fa3f0ad74e5423aebfd80d3ef4346578335a9a72aeaee59ff6cb3582b35133d5161054b565b6000805160206109438339815191521461006957610069610570565b6100758282600061007c565b50506105f0565b61008583610147565b6040516001600160a01b038416907f1cf3b03a6cf19fa2baba4df148e9dcabedea7f8a5c07840e207e5c089be95d3e90600090a26000825111806100c65750805b1561014257610140836001600160a01b0316635c60da1b6040518163ffffffff1660e01b8152600401602060405180830381865afa15801561010c573d6000803e3d6000fd5b505050506040513d601f19601f820116820180604052508101906101309190610586565b836102d860201b6100291760201c565b505b505050565b61015a8161030460201b6100551760201c565b6101b95760405162461bcd60e51b815260206004820152602560248201527f455243313936373a206e657720626561636f6e206973206e6f74206120636f6e6044820152641d1c9858dd60da1b60648201526084015b60405180910390fd5b61022d816001600160a01b0316635c60da1b6040518163ffffffff1660e01b8152600401602060405180830381865afa1580156101fa573d6000803e3d6000fd5b505050506040513d601f19601f8201168201806040525081019061021e9190610586565b61030460201b6100551760201c565b6102925760405162461bcd60e51b815260206004820152603060248201527f455243313936373a20626561636f6e20696d706c656d656e746174696f6e206960448201526f1cc81b9bdd08184818dbdb9d1c9858dd60821b60648201526084016101b0565b806102b760008051602061094383398151915260001b61031360201b6100641760201c565b80546001600160a01b0319166001600160a01b039290921691909117905550565b60606102fd838360405180606001604052806027815260200161096360279139610316565b9392505050565b6001600160a01b03163b151590565b90565b60606001600160a01b0384163b61037e5760405162461bcd60e51b815260206004820152602660248201527f416464726573733a2064656c65676174652063616c6c20746f206e6f6e2d636f6044820152651b9d1c9858dd60d21b60648201526084016101b0565b600080856001600160a01b03168560405161039991906105a1565b600060405180830381855af49150503d80600081146103d4576040519150601f19603f3d011682016040523d82523d6000602084013e6103d9565b606091505b5090925090506103ea8282866103f4565b9695505050505050565b606083156104035750816102fd565b8251156104135782518084602001fd5b8160405162461bcd60e51b81526004016101b091906105bd565b80516001600160a01b038116811461044457600080fd5b919050565b634e487b7160e01b600052604160045260246000fd5b60005b8381101561047a578181015183820152602001610462565b838111156101405750506000910152565b6000806040838503121561049e57600080fd5b6104a78361042d565b60208401519092506001600160401b03808211156104c457600080fd5b818501915085601f8301126104d857600080fd5b8151818111156104ea576104ea610449565b604051601f8201601f19908116603f0116810190838211818310171561051257610512610449565b8160405282815288602084870101111561052b57600080fd5b61053c83602083016020880161045f565b80955050505050509250929050565b60008282101561056b57634e487b7160e01b600052601160045260246000fd5b500390565b634e487b7160e01b600052600160045260246000fd5b60006020828403121561059857600080fd5b6102fd8261042d565b600082516105b381846020870161045f565b9190910192915050565b60208152600082518060208401526105dc81604085016020870161045f565b601f01601f19169190910160400192915050565b610344806105ff6000396000f3fe60806040523661001357610011610017565b005b6100115b610027610022610067565b610100565b565b606061004e83836040518060600160405280602781526020016102e860279139610124565b9392505050565b6001600160a01b03163b151590565b90565b600061009a7fa3f0ad74e5423aebfd80d3ef4346578335a9a72aeaee59ff6cb3582b35133d50546001600160a01b031690565b6001600160a01b0316635c60da1b6040518163ffffffff1660e01b8152600401602060405180830381865afa1580156100d7573d6000803e3d6000fd5b505050506040513d601f19601f820116820180604052508101906100fb919061023f565b905090565b3660008037600080366000845af43d6000803e80801561011f573d6000f35b3d6000fd5b60606001600160a01b0384163b6101915760405162461bcd60e51b815260206004820152602660248201527f416464726573733a2064656c65676174652063616c6c20746f206e6f6e2d636f6044820152651b9d1c9858dd60d21b60648201526084015b60405180910390fd5b600080856001600160a01b0316856040516101ac9190610298565b600060405180830381855af49150503d80600081146101e7576040519150601f19603f3d011682016040523d82523d6000602084013e6101ec565b606091505b50915091506101fc828286610206565b9695505050505050565b6060831561021557508161004e565b8251156102255782518084602001fd5b8160405162461bcd60e51b815260040161018891906102b4565b60006020828403121561025157600080fd5b81516001600160a01b038116811461004e57600080fd5b60005b8381101561028357818101518382015260200161026b565b83811115610292576000848401525b50505050565b600082516102aa818460208701610268565b9190910192915050565b60208152600082518060208401526102d3816040850160208701610268565b601f01601f1916919091016040019291505056fe416464726573733a206c6f772d6c6576656c2064656c65676174652063616c6c206661696c6564a26469706673582212202af598a06f5c1d44b2a1949e6589ce4824b460dd99fcafab4c1f7995e392e7b664736f6c634300080d0033a3f0ad74e5423aebfd80d3ef4346578335a9a72aeaee59ff6cb3582b35133d50416464726573733a206c6f772d6c6576656c2064656c65676174652063616c6c206661696c6564360894a13ba1a3210667c828492db98dca3e2076cc3735a920a3ca505d382bbc416464726573733a206c6f772d6c6576656c2064656c65676174652063616c6c206661696c6564a26469706673582212207723f100e668e598b7bce3746ccf12d7fca9de88b037fa7c9d3cf084fbc4bf9564736f6c634300080d0033496e697469616c697a61626c653a20636f6e747261637420697320616c726561",
  "linkReferences": {},
  "deployedLinkReferences": {}
}