{
  "_format": "hh-sol-artifact-1",
  "contractName": "Service",
  "sourceName": "contracts/Service.sol",
  "abi": [
    {
      "inputs": [],
      "stateMutability": "nonpayable",
      "type": "constructor"
    },
    {
      "anonymous": false,
      "inputs": [
        {
          "indexed": false,
          "internalType": "address",
          "name": "previousAdmin",
          "type": "address"
        },
        {
          "indexed": false,
          "internalType": "address",
          "name": "newAdmin",
          "type": "address"
        }
      ],
      "name": "AdminChanged",
      "type": "event"
    },
    {
      "anonymous": false,
      "inputs": [
        {
          "indexed": true,
          "internalType": "address",
          "name": "beacon",
          "type": "address"
        }
      ],
      "name": "BeaconUpgraded",
      "type": "event"
    },
    {
      "anonymous": false,
      "inputs": [
        {
          "indexed": false,
          "internalType": "uint256",
          "name": "fee",
          "type": "uint256"
        }
      ],
      "name": "FeeSet",
      "type": "event"
    },
    {
      "anonymous": false,
      "inputs": [
        {
          "indexed": false,
          "internalType": "uint256",
          "name": "quorumThreshold",
          "type": "uint256"
        },
        {
          "indexed": false,
          "internalType": "uint256",
          "name": "decisionThreshold",
          "type": "uint256"
        },
        {
          "indexed": false,
          "internalType": "uint256",
          "name": "lifespan",
          "type": "uint256"
        }
      ],
      "name": "GovernanceSettingsSet",
      "type": "event"
    },
    {
      "anonymous": false,
      "inputs": [
        {
          "indexed": false,
          "internalType": "uint8",
          "name": "version",
          "type": "uint8"
        }
      ],
      "name": "Initialized",
      "type": "event"
    },
    {
      "anonymous": false,
      "inputs": [
        {
          "indexed": true,
          "internalType": "address",
          "name": "previousOwner",
          "type": "address"
        },
        {
          "indexed": true,
          "internalType": "address",
          "name": "newOwner",
          "type": "address"
        }
      ],
      "name": "OwnershipTransferred",
      "type": "event"
    },
    {
      "anonymous": false,
      "inputs": [
        {
          "indexed": false,
          "internalType": "address",
          "name": "pool",
          "type": "address"
        },
        {
          "indexed": false,
          "internalType": "address",
          "name": "token",
          "type": "address"
        },
        {
          "indexed": false,
          "internalType": "address",
          "name": "tge",
          "type": "address"
        }
      ],
      "name": "PoolCreated",
      "type": "event"
    },
    {
      "anonymous": false,
      "inputs": [
        {
          "indexed": false,
          "internalType": "address",
          "name": "pool",
          "type": "address"
        },
        {
          "indexed": false,
          "internalType": "address",
          "name": "tge",
          "type": "address"
        }
      ],
      "name": "SecondaryTGECreated",
      "type": "event"
    },
    {
      "anonymous": false,
      "inputs": [
        {
          "indexed": false,
          "internalType": "address",
          "name": "token",
          "type": "address"
        },
        {
          "indexed": false,
          "internalType": "bool",
          "name": "whitelisted",
          "type": "bool"
        }
      ],
      "name": "TokenWhitelistedSet",
      "type": "event"
    },
    {
      "anonymous": false,
      "inputs": [
        {
          "indexed": true,
          "internalType": "address",
          "name": "implementation",
          "type": "address"
        }
      ],
      "name": "Upgraded",
      "type": "event"
    },
    {
      "anonymous": false,
      "inputs": [
        {
          "indexed": false,
          "internalType": "address",
          "name": "account",
          "type": "address"
        },
        {
          "indexed": false,
          "internalType": "bool",
          "name": "whitelisted",
          "type": "bool"
        }
      ],
      "name": "UserWhitelistedSet",
      "type": "event"
    },
    {
      "inputs": [],
      "name": "ThresholdDecimals",
      "outputs": [
        {
          "internalType": "uint256",
          "name": "",
          "type": "uint256"
        }
      ],
      "stateMutability": "view",
      "type": "function"
    },
    {
      "inputs": [
        {
          "internalType": "uint256",
          "name": "proposalId",
          "type": "uint256"
        }
      ],
      "name": "addProposal",
      "outputs": [],
      "stateMutability": "nonpayable",
      "type": "function"
    },
    {
      "inputs": [
        {
          "internalType": "address",
          "name": "account",
          "type": "address"
        }
      ],
      "name": "addUserToWhitelist",
      "outputs": [],
      "stateMutability": "nonpayable",
      "type": "function"
    },
    {
      "inputs": [
        {
          "internalType": "contract IPool",
          "name": "pool",
          "type": "address"
        },
        {
          "components": [
            {
              "internalType": "string",
              "name": "name",
              "type": "string"
            },
            {
              "internalType": "string",
              "name": "symbol",
              "type": "string"
            },
            {
              "internalType": "uint256",
              "name": "cap",
              "type": "uint256"
            }
          ],
          "internalType": "struct IGovernanceToken.TokenInfo",
          "name": "tokenInfo",
          "type": "tuple"
        },
        {
          "components": [
            {
              "internalType": "string",
              "name": "metadataURI",
              "type": "string"
            },
            {
              "internalType": "uint256",
              "name": "price",
              "type": "uint256"
            },
            {
              "internalType": "uint256",
              "name": "hardcap",
              "type": "uint256"
            },
            {
              "internalType": "uint256",
              "name": "softcap",
              "type": "uint256"
            },
            {
              "internalType": "uint256",
              "name": "minPurchase",
              "type": "uint256"
            },
            {
              "internalType": "uint256",
              "name": "maxPurchase",
              "type": "uint256"
            },
            {
              "internalType": "uint256",
              "name": "lockupPercent",
              "type": "uint256"
            },
            {
              "internalType": "uint256",
              "name": "lockupDuration",
              "type": "uint256"
            },
            {
              "internalType": "uint256",
              "name": "lockupTVL",
              "type": "uint256"
            },
            {
              "internalType": "uint256",
              "name": "duration",
              "type": "uint256"
            },
            {
              "internalType": "address[]",
              "name": "userWhitelist",
              "type": "address[]"
            },
            {
              "internalType": "address",
              "name": "unitOfAccount",
              "type": "address"
            }
          ],
          "internalType": "struct ITGE.TGEInfo",
          "name": "tgeInfo",
          "type": "tuple"
        },
        {
          "internalType": "uint256",
          "name": "ballotQuorumThreshold_",
          "type": "uint256"
        },
        {
          "internalType": "uint256",
          "name": "ballotDecisionThreshold_",
          "type": "uint256"
        },
        {
          "internalType": "uint256",
          "name": "ballotLifespan_",
          "type": "uint256"
        },
        {
          "internalType": "uint256",
          "name": "jurisdiction",
          "type": "uint256"
        },
        {
          "internalType": "string",
          "name": "trademark",
          "type": "string"
        }
      ],
      "name": "createPool",
      "outputs": [],
      "stateMutability": "payable",
      "type": "function"
    },
    {
      "inputs": [
        {
          "components": [
            {
              "internalType": "string",
              "name": "metadataURI",
              "type": "string"
            },
            {
              "internalType": "uint256",
              "name": "price",
              "type": "uint256"
            },
            {
              "internalType": "uint256",
              "name": "hardcap",
              "type": "uint256"
            },
            {
              "internalType": "uint256",
              "name": "softcap",
              "type": "uint256"
            },
            {
              "internalType": "uint256",
              "name": "minPurchase",
              "type": "uint256"
            },
            {
              "internalType": "uint256",
              "name": "maxPurchase",
              "type": "uint256"
            },
            {
              "internalType": "uint256",
              "name": "lockupPercent",
              "type": "uint256"
            },
            {
              "internalType": "uint256",
              "name": "lockupDuration",
              "type": "uint256"
            },
            {
              "internalType": "uint256",
              "name": "lockupTVL",
              "type": "uint256"
            },
            {
              "internalType": "uint256",
              "name": "duration",
              "type": "uint256"
            },
            {
              "internalType": "address[]",
              "name": "userWhitelist",
              "type": "address[]"
            },
            {
              "internalType": "address",
              "name": "unitOfAccount",
              "type": "address"
            }
          ],
          "internalType": "struct ITGE.TGEInfo",
          "name": "tgeInfo",
          "type": "tuple"
        }
      ],
      "name": "createSecondaryTGE",
      "outputs": [],
      "stateMutability": "nonpayable",
      "type": "function"
    },
    {
      "inputs": [],
      "name": "directory",
      "outputs": [
        {
          "internalType": "contract IDirectory",
          "name": "",
          "type": "address"
        }
      ],
      "stateMutability": "view",
      "type": "function"
    },
    {
      "inputs": [],
      "name": "fee",
      "outputs": [
        {
          "internalType": "uint256",
          "name": "",
          "type": "uint256"
        }
      ],
      "stateMutability": "view",
      "type": "function"
    },
    {
      "inputs": [],
      "name": "getBallotDecisionThreshold",
      "outputs": [
        {
          "internalType": "uint256",
          "name": "",
          "type": "uint256"
        }
      ],
      "stateMutability": "view",
      "type": "function"
    },
    {
      "inputs": [],
      "name": "getBallotLifespan",
      "outputs": [
        {
          "internalType": "uint256",
          "name": "",
          "type": "uint256"
        }
      ],
      "stateMutability": "view",
      "type": "function"
    },
    {
      "inputs": [],
      "name": "getBallotQuorumThreshold",
      "outputs": [
        {
          "internalType": "uint256",
          "name": "",
          "type": "uint256"
        }
      ],
      "stateMutability": "view",
      "type": "function"
    },
    {
      "inputs": [
        {
          "internalType": "contract IDirectory",
          "name": "directory_",
          "type": "address"
        },
        {
          "internalType": "address",
          "name": "poolBeacon_",
          "type": "address"
        },
        {
          "internalType": "address",
          "name": "proposalGateway_",
          "type": "address"
        },
        {
          "internalType": "address",
          "name": "tokenBeacon_",
          "type": "address"
        },
        {
          "internalType": "address",
          "name": "tgeBeacon_",
          "type": "address"
        },
        {
          "internalType": "contract IMetadata",
          "name": "metadata_",
          "type": "address"
        },
        {
          "internalType": "uint256",
          "name": "fee_",
          "type": "uint256"
        },
        {
          "internalType": "uint256[3]",
          "name": "ballotParams",
          "type": "uint256[3]"
        },
        {
          "internalType": "contract ISwapRouter",
          "name": "uniswapRouter_",
          "type": "address"
        },
        {
          "internalType": "contract IQuoter",
          "name": "uniswapQuoter_",
          "type": "address"
        },
        {
          "internalType": "contract IWhitelistedTokens",
          "name": "whitelistedTokens_",
          "type": "address"
        }
      ],
      "name": "initialize",
      "outputs": [],
      "stateMutability": "nonpayable",
      "type": "function"
    },
    {
      "inputs": [
        {
          "internalType": "address",
          "name": "account",
          "type": "address"
        }
      ],
      "name": "isUserWhitelisted",
      "outputs": [
        {
          "internalType": "bool",
          "name": "",
          "type": "bool"
        }
      ],
      "stateMutability": "view",
      "type": "function"
    },
    {
      "inputs": [],
      "name": "metadata",
      "outputs": [
        {
          "internalType": "contract IMetadata",
          "name": "",
          "type": "address"
        }
      ],
      "stateMutability": "view",
      "type": "function"
    },
    {
      "inputs": [],
      "name": "owner",
      "outputs": [
        {
          "internalType": "address",
          "name": "",
          "type": "address"
        }
      ],
      "stateMutability": "view",
      "type": "function"
    },
    {
      "inputs": [],
      "name": "poolBeacon",
      "outputs": [
        {
          "internalType": "address",
          "name": "",
          "type": "address"
        }
      ],
      "stateMutability": "view",
      "type": "function"
    },
    {
      "inputs": [],
      "name": "proposalGateway",
      "outputs": [
        {
          "internalType": "address",
          "name": "",
          "type": "address"
        }
      ],
      "stateMutability": "view",
      "type": "function"
    },
    {
      "inputs": [],
      "name": "proposalQuorum",
      "outputs": [
        {
          "internalType": "uint256",
          "name": "",
          "type": "uint256"
        }
      ],
      "stateMutability": "view",
      "type": "function"
    },
    {
      "inputs": [],
      "name": "proposalThreshold",
      "outputs": [
        {
          "internalType": "uint256",
          "name": "",
          "type": "uint256"
        }
      ],
      "stateMutability": "view",
      "type": "function"
    },
    {
      "inputs": [],
      "name": "proxiableUUID",
      "outputs": [
        {
          "internalType": "bytes32",
          "name": "",
          "type": "bytes32"
        }
      ],
      "stateMutability": "view",
      "type": "function"
    },
    {
      "inputs": [
        {
          "internalType": "address",
          "name": "account",
          "type": "address"
        }
      ],
      "name": "removeUserFromWhitelist",
      "outputs": [],
      "stateMutability": "nonpayable",
      "type": "function"
    },
    {
      "inputs": [],
      "name": "renounceOwnership",
      "outputs": [],
      "stateMutability": "nonpayable",
      "type": "function"
    },
    {
      "inputs": [
        {
          "internalType": "uint256",
          "name": "fee_",
          "type": "uint256"
        }
      ],
      "name": "setFee",
      "outputs": [],
      "stateMutability": "nonpayable",
      "type": "function"
    },
    {
      "inputs": [
        {
          "internalType": "uint256",
          "name": "ballotQuorumThreshold_",
          "type": "uint256"
        },
        {
          "internalType": "uint256",
          "name": "ballotDecisionThreshold_",
          "type": "uint256"
        },
        {
          "internalType": "uint256",
          "name": "ballotLifespan_",
          "type": "uint256"
        }
      ],
      "name": "setGovernanceSettings",
      "outputs": [],
      "stateMutability": "nonpayable",
      "type": "function"
    },
    {
      "inputs": [
        {
          "internalType": "address",
          "name": "poolBeacon_",
          "type": "address"
        }
      ],
      "name": "setPoolBeacon",
      "outputs": [],
      "stateMutability": "nonpayable",
      "type": "function"
    },
    {
      "inputs": [
        {
          "internalType": "address",
          "name": "tgeBeacon_",
          "type": "address"
        }
      ],
      "name": "setTGEBeacon",
      "outputs": [],
      "stateMutability": "nonpayable",
      "type": "function"
    },
    {
      "inputs": [
        {
          "internalType": "address",
          "name": "tokenBeacon_",
          "type": "address"
        }
      ],
      "name": "setTokenBeacon",
      "outputs": [],
      "stateMutability": "nonpayable",
      "type": "function"
    },
    {
      "inputs": [],
      "name": "tgeBeacon",
      "outputs": [
        {
          "internalType": "address",
          "name": "",
          "type": "address"
        }
      ],
      "stateMutability": "view",
      "type": "function"
    },
    {
      "inputs": [],
      "name": "tokenBeacon",
      "outputs": [
        {
          "internalType": "address",
          "name": "",
          "type": "address"
        }
      ],
      "stateMutability": "view",
      "type": "function"
    },
    {
      "inputs": [],
      "name": "tokenWhitelist",
      "outputs": [
        {
          "internalType": "address[]",
          "name": "",
          "type": "address[]"
        }
      ],
      "stateMutability": "view",
      "type": "function"
    },
    {
      "inputs": [
        {
          "internalType": "address",
          "name": "to",
          "type": "address"
        }
      ],
      "name": "transferFunds",
      "outputs": [],
      "stateMutability": "nonpayable",
      "type": "function"
    },
    {
      "inputs": [
        {
          "internalType": "address",
          "name": "newOwner",
          "type": "address"
        }
      ],
      "name": "transferOwnership",
      "outputs": [],
      "stateMutability": "nonpayable",
      "type": "function"
    },
    {
      "inputs": [],
      "name": "uniswapQuoter",
      "outputs": [
        {
          "internalType": "contract IQuoter",
          "name": "",
          "type": "address"
        }
      ],
      "stateMutability": "view",
      "type": "function"
    },
    {
      "inputs": [],
      "name": "uniswapRouter",
      "outputs": [
        {
          "internalType": "contract ISwapRouter",
          "name": "",
          "type": "address"
        }
      ],
      "stateMutability": "view",
      "type": "function"
    },
    {
      "inputs": [
        {
          "internalType": "address",
          "name": "newImplementation",
          "type": "address"
        }
      ],
      "name": "upgradeTo",
      "outputs": [],
      "stateMutability": "nonpayable",
      "type": "function"
    },
    {
      "inputs": [
        {
          "internalType": "address",
          "name": "newImplementation",
          "type": "address"
        },
        {
          "internalType": "bytes",
          "name": "data",
          "type": "bytes"
        }
      ],
      "name": "upgradeToAndCall",
      "outputs": [],
      "stateMutability": "payable",
      "type": "function"
    },
    {
      "inputs": [],
      "name": "userWhitelist",
      "outputs": [
        {
          "internalType": "address[]",
          "name": "",
          "type": "address[]"
        }
      ],
      "stateMutability": "view",
      "type": "function"
    },
    {
      "inputs": [
        {
          "internalType": "uint256",
          "name": "index",
          "type": "uint256"
        }
      ],
      "name": "userWhitelistAt",
      "outputs": [
        {
          "internalType": "address",
          "name": "",
          "type": "address"
        }
      ],
      "stateMutability": "view",
      "type": "function"
    },
    {
      "inputs": [],
      "name": "userWhitelistLength",
      "outputs": [
        {
          "internalType": "uint256",
          "name": "",
          "type": "uint256"
        }
      ],
      "stateMutability": "view",
      "type": "function"
    },
    {
      "inputs": [],
      "name": "whitelistedTokens",
      "outputs": [
        {
          "internalType": "contract IWhitelistedTokens",
          "name": "",
          "type": "address"
        }
      ],
      "stateMutability": "view",
      "type": "function"
    }
  ],
  "bytecode": "0x60a0604052306080523480156200001557600080fd5b506200002062000026565b62000156565b6200003260ff62000035565b50565b60008054610100900460ff1615620000ce578160ff1660011480156200006e57506200006c306200014760201b6200246b1760201c565b155b620000c65760405162461bcd60e51b815260206004820152602e6024820152600080516020620046bd83398151915260448201526d191e481a5b9a5d1a585b1a5e995960921b60648201526084015b60405180910390fd5b506000919050565b60005460ff8084169116106200012d5760405162461bcd60e51b815260206004820152602e6024820152600080516020620046bd83398151915260448201526d191e481a5b9a5d1a585b1a5e995960921b6064820152608401620000bd565b506000805460ff191660ff92909216919091179055600190565b6001600160a01b03163b151590565b60805161452f6200018e6000396000818161097f015281816109c201528181610b8a01528181610bcd0152610c65015261452f6000f3fe6080604052600436106200025f5760003560e01c80638da5cb5b1162000147578063d419f54711620000b9578063e39ff19f1162000078578063e39ff19f14620006a7578063f2fde38b14620006cc578063f7f5e5a614620006f1578063f9902bb11462000716578063fb237eb2146200073b57600080fd5b8063d419f5471462000616578063da960431146200063b578063dad01e5b1462000652578063ddca3f43146200066a578063e228a63c146200068257600080fd5b8063b58131b01162000106578063b58131b01462000580578063c41c2f241462000598578063c5a7b2ea14620005ba578063ca735cc114620005dc578063ccf5a77c14620005f457600080fd5b80638da5cb5b14620004ed5780639421873714620005055780639459c173146200052c5780639a0b6f9b1462000551578063a1db8b4c146200056957600080fd5b806352d1902d11620001e1578063715018a611620001a0578063715018a61462000460578063735de9f71462000478578063747b8050146200049a57806378809b8314620004bf57806386c36a6b14620004d657600080fd5b806352d1902d14620003b65780635e1762a014620003dd57806369fe0e2d14620003ff5780636aca4f4914620004245780636e0e69f9146200043b57600080fd5b80633659cfe6116200022e5780633659cfe61462000311578063392f37e914620003365780633fec91a414620003585780634db4a352146200037d5780634f1ef286146200039f57600080fd5b806301569ab0146200026457806304e31dfb14620002a35780630f842e0c14620002c5578063168dfb5014620002ec575b600080fd5b3480156200027157600080fd5b5060cf5462000286906001600160a01b031681565b6040516001600160a01b0390911681526020015b60405180910390f35b348015620002b057600080fd5b5060cc5462000286906001600160a01b031681565b348015620002d257600080fd5b50620002ea620002e436600462002c84565b62000771565b005b348015620002f957600080fd5b50620002ea6200030b36600462002ca4565b620007f9565b3480156200031e57600080fd5b50620002ea6200033036600462002c84565b62000975565b3480156200034357600080fd5b5060c95462000286906001600160a01b031681565b3480156200036557600080fd5b50620002ea6200037736600462002cd1565b62000a60565b3480156200038a57600080fd5b5060d75462000286906001600160a01b031681565b620002ea620003b036600462002e17565b62000b80565b348015620003c357600080fd5b50620003ce62000c58565b6040519081526020016200029a565b348015620003ea57600080fd5b5060cb5462000286906001600160a01b031681565b3480156200040c57600080fd5b50620002ea6200041e36600462002cd1565b62000d0e565b620002ea62000435366004620030cd565b62000d7e565b3480156200044857600080fd5b50620002ea6200045a36600462003198565b620018e9565b3480156200046d57600080fd5b50620002ea62001db0565b3480156200048557600080fd5b5060d65462000286906001600160a01b031681565b348015620004a757600080fd5b50620002ea620004b936600462002c84565b62001df2565b348015620004cc57600080fd5b5060d454620003ce565b348015620004e357600080fd5b50620003ce600281565b348015620004fa57600080fd5b506200028662001eb7565b3480156200051257600080fd5b506200051d62001ed1565b6040516200029a9190620031d8565b3480156200053957600080fd5b50620002866200054b36600462002cd1565b62001edf565b3480156200055e57600080fd5b50620003ce60d15481565b3480156200057657600080fd5b5060d354620003ce565b3480156200058d57600080fd5b50620003ce60d25481565b348015620005a557600080fd5b5060ca5462000286906001600160a01b031681565b348015620005c757600080fd5b5060cd5462000286906001600160a01b031681565b348015620005e957600080fd5b506200051d62001ef4565b3480156200060157600080fd5b5060ce5462000286906001600160a01b031681565b3480156200062357600080fd5b50620002ea6200063536600462002c84565b62001f69565b3480156200064857600080fd5b5060d554620003ce565b3480156200065f57600080fd5b50620003ce62001fe8565b3480156200067757600080fd5b50620003ce60d05481565b3480156200068f57600080fd5b50620002ea620006a136600462003227565b62001ff6565b348015620006b457600080fd5b50620002ea620006c636600462002c84565b620021a5565b348015620006d957600080fd5b50620002ea620006eb36600462002c84565b62002268565b348015620006fe57600080fd5b50620002ea6200071036600462002c84565b6200230e565b3480156200072357600080fd5b50620002ea6200073536600462002c84565b6200238d565b3480156200074857600080fd5b50620007606200075a36600462002c84565b6200245c565b60405190151581526020016200029a565b336200077c62001eb7565b6001600160a01b031614620007ae5760405162461bcd60e51b8152600401620007a5906200334d565b60405180910390fd5b6001600160a01b038116620007d75760405162461bcd60e51b8152600401620007a59062003382565b60cf80546001600160a01b0319166001600160a01b0392909216919091179055565b336200080462001eb7565b6001600160a01b0316146200082d5760405162461bcd60e51b8152600401620007a5906200334d565b612710831115620008815760405162461bcd60e51b815260206004820152601d60248201527f496e76616c69642062616c6c6f7451756f72756d5468726573686f6c640000006044820152606401620007a5565b612710821115620008d55760405162461bcd60e51b815260206004820152601f60248201527f496e76616c69642062616c6c6f744465636973696f6e5468726573686f6c64006044820152606401620007a5565b60008111620009205760405162461bcd60e51b815260206004820152601660248201527524b73b30b634b2103130b63637ba2634b332b9b830b760511b6044820152606401620007a5565b60d383905560d482905560d581905560408051848152602081018490529081018290527fae6075a1f7b230b994c46ac23890f3aea156bbf1195be708ad574a240164a6559060600160405180910390a1505050565b6001600160a01b037f0000000000000000000000000000000000000000000000000000000000000000163003620009c05760405162461bcd60e51b8152600401620007a590620033ab565b7f00000000000000000000000000000000000000000000000000000000000000006001600160a01b031662000a0b600080516020620044b3833981519152546001600160a01b031690565b6001600160a01b03161462000a345760405162461bcd60e51b8152600401620007a590620033f7565b62000a3f816200247a565b6040805160008082526020820190925262000a5d91839190620024ae565b50565b60ca54604051630db9619f60e31b81523360048201526001916001600160a01b031690636dcb0cf890602401602060405180830381865afa15801562000aaa573d6000803e3d6000fd5b505050506040513d601f19601f8201168201806040525081019062000ad0919062003459565b600381111562000ae45762000ae462003443565b1462000b045760405162461bcd60e51b8152600401620007a5906200347c565b60ca5460405163f4be936960e01b8152336004820152602481018390526001600160a01b039091169063f4be9369906044016020604051808303816000875af115801562000b56573d6000803e3d6000fd5b505050506040513d601f19601f8201168201806040525081019062000b7c9190620034a0565b5050565b6001600160a01b037f000000000000000000000000000000000000000000000000000000000000000016300362000bcb5760405162461bcd60e51b8152600401620007a590620033ab565b7f00000000000000000000000000000000000000000000000000000000000000006001600160a01b031662000c16600080516020620044b3833981519152546001600160a01b031690565b6001600160a01b03161462000c3f5760405162461bcd60e51b8152600401620007a590620033f7565b62000c4a826200247a565b62000b7c82826001620024ae565b6000306001600160a01b037f0000000000000000000000000000000000000000000000000000000000000000161462000cfa5760405162461bcd60e51b815260206004820152603860248201527f555550535570677261646561626c653a206d757374206e6f742062652063616c60448201527f6c6564207468726f7567682064656c656761746563616c6c00000000000000006064820152608401620007a5565b50600080516020620044b383398151915290565b3362000d1962001eb7565b6001600160a01b03161462000d425760405162461bcd60e51b8152600401620007a5906200334d565b60d08190556040518181527f20461e09b8e557b77e107939f9ce6544698123aad0fc964ac5cc59b7df2e608f906020015b60405180910390a150565b62000d89336200245c565b62000dc95760405162461bcd60e51b815260206004820152600f60248201526e139bdd081dda1a5d195b1a5cdd1959608a1b6044820152606401620007a5565b60008661016001516001600160a01b03166318160ddd6040518163ffffffff1660e01b8152600401602060405180830381865afa15801562000e0f573d6000803e3d6000fd5b505050506040513d601f19601f8201168201806040525081019062000e359190620034a0565b10158062000e4f57506101608601516001600160a01b0316155b62000e9d5760405162461bcd60e51b815260206004820181905260248201527f436f6e747261637420646f6573206e6f7420737570706f7274204945524332306044820152606401620007a5565b6001600160a01b038816620012015760d054341462000ef65760405162461bcd60e51b8152602060048201526014602482015273125b98dbdc9c9958dd08199959481c185cdcd95960621b6044820152606401620007a5565b60c954604051630ca3d0fb60e01b8152600481018490526000916001600160a01b031690630ca3d0fb906024016020604051808303816000875af115801562000f43573d6000803e3d6000fd5b505050506040513d601f19601f8201168201806040525081019062000f699190620034a0565b90506000811162000fbd5760405162461bcd60e51b815260206004820152601b60248201527f4176616c6961626c6520636f6d70616e79206e6f7420666f756e6400000000006044820152606401620007a5565b60c954604051630d1e6acd60e11b8152600481018390526000916001600160a01b031690631a3cd59a90602401600060405180830381865afa15801562001008573d6000803e3d6000fd5b505050506040513d6000823e601f3d908101601f1916820160405262001032919081019062003535565b60cd546040519192506001600160a01b031690620010509062002c53565b6200105c9190620035da565b604051809103906000f08015801562001079573d6000803e3d6000fd5b5099506001600160a01b038a1663acec84dc3386846000602002015185600160200201518660026020020151876003602002015188600460200201518f8f8f8e6040518c63ffffffff1660e01b8152600401620010e19b9a9998979695949392919062003641565b600060405180830381600087803b158015620010fc57600080fd5b505af115801562001111573d6000803e3d6000fd5b505060c954604051637fd3924760e01b8152600481018690526001600160a01b038e811660248301529091169250637fd392479150604401600060405180830381600087803b1580156200116457600080fd5b505af115801562001179573d6000803e3d6000fd5b505060ca546040516303203cd960e21b81526001600160a01b039091169250630c80f3649150620011b2908d9060019060040162003704565b6020604051808303816000875af1158015620011d2573d6000803e3d6000fd5b505050506040513d601f19601f82011682018060405250810190620011f89190620034a0565b50505062001422565b60ca54604051630db9619f60e31b81526001600160a01b038a811660048301526001921690636dcb0cf890602401602060405180830381865afa1580156200124d573d6000803e3d6000fd5b505050506040513d601f19601f8201168201806040525081019062001273919062003459565b600381111562001287576200128762003443565b14620012a75760405162461bcd60e51b8152600401620007a5906200347c565b876001600160a01b0316638da5cb5b6040518163ffffffff1660e01b8152600401602060405180830381865afa158015620012e6573d6000803e3d6000fd5b505050506040513d601f19601f820116820180604052508101906200130c919062003740565b6001600160a01b0316336001600160a01b0316146200136e5760405162461bcd60e51b815260206004820152601860248201527f53656e646572206973206e6f7420706f6f6c206f776e657200000000000000006044820152606401620007a5565b876001600160a01b031663e47bfee86040518163ffffffff1660e01b8152600401602060405180830381865afa158015620013ad573d6000803e3d6000fd5b505050506040513d601f19601f82011682018060405250810190620013d3919062003760565b15620014225760405162461bcd60e51b815260206004820152601760248201527f50726576696f757320544745206e6f74206661696c65640000000000000000006044820152606401620007a5565b60ce546040516000916001600160a01b031690620014409062002c53565b6200144c9190620035da565b604051809103906000f08015801562001469573d6000803e3d6000fd5b5060ca546040516303203cd960e21b81529192506001600160a01b031690630c80f36490620014a090849060029060040162003704565b6020604051808303816000875af1158015620014c0573d6000803e3d6000fd5b505050506040513d601f19601f82011682018060405250810190620014e69190620034a0565b5060cf546040516000916001600160a01b031690620015059062002c53565b620015119190620035da565b604051809103906000f0801580156200152e573d6000803e3d6000fd5b5060ca546040516303203cd960e21b81529192506001600160a01b031690630c80f364906200156590849060039060040162003704565b6020604051808303816000875af115801562001585573d6000803e3d6000fd5b505050506040513d601f19601f82011682018060405250810190620015ab9190620034a0565b506001600160a01b038a1662001625576040516322ae8aef60e01b81526001600160a01b038316906322ae8aef90620015eb908d908d9060040162003784565b600060405180830381600087803b1580156200160657600080fd5b505af11580156200161b573d6000803e3d6000fd5b5050505062001714565b816001600160a01b03166322ae8aef8b60405180606001604052808e6001600160a01b0316630f74fdb06040518163ffffffff1660e01b8152600401600060405180830381865afa1580156200167f573d6000803e3d6000fd5b505050506040513d6000823e601f3d908101601f19168201604052620016a99190810190620037e7565b81526020018d6020015181526020018d604001518152506040518363ffffffff1660e01b8152600401620016df92919062003784565b600060405180830381600087803b158015620016fa57600080fd5b505af11580156200170f573d6000803e3d6000fd5b505050505b60405163144fa6d760e01b81526001600160a01b0383811660048301528b169063144fa6d790602401600060405180830381600087803b1580156200175857600080fd5b505af11580156200176d573d6000803e3d6000fd5b5050604051633a7d190b60e01b81526001600160a01b0384169250633a7d190b9150620017a390339086908d9060040162003865565b600060405180830381600087803b158015620017be57600080fd5b505af1158015620017d3573d6000803e3d6000fd5b505060405163024aa90f60e61b81526001600160a01b0384811660048301528d1692506392aa43c09150602401600060405180830381600087803b1580156200181b57600080fd5b505af115801562001830573d6000803e3d6000fd5b5050604051631bd974ad60e31b81526001600160a01b0384811660048301528d16925063decba5689150602401600060405180830381600087803b1580156200187857600080fd5b505af11580156200188d573d6000803e3d6000fd5b5050604080516001600160a01b038e81168252868116602083015285168183015290517f9c5d829b9b23efc461f9aeef91979ec04bb903feb3bee4f26d22114abfc7335b9350908190036060019150a150505050505050505050565b60ca54604051630db9619f60e31b81523360048201526001916001600160a01b031690636dcb0cf890602401602060405180830381865afa15801562001933573d6000803e3d6000fd5b505050506040513d601f19601f8201168201806040525081019062001959919062003459565b60038111156200196d576200196d62003443565b146200198d5760405162461bcd60e51b8152600401620007a5906200347c565b6000336001600160a01b031663a7497fa56040518163ffffffff1660e01b8152600401602060405180830381865afa158015620019ce573d6000803e3d6000fd5b505050506040513d601f19601f82011682018060405250810190620019f4919062003740565b6001600160a01b031663c19d93fb6040518163ffffffff1660e01b8152600401602060405180830381865afa15801562001a32573d6000803e3d6000fd5b505050506040513d601f19601f8201168201806040525081019062001a58919062003959565b600281111562001a6c5762001a6c62003443565b0362001aac5760405162461bcd60e51b815260206004820152600e60248201526d486173206163746976652054474560901b6044820152606401620007a5565b60008161016001516001600160a01b03166318160ddd6040518163ffffffff1660e01b8152600401602060405180830381865afa15801562001af2573d6000803e3d6000fd5b505050506040513d601f19601f8201168201806040525081019062001b189190620034a0565b10158062001b3257506101608101516001600160a01b0316155b62001b805760405162461bcd60e51b815260206004820181905260248201527f436f6e747261637420646f6573206e6f7420737570706f7274204945524332306044820152606401620007a5565b60cf546040516000916001600160a01b03169062001b9e9062002c53565b62001baa9190620035da565b604051809103906000f08015801562001bc7573d6000803e3d6000fd5b5060ca546040516303203cd960e21b81529192506001600160a01b031690630c80f3649062001bfe90849060039060040162003704565b6020604051808303816000875af115801562001c1e573d6000803e3d6000fd5b505050506040513d601f19601f8201168201806040525081019062001c449190620034a0565b50806001600160a01b0316633a7d190b33336001600160a01b031663fc0c546a6040518163ffffffff1660e01b8152600401602060405180830381865afa15801562001c94573d6000803e3d6000fd5b505050506040513d601f19601f8201168201806040525081019062001cba919062003740565b856040518463ffffffff1660e01b815260040162001cdb9392919062003865565b600060405180830381600087803b15801562001cf657600080fd5b505af115801562001d0b573d6000803e3d6000fd5b505060405163024aa90f60e61b81526001600160a01b03841660048201523392506392aa43c09150602401600060405180830381600087803b15801562001d5157600080fd5b505af115801562001d66573d6000803e3d6000fd5b5050604080513381526001600160a01b03851660208201527f0e3dbd8c6caab1c68013fb13d63b7ff61db8fed8b3e7ce4e8e294ee1d0c22e8e935001905060405180910390a15050565b3362001dbb62001eb7565b6001600160a01b03161462001de45760405162461bcd60e51b8152600401620007a5906200334d565b62001df060006200262b565b565b3362001dfd62001eb7565b6001600160a01b03161462001e265760405162461bcd60e51b8152600401620007a5906200334d565b62001e3360d8826200267d565b62001e775760405162461bcd60e51b8152602060048201526013602482015272105b1c9958591e481dda1a5d195b1a5cdd1959606a1b6044820152606401620007a5565b604080516001600160a01b0383168152600160208201527fdf3714d6f88cdae2b889250b70116def7fb5083073c65cce38b56d2b0b0ef64e910162000d73565b600062001ecc6033546001600160a01b031690565b905090565b606062001ecc60d86200269b565b600062001eee60d883620026aa565b92915050565b60cb546040805163ca735cc160e01b815290516060926001600160a01b03169163ca735cc19160048083019260009291908290030181865afa15801562001f3f573d6000803e3d6000fd5b505050506040513d6000823e601f3d908101601f1916820160405262001ecc91908101906200397c565b3362001f7462001eb7565b6001600160a01b03161462001f9d5760405162461bcd60e51b8152600401620007a5906200334d565b6001600160a01b03811662001fc65760405162461bcd60e51b8152600401620007a59062003382565b60cd80546001600160a01b0319166001600160a01b0392909216919091179055565b600062001ecc60d8620026b8565b6000620020046001620026c3565b905080156200201d576000805461ff0019166101001790555b6200202762002758565b620020316200278c565b60ca80546001600160a01b038e81166001600160a01b03199283161790925560cc80548d841690831617905560cd80548e841690831617905560ce80548c841690831617905560cf80548b841690831617905560c980548a841690831617905560d0889055865160d35560208088015160d45560408089015160d55560d68054841689861617905560d78054841688861617905560cb80549093169386169390931790915590518781527f20461e09b8e557b77e107939f9ce6544698123aad0fc964ac5cc59b7df2e608f910160405180910390a184516020808701516040808901518151948552928401919091528201527fae6075a1f7b230b994c46ac23890f3aea156bbf1195be708ad574a240164a6559060600160405180910390a1801562002197576000805461ff0019169055604051600181527f7f26b83ff96e1f2b6a682f133852f6798a09c465da95921460cefb38474024989060200160405180910390a15b505050505050505050505050565b33620021b062001eb7565b6001600160a01b031614620021d95760405162461bcd60e51b8152600401620007a5906200334d565b6001600160a01b038116620022315760405162461bcd60e51b815260206004820181905260248201527f43616e206e6f74207472616e7366657220746f207a65726f20616464726573736044820152606401620007a5565b6040516001600160a01b03821690303180156108fc02916000818181858888f1935050505015801562000b7c573d6000803e3d6000fd5b336200227362001eb7565b6001600160a01b0316146200229c5760405162461bcd60e51b8152600401620007a5906200334d565b6001600160a01b038116620023035760405162461bcd60e51b815260206004820152602660248201527f4f776e61626c653a206e6577206f776e657220697320746865207a65726f206160448201526564647265737360d01b6064820152608401620007a5565b62000a5d816200262b565b336200231962001eb7565b6001600160a01b031614620023425760405162461bcd60e51b8152600401620007a5906200334d565b6001600160a01b0381166200236b5760405162461bcd60e51b8152600401620007a59062003382565b60ce80546001600160a01b0319166001600160a01b0392909216919091179055565b336200239862001eb7565b6001600160a01b031614620023c15760405162461bcd60e51b8152600401620007a5906200334d565b620023ce60d882620027b6565b6200241c5760405162461bcd60e51b815260206004820152601760248201527f416c7265616479206e6f742077686974656c69737465640000000000000000006044820152606401620007a5565b604080516001600160a01b0383168152600060208201527fdf3714d6f88cdae2b889250b70116def7fb5083073c65cce38b56d2b0b0ef64e910162000d73565b600062001eee60d883620027cd565b6001600160a01b03163b151590565b336200248562001eb7565b6001600160a01b03161462000a5d5760405162461bcd60e51b8152600401620007a5906200334d565b7f4910fdfa16fed3260ed0e7147f7cc6da11a60208b5b9406d12a635614ffd91435460ff1615620024e957620024e483620027f0565b505050565b826001600160a01b03166352d1902d6040518163ffffffff1660e01b8152600401602060405180830381865afa92505050801562002546575060408051601f3d908101601f191682019092526200254391810190620034a0565b60015b620025ab5760405162461bcd60e51b815260206004820152602e60248201527f45524331393637557067726164653a206e657720696d706c656d656e7461746960448201526d6f6e206973206e6f74205555505360901b6064820152608401620007a5565b600080516020620044b383398151915281146200261d5760405162461bcd60e51b815260206004820152602960248201527f45524331393637557067726164653a20756e737570706f727465642070726f786044820152681a58589b195555525160ba1b6064820152608401620007a5565b50620024e48383836200288f565b603380546001600160a01b038381166001600160a01b0319831681179093556040519116919082907f8be0079c531659141344cd1fd0a4f28419497f9722a3daafe3b4186f6b6457e090600090a35050565b600062002694836001600160a01b038416620028c0565b9392505050565b60606000620026948362002912565b600062002694838362002970565b600062001eee825490565b60008054610100900460ff16156200270f578160ff166001148015620026e85750303b155b620027075760405162461bcd60e51b8152600401620007a59062003a20565b506000919050565b60005460ff808416911610620027395760405162461bcd60e51b8152600401620007a59062003a20565b506000805460ff191660ff92909216919091179055600190565b919050565b600054610100900460ff16620027825760405162461bcd60e51b8152600401620007a59062003a6e565b62001df06200299d565b600054610100900460ff1662001df05760405162461bcd60e51b8152600401620007a59062003a6e565b600062002694836001600160a01b038416620029d2565b6001600160a01b0381166000908152600183016020526040812054151562002694565b6001600160a01b0381163b6200285f5760405162461bcd60e51b815260206004820152602d60248201527f455243313936373a206e657720696d706c656d656e746174696f6e206973206e60448201526c1bdd08184818dbdb9d1c9858dd609a1b6064820152608401620007a5565b600080516020620044b383398151915280546001600160a01b0319166001600160a01b0392909216919091179055565b6200289a8362002ad6565b600082511180620028a85750805b15620024e457620028ba838362002b18565b50505050565b6000818152600183016020526040812054620029095750815460018181018455600084815260208082209093018490558454848252828601909352604090209190915562001eee565b50600062001eee565b6060816000018054806020026020016040519081016040528092919081815260200182805480156200296457602002820191906000526020600020905b8154815260200190600101908083116200294f575b50505050509050919050565b60008260000182815481106200298a576200298a620035fd565b9060005260206000200154905092915050565b600054610100900460ff16620029c75760405162461bcd60e51b8152600401620007a59062003a6e565b62001df0336200262b565b6000818152600183016020526040812054801562002acb576000620029f960018362003ab9565b855490915060009062002a0f9060019062003ab9565b905081811462002a7b57600086600001828154811062002a335762002a33620035fd565b906000526020600020015490508087600001848154811062002a595762002a59620035fd565b6000918252602080832090910192909255918252600188019052604090208390555b855486908062002a8f5762002a8f62003adf565b60019003818190600052602060002001600090559055856001016000868152602001908152602001600020600090556001935050505062001eee565b600091505062001eee565b62002ae181620027f0565b6040516001600160a01b038216907fbc7cd75a20ee27fd9adebab32041f755214dbc6bffa90cc0225b39da2e5c2d3b90600090a250565b60606001600160a01b0383163b62002b825760405162461bcd60e51b815260206004820152602660248201527f416464726573733a2064656c65676174652063616c6c20746f206e6f6e2d636f6044820152651b9d1c9858dd60d21b6064820152608401620007a5565b600080846001600160a01b03168460405162002b9f919062003af5565b600060405180830381855af49150503d806000811462002bdc576040519150601f19603f3d011682016040523d82523d6000602084013e62002be1565b606091505b509150915062002c0c8282604051806060016040528060278152602001620044d36027913962002c15565b95945050505050565b6060831562002c2657508162002694565b82511562002c375782518084602001fd5b8160405162461bcd60e51b8152600401620007a5919062003b13565b61098a8062003b2983390190565b6001600160a01b038116811462000a5d57600080fd5b8035620027538162002c61565b60006020828403121562002c9757600080fd5b8135620026948162002c61565b60008060006060848603121562002cba57600080fd5b505081359360208301359350604090920135919050565b60006020828403121562002ce457600080fd5b5035919050565b634e487b7160e01b600052604160045260246000fd5b60405161018081016001600160401b038111828210171562002d275762002d2762002ceb565b60405290565b604051606081016001600160401b038111828210171562002d275762002d2762002ceb565b60405160a081016001600160401b038111828210171562002d275762002d2762002ceb565b604051601f8201601f191681016001600160401b038111828210171562002da25762002da262002ceb565b604052919050565b60006001600160401b0382111562002dc65762002dc662002ceb565b50601f01601f191660200190565b600062002deb62002de58462002daa565b62002d77565b905082815283838301111562002e0057600080fd5b828260208301376000602084830101529392505050565b6000806040838503121562002e2b57600080fd5b823562002e388162002c61565b915060208301356001600160401b0381111562002e5457600080fd5b8301601f8101851362002e6657600080fd5b62002e778582356020840162002dd4565b9150509250929050565b600082601f83011262002e9357600080fd5b620026948383356020850162002dd4565b60006060828403121562002eb757600080fd5b604051606081016001600160401b03828210818311171562002edd5762002edd62002ceb565b81604052829350843591508082111562002ef657600080fd5b62002f048683870162002e81565b8352602085013591508082111562002f1b57600080fd5b5062002f2a8582860162002e81565b602083015250604083013560408201525092915050565b60006001600160401b0382111562002f5d5762002f5d62002ceb565b5060051b60200190565b600082601f83011262002f7957600080fd5b8135602062002f8c62002de58362002f41565b82815260059290921b8401810191818101908684111562002fac57600080fd5b8286015b8481101562002fd457803562002fc68162002c61565b835291830191830162002fb0565b509695505050505050565b6000610180828403121562002ff357600080fd5b62002ffd62002d01565b905081356001600160401b03808211156200301757600080fd5b620030258583860162002e81565b83526020840135602084015260408401356040840152606084013560608401526080840135608084015260a084013560a084015260c084013560c084015260e084013560e08401526101009150818401358284015261012091508184013582840152610140915081840135818111156200309e57600080fd5b620030ac8682870162002f67565b83850152505050610160620030c381840162002c77565b9082015292915050565b600080600080600080600080610100898b031215620030eb57600080fd5b620030f68962002c77565b975060208901356001600160401b03808211156200311357600080fd5b620031218c838d0162002ea4565b985060408b01359150808211156200313857600080fd5b620031468c838d0162002fdf565b975060608b0135965060808b0135955060a08b0135945060c08b0135935060e08b01359150808211156200317957600080fd5b50620031888b828c0162002e81565b9150509295985092959890939650565b600060208284031215620031ab57600080fd5b81356001600160401b03811115620031c257600080fd5b620031d08482850162002fdf565b949350505050565b6020808252825182820181905260009190848201906040850190845b818110156200321b5783516001600160a01b031683529284019291840191600101620031f4565b50909695505050505050565b60008060008060008060008060008060006101a08c8e0312156200324a57600080fd5b8b35620032578162002c61565b9a5060208c0135620032698162002c61565b995060408c01356200327b8162002c61565b985060608c01356200328d8162002c61565b975060808c01356200329f8162002c61565b965060a08c0135620032b18162002c61565b955060c08c0135945060ff8c018d13620032ca57600080fd5b620032d462002d2d565b806101408e018f811115620032e857600080fd5b60e08f015b8181101562003307578035845260209384019301620032ed565b50819650620033168162002c77565b95505050506200332a6101608d0162002c77565b91506200333b6101808d0162002c77565b90509295989b509295989b9093969950565b6020808252818101527f4f776e61626c653a2063616c6c6572206973206e6f7420746865206f776e6572604082015260600190565b6020808252600f908201526e496e76616c6964206164647265737360881b604082015260600190565b6020808252602c908201527f46756e6374696f6e206d7573742062652063616c6c6564207468726f7567682060408201526b19195b1959d85d1958d85b1b60a21b606082015260800190565b6020808252602c908201527f46756e6374696f6e206d7573742062652063616c6c6564207468726f7567682060408201526b6163746976652070726f787960a01b606082015260800190565b634e487b7160e01b600052602160045260246000fd5b6000602082840312156200346c57600080fd5b8151600481106200269457600080fd5b6020808252600a9082015269139bdd0818481c1bdbdb60b21b604082015260600190565b600060208284031215620034b357600080fd5b5051919050565b60005b83811015620034d7578181015183820152602001620034bd565b83811115620028ba5750506000910152565b600082601f830112620034fb57600080fd5b81516200350c62002de58262002daa565b8181528460208386010111156200352257600080fd5b620031d0826020830160208701620034ba565b600060208083850312156200354957600080fd5b82516001600160401b03808211156200356157600080fd5b818501915085601f8301126200357657600080fd5b6200358062002d52565b8060a08401888111156200359357600080fd5b845b81811015620035cc57805185811115620035af5760008081fd5b620035bd8b828901620034e9565b85525092860192860162003595565b509098975050505050505050565b6001600160a01b0391909116815260406020820181905260009082015260600190565b634e487b7160e01b600052603260045260246000fd5b600081518084526200362d816020860160208601620034ba565b601f01601f19169290920160200192915050565b6001600160a01b038c168152602081018b9052610160604082018190526000906200366f8382018d62003613565b9050828103606084015262003685818c62003613565b905082810360808401526200369b818b62003613565b905082810360a0840152620036b1818a62003613565b905082810360c0840152620036c7818962003613565b90508660e08401528561010084015284610120840152828103610140840152620036f2818562003613565b9e9d5050505050505050505050505050565b6001600160a01b038316815260408101600483106200373357634e487b7160e01b600052602160045260246000fd5b8260208301529392505050565b6000602082840312156200375357600080fd5b8151620026948162002c61565b6000602082840312156200377357600080fd5b815180151581146200269457600080fd5b60018060a01b0383168152604060208201526000825160606040840152620037b060a084018262003613565b90506020840151603f19848303016060850152620037cf828262003613565b91505060408401516080840152809150509392505050565b600060208284031215620037fa57600080fd5b81516001600160401b038111156200381157600080fd5b620031d084828501620034e9565b600081518084526020808501945080840160005b838110156200385a5781516001600160a01b03168752958201959082019060010162003833565b509495945050505050565b6001600160a01b038481168252831660208201526060604082018190528251610180918301829052600091620038a06101e085018362003613565b915060208501516080850152604085015160a0850152606085015160c0850152608085015160e085015260a0850151610100818187015260c08701519150610120828188015260e0880151925061014083818901528289015193506101609250838389015281890151858901528089015194505050605f19868503016101a08701526200392e84846200381f565b935080870151925050506200394f6101c08501826001600160a01b03169052565b5095945050505050565b6000602082840312156200396c57600080fd5b8151600381106200269457600080fd5b600060208083850312156200399057600080fd5b82516001600160401b03811115620039a757600080fd5b8301601f81018513620039b957600080fd5b8051620039ca62002de58262002f41565b81815260059190911b82018301908381019087831115620039ea57600080fd5b928401925b8284101562003a1557835162003a058162002c61565b82529284019290840190620039ef565b979650505050505050565b6020808252602e908201527f496e697469616c697a61626c653a20636f6e747261637420697320616c72656160408201526d191e481a5b9a5d1a585b1a5e995960921b606082015260800190565b6020808252602b908201527f496e697469616c697a61626c653a20636f6e7472616374206973206e6f74206960408201526a6e697469616c697a696e6760a81b606082015260800190565b60008282101562003ada57634e487b7160e01b600052601160045260246000fd5b500390565b634e487b7160e01b600052603160045260246000fd5b6000825162003b09818460208701620034ba565b9190910192915050565b6020815260006200269460208301846200361356fe608060405260405161098a38038061098a8339810160408190526100229161048b565b61004d60017fa3f0ad74e5423aebfd80d3ef4346578335a9a72aeaee59ff6cb3582b35133d5161054b565b6000805160206109438339815191521461006957610069610570565b6100758282600061007c565b50506105f0565b61008583610147565b6040516001600160a01b038416907f1cf3b03a6cf19fa2baba4df148e9dcabedea7f8a5c07840e207e5c089be95d3e90600090a26000825111806100c65750805b1561014257610140836001600160a01b0316635c60da1b6040518163ffffffff1660e01b8152600401602060405180830381865afa15801561010c573d6000803e3d6000fd5b505050506040513d601f19601f820116820180604052508101906101309190610586565b836102d860201b6100291760201c565b505b505050565b61015a8161030460201b6100551760201c565b6101b95760405162461bcd60e51b815260206004820152602560248201527f455243313936373a206e657720626561636f6e206973206e6f74206120636f6e6044820152641d1c9858dd60da1b60648201526084015b60405180910390fd5b61022d816001600160a01b0316635c60da1b6040518163ffffffff1660e01b8152600401602060405180830381865afa1580156101fa573d6000803e3d6000fd5b505050506040513d601f19601f8201168201806040525081019061021e9190610586565b61030460201b6100551760201c565b6102925760405162461bcd60e51b815260206004820152603060248201527f455243313936373a20626561636f6e20696d706c656d656e746174696f6e206960448201526f1cc81b9bdd08184818dbdb9d1c9858dd60821b60648201526084016101b0565b806102b760008051602061094383398151915260001b61031360201b6100641760201c565b80546001600160a01b0319166001600160a01b039290921691909117905550565b60606102fd838360405180606001604052806027815260200161096360279139610316565b9392505050565b6001600160a01b03163b151590565b90565b60606001600160a01b0384163b61037e5760405162461bcd60e51b815260206004820152602660248201527f416464726573733a2064656c65676174652063616c6c20746f206e6f6e2d636f6044820152651b9d1c9858dd60d21b60648201526084016101b0565b600080856001600160a01b03168560405161039991906105a1565b600060405180830381855af49150503d80600081146103d4576040519150601f19603f3d011682016040523d82523d6000602084013e6103d9565b606091505b5090925090506103ea8282866103f4565b9695505050505050565b606083156104035750816102fd565b8251156104135782518084602001fd5b8160405162461bcd60e51b81526004016101b091906105bd565b80516001600160a01b038116811461044457600080fd5b919050565b634e487b7160e01b600052604160045260246000fd5b60005b8381101561047a578181015183820152602001610462565b838111156101405750506000910152565b6000806040838503121561049e57600080fd5b6104a78361042d565b60208401519092506001600160401b03808211156104c457600080fd5b818501915085601f8301126104d857600080fd5b8151818111156104ea576104ea610449565b604051601f8201601f19908116603f0116810190838211818310171561051257610512610449565b8160405282815288602084870101111561052b57600080fd5b61053c83602083016020880161045f565b80955050505050509250929050565b60008282101561056b57634e487b7160e01b600052601160045260246000fd5b500390565b634e487b7160e01b600052600160045260246000fd5b60006020828403121561059857600080fd5b6102fd8261042d565b600082516105b381846020870161045f565b9190910192915050565b60208152600082518060208401526105dc81604085016020870161045f565b601f01601f19169190910160400192915050565b610344806105ff6000396000f3fe60806040523661001357610011610017565b005b6100115b610027610022610067565b610100565b565b606061004e83836040518060600160405280602781526020016102e860279139610124565b9392505050565b6001600160a01b03163b151590565b90565b600061009a7fa3f0ad74e5423aebfd80d3ef4346578335a9a72aeaee59ff6cb3582b35133d50546001600160a01b031690565b6001600160a01b0316635c60da1b6040518163ffffffff1660e01b8152600401602060405180830381865afa1580156100d7573d6000803e3d6000fd5b505050506040513d601f19601f820116820180604052508101906100fb919061023f565b905090565b3660008037600080366000845af43d6000803e80801561011f573d6000f35b3d6000fd5b60606001600160a01b0384163b6101915760405162461bcd60e51b815260206004820152602660248201527f416464726573733a2064656c65676174652063616c6c20746f206e6f6e2d636f6044820152651b9d1c9858dd60d21b60648201526084015b60405180910390fd5b600080856001600160a01b0316856040516101ac9190610298565b600060405180830381855af49150503d80600081146101e7576040519150601f19603f3d011682016040523d82523d6000602084013e6101ec565b606091505b50915091506101fc828286610206565b9695505050505050565b6060831561021557508161004e565b8251156102255782518084602001fd5b8160405162461bcd60e51b815260040161018891906102b4565b60006020828403121561025157600080fd5b81516001600160a01b038116811461004e57600080fd5b60005b8381101561028357818101518382015260200161026b565b83811115610292576000848401525b50505050565b600082516102aa818460208701610268565b9190910192915050565b60208152600082518060208401526102d3816040850160208701610268565b601f01601f1916919091016040019291505056fe416464726573733a206c6f772d6c6576656c2064656c65676174652063616c6c206661696c6564a26469706673582212202af598a06f5c1d44b2a1949e6589ce4824b460dd99fcafab4c1f7995e392e7b664736f6c634300080d0033a3f0ad74e5423aebfd80d3ef4346578335a9a72aeaee59ff6cb3582b35133d50416464726573733a206c6f772d6c6576656c2064656c65676174652063616c6c206661696c6564360894a13ba1a3210667c828492db98dca3e2076cc3735a920a3ca505d382bbc416464726573733a206c6f772d6c6576656c2064656c65676174652063616c6c206661696c6564a26469706673582212204a88be6564a24e678d5537eafec8d62032ed404c2bd3f37ac062856778af303064736f6c634300080d0033496e697469616c697a61626c653a20636f6e747261637420697320616c726561",
  "linkReferences": {},
  "deployedLinkReferences": {}
}