{
  "_format": "hh-sol-artifact-1",
  "contractName": "GovernanceToken",
  "sourceName": "contracts/GovernanceToken.sol",
  "abi": [
    {
      "inputs": [],
      "stateMutability": "nonpayable",
      "type": "constructor"
    },
    {
      "anonymous": false,
      "inputs": [
        {
          "indexed": true,
          "internalType": "address",
          "name": "owner",
          "type": "address"
        },
        {
          "indexed": true,
          "internalType": "address",
          "name": "spender",
          "type": "address"
        },
        {
          "indexed": false,
          "internalType": "uint256",
          "name": "value",
          "type": "uint256"
        }
      ],
      "name": "Approval",
      "type": "event"
    },
    {
      "anonymous": false,
      "inputs": [
        {
          "indexed": true,
          "internalType": "address",
          "name": "delegator",
          "type": "address"
        },
        {
          "indexed": true,
          "internalType": "address",
          "name": "fromDelegate",
          "type": "address"
        },
        {
          "indexed": true,
          "internalType": "address",
          "name": "toDelegate",
          "type": "address"
        }
      ],
      "name": "DelegateChanged",
      "type": "event"
    },
    {
      "anonymous": false,
      "inputs": [
        {
          "indexed": true,
          "internalType": "address",
          "name": "delegate",
          "type": "address"
        },
        {
          "indexed": false,
          "internalType": "uint256",
          "name": "previousBalance",
          "type": "uint256"
        },
        {
          "indexed": false,
          "internalType": "uint256",
          "name": "newBalance",
          "type": "uint256"
        }
      ],
      "name": "DelegateVotesChanged",
      "type": "event"
    },
    {
      "anonymous": false,
      "inputs": [
        {
          "indexed": false,
          "internalType": "uint8",
          "name": "version",
          "type": "uint8"
        }
      ],
      "name": "Initialized",
      "type": "event"
    },
    {
      "anonymous": false,
      "inputs": [
        {
          "indexed": true,
          "internalType": "address",
          "name": "previousOwner",
          "type": "address"
        },
        {
          "indexed": true,
          "internalType": "address",
          "name": "newOwner",
          "type": "address"
        }
      ],
      "name": "OwnershipTransferred",
      "type": "event"
    },
    {
      "anonymous": false,
      "inputs": [
        {
          "indexed": true,
          "internalType": "address",
          "name": "from",
          "type": "address"
        },
        {
          "indexed": true,
          "internalType": "address",
          "name": "to",
          "type": "address"
        },
        {
          "indexed": false,
          "internalType": "uint256",
          "name": "value",
          "type": "uint256"
        }
      ],
      "name": "Transfer",
      "type": "event"
    },
    {
      "inputs": [],
      "name": "DOMAIN_SEPARATOR",
      "outputs": [
        {
          "internalType": "bytes32",
          "name": "",
          "type": "bytes32"
        }
      ],
      "stateMutability": "view",
      "type": "function"
    },
    {
      "inputs": [
        {
          "internalType": "address",
          "name": "owner",
          "type": "address"
        },
        {
          "internalType": "address",
          "name": "spender",
          "type": "address"
        }
      ],
      "name": "allowance",
      "outputs": [
        {
          "internalType": "uint256",
          "name": "",
          "type": "uint256"
        }
      ],
      "stateMutability": "view",
      "type": "function"
    },
    {
      "inputs": [
        {
          "internalType": "address",
          "name": "spender",
          "type": "address"
        },
        {
          "internalType": "uint256",
          "name": "amount",
          "type": "uint256"
        }
      ],
      "name": "approve",
      "outputs": [
        {
          "internalType": "bool",
          "name": "",
          "type": "bool"
        }
      ],
      "stateMutability": "nonpayable",
      "type": "function"
    },
    {
      "inputs": [
        {
          "internalType": "address",
          "name": "account",
          "type": "address"
        }
      ],
      "name": "balanceOf",
      "outputs": [
        {
          "internalType": "uint256",
          "name": "",
          "type": "uint256"
        }
      ],
      "stateMutability": "view",
      "type": "function"
    },
    {
      "inputs": [
        {
          "internalType": "address",
          "name": "from",
          "type": "address"
        },
        {
          "internalType": "uint256",
          "name": "amount",
          "type": "uint256"
        }
      ],
      "name": "burn",
      "outputs": [],
      "stateMutability": "nonpayable",
      "type": "function"
    },
    {
      "inputs": [],
      "name": "cap",
      "outputs": [
        {
          "internalType": "uint256",
          "name": "",
          "type": "uint256"
        }
      ],
      "stateMutability": "view",
      "type": "function"
    },
    {
      "inputs": [
        {
          "internalType": "address",
          "name": "account",
          "type": "address"
        },
        {
          "internalType": "uint32",
          "name": "pos",
          "type": "uint32"
        }
      ],
      "name": "checkpoints",
      "outputs": [
        {
          "components": [
            {
              "internalType": "uint32",
              "name": "fromBlock",
              "type": "uint32"
            },
            {
              "internalType": "uint224",
              "name": "votes",
              "type": "uint224"
            }
          ],
          "internalType": "struct ERC20VotesUpgradeable.Checkpoint",
          "name": "",
          "type": "tuple"
        }
      ],
      "stateMutability": "view",
      "type": "function"
    },
    {
      "inputs": [],
      "name": "decimals",
      "outputs": [
        {
          "internalType": "uint8",
          "name": "",
          "type": "uint8"
        }
      ],
      "stateMutability": "pure",
      "type": "function"
    },
    {
      "inputs": [
        {
          "internalType": "address",
          "name": "spender",
          "type": "address"
        },
        {
          "internalType": "uint256",
          "name": "subtractedValue",
          "type": "uint256"
        }
      ],
      "name": "decreaseAllowance",
      "outputs": [
        {
          "internalType": "bool",
          "name": "",
          "type": "bool"
        }
      ],
      "stateMutability": "nonpayable",
      "type": "function"
    },
    {
      "inputs": [
        {
          "internalType": "address",
          "name": "delegatee",
          "type": "address"
        }
      ],
      "name": "delegate",
      "outputs": [],
      "stateMutability": "nonpayable",
      "type": "function"
    },
    {
      "inputs": [
        {
          "internalType": "address",
          "name": "delegatee",
          "type": "address"
        },
        {
          "internalType": "uint256",
          "name": "nonce",
          "type": "uint256"
        },
        {
          "internalType": "uint256",
          "name": "expiry",
          "type": "uint256"
        },
        {
          "internalType": "uint8",
          "name": "v",
          "type": "uint8"
        },
        {
          "internalType": "bytes32",
          "name": "r",
          "type": "bytes32"
        },
        {
          "internalType": "bytes32",
          "name": "s",
          "type": "bytes32"
        }
      ],
      "name": "delegateBySig",
      "outputs": [],
      "stateMutability": "nonpayable",
      "type": "function"
    },
    {
      "inputs": [
        {
          "internalType": "address",
          "name": "account",
          "type": "address"
        }
      ],
      "name": "delegates",
      "outputs": [
        {
          "internalType": "address",
          "name": "",
          "type": "address"
        }
      ],
      "stateMutability": "view",
      "type": "function"
    },
    {
      "inputs": [
        {
          "internalType": "address",
          "name": "account",
          "type": "address"
        },
        {
          "internalType": "uint256",
          "name": "proposalId",
          "type": "uint256"
        }
      ],
      "name": "getLockedInPrposal",
      "outputs": [
        {
          "components": [
            {
              "internalType": "uint256",
              "name": "amount",
              "type": "uint256"
            },
            {
              "internalType": "uint256",
              "name": "deadline",
              "type": "uint256"
            },
            {
              "internalType": "uint256",
              "name": "forVotes",
              "type": "uint256"
            },
            {
              "internalType": "uint256",
              "name": "againstVotes",
              "type": "uint256"
            }
          ],
          "internalType": "struct GovernanceToken.LockedBalance",
          "name": "",
          "type": "tuple"
        }
      ],
      "stateMutability": "view",
      "type": "function"
    },
    {
      "inputs": [
        {
          "internalType": "uint256",
          "name": "blockNumber",
          "type": "uint256"
        }
      ],
      "name": "getPastTotalSupply",
      "outputs": [
        {
          "internalType": "uint256",
          "name": "",
          "type": "uint256"
        }
      ],
      "stateMutability": "view",
      "type": "function"
    },
    {
      "inputs": [
        {
          "internalType": "address",
          "name": "account",
          "type": "address"
        },
        {
          "internalType": "uint256",
          "name": "blockNumber",
          "type": "uint256"
        }
      ],
      "name": "getPastVotes",
      "outputs": [
        {
          "internalType": "uint256",
          "name": "",
          "type": "uint256"
        }
      ],
      "stateMutability": "view",
      "type": "function"
    },
    {
      "inputs": [
        {
          "internalType": "address",
          "name": "account",
          "type": "address"
        }
      ],
      "name": "getVotes",
      "outputs": [
        {
          "internalType": "uint256",
          "name": "",
          "type": "uint256"
        }
      ],
      "stateMutability": "view",
      "type": "function"
    },
    {
      "inputs": [
        {
          "internalType": "address",
          "name": "spender",
          "type": "address"
        },
        {
          "internalType": "uint256",
          "name": "addedValue",
          "type": "uint256"
        }
      ],
      "name": "increaseAllowance",
      "outputs": [
        {
          "internalType": "bool",
          "name": "",
          "type": "bool"
        }
      ],
      "stateMutability": "nonpayable",
      "type": "function"
    },
    {
      "inputs": [
        {
          "internalType": "address",
          "name": "pool_",
          "type": "address"
        },
        {
          "components": [
            {
              "internalType": "string",
              "name": "name",
              "type": "string"
            },
            {
              "internalType": "string",
              "name": "symbol",
              "type": "string"
            },
            {
              "internalType": "uint256",
              "name": "cap",
              "type": "uint256"
            }
          ],
          "internalType": "struct IGovernanceToken.TokenInfo",
          "name": "info",
          "type": "tuple"
        }
      ],
      "name": "initialize",
      "outputs": [],
      "stateMutability": "nonpayable",
      "type": "function"
    },
    {
      "inputs": [
        {
          "internalType": "address",
          "name": "account",
          "type": "address"
        },
        {
          "internalType": "uint256",
          "name": "amount",
          "type": "uint256"
        },
        {
          "internalType": "bool",
          "name": "support",
          "type": "bool"
        },
        {
          "internalType": "uint256",
          "name": "deadline",
          "type": "uint256"
        },
        {
          "internalType": "uint256",
          "name": "proposalId",
          "type": "uint256"
        }
      ],
      "name": "lock",
      "outputs": [],
      "stateMutability": "nonpayable",
      "type": "function"
    },
    {
      "inputs": [
        {
          "internalType": "address",
          "name": "account",
          "type": "address"
        },
        {
          "internalType": "uint256",
          "name": "proposalId",
          "type": "uint256"
        }
      ],
      "name": "lockedBalanceOf",
      "outputs": [
        {
          "internalType": "uint256",
          "name": "",
          "type": "uint256"
        }
      ],
      "stateMutability": "view",
      "type": "function"
    },
    {
      "inputs": [
        {
          "internalType": "address",
          "name": "to",
          "type": "address"
        },
        {
          "internalType": "uint256",
          "name": "amount",
          "type": "uint256"
        }
      ],
      "name": "mint",
      "outputs": [],
      "stateMutability": "nonpayable",
      "type": "function"
    },
    {
      "inputs": [],
      "name": "name",
      "outputs": [
        {
          "internalType": "string",
          "name": "",
          "type": "string"
        }
      ],
      "stateMutability": "view",
      "type": "function"
    },
    {
      "inputs": [
        {
          "internalType": "address",
          "name": "owner",
          "type": "address"
        }
      ],
      "name": "nonces",
      "outputs": [
        {
          "internalType": "uint256",
          "name": "",
          "type": "uint256"
        }
      ],
      "stateMutability": "view",
      "type": "function"
    },
    {
      "inputs": [
        {
          "internalType": "address",
          "name": "account",
          "type": "address"
        }
      ],
      "name": "numCheckpoints",
      "outputs": [
        {
          "internalType": "uint32",
          "name": "",
          "type": "uint32"
        }
      ],
      "stateMutability": "view",
      "type": "function"
    },
    {
      "inputs": [],
      "name": "owner",
      "outputs": [
        {
          "internalType": "address",
          "name": "",
          "type": "address"
        }
      ],
      "stateMutability": "view",
      "type": "function"
    },
    {
      "inputs": [
        {
          "internalType": "address",
          "name": "owner",
          "type": "address"
        },
        {
          "internalType": "address",
          "name": "spender",
          "type": "address"
        },
        {
          "internalType": "uint256",
          "name": "value",
          "type": "uint256"
        },
        {
          "internalType": "uint256",
          "name": "deadline",
          "type": "uint256"
        },
        {
          "internalType": "uint8",
          "name": "v",
          "type": "uint8"
        },
        {
          "internalType": "bytes32",
          "name": "r",
          "type": "bytes32"
        },
        {
          "internalType": "bytes32",
          "name": "s",
          "type": "bytes32"
        }
      ],
      "name": "permit",
      "outputs": [],
      "stateMutability": "nonpayable",
      "type": "function"
    },
    {
      "inputs": [],
      "name": "pool",
      "outputs": [
        {
          "internalType": "address",
          "name": "",
          "type": "address"
        }
      ],
      "stateMutability": "view",
      "type": "function"
    },
    {
      "inputs": [],
      "name": "renounceOwnership",
      "outputs": [],
      "stateMutability": "nonpayable",
      "type": "function"
    },
    {
      "inputs": [],
      "name": "service",
      "outputs": [
        {
          "internalType": "contract IService",
          "name": "",
          "type": "address"
        }
      ],
      "stateMutability": "view",
      "type": "function"
    },
    {
      "inputs": [],
      "name": "symbol",
      "outputs": [
        {
          "internalType": "string",
          "name": "",
          "type": "string"
        }
      ],
      "stateMutability": "view",
      "type": "function"
    },
    {
      "inputs": [],
      "name": "totalSupply",
      "outputs": [
        {
          "internalType": "uint256",
          "name": "",
          "type": "uint256"
        }
      ],
      "stateMutability": "view",
      "type": "function"
    },
    {
      "inputs": [
        {
          "internalType": "address",
          "name": "to",
          "type": "address"
        },
        {
          "internalType": "uint256",
          "name": "amount",
          "type": "uint256"
        }
      ],
      "name": "transfer",
      "outputs": [
        {
          "internalType": "bool",
          "name": "",
          "type": "bool"
        }
      ],
      "stateMutability": "nonpayable",
      "type": "function"
    },
    {
      "inputs": [
        {
          "internalType": "address",
          "name": "from",
          "type": "address"
        },
        {
          "internalType": "address",
          "name": "to",
          "type": "address"
        },
        {
          "internalType": "uint256",
          "name": "amount",
          "type": "uint256"
        }
      ],
      "name": "transferFrom",
      "outputs": [
        {
          "internalType": "bool",
          "name": "",
          "type": "bool"
        }
      ],
      "stateMutability": "nonpayable",
      "type": "function"
    },
    {
      "inputs": [
        {
          "internalType": "address",
          "name": "newOwner",
          "type": "address"
        }
      ],
      "name": "transferOwnership",
      "outputs": [],
      "stateMutability": "nonpayable",
      "type": "function"
    },
    {
      "inputs": [
        {
          "internalType": "address",
          "name": "account",
          "type": "address"
        },
        {
          "internalType": "uint256",
          "name": "proposalId",
          "type": "uint256"
        }
      ],
      "name": "unlockedBalanceOf",
      "outputs": [
        {
          "internalType": "uint256",
          "name": "",
          "type": "uint256"
        }
      ],
      "stateMutability": "view",
      "type": "function"
    }
  ],
  "bytecode": "0x60806040523480156200001157600080fd5b506200001c62000022565b62000152565b6200002e60ff62000031565b50565b60008054610100900460ff1615620000ca578160ff1660011480156200006a575062000068306200014360201b620013201760201c565b155b620000c25760405162461bcd60e51b815260206004820152602e602482015260008051602062002e8283398151915260448201526d191e481a5b9a5d1a585b1a5e995960921b60648201526084015b60405180910390fd5b506000919050565b60005460ff808416911610620001295760405162461bcd60e51b815260206004820152602e602482015260008051602062002e8283398151915260448201526d191e481a5b9a5d1a585b1a5e995960921b6064820152608401620000b9565b506000805460ff191660ff92909216919091179055600190565b6001600160a01b03163b151590565b612d2080620001626000396000f3fe608060405234801561001057600080fd5b50600436106102115760003560e01c806370a0823111610125578063a457c2d7116100ad578063d598d4c91161007c578063d598d4c9146104ca578063dd62ed3e146104de578063e7368b62146104f1578063f1127ed814610504578063f2fde38b1461054157600080fd5b8063a457c2d71461047e578063a9059cbb14610491578063c3cda520146104a4578063d505accf146104b757600080fd5b80638e539e8c116100f45780638e539e8c1461042a5780638ef4c8071461043d57806395d89b41146104505780639ab24eb0146104585780639dc29fac1461046b57600080fd5b806370a08231146103d5578063715018a6146103fe5780637ecebe00146104065780638da5cb5b1461041957600080fd5b80633644e515116101a8578063444ee1d211610177578063444ee1d214610315578063468b3b331461035b578063587cde1e1461036e5780635c19a95c1461039a5780636fcfff45146103ad57600080fd5b80633644e515146102d457806339509351146102dc5780633a46b1a8146102ef57806340c10f191461030257600080fd5b806322ae8aef116101e457806322ae8aef1461029557806323b872dd146102aa578063313ce567146102bd578063355274ea146102cc57600080fd5b806306fdde0314610216578063095ea7b31461023457806316f0115b1461025757806318160ddd14610283575b600080fd5b61021e610554565b60405161022b91906126f1565b60405180910390f35b61024761024236600461275b565b6105e6565b604051901515815260200161022b565b6101645461026b906001600160a01b031681565b6040516001600160a01b03909116815260200161022b565b6067545b60405190815260200161022b565b6102a86102a3366004612853565b610600565b005b6102476102b8366004612903565b6106c1565b6040516000815260200161022b565b6102876106e5565b6102876106f6565b6102476102ea36600461275b565b610700565b6102876102fd36600461275b565b610722565b6102a861031036600461275b565b6107a1565b61032861032336600461275b565b6108d2565b60405161022b91908151815260208083015190820152604080830151908201526060918201519181019190915260800190565b61028761036936600461275b565b610958565b61026b61037c366004612944565b6001600160a01b03908116600090815260fe60205260409020541690565b6102a86103a8366004612944565b610987565b6103c06103bb366004612944565b610994565b60405163ffffffff909116815260200161022b565b6102876103e3366004612944565b6001600160a01b031660009081526065602052604090205490565b6102a86109b6565b610287610414366004612944565b610a1c565b6033546001600160a01b031661026b565b610287610438366004612961565b610a3a565b61028761044b36600461275b565b610a97565b61021e610af8565b610287610466366004612944565b610b07565b6102a861047936600461275b565b610b8e565b61024761048c36600461275b565b610cbb565b61024761049f36600461275b565b610d36565b6102a86104b236600461298b565b610d44565b6102a86104c53660046129e5565b610e7a565b6101635461026b906001600160a01b031681565b6102876104ec366004612a53565b610fde565b6102a86104ff366004612a8c565b611009565b610517610512366004612ae3565b6111d4565b60408051825163ffffffff1681526020928301516001600160e01b0316928101929092520161022b565b6102a861054f366004612944565b611258565b60606068805461056390612b1a565b80601f016020809104026020016040519081016040528092919081815260200182805461058f90612b1a565b80156105dc5780601f106105b1576101008083540402835291602001916105dc565b820191906000526020600020905b8154815290600101906020018083116105bf57829003601f168201915b5050505050905090565b6000336105f481858561132f565b60019150505b92915050565b600061060c6001611453565b90508015610624576000805461ff0019166101001790555b610636826000015183602001516114e0565b6106438260400151611511565b61064b611541565b6101638054336001600160a01b03199182161790915561016480549091166001600160a01b03851617905580156106bc576000805461ff0019169055604051600181527f7f26b83ff96e1f2b6a682f133852f6798a09c465da95921460cefb38474024989060200160405180910390a15b505050565b6000336106cf858285611570565b6106da8585856115ea565b506001949350505050565b60006106f16101305490565b905090565b60006106f16116f5565b6000336105f48185856107138383610fde565b61071d9190612b64565b61132f565b60004382106107785760405162461bcd60e51b815260206004820152601f60248201527f4552433230566f7465733a20626c6f636b206e6f7420796574206d696e65640060448201526064015b60405180910390fd5b6001600160a01b038316600090815260ff6020526040902061079a9083611770565b9392505050565b61016354604080516331070bc960e21b815290516003926001600160a01b03169163c41c2f249160048083019260209291908290030181865afa1580156107ec573d6000803e3d6000fd5b505050506040513d601f19601f820116820180604052508101906108109190612b92565b604051630db9619f60e31b81523360048201526001600160a01b039190911690636dcb0cf890602401602060405180830381865afa158015610856573d6000803e3d6000fd5b505050506040513d601f19601f8201168201806040525081019061087a9190612baf565b600381111561088b5761088b612b7c565b146108c45760405162461bcd60e51b81526020600482015260096024820152684e6f7420612054474560b81b604482015260640161076f565b6108ce828261182d565b5050565b6108fd6040518060800160405280600081526020016000815260200160008152602001600081525090565b506001600160a01b038216600090815261016560209081526040808320848452825291829020825160808101845281548152600182015492810192909252600281015492820192909252600390910154606082015292915050565b60006109648383610a97565b6001600160a01b03841660009081526065602052604090205461079a9190612bd0565b6109913382611837565b50565b6001600160a01b038116600090815260ff60205260408120546105fa906118b1565b6033546001600160a01b03163314610a105760405162461bcd60e51b815260206004820181905260248201527f4f776e61626c653a2063616c6c6572206973206e6f7420746865206f776e6572604482015260640161076f565b610a1a600061191a565b565b6001600160a01b038116600090815260cb60205260408120546105fa565b6000438210610a8b5760405162461bcd60e51b815260206004820152601f60248201527f4552433230566f7465733a20626c6f636b206e6f7420796574206d696e656400604482015260640161076f565b6105fa61010083611770565b6001600160a01b0382166000908152610165602090815260408083208484529091528120600101544310610acd575060006105fa565b506001600160a01b0382166000908152610165602090815260408083208484529091529020546105fa565b60606069805461056390612b1a565b6001600160a01b038116600090815260ff60205260408120548015610b7b576001600160a01b038316600090815260ff60205260409020610b49600183612bd0565b81548110610b5957610b59612be7565b60009182526020909120015464010000000090046001600160e01b0316610b7e565b60005b6001600160e01b03169392505050565b61016354604080516331070bc960e21b815290516003926001600160a01b03169163c41c2f249160048083019260209291908290030181865afa158015610bd9573d6000803e3d6000fd5b505050506040513d601f19601f82011682018060405250810190610bfd9190612b92565b604051630db9619f60e31b81523360048201526001600160a01b039190911690636dcb0cf890602401602060405180830381865afa158015610c43573d6000803e3d6000fd5b505050506040513d601f19601f82011682018060405250810190610c679190612baf565b6003811115610c7857610c78612b7c565b14610cb15760405162461bcd60e51b81526020600482015260096024820152684e6f7420612054474560b81b604482015260640161076f565b6108ce828261196c565b60003381610cc98286610fde565b905083811015610d295760405162461bcd60e51b815260206004820152602560248201527f45524332303a2064656372656173656420616c6c6f77616e63652062656c6f77604482015264207a65726f60d81b606482015260840161076f565b6106da828686840361132f565b6000336105f48185856115ea565b83421115610d945760405162461bcd60e51b815260206004820152601d60248201527f4552433230566f7465733a207369676e61747572652065787069726564000000604482015260640161076f565b604080517fe48329057bfd03d55e49b547132e39cffd9c1820ad7b9d4c5307691425d15adf60208201526001600160a01b038816918101919091526060810186905260808101859052600090610e0e90610e069060a00160405160208183030381529060405280519060200120611976565b8585856119c4565b9050610e19816119ec565b8614610e675760405162461bcd60e51b815260206004820152601960248201527f4552433230566f7465733a20696e76616c6964206e6f6e636500000000000000604482015260640161076f565b610e718188611837565b50505050505050565b83421115610eca5760405162461bcd60e51b815260206004820152601d60248201527f45524332305065726d69743a206578706972656420646561646c696e65000000604482015260640161076f565b60007f6e71edae12b1b97f4d1f60370fef10105fa2faae0126114a169c64845d6126c9888888610ef98c6119ec565b6040805160208101969096526001600160a01b0394851690860152929091166060840152608083015260a082015260c0810186905260e0016040516020818303038152906040528051906020012090506000610f5482611976565b90506000610f64828787876119c4565b9050896001600160a01b0316816001600160a01b031614610fc75760405162461bcd60e51b815260206004820152601e60248201527f45524332305065726d69743a20696e76616c6964207369676e61747572650000604482015260640161076f565b610fd28a8a8a61132f565b50505050505050505050565b6001600160a01b03918216600090815260666020908152604080832093909416825291909152205490565b610164546001600160a01b0316331461104f5760405162461bcd60e51b8152602060048201526008602482015267139bdd081c1bdbdb60c21b604482015260640161076f565b82156111105760405180608001604052808561106b8885610a97565b6110759190612b64565b815260208082018590526001600160a01b038816600090815261016582526040808220868352909252819020600201549101906110b3908790612b64565b81526001600160a01b038716600090815261016560209081526040808320868452808352818420600381018054968501969096529387905282528451835590840151600183015583015160029091015560609091015190556111cd565b6040518060800160405280856111268885610a97565b6111309190612b64565b815260208082018590526001600160a01b03881660009081526101658252604080822086835280845281832060028101549286019290925291869052915260030154606090910190611183908790612b64565b90526001600160a01b038616600090815261016560209081526040808320858452825291829020835181559083015160018201559082015160028201556060909101516003909101555b5050505050565b60408051808201909152600080825260208201526001600160a01b038316600090815260ff60205260409020805463ffffffff841690811061121857611218612be7565b60009182526020918290206040805180820190915291015463ffffffff8116825264010000000090046001600160e01b0316918101919091529392505050565b6033546001600160a01b031633146112b25760405162461bcd60e51b815260206004820181905260248201527f4f776e61626c653a2063616c6c6572206973206e6f7420746865206f776e6572604482015260640161076f565b6001600160a01b0381166113175760405162461bcd60e51b815260206004820152602660248201527f4f776e61626c653a206e6577206f776e657220697320746865207a65726f206160448201526564647265737360d01b606482015260840161076f565b6109918161191a565b6001600160a01b03163b151590565b6001600160a01b0383166113915760405162461bcd60e51b8152602060048201526024808201527f45524332303a20617070726f76652066726f6d20746865207a65726f206164646044820152637265737360e01b606482015260840161076f565b6001600160a01b0382166113f25760405162461bcd60e51b815260206004820152602260248201527f45524332303a20617070726f766520746f20746865207a65726f206164647265604482015261737360f01b606482015260840161076f565b6001600160a01b0383811660008181526066602090815260408083209487168084529482529182902085905590518481527f8c5be1e5ebec7d5bd14f71427d1e84f3dd0314c0f7b2291e5b200ac8c7c3b925910160405180910390a3505050565b60008054610100900460ff161561149a578160ff1660011480156114765750303b155b6114925760405162461bcd60e51b815260040161076f90612bfd565b506000919050565b60005460ff8084169116106114c15760405162461bcd60e51b815260040161076f90612bfd565b506000805460ff191660ff92909216919091179055600190565b919050565b600054610100900460ff166115075760405162461bcd60e51b815260040161076f90612c4b565b6108ce8282611a14565b600054610100900460ff166115385760405162461bcd60e51b815260040161076f90612c4b565b61099181611a62565b600054610100900460ff166115685760405162461bcd60e51b815260040161076f90612c4b565b610a1a611ad7565b600061157c8484610fde565b905060001981146115e457818110156115d75760405162461bcd60e51b815260206004820152601d60248201527f45524332303a20696e73756666696369656e7420616c6c6f77616e6365000000604482015260640161076f565b6115e4848484840361132f565b50505050565b6000805b61016460009054906101000a90046001600160a01b03166001600160a01b031663958b138e6040518163ffffffff1660e01b8152600401602060405180830381865afa158015611642573d6000803e3d6000fd5b505050506040513d601f19601f820116820180604052508101906116669190612c96565b81116116995760006116788683610958565b905082811115611686578092505b508061169181612caf565b9150506115ee565b50808211156116ea5760405162461bcd60e51b815260206004820152601b60248201527f4e6f7420656e6f75676820756e6c6f636b65642062616c616e63650000000000604482015260640161076f565b6115e4848484611b07565b60006106f17f8b73c3c69bb8fe3d512ecc4cf759cc79239f7b179b0ffacaa9a75d522b39400f61172460975490565b6098546040805160208101859052908101839052606081018290524660808201523060a082015260009060c0016040516020818303038152906040528051906020012090509392505050565b8154600090815b818110156117d457600061178b8284611cdb565b9050848682815481106117a0576117a0612be7565b60009182526020909120015463ffffffff1611156117c0578092506117ce565b6117cb816001612b64565b91505b50611777565b811561181857846117e6600184612bd0565b815481106117f6576117f6612be7565b60009182526020909120015464010000000090046001600160e01b031661181b565b60005b6001600160e01b031695945050505050565b6108ce8282611cf6565b6001600160a01b03828116600081815260fe6020818152604080842080546065845282862054949093528787166001600160a01b03198416811790915590519190951694919391928592917f3134e8a2e6d97e929a7e54011ea5485d7d196dd5f0ba4d4ef95803e8e3fc257f9190a46115e4828483611d6a565b600063ffffffff8211156119165760405162461bcd60e51b815260206004820152602660248201527f53616665436173743a2076616c756520646f65736e27742066697420696e203360448201526532206269747360d01b606482015260840161076f565b5090565b603380546001600160a01b038381166001600160a01b0319831681179093556040519116919082907f8be0079c531659141344cd1fd0a4f28419497f9722a3daafe3b4186f6b6457e090600090a35050565b6108ce8282611ea7565b60006105fa6119836116f5565b8360405161190160f01b6020820152602281018390526042810182905260009060620160405160208183030381529060405280519060200120905092915050565b60008060006119d587878787611ec0565b915091506119e281611fad565b5095945050505050565b6001600160a01b038116600090815260cb602052604090208054600181018255905b50919050565b600054610100900460ff16611a3b5760405162461bcd60e51b815260040161076f90612c4b565b8151611a4e906068906020850190612661565b5080516106bc906069906020840190612661565b600054610100900460ff16611a895760405162461bcd60e51b815260040161076f90612c4b565b60008111611ad15760405162461bcd60e51b8152602060048201526015602482015274045524332304361707065643a20636170206973203605c1b604482015260640161076f565b61013055565b600054610100900460ff16611afe5760405162461bcd60e51b815260040161076f90612c4b565b610a1a3361191a565b6001600160a01b038316611b6b5760405162461bcd60e51b815260206004820152602560248201527f45524332303a207472616e736665722066726f6d20746865207a65726f206164604482015264647265737360d81b606482015260840161076f565b6001600160a01b038216611bcd5760405162461bcd60e51b815260206004820152602360248201527f45524332303a207472616e7366657220746f20746865207a65726f206164647260448201526265737360e81b606482015260840161076f565b6001600160a01b03831660009081526065602052604090205481811015611c455760405162461bcd60e51b815260206004820152602660248201527f45524332303a207472616e7366657220616d6f756e7420657863656564732062604482015265616c616e636560d01b606482015260840161076f565b6001600160a01b03808516600090815260656020526040808220858503905591851681529081208054849290611c7c908490612b64565b92505081905550826001600160a01b0316846001600160a01b03167fddf252ad1be2c89b69c2b068fc378daa952ba7f163c4a11628f55a4df523b3ef84604051611cc891815260200190565b60405180910390a36115e4848484612163565b6000611cea6002848418612cc8565b61079a90848416612b64565b611cfe6106e5565b81611d0860675490565b611d129190612b64565b1115611d605760405162461bcd60e51b815260206004820152601960248201527f45524332304361707065643a2063617020657863656564656400000000000000604482015260640161076f565b6108ce828261216e565b816001600160a01b0316836001600160a01b031614158015611d8c5750600081115b156106bc576001600160a01b03831615611e1a576001600160a01b038316600090815260ff602052604081208190611dc7906121f985612205565b91509150846001600160a01b03167fdec2bacdd2f05b59de34da9b523dff8be42e5e38e818c82fdb0bae774387a7248383604051611e0f929190918252602082015260400190565b60405180910390a250505b6001600160a01b038216156106bc576001600160a01b038216600090815260ff602052604081208190611e509061237e85612205565b91509150836001600160a01b03167fdec2bacdd2f05b59de34da9b523dff8be42e5e38e818c82fdb0bae774387a7248383604051611e98929190918252602082015260400190565b60405180910390a25050505050565b611eb1828261238a565b6115e46101006121f983612205565b6000807f7fffffffffffffffffffffffffffffff5d576e7357a4501ddfe92f46681b20a0831115611ef75750600090506003611fa4565b8460ff16601b14158015611f0f57508460ff16601c14155b15611f205750600090506004611fa4565b6040805160008082526020820180845289905260ff881692820192909252606081018690526080810185905260019060a0016020604051602081039080840390855afa158015611f74573d6000803e3d6000fd5b5050604051601f1901519150506001600160a01b038116611f9d57600060019250925050611fa4565b9150600090505b94509492505050565b6000816004811115611fc157611fc1612b7c565b03611fc95750565b6001816004811115611fdd57611fdd612b7c565b0361202a5760405162461bcd60e51b815260206004820152601860248201527f45434453413a20696e76616c6964207369676e61747572650000000000000000604482015260640161076f565b600281600481111561203e5761203e612b7c565b0361208b5760405162461bcd60e51b815260206004820152601f60248201527f45434453413a20696e76616c6964207369676e6174757265206c656e67746800604482015260640161076f565b600381600481111561209f5761209f612b7c565b036120f75760405162461bcd60e51b815260206004820152602260248201527f45434453413a20696e76616c6964207369676e6174757265202773272076616c604482015261756560f01b606482015260840161076f565b600481600481111561210b5761210b612b7c565b036109915760405162461bcd60e51b815260206004820152602260248201527f45434453413a20696e76616c6964207369676e6174757265202776272076616c604482015261756560f01b606482015260840161076f565b6106bc8383836124df565b6121788282612511565b6067546001600160e01b0310156121ea5760405162461bcd60e51b815260206004820152603060248201527f4552433230566f7465733a20746f74616c20737570706c79207269736b73206f60448201526f766572666c6f77696e6720766f74657360801b606482015260840161076f565b6115e461010061237e83612205565b600061079a8284612bd0565b825460009081908015612250578561221e600183612bd0565b8154811061222e5761222e612be7565b60009182526020909120015464010000000090046001600160e01b0316612253565b60005b6001600160e01b0316925061226c83858763ffffffff16565b91506000811180156122aa57504386612286600184612bd0565b8154811061229657612296612be7565b60009182526020909120015463ffffffff16145b1561230a576122b8826125f8565b866122c4600184612bd0565b815481106122d4576122d4612be7565b9060005260206000200160000160046101000a8154816001600160e01b0302191690836001600160e01b03160217905550612375565b85604051806040016040528061231f436118b1565b63ffffffff168152602001612333856125f8565b6001600160e01b0390811690915282546001810184556000938452602093849020835194909301519091166401000000000263ffffffff909316929092179101555b50935093915050565b600061079a8284612b64565b6001600160a01b0382166123ea5760405162461bcd60e51b815260206004820152602160248201527f45524332303a206275726e2066726f6d20746865207a65726f206164647265736044820152607360f81b606482015260840161076f565b6001600160a01b0382166000908152606560205260409020548181101561245e5760405162461bcd60e51b815260206004820152602260248201527f45524332303a206275726e20616d6f756e7420657863656564732062616c616e604482015261636560f01b606482015260840161076f565b6001600160a01b038316600090815260656020526040812083830390556067805484929061248d908490612bd0565b90915550506040518281526000906001600160a01b038516907fddf252ad1be2c89b69c2b068fc378daa952ba7f163c4a11628f55a4df523b3ef9060200160405180910390a36106bc83600084612163565b6001600160a01b03838116600090815260fe60205260408082205485841683529120546106bc92918216911683611d6a565b6001600160a01b0382166125675760405162461bcd60e51b815260206004820152601f60248201527f45524332303a206d696e7420746f20746865207a65726f206164647265737300604482015260640161076f565b80606760008282546125799190612b64565b90915550506001600160a01b038216600090815260656020526040812080548392906125a6908490612b64565b90915550506040518181526001600160a01b038316906000907fddf252ad1be2c89b69c2b068fc378daa952ba7f163c4a11628f55a4df523b3ef9060200160405180910390a36108ce60008383612163565b60006001600160e01b038211156119165760405162461bcd60e51b815260206004820152602760248201527f53616665436173743a2076616c756520646f65736e27742066697420696e20326044820152663234206269747360c81b606482015260840161076f565b82805461266d90612b1a565b90600052602060002090601f01602090048101928261268f57600085556126d5565b82601f106126a857805160ff19168380011785556126d5565b828001600101855582156126d5579182015b828111156126d55782518255916020019190600101906126ba565b506119169291505b8082111561191657600081556001016126dd565b600060208083528351808285015260005b8181101561271e57858101830151858201604001528201612702565b81811115612730576000604083870101525b50601f01601f1916929092016040019392505050565b6001600160a01b038116811461099157600080fd5b6000806040838503121561276e57600080fd5b823561277981612746565b946020939093013593505050565b634e487b7160e01b600052604160045260246000fd5b6040516060810167ffffffffffffffff811182821017156127c0576127c0612787565b60405290565b600082601f8301126127d757600080fd5b813567ffffffffffffffff808211156127f2576127f2612787565b604051601f8301601f19908116603f0116810190828211818310171561281a5761281a612787565b8160405283815286602085880101111561283357600080fd5b836020870160208301376000602085830101528094505050505092915050565b6000806040838503121561286657600080fd5b823561287181612746565b9150602083013567ffffffffffffffff8082111561288e57600080fd5b90840190606082870312156128a257600080fd5b6128aa61279d565b8235828111156128b957600080fd5b6128c5888286016127c6565b8252506020830135828111156128da57600080fd5b6128e6888286016127c6565b602083015250604083013560408201528093505050509250929050565b60008060006060848603121561291857600080fd5b833561292381612746565b9250602084013561293381612746565b929592945050506040919091013590565b60006020828403121561295657600080fd5b813561079a81612746565b60006020828403121561297357600080fd5b5035919050565b803560ff811681146114db57600080fd5b60008060008060008060c087890312156129a457600080fd5b86356129af81612746565b955060208701359450604087013593506129cb6060880161297a565b92506080870135915060a087013590509295509295509295565b600080600080600080600060e0888a031215612a0057600080fd5b8735612a0b81612746565b96506020880135612a1b81612746565b95506040880135945060608801359350612a376080890161297a565b925060a0880135915060c0880135905092959891949750929550565b60008060408385031215612a6657600080fd5b8235612a7181612746565b91506020830135612a8181612746565b809150509250929050565b600080600080600060a08688031215612aa457600080fd5b8535612aaf81612746565b94506020860135935060408601358015158114612acb57600080fd5b94979396509394606081013594506080013592915050565b60008060408385031215612af657600080fd5b8235612b0181612746565b9150602083013563ffffffff81168114612a8157600080fd5b600181811c90821680612b2e57607f821691505b602082108103611a0e57634e487b7160e01b600052602260045260246000fd5b634e487b7160e01b600052601160045260246000fd5b60008219821115612b7757612b77612b4e565b500190565b634e487b7160e01b600052602160045260246000fd5b600060208284031215612ba457600080fd5b815161079a81612746565b600060208284031215612bc157600080fd5b81516004811061079a57600080fd5b600082821015612be257612be2612b4e565b500390565b634e487b7160e01b600052603260045260246000fd5b6020808252602e908201527f496e697469616c697a61626c653a20636f6e747261637420697320616c72656160408201526d191e481a5b9a5d1a585b1a5e995960921b606082015260800190565b6020808252602b908201527f496e697469616c697a61626c653a20636f6e7472616374206973206e6f74206960408201526a6e697469616c697a696e6760a81b606082015260800190565b600060208284031215612ca857600080fd5b5051919050565b600060018201612cc157612cc1612b4e565b5060010190565b600082612ce557634e487b7160e01b600052601260045260246000fd5b50049056fea2646970667358221220353c6d8a678797377a4edcab590fc57b5d2de3b9224d2eef4c1022a1dfb8c36564736f6c634300080d0033496e697469616c697a61626c653a20636f6e747261637420697320616c726561",
  "linkReferences": {},
  "deployedLinkReferences": {}
}