{
  "_format": "hh-sol-artifact-1",
  "contractName": "GovernanceToken",
  "sourceName": "contracts/GovernanceToken.sol",
  "abi": [
    {
      "inputs": [],
      "stateMutability": "nonpayable",
      "type": "constructor"
    },
    {
      "anonymous": false,
      "inputs": [
        {
          "indexed": true,
          "internalType": "address",
          "name": "owner",
          "type": "address"
        },
        {
          "indexed": true,
          "internalType": "address",
          "name": "spender",
          "type": "address"
        },
        {
          "indexed": false,
          "internalType": "uint256",
          "name": "value",
          "type": "uint256"
        }
      ],
      "name": "Approval",
      "type": "event"
    },
    {
      "anonymous": false,
      "inputs": [
        {
          "indexed": true,
          "internalType": "address",
          "name": "delegator",
          "type": "address"
        },
        {
          "indexed": true,
          "internalType": "address",
          "name": "fromDelegate",
          "type": "address"
        },
        {
          "indexed": true,
          "internalType": "address",
          "name": "toDelegate",
          "type": "address"
        }
      ],
      "name": "DelegateChanged",
      "type": "event"
    },
    {
      "anonymous": false,
      "inputs": [
        {
          "indexed": true,
          "internalType": "address",
          "name": "delegate",
          "type": "address"
        },
        {
          "indexed": false,
          "internalType": "uint256",
          "name": "previousBalance",
          "type": "uint256"
        },
        {
          "indexed": false,
          "internalType": "uint256",
          "name": "newBalance",
          "type": "uint256"
        }
      ],
      "name": "DelegateVotesChanged",
      "type": "event"
    },
    {
      "anonymous": false,
      "inputs": [
        {
          "indexed": false,
          "internalType": "uint8",
          "name": "version",
          "type": "uint8"
        }
      ],
      "name": "Initialized",
      "type": "event"
    },
    {
      "anonymous": false,
      "inputs": [
        {
          "indexed": true,
          "internalType": "address",
          "name": "previousOwner",
          "type": "address"
        },
        {
          "indexed": true,
          "internalType": "address",
          "name": "newOwner",
          "type": "address"
        }
      ],
      "name": "OwnershipTransferred",
      "type": "event"
    },
    {
      "anonymous": false,
      "inputs": [
        {
          "indexed": true,
          "internalType": "address",
          "name": "from",
          "type": "address"
        },
        {
          "indexed": true,
          "internalType": "address",
          "name": "to",
          "type": "address"
        },
        {
          "indexed": false,
          "internalType": "uint256",
          "name": "value",
          "type": "uint256"
        }
      ],
      "name": "Transfer",
      "type": "event"
    },
    {
      "inputs": [],
      "name": "DOMAIN_SEPARATOR",
      "outputs": [
        {
          "internalType": "bytes32",
          "name": "",
          "type": "bytes32"
        }
      ],
      "stateMutability": "view",
      "type": "function"
    },
    {
      "inputs": [
        {
          "internalType": "address",
          "name": "owner",
          "type": "address"
        },
        {
          "internalType": "address",
          "name": "spender",
          "type": "address"
        }
      ],
      "name": "allowance",
      "outputs": [
        {
          "internalType": "uint256",
          "name": "",
          "type": "uint256"
        }
      ],
      "stateMutability": "view",
      "type": "function"
    },
    {
      "inputs": [
        {
          "internalType": "address",
          "name": "spender",
          "type": "address"
        },
        {
          "internalType": "uint256",
          "name": "amount",
          "type": "uint256"
        }
      ],
      "name": "approve",
      "outputs": [
        {
          "internalType": "bool",
          "name": "",
          "type": "bool"
        }
      ],
      "stateMutability": "nonpayable",
      "type": "function"
    },
    {
      "inputs": [
        {
          "internalType": "address",
          "name": "account",
          "type": "address"
        }
      ],
      "name": "balanceOf",
      "outputs": [
        {
          "internalType": "uint256",
          "name": "",
          "type": "uint256"
        }
      ],
      "stateMutability": "view",
      "type": "function"
    },
    {
      "inputs": [
        {
          "internalType": "address",
          "name": "from",
          "type": "address"
        },
        {
          "internalType": "uint256",
          "name": "amount",
          "type": "uint256"
        }
      ],
      "name": "burn",
      "outputs": [],
      "stateMutability": "nonpayable",
      "type": "function"
    },
    {
      "inputs": [],
      "name": "cap",
      "outputs": [
        {
          "internalType": "uint256",
          "name": "",
          "type": "uint256"
        }
      ],
      "stateMutability": "view",
      "type": "function"
    },
    {
      "inputs": [
        {
          "internalType": "address",
          "name": "account",
          "type": "address"
        },
        {
          "internalType": "uint32",
          "name": "pos",
          "type": "uint32"
        }
      ],
      "name": "checkpoints",
      "outputs": [
        {
          "components": [
            {
              "internalType": "uint32",
              "name": "fromBlock",
              "type": "uint32"
            },
            {
              "internalType": "uint224",
              "name": "votes",
              "type": "uint224"
            }
          ],
          "internalType": "struct ERC20VotesUpgradeable.Checkpoint",
          "name": "",
          "type": "tuple"
        }
      ],
      "stateMutability": "view",
      "type": "function"
    },
    {
      "inputs": [],
      "name": "decimals",
      "outputs": [
        {
          "internalType": "uint8",
          "name": "",
          "type": "uint8"
        }
      ],
      "stateMutability": "pure",
      "type": "function"
    },
    {
      "inputs": [
        {
          "internalType": "address",
          "name": "spender",
          "type": "address"
        },
        {
          "internalType": "uint256",
          "name": "subtractedValue",
          "type": "uint256"
        }
      ],
      "name": "decreaseAllowance",
      "outputs": [
        {
          "internalType": "bool",
          "name": "",
          "type": "bool"
        }
      ],
      "stateMutability": "nonpayable",
      "type": "function"
    },
    {
      "inputs": [
        {
          "internalType": "address",
          "name": "delegatee",
          "type": "address"
        }
      ],
      "name": "delegate",
      "outputs": [],
      "stateMutability": "nonpayable",
      "type": "function"
    },
    {
      "inputs": [
        {
          "internalType": "address",
          "name": "delegatee",
          "type": "address"
        },
        {
          "internalType": "uint256",
          "name": "nonce",
          "type": "uint256"
        },
        {
          "internalType": "uint256",
          "name": "expiry",
          "type": "uint256"
        },
        {
          "internalType": "uint8",
          "name": "v",
          "type": "uint8"
        },
        {
          "internalType": "bytes32",
          "name": "r",
          "type": "bytes32"
        },
        {
          "internalType": "bytes32",
          "name": "s",
          "type": "bytes32"
        }
      ],
      "name": "delegateBySig",
      "outputs": [],
      "stateMutability": "nonpayable",
      "type": "function"
    },
    {
      "inputs": [
        {
          "internalType": "address",
          "name": "account",
          "type": "address"
        }
      ],
      "name": "delegates",
      "outputs": [
        {
          "internalType": "address",
          "name": "",
          "type": "address"
        }
      ],
      "stateMutability": "view",
      "type": "function"
    },
    {
      "inputs": [
        {
          "internalType": "uint256",
          "name": "blockNumber",
          "type": "uint256"
        }
      ],
      "name": "getPastTotalSupply",
      "outputs": [
        {
          "internalType": "uint256",
          "name": "",
          "type": "uint256"
        }
      ],
      "stateMutability": "view",
      "type": "function"
    },
    {
      "inputs": [
        {
          "internalType": "address",
          "name": "account",
          "type": "address"
        },
        {
          "internalType": "uint256",
          "name": "blockNumber",
          "type": "uint256"
        }
      ],
      "name": "getPastVotes",
      "outputs": [
        {
          "internalType": "uint256",
          "name": "",
          "type": "uint256"
        }
      ],
      "stateMutability": "view",
      "type": "function"
    },
    {
      "inputs": [
        {
          "internalType": "address",
          "name": "account",
          "type": "address"
        }
      ],
      "name": "getVotes",
      "outputs": [
        {
          "internalType": "uint256",
          "name": "",
          "type": "uint256"
        }
      ],
      "stateMutability": "view",
      "type": "function"
    },
    {
      "inputs": [
        {
          "internalType": "address",
          "name": "spender",
          "type": "address"
        },
        {
          "internalType": "uint256",
          "name": "addedValue",
          "type": "uint256"
        }
      ],
      "name": "increaseAllowance",
      "outputs": [
        {
          "internalType": "bool",
          "name": "",
          "type": "bool"
        }
      ],
      "stateMutability": "nonpayable",
      "type": "function"
    },
    {
      "inputs": [
        {
          "internalType": "address",
          "name": "pool_",
          "type": "address"
        },
        {
          "components": [
            {
              "internalType": "string",
              "name": "name",
              "type": "string"
            },
            {
              "internalType": "string",
              "name": "symbol",
              "type": "string"
            },
            {
              "internalType": "uint256",
              "name": "cap",
              "type": "uint256"
            }
          ],
          "internalType": "struct IGovernanceToken.TokenInfo",
          "name": "info",
          "type": "tuple"
        }
      ],
      "name": "initialize",
      "outputs": [],
      "stateMutability": "nonpayable",
      "type": "function"
    },
    {
      "inputs": [
        {
          "internalType": "address",
          "name": "account",
          "type": "address"
        },
        {
          "internalType": "uint256",
          "name": "amount",
          "type": "uint256"
        },
        {
          "internalType": "uint256",
          "name": "deadline",
          "type": "uint256"
        },
        {
          "internalType": "uint256",
          "name": "proposalId",
          "type": "uint256"
        }
      ],
      "name": "lock",
      "outputs": [],
      "stateMutability": "nonpayable",
      "type": "function"
    },
    {
      "inputs": [
        {
          "internalType": "address",
          "name": "account",
          "type": "address"
        },
        {
          "internalType": "uint256",
          "name": "proposalId",
          "type": "uint256"
        }
      ],
      "name": "lockedBalanceOf",
      "outputs": [
        {
          "internalType": "uint256",
          "name": "",
          "type": "uint256"
        }
      ],
      "stateMutability": "view",
      "type": "function"
    },
    {
      "inputs": [
        {
          "internalType": "address",
          "name": "to",
          "type": "address"
        },
        {
          "internalType": "uint256",
          "name": "amount",
          "type": "uint256"
        }
      ],
      "name": "mint",
      "outputs": [],
      "stateMutability": "nonpayable",
      "type": "function"
    },
    {
      "inputs": [],
      "name": "name",
      "outputs": [
        {
          "internalType": "string",
          "name": "",
          "type": "string"
        }
      ],
      "stateMutability": "view",
      "type": "function"
    },
    {
      "inputs": [
        {
          "internalType": "address",
          "name": "owner",
          "type": "address"
        }
      ],
      "name": "nonces",
      "outputs": [
        {
          "internalType": "uint256",
          "name": "",
          "type": "uint256"
        }
      ],
      "stateMutability": "view",
      "type": "function"
    },
    {
      "inputs": [
        {
          "internalType": "address",
          "name": "account",
          "type": "address"
        }
      ],
      "name": "numCheckpoints",
      "outputs": [
        {
          "internalType": "uint32",
          "name": "",
          "type": "uint32"
        }
      ],
      "stateMutability": "view",
      "type": "function"
    },
    {
      "inputs": [],
      "name": "owner",
      "outputs": [
        {
          "internalType": "address",
          "name": "",
          "type": "address"
        }
      ],
      "stateMutability": "view",
      "type": "function"
    },
    {
      "inputs": [
        {
          "internalType": "address",
          "name": "owner",
          "type": "address"
        },
        {
          "internalType": "address",
          "name": "spender",
          "type": "address"
        },
        {
          "internalType": "uint256",
          "name": "value",
          "type": "uint256"
        },
        {
          "internalType": "uint256",
          "name": "deadline",
          "type": "uint256"
        },
        {
          "internalType": "uint8",
          "name": "v",
          "type": "uint8"
        },
        {
          "internalType": "bytes32",
          "name": "r",
          "type": "bytes32"
        },
        {
          "internalType": "bytes32",
          "name": "s",
          "type": "bytes32"
        }
      ],
      "name": "permit",
      "outputs": [],
      "stateMutability": "nonpayable",
      "type": "function"
    },
    {
      "inputs": [],
      "name": "pool",
      "outputs": [
        {
          "internalType": "address",
          "name": "",
          "type": "address"
        }
      ],
      "stateMutability": "view",
      "type": "function"
    },
    {
      "inputs": [],
      "name": "renounceOwnership",
      "outputs": [],
      "stateMutability": "nonpayable",
      "type": "function"
    },
    {
      "inputs": [],
      "name": "service",
      "outputs": [
        {
          "internalType": "contract IService",
          "name": "",
          "type": "address"
        }
      ],
      "stateMutability": "view",
      "type": "function"
    },
    {
      "inputs": [],
      "name": "symbol",
      "outputs": [
        {
          "internalType": "string",
          "name": "",
          "type": "string"
        }
      ],
      "stateMutability": "view",
      "type": "function"
    },
    {
      "inputs": [],
      "name": "totalSupply",
      "outputs": [
        {
          "internalType": "uint256",
          "name": "",
          "type": "uint256"
        }
      ],
      "stateMutability": "view",
      "type": "function"
    },
    {
      "inputs": [
        {
          "internalType": "address",
          "name": "to",
          "type": "address"
        },
        {
          "internalType": "uint256",
          "name": "amount",
          "type": "uint256"
        }
      ],
      "name": "transfer",
      "outputs": [
        {
          "internalType": "bool",
          "name": "",
          "type": "bool"
        }
      ],
      "stateMutability": "nonpayable",
      "type": "function"
    },
    {
      "inputs": [
        {
          "internalType": "address",
          "name": "from",
          "type": "address"
        },
        {
          "internalType": "address",
          "name": "to",
          "type": "address"
        },
        {
          "internalType": "uint256",
          "name": "amount",
          "type": "uint256"
        }
      ],
      "name": "transferFrom",
      "outputs": [
        {
          "internalType": "bool",
          "name": "",
          "type": "bool"
        }
      ],
      "stateMutability": "nonpayable",
      "type": "function"
    },
    {
      "inputs": [
        {
          "internalType": "address",
          "name": "newOwner",
          "type": "address"
        }
      ],
      "name": "transferOwnership",
      "outputs": [],
      "stateMutability": "nonpayable",
      "type": "function"
    },
    {
      "inputs": [
        {
          "internalType": "address",
          "name": "account",
          "type": "address"
        },
        {
          "internalType": "uint256",
          "name": "proposalId",
          "type": "uint256"
        }
      ],
      "name": "unlockedBalanceOf",
      "outputs": [
        {
          "internalType": "uint256",
          "name": "",
          "type": "uint256"
        }
      ],
      "stateMutability": "view",
      "type": "function"
    }
  ],
  "bytecode": "0x60806040523480156200001157600080fd5b506200001c62000022565b62000152565b6200002e60ff62000031565b50565b60008054610100900460ff1615620000ca578160ff1660011480156200006a575062000068306200014360201b620011231760201c565b155b620000c25760405162461bcd60e51b815260206004820152602e602482015260008051602062002c6983398151915260448201526d191e481a5b9a5d1a585b1a5e995960921b60648201526084015b60405180910390fd5b506000919050565b60005460ff808416911610620001295760405162461bcd60e51b815260206004820152602e602482015260008051602062002c6983398151915260448201526d191e481a5b9a5d1a585b1a5e995960921b6064820152608401620000b9565b506000805460ff191660ff92909216919091179055600190565b6001600160a01b03163b151590565b612b0780620001626000396000f3fe608060405234801561001057600080fd5b50600436106102065760003560e01c8063715018a61161011a578063a457c2d7116100ad578063d505accf1161007c578063d505accf14610479578063d598d4c91461048c578063dd62ed3e146104a0578063f1127ed8146104b3578063f2fde38b146104f057600080fd5b8063a457c2d71461042d578063a9059cbb14610440578063c3cda52014610453578063c97be1801461046657600080fd5b80638ef4c807116100e95780638ef4c807146103ec57806395d89b41146103ff5780639ab24eb0146104075780639dc29fac1461041a57600080fd5b8063715018a6146103ad5780637ecebe00146103b55780638da5cb5b146103c85780638e539e8c146103d957600080fd5b80633644e5151161019d578063468b3b331161016c578063468b3b331461030a578063587cde1e1461031d5780635c19a95c146103495780636fcfff451461035c57806370a082311461038457600080fd5b80633644e515146102c957806339509351146102d15780633a46b1a8146102e457806340c10f19146102f757600080fd5b806322ae8aef116101d957806322ae8aef1461028a57806323b872dd1461029f578063313ce567146102b2578063355274ea146102c157600080fd5b806306fdde031461020b578063095ea7b31461022957806316f0115b1461024c57806318160ddd14610278575b600080fd5b610213610503565b60405161022091906124f4565b60405180910390f35b61023c61023736600461255e565b610595565b6040519015158152602001610220565b61016454610260906001600160a01b031681565b6040516001600160a01b039091168152602001610220565b6067545b604051908152602001610220565b61029d610298366004612656565b6105af565b005b61023c6102ad366004612706565b610670565b60405160008152602001610220565b61027c610694565b61027c6106a5565b61023c6102df36600461255e565b6106af565b61027c6102f236600461255e565b6106d1565b61029d61030536600461255e565b610750565b61027c61031836600461255e565b610881565b61026061032b366004612747565b6001600160a01b03908116600090815260fe60205260409020541690565b61029d610357366004612747565b6108b0565b61036f61036a366004612747565b6108bd565b60405163ffffffff9091168152602001610220565b61027c610392366004612747565b6001600160a01b031660009081526065602052604090205490565b61029d6108df565b61027c6103c3366004612747565b610945565b6033546001600160a01b0316610260565b61027c6103e7366004612764565b610963565b61027c6103fa36600461255e565b6109c0565b610213610a21565b61027c610415366004612747565b610a30565b61029d61042836600461255e565b610ab7565b61023c61043b36600461255e565b610be4565b61023c61044e36600461255e565b610c5f565b61029d61046136600461278e565b610c6d565b61029d6104743660046127e8565b610da3565b61029d610487366004612823565b610e48565b61016354610260906001600160a01b031681565b61027c6104ae366004612891565b610fac565b6104c66104c13660046128ca565b610fd7565b60408051825163ffffffff1681526020928301516001600160e01b03169281019290925201610220565b61029d6104fe366004612747565b61105b565b60606068805461051290612901565b80601f016020809104026020016040519081016040528092919081815260200182805461053e90612901565b801561058b5780601f106105605761010080835404028352916020019161058b565b820191906000526020600020905b81548152906001019060200180831161056e57829003601f168201915b5050505050905090565b6000336105a3818585611132565b60019150505b92915050565b60006105bb6001611256565b905080156105d3576000805461ff0019166101001790555b6105e5826000015183602001516112e3565b6105f28260400151611314565b6105fa611344565b6101638054336001600160a01b03199182161790915561016480549091166001600160a01b038516179055801561066b576000805461ff0019169055604051600181527f7f26b83ff96e1f2b6a682f133852f6798a09c465da95921460cefb38474024989060200160405180910390a15b505050565b60003361067e858285611373565b6106898585856113ed565b506001949350505050565b60006106a06101305490565b905090565b60006106a06114f8565b6000336105a38185856106c28383610fac565b6106cc919061294b565b611132565b60004382106107275760405162461bcd60e51b815260206004820152601f60248201527f4552433230566f7465733a20626c6f636b206e6f7420796574206d696e65640060448201526064015b60405180910390fd5b6001600160a01b038316600090815260ff602052604090206107499083611573565b9392505050565b61016354604080516331070bc960e21b815290516003926001600160a01b03169163c41c2f249160048083019260209291908290030181865afa15801561079b573d6000803e3d6000fd5b505050506040513d601f19601f820116820180604052508101906107bf9190612979565b604051630db9619f60e31b81523360048201526001600160a01b039190911690636dcb0cf890602401602060405180830381865afa158015610805573d6000803e3d6000fd5b505050506040513d601f19601f820116820180604052508101906108299190612996565b600381111561083a5761083a612963565b146108735760405162461bcd60e51b81526020600482015260096024820152684e6f7420612054474560b81b604482015260640161071e565b61087d8282611630565b5050565b600061088d83836109c0565b6001600160a01b03841660009081526065602052604090205461074991906129b7565b6108ba338261163a565b50565b6001600160a01b038116600090815260ff60205260408120546105a9906116b4565b6033546001600160a01b031633146109395760405162461bcd60e51b815260206004820181905260248201527f4f776e61626c653a2063616c6c6572206973206e6f7420746865206f776e6572604482015260640161071e565b610943600061171d565b565b6001600160a01b038116600090815260cb60205260408120546105a9565b60004382106109b45760405162461bcd60e51b815260206004820152601f60248201527f4552433230566f7465733a20626c6f636b206e6f7420796574206d696e656400604482015260640161071e565b6105a961010083611573565b6001600160a01b03821660009081526101666020908152604080832084845290915281206001015443106109f6575060006105a9565b506001600160a01b0382166000908152610166602090815260408083208484529091529020546105a9565b60606069805461051290612901565b6001600160a01b038116600090815260ff60205260408120548015610aa4576001600160a01b038316600090815260ff60205260409020610a726001836129b7565b81548110610a8257610a826129ce565b60009182526020909120015464010000000090046001600160e01b0316610aa7565b60005b6001600160e01b03169392505050565b61016354604080516331070bc960e21b815290516003926001600160a01b03169163c41c2f249160048083019260209291908290030181865afa158015610b02573d6000803e3d6000fd5b505050506040513d601f19601f82011682018060405250810190610b269190612979565b604051630db9619f60e31b81523360048201526001600160a01b039190911690636dcb0cf890602401602060405180830381865afa158015610b6c573d6000803e3d6000fd5b505050506040513d601f19601f82011682018060405250810190610b909190612996565b6003811115610ba157610ba1612963565b14610bda5760405162461bcd60e51b81526020600482015260096024820152684e6f7420612054474560b81b604482015260640161071e565b61087d828261176f565b60003381610bf28286610fac565b905083811015610c525760405162461bcd60e51b815260206004820152602560248201527f45524332303a2064656372656173656420616c6c6f77616e63652062656c6f77604482015264207a65726f60d81b606482015260840161071e565b6106898286868403611132565b6000336105a38185856113ed565b83421115610cbd5760405162461bcd60e51b815260206004820152601d60248201527f4552433230566f7465733a207369676e61747572652065787069726564000000604482015260640161071e565b604080517fe48329057bfd03d55e49b547132e39cffd9c1820ad7b9d4c5307691425d15adf60208201526001600160a01b038816918101919091526060810186905260808101859052600090610d3790610d2f9060a00160405160208183030381529060405280519060200120611779565b8585856117c7565b9050610d42816117ef565b8614610d905760405162461bcd60e51b815260206004820152601960248201527f4552433230566f7465733a20696e76616c6964206e6f6e636500000000000000604482015260640161071e565b610d9a818861163a565b50505050505050565b610164546001600160a01b03163314610de95760405162461bcd60e51b8152602060048201526008602482015267139bdd081c1bdbdb60c21b604482015260640161071e565b604051806040016040528084610dff87856109c0565b610e09919061294b565b81526020908101939093526001600160a01b03909416600090815261016683526040808220928252918352208351815592015160019092019190915550565b83421115610e985760405162461bcd60e51b815260206004820152601d60248201527f45524332305065726d69743a206578706972656420646561646c696e65000000604482015260640161071e565b60007f6e71edae12b1b97f4d1f60370fef10105fa2faae0126114a169c64845d6126c9888888610ec78c6117ef565b6040805160208101969096526001600160a01b0394851690860152929091166060840152608083015260a082015260c0810186905260e0016040516020818303038152906040528051906020012090506000610f2282611779565b90506000610f32828787876117c7565b9050896001600160a01b0316816001600160a01b031614610f955760405162461bcd60e51b815260206004820152601e60248201527f45524332305065726d69743a20696e76616c6964207369676e61747572650000604482015260640161071e565b610fa08a8a8a611132565b50505050505050505050565b6001600160a01b03918216600090815260666020908152604080832093909416825291909152205490565b60408051808201909152600080825260208201526001600160a01b038316600090815260ff60205260409020805463ffffffff841690811061101b5761101b6129ce565b60009182526020918290206040805180820190915291015463ffffffff8116825264010000000090046001600160e01b0316918101919091529392505050565b6033546001600160a01b031633146110b55760405162461bcd60e51b815260206004820181905260248201527f4f776e61626c653a2063616c6c6572206973206e6f7420746865206f776e6572604482015260640161071e565b6001600160a01b03811661111a5760405162461bcd60e51b815260206004820152602660248201527f4f776e61626c653a206e6577206f776e657220697320746865207a65726f206160448201526564647265737360d01b606482015260840161071e565b6108ba8161171d565b6001600160a01b03163b151590565b6001600160a01b0383166111945760405162461bcd60e51b8152602060048201526024808201527f45524332303a20617070726f76652066726f6d20746865207a65726f206164646044820152637265737360e01b606482015260840161071e565b6001600160a01b0382166111f55760405162461bcd60e51b815260206004820152602260248201527f45524332303a20617070726f766520746f20746865207a65726f206164647265604482015261737360f01b606482015260840161071e565b6001600160a01b0383811660008181526066602090815260408083209487168084529482529182902085905590518481527f8c5be1e5ebec7d5bd14f71427d1e84f3dd0314c0f7b2291e5b200ac8c7c3b925910160405180910390a3505050565b60008054610100900460ff161561129d578160ff1660011480156112795750303b155b6112955760405162461bcd60e51b815260040161071e906129e4565b506000919050565b60005460ff8084169116106112c45760405162461bcd60e51b815260040161071e906129e4565b506000805460ff191660ff92909216919091179055600190565b919050565b600054610100900460ff1661130a5760405162461bcd60e51b815260040161071e90612a32565b61087d8282611817565b600054610100900460ff1661133b5760405162461bcd60e51b815260040161071e90612a32565b6108ba81611865565b600054610100900460ff1661136b5760405162461bcd60e51b815260040161071e90612a32565b6109436118da565b600061137f8484610fac565b905060001981146113e757818110156113da5760405162461bcd60e51b815260206004820152601d60248201527f45524332303a20696e73756666696369656e7420616c6c6f77616e6365000000604482015260640161071e565b6113e78484848403611132565b50505050565b6000805b61016460009054906101000a90046001600160a01b03166001600160a01b031663958b138e6040518163ffffffff1660e01b8152600401602060405180830381865afa158015611445573d6000803e3d6000fd5b505050506040513d601f19601f820116820180604052508101906114699190612a7d565b811161149c57600061147b8683610881565b905082811115611489578092505b508061149481612a96565b9150506113f1565b50808211156114ed5760405162461bcd60e51b815260206004820152601b60248201527f4e6f7420656e6f75676820756e6c6f636b65642062616c616e63650000000000604482015260640161071e565b6113e784848461190a565b60006106a07f8b73c3c69bb8fe3d512ecc4cf759cc79239f7b179b0ffacaa9a75d522b39400f61152760975490565b6098546040805160208101859052908101839052606081018290524660808201523060a082015260009060c0016040516020818303038152906040528051906020012090509392505050565b8154600090815b818110156115d757600061158e8284611ade565b9050848682815481106115a3576115a36129ce565b60009182526020909120015463ffffffff1611156115c3578092506115d1565b6115ce81600161294b565b91505b5061157a565b811561161b57846115e96001846129b7565b815481106115f9576115f96129ce565b60009182526020909120015464010000000090046001600160e01b031661161e565b60005b6001600160e01b031695945050505050565b61087d8282611af9565b6001600160a01b03828116600081815260fe6020818152604080842080546065845282862054949093528787166001600160a01b03198416811790915590519190951694919391928592917f3134e8a2e6d97e929a7e54011ea5485d7d196dd5f0ba4d4ef95803e8e3fc257f9190a46113e7828483611b6d565b600063ffffffff8211156117195760405162461bcd60e51b815260206004820152602660248201527f53616665436173743a2076616c756520646f65736e27742066697420696e203360448201526532206269747360d01b606482015260840161071e565b5090565b603380546001600160a01b038381166001600160a01b0319831681179093556040519116919082907f8be0079c531659141344cd1fd0a4f28419497f9722a3daafe3b4186f6b6457e090600090a35050565b61087d8282611caa565b60006105a96117866114f8565b8360405161190160f01b6020820152602281018390526042810182905260009060620160405160208183030381529060405280519060200120905092915050565b60008060006117d887878787611cc3565b915091506117e581611db0565b5095945050505050565b6001600160a01b038116600090815260cb602052604090208054600181018255905b50919050565b600054610100900460ff1661183e5760405162461bcd60e51b815260040161071e90612a32565b8151611851906068906020850190612464565b50805161066b906069906020840190612464565b600054610100900460ff1661188c5760405162461bcd60e51b815260040161071e90612a32565b600081116118d45760405162461bcd60e51b8152602060048201526015602482015274045524332304361707065643a20636170206973203605c1b604482015260640161071e565b61013055565b600054610100900460ff166119015760405162461bcd60e51b815260040161071e90612a32565b6109433361171d565b6001600160a01b03831661196e5760405162461bcd60e51b815260206004820152602560248201527f45524332303a207472616e736665722066726f6d20746865207a65726f206164604482015264647265737360d81b606482015260840161071e565b6001600160a01b0382166119d05760405162461bcd60e51b815260206004820152602360248201527f45524332303a207472616e7366657220746f20746865207a65726f206164647260448201526265737360e81b606482015260840161071e565b6001600160a01b03831660009081526065602052604090205481811015611a485760405162461bcd60e51b815260206004820152602660248201527f45524332303a207472616e7366657220616d6f756e7420657863656564732062604482015265616c616e636560d01b606482015260840161071e565b6001600160a01b03808516600090815260656020526040808220858503905591851681529081208054849290611a7f90849061294b565b92505081905550826001600160a01b0316846001600160a01b03167fddf252ad1be2c89b69c2b068fc378daa952ba7f163c4a11628f55a4df523b3ef84604051611acb91815260200190565b60405180910390a36113e7848484611f66565b6000611aed6002848418612aaf565b6107499084841661294b565b611b01610694565b81611b0b60675490565b611b15919061294b565b1115611b635760405162461bcd60e51b815260206004820152601960248201527f45524332304361707065643a2063617020657863656564656400000000000000604482015260640161071e565b61087d8282611f71565b816001600160a01b0316836001600160a01b031614158015611b8f5750600081115b1561066b576001600160a01b03831615611c1d576001600160a01b038316600090815260ff602052604081208190611bca90611ffc85612008565b91509150846001600160a01b03167fdec2bacdd2f05b59de34da9b523dff8be42e5e38e818c82fdb0bae774387a7248383604051611c12929190918252602082015260400190565b60405180910390a250505b6001600160a01b0382161561066b576001600160a01b038216600090815260ff602052604081208190611c539061218185612008565b91509150836001600160a01b03167fdec2bacdd2f05b59de34da9b523dff8be42e5e38e818c82fdb0bae774387a7248383604051611c9b929190918252602082015260400190565b60405180910390a25050505050565b611cb4828261218d565b6113e7610100611ffc83612008565b6000807f7fffffffffffffffffffffffffffffff5d576e7357a4501ddfe92f46681b20a0831115611cfa5750600090506003611da7565b8460ff16601b14158015611d1257508460ff16601c14155b15611d235750600090506004611da7565b6040805160008082526020820180845289905260ff881692820192909252606081018690526080810185905260019060a0016020604051602081039080840390855afa158015611d77573d6000803e3d6000fd5b5050604051601f1901519150506001600160a01b038116611da057600060019250925050611da7565b9150600090505b94509492505050565b6000816004811115611dc457611dc4612963565b03611dcc5750565b6001816004811115611de057611de0612963565b03611e2d5760405162461bcd60e51b815260206004820152601860248201527f45434453413a20696e76616c6964207369676e61747572650000000000000000604482015260640161071e565b6002816004811115611e4157611e41612963565b03611e8e5760405162461bcd60e51b815260206004820152601f60248201527f45434453413a20696e76616c6964207369676e6174757265206c656e67746800604482015260640161071e565b6003816004811115611ea257611ea2612963565b03611efa5760405162461bcd60e51b815260206004820152602260248201527f45434453413a20696e76616c6964207369676e6174757265202773272076616c604482015261756560f01b606482015260840161071e565b6004816004811115611f0e57611f0e612963565b036108ba5760405162461bcd60e51b815260206004820152602260248201527f45434453413a20696e76616c6964207369676e6174757265202776272076616c604482015261756560f01b606482015260840161071e565b61066b8383836122e2565b611f7b8282612314565b6067546001600160e01b031015611fed5760405162461bcd60e51b815260206004820152603060248201527f4552433230566f7465733a20746f74616c20737570706c79207269736b73206f60448201526f766572666c6f77696e6720766f74657360801b606482015260840161071e565b6113e761010061218183612008565b600061074982846129b7565b82546000908190801561205357856120216001836129b7565b81548110612031576120316129ce565b60009182526020909120015464010000000090046001600160e01b0316612056565b60005b6001600160e01b0316925061206f83858763ffffffff16565b91506000811180156120ad575043866120896001846129b7565b81548110612099576120996129ce565b60009182526020909120015463ffffffff16145b1561210d576120bb826123fb565b866120c76001846129b7565b815481106120d7576120d76129ce565b9060005260206000200160000160046101000a8154816001600160e01b0302191690836001600160e01b03160217905550612178565b856040518060400160405280612122436116b4565b63ffffffff168152602001612136856123fb565b6001600160e01b0390811690915282546001810184556000938452602093849020835194909301519091166401000000000263ffffffff909316929092179101555b50935093915050565b6000610749828461294b565b6001600160a01b0382166121ed5760405162461bcd60e51b815260206004820152602160248201527f45524332303a206275726e2066726f6d20746865207a65726f206164647265736044820152607360f81b606482015260840161071e565b6001600160a01b038216600090815260656020526040902054818110156122615760405162461bcd60e51b815260206004820152602260248201527f45524332303a206275726e20616d6f756e7420657863656564732062616c616e604482015261636560f01b606482015260840161071e565b6001600160a01b03831660009081526065602052604081208383039055606780548492906122909084906129b7565b90915550506040518281526000906001600160a01b038516907fddf252ad1be2c89b69c2b068fc378daa952ba7f163c4a11628f55a4df523b3ef9060200160405180910390a361066b83600084611f66565b6001600160a01b03838116600090815260fe602052604080822054858416835291205461066b92918216911683611b6d565b6001600160a01b03821661236a5760405162461bcd60e51b815260206004820152601f60248201527f45524332303a206d696e7420746f20746865207a65726f206164647265737300604482015260640161071e565b806067600082825461237c919061294b565b90915550506001600160a01b038216600090815260656020526040812080548392906123a990849061294b565b90915550506040518181526001600160a01b038316906000907fddf252ad1be2c89b69c2b068fc378daa952ba7f163c4a11628f55a4df523b3ef9060200160405180910390a361087d60008383611f66565b60006001600160e01b038211156117195760405162461bcd60e51b815260206004820152602760248201527f53616665436173743a2076616c756520646f65736e27742066697420696e20326044820152663234206269747360c81b606482015260840161071e565b82805461247090612901565b90600052602060002090601f01602090048101928261249257600085556124d8565b82601f106124ab57805160ff19168380011785556124d8565b828001600101855582156124d8579182015b828111156124d85782518255916020019190600101906124bd565b506117199291505b8082111561171957600081556001016124e0565b600060208083528351808285015260005b8181101561252157858101830151858201604001528201612505565b81811115612533576000604083870101525b50601f01601f1916929092016040019392505050565b6001600160a01b03811681146108ba57600080fd5b6000806040838503121561257157600080fd5b823561257c81612549565b946020939093013593505050565b634e487b7160e01b600052604160045260246000fd5b6040516060810167ffffffffffffffff811182821017156125c3576125c361258a565b60405290565b600082601f8301126125da57600080fd5b813567ffffffffffffffff808211156125f5576125f561258a565b604051601f8301601f19908116603f0116810190828211818310171561261d5761261d61258a565b8160405283815286602085880101111561263657600080fd5b836020870160208301376000602085830101528094505050505092915050565b6000806040838503121561266957600080fd5b823561267481612549565b9150602083013567ffffffffffffffff8082111561269157600080fd5b90840190606082870312156126a557600080fd5b6126ad6125a0565b8235828111156126bc57600080fd5b6126c8888286016125c9565b8252506020830135828111156126dd57600080fd5b6126e9888286016125c9565b602083015250604083013560408201528093505050509250929050565b60008060006060848603121561271b57600080fd5b833561272681612549565b9250602084013561273681612549565b929592945050506040919091013590565b60006020828403121561275957600080fd5b813561074981612549565b60006020828403121561277657600080fd5b5035919050565b803560ff811681146112de57600080fd5b60008060008060008060c087890312156127a757600080fd5b86356127b281612549565b955060208701359450604087013593506127ce6060880161277d565b92506080870135915060a087013590509295509295509295565b600080600080608085870312156127fe57600080fd5b843561280981612549565b966020860135965060408601359560600135945092505050565b600080600080600080600060e0888a03121561283e57600080fd5b873561284981612549565b9650602088013561285981612549565b955060408801359450606088013593506128756080890161277d565b925060a0880135915060c0880135905092959891949750929550565b600080604083850312156128a457600080fd5b82356128af81612549565b915060208301356128bf81612549565b809150509250929050565b600080604083850312156128dd57600080fd5b82356128e881612549565b9150602083013563ffffffff811681146128bf57600080fd5b600181811c9082168061291557607f821691505b60208210810361181157634e487b7160e01b600052602260045260246000fd5b634e487b7160e01b600052601160045260246000fd5b6000821982111561295e5761295e612935565b500190565b634e487b7160e01b600052602160045260246000fd5b60006020828403121561298b57600080fd5b815161074981612549565b6000602082840312156129a857600080fd5b81516004811061074957600080fd5b6000828210156129c9576129c9612935565b500390565b634e487b7160e01b600052603260045260246000fd5b6020808252602e908201527f496e697469616c697a61626c653a20636f6e747261637420697320616c72656160408201526d191e481a5b9a5d1a585b1a5e995960921b606082015260800190565b6020808252602b908201527f496e697469616c697a61626c653a20636f6e7472616374206973206e6f74206960408201526a6e697469616c697a696e6760a81b606082015260800190565b600060208284031215612a8f57600080fd5b5051919050565b600060018201612aa857612aa8612935565b5060010190565b600082612acc57634e487b7160e01b600052601260045260246000fd5b50049056fea2646970667358221220698ce25868c8f1fde45746b06d1683178351d5aa9d7d6d0e360108583f662b5f64736f6c634300080d0033496e697469616c697a61626c653a20636f6e747261637420697320616c726561",
  "linkReferences": {},
  "deployedLinkReferences": {}
}