{
  "_format": "hh-sol-artifact-1",
  "contractName": "Pool",
  "sourceName": "contracts/Pool.sol",
  "abi": [
    {
      "inputs": [],
      "stateMutability": "nonpayable",
      "type": "constructor"
    },
    {
      "anonymous": false,
      "inputs": [
        {
          "indexed": false,
          "internalType": "uint8",
          "name": "version",
          "type": "uint8"
        }
      ],
      "name": "Initialized",
      "type": "event"
    },
    {
      "anonymous": false,
      "inputs": [
        {
          "indexed": true,
          "internalType": "address",
          "name": "previousOwner",
          "type": "address"
        },
        {
          "indexed": true,
          "internalType": "address",
          "name": "newOwner",
          "type": "address"
        }
      ],
      "name": "OwnershipTransferred",
      "type": "event"
    },
    {
      "anonymous": false,
      "inputs": [
        {
          "indexed": false,
          "internalType": "uint256",
          "name": "proposalId",
          "type": "uint256"
        },
        {
          "indexed": false,
          "internalType": "uint256",
          "name": "quorum",
          "type": "uint256"
        },
        {
          "indexed": false,
          "internalType": "address",
          "name": "targets",
          "type": "address"
        },
        {
          "indexed": false,
          "internalType": "uint256",
          "name": "values",
          "type": "uint256"
        },
        {
          "indexed": false,
          "internalType": "bytes",
          "name": "calldatas",
          "type": "bytes"
        },
        {
          "indexed": false,
          "internalType": "string",
          "name": "description",
          "type": "string"
        }
      ],
      "name": "ProposalCreated",
      "type": "event"
    },
    {
      "anonymous": false,
      "inputs": [
        {
          "indexed": false,
          "internalType": "uint256",
          "name": "proposalId",
          "type": "uint256"
        }
      ],
      "name": "ProposalExecuted",
      "type": "event"
    },
    {
      "anonymous": false,
      "inputs": [
        {
          "indexed": false,
          "internalType": "address",
          "name": "voter",
          "type": "address"
        },
        {
          "indexed": false,
          "internalType": "uint256",
          "name": "proposalId",
          "type": "uint256"
        },
        {
          "indexed": false,
          "internalType": "uint256",
          "name": "votes",
          "type": "uint256"
        },
        {
          "indexed": false,
          "internalType": "bool",
          "name": "support",
          "type": "bool"
        }
      ],
      "name": "VoteCast",
      "type": "event"
    },
    {
      "inputs": [
        {
          "internalType": "uint256",
          "name": "proposalId",
          "type": "uint256"
        },
        {
          "internalType": "uint256",
          "name": "votes",
          "type": "uint256"
        },
        {
          "internalType": "bool",
          "name": "support",
          "type": "bool"
        }
      ],
      "name": "castVote",
      "outputs": [],
      "stateMutability": "nonpayable",
      "type": "function"
    },
    {
      "inputs": [
        {
          "internalType": "uint256",
          "name": "proposalId",
          "type": "uint256"
        }
      ],
      "name": "executeBallot",
      "outputs": [],
      "stateMutability": "nonpayable",
      "type": "function"
    },
    {
      "inputs": [],
      "name": "getBallotDecisionThreshold",
      "outputs": [
        {
          "internalType": "uint256",
          "name": "",
          "type": "uint256"
        }
      ],
      "stateMutability": "view",
      "type": "function"
    },
    {
      "inputs": [],
      "name": "getBallotLifespan",
      "outputs": [
        {
          "internalType": "uint256",
          "name": "",
          "type": "uint256"
        }
      ],
      "stateMutability": "view",
      "type": "function"
    },
    {
      "inputs": [],
      "name": "getBallotQuorumThreshold",
      "outputs": [
        {
          "internalType": "uint256",
          "name": "",
          "type": "uint256"
        }
      ],
      "stateMutability": "view",
      "type": "function"
    },
    {
      "inputs": [],
      "name": "getPoolDateOfIncorporation",
      "outputs": [
        {
          "internalType": "string",
          "name": "",
          "type": "string"
        }
      ],
      "stateMutability": "view",
      "type": "function"
    },
    {
      "inputs": [],
      "name": "getPoolEIN",
      "outputs": [
        {
          "internalType": "string",
          "name": "",
          "type": "string"
        }
      ],
      "stateMutability": "view",
      "type": "function"
    },
    {
      "inputs": [],
      "name": "getPoolJurisdiction",
      "outputs": [
        {
          "internalType": "uint256",
          "name": "",
          "type": "uint256"
        }
      ],
      "stateMutability": "view",
      "type": "function"
    },
    {
      "inputs": [],
      "name": "getPoolLegalAddress",
      "outputs": [
        {
          "internalType": "string",
          "name": "",
          "type": "string"
        }
      ],
      "stateMutability": "view",
      "type": "function"
    },
    {
      "inputs": [],
      "name": "getPoolRegisteredName",
      "outputs": [
        {
          "internalType": "string",
          "name": "",
          "type": "string"
        }
      ],
      "stateMutability": "view",
      "type": "function"
    },
    {
      "inputs": [],
      "name": "getPoolTaxationStatus",
      "outputs": [
        {
          "internalType": "string",
          "name": "",
          "type": "string"
        }
      ],
      "stateMutability": "view",
      "type": "function"
    },
    {
      "inputs": [],
      "name": "getPoolTrademark",
      "outputs": [
        {
          "internalType": "string",
          "name": "",
          "type": "string"
        }
      ],
      "stateMutability": "view",
      "type": "function"
    },
    {
      "inputs": [
        {
          "internalType": "uint256",
          "name": "proposalId",
          "type": "uint256"
        }
      ],
      "name": "getProposal",
      "outputs": [
        {
          "components": [
            {
              "internalType": "uint256",
              "name": "ballotQuorumThreshold",
              "type": "uint256"
            },
            {
              "internalType": "uint256",
              "name": "ballotDecisionThreshold",
              "type": "uint256"
            },
            {
              "internalType": "address",
              "name": "target",
              "type": "address"
            },
            {
              "internalType": "uint256",
              "name": "value",
              "type": "uint256"
            },
            {
              "internalType": "bytes",
              "name": "callData",
              "type": "bytes"
            },
            {
              "internalType": "uint256",
              "name": "startBlock",
              "type": "uint256"
            },
            {
              "internalType": "uint256",
              "name": "endBlock",
              "type": "uint256"
            },
            {
              "internalType": "uint256",
              "name": "forVotes",
              "type": "uint256"
            },
            {
              "internalType": "uint256",
              "name": "againstVotes",
              "type": "uint256"
            },
            {
              "internalType": "bool",
              "name": "executed",
              "type": "bool"
            },
            {
              "internalType": "bool",
              "name": "accepted",
              "type": "bool"
            },
            {
              "internalType": "enum Governor.ProposalExecutionState",
              "name": "state",
              "type": "uint8"
            },
            {
              "internalType": "string",
              "name": "description",
              "type": "string"
            }
          ],
          "internalType": "struct Governor.Proposal",
          "name": "",
          "type": "tuple"
        }
      ],
      "stateMutability": "view",
      "type": "function"
    },
    {
      "inputs": [
        {
          "internalType": "uint256",
          "name": "proposalId",
          "type": "uint256"
        }
      ],
      "name": "getProposalBallotDecisionThreshold",
      "outputs": [
        {
          "internalType": "uint256",
          "name": "",
          "type": "uint256"
        }
      ],
      "stateMutability": "view",
      "type": "function"
    },
    {
      "inputs": [
        {
          "internalType": "uint256",
          "name": "proposalId",
          "type": "uint256"
        }
      ],
      "name": "getProposalBallotLifespan",
      "outputs": [
        {
          "internalType": "uint256",
          "name": "",
          "type": "uint256"
        }
      ],
      "stateMutability": "view",
      "type": "function"
    },
    {
      "inputs": [
        {
          "internalType": "uint256",
          "name": "proposalId",
          "type": "uint256"
        }
      ],
      "name": "getProposalBallotQuorumThreshold",
      "outputs": [
        {
          "internalType": "uint256",
          "name": "",
          "type": "uint256"
        }
      ],
      "stateMutability": "view",
      "type": "function"
    },
    {
      "inputs": [],
      "name": "getTVL",
      "outputs": [
        {
          "internalType": "uint256",
          "name": "",
          "type": "uint256"
        }
      ],
      "stateMutability": "nonpayable",
      "type": "function"
    },
    {
      "inputs": [
        {
          "internalType": "address",
          "name": "poolCreator_",
          "type": "address"
        },
        {
          "internalType": "uint256",
          "name": "jurisdiction_",
          "type": "uint256"
        },
        {
          "internalType": "string",
          "name": "poolEIN_",
          "type": "string"
        },
        {
          "internalType": "string",
          "name": "dateOfIncorporation",
          "type": "string"
        },
        {
          "internalType": "string",
          "name": "legalAddress",
          "type": "string"
        },
        {
          "internalType": "string",
          "name": "taxationStatus",
          "type": "string"
        },
        {
          "internalType": "string",
          "name": "registeredName",
          "type": "string"
        },
        {
          "internalType": "uint256",
          "name": "ballotQuorumThreshold_",
          "type": "uint256"
        },
        {
          "internalType": "uint256",
          "name": "ballotDecisionThreshold_",
          "type": "uint256"
        },
        {
          "internalType": "uint256",
          "name": "ballotLifespan_",
          "type": "uint256"
        },
        {
          "internalType": "string",
          "name": "trademark",
          "type": "string"
        }
      ],
      "name": "initialize",
      "outputs": [],
      "stateMutability": "nonpayable",
      "type": "function"
    },
    {
      "inputs": [],
      "name": "isDAO",
      "outputs": [
        {
          "internalType": "bool",
          "name": "",
          "type": "bool"
        }
      ],
      "stateMutability": "view",
      "type": "function"
    },
    {
      "inputs": [],
      "name": "lastProposalId",
      "outputs": [
        {
          "internalType": "uint256",
          "name": "",
          "type": "uint256"
        }
      ],
      "stateMutability": "view",
      "type": "function"
    },
    {
      "inputs": [],
      "name": "maxProposalId",
      "outputs": [
        {
          "internalType": "uint256",
          "name": "",
          "type": "uint256"
        }
      ],
      "stateMutability": "view",
      "type": "function"
    },
    {
      "inputs": [],
      "name": "owner",
      "outputs": [
        {
          "internalType": "address",
          "name": "",
          "type": "address"
        }
      ],
      "stateMutability": "view",
      "type": "function"
    },
    {
      "inputs": [],
      "name": "primaryTGE",
      "outputs": [
        {
          "internalType": "address",
          "name": "",
          "type": "address"
        }
      ],
      "stateMutability": "view",
      "type": "function"
    },
    {
      "inputs": [
        {
          "internalType": "uint256",
          "name": "proposalId",
          "type": "uint256"
        }
      ],
      "name": "proposalState",
      "outputs": [
        {
          "internalType": "enum Governor.ProposalState",
          "name": "",
          "type": "uint8"
        }
      ],
      "stateMutability": "view",
      "type": "function"
    },
    {
      "inputs": [
        {
          "internalType": "uint256",
          "name": "",
          "type": "uint256"
        }
      ],
      "name": "proposals",
      "outputs": [
        {
          "internalType": "uint256",
          "name": "ballotQuorumThreshold",
          "type": "uint256"
        },
        {
          "internalType": "uint256",
          "name": "ballotDecisionThreshold",
          "type": "uint256"
        },
        {
          "internalType": "address",
          "name": "target",
          "type": "address"
        },
        {
          "internalType": "uint256",
          "name": "value",
          "type": "uint256"
        },
        {
          "internalType": "bytes",
          "name": "callData",
          "type": "bytes"
        },
        {
          "internalType": "uint256",
          "name": "startBlock",
          "type": "uint256"
        },
        {
          "internalType": "uint256",
          "name": "endBlock",
          "type": "uint256"
        },
        {
          "internalType": "uint256",
          "name": "forVotes",
          "type": "uint256"
        },
        {
          "internalType": "uint256",
          "name": "againstVotes",
          "type": "uint256"
        },
        {
          "internalType": "bool",
          "name": "executed",
          "type": "bool"
        },
        {
          "internalType": "bool",
          "name": "accepted",
          "type": "bool"
        },
        {
          "internalType": "enum Governor.ProposalExecutionState",
          "name": "state",
          "type": "uint8"
        },
        {
          "internalType": "string",
          "name": "description",
          "type": "string"
        }
      ],
      "stateMutability": "view",
      "type": "function"
    },
    {
      "inputs": [
        {
          "internalType": "address",
          "name": "target",
          "type": "address"
        },
        {
          "internalType": "uint256",
          "name": "value",
          "type": "uint256"
        },
        {
          "internalType": "bytes",
          "name": "cd",
          "type": "bytes"
        },
        {
          "internalType": "string",
          "name": "description",
          "type": "string"
        }
      ],
      "name": "proposeSingleAction",
      "outputs": [
        {
          "internalType": "uint256",
          "name": "proposalId",
          "type": "uint256"
        }
      ],
      "stateMutability": "nonpayable",
      "type": "function"
    },
    {
      "inputs": [],
      "name": "renounceOwnership",
      "outputs": [],
      "stateMutability": "nonpayable",
      "type": "function"
    },
    {
      "inputs": [],
      "name": "service",
      "outputs": [
        {
          "internalType": "contract IService",
          "name": "",
          "type": "address"
        }
      ],
      "stateMutability": "view",
      "type": "function"
    },
    {
      "inputs": [
        {
          "internalType": "uint256",
          "name": "ballotQuorumThreshold_",
          "type": "uint256"
        },
        {
          "internalType": "uint256",
          "name": "ballotDecisionThreshold_",
          "type": "uint256"
        },
        {
          "internalType": "uint256",
          "name": "ballotLifespan_",
          "type": "uint256"
        }
      ],
      "name": "setGovernanceSettings",
      "outputs": [],
      "stateMutability": "nonpayable",
      "type": "function"
    },
    {
      "inputs": [
        {
          "internalType": "address",
          "name": "tge_",
          "type": "address"
        }
      ],
      "name": "setPrimaryTGE",
      "outputs": [],
      "stateMutability": "nonpayable",
      "type": "function"
    },
    {
      "inputs": [
        {
          "internalType": "string",
          "name": "registeredName",
          "type": "string"
        }
      ],
      "name": "setRegisteredName",
      "outputs": [],
      "stateMutability": "nonpayable",
      "type": "function"
    },
    {
      "inputs": [
        {
          "internalType": "address",
          "name": "tge_",
          "type": "address"
        }
      ],
      "name": "setTGE",
      "outputs": [],
      "stateMutability": "nonpayable",
      "type": "function"
    },
    {
      "inputs": [
        {
          "internalType": "address",
          "name": "token_",
          "type": "address"
        }
      ],
      "name": "setToken",
      "outputs": [],
      "stateMutability": "nonpayable",
      "type": "function"
    },
    {
      "inputs": [],
      "name": "tge",
      "outputs": [
        {
          "internalType": "contract ITGE",
          "name": "",
          "type": "address"
        }
      ],
      "stateMutability": "view",
      "type": "function"
    },
    {
      "inputs": [],
      "name": "token",
      "outputs": [
        {
          "internalType": "contract IGovernanceToken",
          "name": "",
          "type": "address"
        }
      ],
      "stateMutability": "view",
      "type": "function"
    },
    {
      "inputs": [
        {
          "internalType": "address",
          "name": "newOwner",
          "type": "address"
        }
      ],
      "name": "transferOwnership",
      "outputs": [],
      "stateMutability": "nonpayable",
      "type": "function"
    },
    {
      "stateMutability": "payable",
      "type": "receive"
    }
  ],
  "bytecode": "0x60806040523480156200001157600080fd5b506200001c62000022565b62000152565b6200002e60ff62000031565b50565b60008054610100900460ff1615620000ca578160ff1660011480156200006a575062000068306200014360201b620021411760201c565b155b620000c25760405162461bcd60e51b815260206004820152602e60248201526000805160206200328483398151915260448201526d191e481a5b9a5d1a585b1a5e995960921b60648201526084015b60405180910390fd5b506000919050565b60005460ff808416911610620001295760405162461bcd60e51b815260206004820152602e60248201526000805160206200328483398151915260448201526d191e481a5b9a5d1a585b1a5e995960921b6064820152608401620000b9565b506000805460ff191660ff92909216919091179055600190565b6001600160a01b03163b151590565b61312280620001626000396000f3fe6080604052600436106102135760003560e01c806385c7bb8311610118578063d26331d4116100a0578063e47bfee81161006f578063e47bfee8146105f4578063ea0a0e9e14610619578063f2fde38b1461062e578063f9000ba81461064e578063fc0c546a1461066e57600080fd5b8063d26331d414610572578063d598d4c91461059f578063da960431146105bf578063decba568146105d457600080fd5b806397b3fcaa116100e757806397b3fcaa146104db578063a1db8b4c146104f0578063a7497fa514610505578063acec84dc14610525578063c7f758a81461054557600080fd5b806385c7bb831461047c5780638da5cb5b1461049157806392aa43c0146104a6578063958b138e146104c657600080fd5b80635d0462561161019b578063715018a61161016a578063715018a6146103fc57806374cb30411461041157806378406c491461042757806378809b831461044757806383d09ee11461045c57600080fd5b80635d0462561461036a5780636685a7781461037f57806366c2ec2c146103b75780636e48bb71146103cc57600080fd5b8063144fa6d7116101e2578063144fa6d7146102c6578063168dfb50146102e85780634dd70367146103085780635473fda0146103285780635827e38d1461033d57600080fd5b8063013cf08b1461021f57806309e252c4146102615780630f74fdb01461028f57806313487048146102b157600080fd5b3661021a57005b600080fd5b34801561022b57600080fd5b5061023f61023a366004612759565b61068e565b6040516102589d9c9b9a999897969594939291906127f8565b60405180910390f35b34801561026d57600080fd5b5061028161027c366004612989565b61081b565b604051908152602001610258565b34801561029b57600080fd5b506102a4610903565b6040516102589190612a20565b3480156102bd57600080fd5b506102a4610995565b3480156102d257600080fd5b506102e66102e1366004612a33565b6109a4565b005b3480156102f457600080fd5b506102e6610303366004612a50565b610a50565b34801561031457600080fd5b506102e6610323366004612759565b610b87565b34801561033457600080fd5b506102a4610f23565b34801561034957600080fd5b50610281610358366004612759565b60009081526097602052604090205490565b34801561037657600080fd5b506102a4610f32565b34801561038b57600080fd5b5060a75461039f906001600160a01b031681565b6040516001600160a01b039091168152602001610258565b3480156103c357600080fd5b5060a154610281565b3480156103d857600080fd5b506102816103e7366004612759565b60009081526097602052604090206001015490565b34801561040857600080fd5b506102e6610f41565b34801561041d57600080fd5b5061028160985481565b34801561043357600080fd5b506102e6610442366004612a7c565b610fac565b34801561045357600080fd5b50609d54610281565b34801561046857600080fd5b50610281610477366004612759565b61111c565b34801561048857600080fd5b506102a4611145565b34801561049d57600080fd5b5061039f611154565b3480156104b257600080fd5b506102e66104c1366004612a33565b61116d565b3480156104d257600080fd5b50609854610281565b3480156104e757600080fd5b5061028161120f565b3480156104fc57600080fd5b50609c54610281565b34801561051157600080fd5b50609b5461039f906001600160a01b031681565b34801561053157600080fd5b506102e6610540366004612ab9565b611584565b34801561055157600080fd5b50610565610560366004612759565b6117ee565b6040516102589190612bf2565b34801561057e57600080fd5b5061059261058d366004612759565b6119ed565b6040516102589190612ce0565b3480156105ab57600080fd5b5060995461039f906001600160a01b031681565b3480156105cb57600080fd5b50609e54610281565b3480156105e057600080fd5b506102e66105ef366004612a33565b611ca5565b34801561060057600080fd5b50610609611d57565b6040519015158152602001610258565b34801561062557600080fd5b506102a4611de9565b34801561063a57600080fd5b506102e6610649366004612a33565b611df8565b34801561065a57600080fd5b506102e6610669366004612cfa565b611ec8565b34801561067a57600080fd5b50609a5461039f906001600160a01b031681565b60976020526000908152604090208054600182015460028301546003840154600485018054949593946001600160a01b039093169391926106ce90612d38565b80601f01602080910402602001604051908101604052809291908181526020018280546106fa90612d38565b80156107475780601f1061071c57610100808354040283529160200191610747565b820191906000526020600020905b81548152906001019060200180831161072a57829003601f168201915b50505060058401546006850154600786015460088701546009880154600a8901805498999598949750929550909360ff80831694610100840482169462010000909404909116929061079890612d38565b80601f01602080910402602001604051908101604052809291908181526020018280546107c490612d38565b80156108115780601f106107e657610100808354040283529160200191610811565b820191906000526020600020905b8154815290600101906020018083116107f457829003601f168201915b505050505090508d565b609954604080516304e31dfb60e01b815290516000926001600160a01b0316916304e31dfb9160048083019260209291908290030181865afa158015610865573d6000803e3d6000fd5b505050506040513d601f19601f820116820180604052508101906108899190612d72565b6001600160a01b0316336001600160a01b0316146108e55760405162461bcd60e51b81526020600482015260146024820152734e6f742070726f706f73616c206761746577617960601b60448201526064015b60405180910390fd5b6108fa609e54609c54609d5488888888612150565b95945050505050565b606060a0805461091290612d38565b80601f016020809104026020016040519081016040528092919081815260200182805461093e90612d38565b801561098b5780601f106109605761010080835404028352916020019161098b565b820191906000526020600020905b81548152906001019060200180831161096e57829003601f168201915b5050505050905090565b606060a4805461091290612d38565b6099546001600160a01b031633146109ce5760405162461bcd60e51b81526004016108dc90612d8f565b6001600160a01b038116610a2e5760405162461bcd60e51b815260206004820152602160248201527f43616e206e6f742073657420746f6b656e20746f207a65726f206164647265736044820152607360f81b60648201526084016108dc565b609a80546001600160a01b0319166001600160a01b0392909216919091179055565b333014610a8c5760405162461bcd60e51b815260206004820152600a602482015269139bdd0818481c1bdbdb60b21b60448201526064016108dc565b612710831115610ade5760405162461bcd60e51b815260206004820152601d60248201527f496e76616c69642062616c6c6f7451756f72756d5468726573686f6c6400000060448201526064016108dc565b612710821115610b305760405162461bcd60e51b815260206004820152601f60248201527f496e76616c69642062616c6c6f744465636973696f6e5468726573686f6c640060448201526064016108dc565b60008111610b795760405162461bcd60e51b815260206004820152601660248201527524b73b30b634b2103130b63637ba2634b332b9b830b760511b60448201526064016108dc565b609c92909255609d55609e55565b600081815260976020908152604080832081516101a0810183528154815260018201549381019390935260028101546001600160a01b03169183019190915260038101546060830152600481018054608084019190610be590612d38565b80601f0160208091040260200160405190810160405280929190818152602001828054610c1190612d38565b8015610c5e5780601f10610c3357610100808354040283529160200191610c5e565b820191906000526020600020905b815481529060010190602001808311610c4157829003601f168201915b505050918352505060058201546020820152600682015460408201526007820154606082015260088201546080820152600982015460ff808216151560a084015261010082048116151560c084015260e09092019162010000909104166001811115610ccc57610ccc6127ce565b6001811115610cdd57610cdd6127ce565b8152602001600a82018054610cf190612d38565b80601f0160208091040260200160405190810160405280929190818152602001828054610d1d90612d38565b8015610d6a5780601f10610d3f57610100808354040283529160200191610d6a565b820191906000526020600020905b815481529060010190602001808311610d4d57829003601f168201915b505050505081525050905060036004811115610d8857610d886127ce565b610d91836119ed565b6004811115610da257610da26127ce565b14610def5760405162461bcd60e51b815260206004820152601a60248201527f50726f706f73616c20697320696e2077726f6e6720737461746500000000000060448201526064016108dc565b600082815260976020526040808220600901805461ffff1916610101179055828101516060840151608085015192516001600160a01b03909216929091610e369190612db4565b60006040518083038185875af1925050503d8060008114610e73576040519150601f19603f3d011682016040523d82523d6000602084013e610e78565b606091505b5050905080610ec95760405162461bcd60e51b815260206004820152601760248201527f496e7661696c20657865637574696f6e20726573756c7400000000000000000060448201526064016108dc565b600083815260976020908152604091829020600901805462ff000019166201000017905590518481527f712ae1383f79ac853f8d882153778e0260ef8f03b504e2866e0593e04d2b291f91015b60405180910390a1505050565b606060a6805461091290612d38565b6060609f805461091290612d38565b33610f4a611154565b6001600160a01b031614610fa05760405162461bcd60e51b815260206004820181905260248201527f4f776e61626c653a2063616c6c6572206973206e6f7420746865206f776e657260448201526064016108dc565b610faa600061233c565b565b609960009054906101000a90046001600160a01b03166001600160a01b0316638da5cb5b6040518163ffffffff1660e01b8152600401602060405180830381865afa158015610fff573d6000803e3d6000fd5b505050506040513d601f19601f820116820180604052508101906110239190612d72565b6001600160a01b0316336001600160a01b0316146110775760405162461bcd60e51b81526020600482015260116024820152702737ba1039b2b93b34b1b29037bbb732b960791b60448201526064016108dc565b609f805461108490612d38565b1590506110c15760405162461bcd60e51b815260206004820152600b60248201526a105b1c9958591e481cd95d60aa1b60448201526064016108dc565b80516000036111055760405162461bcd60e51b815260206004820152601060248201526f43616e206e6f7420626520656d70747960801b60448201526064016108dc565b805161111890609f90602084019061263a565b5050565b6000818152609760205260408120600581015460069091015461113f9190612de6565b92915050565b606060a5805461091290612d38565b60006111686033546001600160a01b031690565b905090565b6099546001600160a01b031633146111975760405162461bcd60e51b81526004016108dc90612d8f565b6001600160a01b0381166111ed5760405162461bcd60e51b815260206004820152601f60248201527f43616e206e6f74207365742074676520746f207a65726f20616464726573730060448201526064016108dc565b609b80546001600160a01b0319166001600160a01b0392909216919091179055565b600080609960009054906101000a90046001600160a01b03166001600160a01b0316634db4a3526040518163ffffffff1660e01b8152600401602060405180830381865afa158015611265573d6000803e3d6000fd5b505050506040513d601f19601f820116820180604052508101906112899190612d72565b90506000609960009054906101000a90046001600160a01b03166001600160a01b0316635e1762a06040518163ffffffff1660e01b8152600401602060405180830381865afa1580156112e0573d6000803e3d6000fd5b505050506040513d601f19601f820116820180604052508101906113049190612d72565b90506000816001600160a01b031663ca735cc16040518163ffffffff1660e01b8152600401600060405180830381865afa158015611346573d6000803e3d6000fd5b505050506040513d6000823e601f3d908101601f1916820160405261136e9190810190612dfd565b90506000805b825181101561157b5760006001600160a01b031683828151811061139a5761139a612eaf565b60200260200101516001600160a01b0316036113c1576113ba4783612ec5565b9150611569565b60008382815181106113d5576113d5612eaf565b60209081029190910101516040516370a0823160e01b81523060048201526001600160a01b03909116906370a0823190602401602060405180830381865afa158015611425573d6000803e3d6000fd5b505050506040513d601f19601f820116820180604052508101906114499190612edd565b9050801561156757856001600160a01b031663cdca1753866001600160a01b03166350eb1c4387868151811061148157611481612eaf565b60200260200101516040518263ffffffff1660e01b81526004016114b491906001600160a01b0391909116815260200190565b600060405180830381865afa1580156114d1573d6000803e3d6000fd5b505050506040513d6000823e601f3d908101601f191682016040526114f99190810190612ef6565b836040518363ffffffff1660e01b8152600401611517929190612f64565b6020604051808303816000875af1158015611536573d6000803e3d6000fd5b505050506040513d601f19601f8201168201806040525081019061155a9190612edd565b6115649084612ec5565b92505b505b8061157381612f86565b915050611374565b50949350505050565b6000611590600161238e565b905080156115a8576000805461ff0019166101001790555b6001600160a01b038c166115fe5760405162461bcd60e51b815260206004820152601c60248201527f496e76616c696420706f6f6c2063726561746f7220616464726573730000000060448201526064016108dc565b61160661241b565b609980546001600160a01b031916331790556116218c61233c565b60a18b905589516116399060a29060208d019061263a565b50885161164d9060a49060208c019061263a565b5087516116619060a59060208b019061263a565b5086516116759060a69060208a019061263a565b50855161168990609f90602089019061263a565b50815161169d9060a090602085019061263a565b506127108511156116f05760405162461bcd60e51b815260206004820152601d60248201527f496e76616c69642062616c6c6f7451756f72756d5468726573686f6c6400000060448201526064016108dc565b6127108411156117425760405162461bcd60e51b815260206004820152601f60248201527f496e76616c69642062616c6c6f744465636973696f6e5468726573686f6c640060448201526064016108dc565b6000831161178b5760405162461bcd60e51b815260206004820152601660248201527524b73b30b634b2103130b63637ba2634b332b9b830b760511b60448201526064016108dc565b609c859055609d849055609e83905580156117e0576000805461ff0019169055604051600181527f7f26b83ff96e1f2b6a682f133852f6798a09c465da95921460cefb38474024989060200160405180910390a15b505050505050505050505050565b6117f66126be565b60008281526097602090815260409182902082516101a0810184528154815260018201549281019290925260028101546001600160a01b0316928201929092526003820154606082015260048201805491929160808401919061185890612d38565b80601f016020809104026020016040519081016040528092919081815260200182805461188490612d38565b80156118d15780601f106118a6576101008083540402835291602001916118d1565b820191906000526020600020905b8154815290600101906020018083116118b457829003601f168201915b505050918352505060058201546020820152600682015460408201526007820154606082015260088201546080820152600982015460ff808216151560a084015261010082048116151560c084015260e0909201916201000090910416600181111561193f5761193f6127ce565b6001811115611950576119506127ce565b8152602001600a8201805461196490612d38565b80601f016020809104026020016040519081016040528092919081815260200182805461199090612d38565b80156119dd5780601f106119b2576101008083540402835291602001916119dd565b820191906000526020600020905b8154815290600101906020018083116119c057829003601f168201915b5050505050815250509050919050565b600081815260976020908152604080832081516101a0810183528154815260018201549381019390935260028101546001600160a01b03169183019190915260038101546060830152600481018054849392916080840191611a4e90612d38565b80601f0160208091040260200160405190810160405280929190818152602001828054611a7a90612d38565b8015611ac75780601f10611a9c57610100808354040283529160200191611ac7565b820191906000526020600020905b815481529060010190602001808311611aaa57829003601f168201915b505050918352505060058201546020820152600682015460408201526007820154606082015260088201546080820152600982015460ff808216151560a084015261010082048116151560c084015260e09092019162010000909104166001811115611b3557611b356127ce565b6001811115611b4657611b466127ce565b8152602001600a82018054611b5a90612d38565b80601f0160208091040260200160405190810160405280929190818152602001828054611b8690612d38565b8015611bd35780601f10611ba857610100808354040283529160200191611bd3565b820191906000526020600020905b815481529060010190602001808311611bb657829003601f168201915b505050505081525050905080610120015115611bf25750600492915050565b8060a00151600003611c075750600092915050565b438160c001511115611c1c5750600192915050565b60006127108260000151611c2e61244a565b611c389190612f9f565b611c429190612fbe565b905060008261010001518360e00151611c5b9190612ec5565b9050818110158015611c8a57506020830151611c779082612f9f565b60e0840151611c8890612710612f9f565b115b15611c9a57506003949350505050565b506002949350505050565b6099546001600160a01b03163314611ccf5760405162461bcd60e51b81526004016108dc90612d8f565b6001600160a01b038116611d355760405162461bcd60e51b815260206004820152602760248201527f43616e206e6f7420736574207072696d6172792074676520746f207a65726f206044820152666164647265737360c81b60648201526084016108dc565b60a780546001600160a01b0319166001600160a01b0392909216919091179055565b6000600260a760009054906101000a90046001600160a01b03166001600160a01b031663c19d93fb6040518163ffffffff1660e01b8152600401602060405180830381865afa158015611dae573d6000803e3d6000fd5b505050506040513d601f19601f82011682018060405250810190611dd29190612fe0565b6002811115611de357611de36127ce565b14905090565b606060a2805461091290612d38565b33611e01611154565b6001600160a01b031614611e575760405162461bcd60e51b815260206004820181905260248201527f4f776e61626c653a2063616c6c6572206973206e6f7420746865206f776e657260448201526064016108dc565b6001600160a01b038116611ebc5760405162461bcd60e51b815260206004820152602660248201527f4f776e61626c653a206e6577206f776e657220697320746865207a65726f206160448201526564647265737360d01b60648201526084016108dc565b611ec58161233c565b50565b600260655403611f1a5760405162461bcd60e51b815260206004820152601f60248201527f5265656e7472616e637947756172643a207265656e7472616e742063616c6c0060448201526064016108dc565b600260655560018201611fa157609a5460405163468b3b3360e01b8152336004820152602481018590526001600160a01b039091169063468b3b3390604401602060405180830381865afa158015611f76573d6000803e3d6000fd5b505050506040513d601f19601f82011682018060405250810190611f9a9190612edd565b9150612063565b609a5460405163468b3b3360e01b8152336004820152602481018590526001600160a01b039091169063468b3b3390604401602060405180830381865afa158015611ff0573d6000803e3d6000fd5b505050506040513d601f19601f820116820180604052508101906120149190612edd565b8211156120635760405162461bcd60e51b815260206004820152601b60248201527f4e6f7420656e6f75676820756e6c6f636b65642062616c616e6365000000000060448201526064016108dc565b6000821161209e5760405162461bcd60e51b81526020600482015260086024820152674e6f20766f74657360c01b60448201526064016108dc565b6120a98383836124b8565b609a546000848152609760205260409081902060060154905163739b45b160e11b81523360048201526024810185905283151560448201526064810191909152608481018590526001600160a01b039091169063e7368b629060a401600060405180830381600087803b15801561211f57600080fd5b505af1158015612133573d6000803e3d6000fd5b505060016065555050505050565b6001600160a01b03163b151590565b600060986000815461216190612f86565b9190508190559050604051806101a00160405280888152602001878152602001866001600160a01b0316815260200185815260200184815260200143815260200189436121ae9190612ec5565b815260006020820181905260408201819052606082018190526080820181905260a0909101908152602090810184905260008381526097825260409081902083518155838301516001820155908301516002820180546001600160a01b0319166001600160a01b03909216919091179055606083015160038201556080830151805191926122449260048501929091019061263a565b5060a0820151600582015560c0820151600682015560e0820151600782015561010080830151600883015561012083015160098301805461014086015161ffff1990911692151561ff0019169290921791151590920217808255610160840151919062ff00001916620100008360018111156122c2576122c26127ce565b021790555061018082015180516122e391600a84019160209091019061263a565b509050506122f0816125a9565b7f1f74e074bf97759c68b02f22f824b2f2c7d407b216d5d11cd1486f50316ea7bd81888787878760405161232996959493929190613001565b60405180910390a1979650505050505050565b603380546001600160a01b038381166001600160a01b0319831681179093556040519116919082907f8be0079c531659141344cd1fd0a4f28419497f9722a3daafe3b4186f6b6457e090600090a35050565b60008054610100900460ff16156123d5578160ff1660011480156123b15750303b155b6123cd5760405162461bcd60e51b81526004016108dc90613053565b506000919050565b60005460ff8084169116106123fc5760405162461bcd60e51b81526004016108dc90613053565b506000805460ff191660ff92909216919091179055600190565b919050565b600054610100900460ff166124425760405162461bcd60e51b81526004016108dc906130a1565b610faa61260a565b609a54604080516318160ddd60e01b815290516000926001600160a01b0316916318160ddd9160048083019260209291908290030181865afa158015612494573d6000803e3d6000fd5b505050506040513d601f19601f820116820180604052508101906111689190612edd565b600083815260976020526040902060060154431061250a5760405162461bcd60e51b815260206004820152600f60248201526e159bdd1a5b99c8199a5b9a5cda1959608a1b60448201526064016108dc565b801561253c5760008381526097602052604081206007018054849290612531908490612ec5565b909155506125639050565b6000838152609760205260408120600801805484929061255d908490612ec5565b90915550505b604080513381526020810185905290810183905281151560608201527f2c48deccc79dbba942eeb2f991c4bfa0ac136723ddc0ea1b575dd85373408df890608001610f16565b609954604051630ffb246960e21b8152600481018390526001600160a01b0390911690633fec91a490602401600060405180830381600087803b1580156125ef57600080fd5b505af1158015612603573d6000803e3d6000fd5b5050505050565b600054610100900460ff166126315760405162461bcd60e51b81526004016108dc906130a1565b610faa3361233c565b82805461264690612d38565b90600052602060002090601f01602090048101928261266857600085556126ae565b82601f1061268157805160ff19168380011785556126ae565b828001600101855582156126ae579182015b828111156126ae578251825591602001919060010190612693565b506126ba929150612744565b5090565b604051806101a00160405280600081526020016000815260200160006001600160a01b0316815260200160008152602001606081526020016000815260200160008152602001600081526020016000815260200160001515815260200160001515815260200160006001811115612737576127376127ce565b8152602001606081525090565b5b808211156126ba5760008155600101612745565b60006020828403121561276b57600080fd5b5035919050565b60005b8381101561278d578181015183820152602001612775565b8381111561279c576000848401525b50505050565b600081518084526127ba816020860160208601612772565b601f01601f19169290920160200192915050565b634e487b7160e01b600052602160045260246000fd5b600281106127f4576127f46127ce565b9052565b60006101a08f83528e602084015260018060a01b038e1660408401528c606084015280608084015261282c8184018d6127a2565b90508a60a08401528960c08401528860e08401528761010084015286151561012084015261285f61014084018715159052565b61286d6101608401866127e4565b82810361018084015261288081856127a2565b9150509e9d5050505050505050505050505050565b6001600160a01b0381168114611ec557600080fd5b803561241681612895565b634e487b7160e01b600052604160045260246000fd5b604051601f8201601f1916810167ffffffffffffffff811182821017156128f4576128f46128b5565b604052919050565b600067ffffffffffffffff821115612916576129166128b5565b50601f01601f191660200190565b6000612937612932846128fc565b6128cb565b905082815283838301111561294b57600080fd5b828260208301376000602084830101529392505050565b600082601f83011261297357600080fd5b61298283833560208501612924565b9392505050565b6000806000806080858703121561299f57600080fd5b84356129aa81612895565b935060208501359250604085013567ffffffffffffffff808211156129ce57600080fd5b818701915087601f8301126129e257600080fd5b6129f188833560208501612924565b93506060870135915080821115612a0757600080fd5b50612a1487828801612962565b91505092959194509250565b60208152600061298260208301846127a2565b600060208284031215612a4557600080fd5b813561298281612895565b600080600060608486031215612a6557600080fd5b505081359360208301359350604090920135919050565b600060208284031215612a8e57600080fd5b813567ffffffffffffffff811115612aa557600080fd5b612ab184828501612962565b949350505050565b60008060008060008060008060008060006101608c8e031215612adb57600080fd5b612ae48c6128aa565b9a5060208c0135995067ffffffffffffffff8060408e01351115612b0757600080fd5b612b178e60408f01358f01612962565b99508060608e01351115612b2a57600080fd5b612b3a8e60608f01358f01612962565b98508060808e01351115612b4d57600080fd5b612b5d8e60808f01358f01612962565b97508060a08e01351115612b7057600080fd5b612b808e60a08f01358f01612962565b96508060c08e01351115612b9357600080fd5b612ba38e60c08f01358f01612962565b955060e08d013594506101008d013593506101208d01359250806101408e01351115612bce57600080fd5b50612be08d6101408e01358e01612962565b90509295989b509295989b9093969950565b60208152815160208201526020820151604082015260006040830151612c2360608401826001600160a01b03169052565b506060830151608083015260808301516101a08060a0850152612c4a6101c08501836127a2565b915060a085015160c085015260c085015160e085015260e0850151610100818187015280870151915050610120818187015280870151915050610140612c938187018315159052565b8601519050610160612ca88682018315159052565b8601519050610180612cbc868201836127e4565b860151858403601f1901838701529050612cd683826127a2565b9695505050505050565b6020810160058310612cf457612cf46127ce565b91905290565b600080600060608486031215612d0f57600080fd5b833592506020840135915060408401358015158114612d2d57600080fd5b809150509250925092565b600181811c90821680612d4c57607f821691505b602082108103612d6c57634e487b7160e01b600052602260045260246000fd5b50919050565b600060208284031215612d8457600080fd5b815161298281612895565b6020808252600b908201526a4e6f74207365727669636560a81b604082015260600190565b60008251612dc6818460208701612772565b9190910192915050565b634e487b7160e01b600052601160045260246000fd5b600082821015612df857612df8612dd0565b500390565b60006020808385031215612e1057600080fd5b825167ffffffffffffffff80821115612e2857600080fd5b818501915085601f830112612e3c57600080fd5b815181811115612e4e57612e4e6128b5565b8060051b9150612e5f8483016128cb565b8181529183018401918481019088841115612e7957600080fd5b938501935b83851015612ea35784519250612e9383612895565b8282529385019390850190612e7e565b98975050505050505050565b634e487b7160e01b600052603260045260246000fd5b60008219821115612ed857612ed8612dd0565b500190565b600060208284031215612eef57600080fd5b5051919050565b600060208284031215612f0857600080fd5b815167ffffffffffffffff811115612f1f57600080fd5b8201601f81018413612f3057600080fd5b8051612f3e612932826128fc565b818152856020838501011115612f5357600080fd5b6108fa826020830160208601612772565b604081526000612f7760408301856127a2565b90508260208301529392505050565b600060018201612f9857612f98612dd0565b5060010190565b6000816000190483118215151615612fb957612fb9612dd0565b500290565b600082612fdb57634e487b7160e01b600052601260045260246000fd5b500490565b600060208284031215612ff257600080fd5b81516003811061298257600080fd5b86815285602082015260018060a01b038516604082015283606082015260c06080820152600061303460c08301856127a2565b82810360a084015261304681856127a2565b9998505050505050505050565b6020808252602e908201527f496e697469616c697a61626c653a20636f6e747261637420697320616c72656160408201526d191e481a5b9a5d1a585b1a5e995960921b606082015260800190565b6020808252602b908201527f496e697469616c697a61626c653a20636f6e7472616374206973206e6f74206960408201526a6e697469616c697a696e6760a81b60608201526080019056fea2646970667358221220f8daa4f31b66e2a953f6de6df343258e33c72ff8a5087418829a604ff0bef9f064736f6c634300080d0033496e697469616c697a61626c653a20636f6e747261637420697320616c726561",
  "linkReferences": {},
  "deployedLinkReferences": {}
}