{
  "_format": "hh-sol-artifact-1",
  "contractName": "Pool",
  "sourceName": "contracts/Pool.sol",
  "abi": [
    {
      "inputs": [],
      "stateMutability": "nonpayable",
      "type": "constructor"
    },
    {
      "anonymous": false,
      "inputs": [
        {
          "indexed": false,
          "internalType": "uint8",
          "name": "version",
          "type": "uint8"
        }
      ],
      "name": "Initialized",
      "type": "event"
    },
    {
      "anonymous": false,
      "inputs": [
        {
          "indexed": true,
          "internalType": "address",
          "name": "previousOwner",
          "type": "address"
        },
        {
          "indexed": true,
          "internalType": "address",
          "name": "newOwner",
          "type": "address"
        }
      ],
      "name": "OwnershipTransferred",
      "type": "event"
    },
    {
      "anonymous": false,
      "inputs": [
        {
          "indexed": false,
          "internalType": "uint256",
          "name": "proposalId",
          "type": "uint256"
        },
        {
          "indexed": false,
          "internalType": "uint256",
          "name": "quorum",
          "type": "uint256"
        },
        {
          "indexed": false,
          "internalType": "address[]",
          "name": "targets",
          "type": "address[]"
        },
        {
          "indexed": false,
          "internalType": "uint256[]",
          "name": "values",
          "type": "uint256[]"
        },
        {
          "indexed": false,
          "internalType": "bytes[]",
          "name": "calldatas",
          "type": "bytes[]"
        },
        {
          "indexed": false,
          "internalType": "string",
          "name": "description",
          "type": "string"
        }
      ],
      "name": "ProposalCreated",
      "type": "event"
    },
    {
      "anonymous": false,
      "inputs": [
        {
          "indexed": false,
          "internalType": "uint256",
          "name": "proposalId",
          "type": "uint256"
        }
      ],
      "name": "ProposalExecuted",
      "type": "event"
    },
    {
      "anonymous": false,
      "inputs": [
        {
          "indexed": false,
          "internalType": "address",
          "name": "voter",
          "type": "address"
        },
        {
          "indexed": false,
          "internalType": "uint256",
          "name": "proposalId",
          "type": "uint256"
        },
        {
          "indexed": false,
          "internalType": "uint256",
          "name": "votes",
          "type": "uint256"
        },
        {
          "indexed": false,
          "internalType": "bool",
          "name": "support",
          "type": "bool"
        }
      ],
      "name": "VoteCast",
      "type": "event"
    },
    {
      "inputs": [
        {
          "internalType": "uint256",
          "name": "proposalId",
          "type": "uint256"
        },
        {
          "internalType": "uint256",
          "name": "votes",
          "type": "uint256"
        },
        {
          "internalType": "bool",
          "name": "support",
          "type": "bool"
        }
      ],
      "name": "castVote",
      "outputs": [],
      "stateMutability": "nonpayable",
      "type": "function"
    },
    {
      "inputs": [
        {
          "internalType": "uint256",
          "name": "proposalId",
          "type": "uint256"
        }
      ],
      "name": "executeBallot",
      "outputs": [],
      "stateMutability": "nonpayable",
      "type": "function"
    },
    {
      "inputs": [],
      "name": "getBallotDecisionThreshold",
      "outputs": [
        {
          "internalType": "uint256",
          "name": "",
          "type": "uint256"
        }
      ],
      "stateMutability": "view",
      "type": "function"
    },
    {
      "inputs": [],
      "name": "getBallotLifespan",
      "outputs": [
        {
          "internalType": "uint256",
          "name": "",
          "type": "uint256"
        }
      ],
      "stateMutability": "view",
      "type": "function"
    },
    {
      "inputs": [],
      "name": "getBallotQuorumThreshold",
      "outputs": [
        {
          "internalType": "uint256",
          "name": "",
          "type": "uint256"
        }
      ],
      "stateMutability": "view",
      "type": "function"
    },
    {
      "inputs": [],
      "name": "getPoolDateOfIncorporation",
      "outputs": [
        {
          "internalType": "string",
          "name": "",
          "type": "string"
        }
      ],
      "stateMutability": "view",
      "type": "function"
    },
    {
      "inputs": [],
      "name": "getPoolEIN",
      "outputs": [
        {
          "internalType": "string",
          "name": "",
          "type": "string"
        }
      ],
      "stateMutability": "view",
      "type": "function"
    },
    {
      "inputs": [],
      "name": "getPoolJurisdiction",
      "outputs": [
        {
          "internalType": "uint256",
          "name": "",
          "type": "uint256"
        }
      ],
      "stateMutability": "view",
      "type": "function"
    },
    {
      "inputs": [],
      "name": "getPoolLegalAddress",
      "outputs": [
        {
          "internalType": "string",
          "name": "",
          "type": "string"
        }
      ],
      "stateMutability": "view",
      "type": "function"
    },
    {
      "inputs": [],
      "name": "getPoolRegisteredName",
      "outputs": [
        {
          "internalType": "string",
          "name": "",
          "type": "string"
        }
      ],
      "stateMutability": "view",
      "type": "function"
    },
    {
      "inputs": [],
      "name": "getPoolTaxationStatus",
      "outputs": [
        {
          "internalType": "string",
          "name": "",
          "type": "string"
        }
      ],
      "stateMutability": "view",
      "type": "function"
    },
    {
      "inputs": [],
      "name": "getPoolTrademark",
      "outputs": [
        {
          "internalType": "string",
          "name": "",
          "type": "string"
        }
      ],
      "stateMutability": "view",
      "type": "function"
    },
    {
      "inputs": [
        {
          "internalType": "uint256",
          "name": "proposalId",
          "type": "uint256"
        }
      ],
      "name": "getProposal",
      "outputs": [
        {
          "components": [
            {
              "internalType": "uint256",
              "name": "ballotQuorumThreshold",
              "type": "uint256"
            },
            {
              "internalType": "uint256",
              "name": "ballotDecisionThreshold",
              "type": "uint256"
            },
            {
              "internalType": "address[]",
              "name": "targets",
              "type": "address[]"
            },
            {
              "internalType": "uint256[]",
              "name": "values",
              "type": "uint256[]"
            },
            {
              "internalType": "bytes[]",
              "name": "calldatas",
              "type": "bytes[]"
            },
            {
              "internalType": "uint256",
              "name": "startBlock",
              "type": "uint256"
            },
            {
              "internalType": "uint256",
              "name": "endBlock",
              "type": "uint256"
            },
            {
              "internalType": "uint256",
              "name": "forVotes",
              "type": "uint256"
            },
            {
              "internalType": "uint256",
              "name": "againstVotes",
              "type": "uint256"
            },
            {
              "internalType": "bool",
              "name": "executed",
              "type": "bool"
            },
            {
              "internalType": "bool",
              "name": "accepted",
              "type": "bool"
            },
            {
              "internalType": "enum Governor.ProposalExecutionState",
              "name": "state",
              "type": "uint8"
            },
            {
              "internalType": "string",
              "name": "description",
              "type": "string"
            }
          ],
          "internalType": "struct Governor.Proposal",
          "name": "",
          "type": "tuple"
        }
      ],
      "stateMutability": "view",
      "type": "function"
    },
    {
      "inputs": [
        {
          "internalType": "uint256",
          "name": "proposalId",
          "type": "uint256"
        }
      ],
      "name": "getProposalBallotDecisionThreshold",
      "outputs": [
        {
          "internalType": "uint256",
          "name": "",
          "type": "uint256"
        }
      ],
      "stateMutability": "view",
      "type": "function"
    },
    {
      "inputs": [
        {
          "internalType": "uint256",
          "name": "proposalId",
          "type": "uint256"
        }
      ],
      "name": "getProposalBallotLifespan",
      "outputs": [
        {
          "internalType": "uint256",
          "name": "",
          "type": "uint256"
        }
      ],
      "stateMutability": "view",
      "type": "function"
    },
    {
      "inputs": [
        {
          "internalType": "uint256",
          "name": "proposalId",
          "type": "uint256"
        }
      ],
      "name": "getProposalBallotQuorumThreshold",
      "outputs": [
        {
          "internalType": "uint256",
          "name": "",
          "type": "uint256"
        }
      ],
      "stateMutability": "view",
      "type": "function"
    },
    {
      "inputs": [],
      "name": "getTVL",
      "outputs": [
        {
          "internalType": "uint256",
          "name": "",
          "type": "uint256"
        }
      ],
      "stateMutability": "nonpayable",
      "type": "function"
    },
    {
      "inputs": [
        {
          "internalType": "address",
          "name": "poolCreator_",
          "type": "address"
        },
        {
          "internalType": "uint256",
          "name": "jurisdiction_",
          "type": "uint256"
        },
        {
          "internalType": "string",
          "name": "poolEIN_",
          "type": "string"
        },
        {
          "internalType": "string",
          "name": "dateOfIncorporation",
          "type": "string"
        },
        {
          "internalType": "string",
          "name": "legalAddress",
          "type": "string"
        },
        {
          "internalType": "string",
          "name": "taxationStatus",
          "type": "string"
        },
        {
          "internalType": "string",
          "name": "registeredName",
          "type": "string"
        },
        {
          "internalType": "uint256",
          "name": "ballotQuorumThreshold_",
          "type": "uint256"
        },
        {
          "internalType": "uint256",
          "name": "ballotDecisionThreshold_",
          "type": "uint256"
        },
        {
          "internalType": "uint256",
          "name": "ballotLifespan_",
          "type": "uint256"
        },
        {
          "internalType": "string",
          "name": "trademark",
          "type": "string"
        }
      ],
      "name": "initialize",
      "outputs": [],
      "stateMutability": "nonpayable",
      "type": "function"
    },
    {
      "inputs": [],
      "name": "isDAO",
      "outputs": [
        {
          "internalType": "bool",
          "name": "",
          "type": "bool"
        }
      ],
      "stateMutability": "view",
      "type": "function"
    },
    {
      "inputs": [],
      "name": "lastProposalId",
      "outputs": [
        {
          "internalType": "uint256",
          "name": "",
          "type": "uint256"
        }
      ],
      "stateMutability": "view",
      "type": "function"
    },
    {
      "inputs": [],
      "name": "maxProposalId",
      "outputs": [
        {
          "internalType": "uint256",
          "name": "",
          "type": "uint256"
        }
      ],
      "stateMutability": "view",
      "type": "function"
    },
    {
      "inputs": [],
      "name": "owner",
      "outputs": [
        {
          "internalType": "address",
          "name": "",
          "type": "address"
        }
      ],
      "stateMutability": "view",
      "type": "function"
    },
    {
      "inputs": [],
      "name": "primaryTGE",
      "outputs": [
        {
          "internalType": "address",
          "name": "",
          "type": "address"
        }
      ],
      "stateMutability": "view",
      "type": "function"
    },
    {
      "inputs": [
        {
          "internalType": "uint256",
          "name": "proposalId",
          "type": "uint256"
        }
      ],
      "name": "proposalState",
      "outputs": [
        {
          "internalType": "enum Governor.ProposalState",
          "name": "",
          "type": "uint8"
        }
      ],
      "stateMutability": "view",
      "type": "function"
    },
    {
      "inputs": [
        {
          "internalType": "uint256",
          "name": "",
          "type": "uint256"
        }
      ],
      "name": "proposals",
      "outputs": [
        {
          "internalType": "uint256",
          "name": "ballotQuorumThreshold",
          "type": "uint256"
        },
        {
          "internalType": "uint256",
          "name": "ballotDecisionThreshold",
          "type": "uint256"
        },
        {
          "internalType": "uint256",
          "name": "startBlock",
          "type": "uint256"
        },
        {
          "internalType": "uint256",
          "name": "endBlock",
          "type": "uint256"
        },
        {
          "internalType": "uint256",
          "name": "forVotes",
          "type": "uint256"
        },
        {
          "internalType": "uint256",
          "name": "againstVotes",
          "type": "uint256"
        },
        {
          "internalType": "bool",
          "name": "executed",
          "type": "bool"
        },
        {
          "internalType": "bool",
          "name": "accepted",
          "type": "bool"
        },
        {
          "internalType": "enum Governor.ProposalExecutionState",
          "name": "state",
          "type": "uint8"
        },
        {
          "internalType": "string",
          "name": "description",
          "type": "string"
        }
      ],
      "stateMutability": "view",
      "type": "function"
    },
    {
      "inputs": [
        {
          "internalType": "address",
          "name": "target",
          "type": "address"
        },
        {
          "internalType": "uint256",
          "name": "value",
          "type": "uint256"
        },
        {
          "internalType": "bytes",
          "name": "cd",
          "type": "bytes"
        },
        {
          "internalType": "string",
          "name": "description",
          "type": "string"
        }
      ],
      "name": "proposeSingleAction",
      "outputs": [
        {
          "internalType": "uint256",
          "name": "proposalId",
          "type": "uint256"
        }
      ],
      "stateMutability": "nonpayable",
      "type": "function"
    },
    {
      "inputs": [],
      "name": "renounceOwnership",
      "outputs": [],
      "stateMutability": "nonpayable",
      "type": "function"
    },
    {
      "inputs": [],
      "name": "service",
      "outputs": [
        {
          "internalType": "contract IService",
          "name": "",
          "type": "address"
        }
      ],
      "stateMutability": "view",
      "type": "function"
    },
    {
      "inputs": [
        {
          "internalType": "uint256",
          "name": "ballotQuorumThreshold_",
          "type": "uint256"
        },
        {
          "internalType": "uint256",
          "name": "ballotDecisionThreshold_",
          "type": "uint256"
        },
        {
          "internalType": "uint256",
          "name": "ballotLifespan_",
          "type": "uint256"
        }
      ],
      "name": "setGovernanceSettings",
      "outputs": [],
      "stateMutability": "nonpayable",
      "type": "function"
    },
    {
      "inputs": [
        {
          "internalType": "address",
          "name": "tge_",
          "type": "address"
        }
      ],
      "name": "setPrimaryTGE",
      "outputs": [],
      "stateMutability": "nonpayable",
      "type": "function"
    },
    {
      "inputs": [
        {
          "internalType": "string",
          "name": "registeredName",
          "type": "string"
        }
      ],
      "name": "setRegisteredName",
      "outputs": [],
      "stateMutability": "nonpayable",
      "type": "function"
    },
    {
      "inputs": [
        {
          "internalType": "address",
          "name": "tge_",
          "type": "address"
        }
      ],
      "name": "setTGE",
      "outputs": [],
      "stateMutability": "nonpayable",
      "type": "function"
    },
    {
      "inputs": [
        {
          "internalType": "address",
          "name": "token_",
          "type": "address"
        }
      ],
      "name": "setToken",
      "outputs": [],
      "stateMutability": "nonpayable",
      "type": "function"
    },
    {
      "inputs": [],
      "name": "tge",
      "outputs": [
        {
          "internalType": "contract ITGE",
          "name": "",
          "type": "address"
        }
      ],
      "stateMutability": "view",
      "type": "function"
    },
    {
      "inputs": [],
      "name": "token",
      "outputs": [
        {
          "internalType": "contract IGovernanceToken",
          "name": "",
          "type": "address"
        }
      ],
      "stateMutability": "view",
      "type": "function"
    },
    {
      "inputs": [
        {
          "internalType": "address",
          "name": "newOwner",
          "type": "address"
        }
      ],
      "name": "transferOwnership",
      "outputs": [],
      "stateMutability": "nonpayable",
      "type": "function"
    },
    {
      "stateMutability": "payable",
      "type": "receive"
    }
  ],
  "bytecode": "0x60806040523480156200001157600080fd5b506200001c62000022565b62000152565b6200002e60ff62000031565b50565b60008054610100900460ff1615620000ca578160ff1660011480156200006a575062000068306200014360201b620023391760201c565b155b620000c25760405162461bcd60e51b815260206004820152602e60248201526000805160206200369f83398151915260448201526d191e481a5b9a5d1a585b1a5e995960921b60648201526084015b60405180910390fd5b506000919050565b60005460ff808416911610620001295760405162461bcd60e51b815260206004820152602e60248201526000805160206200369f83398151915260448201526d191e481a5b9a5d1a585b1a5e995960921b6064820152608401620000b9565b506000805460ff191660ff92909216919091179055600190565b6001600160a01b03163b151590565b61353d80620001626000396000f3fe6080604052600436106102135760003560e01c806385c7bb8311610118578063d26331d4116100a0578063e47bfee81161006f578063e47bfee8146105f1578063ea0a0e9e14610616578063f2fde38b1461062b578063f9000ba81461064b578063fc0c546a1461066b57600080fd5b8063d26331d41461056f578063d598d4c91461059c578063da960431146105bc578063decba568146105d157600080fd5b806397b3fcaa116100e757806397b3fcaa146104d8578063a1db8b4c146104ed578063a7497fa514610502578063acec84dc14610522578063c7f758a81461054257600080fd5b806385c7bb83146104795780638da5cb5b1461048e57806392aa43c0146104a3578063958b138e146104c357600080fd5b80635d0462561161019b578063715018a61161016a578063715018a6146103f957806374cb30411461040e57806378406c491461042457806378809b831461044457806383d09ee11461045957600080fd5b80635d046256146103675780636685a7781461037c57806366c2ec2c146103b45780636e48bb71146103c957600080fd5b8063144fa6d7116101e2578063144fa6d7146102c3578063168dfb50146102e55780634dd70367146103055780635473fda0146103255780635827e38d1461033a57600080fd5b8063013cf08b1461021f57806309e252c41461025e5780630f74fdb01461028c57806313487048146102ae57600080fd5b3661021a57005b600080fd5b34801561022b57600080fd5b5061023f61023a366004612abf565b61068b565b6040516102559a99989796959493929190612b5e565b60405180910390f35b34801561026a57600080fd5b5061027e610279366004612cb3565b610771565b604051908152602001610255565b34801561029857600080fd5b506102a161093b565b6040516102559190612d4a565b3480156102ba57600080fd5b506102a16109cd565b3480156102cf57600080fd5b506102e36102de366004612d5d565b6109dc565b005b3480156102f157600080fd5b506102e3610300366004612d7a565b610a28565b34801561031157600080fd5b506102e3610320366004612abf565b610b5f565b34801561033157600080fd5b506102a1611081565b34801561034657600080fd5b5061027e610355366004612abf565b60009081526065602052604090205490565b34801561037357600080fd5b506102a1611090565b34801561038857600080fd5b5060755461039c906001600160a01b031681565b6040516001600160a01b039091168152602001610255565b3480156103c057600080fd5b50606f5461027e565b3480156103d557600080fd5b5061027e6103e4366004612abf565b60009081526065602052604090206001015490565b34801561040557600080fd5b506102e361109f565b34801561041a57600080fd5b5061027e60665481565b34801561043057600080fd5b506102e361043f366004612da6565b61110a565b34801561045057600080fd5b50606b5461027e565b34801561046557600080fd5b5061027e610474366004612abf565b61127a565b34801561048557600080fd5b506102a16112a3565b34801561049a57600080fd5b5061039c6112b2565b3480156104af57600080fd5b506102e36104be366004612d5d565b6112cb565b3480156104cf57600080fd5b5060665461027e565b3480156104e457600080fd5b5061027e611317565b3480156104f957600080fd5b50606a5461027e565b34801561050e57600080fd5b5060695461039c906001600160a01b031681565b34801561052e57600080fd5b506102e361053d366004612de3565b61168c565b34801561054e57600080fd5b5061056261055d366004612abf565b6118a0565b6040516102559190612fe5565b34801561057b57600080fd5b5061058f61058a366004612abf565b611b72565b60405161025591906130ea565b3480156105a857600080fd5b5060675461039c906001600160a01b031681565b3480156105c857600080fd5b50606c5461027e565b3480156105dd57600080fd5b506102e36105ec366004612d5d565b611f00565b3480156105fd57600080fd5b50610606611fb2565b6040519015158152602001610255565b34801561062257600080fd5b506102a1612044565b34801561063757600080fd5b506102e3610646366004612d5d565b612053565b34801561065757600080fd5b506102e3610666366004613104565b612123565b34801561067757600080fd5b5060685461039c906001600160a01b031681565b60656020526000908152604090208054600182015460058301546006840154600785015460088601546009870154600a8801805497989697959694959394929360ff8084169461010085048216946201000090049091169290916106ee90613142565b80601f016020809104026020016040519081016040528092919081815260200182805461071a90613142565b80156107675780601f1061073c57610100808354040283529160200191610767565b820191906000526020600020905b81548152906001019060200180831161074a57829003601f168201915b505050505090508a565b606754604080516304e31dfb60e01b815290516000926001600160a01b0316916304e31dfb9160048083019260209291908290030181865afa1580156107bb573d6000803e3d6000fd5b505050506040513d601f19601f820116820180604052508101906107df919061317c565b6001600160a01b0316336001600160a01b03161461083b5760405162461bcd60e51b81526020600482015260146024820152734e6f742070726f706f73616c206761746577617960601b60448201526064015b60405180910390fd5b60408051600180825281830190925260009160208083019080368337019050509050858160008151811061087157610871613199565b6001600160a01b03929092166020928302919091019091015260408051600180825281830190925260009181602001602082028036833701905050905085816000815181106108c2576108c2613199565b6020908102919091010152604080516001808252818301909252600091816020015b60608152602001906001900390816108e4579050509050858160008151811061090f5761090f613199565b602002602001018190525061092f606c54606a54606b548686868b612348565b98975050505050505050565b6060606e805461094a90613142565b80601f016020809104026020016040519081016040528092919081815260200182805461097690613142565b80156109c35780601f10610998576101008083540402835291602001916109c3565b820191906000526020600020905b8154815290600101906020018083116109a657829003601f168201915b5050505050905090565b60606072805461094a90613142565b6067546001600160a01b03163314610a065760405162461bcd60e51b8152600401610832906131af565b606880546001600160a01b0319166001600160a01b0392909216919091179055565b333014610a645760405162461bcd60e51b815260206004820152600a602482015269139bdd0818481c1bdbdb60b21b6044820152606401610832565b612710831115610ab65760405162461bcd60e51b815260206004820152601d60248201527f496e76616c69642062616c6c6f7451756f72756d5468726573686f6c640000006044820152606401610832565b612710821115610b085760405162461bcd60e51b815260206004820152601f60248201527f496e76616c69642062616c6c6f744465636973696f6e5468726573686f6c64006044820152606401610832565b60008111610b515760405162461bcd60e51b815260206004820152601660248201527524b73b30b634b2103130b63637ba2634b332b9b830b760511b6044820152606401610832565b606a92909255606b55606c55565b600081815260656020908152604080832081516101a08101835281548152600182015481850152600282018054845181870281018701865281815292959394860193830182828015610bda57602002820191906000526020600020905b81546001600160a01b03168152600190910190602001808311610bbc575b5050505050815260200160038201805480602002602001604051908101604052809291908181526020018280548015610c3257602002820191906000526020600020905b815481526020019060010190808311610c1e575b5050505050815260200160048201805480602002602001604051908101604052809291908181526020016000905b82821015610d0c578382906000526020600020018054610c7f90613142565b80601f0160208091040260200160405190810160405280929190818152602001828054610cab90613142565b8015610cf85780601f10610ccd57610100808354040283529160200191610cf8565b820191906000526020600020905b815481529060010190602001808311610cdb57829003601f168201915b505050505081526020019060010190610c60565b5050509082525060058201546020820152600682015460408201526007820154606082015260088201546080820152600982015460ff808216151560a084015261010082048116151560c084015260e09092019162010000909104166001811115610d7957610d79612ad8565b6001811115610d8a57610d8a612ad8565b8152602001600a82018054610d9e90613142565b80601f0160208091040260200160405190810160405280929190818152602001828054610dca90613142565b8015610e175780601f10610dec57610100808354040283529160200191610e17565b820191906000526020600020905b815481529060010190602001808311610dfa57829003601f168201915b505050505081525050905060036004811115610e3557610e35612ad8565b610e3e83611b72565b6004811115610e4f57610e4f612ad8565b14610e9c5760405162461bcd60e51b815260206004820152601a60248201527f50726f706f73616c20697320696e2077726f6e672073746174650000000000006044820152606401610832565b6000828152606560209081526040808320600901805461ffff19166101011790558051808201909152601d81527f43616c6c20726576657274656420776974686f7574206d65737361676500000091810191909152905b8260400151518110156110265760008084604001518381518110610f1957610f19613199565b60200260200101516001600160a01b031685606001518481518110610f4057610f40613199565b602002602001015186608001518581518110610f5e57610f5e613199565b6020026020010151604051610f7391906131d4565b60006040518083038185875af1925050503d8060008114610fb0576040519150601f19603f3d011682016040523d82523d6000602084013e610fb5565b606091505b5091509150610fc582828661252c565b50816110135760405162461bcd60e51b815260206004820152601960248201527f5665726966792063616c6c20726573756c74206661696c6564000000000000006044820152606401610832565b50508061101f90613206565b9050610ef3565b50600083815260656020908152604091829020600901805462ff000019166201000017905590518481527f712ae1383f79ac853f8d882153778e0260ef8f03b504e2866e0593e04d2b291f91015b60405180910390a1505050565b60606074805461094a90613142565b6060606d805461094a90613142565b336110a86112b2565b6001600160a01b0316146110fe5760405162461bcd60e51b815260206004820181905260248201527f4f776e61626c653a2063616c6c6572206973206e6f7420746865206f776e65726044820152606401610832565b611108600061256c565b565b606760009054906101000a90046001600160a01b03166001600160a01b0316638da5cb5b6040518163ffffffff1660e01b8152600401602060405180830381865afa15801561115d573d6000803e3d6000fd5b505050506040513d601f19601f82011682018060405250810190611181919061317c565b6001600160a01b0316336001600160a01b0316146111d55760405162461bcd60e51b81526020600482015260116024820152702737ba1039b2b93b34b1b29037bbb732b960791b6044820152606401610832565b606d80546111e290613142565b15905061121f5760405162461bcd60e51b815260206004820152600b60248201526a105b1c9958591e481cd95d60aa1b6044820152606401610832565b80516000036112635760405162461bcd60e51b815260206004820152601060248201526f43616e206e6f7420626520656d70747960801b6044820152606401610832565b805161127690606d90602084019061286a565b5050565b6000818152606560205260408120600581015460069091015461129d919061321f565b92915050565b60606073805461094a90613142565b60006112c66033546001600160a01b031690565b905090565b6067546001600160a01b031633146112f55760405162461bcd60e51b8152600401610832906131af565b606980546001600160a01b0319166001600160a01b0392909216919091179055565b600080606760009054906101000a90046001600160a01b03166001600160a01b0316634db4a3526040518163ffffffff1660e01b8152600401602060405180830381865afa15801561136d573d6000803e3d6000fd5b505050506040513d601f19601f82011682018060405250810190611391919061317c565b90506000606760009054906101000a90046001600160a01b03166001600160a01b0316635e1762a06040518163ffffffff1660e01b8152600401602060405180830381865afa1580156113e8573d6000803e3d6000fd5b505050506040513d601f19601f8201168201806040525081019061140c919061317c565b90506000816001600160a01b031663ca735cc16040518163ffffffff1660e01b8152600401600060405180830381865afa15801561144e573d6000803e3d6000fd5b505050506040513d6000823e601f3d908101601f191682016040526114769190810190613236565b90506000805b82518110156116835760006001600160a01b03168382815181106114a2576114a2613199565b60200260200101516001600160a01b0316036114c9576114c247836132dc565b9150611671565b60008382815181106114dd576114dd613199565b60209081029190910101516040516370a0823160e01b81523060048201526001600160a01b03909116906370a0823190602401602060405180830381865afa15801561152d573d6000803e3d6000fd5b505050506040513d601f19601f8201168201806040525081019061155191906132f4565b9050801561166f57856001600160a01b031663cdca1753866001600160a01b03166350eb1c4387868151811061158957611589613199565b60200260200101516040518263ffffffff1660e01b81526004016115bc91906001600160a01b0391909116815260200190565b600060405180830381865afa1580156115d9573d6000803e3d6000fd5b505050506040513d6000823e601f3d908101601f19168201604052611601919081019061330d565b836040518363ffffffff1660e01b815260040161161f929190613384565b6020604051808303816000875af115801561163e573d6000803e3d6000fd5b505050506040513d601f19601f8201168201806040525081019061166291906132f4565b61166c90846132dc565b92505b505b8061167b81613206565b91505061147c565b50949350505050565b600061169860016125be565b905080156116b0576000805461ff0019166101001790555b6116b861264b565b606780546001600160a01b031916331790556116d38c61256c565b606f8b905589516116eb9060709060208d019061286a565b5088516116ff9060729060208c019061286a565b5087516117139060739060208b019061286a565b5086516117279060749060208a019061286a565b50855161173b90606d90602089019061286a565b50815161174f90606e90602085019061286a565b506127108511156117a25760405162461bcd60e51b815260206004820152601d60248201527f496e76616c69642062616c6c6f7451756f72756d5468726573686f6c640000006044820152606401610832565b6127108411156117f45760405162461bcd60e51b815260206004820152601f60248201527f496e76616c69642062616c6c6f744465636973696f6e5468726573686f6c64006044820152606401610832565b6000831161183d5760405162461bcd60e51b815260206004820152601660248201527524b73b30b634b2103130b63637ba2634b332b9b830b760511b6044820152606401610832565b606a859055606b849055606c8390558015611892576000805461ff0019169055604051600181527f7f26b83ff96e1f2b6a682f133852f6798a09c465da95921460cefb38474024989060200160405180910390a15b505050505050505050505050565b6118a86128ee565b60008281526065602090815260409182902082516101a081018452815481526001820154818401526002820180548551818602810186018752818152929593949386019383018282801561192557602002820191906000526020600020905b81546001600160a01b03168152600190910190602001808311611907575b505050505081526020016003820180548060200260200160405190810160405280929190818152602001828054801561197d57602002820191906000526020600020905b815481526020019060010190808311611969575b5050505050815260200160048201805480602002602001604051908101604052809291908181526020016000905b82821015611a575783829060005260206000200180546119ca90613142565b80601f01602080910402602001604051908101604052809291908181526020018280546119f690613142565b8015611a435780601f10611a1857610100808354040283529160200191611a43565b820191906000526020600020905b815481529060010190602001808311611a2657829003601f168201915b5050505050815260200190600101906119ab565b5050509082525060058201546020820152600682015460408201526007820154606082015260088201546080820152600982015460ff808216151560a084015261010082048116151560c084015260e09092019162010000909104166001811115611ac457611ac4612ad8565b6001811115611ad557611ad5612ad8565b8152602001600a82018054611ae990613142565b80601f0160208091040260200160405190810160405280929190818152602001828054611b1590613142565b8015611b625780601f10611b3757610100808354040283529160200191611b62565b820191906000526020600020905b815481529060010190602001808311611b4557829003601f168201915b5050505050815250509050919050565b600081815260656020908152604080832081516101a0810183528154815260018201548185015260028201805484518187028101870186528181528796939586019390929190830182828015611bf157602002820191906000526020600020905b81546001600160a01b03168152600190910190602001808311611bd3575b5050505050815260200160038201805480602002602001604051908101604052809291908181526020018280548015611c4957602002820191906000526020600020905b815481526020019060010190808311611c35575b5050505050815260200160048201805480602002602001604051908101604052809291908181526020016000905b82821015611d23578382906000526020600020018054611c9690613142565b80601f0160208091040260200160405190810160405280929190818152602001828054611cc290613142565b8015611d0f5780601f10611ce457610100808354040283529160200191611d0f565b820191906000526020600020905b815481529060010190602001808311611cf257829003601f168201915b505050505081526020019060010190611c77565b5050509082525060058201546020820152600682015460408201526007820154606082015260088201546080820152600982015460ff808216151560a084015261010082048116151560c084015260e09092019162010000909104166001811115611d9057611d90612ad8565b6001811115611da157611da1612ad8565b8152602001600a82018054611db590613142565b80601f0160208091040260200160405190810160405280929190818152602001828054611de190613142565b8015611e2e5780601f10611e0357610100808354040283529160200191611e2e565b820191906000526020600020905b815481529060010190602001808311611e1157829003601f168201915b505050505081525050905080610120015115611e4d5750600492915050565b8060a00151600003611e625750600092915050565b438160c001511115611e775750600192915050565b60006127108260000151611e8961267a565b611e9391906133a6565b611e9d91906133c5565b905060008261010001518360e00151611eb691906132dc565b9050818110158015611ee557506020830151611ed290826133a6565b60e0840151611ee3906127106133a6565b115b15611ef557506003949350505050565b506002949350505050565b6067546001600160a01b03163314611f2a5760405162461bcd60e51b8152600401610832906131af565b6001600160a01b038116611f905760405162461bcd60e51b815260206004820152602760248201527f43616e206e6f7420736574207072696d6172792074676520746f207a65726f206044820152666164647265737360c81b6064820152608401610832565b607580546001600160a01b0319166001600160a01b0392909216919091179055565b60006002607560009054906101000a90046001600160a01b03166001600160a01b031663c19d93fb6040518163ffffffff1660e01b8152600401602060405180830381865afa158015612009573d6000803e3d6000fd5b505050506040513d601f19601f8201168201806040525081019061202d91906133e7565b600281111561203e5761203e612ad8565b14905090565b60606070805461094a90613142565b3361205c6112b2565b6001600160a01b0316146120b25760405162461bcd60e51b815260206004820181905260248201527f4f776e61626c653a2063616c6c6572206973206e6f7420746865206f776e65726044820152606401610832565b6001600160a01b0381166121175760405162461bcd60e51b815260206004820152602660248201527f4f776e61626c653a206e6577206f776e657220697320746865207a65726f206160448201526564647265737360d01b6064820152608401610832565b6121208161256c565b50565b60001982036121a65760685460405163468b3b3360e01b8152336004820152602481018590526001600160a01b039091169063468b3b3390604401602060405180830381865afa15801561217b573d6000803e3d6000fd5b505050506040513d601f19601f8201168201806040525081019061219f91906132f4565b9150612268565b60685460405163468b3b3360e01b8152336004820152602481018590526001600160a01b039091169063468b3b3390604401602060405180830381865afa1580156121f5573d6000803e3d6000fd5b505050506040513d601f19601f8201168201806040525081019061221991906132f4565b8211156122685760405162461bcd60e51b815260206004820152601b60248201527f4e6f7420656e6f75676820756e6c6f636b65642062616c616e636500000000006044820152606401610832565b600082116122a35760405162461bcd60e51b81526020600482015260086024820152674e6f20766f74657360c01b6044820152606401610832565b60685460008481526065602052604090819020600601549051630192f7c360e71b8152336004820152602481018590526044810191909152606481018590526001600160a01b039091169063c97be18090608401600060405180830381600087803b15801561231157600080fd5b505af1158015612325573d6000803e3d6000fd5b505050506123348383836126e8565b505050565b6001600160a01b03163b151590565b600060666000815461235990613206565b9190508190559050604051806101a00160405280888152602001878152602001868152602001858152602001848152602001438152602001894361239d91906132dc565b8152600060208083018290526040808401839052606084018390526080840183905260a0840183905260c09093018690528482526065815290829020835181558382015160018201559183015180516123fc926002850192019061296b565b50606082015180516124189160038401916020909101906129c0565b50608082015180516124349160048401916020909101906129fa565b5060a0820151600582015560c0820151600682015560e0820151600782015561010080830151600883015561012083015160098301805461014086015161ffff1990911692151561ff0019169290921791151590920217808255610160840151919062ff00001916620100008360018111156124b2576124b2612ad8565b021790555061018082015180516124d391600a84019160209091019061286a565b509050506124e0816127d9565b7fbd5cfa3a6d750f3995a6e4c6f70b1d01187c16a6fcfcd3bbe400ecf361b756ba81888787878760405161251996959493929190613408565b60405180910390a1979650505050505050565b6060831561253b575081612565565b82511561254b5782518084602001fd5b8160405162461bcd60e51b81526004016108329190612d4a565b9392505050565b603380546001600160a01b038381166001600160a01b0319831681179093556040519116919082907f8be0079c531659141344cd1fd0a4f28419497f9722a3daafe3b4186f6b6457e090600090a35050565b60008054610100900460ff1615612605578160ff1660011480156125e15750303b155b6125fd5760405162461bcd60e51b81526004016108329061346e565b506000919050565b60005460ff80841691161061262c5760405162461bcd60e51b81526004016108329061346e565b506000805460ff191660ff92909216919091179055600190565b919050565b600054610100900460ff166126725760405162461bcd60e51b8152600401610832906134bc565b61110861283a565b606854604080516318160ddd60e01b815290516000926001600160a01b0316916318160ddd9160048083019260209291908290030181865afa1580156126c4573d6000803e3d6000fd5b505050506040513d601f19601f820116820180604052508101906112c691906132f4565b600083815260656020526040902060060154431061273a5760405162461bcd60e51b815260206004820152600f60248201526e159bdd1a5b99c8199a5b9a5cda1959608a1b6044820152606401610832565b801561276c57600083815260656020526040812060070180548492906127619084906132dc565b909155506127939050565b6000838152606560205260408120600801805484929061278d9084906132dc565b90915550505b604080513381526020810185905290810183905281151560608201527f2c48deccc79dbba942eeb2f991c4bfa0ac136723ddc0ea1b575dd85373408df890608001611074565b606754604051630ffb246960e21b8152600481018390526001600160a01b0390911690633fec91a490602401600060405180830381600087803b15801561281f57600080fd5b505af1158015612833573d6000803e3d6000fd5b5050505050565b600054610100900460ff166128615760405162461bcd60e51b8152600401610832906134bc565b6111083361256c565b82805461287690613142565b90600052602060002090601f01602090048101928261289857600085556128de565b82601f106128b157805160ff19168380011785556128de565b828001600101855582156128de579182015b828111156128de5782518255916020019190600101906128c3565b506128ea929150612a53565b5090565b604051806101a001604052806000815260200160008152602001606081526020016060815260200160608152602001600081526020016000815260200160008152602001600081526020016000151581526020016000151581526020016000600181111561295e5761295e612ad8565b8152602001606081525090565b8280548282559060005260206000209081019282156128de579160200282015b828111156128de57825182546001600160a01b0319166001600160a01b0390911617825560209092019160019091019061298b565b8280548282559060005260206000209081019282156128de57916020028201828111156128de5782518255916020019190600101906128c3565b828054828255906000526020600020908101928215612a47579160200282015b82811115612a475782518051612a3791849160209091019061286a565b5091602001919060010190612a1a565b506128ea929150612a68565b5b808211156128ea5760008155600101612a54565b808211156128ea576000612a7c8282612a85565b50600101612a68565b508054612a9190613142565b6000825580601f10612aa1575050565b601f0160209004906000526020600020908101906121209190612a53565b600060208284031215612ad157600080fd5b5035919050565b634e487b7160e01b600052602160045260246000fd5b60028110612afe57612afe612ad8565b9052565b60005b83811015612b1d578181015183820152602001612b05565b83811115612b2c576000848401525b50505050565b60008151808452612b4a816020860160208601612b02565b601f01601f19169290920160200192915050565b60006101408c83528b60208401528a60408401528960608401528860808401528760a084015286151560c084015285151560e0840152612ba2610100840186612aee565b80610120840152612bb581840185612b32565b9d9c50505050505050505050505050565b6001600160a01b038116811461212057600080fd5b803561264681612bc6565b634e487b7160e01b600052604160045260246000fd5b604051601f8201601f1916810167ffffffffffffffff81118282101715612c2557612c25612be6565b604052919050565b600067ffffffffffffffff821115612c4757612c47612be6565b50601f01601f191660200190565b6000612c68612c6384612c2d565b612bfc565b9050828152838383011115612c7c57600080fd5b828260208301376000602084830101529392505050565b600082601f830112612ca457600080fd5b61256583833560208501612c55565b60008060008060808587031215612cc957600080fd5b8435612cd481612bc6565b935060208501359250604085013567ffffffffffffffff80821115612cf857600080fd5b818701915087601f830112612d0c57600080fd5b612d1b88833560208501612c55565b93506060870135915080821115612d3157600080fd5b50612d3e87828801612c93565b91505092959194509250565b6020815260006125656020830184612b32565b600060208284031215612d6f57600080fd5b813561256581612bc6565b600080600060608486031215612d8f57600080fd5b505081359360208301359350604090920135919050565b600060208284031215612db857600080fd5b813567ffffffffffffffff811115612dcf57600080fd5b612ddb84828501612c93565b949350505050565b60008060008060008060008060008060006101608c8e031215612e0557600080fd5b612e0e8c612bdb565b9a5060208c0135995067ffffffffffffffff8060408e01351115612e3157600080fd5b612e418e60408f01358f01612c93565b99508060608e01351115612e5457600080fd5b612e648e60608f01358f01612c93565b98508060808e01351115612e7757600080fd5b612e878e60808f01358f01612c93565b97508060a08e01351115612e9a57600080fd5b612eaa8e60a08f01358f01612c93565b96508060c08e01351115612ebd57600080fd5b612ecd8e60c08f01358f01612c93565b955060e08d013594506101008d013593506101208d01359250806101408e01351115612ef857600080fd5b50612f0a8d6101408e01358e01612c93565b90509295989b509295989b9093969950565b600081518084526020808501945080840160005b83811015612f555781516001600160a01b031687529582019590820190600101612f30565b509495945050505050565b600081518084526020808501945080840160005b83811015612f5557815187529582019590820190600101612f74565b600081518084526020808501808196508360051b8101915082860160005b85811015612fd8578284038952612fc6848351612b32565b98850198935090840190600101612fae565b5091979650505050505050565b602081528151602082015260208201516040820152600060408301516101a08060608501526130186101c0850183612f1c565b91506060850151601f19808685030160808701526130368483612f60565b935060808701519150808685030160a08701526130538483612f90565b935060a087015160c087015260c087015160e087015260e0870151915061010082818801528088015192505061012082818801528088015192505061014061309e8188018415159052565b87015191506101606130b38782018415159052565b87015191506101806130c787820184612aee565b8701518685039091018387015290506130e08382612b32565b9695505050505050565b60208101600583106130fe576130fe612ad8565b91905290565b60008060006060848603121561311957600080fd5b83359250602084013591506040840135801515811461313757600080fd5b809150509250925092565b600181811c9082168061315657607f821691505b60208210810361317657634e487b7160e01b600052602260045260246000fd5b50919050565b60006020828403121561318e57600080fd5b815161256581612bc6565b634e487b7160e01b600052603260045260246000fd5b6020808252600b908201526a4e6f74207365727669636560a81b604082015260600190565b600082516131e6818460208701612b02565b9190910192915050565b634e487b7160e01b600052601160045260246000fd5b600060018201613218576132186131f0565b5060010190565b600082821015613231576132316131f0565b500390565b6000602080838503121561324957600080fd5b825167ffffffffffffffff8082111561326157600080fd5b818501915085601f83011261327557600080fd5b81518181111561328757613287612be6565b8060051b9150613298848301612bfc565b81815291830184019184810190888411156132b257600080fd5b938501935b8385101561092f57845192506132cc83612bc6565b82825293850193908501906132b7565b600082198211156132ef576132ef6131f0565b500190565b60006020828403121561330657600080fd5b5051919050565b60006020828403121561331f57600080fd5b815167ffffffffffffffff81111561333657600080fd5b8201601f8101841361334757600080fd5b8051613355612c6382612c2d565b81815285602083850101111561336a57600080fd5b61337b826020830160208601612b02565b95945050505050565b6040815260006133976040830185612b32565b90508260208301529392505050565b60008160001904831182151516156133c0576133c06131f0565b500290565b6000826133e257634e487b7160e01b600052601260045260246000fd5b500490565b6000602082840312156133f957600080fd5b81516003811061256557600080fd5b86815285602082015260c06040820152600061342760c0830187612f1c565b82810360608401526134398187612f60565b9050828103608084015261344d8186612f90565b905082810360a08401526134618185612b32565b9998505050505050505050565b6020808252602e908201527f496e697469616c697a61626c653a20636f6e747261637420697320616c72656160408201526d191e481a5b9a5d1a585b1a5e995960921b606082015260800190565b6020808252602b908201527f496e697469616c697a61626c653a20636f6e7472616374206973206e6f74206960408201526a6e697469616c697a696e6760a81b60608201526080019056fea26469706673582212209af397bd2dd8c44079d28d44d3191e8539a1afbd42d5b0319b0b6a61aa10806d64736f6c634300080d0033496e697469616c697a61626c653a20636f6e747261637420697320616c726561",
  "linkReferences": {},
  "deployedLinkReferences": {}
}