{
  "address": "0xc4B4D0d7F88D3443Ae6651b91962781018c057fe",
  "abi": [
    {
      "anonymous": false,
      "inputs": [
        {
          "indexed": false,
          "internalType": "uint8",
          "name": "version",
          "type": "uint8"
        }
      ],
      "name": "Initialized",
      "type": "event"
    },
    {
      "anonymous": false,
      "inputs": [
        {
          "indexed": true,
          "internalType": "address",
          "name": "previousOwner",
          "type": "address"
        },
        {
          "indexed": true,
          "internalType": "address",
          "name": "newOwner",
          "type": "address"
        }
      ],
      "name": "OwnershipTransferred",
      "type": "event"
    },
    {
      "anonymous": false,
      "inputs": [
        {
          "indexed": false,
          "internalType": "uint256",
          "name": "proposalId",
          "type": "uint256"
        },
        {
          "indexed": false,
          "internalType": "uint256",
          "name": "quorum",
          "type": "uint256"
        },
        {
          "indexed": false,
          "internalType": "address[]",
          "name": "targets",
          "type": "address[]"
        },
        {
          "indexed": false,
          "internalType": "uint256[]",
          "name": "values",
          "type": "uint256[]"
        },
        {
          "indexed": false,
          "internalType": "bytes[]",
          "name": "calldatas",
          "type": "bytes[]"
        },
        {
          "indexed": false,
          "internalType": "string",
          "name": "description",
          "type": "string"
        }
      ],
      "name": "ProposalCreated",
      "type": "event"
    },
    {
      "anonymous": false,
      "inputs": [
        {
          "indexed": false,
          "internalType": "uint256",
          "name": "proposalId",
          "type": "uint256"
        }
      ],
      "name": "ProposalExecuted",
      "type": "event"
    },
    {
      "anonymous": false,
      "inputs": [
        {
          "indexed": false,
          "internalType": "address",
          "name": "voter",
          "type": "address"
        },
        {
          "indexed": false,
          "internalType": "uint256",
          "name": "proposalId",
          "type": "uint256"
        },
        {
          "indexed": false,
          "internalType": "uint256",
          "name": "votes",
          "type": "uint256"
        }
      ],
      "name": "VoteCast",
      "type": "event"
    },
    {
      "inputs": [
        {
          "internalType": "uint256",
          "name": "proposalId",
          "type": "uint256"
        }
      ],
      "name": "castVote",
      "outputs": [],
      "stateMutability": "nonpayable",
      "type": "function"
    },
    {
      "inputs": [
        {
          "internalType": "uint256",
          "name": "duration",
          "type": "uint256"
        },
        {
          "internalType": "uint256",
          "name": "quorum",
          "type": "uint256"
        },
        {
          "components": [
            {
              "internalType": "string",
              "name": "metadataURI",
              "type": "string"
            },
            {
              "internalType": "uint256",
              "name": "price",
              "type": "uint256"
            },
            {
              "internalType": "uint256",
              "name": "hardcap",
              "type": "uint256"
            },
            {
              "internalType": "uint256",
              "name": "softcap",
              "type": "uint256"
            },
            {
              "internalType": "uint256",
              "name": "minPurchase",
              "type": "uint256"
            },
            {
              "internalType": "uint256",
              "name": "maxPurchase",
              "type": "uint256"
            },
            {
              "internalType": "uint256",
              "name": "lockupPercent",
              "type": "uint256"
            },
            {
              "internalType": "uint256",
              "name": "duration",
              "type": "uint256"
            }
          ],
          "internalType": "struct ITGE.TGEInfo",
          "name": "info",
          "type": "tuple"
        },
        {
          "internalType": "string",
          "name": "description",
          "type": "string"
        }
      ],
      "name": "createTGEProposal",
      "outputs": [
        {
          "internalType": "uint256",
          "name": "proposalId",
          "type": "uint256"
        }
      ],
      "stateMutability": "nonpayable",
      "type": "function"
    },
    {
      "inputs": [
        {
          "internalType": "uint256",
          "name": "duration",
          "type": "uint256"
        },
        {
          "internalType": "uint256",
          "name": "quorum",
          "type": "uint256"
        },
        {
          "internalType": "address",
          "name": "to",
          "type": "address"
        },
        {
          "internalType": "uint256",
          "name": "value",
          "type": "uint256"
        },
        {
          "internalType": "string",
          "name": "description",
          "type": "string"
        }
      ],
      "name": "createTransferETHProposal",
      "outputs": [
        {
          "internalType": "uint256",
          "name": "proposalId",
          "type": "uint256"
        }
      ],
      "stateMutability": "nonpayable",
      "type": "function"
    },
    {
      "inputs": [
        {
          "internalType": "uint256",
          "name": "proposalId",
          "type": "uint256"
        }
      ],
      "name": "execute",
      "outputs": [],
      "stateMutability": "nonpayable",
      "type": "function"
    },
    {
      "inputs": [
        {
          "internalType": "address",
          "name": "owner_",
          "type": "address"
        }
      ],
      "name": "initialize",
      "outputs": [],
      "stateMutability": "nonpayable",
      "type": "function"
    },
    {
      "inputs": [],
      "name": "lastProposalId",
      "outputs": [
        {
          "internalType": "uint256",
          "name": "",
          "type": "uint256"
        }
      ],
      "stateMutability": "view",
      "type": "function"
    },
    {
      "inputs": [],
      "name": "metadataURI",
      "outputs": [
        {
          "internalType": "string",
          "name": "",
          "type": "string"
        }
      ],
      "stateMutability": "view",
      "type": "function"
    },
    {
      "inputs": [],
      "name": "owner",
      "outputs": [
        {
          "internalType": "address",
          "name": "",
          "type": "address"
        }
      ],
      "stateMutability": "view",
      "type": "function"
    },
    {
      "inputs": [
        {
          "internalType": "uint256",
          "name": "proposalId",
          "type": "uint256"
        }
      ],
      "name": "proposalState",
      "outputs": [
        {
          "internalType": "enum Governor.ProposalState",
          "name": "",
          "type": "uint8"
        }
      ],
      "stateMutability": "view",
      "type": "function"
    },
    {
      "inputs": [
        {
          "internalType": "uint256",
          "name": "",
          "type": "uint256"
        }
      ],
      "name": "proposals",
      "outputs": [
        {
          "internalType": "uint256",
          "name": "quorum",
          "type": "uint256"
        },
        {
          "internalType": "uint256",
          "name": "startBlock",
          "type": "uint256"
        },
        {
          "internalType": "uint256",
          "name": "endBlock",
          "type": "uint256"
        },
        {
          "internalType": "uint256",
          "name": "forVotes",
          "type": "uint256"
        },
        {
          "internalType": "bool",
          "name": "executed",
          "type": "bool"
        }
      ],
      "stateMutability": "view",
      "type": "function"
    },
    {
      "inputs": [],
      "name": "renounceOwnership",
      "outputs": [],
      "stateMutability": "nonpayable",
      "type": "function"
    },
    {
      "inputs": [],
      "name": "service",
      "outputs": [
        {
          "internalType": "contract IService",
          "name": "",
          "type": "address"
        }
      ],
      "stateMutability": "view",
      "type": "function"
    },
    {
      "inputs": [
        {
          "internalType": "string",
          "name": "metadataURI_",
          "type": "string"
        }
      ],
      "name": "setMetadataURI",
      "outputs": [],
      "stateMutability": "nonpayable",
      "type": "function"
    },
    {
      "inputs": [
        {
          "internalType": "address",
          "name": "tge_",
          "type": "address"
        }
      ],
      "name": "setTGE",
      "outputs": [],
      "stateMutability": "nonpayable",
      "type": "function"
    },
    {
      "inputs": [
        {
          "internalType": "address",
          "name": "token_",
          "type": "address"
        }
      ],
      "name": "setToken",
      "outputs": [],
      "stateMutability": "nonpayable",
      "type": "function"
    },
    {
      "inputs": [],
      "name": "tge",
      "outputs": [
        {
          "internalType": "contract ITGE",
          "name": "",
          "type": "address"
        }
      ],
      "stateMutability": "view",
      "type": "function"
    },
    {
      "inputs": [],
      "name": "token",
      "outputs": [
        {
          "internalType": "contract IGovernanceToken",
          "name": "",
          "type": "address"
        }
      ],
      "stateMutability": "view",
      "type": "function"
    },
    {
      "inputs": [
        {
          "internalType": "address",
          "name": "newOwner",
          "type": "address"
        }
      ],
      "name": "transferOwnership",
      "outputs": [],
      "stateMutability": "nonpayable",
      "type": "function"
    },
    {
      "stateMutability": "payable",
      "type": "receive"
    }
  ],
  "transactionHash": "0x1a1d787be5215464111057a8b33d1181f9a2a99139ccd836e98d48885eb38143",
  "args": [],
  "numDeployments": 1,
  "solcInputHash": "a03c810e63c60b30c3e23840682a3efd",
  "bytecode": "0x608060405234801561001057600080fd5b50611f88806100206000396000f3fe60806040526004361061010d5760003560e01c8063a7497fa511610095578063da58219711610064578063da5821971461032c578063f2fde38b1461034c578063fc0c546a1461036c578063fe0902811461038c578063fe0d94c1146103ac57600080fd5b8063a7497fa51461029f578063c4d66de8146102bf578063d26331d4146102df578063d598d4c91461030c57600080fd5b8063715018a6116100dc578063715018a6146101f957806374cb30411461020e578063750521f5146102325780638da5cb5b1461025257806392aa43c01461027f57600080fd5b8063013cf08b1461011957806303ee438c14610195578063144fa6d7146101b75780633eb76b9c146101d957600080fd5b3661011457005b600080fd5b34801561012557600080fd5b50610166610134366004611907565b606560205260009081526040902080546004820154600583015460068401546007909401549293919290919060ff1685565b6040805195865260208601949094529284019190915260608301521515608082015260a0015b60405180910390f35b3480156101a157600080fd5b506101aa6103cc565b60405161018c919061197c565b3480156101c357600080fd5b506101d76101d23660046119a4565b61045a565b005b3480156101e557600080fd5b506101d76101f4366004611907565b6104c9565b34801561020557600080fd5b506101d7610670565b34801561021a57600080fd5b5061022460665481565b60405190815260200161018c565b34801561023e57600080fd5b506101d761024d366004611a8e565b6106db565b34801561025e57600080fd5b506102676107b9565b6040516001600160a01b03909116815260200161018c565b34801561028b57600080fd5b506101d761029a3660046119a4565b6107d2565b3480156102ab57600080fd5b50606954610267906001600160a01b031681565b3480156102cb57600080fd5b506101d76102da3660046119a4565b61083c565b3480156102eb57600080fd5b506102ff6102fa366004611907565b6108c5565b60405161018c9190611ae1565b34801561031857600080fd5b50606754610267906001600160a01b031681565b34801561033857600080fd5b50610224610347366004611b09565b610b00565b34801561035857600080fd5b506101d76103673660046119a4565b610bd7565b34801561037857600080fd5b50606854610267906001600160a01b031681565b34801561039857600080fd5b506102246103a7366004611b76565b610ca7565b3480156103b857600080fd5b506101d76103c7366004611907565b610dca565b606a80546103d990611c64565b80601f016020809104026020016040519081016040528092919081815260200182805461040590611c64565b80156104525780601f1061042757610100808354040283529160200191610452565b820191906000526020600020905b81548152906001019060200180831161043557829003601f168201915b505050505081565b6067546001600160a01b031633146104a75760405162461bcd60e51b815260206004820152600b60248201526a4e6f74207365727669636560a81b60448201526064015b60405180910390fd5b606880546001600160a01b0319166001600160a01b0392909216919091179055565b606854604051631092ab9160e31b81523360048201526000916001600160a01b0316906384955c8890602401602060405180830381865afa158015610512573d6000803e3d6000fd5b505050506040513d601f19601f820116820180604052508101906105369190611c98565b9050600081116105735760405162461bcd60e51b81526020600482015260086024820152674e6f20766f74657360c01b604482015260640161049e565b6068546040516370a0823160e01b815233600482018190526001600160a01b039092169163e2ab691d9183906370a0823190602401602060405180830381865afa1580156105c5573d6000803e3d6000fd5b505050506040513d601f19601f820116820180604052508101906105e99190611c98565b6000868152606560205260409081902060050154905160e085901b6001600160e01b03191681526001600160a01b03909316600484015260248301919091526044820152606401600060405180830381600087803b15801561064a57600080fd5b505af115801561065e573d6000803e3d6000fd5b5050505061066c8282611188565b5050565b336106796107b9565b6001600160a01b0316146106cf5760405162461bcd60e51b815260206004820181905260248201527f4f776e61626c653a2063616c6c6572206973206e6f7420746865206f776e6572604482015260640161049e565b6106d9600061123e565b565b606760009054906101000a90046001600160a01b03166001600160a01b0316638da5cb5b6040518163ffffffff1660e01b8152600401602060405180830381865afa15801561072e573d6000803e3d6000fd5b505050506040513d601f19601f820116820180604052508101906107529190611cb1565b6001600160a01b0316336001600160a01b0316146107a65760405162461bcd60e51b81526020600482015260116024820152702737ba1039b2b93b34b1b29037bbb732b960791b604482015260640161049e565b805161066c90606a90602084019061172f565b60006107cd6033546001600160a01b031690565b905090565b6067546001600160a01b0316331461081a5760405162461bcd60e51b815260206004820152600b60248201526a4e6f74207365727669636560a81b604482015260640161049e565b606980546001600160a01b0319166001600160a01b0392909216919091179055565b60006108486001611290565b90508015610860576000805461ff0019166101001790555b606780546001600160a01b0319163317905561087b8261123e565b801561066c576000805461ff0019169055604051600181527f7f26b83ff96e1f2b6a682f133852f6798a09c465da95921460cefb3847402498906020015b60405180910390a15050565b60008181526065602090815260408083208151610100810183528154815260018201805484518187028101870190955280855286959294858401939092919083018282801561093d57602002820191906000526020600020905b81546001600160a01b0316815260019091019060200180831161091f575b505050505081526020016002820180548060200260200160405190810160405280929190818152602001828054801561099557602002820191906000526020600020905b815481526020019060010190808311610981575b5050505050815260200160038201805480602002602001604051908101604052809291908181526020016000905b82821015610a6f5783829060005260206000200180546109e290611c64565b80601f0160208091040260200160405190810160405280929190818152602001828054610a0e90611c64565b8015610a5b5780601f10610a3057610100808354040283529160200191610a5b565b820191906000526020600020905b815481529060010190602001808311610a3e57829003601f168201915b5050505050815260200190600101906109c3565b5050509082525060048201546020820152600582015460408201526006820154606082015260079091015460ff16151560809091015260e081015190915015610abb5750600292915050565b608081015115801590610ad25750438160a0015111155b8015610ae35750805160c082015110155b15610af15750600192915050565b50600092915050565b50919050565b6068546040516370a0823160e01b815233600482015260009182916001600160a01b03909116906370a0823190602401602060405180830381865afa158015610b4d573d6000803e3d6000fd5b505050506040513d601f19601f82011682018060405250810190610b719190611c98565b11610bb05760405162461bcd60e51b815260206004820152600f60248201526e2737ba1039b430b932b437b63232b960891b604482015260640161049e565b610bcd868686866040518060200160405280600081525087611318565b9695505050505050565b33610be06107b9565b6001600160a01b031614610c365760405162461bcd60e51b815260206004820181905260248201527f4f776e61626c653a2063616c6c6572206973206e6f7420746865206f776e6572604482015260640161049e565b6001600160a01b038116610c9b5760405162461bcd60e51b815260206004820152602660248201527f4f776e61626c653a206e6577206f776e657220697320746865207a65726f206160448201526564647265737360d01b606482015260840161049e565b610ca48161123e565b50565b6068546040516370a0823160e01b815233600482015260009182916001600160a01b03909116906370a0823190602401602060405180830381865afa158015610cf4573d6000803e3d6000fd5b505050506040513d601f19601f82011682018060405250810190610d189190611c98565b11610d575760405162461bcd60e51b815260206004820152600f60248201526e2737ba1039b430b932b437b63232b960891b604482015260640161049e565b606754604051610dc191879187916001600160a01b03169060009063c25b9e0560e01b90610d89908a90602401611cce565b60408051601f198184030181529190526020810180516001600160e01b03166001600160e01b03199093169290921790915287611318565b95945050505050565b6000818152606560209081526040808320815161010081018352815481526001820180548451818702810187019095528085529194929385840193909290830182828015610e4157602002820191906000526020600020905b81546001600160a01b03168152600190910190602001808311610e23575b5050505050815260200160028201805480602002602001604051908101604052809291908181526020018280548015610e9957602002820191906000526020600020905b815481526020019060010190808311610e85575b5050505050815260200160038201805480602002602001604051908101604052809291908181526020016000905b82821015610f73578382906000526020600020018054610ee690611c64565b80601f0160208091040260200160405190810160405280929190818152602001828054610f1290611c64565b8015610f5f5780601f10610f3457610100808354040283529160200191610f5f565b820191906000526020600020905b815481529060010190602001808311610f4257829003601f168201915b505050505081526020019060010190610ec7565b5050509082525060048201546020820152600582015460408201526006820154606082015260079091015460ff16151560809091015290506001610fb6836108c5565b6002811115610fc757610fc7611acb565b146110145760405162461bcd60e51b815260206004820152601a60248201527f50726f706f73616c20697320696e2077726f6e67207374617465000000000000604482015260640161049e565b6000828152606560209081526040808320600701805460ff191660011790558051808201909152601d81527f43616c6c20726576657274656420776974686f7574206d65737361676500000091810191909152905b82602001515181101561114f576000808460200151838151811061108f5761108f611d3f565b60200260200101516001600160a01b0316856040015184815181106110b6576110b6611d3f565b6020026020010151866060015185815181106110d4576110d4611d3f565b60200260200101516040516110e99190611d55565b60006040518083038185875af1925050503d8060008114611126576040519150601f19603f3d011682016040523d82523d6000602084013e61112b565b606091505b509150915061113b8282866114dc565b5050508061114890611d87565b9050611069565b506040518381527f712ae1383f79ac853f8d882153778e0260ef8f03b504e2866e0593e04d2b291f9060200160405180910390a1505050565b60008281526065602052604090206005015443106111da5760405162461bcd60e51b815260206004820152600f60248201526e159bdd1a5b99c8199a5b9a5cda1959608a1b604482015260640161049e565b600082815260656020526040812060060180548392906111fb908490611da0565b909155505060408051338152602081018490529081018290527fb4cfecf70861b7b150d8337780d34fb4cbc2114b5fb1fe51a5c5fca1849f7274906060016108b9565b603380546001600160a01b038381166001600160a01b0319831681179093556040519116919082907f8be0079c531659141344cd1fd0a4f28419497f9722a3daafe3b4186f6b6457e090600090a35050565b60008054610100900460ff16156112d7578160ff1660011480156112b35750303b155b6112cf5760405162461bcd60e51b815260040161049e90611db8565b506000919050565b60005460ff8084169116106112fe5760405162461bcd60e51b815260040161049e90611db8565b506000805460ff191660ff92909216919091179055600190565b600080606960009054906101000a90046001600160a01b03166001600160a01b031663c19d93fb6040518163ffffffff1660e01b8152600401602060405180830381865afa15801561136e573d6000803e3d6000fd5b505050506040513d601f19601f820116820180604052508101906113929190611e06565b60028111156113a3576113a3611acb565b036113e15760405162461bcd60e51b815260206004820152600e60248201526d486173206163746976652054474560901b604482015260640161049e565b60408051600180825281830190925260009160208083019080368337019050509050858160008151811061141757611417611d3f565b6001600160a01b039290921660209283029190910190910152604080516001808252818301909252600091816020016020820280368337019050509050858160008151811061146857611468611d3f565b6020908102919091010152604080516001808252818301909252600091816020015b606081526020019060019003908161148a57905050905085816000815181106114b5576114b5611d3f565b60200260200101819052506114ce8a8a8585858a61151c565b9a9950505050505050505050565b606083156114eb575081611515565b8251156114fb5782518084602001fd5b8160405162461bcd60e51b815260040161049e919061197c565b9392505050565b6066546000908152606560205260408120600501544310156115805760405162461bcd60e51b815260206004820152601b60248201527f416c726561647920686173206163746976652070726f706f73616c0000000000604482015260640161049e565b60666000815461158f90611d87565b919050819055905060405180610100016040528087815260200186815260200185815260200184815260200143815260200188436115cd9190611da0565b815260006020808301829052604092830182905284825260658152919020825181558282015180519192611609926001850192909101906117b3565b5060408201518051611625916002840191602090910190611808565b5060608201518051611641916003840191602090910190611842565b506080820151600482015560a0820151600582015560c0820151600682015560e0909101516007909101805460ff1916911515919091179055611683816116ce565b7fbd5cfa3a6d750f3995a6e4c6f70b1d01187c16a6fcfcd3bbe400ecf361b756ba8187878787876040516116bc96959493929190611eb7565b60405180910390a19695505050505050565b606754604051630ffb246960e21b8152600481018390526001600160a01b0390911690633fec91a490602401600060405180830381600087803b15801561171457600080fd5b505af1158015611728573d6000803e3d6000fd5b5050505050565b82805461173b90611c64565b90600052602060002090601f01602090048101928261175d57600085556117a3565b82601f1061177657805160ff19168380011785556117a3565b828001600101855582156117a3579182015b828111156117a3578251825591602001919060010190611788565b506117af92915061189b565b5090565b8280548282559060005260206000209081019282156117a3579160200282015b828111156117a357825182546001600160a01b0319166001600160a01b039091161782556020909201916001909101906117d3565b8280548282559060005260206000209081019282156117a357916020028201828111156117a3578251825591602001919060010190611788565b82805482825590600052602060002090810192821561188f579160200282015b8281111561188f578251805161187f91849160209091019061172f565b5091602001919060010190611862565b506117af9291506118b0565b5b808211156117af576000815560010161189c565b808211156117af5760006118c482826118cd565b506001016118b0565b5080546118d990611c64565b6000825580601f106118e9575050565b601f016020900490600052602060002090810190610ca4919061189b565b60006020828403121561191957600080fd5b5035919050565b60005b8381101561193b578181015183820152602001611923565b8381111561194a576000848401525b50505050565b60008151808452611968816020860160208601611920565b601f01601f19169290920160200192915050565b6020815260006115156020830184611950565b6001600160a01b0381168114610ca457600080fd5b6000602082840312156119b657600080fd5b81356115158161198f565b634e487b7160e01b600052604160045260246000fd5b604051610100810167ffffffffffffffff811182821017156119fb576119fb6119c1565b60405290565b600082601f830112611a1257600080fd5b813567ffffffffffffffff80821115611a2d57611a2d6119c1565b604051601f8301601f19908116603f01168101908282118183101715611a5557611a556119c1565b81604052838152866020858801011115611a6e57600080fd5b836020870160208301376000602085830101528094505050505092915050565b600060208284031215611aa057600080fd5b813567ffffffffffffffff811115611ab757600080fd5b611ac384828501611a01565b949350505050565b634e487b7160e01b600052602160045260246000fd5b6020810160038310611b0357634e487b7160e01b600052602160045260246000fd5b91905290565b600080600080600060a08688031215611b2157600080fd5b85359450602086013593506040860135611b3a8161198f565b925060608601359150608086013567ffffffffffffffff811115611b5d57600080fd5b611b6988828901611a01565b9150509295509295909350565b60008060008060808587031215611b8c57600080fd5b8435935060208501359250604085013567ffffffffffffffff80821115611bb257600080fd5b908601906101008289031215611bc757600080fd5b611bcf6119d7565b823582811115611bde57600080fd5b611bea8a828601611a01565b8252506020830135602082015260408301356040820152606083013560608201526080830135608082015260a083013560a082015260c083013560c082015260e083013560e0820152809450506060870135915080821115611c4b57600080fd5b50611c5887828801611a01565b91505092959194509250565b600181811c90821680611c7857607f821691505b602082108103610afa57634e487b7160e01b600052602260045260246000fd5b600060208284031215611caa57600080fd5b5051919050565b600060208284031215611cc357600080fd5b81516115158161198f565b6020815260008251610100806020850152611ced610120850183611950565b9150602085015160408501526040850151606085015260608501516080850152608085015160a085015260a085015160c085015260c085015160e085015260e085015181850152508091505092915050565b634e487b7160e01b600052603260045260246000fd5b60008251611d67818460208701611920565b9190910192915050565b634e487b7160e01b600052601160045260246000fd5b600060018201611d9957611d99611d71565b5060010190565b60008219821115611db357611db3611d71565b500190565b6020808252602e908201527f496e697469616c697a61626c653a20636f6e747261637420697320616c72656160408201526d191e481a5b9a5d1a585b1a5e995960921b606082015260800190565b600060208284031215611e1857600080fd5b81516003811061151557600080fd5b600081518084526020808501945080840160005b83811015611e5757815187529582019590820190600101611e3b565b509495945050505050565b600081518084526020808501808196508360051b8101915082860160005b85811015611eaa578284038952611e98848351611950565b98850198935090840190600101611e80565b5091979650505050505050565b600060c082018883526020888185015260c0604085015281885180845260e086019150828a01935060005b81811015611f075784516001600160a01b031683529383019391830191600101611ee2565b50508481036060860152611f1b8189611e27565b925050508281036080840152611f318186611e62565b905082810360a0840152611f458185611950565b999850505050505050505056fea2646970667358221220a35af4406a4d9640c0ba94ce1256acaf5f6a235e2b32149c11392724aa2848da64736f6c634300080d0033",
  "devdoc": {
    "kind": "dev",
    "methods": {
      "renounceOwnership()": {
        "details": "Leaves the contract without owner. It will not be possible to call `onlyOwner` functions anymore. Can only be called by the current owner. NOTE: Renouncing ownership will leave the contract without an owner, thereby removing any functionality that is only available to the owner."
      },
      "transferOwnership(address)": {
        "details": "Transfers ownership of the contract to a new account (`newOwner`). Can only be called by the current owner."
      }
    },
    "version": 1
  },
  "userdoc": {
    "kind": "user",
    "methods": {},
    "version": 1
  },
  "storageLayout": {
    "storage": [
      {
        "astId": 208,
        "contract": "contracts/Pool.sol:Pool",
        "label": "_initialized",
        "offset": 0,
        "slot": "0",
        "type": "t_uint8"
      },
      {
        "astId": 211,
        "contract": "contracts/Pool.sol:Pool",
        "label": "_initializing",
        "offset": 1,
        "slot": "0",
        "type": "t_bool"
      },
      {
        "astId": 2312,
        "contract": "contracts/Pool.sol:Pool",
        "label": "__gap",
        "offset": 0,
        "slot": "1",
        "type": "t_array(t_uint256)50_storage"
      },
      {
        "astId": 10,
        "contract": "contracts/Pool.sol:Pool",
        "label": "_owner",
        "offset": 0,
        "slot": "51",
        "type": "t_address"
      },
      {
        "astId": 122,
        "contract": "contracts/Pool.sol:Pool",
        "label": "__gap",
        "offset": 0,
        "slot": "52",
        "type": "t_array(t_uint256)49_storage"
      },
      {
        "astId": 6177,
        "contract": "contracts/Pool.sol:Pool",
        "label": "proposals",
        "offset": 0,
        "slot": "101",
        "type": "t_mapping(t_uint256,t_struct(Proposal)6172_storage)"
      },
      {
        "astId": 6179,
        "contract": "contracts/Pool.sol:Pool",
        "label": "lastProposalId",
        "offset": 0,
        "slot": "102",
        "type": "t_uint256"
      },
      {
        "astId": 4925,
        "contract": "contracts/Pool.sol:Pool",
        "label": "service",
        "offset": 0,
        "slot": "103",
        "type": "t_contract(IService)6612"
      },
      {
        "astId": 4928,
        "contract": "contracts/Pool.sol:Pool",
        "label": "token",
        "offset": 0,
        "slot": "104",
        "type": "t_contract(IGovernanceToken)6548"
      },
      {
        "astId": 4931,
        "contract": "contracts/Pool.sol:Pool",
        "label": "tge",
        "offset": 0,
        "slot": "105",
        "type": "t_contract(ITGE)6670"
      },
      {
        "astId": 4933,
        "contract": "contracts/Pool.sol:Pool",
        "label": "metadataURI",
        "offset": 0,
        "slot": "106",
        "type": "t_string_storage"
      }
    ],
    "types": {
      "t_address": {
        "encoding": "inplace",
        "label": "address",
        "numberOfBytes": "20"
      },
      "t_array(t_address)dyn_storage": {
        "base": "t_address",
        "encoding": "dynamic_array",
        "label": "address[]",
        "numberOfBytes": "32"
      },
      "t_array(t_bytes_storage)dyn_storage": {
        "base": "t_bytes_storage",
        "encoding": "dynamic_array",
        "label": "bytes[]",
        "numberOfBytes": "32"
      },
      "t_array(t_uint256)49_storage": {
        "base": "t_uint256",
        "encoding": "inplace",
        "label": "uint256[49]",
        "numberOfBytes": "1568"
      },
      "t_array(t_uint256)50_storage": {
        "base": "t_uint256",
        "encoding": "inplace",
        "label": "uint256[50]",
        "numberOfBytes": "1600"
      },
      "t_array(t_uint256)dyn_storage": {
        "base": "t_uint256",
        "encoding": "dynamic_array",
        "label": "uint256[]",
        "numberOfBytes": "32"
      },
      "t_bool": {
        "encoding": "inplace",
        "label": "bool",
        "numberOfBytes": "1"
      },
      "t_bytes_storage": {
        "encoding": "bytes",
        "label": "bytes",
        "numberOfBytes": "32"
      },
      "t_contract(IGovernanceToken)6548": {
        "encoding": "inplace",
        "label": "contract IGovernanceToken",
        "numberOfBytes": "20"
      },
      "t_contract(IService)6612": {
        "encoding": "inplace",
        "label": "contract IService",
        "numberOfBytes": "20"
      },
      "t_contract(ITGE)6670": {
        "encoding": "inplace",
        "label": "contract ITGE",
        "numberOfBytes": "20"
      },
      "t_mapping(t_uint256,t_struct(Proposal)6172_storage)": {
        "encoding": "mapping",
        "key": "t_uint256",
        "label": "mapping(uint256 => struct Governor.Proposal)",
        "numberOfBytes": "32",
        "value": "t_struct(Proposal)6172_storage"
      },
      "t_string_storage": {
        "encoding": "bytes",
        "label": "string",
        "numberOfBytes": "32"
      },
      "t_struct(Proposal)6172_storage": {
        "encoding": "inplace",
        "label": "struct Governor.Proposal",
        "members": [
          {
            "astId": 6154,
            "contract": "contracts/Pool.sol:Pool",
            "label": "quorum",
            "offset": 0,
            "slot": "0",
            "type": "t_uint256"
          },
          {
            "astId": 6157,
            "contract": "contracts/Pool.sol:Pool",
            "label": "targets",
            "offset": 0,
            "slot": "1",
            "type": "t_array(t_address)dyn_storage"
          },
          {
            "astId": 6160,
            "contract": "contracts/Pool.sol:Pool",
            "label": "values",
            "offset": 0,
            "slot": "2",
            "type": "t_array(t_uint256)dyn_storage"
          },
          {
            "astId": 6163,
            "contract": "contracts/Pool.sol:Pool",
            "label": "calldatas",
            "offset": 0,
            "slot": "3",
            "type": "t_array(t_bytes_storage)dyn_storage"
          },
          {
            "astId": 6165,
            "contract": "contracts/Pool.sol:Pool",
            "label": "startBlock",
            "offset": 0,
            "slot": "4",
            "type": "t_uint256"
          },
          {
            "astId": 6167,
            "contract": "contracts/Pool.sol:Pool",
            "label": "endBlock",
            "offset": 0,
            "slot": "5",
            "type": "t_uint256"
          },
          {
            "astId": 6169,
            "contract": "contracts/Pool.sol:Pool",
            "label": "forVotes",
            "offset": 0,
            "slot": "6",
            "type": "t_uint256"
          },
          {
            "astId": 6171,
            "contract": "contracts/Pool.sol:Pool",
            "label": "executed",
            "offset": 0,
            "slot": "7",
            "type": "t_bool"
          }
        ],
        "numberOfBytes": "256"
      },
      "t_uint256": {
        "encoding": "inplace",
        "label": "uint256",
        "numberOfBytes": "32"
      },
      "t_uint8": {
        "encoding": "inplace",
        "label": "uint8",
        "numberOfBytes": "1"
      }
    }
  }
}