{
  "address": "0x4bCeD141B104d7D4dfBD003490304F5eaa134C4C",
  "abi": [
    {
      "anonymous": false,
      "inputs": [
        {
          "indexed": false,
          "internalType": "uint8",
          "name": "version",
          "type": "uint8"
        }
      ],
      "name": "Initialized",
      "type": "event"
    },
    {
      "anonymous": false,
      "inputs": [
        {
          "indexed": true,
          "internalType": "address",
          "name": "previousOwner",
          "type": "address"
        },
        {
          "indexed": true,
          "internalType": "address",
          "name": "newOwner",
          "type": "address"
        }
      ],
      "name": "OwnershipTransferred",
      "type": "event"
    },
    {
      "anonymous": false,
      "inputs": [
        {
          "indexed": false,
          "internalType": "uint256",
          "name": "proposalId",
          "type": "uint256"
        },
        {
          "indexed": false,
          "internalType": "uint256",
          "name": "quorum",
          "type": "uint256"
        },
        {
          "indexed": false,
          "internalType": "address[]",
          "name": "targets",
          "type": "address[]"
        },
        {
          "indexed": false,
          "internalType": "uint256[]",
          "name": "values",
          "type": "uint256[]"
        },
        {
          "indexed": false,
          "internalType": "bytes[]",
          "name": "calldatas",
          "type": "bytes[]"
        },
        {
          "indexed": false,
          "internalType": "string",
          "name": "description",
          "type": "string"
        }
      ],
      "name": "ProposalCreated",
      "type": "event"
    },
    {
      "anonymous": false,
      "inputs": [
        {
          "indexed": false,
          "internalType": "uint256",
          "name": "proposalId",
          "type": "uint256"
        }
      ],
      "name": "ProposalExecuted",
      "type": "event"
    },
    {
      "anonymous": false,
      "inputs": [
        {
          "indexed": false,
          "internalType": "address",
          "name": "voter",
          "type": "address"
        },
        {
          "indexed": false,
          "internalType": "uint256",
          "name": "proposalId",
          "type": "uint256"
        },
        {
          "indexed": false,
          "internalType": "uint256",
          "name": "votes",
          "type": "uint256"
        }
      ],
      "name": "VoteCast",
      "type": "event"
    },
    {
      "inputs": [
        {
          "internalType": "uint256",
          "name": "",
          "type": "uint256"
        },
        {
          "internalType": "address",
          "name": "",
          "type": "address"
        }
      ],
      "name": "ballots",
      "outputs": [
        {
          "internalType": "bool",
          "name": "",
          "type": "bool"
        }
      ],
      "stateMutability": "view",
      "type": "function"
    },
    {
      "inputs": [
        {
          "internalType": "uint256",
          "name": "proposalId",
          "type": "uint256"
        }
      ],
      "name": "castVote",
      "outputs": [],
      "stateMutability": "nonpayable",
      "type": "function"
    },
    {
      "inputs": [
        {
          "internalType": "uint256",
          "name": "duration",
          "type": "uint256"
        },
        {
          "internalType": "uint256",
          "name": "quorum",
          "type": "uint256"
        },
        {
          "components": [
            {
              "internalType": "string",
              "name": "metadataURI",
              "type": "string"
            },
            {
              "internalType": "uint256",
              "name": "price",
              "type": "uint256"
            },
            {
              "internalType": "uint256",
              "name": "hardcap",
              "type": "uint256"
            },
            {
              "internalType": "uint256",
              "name": "softcap",
              "type": "uint256"
            },
            {
              "internalType": "uint256",
              "name": "minPurchase",
              "type": "uint256"
            },
            {
              "internalType": "uint256",
              "name": "maxPurchase",
              "type": "uint256"
            },
            {
              "internalType": "uint256",
              "name": "lockupPercent",
              "type": "uint256"
            },
            {
              "internalType": "uint256",
              "name": "duration",
              "type": "uint256"
            }
          ],
          "internalType": "struct ITGE.TGEInfo",
          "name": "info",
          "type": "tuple"
        },
        {
          "internalType": "string",
          "name": "description",
          "type": "string"
        }
      ],
      "name": "createTGEProposal",
      "outputs": [
        {
          "internalType": "uint256",
          "name": "proposalId",
          "type": "uint256"
        }
      ],
      "stateMutability": "nonpayable",
      "type": "function"
    },
    {
      "inputs": [
        {
          "internalType": "uint256",
          "name": "duration",
          "type": "uint256"
        },
        {
          "internalType": "uint256",
          "name": "quorum",
          "type": "uint256"
        },
        {
          "internalType": "address",
          "name": "to",
          "type": "address"
        },
        {
          "internalType": "uint256",
          "name": "value",
          "type": "uint256"
        },
        {
          "internalType": "string",
          "name": "description",
          "type": "string"
        }
      ],
      "name": "createTransferETHProposal",
      "outputs": [
        {
          "internalType": "uint256",
          "name": "proposalId",
          "type": "uint256"
        }
      ],
      "stateMutability": "nonpayable",
      "type": "function"
    },
    {
      "inputs": [
        {
          "internalType": "uint256",
          "name": "proposalId",
          "type": "uint256"
        }
      ],
      "name": "execute",
      "outputs": [],
      "stateMutability": "nonpayable",
      "type": "function"
    },
    {
      "inputs": [
        {
          "internalType": "address",
          "name": "owner_",
          "type": "address"
        }
      ],
      "name": "initialize",
      "outputs": [],
      "stateMutability": "nonpayable",
      "type": "function"
    },
    {
      "inputs": [],
      "name": "lastProposalId",
      "outputs": [
        {
          "internalType": "uint256",
          "name": "",
          "type": "uint256"
        }
      ],
      "stateMutability": "view",
      "type": "function"
    },
    {
      "inputs": [],
      "name": "owner",
      "outputs": [
        {
          "internalType": "address",
          "name": "",
          "type": "address"
        }
      ],
      "stateMutability": "view",
      "type": "function"
    },
    {
      "inputs": [
        {
          "internalType": "uint256",
          "name": "",
          "type": "uint256"
        }
      ],
      "name": "proposals",
      "outputs": [
        {
          "internalType": "uint256",
          "name": "quorum",
          "type": "uint256"
        },
        {
          "internalType": "uint256",
          "name": "startBlock",
          "type": "uint256"
        },
        {
          "internalType": "uint256",
          "name": "endBlock",
          "type": "uint256"
        },
        {
          "internalType": "uint256",
          "name": "forVotes",
          "type": "uint256"
        },
        {
          "internalType": "bool",
          "name": "executed",
          "type": "bool"
        }
      ],
      "stateMutability": "view",
      "type": "function"
    },
    {
      "inputs": [],
      "name": "renounceOwnership",
      "outputs": [],
      "stateMutability": "nonpayable",
      "type": "function"
    },
    {
      "inputs": [],
      "name": "service",
      "outputs": [
        {
          "internalType": "contract IService",
          "name": "",
          "type": "address"
        }
      ],
      "stateMutability": "view",
      "type": "function"
    },
    {
      "inputs": [
        {
          "internalType": "address",
          "name": "tge_",
          "type": "address"
        }
      ],
      "name": "setTGE",
      "outputs": [],
      "stateMutability": "nonpayable",
      "type": "function"
    },
    {
      "inputs": [
        {
          "internalType": "address",
          "name": "token_",
          "type": "address"
        }
      ],
      "name": "setToken",
      "outputs": [],
      "stateMutability": "nonpayable",
      "type": "function"
    },
    {
      "inputs": [],
      "name": "tge",
      "outputs": [
        {
          "internalType": "contract ITGE",
          "name": "",
          "type": "address"
        }
      ],
      "stateMutability": "view",
      "type": "function"
    },
    {
      "inputs": [],
      "name": "token",
      "outputs": [
        {
          "internalType": "contract IGovernanceToken",
          "name": "",
          "type": "address"
        }
      ],
      "stateMutability": "view",
      "type": "function"
    },
    {
      "inputs": [
        {
          "internalType": "address",
          "name": "newOwner",
          "type": "address"
        }
      ],
      "name": "transferOwnership",
      "outputs": [],
      "stateMutability": "nonpayable",
      "type": "function"
    },
    {
      "stateMutability": "payable",
      "type": "receive"
    }
  ],
  "transactionHash": "0xc470f2b63ef0dc6343a80bfd2a7bd464c20a228e511f301adfa3e3486c6926ed",
  "args": [],
  "numDeployments": 1,
  "solcInputHash": "3da88f1ba9e4486f297fae8df5eca67f",
  "bytecode": "0x608060405234801561001057600080fd5b50611be5806100206000396000f3fe6080604052600436106100f75760003560e01c8063a7497fa51161008a578063f2fde38b11610059578063f2fde38b14610312578063fc0c546a14610332578063fe09028114610352578063fe0d94c11461037257600080fd5b8063a7497fa514610292578063c4d66de8146102b2578063d598d4c9146102d2578063da582197146102f257600080fd5b806374cb3041116100c657806374cb3041146101d65780637f7bc23a146101fa5780638da5cb5b1461024557806392aa43c01461027257600080fd5b8063013cf08b14610103578063144fa6d71461017f5780633eb76b9c146101a1578063715018a6146101c157600080fd5b366100fe57005b600080fd5b34801561010f57600080fd5b5061015061011e3660046115b6565b606560205260009081526040902080546004820154600583015460068401546007909401549293919290919060ff1685565b6040805195865260208601949094529284019190915260608301521515608082015260a0015b60405180910390f35b34801561018b57600080fd5b5061019f61019a3660046115e6565b610392565b005b3480156101ad57600080fd5b5061019f6101bc3660046115b6565b610401565b3480156101cd57600080fd5b5061019f610538565b3480156101e257600080fd5b506101ec60675481565b604051908152602001610176565b34801561020657600080fd5b50610235610215366004611601565b606660209081526000928352604080842090915290825290205460ff1681565b6040519015158152602001610176565b34801561025157600080fd5b5061025a6105a3565b6040516001600160a01b039091168152602001610176565b34801561027e57600080fd5b5061019f61028d3660046115e6565b6105bc565b34801561029e57600080fd5b50606a5461025a906001600160a01b031681565b3480156102be57600080fd5b5061019f6102cd3660046115e6565b610626565b3480156102de57600080fd5b5060685461025a906001600160a01b031681565b3480156102fe57600080fd5b506101ec61030d3660046116fa565b6106af565b34801561031e57600080fd5b5061019f61032d3660046115e6565b610786565b34801561033e57600080fd5b5060695461025a906001600160a01b031681565b34801561035e57600080fd5b506101ec61036d366004611765565b610856565b34801561037e57600080fd5b5061019f61038d3660046115b6565b610979565b6068546001600160a01b031633146103df5760405162461bcd60e51b815260206004820152600b60248201526a4e6f74207365727669636560a81b60448201526064015b60405180910390fd5b606980546001600160a01b0319166001600160a01b0392909216919091179055565b606954604051631092ab9160e31b81523360048201526000916001600160a01b0316906384955c8890602401602060405180830381865afa15801561044a573d6000803e3d6000fd5b505050506040513d601f19601f8201168201806040525081019061046e9190611853565b9050600081116104ab5760405162461bcd60e51b81526020600482015260086024820152674e6f20766f74657360c01b60448201526064016103d6565b6069546000838152606560205260409081902060050154905163e2ab691d60e01b81523360048201526024810184905260448101919091526001600160a01b039091169063e2ab691d90606401600060405180830381600087803b15801561051257600080fd5b505af1158015610526573d6000803e3d6000fd5b505050506105348282610db5565b5050565b336105416105a3565b6001600160a01b0316146105975760405162461bcd60e51b815260206004820181905260248201527f4f776e61626c653a2063616c6c6572206973206e6f7420746865206f776e657260448201526064016103d6565b6105a16000610ee8565b565b60006105b76033546001600160a01b031690565b905090565b6068546001600160a01b031633146106045760405162461bcd60e51b815260206004820152600b60248201526a4e6f74207365727669636560a81b60448201526064016103d6565b606a80546001600160a01b0319166001600160a01b0392909216919091179055565b60006106326001610f3a565b9050801561064a576000805461ff0019166101001790555b606880546001600160a01b0319163317905561066582610ee8565b8015610534576000805461ff0019169055604051600181527f7f26b83ff96e1f2b6a682f133852f6798a09c465da95921460cefb3847402498906020015b60405180910390a15050565b6069546040516370a0823160e01b815233600482015260009182916001600160a01b03909116906370a0823190602401602060405180830381865afa1580156106fc573d6000803e3d6000fd5b505050506040513d601f19601f820116820180604052508101906107209190611853565b1161075f5760405162461bcd60e51b815260206004820152600f60248201526e2737ba1039b430b932b437b63232b960891b60448201526064016103d6565b61077c868686866040518060200160405280600081525087610fc7565b9695505050505050565b3361078f6105a3565b6001600160a01b0316146107e55760405162461bcd60e51b815260206004820181905260248201527f4f776e61626c653a2063616c6c6572206973206e6f7420746865206f776e657260448201526064016103d6565b6001600160a01b03811661084a5760405162461bcd60e51b815260206004820152602660248201527f4f776e61626c653a206e6577206f776e657220697320746865207a65726f206160448201526564647265737360d01b60648201526084016103d6565b61085381610ee8565b50565b6069546040516370a0823160e01b815233600482015260009182916001600160a01b03909116906370a0823190602401602060405180830381865afa1580156108a3573d6000803e3d6000fd5b505050506040513d601f19601f820116820180604052508101906108c79190611853565b116109065760405162461bcd60e51b815260206004820152600f60248201526e2737ba1039b430b932b437b63232b960891b60448201526064016103d6565b60685460405161097091879187916001600160a01b03169060009063c25b9e0560e01b90610938908a906024016118c8565b60408051601f198184030181529190526020810180516001600160e01b03166001600160e01b03199093169290921790915287610fc7565b95945050505050565b60008181526065602090815260408083208151610100810183528154815260018201805484518187028101870190955280855291949293858401939092908301828280156109f057602002820191906000526020600020905b81546001600160a01b031681526001909101906020018083116109d2575b5050505050815260200160028201805480602002602001604051908101604052809291908181526020018280548015610a4857602002820191906000526020600020905b815481526020019060010190808311610a34575b5050505050815260200160038201805480602002602001604051908101604052809291908181526020016000905b82821015610b22578382906000526020600020018054610a9590611939565b80601f0160208091040260200160405190810160405280929190818152602001828054610ac190611939565b8015610b0e5780601f10610ae357610100808354040283529160200191610b0e565b820191906000526020600020905b815481529060010190602001808311610af157829003601f168201915b505050505081526020019060010190610a76565b5050509082525060048201546020820152600582015460408201526006820154606082015260079091015460ff161515608091820152810151909150600003610bad5760405162461bcd60e51b815260206004820152601760248201527f50726f706f73616c20646f6573206e6f7420657869737400000000000000000060448201526064016103d6565b438160a001511115610bf75760405162461bcd60e51b8152602060048201526013602482015272159bdd1a5b99c81b9bdd08199a5b9a5cda1959606a1b60448201526064016103d6565b805160c08201511015610c415760405162461bcd60e51b8152602060048201526012602482015271145d5bdc9d5b481b9bdd081c995858da195960721b60448201526064016103d6565b6000828152606560209081526040808320600701805460ff191660011790558051808201909152601d81527f43616c6c20726576657274656420776974686f7574206d65737361676500000091810191909152905b826020015151811015610d7c5760008084602001518381518110610cbc57610cbc611973565b60200260200101516001600160a01b031685604001518481518110610ce357610ce3611973565b602002602001015186606001518581518110610d0157610d01611973565b6020026020010151604051610d169190611989565b60006040518083038185875af1925050503d8060008114610d53576040519150601f19603f3d011682016040523d82523d6000602084013e610d58565b606091505b5091509150610d6882828661118b565b50505080610d75906119bb565b9050610c96565b506040518381527f712ae1383f79ac853f8d882153778e0260ef8f03b504e2866e0593e04d2b291f9060200160405180910390a1505050565b6000828152606560205260409020600501544310610e075760405162461bcd60e51b815260206004820152600f60248201526e159bdd1a5b99c8199a5b9a5cda1959608a1b60448201526064016103d6565b600082815260666020908152604080832033845290915290205460ff1615610e615760405162461bcd60e51b815260206004820152600d60248201526c105b1c9958591e481d9bdd1959609a1b60448201526064016103d6565b60008281526065602052604081206006018054839290610e829084906119d4565b909155505060008281526066602090815260408083203380855290835292819020805460ff19166001179055805192835290820184905281018290527fb4cfecf70861b7b150d8337780d34fb4cbc2114b5fb1fe51a5c5fca1849f7274906060016106a3565b603380546001600160a01b038381166001600160a01b0319831681179093556040519116919082907f8be0079c531659141344cd1fd0a4f28419497f9722a3daafe3b4186f6b6457e090600090a35050565b60008054610100900460ff1615610f81578160ff166001148015610f5d5750303b155b610f795760405162461bcd60e51b81526004016103d6906119ec565b506000919050565b60005460ff808416911610610fa85760405162461bcd60e51b81526004016103d6906119ec565b506000805460ff191660ff92909216919091179055600190565b919050565b600080606a60009054906101000a90046001600160a01b03166001600160a01b031663c19d93fb6040518163ffffffff1660e01b8152600401602060405180830381865afa15801561101d573d6000803e3d6000fd5b505050506040513d601f19601f820116820180604052508101906110419190611a50565b600281111561105257611052611a3a565b036110905760405162461bcd60e51b815260206004820152600e60248201526d486173206163746976652054474560901b60448201526064016103d6565b6040805160018082528183019092526000916020808301908036833701905050905085816000815181106110c6576110c6611973565b6001600160a01b039290921660209283029190910190910152604080516001808252818301909252600091816020016020820280368337019050509050858160008151811061111757611117611973565b6020908102919091010152604080516001808252818301909252600091816020015b6060815260200190600190039081611139579050509050858160008151811061116457611164611973565b602002602001018190525061117d8a8a8585858a6111cb565b9a9950505050505050505050565b6060831561119a5750816111c4565b8251156111aa5782518084602001fd5b8160405162461bcd60e51b81526004016103d69190611a71565b9392505050565b60675460009081526065602052604081206005015443101561122f5760405162461bcd60e51b815260206004820152601b60248201527f416c726561647920686173206163746976652070726f706f73616c000000000060448201526064016103d6565b60676000815461123e906119bb565b9190508190559050604051806101000160405280878152602001868152602001858152602001848152602001438152602001884361127c91906119d4565b8152600060208083018290526040928301829052848252606581529190208251815582820151805191926112b8926001850192909101906113de565b50604082015180516112d4916002840191602090910190611443565b50606082015180516112f091600384019160209091019061147e565b506080820151600482015560a0820151600582015560c0820151600682015560e0909101516007909101805460ff19169115159190911790556113328161137d565b7fbd5cfa3a6d750f3995a6e4c6f70b1d01187c16a6fcfcd3bbe400ecf361b756ba81878787878760405161136b96959493929190611b14565b60405180910390a19695505050505050565b606854604051630ffb246960e21b8152600481018390526001600160a01b0390911690633fec91a490602401600060405180830381600087803b1580156113c357600080fd5b505af11580156113d7573d6000803e3d6000fd5b5050505050565b828054828255906000526020600020908101928215611433579160200282015b8281111561143357825182546001600160a01b0319166001600160a01b039091161782556020909201916001909101906113fe565b5061143f9291506114d7565b5090565b828054828255906000526020600020908101928215611433579160200282015b82811115611433578251825591602001919060010190611463565b8280548282559060005260206000209081019282156114cb579160200282015b828111156114cb57825180516114bb9184916020909101906114ec565b509160200191906001019061149e565b5061143f92915061155f565b5b8082111561143f57600081556001016114d8565b8280546114f890611939565b90600052602060002090601f01602090048101928261151a5760008555611433565b82601f1061153357805160ff1916838001178555611433565b828001600101855582156114335791820182811115611433578251825591602001919060010190611463565b8082111561143f576000611573828261157c565b5060010161155f565b50805461158890611939565b6000825580601f10611598575050565b601f01602090049060005260206000209081019061085391906114d7565b6000602082840312156115c857600080fd5b5035919050565b80356001600160a01b0381168114610fc257600080fd5b6000602082840312156115f857600080fd5b6111c4826115cf565b6000806040838503121561161457600080fd5b82359150611624602084016115cf565b90509250929050565b634e487b7160e01b600052604160045260246000fd5b604051610100810167ffffffffffffffff811182821017156116675761166761162d565b60405290565b600082601f83011261167e57600080fd5b813567ffffffffffffffff808211156116995761169961162d565b604051601f8301601f19908116603f011681019082821181831017156116c1576116c161162d565b816040528381528660208588010111156116da57600080fd5b836020870160208301376000602085830101528094505050505092915050565b600080600080600060a0868803121561171257600080fd5b8535945060208601359350611729604087016115cf565b925060608601359150608086013567ffffffffffffffff81111561174c57600080fd5b6117588882890161166d565b9150509295509295909350565b6000806000806080858703121561177b57600080fd5b8435935060208501359250604085013567ffffffffffffffff808211156117a157600080fd5b9086019061010082890312156117b657600080fd5b6117be611643565b8235828111156117cd57600080fd5b6117d98a82860161166d565b8252506020830135602082015260408301356040820152606083013560608201526080830135608082015260a083013560a082015260c083013560c082015260e083013560e082015280945050606087013591508082111561183a57600080fd5b506118478782880161166d565b91505092959194509250565b60006020828403121561186557600080fd5b5051919050565b60005b8381101561188757818101518382015260200161186f565b83811115611896576000848401525b50505050565b600081518084526118b481602086016020860161186c565b601f01601f19169290920160200192915050565b60208152600082516101008060208501526118e761012085018361189c565b9150602085015160408501526040850151606085015260608501516080850152608085015160a085015260a085015160c085015260c085015160e085015260e085015181850152508091505092915050565b600181811c9082168061194d57607f821691505b60208210810361196d57634e487b7160e01b600052602260045260246000fd5b50919050565b634e487b7160e01b600052603260045260246000fd5b6000825161199b81846020870161186c565b9190910192915050565b634e487b7160e01b600052601160045260246000fd5b6000600182016119cd576119cd6119a5565b5060010190565b600082198211156119e7576119e76119a5565b500190565b6020808252602e908201527f496e697469616c697a61626c653a20636f6e747261637420697320616c72656160408201526d191e481a5b9a5d1a585b1a5e995960921b606082015260800190565b634e487b7160e01b600052602160045260246000fd5b600060208284031215611a6257600080fd5b8151600381106111c457600080fd5b6020815260006111c4602083018461189c565b600081518084526020808501945080840160005b83811015611ab457815187529582019590820190600101611a98565b509495945050505050565b600081518084526020808501808196508360051b8101915082860160005b85811015611b07578284038952611af584835161189c565b98850198935090840190600101611add565b5091979650505050505050565b600060c082018883526020888185015260c0604085015281885180845260e086019150828a01935060005b81811015611b645784516001600160a01b031683529383019391830191600101611b3f565b50508481036060860152611b788189611a84565b925050508281036080840152611b8e8186611abf565b905082810360a0840152611ba2818561189c565b999850505050505050505056fea2646970667358221220b160e15e3f4b9e6e45f7561985483be6a55e2c093566ff2f90808d85d096ac7964736f6c634300080d0033",
  "devdoc": {
    "kind": "dev",
    "methods": {
      "renounceOwnership()": {
        "details": "Leaves the contract without owner. It will not be possible to call `onlyOwner` functions anymore. Can only be called by the current owner. NOTE: Renouncing ownership will leave the contract without an owner, thereby removing any functionality that is only available to the owner."
      },
      "transferOwnership(address)": {
        "details": "Transfers ownership of the contract to a new account (`newOwner`). Can only be called by the current owner."
      }
    },
    "version": 1
  },
  "userdoc": {
    "kind": "user",
    "methods": {},
    "version": 1
  },
  "storageLayout": {
    "storage": [
      {
        "astId": 208,
        "contract": "contracts/Pool.sol:Pool",
        "label": "_initialized",
        "offset": 0,
        "slot": "0",
        "type": "t_uint8"
      },
      {
        "astId": 211,
        "contract": "contracts/Pool.sol:Pool",
        "label": "_initializing",
        "offset": 1,
        "slot": "0",
        "type": "t_bool"
      },
      {
        "astId": 2312,
        "contract": "contracts/Pool.sol:Pool",
        "label": "__gap",
        "offset": 0,
        "slot": "1",
        "type": "t_array(t_uint256)50_storage"
      },
      {
        "astId": 10,
        "contract": "contracts/Pool.sol:Pool",
        "label": "_owner",
        "offset": 0,
        "slot": "51",
        "type": "t_address"
      },
      {
        "astId": 122,
        "contract": "contracts/Pool.sol:Pool",
        "label": "__gap",
        "offset": 0,
        "slot": "52",
        "type": "t_array(t_uint256)49_storage"
      },
      {
        "astId": 6128,
        "contract": "contracts/Pool.sol:Pool",
        "label": "proposals",
        "offset": 0,
        "slot": "101",
        "type": "t_mapping(t_uint256,t_struct(Proposal)6123_storage)"
      },
      {
        "astId": 6134,
        "contract": "contracts/Pool.sol:Pool",
        "label": "ballots",
        "offset": 0,
        "slot": "102",
        "type": "t_mapping(t_uint256,t_mapping(t_address,t_bool))"
      },
      {
        "astId": 6136,
        "contract": "contracts/Pool.sol:Pool",
        "label": "lastProposalId",
        "offset": 0,
        "slot": "103",
        "type": "t_uint256"
      },
      {
        "astId": 4925,
        "contract": "contracts/Pool.sol:Pool",
        "label": "service",
        "offset": 0,
        "slot": "104",
        "type": "t_contract(IService)6543"
      },
      {
        "astId": 4928,
        "contract": "contracts/Pool.sol:Pool",
        "label": "token",
        "offset": 0,
        "slot": "105",
        "type": "t_contract(IGovernanceToken)6484"
      },
      {
        "astId": 4931,
        "contract": "contracts/Pool.sol:Pool",
        "label": "tge",
        "offset": 0,
        "slot": "106",
        "type": "t_contract(ITGE)6603"
      }
    ],
    "types": {
      "t_address": {
        "encoding": "inplace",
        "label": "address",
        "numberOfBytes": "20"
      },
      "t_array(t_address)dyn_storage": {
        "base": "t_address",
        "encoding": "dynamic_array",
        "label": "address[]",
        "numberOfBytes": "32"
      },
      "t_array(t_bytes_storage)dyn_storage": {
        "base": "t_bytes_storage",
        "encoding": "dynamic_array",
        "label": "bytes[]",
        "numberOfBytes": "32"
      },
      "t_array(t_uint256)49_storage": {
        "base": "t_uint256",
        "encoding": "inplace",
        "label": "uint256[49]",
        "numberOfBytes": "1568"
      },
      "t_array(t_uint256)50_storage": {
        "base": "t_uint256",
        "encoding": "inplace",
        "label": "uint256[50]",
        "numberOfBytes": "1600"
      },
      "t_array(t_uint256)dyn_storage": {
        "base": "t_uint256",
        "encoding": "dynamic_array",
        "label": "uint256[]",
        "numberOfBytes": "32"
      },
      "t_bool": {
        "encoding": "inplace",
        "label": "bool",
        "numberOfBytes": "1"
      },
      "t_bytes_storage": {
        "encoding": "bytes",
        "label": "bytes",
        "numberOfBytes": "32"
      },
      "t_contract(IGovernanceToken)6484": {
        "encoding": "inplace",
        "label": "contract IGovernanceToken",
        "numberOfBytes": "20"
      },
      "t_contract(IService)6543": {
        "encoding": "inplace",
        "label": "contract IService",
        "numberOfBytes": "20"
      },
      "t_contract(ITGE)6603": {
        "encoding": "inplace",
        "label": "contract ITGE",
        "numberOfBytes": "20"
      },
      "t_mapping(t_address,t_bool)": {
        "encoding": "mapping",
        "key": "t_address",
        "label": "mapping(address => bool)",
        "numberOfBytes": "32",
        "value": "t_bool"
      },
      "t_mapping(t_uint256,t_mapping(t_address,t_bool))": {
        "encoding": "mapping",
        "key": "t_uint256",
        "label": "mapping(uint256 => mapping(address => bool))",
        "numberOfBytes": "32",
        "value": "t_mapping(t_address,t_bool)"
      },
      "t_mapping(t_uint256,t_struct(Proposal)6123_storage)": {
        "encoding": "mapping",
        "key": "t_uint256",
        "label": "mapping(uint256 => struct Governor.Proposal)",
        "numberOfBytes": "32",
        "value": "t_struct(Proposal)6123_storage"
      },
      "t_struct(Proposal)6123_storage": {
        "encoding": "inplace",
        "label": "struct Governor.Proposal",
        "members": [
          {
            "astId": 6105,
            "contract": "contracts/Pool.sol:Pool",
            "label": "quorum",
            "offset": 0,
            "slot": "0",
            "type": "t_uint256"
          },
          {
            "astId": 6108,
            "contract": "contracts/Pool.sol:Pool",
            "label": "targets",
            "offset": 0,
            "slot": "1",
            "type": "t_array(t_address)dyn_storage"
          },
          {
            "astId": 6111,
            "contract": "contracts/Pool.sol:Pool",
            "label": "values",
            "offset": 0,
            "slot": "2",
            "type": "t_array(t_uint256)dyn_storage"
          },
          {
            "astId": 6114,
            "contract": "contracts/Pool.sol:Pool",
            "label": "calldatas",
            "offset": 0,
            "slot": "3",
            "type": "t_array(t_bytes_storage)dyn_storage"
          },
          {
            "astId": 6116,
            "contract": "contracts/Pool.sol:Pool",
            "label": "startBlock",
            "offset": 0,
            "slot": "4",
            "type": "t_uint256"
          },
          {
            "astId": 6118,
            "contract": "contracts/Pool.sol:Pool",
            "label": "endBlock",
            "offset": 0,
            "slot": "5",
            "type": "t_uint256"
          },
          {
            "astId": 6120,
            "contract": "contracts/Pool.sol:Pool",
            "label": "forVotes",
            "offset": 0,
            "slot": "6",
            "type": "t_uint256"
          },
          {
            "astId": 6122,
            "contract": "contracts/Pool.sol:Pool",
            "label": "executed",
            "offset": 0,
            "slot": "7",
            "type": "t_bool"
          }
        ],
        "numberOfBytes": "256"
      },
      "t_uint256": {
        "encoding": "inplace",
        "label": "uint256",
        "numberOfBytes": "32"
      },
      "t_uint8": {
        "encoding": "inplace",
        "label": "uint8",
        "numberOfBytes": "1"
      }
    }
  }
}