{
  "address": "0x4D653A2561DCC47f6Afdf1AaB6c5fC50e130E7f3",
  "abi": [
    {
      "inputs": [
        {
          "internalType": "contract IDirectory",
          "name": "directory_",
          "type": "address"
        },
        {
          "internalType": "address",
          "name": "poolMaster_",
          "type": "address"
        },
        {
          "internalType": "address",
          "name": "tokenMaster_",
          "type": "address"
        },
        {
          "internalType": "address",
          "name": "tgeMaster_",
          "type": "address"
        },
        {
          "internalType": "uint256",
          "name": "fee_",
          "type": "uint256"
        }
      ],
      "stateMutability": "nonpayable",
      "type": "constructor"
    },
    {
      "anonymous": false,
      "inputs": [
        {
          "indexed": false,
          "internalType": "uint256",
          "name": "fee",
          "type": "uint256"
        }
      ],
      "name": "FeeSet",
      "type": "event"
    },
    {
      "anonymous": false,
      "inputs": [
        {
          "indexed": true,
          "internalType": "address",
          "name": "previousOwner",
          "type": "address"
        },
        {
          "indexed": true,
          "internalType": "address",
          "name": "newOwner",
          "type": "address"
        }
      ],
      "name": "OwnershipTransferred",
      "type": "event"
    },
    {
      "anonymous": false,
      "inputs": [
        {
          "indexed": false,
          "internalType": "address",
          "name": "pool",
          "type": "address"
        },
        {
          "indexed": false,
          "internalType": "address",
          "name": "token",
          "type": "address"
        },
        {
          "indexed": false,
          "internalType": "address",
          "name": "tge",
          "type": "address"
        }
      ],
      "name": "PoolCreated",
      "type": "event"
    },
    {
      "anonymous": false,
      "inputs": [
        {
          "indexed": false,
          "internalType": "address",
          "name": "pool",
          "type": "address"
        },
        {
          "indexed": false,
          "internalType": "address",
          "name": "tge",
          "type": "address"
        }
      ],
      "name": "SecondaryTGECreated",
      "type": "event"
    },
    {
      "anonymous": false,
      "inputs": [
        {
          "indexed": false,
          "internalType": "address",
          "name": "account",
          "type": "address"
        },
        {
          "indexed": false,
          "internalType": "bool",
          "name": "whitelisted",
          "type": "bool"
        }
      ],
      "name": "WhitelistedSet",
      "type": "event"
    },
    {
      "inputs": [
        {
          "internalType": "uint256",
          "name": "proposalId",
          "type": "uint256"
        }
      ],
      "name": "addProposal",
      "outputs": [],
      "stateMutability": "nonpayable",
      "type": "function"
    },
    {
      "inputs": [
        {
          "internalType": "address",
          "name": "account",
          "type": "address"
        }
      ],
      "name": "addToWhitelist",
      "outputs": [],
      "stateMutability": "nonpayable",
      "type": "function"
    },
    {
      "inputs": [
        {
          "internalType": "contract IPool",
          "name": "pool",
          "type": "address"
        },
        {
          "components": [
            {
              "internalType": "string",
              "name": "name",
              "type": "string"
            },
            {
              "internalType": "string",
              "name": "symbol",
              "type": "string"
            },
            {
              "internalType": "uint256",
              "name": "cap",
              "type": "uint256"
            }
          ],
          "internalType": "struct IGovernanceToken.TokenInfo",
          "name": "tokenInfo",
          "type": "tuple"
        },
        {
          "components": [
            {
              "internalType": "string",
              "name": "metadataURI",
              "type": "string"
            },
            {
              "internalType": "uint256",
              "name": "price",
              "type": "uint256"
            },
            {
              "internalType": "uint256",
              "name": "hardcap",
              "type": "uint256"
            },
            {
              "internalType": "uint256",
              "name": "softcap",
              "type": "uint256"
            },
            {
              "internalType": "uint256",
              "name": "minPurchase",
              "type": "uint256"
            },
            {
              "internalType": "uint256",
              "name": "maxPurchase",
              "type": "uint256"
            },
            {
              "internalType": "uint256",
              "name": "lockupPercent",
              "type": "uint256"
            },
            {
              "internalType": "uint256",
              "name": "duration",
              "type": "uint256"
            }
          ],
          "internalType": "struct ITGE.TGEInfo",
          "name": "tgeInfo",
          "type": "tuple"
        }
      ],
      "name": "createPool",
      "outputs": [],
      "stateMutability": "payable",
      "type": "function"
    },
    {
      "inputs": [
        {
          "components": [
            {
              "internalType": "string",
              "name": "metadataURI",
              "type": "string"
            },
            {
              "internalType": "uint256",
              "name": "price",
              "type": "uint256"
            },
            {
              "internalType": "uint256",
              "name": "hardcap",
              "type": "uint256"
            },
            {
              "internalType": "uint256",
              "name": "softcap",
              "type": "uint256"
            },
            {
              "internalType": "uint256",
              "name": "minPurchase",
              "type": "uint256"
            },
            {
              "internalType": "uint256",
              "name": "maxPurchase",
              "type": "uint256"
            },
            {
              "internalType": "uint256",
              "name": "lockupPercent",
              "type": "uint256"
            },
            {
              "internalType": "uint256",
              "name": "duration",
              "type": "uint256"
            }
          ],
          "internalType": "struct ITGE.TGEInfo",
          "name": "tgeInfo",
          "type": "tuple"
        }
      ],
      "name": "createSecondaryTGE",
      "outputs": [],
      "stateMutability": "nonpayable",
      "type": "function"
    },
    {
      "inputs": [],
      "name": "directory",
      "outputs": [
        {
          "internalType": "contract IDirectory",
          "name": "",
          "type": "address"
        }
      ],
      "stateMutability": "view",
      "type": "function"
    },
    {
      "inputs": [],
      "name": "fee",
      "outputs": [
        {
          "internalType": "uint256",
          "name": "",
          "type": "uint256"
        }
      ],
      "stateMutability": "view",
      "type": "function"
    },
    {
      "inputs": [
        {
          "internalType": "address",
          "name": "account",
          "type": "address"
        }
      ],
      "name": "isWhitelisted",
      "outputs": [
        {
          "internalType": "bool",
          "name": "",
          "type": "bool"
        }
      ],
      "stateMutability": "view",
      "type": "function"
    },
    {
      "inputs": [],
      "name": "owner",
      "outputs": [
        {
          "internalType": "address",
          "name": "",
          "type": "address"
        }
      ],
      "stateMutability": "view",
      "type": "function"
    },
    {
      "inputs": [],
      "name": "poolMaster",
      "outputs": [
        {
          "internalType": "address",
          "name": "",
          "type": "address"
        }
      ],
      "stateMutability": "view",
      "type": "function"
    },
    {
      "inputs": [
        {
          "internalType": "address",
          "name": "account",
          "type": "address"
        }
      ],
      "name": "removeFromWhitelist",
      "outputs": [],
      "stateMutability": "nonpayable",
      "type": "function"
    },
    {
      "inputs": [],
      "name": "renounceOwnership",
      "outputs": [],
      "stateMutability": "nonpayable",
      "type": "function"
    },
    {
      "inputs": [
        {
          "internalType": "uint256",
          "name": "fee_",
          "type": "uint256"
        }
      ],
      "name": "setFee",
      "outputs": [],
      "stateMutability": "nonpayable",
      "type": "function"
    },
    {
      "inputs": [],
      "name": "tgeMaster",
      "outputs": [
        {
          "internalType": "address",
          "name": "",
          "type": "address"
        }
      ],
      "stateMutability": "view",
      "type": "function"
    },
    {
      "inputs": [],
      "name": "tokenMaster",
      "outputs": [
        {
          "internalType": "address",
          "name": "",
          "type": "address"
        }
      ],
      "stateMutability": "view",
      "type": "function"
    },
    {
      "inputs": [
        {
          "internalType": "address",
          "name": "to",
          "type": "address"
        }
      ],
      "name": "transferFunds",
      "outputs": [],
      "stateMutability": "nonpayable",
      "type": "function"
    },
    {
      "inputs": [
        {
          "internalType": "address",
          "name": "newOwner",
          "type": "address"
        }
      ],
      "name": "transferOwnership",
      "outputs": [],
      "stateMutability": "nonpayable",
      "type": "function"
    },
    {
      "inputs": [],
      "name": "whitelist",
      "outputs": [
        {
          "internalType": "address[]",
          "name": "",
          "type": "address[]"
        }
      ],
      "stateMutability": "view",
      "type": "function"
    },
    {
      "inputs": [
        {
          "internalType": "uint256",
          "name": "index",
          "type": "uint256"
        }
      ],
      "name": "whitelistAt",
      "outputs": [
        {
          "internalType": "address",
          "name": "",
          "type": "address"
        }
      ],
      "stateMutability": "view",
      "type": "function"
    },
    {
      "inputs": [],
      "name": "whitelistLength",
      "outputs": [
        {
          "internalType": "uint256",
          "name": "",
          "type": "uint256"
        }
      ],
      "stateMutability": "view",
      "type": "function"
    }
  ],
  "transactionHash": "0x0aac501a52673043ffa732625f69b122f52767dbde84af92595038bd33e34f29",
  "args": [
    "0xfE3884AfDD9857047E90BD9bc9141417C5fa853a",
    "0x4bCeD141B104d7D4dfBD003490304F5eaa134C4C",
    "0x5c480A241BA687e4d6519a1929698ae208A7B53b",
    "0x5c328D87E0680B5039C318699062D5607250642f",
    "0"
  ],
  "numDeployments": 1,
  "solcInputHash": "3da88f1ba9e4486f297fae8df5eca67f",
  "bytecode": "0x60806040523480156200001157600080fd5b5060405162001d7138038062001d71833981016040819052620000349162000135565b6200003f33620000cc565b600180546001600160a01b03199081166001600160a01b03888116919091179092556002805482168784161790556003805482168684161790556004805490911691841691909117905560058190556040518181527f20461e09b8e557b77e107939f9ce6544698123aad0fc964ac5cc59b7df2e608f9060200160405180910390a15050505050620001a9565b600080546001600160a01b038381166001600160a01b0319831681178455604051919092169283917f8be0079c531659141344cd1fd0a4f28419497f9722a3daafe3b4186f6b6457e09190a35050565b6001600160a01b03811681146200013257600080fd5b50565b600080600080600060a086880312156200014e57600080fd5b85516200015b816200011c565b60208701519095506200016e816200011c565b604087015190945062000181816200011c565b606087015190935062000194816200011c565b80925050608086015190509295509295909350565b611bb880620001b96000396000f3fe6080604052600436106101145760003560e01c80638ab1d681116100a0578063ccd4743e11610064578063ccd4743e146102f3578063ddca3f4314610313578063e39ff19f14610329578063e43252d714610349578063f2fde38b1461036957600080fd5b80638ab1d681146102535780638da5cb5b1461027357806393e59dc114610291578063c25b9e05146102b3578063c41c2f24146102d357600080fd5b80633fec91a4116100e75780633fec91a4146101c6578063548fc993146101e857806369fe0e2d146101fb578063715018a61461021b57806378bb51641461023057600080fd5b80631be40f27146101195780632346e06d14610156578063265d4409146101765780633af32abf14610196575b600080fd5b34801561012557600080fd5b506101396101343660046115b0565b610389565b6040516001600160a01b0390911681526020015b60405180910390f35b34801561016257600080fd5b50600454610139906001600160a01b031681565b34801561018257600080fd5b50600354610139906001600160a01b031681565b3480156101a257600080fd5b506101b66101b13660046115de565b61039c565b604051901515815260200161014d565b3480156101d257600080fd5b506101e66101e13660046115b0565b6103a9565b005b6101e66101f636600461177a565b6104c6565b34801561020757600080fd5b506101e66102163660046115b0565b610bba565b34801561022757600080fd5b506101e6610c20565b34801561023c57600080fd5b50610245610c56565b60405190815260200161014d565b34801561025f57600080fd5b506101e661026e3660046115de565b610c67565b34801561027f57600080fd5b506000546001600160a01b0316610139565b34801561029d57600080fd5b506102a6610d27565b60405161014d919061184a565b3480156102bf57600080fd5b506101e66102ce366004611897565b610d33565b3480156102df57600080fd5b50600154610139906001600160a01b031681565b3480156102ff57600080fd5b50600254610139906001600160a01b031681565b34801561031f57600080fd5b5061024560055481565b34801561033557600080fd5b506101e66103443660046115de565b6110d4565b34801561035557600080fd5b506101e66103643660046115de565b611134565b34801561037557600080fd5b506101e66103843660046115de565b6111ea565b6000610396600683611285565b92915050565b6000610396600683611298565b60018054604051630db9619f60e31b81523360048201526001600160a01b0390911690636dcb0cf890602401602060405180830381865afa1580156103f2573d6000803e3d6000fd5b505050506040513d601f19601f8201168201806040525081019061041691906118ea565b6003811115610427576104276118d4565b1461044d5760405162461bcd60e51b81526004016104449061190b565b60405180910390fd5b60015460405163f4be936960e01b8152336004820152602481018390526001600160a01b039091169063f4be9369906044016020604051808303816000875af115801561049e573d6000803e3d6000fd5b505050506040513d601f19601f820116820180604052508101906104c2919061192f565b5050565b6104cf3361039c565b61050d5760405162461bcd60e51b815260206004820152600f60248201526e139bdd081dda1a5d195b1a5cdd1959608a1b6044820152606401610444565b60055434146105555760405162461bcd60e51b8152602060048201526014602482015273125b98dbdc9c9958dd08199959481c185cdcd95960621b6044820152606401610444565b6001600160a01b03831661064e57600254610578906001600160a01b03166112ba565b60405163189acdbd60e31b81523360048201529093506001600160a01b0384169063c4d66de890602401600060405180830381600087803b1580156105bc57600080fd5b505af11580156105d0573d6000803e3d6000fd5b5050600180546040516303203cd960e21b81526001600160a01b039091169350630c80f3649250610605918791600401611948565b6020604051808303816000875af1158015610624573d6000803e3d6000fd5b505050506040513d601f19601f82011682018060405250810190610648919061192f565b506108d0565b60018054604051630db9619f60e31b81526001600160a01b03868116600483015290911690636dcb0cf890602401602060405180830381865afa158015610699573d6000803e3d6000fd5b505050506040513d601f19601f820116820180604052508101906106bd91906118ea565b60038111156106ce576106ce6118d4565b146106eb5760405162461bcd60e51b81526004016104449061190b565b826001600160a01b0316638da5cb5b6040518163ffffffff1660e01b8152600401602060405180830381865afa158015610729573d6000803e3d6000fd5b505050506040513d601f19601f8201168201806040525081019061074d9190611983565b6001600160a01b0316336001600160a01b0316146107ad5760405162461bcd60e51b815260206004820152601860248201527f53656e646572206973206e6f7420706f6f6c206f776e657200000000000000006044820152606401610444565b6001836001600160a01b031663a7497fa56040518163ffffffff1660e01b8152600401602060405180830381865afa1580156107ed573d6000803e3d6000fd5b505050506040513d601f19601f820116820180604052508101906108119190611983565b6001600160a01b031663c19d93fb6040518163ffffffff1660e01b8152600401602060405180830381865afa15801561084e573d6000803e3d6000fd5b505050506040513d601f19601f8201168201806040525081019061087291906119a0565b6002811115610883576108836118d4565b146108d05760405162461bcd60e51b815260206004820152601760248201527f50726576696f757320544745206e6f74206661696c65640000000000000000006044820152606401610444565b6003546000906108e8906001600160a01b03166112ba565b6001546040516303203cd960e21b81529192506001600160a01b031690630c80f3649061091c908490600290600401611948565b6020604051808303816000875af115801561093b573d6000803e3d6000fd5b505050506040513d601f19601f8201168201806040525081019061095f919061192f565b50600454600090610978906001600160a01b03166112ba565b6001546040516303203cd960e21b81529192506001600160a01b031690630c80f364906109ac908490600390600401611948565b6020604051808303816000875af11580156109cb573d6000803e3d6000fd5b505050506040513d601f19601f820116820180604052508101906109ef919061192f565b506040516322ae8aef60e01b81526001600160a01b038316906322ae8aef90610a1e9088908890600401611a0e565b600060405180830381600087803b158015610a3857600080fd5b505af1158015610a4c573d6000803e3d6000fd5b505060405163144fa6d760e01b81526001600160a01b0385811660048301528816925063144fa6d79150602401600060405180830381600087803b158015610a9357600080fd5b505af1158015610aa7573d6000803e3d6000fd5b50506040516246419960e51b81526001600160a01b03841692506308c833209150610ada90339086908890600401611a6d565b600060405180830381600087803b158015610af457600080fd5b505af1158015610b08573d6000803e3d6000fd5b505060405163024aa90f60e61b81526001600160a01b038481166004830152881692506392aa43c09150602401600060405180830381600087803b158015610b4f57600080fd5b505af1158015610b63573d6000803e3d6000fd5b5050604080516001600160a01b038981168252868116602083015285168183015290517f9c5d829b9b23efc461f9aeef91979ec04bb903feb3bee4f26d22114abfc7335b9350908190036060019150a15050505050565b6000546001600160a01b03163314610be45760405162461bcd60e51b815260040161044490611afc565b60058190556040518181527f20461e09b8e557b77e107939f9ce6544698123aad0fc964ac5cc59b7df2e608f906020015b60405180910390a150565b6000546001600160a01b03163314610c4a5760405162461bcd60e51b815260040161044490611afc565b610c546000611357565b565b6000610c6260066113a7565b905090565b6000546001600160a01b03163314610c915760405162461bcd60e51b815260040161044490611afc565b610c9c6006826113b1565b610ce85760405162461bcd60e51b815260206004820152601760248201527f416c7265616479206e6f742077686974656c69737465640000000000000000006044820152606401610444565b604080516001600160a01b0383168152600060208201527f707f3c5101172c4122bef76a7247663a6c9347fd005fc5eff73c858572d9f5899101610c15565b6060610c6260066113c6565b60018054604051630db9619f60e31b81523360048201526001600160a01b0390911690636dcb0cf890602401602060405180830381865afa158015610d7c573d6000803e3d6000fd5b505050506040513d601f19601f82011682018060405250810190610da091906118ea565b6003811115610db157610db16118d4565b14610dce5760405162461bcd60e51b81526004016104449061190b565b6000336001600160a01b031663a7497fa56040518163ffffffff1660e01b8152600401602060405180830381865afa158015610e0e573d6000803e3d6000fd5b505050506040513d601f19601f82011682018060405250810190610e329190611983565b6001600160a01b031663c19d93fb6040518163ffffffff1660e01b8152600401602060405180830381865afa158015610e6f573d6000803e3d6000fd5b505050506040513d601f19601f82011682018060405250810190610e9391906119a0565b6002811115610ea457610ea46118d4565b03610ee25760405162461bcd60e51b815260206004820152600e60248201526d486173206163746976652054474560901b6044820152606401610444565b600454600090610efa906001600160a01b03166112ba565b6001546040516303203cd960e21b81529192506001600160a01b031690630c80f36490610f2e908490600390600401611948565b6020604051808303816000875af1158015610f4d573d6000803e3d6000fd5b505050506040513d601f19601f82011682018060405250810190610f71919061192f565b50806001600160a01b03166308c8332033336001600160a01b031663fc0c546a6040518163ffffffff1660e01b8152600401602060405180830381865afa158015610fc0573d6000803e3d6000fd5b505050506040513d601f19601f82011682018060405250810190610fe49190611983565b856040518463ffffffff1660e01b815260040161100393929190611a6d565b600060405180830381600087803b15801561101d57600080fd5b505af1158015611031573d6000803e3d6000fd5b505060405163024aa90f60e61b81526001600160a01b03841660048201523392506392aa43c09150602401600060405180830381600087803b15801561107657600080fd5b505af115801561108a573d6000803e3d6000fd5b5050604080513381526001600160a01b03851660208201527f0e3dbd8c6caab1c68013fb13d63b7ff61db8fed8b3e7ce4e8e294ee1d0c22e8e935001905060405180910390a15050565b6000546001600160a01b031633146110fe5760405162461bcd60e51b815260040161044490611afc565b6040516001600160a01b03821690303180156108fc02916000818181858888f193505050501580156104c2573d6000803e3d6000fd5b6000546001600160a01b0316331461115e5760405162461bcd60e51b815260040161044490611afc565b6111696006826113d3565b6111ab5760405162461bcd60e51b8152602060048201526013602482015272105b1c9958591e481dda1a5d195b1a5cdd1959606a1b6044820152606401610444565b604080516001600160a01b0383168152600160208201527f707f3c5101172c4122bef76a7247663a6c9347fd005fc5eff73c858572d9f5899101610c15565b6000546001600160a01b031633146112145760405162461bcd60e51b815260040161044490611afc565b6001600160a01b0381166112795760405162461bcd60e51b815260206004820152602660248201527f4f776e61626c653a206e6577206f776e657220697320746865207a65726f206160448201526564647265737360d01b6064820152608401610444565b61128281611357565b50565b600061129183836113e8565b9392505050565b6001600160a01b03811660009081526001830160205260408120541515611291565b6000604051733d602d80600a3d3981f3363d3d373d3d3d363d7360601b81528260601b60148201526e5af43d82803e903d91602b57fd5bf360881b60288201526037816000f09150506001600160a01b0381166113525760405162461bcd60e51b8152602060048201526016602482015275115490cc4c4d8dce8818dc99585d194819985a5b195960521b6044820152606401610444565b919050565b600080546001600160a01b038381166001600160a01b0319831681178455604051919092169283917f8be0079c531659141344cd1fd0a4f28419497f9722a3daafe3b4186f6b6457e09190a35050565b6000610396825490565b6000611291836001600160a01b038416611412565b6060600061129183611505565b6000611291836001600160a01b038416611561565b60008260000182815481106113ff576113ff611b31565b9060005260206000200154905092915050565b600081815260018301602052604081205480156114fb576000611436600183611b47565b855490915060009061144a90600190611b47565b90508181146114af57600086600001828154811061146a5761146a611b31565b906000526020600020015490508087600001848154811061148d5761148d611b31565b6000918252602080832090910192909255918252600188019052604090208390555b85548690806114c0576114c0611b6c565b600190038181906000526020600020016000905590558560010160008681526020019081526020016000206000905560019350505050610396565b6000915050610396565b60608160000180548060200260200160405190810160405280929190818152602001828054801561155557602002820191906000526020600020905b815481526020019060010190808311611541575b50505050509050919050565b60008181526001830160205260408120546115a857508154600181810184556000848152602080822090930184905584548482528286019093526040902091909155610396565b506000610396565b6000602082840312156115c257600080fd5b5035919050565b6001600160a01b038116811461128257600080fd5b6000602082840312156115f057600080fd5b8135611291816115c9565b634e487b7160e01b600052604160045260246000fd5b604051610100810167ffffffffffffffff81118282101715611635576116356115fb565b60405290565b6040516060810167ffffffffffffffff81118282101715611635576116356115fb565b600082601f83011261166f57600080fd5b813567ffffffffffffffff8082111561168a5761168a6115fb565b604051601f8301601f19908116603f011681019082821181831017156116b2576116b26115fb565b816040528381528660208588010111156116cb57600080fd5b836020870160208301376000602085830101528094505050505092915050565b600061010082840312156116fe57600080fd5b611706611611565b9050813567ffffffffffffffff81111561171f57600080fd5b61172b8482850161165e565b8252506020820135602082015260408201356040820152606082013560608201526080820135608082015260a082013560a082015260c082013560c082015260e082013560e082015292915050565b60008060006060848603121561178f57600080fd5b833561179a816115c9565b9250602084013567ffffffffffffffff808211156117b757600080fd5b90850190606082880312156117cb57600080fd5b6117d361163b565b8235828111156117e257600080fd5b6117ee8982860161165e565b82525060208301358281111561180357600080fd5b61180f8982860161165e565b60208301525060409283013583820152935090850135908082111561183357600080fd5b50611840868287016116eb565b9150509250925092565b6020808252825182820181905260009190848201906040850190845b8181101561188b5783516001600160a01b031683529284019291840191600101611866565b50909695505050505050565b6000602082840312156118a957600080fd5b813567ffffffffffffffff8111156118c057600080fd5b6118cc848285016116eb565b949350505050565b634e487b7160e01b600052602160045260246000fd5b6000602082840312156118fc57600080fd5b81516004811061129157600080fd5b6020808252600a9082015269139bdd0818481c1bdbdb60b21b604082015260600190565b60006020828403121561194157600080fd5b5051919050565b6001600160a01b0383168152604081016004831061197657634e487b7160e01b600052602160045260246000fd5b8260208301529392505050565b60006020828403121561199557600080fd5b8151611291816115c9565b6000602082840312156119b257600080fd5b81516003811061129157600080fd5b6000815180845260005b818110156119e7576020818501810151868301820152016119cb565b818111156119f9576000602083870101525b50601f01601f19169290920160200192915050565b60018060a01b0383168152604060208201526000825160606040840152611a3860a08401826119c1565b90506020840151603f19848303016060850152611a5582826119c1565b91505060408401516080840152809150509392505050565b6001600160a01b038481168252831660208201526060604082018190528251610100918301829052600091611aa66101608501836119c1565b915060208501516080850152604085015160a0850152606085015160c0850152608085015160e085015260a0850151818501525060c084015161012084015260e084015161014084015280915050949350505050565b6020808252818101527f4f776e61626c653a2063616c6c6572206973206e6f7420746865206f776e6572604082015260600190565b634e487b7160e01b600052603260045260246000fd5b600082821015611b6757634e487b7160e01b600052601160045260246000fd5b500390565b634e487b7160e01b600052603160045260246000fdfea2646970667358221220c5097e6102513fe0b0deca899992d9a0c8ff275eb6703cd0f9804cc634fa347264736f6c634300080d0033",
  "devdoc": {
    "kind": "dev",
    "methods": {
      "owner()": {
        "details": "Returns the address of the current owner."
      },
      "renounceOwnership()": {
        "details": "Leaves the contract without owner. It will not be possible to call `onlyOwner` functions anymore. Can only be called by the current owner. NOTE: Renouncing ownership will leave the contract without an owner, thereby removing any functionality that is only available to the owner."
      },
      "transferOwnership(address)": {
        "details": "Transfers ownership of the contract to a new account (`newOwner`). Can only be called by the current owner."
      }
    },
    "version": 1
  },
  "userdoc": {
    "kind": "user",
    "methods": {},
    "version": 1
  },
  "storageLayout": {
    "storage": [
      {
        "astId": 3636,
        "contract": "contracts/Service.sol:Service",
        "label": "_owner",
        "offset": 0,
        "slot": "0",
        "type": "t_address"
      },
      {
        "astId": 5258,
        "contract": "contracts/Service.sol:Service",
        "label": "directory",
        "offset": 0,
        "slot": "1",
        "type": "t_contract(IDirectory)6424"
      },
      {
        "astId": 5260,
        "contract": "contracts/Service.sol:Service",
        "label": "poolMaster",
        "offset": 0,
        "slot": "2",
        "type": "t_address"
      },
      {
        "astId": 5262,
        "contract": "contracts/Service.sol:Service",
        "label": "tokenMaster",
        "offset": 0,
        "slot": "3",
        "type": "t_address"
      },
      {
        "astId": 5264,
        "contract": "contracts/Service.sol:Service",
        "label": "tgeMaster",
        "offset": 0,
        "slot": "4",
        "type": "t_address"
      },
      {
        "astId": 5266,
        "contract": "contracts/Service.sol:Service",
        "label": "fee",
        "offset": 0,
        "slot": "5",
        "type": "t_uint256"
      },
      {
        "astId": 5269,
        "contract": "contracts/Service.sol:Service",
        "label": "_whitelist",
        "offset": 0,
        "slot": "6",
        "type": "t_struct(AddressSet)4147_storage"
      }
    ],
    "types": {
      "t_address": {
        "encoding": "inplace",
        "label": "address",
        "numberOfBytes": "20"
      },
      "t_array(t_bytes32)dyn_storage": {
        "base": "t_bytes32",
        "encoding": "dynamic_array",
        "label": "bytes32[]",
        "numberOfBytes": "32"
      },
      "t_bytes32": {
        "encoding": "inplace",
        "label": "bytes32",
        "numberOfBytes": "32"
      },
      "t_contract(IDirectory)6424": {
        "encoding": "inplace",
        "label": "contract IDirectory",
        "numberOfBytes": "20"
      },
      "t_mapping(t_bytes32,t_uint256)": {
        "encoding": "mapping",
        "key": "t_bytes32",
        "label": "mapping(bytes32 => uint256)",
        "numberOfBytes": "32",
        "value": "t_uint256"
      },
      "t_struct(AddressSet)4147_storage": {
        "encoding": "inplace",
        "label": "struct EnumerableSet.AddressSet",
        "members": [
          {
            "astId": 4146,
            "contract": "contracts/Service.sol:Service",
            "label": "_inner",
            "offset": 0,
            "slot": "0",
            "type": "t_struct(Set)3846_storage"
          }
        ],
        "numberOfBytes": "64"
      },
      "t_struct(Set)3846_storage": {
        "encoding": "inplace",
        "label": "struct EnumerableSet.Set",
        "members": [
          {
            "astId": 3841,
            "contract": "contracts/Service.sol:Service",
            "label": "_values",
            "offset": 0,
            "slot": "0",
            "type": "t_array(t_bytes32)dyn_storage"
          },
          {
            "astId": 3845,
            "contract": "contracts/Service.sol:Service",
            "label": "_indexes",
            "offset": 0,
            "slot": "1",
            "type": "t_mapping(t_bytes32,t_uint256)"
          }
        ],
        "numberOfBytes": "64"
      },
      "t_uint256": {
        "encoding": "inplace",
        "label": "uint256",
        "numberOfBytes": "32"
      }
    }
  }
}