{
  "address": "0xA7813F315AC6000f1Dd145B2d7B8073929b02e3f",
  "abi": [
    {
      "inputs": [
        {
          "internalType": "address",
          "name": "tokenMaster_",
          "type": "address"
        },
        {
          "internalType": "address",
          "name": "tgeMaster_",
          "type": "address"
        },
        {
          "internalType": "uint256",
          "name": "fee_",
          "type": "uint256"
        }
      ],
      "stateMutability": "nonpayable",
      "type": "constructor"
    },
    {
      "anonymous": false,
      "inputs": [
        {
          "indexed": false,
          "internalType": "uint256",
          "name": "fee",
          "type": "uint256"
        }
      ],
      "name": "FeeSet",
      "type": "event"
    },
    {
      "anonymous": false,
      "inputs": [
        {
          "indexed": true,
          "internalType": "address",
          "name": "previousOwner",
          "type": "address"
        },
        {
          "indexed": true,
          "internalType": "address",
          "name": "newOwner",
          "type": "address"
        }
      ],
      "name": "OwnershipTransferred",
      "type": "event"
    },
    {
      "anonymous": false,
      "inputs": [
        {
          "indexed": false,
          "internalType": "address",
          "name": "token",
          "type": "address"
        },
        {
          "indexed": false,
          "internalType": "address",
          "name": "tge",
          "type": "address"
        }
      ],
      "name": "TGECreated",
      "type": "event"
    },
    {
      "anonymous": false,
      "inputs": [
        {
          "indexed": false,
          "internalType": "address",
          "name": "account",
          "type": "address"
        },
        {
          "indexed": false,
          "internalType": "bool",
          "name": "whitelisted",
          "type": "bool"
        }
      ],
      "name": "WhitelistedSet",
      "type": "event"
    },
    {
      "inputs": [
        {
          "internalType": "address",
          "name": "account",
          "type": "address"
        }
      ],
      "name": "addToWhitelist",
      "outputs": [],
      "stateMutability": "nonpayable",
      "type": "function"
    },
    {
      "inputs": [
        {
          "internalType": "string",
          "name": "name",
          "type": "string"
        },
        {
          "internalType": "string",
          "name": "symbol",
          "type": "string"
        },
        {
          "internalType": "uint256",
          "name": "cap",
          "type": "uint256"
        },
        {
          "components": [
            {
              "internalType": "string",
              "name": "metadataURI",
              "type": "string"
            },
            {
              "internalType": "uint256",
              "name": "price",
              "type": "uint256"
            },
            {
              "internalType": "uint256",
              "name": "hardcap",
              "type": "uint256"
            },
            {
              "internalType": "uint256",
              "name": "softcap",
              "type": "uint256"
            },
            {
              "internalType": "uint256",
              "name": "minPurchase",
              "type": "uint256"
            },
            {
              "internalType": "uint256",
              "name": "maxPurchase",
              "type": "uint256"
            },
            {
              "internalType": "uint256",
              "name": "lockupPercent",
              "type": "uint256"
            },
            {
              "internalType": "uint256",
              "name": "duration",
              "type": "uint256"
            }
          ],
          "internalType": "struct ITGE.TGEInfo",
          "name": "tgeInfo",
          "type": "tuple"
        }
      ],
      "name": "createTGE",
      "outputs": [],
      "stateMutability": "payable",
      "type": "function"
    },
    {
      "inputs": [],
      "name": "fee",
      "outputs": [
        {
          "internalType": "uint256",
          "name": "",
          "type": "uint256"
        }
      ],
      "stateMutability": "view",
      "type": "function"
    },
    {
      "inputs": [
        {
          "internalType": "address",
          "name": "account",
          "type": "address"
        }
      ],
      "name": "isWhitelisted",
      "outputs": [
        {
          "internalType": "bool",
          "name": "",
          "type": "bool"
        }
      ],
      "stateMutability": "view",
      "type": "function"
    },
    {
      "inputs": [],
      "name": "owner",
      "outputs": [
        {
          "internalType": "address",
          "name": "",
          "type": "address"
        }
      ],
      "stateMutability": "view",
      "type": "function"
    },
    {
      "inputs": [
        {
          "internalType": "address",
          "name": "account",
          "type": "address"
        }
      ],
      "name": "removeFromWhitelist",
      "outputs": [],
      "stateMutability": "nonpayable",
      "type": "function"
    },
    {
      "inputs": [],
      "name": "renounceOwnership",
      "outputs": [],
      "stateMutability": "nonpayable",
      "type": "function"
    },
    {
      "inputs": [
        {
          "internalType": "uint256",
          "name": "fee_",
          "type": "uint256"
        }
      ],
      "name": "setFee",
      "outputs": [],
      "stateMutability": "nonpayable",
      "type": "function"
    },
    {
      "inputs": [],
      "name": "tgeMaster",
      "outputs": [
        {
          "internalType": "address",
          "name": "",
          "type": "address"
        }
      ],
      "stateMutability": "view",
      "type": "function"
    },
    {
      "inputs": [],
      "name": "tokenMaster",
      "outputs": [
        {
          "internalType": "address",
          "name": "",
          "type": "address"
        }
      ],
      "stateMutability": "view",
      "type": "function"
    },
    {
      "inputs": [
        {
          "internalType": "address",
          "name": "to",
          "type": "address"
        }
      ],
      "name": "transferFunds",
      "outputs": [],
      "stateMutability": "nonpayable",
      "type": "function"
    },
    {
      "inputs": [
        {
          "internalType": "address",
          "name": "newOwner",
          "type": "address"
        }
      ],
      "name": "transferOwnership",
      "outputs": [],
      "stateMutability": "nonpayable",
      "type": "function"
    },
    {
      "inputs": [],
      "name": "whitelist",
      "outputs": [
        {
          "internalType": "address[]",
          "name": "",
          "type": "address[]"
        }
      ],
      "stateMutability": "view",
      "type": "function"
    },
    {
      "inputs": [
        {
          "internalType": "uint256",
          "name": "index",
          "type": "uint256"
        }
      ],
      "name": "whitelistAt",
      "outputs": [
        {
          "internalType": "address",
          "name": "",
          "type": "address"
        }
      ],
      "stateMutability": "view",
      "type": "function"
    },
    {
      "inputs": [],
      "name": "whitelistLength",
      "outputs": [
        {
          "internalType": "uint256",
          "name": "",
          "type": "uint256"
        }
      ],
      "stateMutability": "view",
      "type": "function"
    }
  ],
  "transactionHash": "0x5691e653679ae2d8ca1ed0d2fc7557de794f29d9fb9b62dd92008ac17441dc0f",
  "args": [
    "0xd7AF23d375F4037C07fD6877baaF664179309C56",
    "0xD6699A1FaC63C085dD970D4c67E0dbCe313cDBC4",
    "0"
  ],
  "numDeployments": 1,
  "solcInputHash": "fb6fbe7243c738666bb6991a7eae4782",
  "bytecode": "0x608060405234801561001057600080fd5b506040516110df3803806110df83398101604081905261002f9161011b565b610038336100af565b600180546001600160a01b038086166001600160a01b031992831617909255600280549285169290911691909117905560038190556040517f20461e09b8e557b77e107939f9ce6544698123aad0fc964ac5cc59b7df2e608f9061009f9083815260200190565b60405180910390a1505050610157565b600080546001600160a01b038381166001600160a01b0319831681178455604051919092169283917f8be0079c531659141344cd1fd0a4f28419497f9722a3daafe3b4186f6b6457e09190a35050565b80516001600160a01b038116811461011657600080fd5b919050565b60008060006060848603121561013057600080fd5b610139846100ff565b9250610147602085016100ff565b9150604084015190509250925092565b610f79806101666000396000f3fe6080604052600436106100e85760003560e01c80638ab1d6811161008a578063ddca3f4311610059578063ddca3f4314610267578063e39ff19f1461027d578063e43252d71461029d578063f2fde38b146102bd57600080fd5b80638ab1d681146101f45780638da5cb5b1461021457806393e59dc1146102325780639aac2a8c1461025457600080fd5b80633af32abf116100c65780633af32abf1461016a57806369fe0e2d1461019a578063715018a6146101bc57806378bb5164146101d157600080fd5b80631be40f27146100ed5780632346e06d1461012a578063265d44091461014a575b600080fd5b3480156100f957600080fd5b5061010d610108366004610b35565b6102dd565b6040516001600160a01b0390911681526020015b60405180910390f35b34801561013657600080fd5b5060025461010d906001600160a01b031681565b34801561015657600080fd5b5060015461010d906001600160a01b031681565b34801561017657600080fd5b5061018a610185366004610b4e565b6102f0565b6040519015158152602001610121565b3480156101a657600080fd5b506101ba6101b5366004610b35565b6102fd565b005b3480156101c857600080fd5b506101ba61036c565b3480156101dd57600080fd5b506101e66103a2565b604051908152602001610121565b34801561020057600080fd5b506101ba61020f366004610b4e565b6103b3565b34801561022057600080fd5b506000546001600160a01b031661010d565b34801561023e57600080fd5b50610247610473565b6040516101219190610b77565b6101ba610262366004610c91565b61047f565b34801561027357600080fd5b506101e660035481565b34801561028957600080fd5b506101ba610298366004610b4e565b610655565b3480156102a957600080fd5b506101ba6102b8366004610b4e565b6106b9565b3480156102c957600080fd5b506101ba6102d8366004610b4e565b61076f565b60006102ea60048361080a565b92915050565b60006102ea60048361081d565b6000546001600160a01b031633146103305760405162461bcd60e51b815260040161032790610d9a565b60405180910390fd5b60038190556040518181527f20461e09b8e557b77e107939f9ce6544698123aad0fc964ac5cc59b7df2e608f906020015b60405180910390a150565b6000546001600160a01b031633146103965760405162461bcd60e51b815260040161032790610d9a565b6103a0600061083f565b565b60006103ae600461088f565b905090565b6000546001600160a01b031633146103dd5760405162461bcd60e51b815260040161032790610d9a565b6103e8600482610899565b6104345760405162461bcd60e51b815260206004820152601760248201527f416c7265616479206e6f742077686974656c69737465640000000000000000006044820152606401610327565b604080516001600160a01b0383168152600060208201527f707f3c5101172c4122bef76a7247663a6c9347fd005fc5eff73c858572d9f5899101610361565b60606103ae60046108ae565b610488336102f0565b6104c65760405162461bcd60e51b815260206004820152600f60248201526e139bdd081dda1a5d195b1a5cdd1959608a1b6044820152606401610327565b600354341461050e5760405162461bcd60e51b8152602060048201526014602482015273125b98dbdc9c9958dd08199959481c185cdcd95960621b6044820152606401610327565b600154600090610526906001600160a01b03166108bb565b600254909150600090610541906001600160a01b03166108bb565b604051635e9d09fb60e11b81529091506001600160a01b0383169063bd3a13f690610576908990899089908790600401610e1c565b600060405180830381600087803b15801561059057600080fd5b505af11580156105a4573d6000803e3d6000fd5b50506040516246419960e51b81526001600160a01b03841692506308c8332091506105d790339086908890600401610e63565b600060405180830381600087803b1580156105f157600080fd5b505af1158015610605573d6000803e3d6000fd5b5050604080516001600160a01b038087168252851660208201527fa77786a09a1ecb4fe7c34a02f711472283b3c1a151132970d2b963485eb91a90935001905060405180910390a1505050505050565b6000546001600160a01b0316331461067f5760405162461bcd60e51b815260040161032790610d9a565b6040516001600160a01b03821690303180156108fc02916000818181858888f193505050501580156106b5573d6000803e3d6000fd5b5050565b6000546001600160a01b031633146106e35760405162461bcd60e51b815260040161032790610d9a565b6106ee600482610958565b6107305760405162461bcd60e51b8152602060048201526013602482015272105b1c9958591e481dda1a5d195b1a5cdd1959606a1b6044820152606401610327565b604080516001600160a01b0383168152600160208201527f707f3c5101172c4122bef76a7247663a6c9347fd005fc5eff73c858572d9f5899101610361565b6000546001600160a01b031633146107995760405162461bcd60e51b815260040161032790610d9a565b6001600160a01b0381166107fe5760405162461bcd60e51b815260206004820152602660248201527f4f776e61626c653a206e6577206f776e657220697320746865207a65726f206160448201526564647265737360d01b6064820152608401610327565b6108078161083f565b50565b6000610816838361096d565b9392505050565b6001600160a01b03811660009081526001830160205260408120541515610816565b600080546001600160a01b038381166001600160a01b0319831681178455604051919092169283917f8be0079c531659141344cd1fd0a4f28419497f9722a3daafe3b4186f6b6457e09190a35050565b60006102ea825490565b6000610816836001600160a01b038416610997565b6060600061081683610a8a565b6000604051733d602d80600a3d3981f3363d3d373d3d3d363d7360601b81528260601b60148201526e5af43d82803e903d91602b57fd5bf360881b60288201526037816000f09150506001600160a01b0381166109535760405162461bcd60e51b8152602060048201526016602482015275115490cc4c4d8dce8818dc99585d194819985a5b195960521b6044820152606401610327565b919050565b6000610816836001600160a01b038416610ae6565b600082600001828154811061098457610984610ef2565b9060005260206000200154905092915050565b60008181526001830160205260408120548015610a805760006109bb600183610f08565b85549091506000906109cf90600190610f08565b9050818114610a345760008660000182815481106109ef576109ef610ef2565b9060005260206000200154905080876000018481548110610a1257610a12610ef2565b6000918252602080832090910192909255918252600188019052604090208390555b8554869080610a4557610a45610f2d565b6001900381819060005260206000200160009055905585600101600086815260200190815260200160002060009055600193505050506102ea565b60009150506102ea565b606081600001805480602002602001604051908101604052809291908181526020018280548015610ada57602002820191906000526020600020905b815481526020019060010190808311610ac6575b50505050509050919050565b6000818152600183016020526040812054610b2d575081546001818101845560008481526020808220909301849055845484825282860190935260409020919091556102ea565b5060006102ea565b600060208284031215610b4757600080fd5b5035919050565b600060208284031215610b6057600080fd5b81356001600160a01b038116811461081657600080fd5b6020808252825182820181905260009190848201906040850190845b81811015610bb85783516001600160a01b031683529284019291840191600101610b93565b50909695505050505050565b634e487b7160e01b600052604160045260246000fd5b604051610100810167ffffffffffffffff81118282101715610bfe57610bfe610bc4565b60405290565b600082601f830112610c1557600080fd5b813567ffffffffffffffff80821115610c3057610c30610bc4565b604051601f8301601f19908116603f01168101908282118183101715610c5857610c58610bc4565b81604052838152866020858801011115610c7157600080fd5b836020870160208301376000602085830101528094505050505092915050565b60008060008060808587031215610ca757600080fd5b843567ffffffffffffffff80821115610cbf57600080fd5b610ccb88838901610c04565b95506020870135915080821115610ce157600080fd5b610ced88838901610c04565b9450604087013593506060870135915080821115610d0a57600080fd5b908601906101008289031215610d1f57600080fd5b610d27610bda565b823582811115610d3657600080fd5b610d428a828601610c04565b8252506020830135602082015260408301356040820152606083013560608201526080830135608082015260a083013560a082015260c083013560c082015260e083013560e082015280935050505092959194509250565b6020808252818101527f4f776e61626c653a2063616c6c6572206973206e6f7420746865206f776e6572604082015260600190565b6000815180845260005b81811015610df557602081850181015186830182015201610dd9565b81811115610e07576000602083870101525b50601f01601f19169290920160200192915050565b608081526000610e2f6080830187610dcf565b8281036020840152610e418187610dcf565b604084019590955250506001600160a01b039190911660609091015292915050565b6001600160a01b038481168252831660208201526060604082018190528251610100918301829052600091610e9c610160850183610dcf565b915060208501516080850152604085015160a0850152606085015160c0850152608085015160e085015260a0850151818501525060c084015161012084015260e084015161014084015280915050949350505050565b634e487b7160e01b600052603260045260246000fd5b600082821015610f2857634e487b7160e01b600052601160045260246000fd5b500390565b634e487b7160e01b600052603160045260246000fdfea2646970667358221220eca07b2dbf74b25d7bdb7a30860b5b244c6ee251f6fef63667fe7ee295deb2d264736f6c634300080d0033",
  "devdoc": {
    "kind": "dev",
    "methods": {
      "owner()": {
        "details": "Returns the address of the current owner."
      },
      "renounceOwnership()": {
        "details": "Leaves the contract without owner. It will not be possible to call `onlyOwner` functions anymore. Can only be called by the current owner. NOTE: Renouncing ownership will leave the contract without an owner, thereby removing any functionality that is only available to the owner."
      },
      "transferOwnership(address)": {
        "details": "Transfers ownership of the contract to a new account (`newOwner`). Can only be called by the current owner."
      }
    },
    "version": 1
  },
  "userdoc": {
    "kind": "user",
    "methods": {},
    "version": 1
  },
  "storageLayout": {
    "storage": [
      {
        "astId": 3636,
        "contract": "contracts/Service.sol:Service",
        "label": "_owner",
        "offset": 0,
        "slot": "0",
        "type": "t_address"
      },
      {
        "astId": 4690,
        "contract": "contracts/Service.sol:Service",
        "label": "tokenMaster",
        "offset": 0,
        "slot": "1",
        "type": "t_address"
      },
      {
        "astId": 4692,
        "contract": "contracts/Service.sol:Service",
        "label": "tgeMaster",
        "offset": 0,
        "slot": "2",
        "type": "t_address"
      },
      {
        "astId": 4694,
        "contract": "contracts/Service.sol:Service",
        "label": "fee",
        "offset": 0,
        "slot": "3",
        "type": "t_uint256"
      },
      {
        "astId": 4697,
        "contract": "contracts/Service.sol:Service",
        "label": "_whitelist",
        "offset": 0,
        "slot": "4",
        "type": "t_struct(AddressSet)4147_storage"
      }
    ],
    "types": {
      "t_address": {
        "encoding": "inplace",
        "label": "address",
        "numberOfBytes": "20"
      },
      "t_array(t_bytes32)dyn_storage": {
        "base": "t_bytes32",
        "encoding": "dynamic_array",
        "label": "bytes32[]",
        "numberOfBytes": "32"
      },
      "t_bytes32": {
        "encoding": "inplace",
        "label": "bytes32",
        "numberOfBytes": "32"
      },
      "t_mapping(t_bytes32,t_uint256)": {
        "encoding": "mapping",
        "key": "t_bytes32",
        "label": "mapping(bytes32 => uint256)",
        "numberOfBytes": "32",
        "value": "t_uint256"
      },
      "t_struct(AddressSet)4147_storage": {
        "encoding": "inplace",
        "label": "struct EnumerableSet.AddressSet",
        "members": [
          {
            "astId": 4146,
            "contract": "contracts/Service.sol:Service",
            "label": "_inner",
            "offset": 0,
            "slot": "0",
            "type": "t_struct(Set)3846_storage"
          }
        ],
        "numberOfBytes": "64"
      },
      "t_struct(Set)3846_storage": {
        "encoding": "inplace",
        "label": "struct EnumerableSet.Set",
        "members": [
          {
            "astId": 3841,
            "contract": "contracts/Service.sol:Service",
            "label": "_values",
            "offset": 0,
            "slot": "0",
            "type": "t_array(t_bytes32)dyn_storage"
          },
          {
            "astId": 3845,
            "contract": "contracts/Service.sol:Service",
            "label": "_indexes",
            "offset": 0,
            "slot": "1",
            "type": "t_mapping(t_bytes32,t_uint256)"
          }
        ],
        "numberOfBytes": "64"
      },
      "t_uint256": {
        "encoding": "inplace",
        "label": "uint256",
        "numberOfBytes": "32"
      }
    }
  }
}