{
  "address": "0x5c328D87E0680B5039C318699062D5607250642f",
  "abi": [
    {
      "anonymous": false,
      "inputs": [
        {
          "indexed": false,
          "internalType": "uint8",
          "name": "version",
          "type": "uint8"
        }
      ],
      "name": "Initialized",
      "type": "event"
    },
    {
      "anonymous": false,
      "inputs": [
        {
          "indexed": true,
          "internalType": "address",
          "name": "previousOwner",
          "type": "address"
        },
        {
          "indexed": true,
          "internalType": "address",
          "name": "newOwner",
          "type": "address"
        }
      ],
      "name": "OwnershipTransferred",
      "type": "event"
    },
    {
      "inputs": [],
      "name": "claimBack",
      "outputs": [],
      "stateMutability": "nonpayable",
      "type": "function"
    },
    {
      "inputs": [],
      "name": "createdAt",
      "outputs": [
        {
          "internalType": "uint256",
          "name": "",
          "type": "uint256"
        }
      ],
      "stateMutability": "view",
      "type": "function"
    },
    {
      "inputs": [],
      "name": "duration",
      "outputs": [
        {
          "internalType": "uint256",
          "name": "",
          "type": "uint256"
        }
      ],
      "stateMutability": "view",
      "type": "function"
    },
    {
      "inputs": [],
      "name": "hardcap",
      "outputs": [
        {
          "internalType": "uint256",
          "name": "",
          "type": "uint256"
        }
      ],
      "stateMutability": "view",
      "type": "function"
    },
    {
      "inputs": [
        {
          "internalType": "address",
          "name": "owner_",
          "type": "address"
        },
        {
          "internalType": "address",
          "name": "token_",
          "type": "address"
        },
        {
          "components": [
            {
              "internalType": "string",
              "name": "metadataURI",
              "type": "string"
            },
            {
              "internalType": "uint256",
              "name": "price",
              "type": "uint256"
            },
            {
              "internalType": "uint256",
              "name": "hardcap",
              "type": "uint256"
            },
            {
              "internalType": "uint256",
              "name": "softcap",
              "type": "uint256"
            },
            {
              "internalType": "uint256",
              "name": "minPurchase",
              "type": "uint256"
            },
            {
              "internalType": "uint256",
              "name": "maxPurchase",
              "type": "uint256"
            },
            {
              "internalType": "uint256",
              "name": "lockupPercent",
              "type": "uint256"
            },
            {
              "internalType": "uint256",
              "name": "duration",
              "type": "uint256"
            }
          ],
          "internalType": "struct ITGE.TGEInfo",
          "name": "info",
          "type": "tuple"
        }
      ],
      "name": "initialize",
      "outputs": [],
      "stateMutability": "nonpayable",
      "type": "function"
    },
    {
      "inputs": [],
      "name": "lockupPercent",
      "outputs": [
        {
          "internalType": "uint256",
          "name": "",
          "type": "uint256"
        }
      ],
      "stateMutability": "view",
      "type": "function"
    },
    {
      "inputs": [],
      "name": "maxPurchase",
      "outputs": [
        {
          "internalType": "uint256",
          "name": "",
          "type": "uint256"
        }
      ],
      "stateMutability": "view",
      "type": "function"
    },
    {
      "inputs": [
        {
          "internalType": "address",
          "name": "account",
          "type": "address"
        }
      ],
      "name": "maxPurchaseOf",
      "outputs": [
        {
          "internalType": "uint256",
          "name": "",
          "type": "uint256"
        }
      ],
      "stateMutability": "view",
      "type": "function"
    },
    {
      "inputs": [],
      "name": "metadataURI",
      "outputs": [
        {
          "internalType": "string",
          "name": "",
          "type": "string"
        }
      ],
      "stateMutability": "view",
      "type": "function"
    },
    {
      "inputs": [],
      "name": "minPurchase",
      "outputs": [
        {
          "internalType": "uint256",
          "name": "",
          "type": "uint256"
        }
      ],
      "stateMutability": "view",
      "type": "function"
    },
    {
      "inputs": [],
      "name": "owner",
      "outputs": [
        {
          "internalType": "address",
          "name": "",
          "type": "address"
        }
      ],
      "stateMutability": "view",
      "type": "function"
    },
    {
      "inputs": [],
      "name": "price",
      "outputs": [
        {
          "internalType": "uint256",
          "name": "",
          "type": "uint256"
        }
      ],
      "stateMutability": "view",
      "type": "function"
    },
    {
      "inputs": [
        {
          "internalType": "uint256",
          "name": "amount",
          "type": "uint256"
        }
      ],
      "name": "purchase",
      "outputs": [],
      "stateMutability": "payable",
      "type": "function"
    },
    {
      "inputs": [
        {
          "internalType": "address",
          "name": "",
          "type": "address"
        }
      ],
      "name": "purchaseOf",
      "outputs": [
        {
          "internalType": "uint256",
          "name": "",
          "type": "uint256"
        }
      ],
      "stateMutability": "view",
      "type": "function"
    },
    {
      "inputs": [],
      "name": "renounceOwnership",
      "outputs": [],
      "stateMutability": "nonpayable",
      "type": "function"
    },
    {
      "inputs": [],
      "name": "softcap",
      "outputs": [
        {
          "internalType": "uint256",
          "name": "",
          "type": "uint256"
        }
      ],
      "stateMutability": "view",
      "type": "function"
    },
    {
      "inputs": [],
      "name": "state",
      "outputs": [
        {
          "internalType": "enum ITGE.State",
          "name": "",
          "type": "uint8"
        }
      ],
      "stateMutability": "view",
      "type": "function"
    },
    {
      "inputs": [],
      "name": "token",
      "outputs": [
        {
          "internalType": "contract IGovernanceToken",
          "name": "",
          "type": "address"
        }
      ],
      "stateMutability": "view",
      "type": "function"
    },
    {
      "inputs": [],
      "name": "totalPurchases",
      "outputs": [
        {
          "internalType": "uint256",
          "name": "",
          "type": "uint256"
        }
      ],
      "stateMutability": "view",
      "type": "function"
    },
    {
      "inputs": [
        {
          "internalType": "address",
          "name": "to",
          "type": "address"
        }
      ],
      "name": "transferFunds",
      "outputs": [],
      "stateMutability": "nonpayable",
      "type": "function"
    },
    {
      "inputs": [
        {
          "internalType": "address",
          "name": "newOwner",
          "type": "address"
        }
      ],
      "name": "transferOwnership",
      "outputs": [],
      "stateMutability": "nonpayable",
      "type": "function"
    }
  ],
  "transactionHash": "0x31d1d48251bb2bd723fc0cce7d1b96b33488ae340475d55b327f3f3c92c7a1ce",
  "args": [],
  "numDeployments": 1,
  "solcInputHash": "3da88f1ba9e4486f297fae8df5eca67f",
  "bytecode": "0x608060405234801561001057600080fd5b506111ec806100206000396000f3fe60806040526004361061012a5760003560e01c8063a035b1fe116100ab578063e15c38bd1161006f578063e15c38bd146102ef578063e39ff19f14610305578063efef39a114610325578063f2fde38b14610338578063f89be59314610358578063fc0c546a1461036e57600080fd5b8063a035b1fe1461025e578063b071cbe614610274578063bf7fec081461028a578063c19d93fb146102b7578063cf09e0d0146102d957600080fd5b80635962a941116100f25780635962a941146101d6578063715018a6146101ec5780638da5cb5b14610201578063977b055b146102335780639b8c3e211461024957600080fd5b806303ee438c1461012f57806308c833201461015a5780630fb5a6b41461017c57806333b5b62e146101a057806342ee5d84146101b6575b600080fd5b34801561013b57600080fd5b5061014461038e565b6040516101519190610dac565b60405180910390f35b34801561016657600080fd5b5061017a610175366004610ee5565b61041c565b005b34801561018857600080fd5b50610192606d5481565b604051908152602001610151565b3480156101ac57600080fd5b50610192606a5481565b3480156101c257600080fd5b506101926101d1366004610fbc565b61063b565b3480156101e257600080fd5b50610192606f5481565b3480156101f857600080fd5b5061017a610667565b34801561020d57600080fd5b506033546001600160a01b03165b6040516001600160a01b039091168152602001610151565b34801561023f57600080fd5b50610192606b5481565b34801561025557600080fd5b5061017a61069d565b34801561026a57600080fd5b5061019260675481565b34801561028057600080fd5b5061019260685481565b34801561029657600080fd5b506101926102a5366004610fbc565b60706020526000908152604090205481565b3480156102c357600080fd5b506102cc61082b565b6040516101519190610fed565b3480156102e557600080fd5b50610192606e5481565b3480156102fb57600080fd5b50610192606c5481565b34801561031157600080fd5b5061017a610320366004610fbc565b610861565b61017a610333366004611015565b6108ff565b34801561034457600080fd5b5061017a610353366004610fbc565b610b81565b34801561036457600080fd5b5061019260695481565b34801561037a57600080fd5b5060655461021b906001600160a01b031681565b6066805461039b9061102e565b80601f01602080910402602001604051908101604052809291908181526020018280546103c79061102e565b80156104145780601f106103e957610100808354040283529160200191610414565b820191906000526020600020905b8154815290600101906020018083116103f757829003601f168201915b505050505081565b60006104286001610c1c565b90508015610440576000805461ff0019166101001790555b6000836001600160a01b03166318160ddd6040518163ffffffff1660e01b8152600401602060405180830381865afa158015610480573d6000803e3d6000fd5b505050506040513d601f19601f820116820180604052508101906104a49190611068565b846001600160a01b031663355274ea6040518163ffffffff1660e01b8152600401602060405180830381865afa1580156104e2573d6000803e3d6000fd5b505050506040513d601f19601f820116820180604052508101906105069190611068565b6105109190611097565b905080836040015111156105775760405162461bcd60e51b8152602060048201526024808201527f4861726463617020686967686572207468616e2072656d61696e696e6720737560448201526370706c7960e01b60648201526084015b60405180910390fd5b61058085610ca9565b606580546001600160a01b0319166001600160a01b038616179055825180516105b191606691602090910190610d13565b50506020820151606755604082015160685560608201516069556080820151606a5560a0820151606b5560c0820151606c5560e0820151606d5543606e558015610635576000805461ff0019169055604051600181527f7f26b83ff96e1f2b6a682f133852f6798a09c465da95921460cefb38474024989060200160405180910390a15b50505050565b6001600160a01b038116600090815260706020526040812054606b546106619190611097565b92915050565b6033546001600160a01b031633146106915760405162461bcd60e51b815260040161056e906110ae565b61069b6000610ca9565b565b6001806106a861082b565b60028111156106b9576106b9610fd7565b146106d65760405162461bcd60e51b815260040161056e906110e3565b606554604051631092ab9160e31b815233600482015260009161075e916001600160a01b03909116906384955c8890602401602060405180830381865afa158015610725573d6000803e3d6000fd5b505050506040513d601f19601f820116820180604052508101906107499190611068565b33600090815260706020526040902054610cfb565b33600090815260706020526040812080549293508392909190610782908490611097565b9091555050606554604051632770a7eb60e21b8152336004820152602481018390526001600160a01b0390911690639dc29fac90604401600060405180830381600087803b1580156107d357600080fd5b505af11580156107e7573d6000803e3d6000fd5b505050506000606754826107fb919061110f565b604051909150339082156108fc029083906000818181858888f19350505050158015610635573d6000803e3d6000fd5b6000606d54606e5461083d919061112e565b43101561084a5750600090565b606954606f541061085b5750600290565b50600190565b6033546001600160a01b0316331461088b5760405162461bcd60e51b815260040161056e906110ae565b60028061089661082b565b60028111156108a7576108a7610fd7565b146108c45760405162461bcd60e51b815260040161056e906110e3565b6040516001600160a01b03831690303180156108fc02916000818181858888f193505050501580156108fa573d6000803e3d6000fd5b505050565b60008061090a61082b565b600281111561091b5761091b610fd7565b146109385760405162461bcd60e51b815260040161056e906110e3565b606a5482101561098a5760405162461bcd60e51b815260206004820152601d60248201527f416d6f756e74206c657373207468616e206d696e207075726368617365000000604482015260640161056e565b606754610997908361110f565b34146109e55760405162461bcd60e51b815260206004820152601860248201527f496e76616c6964204554482076616c7565207061737365640000000000000000604482015260640161056e565b6109ee3361063b565b821115610a365760405162461bcd60e51b81526020600482015260166024820152754f766572666c6f7773206d617820707572636861736560501b604482015260640161056e565b60685482606f54610a47919061112e565b1115610a895760405162461bcd60e51b815260206004820152601160248201527004f766572666c6f7773206861726463617607c1b604482015260640161056e565b81606f6000828254610a9b919061112e565b90915550503360009081526070602052604081208054849290610abf90849061112e565b9091555050606554606c546001600160a01b039091169063a647e8ec9033908590606490610aed908361110f565b610af890606361112e565b610b029190611146565b606d54606e54610b12919061112e565b6040516001600160e01b031960e087901b1681526001600160a01b039094166004850152602484019290925260448301526064820152608401600060405180830381600087803b158015610b6557600080fd5b505af1158015610b79573d6000803e3d6000fd5b505050505050565b6033546001600160a01b03163314610bab5760405162461bcd60e51b815260040161056e906110ae565b6001600160a01b038116610c105760405162461bcd60e51b815260206004820152602660248201527f4f776e61626c653a206e6577206f776e657220697320746865207a65726f206160448201526564647265737360d01b606482015260840161056e565b610c1981610ca9565b50565b60008054610100900460ff1615610c63578160ff166001148015610c3f5750303b155b610c5b5760405162461bcd60e51b815260040161056e90611168565b506000919050565b60005460ff808416911610610c8a5760405162461bcd60e51b815260040161056e90611168565b506000805460ff191660ff92909216919091179055600190565b919050565b603380546001600160a01b038381166001600160a01b0319831681179093556040519116919082907f8be0079c531659141344cd1fd0a4f28419497f9722a3daafe3b4186f6b6457e090600090a35050565b6000818310610d0a5781610d0c565b825b9392505050565b828054610d1f9061102e565b90600052602060002090601f016020900481019282610d415760008555610d87565b82601f10610d5a57805160ff1916838001178555610d87565b82800160010185558215610d87579182015b82811115610d87578251825591602001919060010190610d6c565b50610d93929150610d97565b5090565b5b80821115610d935760008155600101610d98565b600060208083528351808285015260005b81811015610dd957858101830151858201604001528201610dbd565b81811115610deb576000604083870101525b50601f01601f1916929092016040019392505050565b80356001600160a01b0381168114610ca457600080fd5b634e487b7160e01b600052604160045260246000fd5b604051610100810167ffffffffffffffff81118282101715610e5257610e52610e18565b60405290565b600082601f830112610e6957600080fd5b813567ffffffffffffffff80821115610e8457610e84610e18565b604051601f8301601f19908116603f01168101908282118183101715610eac57610eac610e18565b81604052838152866020858801011115610ec557600080fd5b836020870160208301376000602085830101528094505050505092915050565b600080600060608486031215610efa57600080fd5b610f0384610e01565b9250610f1160208501610e01565b9150604084013567ffffffffffffffff80821115610f2e57600080fd5b908501906101008288031215610f4357600080fd5b610f4b610e2e565b823582811115610f5a57600080fd5b610f6689828601610e58565b8252506020830135602082015260408301356040820152606083013560608201526080830135608082015260a083013560a082015260c083013560c082015260e083013560e08201528093505050509250925092565b600060208284031215610fce57600080fd5b610d0c82610e01565b634e487b7160e01b600052602160045260246000fd5b602081016003831061100f57634e487b7160e01b600052602160045260246000fd5b91905290565b60006020828403121561102757600080fd5b5035919050565b600181811c9082168061104257607f821691505b60208210810361106257634e487b7160e01b600052602260045260246000fd5b50919050565b60006020828403121561107a57600080fd5b5051919050565b634e487b7160e01b600052601160045260246000fd5b6000828210156110a9576110a9611081565b500390565b6020808252818101527f4f776e61626c653a2063616c6c6572206973206e6f7420746865206f776e6572604082015260600190565b60208082526012908201527154474520696e2077726f6e6720737461746560701b604082015260600190565b600081600019048311821515161561112957611129611081565b500290565b6000821982111561114157611141611081565b500190565b60008261116357634e487b7160e01b600052601260045260246000fd5b500490565b6020808252602e908201527f496e697469616c697a61626c653a20636f6e747261637420697320616c72656160408201526d191e481a5b9a5d1a585b1a5e995960921b60608201526080019056fea26469706673582212200fbbea395f3992bc3f554ee6e2bf399f7a9f715f1c4bd6091507daff3539389f64736f6c634300080d0033",
  "devdoc": {
    "kind": "dev",
    "methods": {
      "owner()": {
        "details": "Returns the address of the current owner."
      },
      "renounceOwnership()": {
        "details": "Leaves the contract without owner. It will not be possible to call `onlyOwner` functions anymore. Can only be called by the current owner. NOTE: Renouncing ownership will leave the contract without an owner, thereby removing any functionality that is only available to the owner."
      },
      "transferOwnership(address)": {
        "details": "Transfers ownership of the contract to a new account (`newOwner`). Can only be called by the current owner."
      }
    },
    "version": 1
  },
  "userdoc": {
    "kind": "user",
    "methods": {},
    "version": 1
  },
  "storageLayout": {
    "storage": [
      {
        "astId": 208,
        "contract": "contracts/TGE.sol:TGE",
        "label": "_initialized",
        "offset": 0,
        "slot": "0",
        "type": "t_uint8"
      },
      {
        "astId": 211,
        "contract": "contracts/TGE.sol:TGE",
        "label": "_initializing",
        "offset": 1,
        "slot": "0",
        "type": "t_bool"
      },
      {
        "astId": 2312,
        "contract": "contracts/TGE.sol:TGE",
        "label": "__gap",
        "offset": 0,
        "slot": "1",
        "type": "t_array(t_uint256)50_storage"
      },
      {
        "astId": 10,
        "contract": "contracts/TGE.sol:TGE",
        "label": "_owner",
        "offset": 0,
        "slot": "51",
        "type": "t_address"
      },
      {
        "astId": 122,
        "contract": "contracts/TGE.sol:TGE",
        "label": "__gap",
        "offset": 0,
        "slot": "52",
        "type": "t_array(t_uint256)49_storage"
      },
      {
        "astId": 5764,
        "contract": "contracts/TGE.sol:TGE",
        "label": "token",
        "offset": 0,
        "slot": "101",
        "type": "t_contract(IGovernanceToken)6484"
      },
      {
        "astId": 5766,
        "contract": "contracts/TGE.sol:TGE",
        "label": "metadataURI",
        "offset": 0,
        "slot": "102",
        "type": "t_string_storage"
      },
      {
        "astId": 5768,
        "contract": "contracts/TGE.sol:TGE",
        "label": "price",
        "offset": 0,
        "slot": "103",
        "type": "t_uint256"
      },
      {
        "astId": 5770,
        "contract": "contracts/TGE.sol:TGE",
        "label": "hardcap",
        "offset": 0,
        "slot": "104",
        "type": "t_uint256"
      },
      {
        "astId": 5772,
        "contract": "contracts/TGE.sol:TGE",
        "label": "softcap",
        "offset": 0,
        "slot": "105",
        "type": "t_uint256"
      },
      {
        "astId": 5774,
        "contract": "contracts/TGE.sol:TGE",
        "label": "minPurchase",
        "offset": 0,
        "slot": "106",
        "type": "t_uint256"
      },
      {
        "astId": 5776,
        "contract": "contracts/TGE.sol:TGE",
        "label": "maxPurchase",
        "offset": 0,
        "slot": "107",
        "type": "t_uint256"
      },
      {
        "astId": 5778,
        "contract": "contracts/TGE.sol:TGE",
        "label": "lockupPercent",
        "offset": 0,
        "slot": "108",
        "type": "t_uint256"
      },
      {
        "astId": 5780,
        "contract": "contracts/TGE.sol:TGE",
        "label": "duration",
        "offset": 0,
        "slot": "109",
        "type": "t_uint256"
      },
      {
        "astId": 5782,
        "contract": "contracts/TGE.sol:TGE",
        "label": "createdAt",
        "offset": 0,
        "slot": "110",
        "type": "t_uint256"
      },
      {
        "astId": 5784,
        "contract": "contracts/TGE.sol:TGE",
        "label": "totalPurchases",
        "offset": 0,
        "slot": "111",
        "type": "t_uint256"
      },
      {
        "astId": 5788,
        "contract": "contracts/TGE.sol:TGE",
        "label": "purchaseOf",
        "offset": 0,
        "slot": "112",
        "type": "t_mapping(t_address,t_uint256)"
      }
    ],
    "types": {
      "t_address": {
        "encoding": "inplace",
        "label": "address",
        "numberOfBytes": "20"
      },
      "t_array(t_uint256)49_storage": {
        "base": "t_uint256",
        "encoding": "inplace",
        "label": "uint256[49]",
        "numberOfBytes": "1568"
      },
      "t_array(t_uint256)50_storage": {
        "base": "t_uint256",
        "encoding": "inplace",
        "label": "uint256[50]",
        "numberOfBytes": "1600"
      },
      "t_bool": {
        "encoding": "inplace",
        "label": "bool",
        "numberOfBytes": "1"
      },
      "t_contract(IGovernanceToken)6484": {
        "encoding": "inplace",
        "label": "contract IGovernanceToken",
        "numberOfBytes": "20"
      },
      "t_mapping(t_address,t_uint256)": {
        "encoding": "mapping",
        "key": "t_address",
        "label": "mapping(address => uint256)",
        "numberOfBytes": "32",
        "value": "t_uint256"
      },
      "t_string_storage": {
        "encoding": "bytes",
        "label": "string",
        "numberOfBytes": "32"
      },
      "t_uint256": {
        "encoding": "inplace",
        "label": "uint256",
        "numberOfBytes": "32"
      },
      "t_uint8": {
        "encoding": "inplace",
        "label": "uint8",
        "numberOfBytes": "1"
      }
    }
  }
}