{
  "address": "0xCaC953d93F8D16a04Fe82874D2DBe6A3d2277866",
  "abi": [
    {
      "anonymous": false,
      "inputs": [
        {
          "indexed": false,
          "internalType": "uint256",
          "name": "index",
          "type": "uint256"
        },
        {
          "indexed": false,
          "internalType": "string",
          "name": "description",
          "type": "string"
        }
      ],
      "name": "ContractDescriptionSet",
      "type": "event"
    },
    {
      "anonymous": false,
      "inputs": [
        {
          "indexed": false,
          "internalType": "uint256",
          "name": "index",
          "type": "uint256"
        },
        {
          "indexed": false,
          "internalType": "address",
          "name": "addr",
          "type": "address"
        },
        {
          "indexed": false,
          "internalType": "enum IDirectory.ContractType",
          "name": "contractType",
          "type": "uint8"
        }
      ],
      "name": "ContractRecordAdded",
      "type": "event"
    },
    {
      "anonymous": false,
      "inputs": [
        {
          "indexed": true,
          "internalType": "address",
          "name": "previousOwner",
          "type": "address"
        },
        {
          "indexed": true,
          "internalType": "address",
          "name": "newOwner",
          "type": "address"
        }
      ],
      "name": "OwnershipTransferred",
      "type": "event"
    },
    {
      "anonymous": false,
      "inputs": [
        {
          "indexed": false,
          "internalType": "uint256",
          "name": "index",
          "type": "uint256"
        },
        {
          "indexed": false,
          "internalType": "string",
          "name": "description",
          "type": "string"
        }
      ],
      "name": "ProposalDescriptionSet",
      "type": "event"
    },
    {
      "anonymous": false,
      "inputs": [
        {
          "indexed": false,
          "internalType": "uint256",
          "name": "index",
          "type": "uint256"
        },
        {
          "indexed": false,
          "internalType": "address",
          "name": "pool",
          "type": "address"
        },
        {
          "indexed": false,
          "internalType": "uint256",
          "name": "proposalId",
          "type": "uint256"
        }
      ],
      "name": "ProposalRecordAdded",
      "type": "event"
    },
    {
      "anonymous": false,
      "inputs": [
        {
          "indexed": false,
          "internalType": "address",
          "name": "service",
          "type": "address"
        }
      ],
      "name": "ServiceSet",
      "type": "event"
    },
    {
      "inputs": [
        {
          "internalType": "address",
          "name": "addr",
          "type": "address"
        },
        {
          "internalType": "enum IDirectory.ContractType",
          "name": "contractType",
          "type": "uint8"
        }
      ],
      "name": "addContractRecord",
      "outputs": [
        {
          "internalType": "uint256",
          "name": "index",
          "type": "uint256"
        }
      ],
      "stateMutability": "nonpayable",
      "type": "function"
    },
    {
      "inputs": [
        {
          "internalType": "address",
          "name": "pool",
          "type": "address"
        },
        {
          "internalType": "uint256",
          "name": "proposalId",
          "type": "uint256"
        }
      ],
      "name": "addProposalRecord",
      "outputs": [
        {
          "internalType": "uint256",
          "name": "index",
          "type": "uint256"
        }
      ],
      "stateMutability": "nonpayable",
      "type": "function"
    },
    {
      "inputs": [
        {
          "internalType": "uint256",
          "name": "",
          "type": "uint256"
        }
      ],
      "name": "contractRecordAt",
      "outputs": [
        {
          "internalType": "address",
          "name": "addr",
          "type": "address"
        },
        {
          "internalType": "enum IDirectory.ContractType",
          "name": "contractType",
          "type": "uint8"
        },
        {
          "internalType": "string",
          "name": "description",
          "type": "string"
        }
      ],
      "stateMutability": "view",
      "type": "function"
    },
    {
      "inputs": [
        {
          "internalType": "address",
          "name": "",
          "type": "address"
        }
      ],
      "name": "indexOfContract",
      "outputs": [
        {
          "internalType": "uint256",
          "name": "",
          "type": "uint256"
        }
      ],
      "stateMutability": "view",
      "type": "function"
    },
    {
      "inputs": [],
      "name": "lastContractRecordIndex",
      "outputs": [
        {
          "internalType": "uint256",
          "name": "",
          "type": "uint256"
        }
      ],
      "stateMutability": "view",
      "type": "function"
    },
    {
      "inputs": [],
      "name": "lastProposalRecordIndex",
      "outputs": [
        {
          "internalType": "uint256",
          "name": "",
          "type": "uint256"
        }
      ],
      "stateMutability": "view",
      "type": "function"
    },
    {
      "inputs": [],
      "name": "owner",
      "outputs": [
        {
          "internalType": "address",
          "name": "",
          "type": "address"
        }
      ],
      "stateMutability": "view",
      "type": "function"
    },
    {
      "inputs": [
        {
          "internalType": "uint256",
          "name": "",
          "type": "uint256"
        }
      ],
      "name": "proposalRecordAt",
      "outputs": [
        {
          "internalType": "address",
          "name": "pool",
          "type": "address"
        },
        {
          "internalType": "uint256",
          "name": "proposalId",
          "type": "uint256"
        },
        {
          "internalType": "string",
          "name": "description",
          "type": "string"
        }
      ],
      "stateMutability": "view",
      "type": "function"
    },
    {
      "inputs": [],
      "name": "renounceOwnership",
      "outputs": [],
      "stateMutability": "nonpayable",
      "type": "function"
    },
    {
      "inputs": [],
      "name": "service",
      "outputs": [
        {
          "internalType": "address",
          "name": "",
          "type": "address"
        }
      ],
      "stateMutability": "view",
      "type": "function"
    },
    {
      "inputs": [
        {
          "internalType": "uint256",
          "name": "index",
          "type": "uint256"
        },
        {
          "internalType": "string",
          "name": "description",
          "type": "string"
        }
      ],
      "name": "setContractDescription",
      "outputs": [],
      "stateMutability": "nonpayable",
      "type": "function"
    },
    {
      "inputs": [
        {
          "internalType": "uint256",
          "name": "index",
          "type": "uint256"
        },
        {
          "internalType": "string",
          "name": "description",
          "type": "string"
        }
      ],
      "name": "setProposalDescription",
      "outputs": [],
      "stateMutability": "nonpayable",
      "type": "function"
    },
    {
      "inputs": [
        {
          "internalType": "address",
          "name": "service_",
          "type": "address"
        }
      ],
      "name": "setService",
      "outputs": [],
      "stateMutability": "nonpayable",
      "type": "function"
    },
    {
      "inputs": [
        {
          "internalType": "address",
          "name": "newOwner",
          "type": "address"
        }
      ],
      "name": "transferOwnership",
      "outputs": [],
      "stateMutability": "nonpayable",
      "type": "function"
    },
    {
      "inputs": [
        {
          "internalType": "address",
          "name": "addr",
          "type": "address"
        }
      ],
      "name": "typeOf",
      "outputs": [
        {
          "internalType": "enum IDirectory.ContractType",
          "name": "",
          "type": "uint8"
        }
      ],
      "stateMutability": "view",
      "type": "function"
    }
  ],
  "transactionHash": "0x2e8868b467dc7c406e5b9bd86766e47cc80d1bf2961dcf26b6290b0cc8e1d223",
  "args": [],
  "numDeployments": 1,
  "solcInputHash": "94ddda3987025101563255eb764e15e9",
  "bytecode": "0x608060405234801561001057600080fd5b5061001a3361001f565b61006f565b600080546001600160a01b038381166001600160a01b0319831681178455604051919092169283917f8be0079c531659141344cd1fd0a4f28419497f9722a3daafe3b4186f6b6457e09190a35050565b610ce58061007e6000396000f3fe608060405234801561001057600080fd5b50600436106100f55760003560e01c8063867c5ce411610097578063d598d4c911610066578063d598d4c914610229578063e863325c1461023c578063f2fde38b1461025e578063f4be93691461027157600080fd5b8063867c5ce4146101c65780638da5cb5b146101cf5780638f78131d146101f4578063bf8bdac11461021657600080fd5b80634dcbe29c116100d35780634dcbe29c146101555780636dcb0cf81461015e578063715018a6146101ab578063740b2e82146101b357600080fd5b80630c80f364146100fa578063121f661c146101205780633cf6f97e14610140575b600080fd5b61010d61010836600461096c565b610284565b6040519081526020015b60405180910390f35b61010d61012e3660046109a7565b60046020526000908152604090205481565b61015361014e3660046109df565b610401565b005b61010d60065481565b61019e61016c3660046109a7565b6001600160a01b031660009081526004602090815260408083205483526002909152902054600160a01b900460ff1690565b6040516101179190610ad2565b61015361048e565b6101536101c13660046109df565b6104c4565b61010d60035481565b6000546001600160a01b03165b6040516001600160a01b039091168152602001610117565b610207610202366004610ae6565b610545565b60405161011793929190610b4c565b6101536102243660046109a7565b6105fa565b6001546101dc906001600160a01b031681565b61024f61024a366004610ae6565b610678565b60405161011793929190610b7c565b61015361026c3660046109a7565b6106b0565b61010d61027f366004610bab565b61074b565b6001546000906001600160a01b031633146102d45760405162461bcd60e51b815260206004820152600b60248201526a4e6f74207365727669636560a81b60448201526064015b60405180910390fd5b6003600081546102e390610bd5565b91905081905590506040518060600160405280846001600160a01b0316815260200183600381111561031757610317610a9a565b81526040805160208181018352600080835293810191909152848352600281529120825181546001600160a01b039091166001600160a01b031982168117835592840151919283916001600160a81b03191617600160a01b83600381111561038157610381610a9a565b0217905550604082015180516103a19160018401916020909101906108b7565b5050506001600160a01b03831660009081526004602052604090819020829055517f30ae76c641f7b77628da0dd91b34591e5b1dc7422220e5eb1080af2adfa142ef906103f390839086908690610bfc565b60405180910390a192915050565b6000546001600160a01b0316331461042b5760405162461bcd60e51b81526004016102cb90610c27565b60008281526005602090815260409091208251610450926002909201918401906108b7565b507fd4b52f51f8409bb81cfc40bc8589bda5074506c1be73813a83f4920ee7c1760c8282604051610482929190610c5c565b60405180910390a15050565b6000546001600160a01b031633146104b85760405162461bcd60e51b81526004016102cb90610c27565b6104c26000610867565b565b6000546001600160a01b031633146104ee5760405162461bcd60e51b81526004016102cb90610c27565b60008281526002602090815260409091208251610513926001909201918401906108b7565b507f69e93226f950dc1ac48f9d4ce72d39b74e7dca96d8083af3fa382ca2c9f5b7b88282604051610482929190610c5c565b6005602052600090815260409020805460018201546002830180546001600160a01b0390931693919261057790610c75565b80601f01602080910402602001604051908101604052809291908181526020018280546105a390610c75565b80156105f05780601f106105c5576101008083540402835291602001916105f0565b820191906000526020600020905b8154815290600101906020018083116105d357829003601f168201915b5050505050905083565b6000546001600160a01b031633146106245760405162461bcd60e51b81526004016102cb90610c27565b600180546001600160a01b0319166001600160a01b0383169081179091556040519081527fba4ef9f2abdeba1a78e372c28a47041ab716052e293845701bc5465fc4e7cf619060200160405180910390a150565b600260205260009081526040902080546001820180546001600160a01b03831693600160a01b90930460ff1692919061057790610c75565b6000546001600160a01b031633146106da5760405162461bcd60e51b81526004016102cb90610c27565b6001600160a01b03811661073f5760405162461bcd60e51b815260206004820152602660248201527f4f776e61626c653a206e6577206f776e657220697320746865207a65726f206160448201526564647265737360d01b60648201526084016102cb565b61074881610867565b50565b6001546000906001600160a01b031633146107965760405162461bcd60e51b815260206004820152600b60248201526a4e6f74207365727669636560a81b60448201526064016102cb565b6006600081546107a590610bd5565b9182905550604080516060810182526001600160a01b03868116825260208083018781528451808301865260008082528587019182528781526005845295909520845181546001600160a01b0319169416939093178355516001830155925180519495509193909261081e9260028501929101906108b7565b5050604080518381526001600160a01b03861660208201529081018490527f275b6fbf6c9e793a28d01c614ff750fb316acacb6c25f06fdb8ac72d9dbabb0891506060016103f3565b600080546001600160a01b038381166001600160a01b0319831681178455604051919092169283917f8be0079c531659141344cd1fd0a4f28419497f9722a3daafe3b4186f6b6457e09190a35050565b8280546108c390610c75565b90600052602060002090601f0160209004810192826108e5576000855561092b565b82601f106108fe57805160ff191683800117855561092b565b8280016001018555821561092b579182015b8281111561092b578251825591602001919060010190610910565b5061093792915061093b565b5090565b5b80821115610937576000815560010161093c565b80356001600160a01b038116811461096757600080fd5b919050565b6000806040838503121561097f57600080fd5b61098883610950565b915060208301356004811061099c57600080fd5b809150509250929050565b6000602082840312156109b957600080fd5b6109c282610950565b9392505050565b634e487b7160e01b600052604160045260246000fd5b600080604083850312156109f257600080fd5b82359150602083013567ffffffffffffffff80821115610a1157600080fd5b818501915085601f830112610a2557600080fd5b813581811115610a3757610a376109c9565b604051601f8201601f19908116603f01168101908382118183101715610a5f57610a5f6109c9565b81604052828152886020848701011115610a7857600080fd5b8260208601602083013760006020848301015280955050505050509250929050565b634e487b7160e01b600052602160045260246000fd5b60048110610ace57634e487b7160e01b600052602160045260246000fd5b9052565b60208101610ae08284610ab0565b92915050565b600060208284031215610af857600080fd5b5035919050565b6000815180845260005b81811015610b2557602081850181015186830182015201610b09565b81811115610b37576000602083870101525b50601f01601f19169290920160200192915050565b60018060a01b0384168152826020820152606060408201526000610b736060830184610aff565b95945050505050565b6001600160a01b0384168152610b956020820184610ab0565b606060408201526000610b736060830184610aff565b60008060408385031215610bbe57600080fd5b610bc783610950565b946020939093013593505050565b600060018201610bf557634e487b7160e01b600052601160045260246000fd5b5060010190565b8381526001600160a01b038316602082015260608101610c1f6040830184610ab0565b949350505050565b6020808252818101527f4f776e61626c653a2063616c6c6572206973206e6f7420746865206f776e6572604082015260600190565b828152604060208201526000610c1f6040830184610aff565b600181811c90821680610c8957607f821691505b602082108103610ca957634e487b7160e01b600052602260045260246000fd5b5091905056fea2646970667358221220d7c1ee8be3d0a6f131593e7051a75172b508c655c9b2c79a83f4c39dc28e77d064736f6c634300080d0033",
  "devdoc": {
    "kind": "dev",
    "methods": {
      "owner()": {
        "details": "Returns the address of the current owner."
      },
      "renounceOwnership()": {
        "details": "Leaves the contract without owner. It will not be possible to call `onlyOwner` functions anymore. Can only be called by the current owner. NOTE: Renouncing ownership will leave the contract without an owner, thereby removing any functionality that is only available to the owner."
      },
      "transferOwnership(address)": {
        "details": "Transfers ownership of the contract to a new account (`newOwner`). Can only be called by the current owner."
      }
    },
    "version": 1
  },
  "userdoc": {
    "kind": "user",
    "methods": {},
    "version": 1
  },
  "storageLayout": {
    "storage": [
      {
        "astId": 4403,
        "contract": "contracts/Directory.sol:Directory",
        "label": "_owner",
        "offset": 0,
        "slot": "0",
        "type": "t_address"
      },
      {
        "astId": 6619,
        "contract": "contracts/Directory.sol:Directory",
        "label": "service",
        "offset": 0,
        "slot": "1",
        "type": "t_address"
      },
      {
        "astId": 6632,
        "contract": "contracts/Directory.sol:Directory",
        "label": "contractRecordAt",
        "offset": 0,
        "slot": "2",
        "type": "t_mapping(t_uint256,t_struct(ContractInfo)6627_storage)"
      },
      {
        "astId": 6634,
        "contract": "contracts/Directory.sol:Directory",
        "label": "lastContractRecordIndex",
        "offset": 0,
        "slot": "3",
        "type": "t_uint256"
      },
      {
        "astId": 6638,
        "contract": "contracts/Directory.sol:Directory",
        "label": "indexOfContract",
        "offset": 0,
        "slot": "4",
        "type": "t_mapping(t_address,t_uint256)"
      },
      {
        "astId": 6650,
        "contract": "contracts/Directory.sol:Directory",
        "label": "proposalRecordAt",
        "offset": 0,
        "slot": "5",
        "type": "t_mapping(t_uint256,t_struct(ProposalInfo)6645_storage)"
      },
      {
        "astId": 6652,
        "contract": "contracts/Directory.sol:Directory",
        "label": "lastProposalRecordIndex",
        "offset": 0,
        "slot": "6",
        "type": "t_uint256"
      }
    ],
    "types": {
      "t_address": {
        "encoding": "inplace",
        "label": "address",
        "numberOfBytes": "20"
      },
      "t_enum(ContractType)10634": {
        "encoding": "inplace",
        "label": "enum IDirectory.ContractType",
        "numberOfBytes": "1"
      },
      "t_mapping(t_address,t_uint256)": {
        "encoding": "mapping",
        "key": "t_address",
        "label": "mapping(address => uint256)",
        "numberOfBytes": "32",
        "value": "t_uint256"
      },
      "t_mapping(t_uint256,t_struct(ContractInfo)6627_storage)": {
        "encoding": "mapping",
        "key": "t_uint256",
        "label": "mapping(uint256 => struct Directory.ContractInfo)",
        "numberOfBytes": "32",
        "value": "t_struct(ContractInfo)6627_storage"
      },
      "t_mapping(t_uint256,t_struct(ProposalInfo)6645_storage)": {
        "encoding": "mapping",
        "key": "t_uint256",
        "label": "mapping(uint256 => struct Directory.ProposalInfo)",
        "numberOfBytes": "32",
        "value": "t_struct(ProposalInfo)6645_storage"
      },
      "t_string_storage": {
        "encoding": "bytes",
        "label": "string",
        "numberOfBytes": "32"
      },
      "t_struct(ContractInfo)6627_storage": {
        "encoding": "inplace",
        "label": "struct Directory.ContractInfo",
        "members": [
          {
            "astId": 6621,
            "contract": "contracts/Directory.sol:Directory",
            "label": "addr",
            "offset": 0,
            "slot": "0",
            "type": "t_address"
          },
          {
            "astId": 6624,
            "contract": "contracts/Directory.sol:Directory",
            "label": "contractType",
            "offset": 20,
            "slot": "0",
            "type": "t_enum(ContractType)10634"
          },
          {
            "astId": 6626,
            "contract": "contracts/Directory.sol:Directory",
            "label": "description",
            "offset": 0,
            "slot": "1",
            "type": "t_string_storage"
          }
        ],
        "numberOfBytes": "64"
      },
      "t_struct(ProposalInfo)6645_storage": {
        "encoding": "inplace",
        "label": "struct Directory.ProposalInfo",
        "members": [
          {
            "astId": 6640,
            "contract": "contracts/Directory.sol:Directory",
            "label": "pool",
            "offset": 0,
            "slot": "0",
            "type": "t_address"
          },
          {
            "astId": 6642,
            "contract": "contracts/Directory.sol:Directory",
            "label": "proposalId",
            "offset": 0,
            "slot": "1",
            "type": "t_uint256"
          },
          {
            "astId": 6644,
            "contract": "contracts/Directory.sol:Directory",
            "label": "description",
            "offset": 0,
            "slot": "2",
            "type": "t_string_storage"
          }
        ],
        "numberOfBytes": "96"
      },
      "t_uint256": {
        "encoding": "inplace",
        "label": "uint256",
        "numberOfBytes": "32"
      }
    }
  }
}