{
  "address": "0xa88b9E9C08A1525D21b53Ba3f3562ee3870196BD",
  "abi": [
    {
      "anonymous": false,
      "inputs": [
        {
          "indexed": true,
          "internalType": "address",
          "name": "owner",
          "type": "address"
        },
        {
          "indexed": true,
          "internalType": "address",
          "name": "spender",
          "type": "address"
        },
        {
          "indexed": false,
          "internalType": "uint256",
          "name": "value",
          "type": "uint256"
        }
      ],
      "name": "Approval",
      "type": "event"
    },
    {
      "anonymous": false,
      "inputs": [
        {
          "indexed": true,
          "internalType": "address",
          "name": "delegator",
          "type": "address"
        },
        {
          "indexed": true,
          "internalType": "address",
          "name": "fromDelegate",
          "type": "address"
        },
        {
          "indexed": true,
          "internalType": "address",
          "name": "toDelegate",
          "type": "address"
        }
      ],
      "name": "DelegateChanged",
      "type": "event"
    },
    {
      "anonymous": false,
      "inputs": [
        {
          "indexed": true,
          "internalType": "address",
          "name": "delegate",
          "type": "address"
        },
        {
          "indexed": false,
          "internalType": "uint256",
          "name": "previousBalance",
          "type": "uint256"
        },
        {
          "indexed": false,
          "internalType": "uint256",
          "name": "newBalance",
          "type": "uint256"
        }
      ],
      "name": "DelegateVotesChanged",
      "type": "event"
    },
    {
      "anonymous": false,
      "inputs": [
        {
          "indexed": false,
          "internalType": "uint8",
          "name": "version",
          "type": "uint8"
        }
      ],
      "name": "Initialized",
      "type": "event"
    },
    {
      "anonymous": false,
      "inputs": [
        {
          "indexed": true,
          "internalType": "address",
          "name": "previousOwner",
          "type": "address"
        },
        {
          "indexed": true,
          "internalType": "address",
          "name": "newOwner",
          "type": "address"
        }
      ],
      "name": "OwnershipTransferred",
      "type": "event"
    },
    {
      "anonymous": false,
      "inputs": [
        {
          "indexed": true,
          "internalType": "address",
          "name": "from",
          "type": "address"
        },
        {
          "indexed": true,
          "internalType": "address",
          "name": "to",
          "type": "address"
        },
        {
          "indexed": false,
          "internalType": "uint256",
          "name": "value",
          "type": "uint256"
        }
      ],
      "name": "Transfer",
      "type": "event"
    },
    {
      "inputs": [],
      "name": "DOMAIN_SEPARATOR",
      "outputs": [
        {
          "internalType": "bytes32",
          "name": "",
          "type": "bytes32"
        }
      ],
      "stateMutability": "view",
      "type": "function"
    },
    {
      "inputs": [
        {
          "internalType": "address",
          "name": "owner",
          "type": "address"
        },
        {
          "internalType": "address",
          "name": "spender",
          "type": "address"
        }
      ],
      "name": "allowance",
      "outputs": [
        {
          "internalType": "uint256",
          "name": "",
          "type": "uint256"
        }
      ],
      "stateMutability": "view",
      "type": "function"
    },
    {
      "inputs": [
        {
          "internalType": "address",
          "name": "spender",
          "type": "address"
        },
        {
          "internalType": "uint256",
          "name": "amount",
          "type": "uint256"
        }
      ],
      "name": "approve",
      "outputs": [
        {
          "internalType": "bool",
          "name": "",
          "type": "bool"
        }
      ],
      "stateMutability": "nonpayable",
      "type": "function"
    },
    {
      "inputs": [
        {
          "internalType": "address",
          "name": "account",
          "type": "address"
        }
      ],
      "name": "balanceOf",
      "outputs": [
        {
          "internalType": "uint256",
          "name": "",
          "type": "uint256"
        }
      ],
      "stateMutability": "view",
      "type": "function"
    },
    {
      "inputs": [
        {
          "internalType": "address",
          "name": "from",
          "type": "address"
        },
        {
          "internalType": "uint256",
          "name": "amount",
          "type": "uint256"
        }
      ],
      "name": "burn",
      "outputs": [],
      "stateMutability": "nonpayable",
      "type": "function"
    },
    {
      "inputs": [],
      "name": "cap",
      "outputs": [
        {
          "internalType": "uint256",
          "name": "",
          "type": "uint256"
        }
      ],
      "stateMutability": "view",
      "type": "function"
    },
    {
      "inputs": [
        {
          "internalType": "address",
          "name": "account",
          "type": "address"
        },
        {
          "internalType": "uint32",
          "name": "pos",
          "type": "uint32"
        }
      ],
      "name": "checkpoints",
      "outputs": [
        {
          "components": [
            {
              "internalType": "uint32",
              "name": "fromBlock",
              "type": "uint32"
            },
            {
              "internalType": "uint224",
              "name": "votes",
              "type": "uint224"
            }
          ],
          "internalType": "struct ERC20VotesUpgradeable.Checkpoint",
          "name": "",
          "type": "tuple"
        }
      ],
      "stateMutability": "view",
      "type": "function"
    },
    {
      "inputs": [],
      "name": "decimals",
      "outputs": [
        {
          "internalType": "uint8",
          "name": "",
          "type": "uint8"
        }
      ],
      "stateMutability": "pure",
      "type": "function"
    },
    {
      "inputs": [
        {
          "internalType": "address",
          "name": "spender",
          "type": "address"
        },
        {
          "internalType": "uint256",
          "name": "subtractedValue",
          "type": "uint256"
        }
      ],
      "name": "decreaseAllowance",
      "outputs": [
        {
          "internalType": "bool",
          "name": "",
          "type": "bool"
        }
      ],
      "stateMutability": "nonpayable",
      "type": "function"
    },
    {
      "inputs": [
        {
          "internalType": "address",
          "name": "delegatee",
          "type": "address"
        }
      ],
      "name": "delegate",
      "outputs": [],
      "stateMutability": "nonpayable",
      "type": "function"
    },
    {
      "inputs": [
        {
          "internalType": "address",
          "name": "delegatee",
          "type": "address"
        },
        {
          "internalType": "uint256",
          "name": "nonce",
          "type": "uint256"
        },
        {
          "internalType": "uint256",
          "name": "expiry",
          "type": "uint256"
        },
        {
          "internalType": "uint8",
          "name": "v",
          "type": "uint8"
        },
        {
          "internalType": "bytes32",
          "name": "r",
          "type": "bytes32"
        },
        {
          "internalType": "bytes32",
          "name": "s",
          "type": "bytes32"
        }
      ],
      "name": "delegateBySig",
      "outputs": [],
      "stateMutability": "nonpayable",
      "type": "function"
    },
    {
      "inputs": [
        {
          "internalType": "address",
          "name": "account",
          "type": "address"
        }
      ],
      "name": "delegates",
      "outputs": [
        {
          "internalType": "address",
          "name": "",
          "type": "address"
        }
      ],
      "stateMutability": "view",
      "type": "function"
    },
    {
      "inputs": [
        {
          "internalType": "uint256",
          "name": "blockNumber",
          "type": "uint256"
        }
      ],
      "name": "getPastTotalSupply",
      "outputs": [
        {
          "internalType": "uint256",
          "name": "",
          "type": "uint256"
        }
      ],
      "stateMutability": "view",
      "type": "function"
    },
    {
      "inputs": [
        {
          "internalType": "address",
          "name": "account",
          "type": "address"
        },
        {
          "internalType": "uint256",
          "name": "blockNumber",
          "type": "uint256"
        }
      ],
      "name": "getPastVotes",
      "outputs": [
        {
          "internalType": "uint256",
          "name": "",
          "type": "uint256"
        }
      ],
      "stateMutability": "view",
      "type": "function"
    },
    {
      "inputs": [
        {
          "internalType": "address",
          "name": "account",
          "type": "address"
        }
      ],
      "name": "getVotes",
      "outputs": [
        {
          "internalType": "uint256",
          "name": "",
          "type": "uint256"
        }
      ],
      "stateMutability": "view",
      "type": "function"
    },
    {
      "inputs": [
        {
          "internalType": "address",
          "name": "spender",
          "type": "address"
        },
        {
          "internalType": "uint256",
          "name": "addedValue",
          "type": "uint256"
        }
      ],
      "name": "increaseAllowance",
      "outputs": [
        {
          "internalType": "bool",
          "name": "",
          "type": "bool"
        }
      ],
      "stateMutability": "nonpayable",
      "type": "function"
    },
    {
      "inputs": [
        {
          "internalType": "address",
          "name": "pool_",
          "type": "address"
        },
        {
          "components": [
            {
              "internalType": "string",
              "name": "name",
              "type": "string"
            },
            {
              "internalType": "string",
              "name": "symbol",
              "type": "string"
            },
            {
              "internalType": "uint256",
              "name": "cap",
              "type": "uint256"
            }
          ],
          "internalType": "struct IGovernanceToken.TokenInfo",
          "name": "info",
          "type": "tuple"
        }
      ],
      "name": "initialize",
      "outputs": [],
      "stateMutability": "nonpayable",
      "type": "function"
    },
    {
      "inputs": [
        {
          "internalType": "address",
          "name": "account",
          "type": "address"
        },
        {
          "internalType": "uint256",
          "name": "amount",
          "type": "uint256"
        },
        {
          "internalType": "uint256",
          "name": "deadline",
          "type": "uint256"
        }
      ],
      "name": "lock",
      "outputs": [],
      "stateMutability": "nonpayable",
      "type": "function"
    },
    {
      "inputs": [
        {
          "internalType": "address",
          "name": "account",
          "type": "address"
        }
      ],
      "name": "lockedBalanceOf",
      "outputs": [
        {
          "internalType": "uint256",
          "name": "",
          "type": "uint256"
        }
      ],
      "stateMutability": "view",
      "type": "function"
    },
    {
      "inputs": [
        {
          "internalType": "address",
          "name": "to",
          "type": "address"
        },
        {
          "internalType": "uint256",
          "name": "amount",
          "type": "uint256"
        }
      ],
      "name": "mint",
      "outputs": [],
      "stateMutability": "nonpayable",
      "type": "function"
    },
    {
      "inputs": [],
      "name": "name",
      "outputs": [
        {
          "internalType": "string",
          "name": "",
          "type": "string"
        }
      ],
      "stateMutability": "view",
      "type": "function"
    },
    {
      "inputs": [
        {
          "internalType": "address",
          "name": "owner",
          "type": "address"
        }
      ],
      "name": "nonces",
      "outputs": [
        {
          "internalType": "uint256",
          "name": "",
          "type": "uint256"
        }
      ],
      "stateMutability": "view",
      "type": "function"
    },
    {
      "inputs": [
        {
          "internalType": "address",
          "name": "account",
          "type": "address"
        }
      ],
      "name": "numCheckpoints",
      "outputs": [
        {
          "internalType": "uint32",
          "name": "",
          "type": "uint32"
        }
      ],
      "stateMutability": "view",
      "type": "function"
    },
    {
      "inputs": [],
      "name": "owner",
      "outputs": [
        {
          "internalType": "address",
          "name": "",
          "type": "address"
        }
      ],
      "stateMutability": "view",
      "type": "function"
    },
    {
      "inputs": [
        {
          "internalType": "address",
          "name": "owner",
          "type": "address"
        },
        {
          "internalType": "address",
          "name": "spender",
          "type": "address"
        },
        {
          "internalType": "uint256",
          "name": "value",
          "type": "uint256"
        },
        {
          "internalType": "uint256",
          "name": "deadline",
          "type": "uint256"
        },
        {
          "internalType": "uint8",
          "name": "v",
          "type": "uint8"
        },
        {
          "internalType": "bytes32",
          "name": "r",
          "type": "bytes32"
        },
        {
          "internalType": "bytes32",
          "name": "s",
          "type": "bytes32"
        }
      ],
      "name": "permit",
      "outputs": [],
      "stateMutability": "nonpayable",
      "type": "function"
    },
    {
      "inputs": [],
      "name": "pool",
      "outputs": [
        {
          "internalType": "address",
          "name": "",
          "type": "address"
        }
      ],
      "stateMutability": "view",
      "type": "function"
    },
    {
      "inputs": [],
      "name": "renounceOwnership",
      "outputs": [],
      "stateMutability": "nonpayable",
      "type": "function"
    },
    {
      "inputs": [],
      "name": "service",
      "outputs": [
        {
          "internalType": "contract IService",
          "name": "",
          "type": "address"
        }
      ],
      "stateMutability": "view",
      "type": "function"
    },
    {
      "inputs": [],
      "name": "symbol",
      "outputs": [
        {
          "internalType": "string",
          "name": "",
          "type": "string"
        }
      ],
      "stateMutability": "view",
      "type": "function"
    },
    {
      "inputs": [],
      "name": "totalSupply",
      "outputs": [
        {
          "internalType": "uint256",
          "name": "",
          "type": "uint256"
        }
      ],
      "stateMutability": "view",
      "type": "function"
    },
    {
      "inputs": [
        {
          "internalType": "address",
          "name": "to",
          "type": "address"
        },
        {
          "internalType": "uint256",
          "name": "amount",
          "type": "uint256"
        }
      ],
      "name": "transfer",
      "outputs": [
        {
          "internalType": "bool",
          "name": "",
          "type": "bool"
        }
      ],
      "stateMutability": "nonpayable",
      "type": "function"
    },
    {
      "inputs": [
        {
          "internalType": "address",
          "name": "from",
          "type": "address"
        },
        {
          "internalType": "address",
          "name": "to",
          "type": "address"
        },
        {
          "internalType": "uint256",
          "name": "amount",
          "type": "uint256"
        }
      ],
      "name": "transferFrom",
      "outputs": [
        {
          "internalType": "bool",
          "name": "",
          "type": "bool"
        }
      ],
      "stateMutability": "nonpayable",
      "type": "function"
    },
    {
      "inputs": [
        {
          "internalType": "address",
          "name": "newOwner",
          "type": "address"
        }
      ],
      "name": "transferOwnership",
      "outputs": [],
      "stateMutability": "nonpayable",
      "type": "function"
    },
    {
      "inputs": [
        {
          "internalType": "address",
          "name": "account",
          "type": "address"
        }
      ],
      "name": "unlockedBalanceOf",
      "outputs": [
        {
          "internalType": "uint256",
          "name": "",
          "type": "uint256"
        }
      ],
      "stateMutability": "view",
      "type": "function"
    }
  ],
  "transactionHash": "0xac6551b34feed807af6d631452afc72216d9c92f6378d99021beb5da5bfc2192",
  "args": [],
  "numDeployments": 1,
  "solcInputHash": "4dfaa6771f87ad430e2d47b84c416ad0",
  "bytecode": "0x608060405234801561001057600080fd5b506129df806100206000396000f3fe608060405234801561001057600080fd5b50600436106102065760003560e01c8063715018a61161011a578063a457c2d7116100ad578063d598d4c91161007c578063d598d4c914610479578063dd62ed3e1461048d578063e2ab691d146104a0578063f1127ed8146104b3578063f2fde38b146104f057600080fd5b8063a457c2d71461042d578063a9059cbb14610440578063c3cda52014610453578063d505accf1461046657600080fd5b80638e539e8c116100e95780638e539e8c146103ec57806395d89b41146103ff5780639ab24eb0146104075780639dc29fac1461041a57600080fd5b8063715018a6146103ad5780637ecebe00146103b557806384955c88146103c85780638da5cb5b146103db57600080fd5b80633644e5151161019d578063587cde1e1161016c578063587cde1e1461030a57806359355736146103365780635c19a95c146103495780636fcfff451461035c57806370a082311461038457600080fd5b80633644e515146102c957806339509351146102d15780633a46b1a8146102e457806340c10f19146102f757600080fd5b806322ae8aef116101d957806322ae8aef1461028a57806323b872dd1461029f578063313ce567146102b2578063355274ea146102c157600080fd5b806306fdde031461020b578063095ea7b31461022957806316f0115b1461024c57806318160ddd14610278575b600080fd5b610213610503565b6040516102209190612404565b60405180910390f35b61023c61023736600461246e565b610595565b6040519015158152602001610220565b61016454610260906001600160a01b031681565b6040516001600160a01b039091168152602001610220565b6067545b604051908152602001610220565b61029d610298366004612566565b6105ad565b005b61023c6102ad366004612616565b61066e565b60405160008152602001610220565b61027c610692565b61027c6106a3565b61023c6102df36600461246e565b6106ad565b61027c6102f236600461246e565b6106cf565b61029d61030536600461246e565b61074e565b610260610318366004612657565b6001600160a01b03908116600090815260fe60205260409020541690565b61027c610344366004612657565b61087f565b61029d610357366004612657565b6108cc565b61036f61036a366004612657565b6108d9565b60405163ffffffff9091168152602001610220565b61027c610392366004612657565b6001600160a01b031660009081526065602052604090205490565b61029d610901565b61027c6103c3366004612657565b610967565b61027c6103d6366004612657565b610985565b6033546001600160a01b0316610260565b61027c6103fa366004612674565b6109b3565b610213610a10565b61027c610415366004612657565b610a1f565b61029d61042836600461246e565b610aa6565b61023c61043b36600461246e565b610bd3565b61023c61044e36600461246e565b610c4e565b61029d61046136600461269e565b610c5c565b61029d6104743660046126f8565b610d92565b61016354610260906001600160a01b031681565b61027c61049b366004612766565b610ef6565b61029d6104ae36600461279f565b610f21565b6104c66104c13660046127d4565b610fa3565b60408051825163ffffffff1681526020928301516001600160e01b03169281019290925201610220565b61029d6104fe366004612657565b611027565b6060606880546105129061280b565b80601f016020809104026020016040519081016040528092919081815260200182805461053e9061280b565b801561058b5780601f106105605761010080835404028352916020019161058b565b820191906000526020600020905b81548152906001019060200180831161056e57829003601f168201915b5050505050905090565b6000336105a38185856110ef565b5060019392505050565b60006105b96001611213565b905080156105d1576000805461ff0019166101001790555b6105e38260000151836020015161129b565b6105f082604001516112cc565b6105f86112fc565b6101638054336001600160a01b03199182161790915561016480549091166001600160a01b0385161790558015610669576000805461ff0019169055604051600181527f7f26b83ff96e1f2b6a682f133852f6798a09c465da95921460cefb38474024989060200160405180910390a15b505050565b60003361067c85828561132b565b6106878585856113a5565b506001949350505050565b600061069e6101305490565b905090565b600061069e611408565b6000336105a38185856106c08383610ef6565b6106ca9190612855565b6110ef565b60004382106107255760405162461bcd60e51b815260206004820152601f60248201527f4552433230566f7465733a20626c6f636b206e6f7420796574206d696e65640060448201526064015b60405180910390fd5b6001600160a01b038316600090815260ff602052604090206107479083611483565b9392505050565b61016354604080516331070bc960e21b815290516003926001600160a01b03169163c41c2f249160048083019260209291908290030181865afa158015610799573d6000803e3d6000fd5b505050506040513d601f19601f820116820180604052508101906107bd9190612883565b604051630db9619f60e31b81523360048201526001600160a01b039190911690636dcb0cf890602401602060405180830381865afa158015610803573d6000803e3d6000fd5b505050506040513d601f19601f8201168201806040525081019061082791906128a0565b60038111156108385761083861286d565b146108715760405162461bcd60e51b81526020600482015260096024820152684e6f7420612054474560b81b604482015260640161071c565b61087b8282611540565b5050565b6001600160a01b0381166000908152610165602052604081206001015443106108aa57506000919050565b506001600160a01b03166000908152610165602052604090205490565b919050565b6108d6338261154a565b50565b6001600160a01b038116600090815260ff60205260408120546108fb906115c4565b92915050565b6033546001600160a01b0316331461095b5760405162461bcd60e51b815260206004820181905260248201527f4f776e61626c653a2063616c6c6572206973206e6f7420746865206f776e6572604482015260640161071c565b610965600061162d565b565b6001600160a01b038116600090815260cb60205260408120546108fb565b60006109908261087f565b6001600160a01b0383166000908152606560205260409020546108fb91906128c1565b6000438210610a045760405162461bcd60e51b815260206004820152601f60248201527f4552433230566f7465733a20626c6f636b206e6f7420796574206d696e656400604482015260640161071c565b6108fb61010083611483565b6060606980546105129061280b565b6001600160a01b038116600090815260ff60205260408120548015610a93576001600160a01b038316600090815260ff60205260409020610a616001836128c1565b81548110610a7157610a716128d8565b60009182526020909120015464010000000090046001600160e01b0316610a96565b60005b6001600160e01b03169392505050565b61016354604080516331070bc960e21b815290516003926001600160a01b03169163c41c2f249160048083019260209291908290030181865afa158015610af1573d6000803e3d6000fd5b505050506040513d601f19601f82011682018060405250810190610b159190612883565b604051630db9619f60e31b81523360048201526001600160a01b039190911690636dcb0cf890602401602060405180830381865afa158015610b5b573d6000803e3d6000fd5b505050506040513d601f19601f82011682018060405250810190610b7f91906128a0565b6003811115610b9057610b9061286d565b14610bc95760405162461bcd60e51b81526020600482015260096024820152684e6f7420612054474560b81b604482015260640161071c565b61087b828261167f565b60003381610be18286610ef6565b905083811015610c415760405162461bcd60e51b815260206004820152602560248201527f45524332303a2064656372656173656420616c6c6f77616e63652062656c6f77604482015264207a65726f60d81b606482015260840161071c565b61068782868684036110ef565b6000336105a38185856113a5565b83421115610cac5760405162461bcd60e51b815260206004820152601d60248201527f4552433230566f7465733a207369676e61747572652065787069726564000000604482015260640161071c565b604080517fe48329057bfd03d55e49b547132e39cffd9c1820ad7b9d4c5307691425d15adf60208201526001600160a01b038816918101919091526060810186905260808101859052600090610d2690610d1e9060a00160405160208183030381529060405280519060200120611689565b8585856116d7565b9050610d31816116ff565b8614610d7f5760405162461bcd60e51b815260206004820152601960248201527f4552433230566f7465733a20696e76616c6964206e6f6e636500000000000000604482015260640161071c565b610d89818861154a565b50505050505050565b83421115610de25760405162461bcd60e51b815260206004820152601d60248201527f45524332305065726d69743a206578706972656420646561646c696e65000000604482015260640161071c565b60007f6e71edae12b1b97f4d1f60370fef10105fa2faae0126114a169c64845d6126c9888888610e118c6116ff565b6040805160208101969096526001600160a01b0394851690860152929091166060840152608083015260a082015260c0810186905260e0016040516020818303038152906040528051906020012090506000610e6c82611689565b90506000610e7c828787876116d7565b9050896001600160a01b0316816001600160a01b031614610edf5760405162461bcd60e51b815260206004820152601e60248201527f45524332305065726d69743a20696e76616c6964207369676e61747572650000604482015260640161071c565b610eea8a8a8a6110ef565b50505050505050505050565b6001600160a01b03918216600090815260666020908152604080832093909416825291909152205490565b610164546001600160a01b03163314610f675760405162461bcd60e51b8152602060048201526008602482015267139bdd081c1bdbdb60c21b604482015260640161071c565b60408051808201825292835260208084019283526001600160a01b03949094166000908152610165909452909220905181559051600190910155565b60408051808201909152600080825260208201526001600160a01b038316600090815260ff60205260409020805463ffffffff8416908110610fe757610fe76128d8565b60009182526020918290206040805180820190915291015463ffffffff8116825264010000000090046001600160e01b0316918101919091529392505050565b6033546001600160a01b031633146110815760405162461bcd60e51b815260206004820181905260248201527f4f776e61626c653a2063616c6c6572206973206e6f7420746865206f776e6572604482015260640161071c565b6001600160a01b0381166110e65760405162461bcd60e51b815260206004820152602660248201527f4f776e61626c653a206e6577206f776e657220697320746865207a65726f206160448201526564647265737360d01b606482015260840161071c565b6108d68161162d565b6001600160a01b0383166111515760405162461bcd60e51b8152602060048201526024808201527f45524332303a20617070726f76652066726f6d20746865207a65726f206164646044820152637265737360e01b606482015260840161071c565b6001600160a01b0382166111b25760405162461bcd60e51b815260206004820152602260248201527f45524332303a20617070726f766520746f20746865207a65726f206164647265604482015261737360f01b606482015260840161071c565b6001600160a01b0383811660008181526066602090815260408083209487168084529482529182902085905590518481527f8c5be1e5ebec7d5bd14f71427d1e84f3dd0314c0f7b2291e5b200ac8c7c3b925910160405180910390a3505050565b60008054610100900460ff161561125a578160ff1660011480156112365750303b155b6112525760405162461bcd60e51b815260040161071c906128ee565b506000919050565b60005460ff8084169116106112815760405162461bcd60e51b815260040161071c906128ee565b506000805460ff191660ff92909216919091179055600190565b600054610100900460ff166112c25760405162461bcd60e51b815260040161071c9061293c565b61087b8282611727565b600054610100900460ff166112f35760405162461bcd60e51b815260040161071c9061293c565b6108d681611775565b600054610100900460ff166113235760405162461bcd60e51b815260040161071c9061293c565b6109656117ea565b60006113378484610ef6565b9050600019811461139f57818110156113925760405162461bcd60e51b815260206004820152601d60248201527f45524332303a20696e73756666696369656e7420616c6c6f77616e6365000000604482015260640161071c565b61139f84848484036110ef565b50505050565b6113ae83610985565b8111156113fd5760405162461bcd60e51b815260206004820152601b60248201527f4e6f7420656e6f75676820756e6c6f636b65642062616c616e63650000000000604482015260640161071c565b61066983838361181a565b600061069e7f8b73c3c69bb8fe3d512ecc4cf759cc79239f7b179b0ffacaa9a75d522b39400f61143760975490565b6098546040805160208101859052908101839052606081018290524660808201523060a082015260009060c0016040516020818303038152906040528051906020012090509392505050565b8154600090815b818110156114e757600061149e82846119ee565b9050848682815481106114b3576114b36128d8565b60009182526020909120015463ffffffff1611156114d3578092506114e1565b6114de816001612855565b91505b5061148a565b811561152b57846114f96001846128c1565b81548110611509576115096128d8565b60009182526020909120015464010000000090046001600160e01b031661152e565b60005b6001600160e01b031695945050505050565b61087b8282611a09565b6001600160a01b03828116600081815260fe6020818152604080842080546065845282862054949093528787166001600160a01b03198416811790915590519190951694919391928592917f3134e8a2e6d97e929a7e54011ea5485d7d196dd5f0ba4d4ef95803e8e3fc257f9190a461139f828483611a7d565b600063ffffffff8211156116295760405162461bcd60e51b815260206004820152602660248201527f53616665436173743a2076616c756520646f65736e27742066697420696e203360448201526532206269747360d01b606482015260840161071c565b5090565b603380546001600160a01b038381166001600160a01b0319831681179093556040519116919082907f8be0079c531659141344cd1fd0a4f28419497f9722a3daafe3b4186f6b6457e090600090a35050565b61087b8282611bba565b60006108fb611696611408565b8360405161190160f01b6020820152602281018390526042810182905260009060620160405160208183030381529060405280519060200120905092915050565b60008060006116e887878787611bd3565b915091506116f581611cc0565b5095945050505050565b6001600160a01b038116600090815260cb602052604090208054600181018255905b50919050565b600054610100900460ff1661174e5760405162461bcd60e51b815260040161071c9061293c565b8151611761906068906020850190612374565b508051610669906069906020840190612374565b600054610100900460ff1661179c5760405162461bcd60e51b815260040161071c9061293c565b600081116117e45760405162461bcd60e51b8152602060048201526015602482015274045524332304361707065643a20636170206973203605c1b604482015260640161071c565b61013055565b600054610100900460ff166118115760405162461bcd60e51b815260040161071c9061293c565b6109653361162d565b6001600160a01b03831661187e5760405162461bcd60e51b815260206004820152602560248201527f45524332303a207472616e736665722066726f6d20746865207a65726f206164604482015264647265737360d81b606482015260840161071c565b6001600160a01b0382166118e05760405162461bcd60e51b815260206004820152602360248201527f45524332303a207472616e7366657220746f20746865207a65726f206164647260448201526265737360e81b606482015260840161071c565b6001600160a01b038316600090815260656020526040902054818110156119585760405162461bcd60e51b815260206004820152602660248201527f45524332303a207472616e7366657220616d6f756e7420657863656564732062604482015265616c616e636560d01b606482015260840161071c565b6001600160a01b0380851660009081526065602052604080822085850390559185168152908120805484929061198f908490612855565b92505081905550826001600160a01b0316846001600160a01b03167fddf252ad1be2c89b69c2b068fc378daa952ba7f163c4a11628f55a4df523b3ef846040516119db91815260200190565b60405180910390a361139f848484611e76565b60006119fd6002848418612987565b61074790848416612855565b611a11610692565b81611a1b60675490565b611a259190612855565b1115611a735760405162461bcd60e51b815260206004820152601960248201527f45524332304361707065643a2063617020657863656564656400000000000000604482015260640161071c565b61087b8282611e81565b816001600160a01b0316836001600160a01b031614158015611a9f5750600081115b15610669576001600160a01b03831615611b2d576001600160a01b038316600090815260ff602052604081208190611ada90611f0c85611f18565b91509150846001600160a01b03167fdec2bacdd2f05b59de34da9b523dff8be42e5e38e818c82fdb0bae774387a7248383604051611b22929190918252602082015260400190565b60405180910390a250505b6001600160a01b03821615610669576001600160a01b038216600090815260ff602052604081208190611b639061209185611f18565b91509150836001600160a01b03167fdec2bacdd2f05b59de34da9b523dff8be42e5e38e818c82fdb0bae774387a7248383604051611bab929190918252602082015260400190565b60405180910390a25050505050565b611bc4828261209d565b61139f610100611f0c83611f18565b6000807f7fffffffffffffffffffffffffffffff5d576e7357a4501ddfe92f46681b20a0831115611c0a5750600090506003611cb7565b8460ff16601b14158015611c2257508460ff16601c14155b15611c335750600090506004611cb7565b6040805160008082526020820180845289905260ff881692820192909252606081018690526080810185905260019060a0016020604051602081039080840390855afa158015611c87573d6000803e3d6000fd5b5050604051601f1901519150506001600160a01b038116611cb057600060019250925050611cb7565b9150600090505b94509492505050565b6000816004811115611cd457611cd461286d565b03611cdc5750565b6001816004811115611cf057611cf061286d565b03611d3d5760405162461bcd60e51b815260206004820152601860248201527f45434453413a20696e76616c6964207369676e61747572650000000000000000604482015260640161071c565b6002816004811115611d5157611d5161286d565b03611d9e5760405162461bcd60e51b815260206004820152601f60248201527f45434453413a20696e76616c6964207369676e6174757265206c656e67746800604482015260640161071c565b6003816004811115611db257611db261286d565b03611e0a5760405162461bcd60e51b815260206004820152602260248201527f45434453413a20696e76616c6964207369676e6174757265202773272076616c604482015261756560f01b606482015260840161071c565b6004816004811115611e1e57611e1e61286d565b036108d65760405162461bcd60e51b815260206004820152602260248201527f45434453413a20696e76616c6964207369676e6174757265202776272076616c604482015261756560f01b606482015260840161071c565b6106698383836121f2565b611e8b8282612224565b6067546001600160e01b031015611efd5760405162461bcd60e51b815260206004820152603060248201527f4552433230566f7465733a20746f74616c20737570706c79207269736b73206f60448201526f766572666c6f77696e6720766f74657360801b606482015260840161071c565b61139f61010061209183611f18565b600061074782846128c1565b825460009081908015611f635785611f316001836128c1565b81548110611f4157611f416128d8565b60009182526020909120015464010000000090046001600160e01b0316611f66565b60005b6001600160e01b03169250611f7f83858763ffffffff16565b9150600081118015611fbd57504386611f996001846128c1565b81548110611fa957611fa96128d8565b60009182526020909120015463ffffffff16145b1561201d57611fcb8261230b565b86611fd76001846128c1565b81548110611fe757611fe76128d8565b9060005260206000200160000160046101000a8154816001600160e01b0302191690836001600160e01b03160217905550612088565b856040518060400160405280612032436115c4565b63ffffffff1681526020016120468561230b565b6001600160e01b0390811690915282546001810184556000938452602093849020835194909301519091166401000000000263ffffffff909316929092179101555b50935093915050565b60006107478284612855565b6001600160a01b0382166120fd5760405162461bcd60e51b815260206004820152602160248201527f45524332303a206275726e2066726f6d20746865207a65726f206164647265736044820152607360f81b606482015260840161071c565b6001600160a01b038216600090815260656020526040902054818110156121715760405162461bcd60e51b815260206004820152602260248201527f45524332303a206275726e20616d6f756e7420657863656564732062616c616e604482015261636560f01b606482015260840161071c565b6001600160a01b03831660009081526065602052604081208383039055606780548492906121a09084906128c1565b90915550506040518281526000906001600160a01b038516907fddf252ad1be2c89b69c2b068fc378daa952ba7f163c4a11628f55a4df523b3ef9060200160405180910390a361066983600084611e76565b6001600160a01b03838116600090815260fe602052604080822054858416835291205461066992918216911683611a7d565b6001600160a01b03821661227a5760405162461bcd60e51b815260206004820152601f60248201527f45524332303a206d696e7420746f20746865207a65726f206164647265737300604482015260640161071c565b806067600082825461228c9190612855565b90915550506001600160a01b038216600090815260656020526040812080548392906122b9908490612855565b90915550506040518181526001600160a01b038316906000907fddf252ad1be2c89b69c2b068fc378daa952ba7f163c4a11628f55a4df523b3ef9060200160405180910390a361087b60008383611e76565b60006001600160e01b038211156116295760405162461bcd60e51b815260206004820152602760248201527f53616665436173743a2076616c756520646f65736e27742066697420696e20326044820152663234206269747360c81b606482015260840161071c565b8280546123809061280b565b90600052602060002090601f0160209004810192826123a257600085556123e8565b82601f106123bb57805160ff19168380011785556123e8565b828001600101855582156123e8579182015b828111156123e85782518255916020019190600101906123cd565b506116299291505b8082111561162957600081556001016123f0565b600060208083528351808285015260005b8181101561243157858101830151858201604001528201612415565b81811115612443576000604083870101525b50601f01601f1916929092016040019392505050565b6001600160a01b03811681146108d657600080fd5b6000806040838503121561248157600080fd5b823561248c81612459565b946020939093013593505050565b634e487b7160e01b600052604160045260246000fd5b6040516060810167ffffffffffffffff811182821017156124d3576124d361249a565b60405290565b600082601f8301126124ea57600080fd5b813567ffffffffffffffff808211156125055761250561249a565b604051601f8301601f19908116603f0116810190828211818310171561252d5761252d61249a565b8160405283815286602085880101111561254657600080fd5b836020870160208301376000602085830101528094505050505092915050565b6000806040838503121561257957600080fd5b823561258481612459565b9150602083013567ffffffffffffffff808211156125a157600080fd5b90840190606082870312156125b557600080fd5b6125bd6124b0565b8235828111156125cc57600080fd5b6125d8888286016124d9565b8252506020830135828111156125ed57600080fd5b6125f9888286016124d9565b602083015250604083013560408201528093505050509250929050565b60008060006060848603121561262b57600080fd5b833561263681612459565b9250602084013561264681612459565b929592945050506040919091013590565b60006020828403121561266957600080fd5b813561074781612459565b60006020828403121561268657600080fd5b5035919050565b803560ff811681146108c757600080fd5b60008060008060008060c087890312156126b757600080fd5b86356126c281612459565b955060208701359450604087013593506126de6060880161268d565b92506080870135915060a087013590509295509295509295565b600080600080600080600060e0888a03121561271357600080fd5b873561271e81612459565b9650602088013561272e81612459565b9550604088013594506060880135935061274a6080890161268d565b925060a0880135915060c0880135905092959891949750929550565b6000806040838503121561277957600080fd5b823561278481612459565b9150602083013561279481612459565b809150509250929050565b6000806000606084860312156127b457600080fd5b83356127bf81612459565b95602085013595506040909401359392505050565b600080604083850312156127e757600080fd5b82356127f281612459565b9150602083013563ffffffff8116811461279457600080fd5b600181811c9082168061281f57607f821691505b60208210810361172157634e487b7160e01b600052602260045260246000fd5b634e487b7160e01b600052601160045260246000fd5b600082198211156128685761286861283f565b500190565b634e487b7160e01b600052602160045260246000fd5b60006020828403121561289557600080fd5b815161074781612459565b6000602082840312156128b257600080fd5b81516004811061074757600080fd5b6000828210156128d3576128d361283f565b500390565b634e487b7160e01b600052603260045260246000fd5b6020808252602e908201527f496e697469616c697a61626c653a20636f6e747261637420697320616c72656160408201526d191e481a5b9a5d1a585b1a5e995960921b606082015260800190565b6020808252602b908201527f496e697469616c697a61626c653a20636f6e7472616374206973206e6f74206960408201526a6e697469616c697a696e6760a81b606082015260800190565b6000826129a457634e487b7160e01b600052601260045260246000fd5b50049056fea264697066735822122068917cf6c00b3d47adc567214075f31e6b0c970f8e51044e6fa614f0c9117a4264736f6c634300080d0033",
  "devdoc": {
    "kind": "dev",
    "methods": {
      "DOMAIN_SEPARATOR()": {
        "details": "See {IERC20Permit-DOMAIN_SEPARATOR}."
      },
      "allowance(address,address)": {
        "details": "See {IERC20-allowance}."
      },
      "approve(address,uint256)": {
        "details": "See {IERC20-approve}. NOTE: If `amount` is the maximum `uint256`, the allowance is not updated on `transferFrom`. This is semantically equivalent to an infinite approval. Requirements: - `spender` cannot be the zero address."
      },
      "balanceOf(address)": {
        "details": "See {IERC20-balanceOf}."
      },
      "checkpoints(address,uint32)": {
        "details": "Get the `pos`-th checkpoint for `account`."
      },
      "decimals()": {
        "details": "Returns the number of decimals used to get its user representation. For example, if `decimals` equals `2`, a balance of `505` tokens should be displayed to a user as `5.05` (`505 / 10 ** 2`). Tokens usually opt for a value of 18, imitating the relationship between Ether and Wei. This is the value {ERC20} uses, unless this function is overridden; NOTE: This information is only used for _display_ purposes: it in no way affects any of the arithmetic of the contract, including {IERC20-balanceOf} and {IERC20-transfer}."
      },
      "decreaseAllowance(address,uint256)": {
        "details": "Atomically decreases the allowance granted to `spender` by the caller. This is an alternative to {approve} that can be used as a mitigation for problems described in {IERC20-approve}. Emits an {Approval} event indicating the updated allowance. Requirements: - `spender` cannot be the zero address. - `spender` must have allowance for the caller of at least `subtractedValue`."
      },
      "delegate(address)": {
        "details": "Delegate votes from the sender to `delegatee`."
      },
      "delegateBySig(address,uint256,uint256,uint8,bytes32,bytes32)": {
        "details": "Delegates votes from signer to `delegatee`"
      },
      "delegates(address)": {
        "details": "Get the address `account` is currently delegating to."
      },
      "getPastTotalSupply(uint256)": {
        "details": "Retrieve the `totalSupply` at the end of `blockNumber`. Note, this value is the sum of all balances. It is but NOT the sum of all the delegated votes! Requirements: - `blockNumber` must have been already mined"
      },
      "getPastVotes(address,uint256)": {
        "details": "Retrieve the number of votes for `account` at the end of `blockNumber`. Requirements: - `blockNumber` must have been already mined"
      },
      "getVotes(address)": {
        "details": "Gets the current votes balance for `account`"
      },
      "increaseAllowance(address,uint256)": {
        "details": "Atomically increases the allowance granted to `spender` by the caller. This is an alternative to {approve} that can be used as a mitigation for problems described in {IERC20-approve}. Emits an {Approval} event indicating the updated allowance. Requirements: - `spender` cannot be the zero address."
      },
      "name()": {
        "details": "Returns the name of the token."
      },
      "nonces(address)": {
        "details": "See {IERC20Permit-nonces}."
      },
      "numCheckpoints(address)": {
        "details": "Get number of checkpoints for `account`."
      },
      "owner()": {
        "details": "Returns the address of the current owner."
      },
      "permit(address,address,uint256,uint256,uint8,bytes32,bytes32)": {
        "details": "See {IERC20Permit-permit}."
      },
      "renounceOwnership()": {
        "details": "Leaves the contract without owner. It will not be possible to call `onlyOwner` functions anymore. Can only be called by the current owner. NOTE: Renouncing ownership will leave the contract without an owner, thereby removing any functionality that is only available to the owner."
      },
      "symbol()": {
        "details": "Returns the symbol of the token, usually a shorter version of the name."
      },
      "totalSupply()": {
        "details": "See {IERC20-totalSupply}."
      },
      "transfer(address,uint256)": {
        "details": "See {IERC20-transfer}. Requirements: - `to` cannot be the zero address. - the caller must have a balance of at least `amount`."
      },
      "transferFrom(address,address,uint256)": {
        "details": "See {IERC20-transferFrom}. Emits an {Approval} event indicating the updated allowance. This is not required by the EIP. See the note at the beginning of {ERC20}. NOTE: Does not update the allowance if the current allowance is the maximum `uint256`. Requirements: - `from` and `to` cannot be the zero address. - `from` must have a balance of at least `amount`. - the caller must have allowance for ``from``'s tokens of at least `amount`."
      },
      "transferOwnership(address)": {
        "details": "Transfers ownership of the contract to a new account (`newOwner`). Can only be called by the current owner."
      }
    },
    "version": 1
  },
  "userdoc": {
    "kind": "user",
    "methods": {},
    "version": 1
  },
  "storageLayout": {
    "storage": [
      {
        "astId": 208,
        "contract": "contracts/GovernanceToken.sol:GovernanceToken",
        "label": "_initialized",
        "offset": 0,
        "slot": "0",
        "type": "t_uint8"
      },
      {
        "astId": 211,
        "contract": "contracts/GovernanceToken.sol:GovernanceToken",
        "label": "_initializing",
        "offset": 1,
        "slot": "0",
        "type": "t_bool"
      },
      {
        "astId": 2536,
        "contract": "contracts/GovernanceToken.sol:GovernanceToken",
        "label": "__gap",
        "offset": 0,
        "slot": "1",
        "type": "t_array(t_uint256)50_storage"
      },
      {
        "astId": 10,
        "contract": "contracts/GovernanceToken.sol:GovernanceToken",
        "label": "_owner",
        "offset": 0,
        "slot": "51",
        "type": "t_address"
      },
      {
        "astId": 122,
        "contract": "contracts/GovernanceToken.sol:GovernanceToken",
        "label": "__gap",
        "offset": 0,
        "slot": "52",
        "type": "t_array(t_uint256)49_storage"
      },
      {
        "astId": 362,
        "contract": "contracts/GovernanceToken.sol:GovernanceToken",
        "label": "_balances",
        "offset": 0,
        "slot": "101",
        "type": "t_mapping(t_address,t_uint256)"
      },
      {
        "astId": 368,
        "contract": "contracts/GovernanceToken.sol:GovernanceToken",
        "label": "_allowances",
        "offset": 0,
        "slot": "102",
        "type": "t_mapping(t_address,t_mapping(t_address,t_uint256))"
      },
      {
        "astId": 370,
        "contract": "contracts/GovernanceToken.sol:GovernanceToken",
        "label": "_totalSupply",
        "offset": 0,
        "slot": "103",
        "type": "t_uint256"
      },
      {
        "astId": 372,
        "contract": "contracts/GovernanceToken.sol:GovernanceToken",
        "label": "_name",
        "offset": 0,
        "slot": "104",
        "type": "t_string_storage"
      },
      {
        "astId": 374,
        "contract": "contracts/GovernanceToken.sol:GovernanceToken",
        "label": "_symbol",
        "offset": 0,
        "slot": "105",
        "type": "t_string_storage"
      },
      {
        "astId": 953,
        "contract": "contracts/GovernanceToken.sol:GovernanceToken",
        "label": "__gap",
        "offset": 0,
        "slot": "106",
        "type": "t_array(t_uint256)45_storage"
      },
      {
        "astId": 3230,
        "contract": "contracts/GovernanceToken.sol:GovernanceToken",
        "label": "_HASHED_NAME",
        "offset": 0,
        "slot": "151",
        "type": "t_bytes32"
      },
      {
        "astId": 3232,
        "contract": "contracts/GovernanceToken.sol:GovernanceToken",
        "label": "_HASHED_VERSION",
        "offset": 0,
        "slot": "152",
        "type": "t_bytes32"
      },
      {
        "astId": 3370,
        "contract": "contracts/GovernanceToken.sol:GovernanceToken",
        "label": "__gap",
        "offset": 0,
        "slot": "153",
        "type": "t_array(t_uint256)50_storage"
      },
      {
        "astId": 1827,
        "contract": "contracts/GovernanceToken.sol:GovernanceToken",
        "label": "_nonces",
        "offset": 0,
        "slot": "203",
        "type": "t_mapping(t_address,t_struct(Counter)2543_storage)"
      },
      {
        "astId": 1835,
        "contract": "contracts/GovernanceToken.sol:GovernanceToken",
        "label": "_PERMIT_TYPEHASH_DEPRECATED_SLOT",
        "offset": 0,
        "slot": "204",
        "type": "t_bytes32"
      },
      {
        "astId": 1991,
        "contract": "contracts/GovernanceToken.sol:GovernanceToken",
        "label": "__gap",
        "offset": 0,
        "slot": "205",
        "type": "t_array(t_uint256)49_storage"
      },
      {
        "astId": 1160,
        "contract": "contracts/GovernanceToken.sol:GovernanceToken",
        "label": "_delegates",
        "offset": 0,
        "slot": "254",
        "type": "t_mapping(t_address,t_address)"
      },
      {
        "astId": 1166,
        "contract": "contracts/GovernanceToken.sol:GovernanceToken",
        "label": "_checkpoints",
        "offset": 0,
        "slot": "255",
        "type": "t_mapping(t_address,t_array(t_struct(Checkpoint)1151_storage)dyn_storage)"
      },
      {
        "astId": 1170,
        "contract": "contracts/GovernanceToken.sol:GovernanceToken",
        "label": "_totalSupplyCheckpoints",
        "offset": 0,
        "slot": "256",
        "type": "t_array(t_struct(Checkpoint)1151_storage)dyn_storage"
      },
      {
        "astId": 1775,
        "contract": "contracts/GovernanceToken.sol:GovernanceToken",
        "label": "__gap",
        "offset": 0,
        "slot": "257",
        "type": "t_array(t_uint256)47_storage"
      },
      {
        "astId": 1043,
        "contract": "contracts/GovernanceToken.sol:GovernanceToken",
        "label": "_cap",
        "offset": 0,
        "slot": "304",
        "type": "t_uint256"
      },
      {
        "astId": 1118,
        "contract": "contracts/GovernanceToken.sol:GovernanceToken",
        "label": "__gap",
        "offset": 0,
        "slot": "305",
        "type": "t_array(t_uint256)50_storage"
      },
      {
        "astId": 6869,
        "contract": "contracts/GovernanceToken.sol:GovernanceToken",
        "label": "service",
        "offset": 0,
        "slot": "355",
        "type": "t_contract(IService)9905"
      },
      {
        "astId": 6871,
        "contract": "contracts/GovernanceToken.sol:GovernanceToken",
        "label": "pool",
        "offset": 0,
        "slot": "356",
        "type": "t_address"
      },
      {
        "astId": 6881,
        "contract": "contracts/GovernanceToken.sol:GovernanceToken",
        "label": "_locked",
        "offset": 0,
        "slot": "357",
        "type": "t_mapping(t_address,t_struct(LockedBalance)6876_storage)"
      }
    ],
    "types": {
      "t_address": {
        "encoding": "inplace",
        "label": "address",
        "numberOfBytes": "20"
      },
      "t_array(t_struct(Checkpoint)1151_storage)dyn_storage": {
        "base": "t_struct(Checkpoint)1151_storage",
        "encoding": "dynamic_array",
        "label": "struct ERC20VotesUpgradeable.Checkpoint[]",
        "numberOfBytes": "32"
      },
      "t_array(t_uint256)45_storage": {
        "base": "t_uint256",
        "encoding": "inplace",
        "label": "uint256[45]",
        "numberOfBytes": "1440"
      },
      "t_array(t_uint256)47_storage": {
        "base": "t_uint256",
        "encoding": "inplace",
        "label": "uint256[47]",
        "numberOfBytes": "1504"
      },
      "t_array(t_uint256)49_storage": {
        "base": "t_uint256",
        "encoding": "inplace",
        "label": "uint256[49]",
        "numberOfBytes": "1568"
      },
      "t_array(t_uint256)50_storage": {
        "base": "t_uint256",
        "encoding": "inplace",
        "label": "uint256[50]",
        "numberOfBytes": "1600"
      },
      "t_bool": {
        "encoding": "inplace",
        "label": "bool",
        "numberOfBytes": "1"
      },
      "t_bytes32": {
        "encoding": "inplace",
        "label": "bytes32",
        "numberOfBytes": "32"
      },
      "t_contract(IService)9905": {
        "encoding": "inplace",
        "label": "contract IService",
        "numberOfBytes": "20"
      },
      "t_mapping(t_address,t_address)": {
        "encoding": "mapping",
        "key": "t_address",
        "label": "mapping(address => address)",
        "numberOfBytes": "32",
        "value": "t_address"
      },
      "t_mapping(t_address,t_array(t_struct(Checkpoint)1151_storage)dyn_storage)": {
        "encoding": "mapping",
        "key": "t_address",
        "label": "mapping(address => struct ERC20VotesUpgradeable.Checkpoint[])",
        "numberOfBytes": "32",
        "value": "t_array(t_struct(Checkpoint)1151_storage)dyn_storage"
      },
      "t_mapping(t_address,t_mapping(t_address,t_uint256))": {
        "encoding": "mapping",
        "key": "t_address",
        "label": "mapping(address => mapping(address => uint256))",
        "numberOfBytes": "32",
        "value": "t_mapping(t_address,t_uint256)"
      },
      "t_mapping(t_address,t_struct(Counter)2543_storage)": {
        "encoding": "mapping",
        "key": "t_address",
        "label": "mapping(address => struct CountersUpgradeable.Counter)",
        "numberOfBytes": "32",
        "value": "t_struct(Counter)2543_storage"
      },
      "t_mapping(t_address,t_struct(LockedBalance)6876_storage)": {
        "encoding": "mapping",
        "key": "t_address",
        "label": "mapping(address => struct GovernanceToken.LockedBalance)",
        "numberOfBytes": "32",
        "value": "t_struct(LockedBalance)6876_storage"
      },
      "t_mapping(t_address,t_uint256)": {
        "encoding": "mapping",
        "key": "t_address",
        "label": "mapping(address => uint256)",
        "numberOfBytes": "32",
        "value": "t_uint256"
      },
      "t_string_storage": {
        "encoding": "bytes",
        "label": "string",
        "numberOfBytes": "32"
      },
      "t_struct(Checkpoint)1151_storage": {
        "encoding": "inplace",
        "label": "struct ERC20VotesUpgradeable.Checkpoint",
        "members": [
          {
            "astId": 1148,
            "contract": "contracts/GovernanceToken.sol:GovernanceToken",
            "label": "fromBlock",
            "offset": 0,
            "slot": "0",
            "type": "t_uint32"
          },
          {
            "astId": 1150,
            "contract": "contracts/GovernanceToken.sol:GovernanceToken",
            "label": "votes",
            "offset": 4,
            "slot": "0",
            "type": "t_uint224"
          }
        ],
        "numberOfBytes": "32"
      },
      "t_struct(Counter)2543_storage": {
        "encoding": "inplace",
        "label": "struct CountersUpgradeable.Counter",
        "members": [
          {
            "astId": 2542,
            "contract": "contracts/GovernanceToken.sol:GovernanceToken",
            "label": "_value",
            "offset": 0,
            "slot": "0",
            "type": "t_uint256"
          }
        ],
        "numberOfBytes": "32"
      },
      "t_struct(LockedBalance)6876_storage": {
        "encoding": "inplace",
        "label": "struct GovernanceToken.LockedBalance",
        "members": [
          {
            "astId": 6873,
            "contract": "contracts/GovernanceToken.sol:GovernanceToken",
            "label": "amount",
            "offset": 0,
            "slot": "0",
            "type": "t_uint256"
          },
          {
            "astId": 6875,
            "contract": "contracts/GovernanceToken.sol:GovernanceToken",
            "label": "deadline",
            "offset": 0,
            "slot": "1",
            "type": "t_uint256"
          }
        ],
        "numberOfBytes": "64"
      },
      "t_uint224": {
        "encoding": "inplace",
        "label": "uint224",
        "numberOfBytes": "28"
      },
      "t_uint256": {
        "encoding": "inplace",
        "label": "uint256",
        "numberOfBytes": "32"
      },
      "t_uint32": {
        "encoding": "inplace",
        "label": "uint32",
        "numberOfBytes": "4"
      },
      "t_uint8": {
        "encoding": "inplace",
        "label": "uint8",
        "numberOfBytes": "1"
      }
    }
  }
}