{
  "address": "0xcDaCdf01228424E6796f60A99197bb6C962C8a7d",
  "abi": [
    {
      "anonymous": false,
      "inputs": [
        {
          "indexed": false,
          "internalType": "uint8",
          "name": "version",
          "type": "uint8"
        }
      ],
      "name": "Initialized",
      "type": "event"
    },
    {
      "anonymous": false,
      "inputs": [
        {
          "indexed": true,
          "internalType": "address",
          "name": "previousOwner",
          "type": "address"
        },
        {
          "indexed": true,
          "internalType": "address",
          "name": "newOwner",
          "type": "address"
        }
      ],
      "name": "OwnershipTransferred",
      "type": "event"
    },
    {
      "anonymous": false,
      "inputs": [
        {
          "indexed": false,
          "internalType": "uint256",
          "name": "id",
          "type": "uint256"
        },
        {
          "indexed": false,
          "internalType": "uint256",
          "name": "jurisdiction",
          "type": "uint256"
        },
        {
          "indexed": false,
          "internalType": "string",
          "name": "serialNumber",
          "type": "string"
        },
        {
          "indexed": false,
          "internalType": "string",
          "name": "dateOfIncorporation",
          "type": "string"
        },
        {
          "indexed": false,
          "internalType": "string",
          "name": "legalAddress",
          "type": "string"
        },
        {
          "indexed": false,
          "internalType": "string",
          "name": "taxationStatus",
          "type": "string"
        },
        {
          "indexed": false,
          "internalType": "string",
          "name": "registeredName",
          "type": "string"
        }
      ],
      "name": "RecordCreated",
      "type": "event"
    },
    {
      "anonymous": false,
      "inputs": [
        {
          "indexed": false,
          "internalType": "uint256",
          "name": "id",
          "type": "uint256"
        }
      ],
      "name": "RecordDeleted",
      "type": "event"
    },
    {
      "inputs": [
        {
          "internalType": "uint256",
          "name": "jurisdiction",
          "type": "uint256"
        },
        {
          "internalType": "string",
          "name": "serialNumber",
          "type": "string"
        },
        {
          "internalType": "string",
          "name": "dateOfIncorporation",
          "type": "string"
        },
        {
          "internalType": "string",
          "name": "legalAddress",
          "type": "string"
        },
        {
          "internalType": "string",
          "name": "taxationStatus",
          "type": "string"
        },
        {
          "internalType": "string",
          "name": "registeredName",
          "type": "string"
        }
      ],
      "name": "createRecord",
      "outputs": [],
      "stateMutability": "nonpayable",
      "type": "function"
    },
    {
      "inputs": [],
      "name": "currentId",
      "outputs": [
        {
          "internalType": "uint256",
          "name": "",
          "type": "uint256"
        }
      ],
      "stateMutability": "view",
      "type": "function"
    },
    {
      "inputs": [
        {
          "internalType": "uint256",
          "name": "id",
          "type": "uint256"
        }
      ],
      "name": "deleteRecord",
      "outputs": [],
      "stateMutability": "nonpayable",
      "type": "function"
    },
    {
      "inputs": [
        {
          "internalType": "uint256",
          "name": "id",
          "type": "uint256"
        }
      ],
      "name": "getInfo",
      "outputs": [
        {
          "internalType": "string[5]",
          "name": "",
          "type": "string[5]"
        }
      ],
      "stateMutability": "view",
      "type": "function"
    },
    {
      "inputs": [
        {
          "internalType": "uint256",
          "name": "id",
          "type": "uint256"
        }
      ],
      "name": "getQueueInfo",
      "outputs": [
        {
          "components": [
            {
              "internalType": "uint256",
              "name": "jurisdiction",
              "type": "uint256"
            },
            {
              "internalType": "string",
              "name": "serialNumber",
              "type": "string"
            },
            {
              "internalType": "string",
              "name": "dateOfIncorporation",
              "type": "string"
            },
            {
              "internalType": "string",
              "name": "legalAddress",
              "type": "string"
            },
            {
              "internalType": "string",
              "name": "taxationStatus",
              "type": "string"
            },
            {
              "internalType": "string",
              "name": "registeredName",
              "type": "string"
            },
            {
              "internalType": "enum IMetadata.Status",
              "name": "status",
              "type": "uint8"
            },
            {
              "internalType": "address",
              "name": "owner",
              "type": "address"
            }
          ],
          "internalType": "struct IMetadata.QueueInfo",
          "name": "",
          "type": "tuple"
        }
      ],
      "stateMutability": "view",
      "type": "function"
    },
    {
      "inputs": [],
      "name": "initialize",
      "outputs": [],
      "stateMutability": "nonpayable",
      "type": "function"
    },
    {
      "inputs": [
        {
          "internalType": "uint256",
          "name": "jurisdiction",
          "type": "uint256"
        }
      ],
      "name": "jurisdictionAvailable",
      "outputs": [
        {
          "internalType": "uint256",
          "name": "",
          "type": "uint256"
        }
      ],
      "stateMutability": "view",
      "type": "function"
    },
    {
      "inputs": [
        {
          "internalType": "uint256",
          "name": "jurisdiction",
          "type": "uint256"
        }
      ],
      "name": "lockRecord",
      "outputs": [
        {
          "internalType": "uint256",
          "name": "",
          "type": "uint256"
        }
      ],
      "stateMutability": "nonpayable",
      "type": "function"
    },
    {
      "inputs": [],
      "name": "owner",
      "outputs": [
        {
          "internalType": "address",
          "name": "",
          "type": "address"
        }
      ],
      "stateMutability": "view",
      "type": "function"
    },
    {
      "inputs": [
        {
          "internalType": "uint256",
          "name": "",
          "type": "uint256"
        }
      ],
      "name": "queueInfo",
      "outputs": [
        {
          "internalType": "uint256",
          "name": "jurisdiction",
          "type": "uint256"
        },
        {
          "internalType": "string",
          "name": "serialNumber",
          "type": "string"
        },
        {
          "internalType": "string",
          "name": "dateOfIncorporation",
          "type": "string"
        },
        {
          "internalType": "string",
          "name": "legalAddress",
          "type": "string"
        },
        {
          "internalType": "string",
          "name": "taxationStatus",
          "type": "string"
        },
        {
          "internalType": "string",
          "name": "registeredName",
          "type": "string"
        },
        {
          "internalType": "enum IMetadata.Status",
          "name": "status",
          "type": "uint8"
        },
        {
          "internalType": "address",
          "name": "owner",
          "type": "address"
        }
      ],
      "stateMutability": "view",
      "type": "function"
    },
    {
      "inputs": [],
      "name": "renounceOwnership",
      "outputs": [],
      "stateMutability": "nonpayable",
      "type": "function"
    },
    {
      "inputs": [],
      "name": "service",
      "outputs": [
        {
          "internalType": "contract IService",
          "name": "",
          "type": "address"
        }
      ],
      "stateMutability": "view",
      "type": "function"
    },
    {
      "inputs": [
        {
          "internalType": "uint256",
          "name": "id",
          "type": "uint256"
        },
        {
          "internalType": "address",
          "name": "owner",
          "type": "address"
        }
      ],
      "name": "setOwner",
      "outputs": [],
      "stateMutability": "nonpayable",
      "type": "function"
    },
    {
      "inputs": [
        {
          "internalType": "address",
          "name": "service_",
          "type": "address"
        }
      ],
      "name": "setService",
      "outputs": [],
      "stateMutability": "nonpayable",
      "type": "function"
    },
    {
      "inputs": [
        {
          "internalType": "address",
          "name": "newOwner",
          "type": "address"
        }
      ],
      "name": "transferOwnership",
      "outputs": [],
      "stateMutability": "nonpayable",
      "type": "function"
    }
  ],
  "transactionHash": "0x6d8cab0ee651d8de39454d5ff2d04c7958ab13eee2929c61688d0fc149ffd32f",
  "args": [],
  "numDeployments": 1,
  "solcInputHash": "997243aed0f6d9a9bf25071fa8e11a98",
  "bytecode": "0x608060405234801561001057600080fd5b50611d9b806100206000396000f3fe608060405234801561001057600080fd5b50600436106100f55760003560e01c80637fd3924711610097578063d598d4c911610066578063d598d4c91461020a578063dbcb0bc91461021d578063e00dd16114610230578063f2fde38b1461023957600080fd5b80637fd39247146101b75780638129fc1c146101ca5780638da5cb5b146101d2578063bf8bdac1146101f757600080fd5b80631a3cd59a116100d35780631a3cd59a146101485780634bedf3691461016857806352211b4614610188578063715018a6146101af57600080fd5b8063061f9811146100fa5780630ca3d0fb1461010f5780630d602f1514610135575b600080fd5b61010d61010836600461169e565b61024c565b005b61012261011d36600461169e565b610385565b6040519081526020015b60405180910390f35b61010d61014336600461175a565b610460565b61015b61015636600461169e565b6107ac565b60405161012c9190611890565b61017b61017636600461169e565b610af8565b60405161012c9190611915565b61019b61019636600461169e565b610e55565b60405161012c9897969594939291906119e7565b61010d61114c565b61010d6101c5366004611a96565b611182565b61010d611202565b6033546001600160a01b03165b6040516001600160a01b03909116815260200161012c565b61010d610205366004611ac2565b611278565b6065546101df906001600160a01b031681565b61012261022b36600461169e565b6112c4565b61012260665481565b61010d610247366004611ac2565b611386565b6033546001600160a01b0316331461027f5760405162461bcd60e51b815260040161027690611ae4565b60405180910390fd5b60008181526067602052604081206006015460ff1660018111156102a5576102a56118dd565b146102e55760405162461bcd60e51b815260206004820152601060248201526f5265636f726420697320696e2075736560801b6044820152606401610276565b600081815260676020526040812081815590610304600183018261154e565b61031260028301600061154e565b61032060038301600061154e565b61032e60048301600061154e565b61033c60058301600061154e565b5060060180546001600160a81b03191690556040518181527fb88d8be2c9fe5e1ef7087e07e8a84d625e33292845de220553103e7d540ada0c906020015b60405180910390a150565b6065546000906001600160a01b031633146103d05760405162461bcd60e51b815260206004820152600b60248201526a4e6f74207365727669636560a81b6044820152606401610276565b60005b6066548111610455576000818152606760205260409020548314801561041c575060008181526067602052604081206006015460ff16600181111561041a5761041a6118dd565b145b15610443576000818152606760205260409020600601805460ff1916600117905592915050565b8061044d81611b2f565b9150506103d3565b50600090505b919050565b6033546001600160a01b0316331461048a5760405162461bcd60e51b815260040161027690611ae4565b60008611801561049a5750845115155b6104f25760405162461bcd60e51b8152602060048201526024808201527f496e76616c6964206a7572697364696374696f6e206f722073657269616c4e7560448201526336b132b960e11b6064820152608401610276565b60005b606654811015610604576000818152606760205260409020548714158061058e57506000818152606760205260409020548714801561058e5750856040516020016105409190611b48565b60408051601f198184030181528282528051602091820120600085815260678352929092209192610575926001019101611b9e565b6040516020818303038152906040528051906020012014155b6105f25760405162461bcd60e51b815260206004820152602f60248201527f6a7572697364696374696f6e206d757374206861766520646966666572656e7460448201526e2073657269616c206e756d6265727360881b6064820152608401610276565b806105fc81611b2f565b9150506104f5565b5060405180610100016040528087815260200186815260200185815260200184815260200183815260200182815260200160006001811115610648576106486118dd565b8152600060209182018190526066548152606782526040902082518155828201518051919261067f92600185019290910190611588565b506040820151805161069b916002840191602090910190611588565b50606082015180516106b7916003840191602090910190611588565b50608082015180516106d3916004840191602090910190611588565b5060a082015180516106ef916005840191602090910190611588565b5060c082015160068201805460ff191660018381811115610712576107126118dd565b021790555060e09190910151600690910180546001600160a01b0390921661010002610100600160a81b03199092169190911790556066546040517f1a642a202970c59e33f6b49e26f01883125b735c83df6eb7aa253c9c484895cd9161078491899089908990899089908990611c39565b60405180910390a160016066600082825461079f9190611cb4565b9091555050505050505050565b6107b461160c565b6040518060a001604052806067600085815260200190815260200160002060010180546107e090611b64565b80601f016020809104026020016040519081016040528092919081815260200182805461080c90611b64565b80156108595780601f1061082e57610100808354040283529160200191610859565b820191906000526020600020905b81548152906001019060200180831161083c57829003601f168201915b5050505050815260200160676000858152602001908152602001600020600201805461088490611b64565b80601f01602080910402602001604051908101604052809291908181526020018280546108b090611b64565b80156108fd5780601f106108d2576101008083540402835291602001916108fd565b820191906000526020600020905b8154815290600101906020018083116108e057829003601f168201915b5050505050815260200160676000858152602001908152602001600020600301805461092890611b64565b80601f016020809104026020016040519081016040528092919081815260200182805461095490611b64565b80156109a15780601f10610976576101008083540402835291602001916109a1565b820191906000526020600020905b81548152906001019060200180831161098457829003601f168201915b505050505081526020016067600085815260200190815260200160002060040180546109cc90611b64565b80601f01602080910402602001604051908101604052809291908181526020018280546109f890611b64565b8015610a455780601f10610a1a57610100808354040283529160200191610a45565b820191906000526020600020905b815481529060010190602001808311610a2857829003601f168201915b50505050508152602001606760008581526020019081526020016000206005018054610a7090611b64565b80601f0160208091040260200160405190810160405280929190818152602001828054610a9c90611b64565b8015610ae95780601f10610abe57610100808354040283529160200191610ae9565b820191906000526020600020905b815481529060010190602001808311610acc57829003601f168201915b50505050508152509050919050565b610b00611633565b606760008381526020019081526020016000206040518061010001604052908160008201548152602001600182018054610b3990611b64565b80601f0160208091040260200160405190810160405280929190818152602001828054610b6590611b64565b8015610bb25780601f10610b8757610100808354040283529160200191610bb2565b820191906000526020600020905b815481529060010190602001808311610b9557829003601f168201915b50505050508152602001600282018054610bcb90611b64565b80601f0160208091040260200160405190810160405280929190818152602001828054610bf790611b64565b8015610c445780601f10610c1957610100808354040283529160200191610c44565b820191906000526020600020905b815481529060010190602001808311610c2757829003601f168201915b50505050508152602001600382018054610c5d90611b64565b80601f0160208091040260200160405190810160405280929190818152602001828054610c8990611b64565b8015610cd65780601f10610cab57610100808354040283529160200191610cd6565b820191906000526020600020905b815481529060010190602001808311610cb957829003601f168201915b50505050508152602001600482018054610cef90611b64565b80601f0160208091040260200160405190810160405280929190818152602001828054610d1b90611b64565b8015610d685780601f10610d3d57610100808354040283529160200191610d68565b820191906000526020600020905b815481529060010190602001808311610d4b57829003601f168201915b50505050508152602001600582018054610d8190611b64565b80601f0160208091040260200160405190810160405280929190818152602001828054610dad90611b64565b8015610dfa5780601f10610dcf57610100808354040283529160200191610dfa565b820191906000526020600020905b815481529060010190602001808311610ddd57829003601f168201915b5050509183525050600682015460209091019060ff166001811115610e2157610e216118dd565b6001811115610e3257610e326118dd565b81526006919091015461010090046001600160a01b031660209091015292915050565b60676020526000908152604090208054600182018054919291610e7790611b64565b80601f0160208091040260200160405190810160405280929190818152602001828054610ea390611b64565b8015610ef05780601f10610ec557610100808354040283529160200191610ef0565b820191906000526020600020905b815481529060010190602001808311610ed357829003601f168201915b505050505090806002018054610f0590611b64565b80601f0160208091040260200160405190810160405280929190818152602001828054610f3190611b64565b8015610f7e5780601f10610f5357610100808354040283529160200191610f7e565b820191906000526020600020905b815481529060010190602001808311610f6157829003601f168201915b505050505090806003018054610f9390611b64565b80601f0160208091040260200160405190810160405280929190818152602001828054610fbf90611b64565b801561100c5780601f10610fe15761010080835404028352916020019161100c565b820191906000526020600020905b815481529060010190602001808311610fef57829003601f168201915b50505050509080600401805461102190611b64565b80601f016020809104026020016040519081016040528092919081815260200182805461104d90611b64565b801561109a5780601f1061106f5761010080835404028352916020019161109a565b820191906000526020600020905b81548152906001019060200180831161107d57829003601f168201915b5050505050908060050180546110af90611b64565b80601f01602080910402602001604051908101604052809291908181526020018280546110db90611b64565b80156111285780601f106110fd57610100808354040283529160200191611128565b820191906000526020600020905b81548152906001019060200180831161110b57829003601f168201915b5050506006909301549192505060ff8116906001600160a01b036101009091041688565b6033546001600160a01b031633146111765760405162461bcd60e51b815260040161027690611ae4565b611180600061141a565b565b6065546001600160a01b031633146111ca5760405162461bcd60e51b815260206004820152600b60248201526a4e6f74207365727669636560a81b6044820152606401610276565b60009182526067602052604090912060060180546001600160a01b0390921661010002610100600160a81b0319909216919091179055565b600061120e600161146c565b90508015611226576000805461ff0019166101001790555b61122e6114f4565b60016066558015611275576000805461ff0019169055604051600181527f7f26b83ff96e1f2b6a682f133852f6798a09c465da95921460cefb38474024989060200161037a565b50565b6033546001600160a01b031633146112a25760405162461bcd60e51b815260040161027690611ae4565b606580546001600160a01b0319166001600160a01b0392909216919091179055565b600080805b60665481101561137f576000818152606760205260409020548414801590611314575060008181526067602052604081206006015460ff166001811115611312576113126118dd565b145b1561131e57600191505b6000818152606760205260409020548414801561135e575060008181526067602052604081206006015460ff16600181111561135c5761135c6118dd565b145b1561136d575060029392505050565b8061137781611b2f565b9150506112c9565b5092915050565b6033546001600160a01b031633146113b05760405162461bcd60e51b815260040161027690611ae4565b6001600160a01b0381166114155760405162461bcd60e51b815260206004820152602660248201527f4f776e61626c653a206e6577206f776e657220697320746865207a65726f206160448201526564647265737360d01b6064820152608401610276565b611275815b603380546001600160a01b038381166001600160a01b0319831681179093556040519116919082907f8be0079c531659141344cd1fd0a4f28419497f9722a3daafe3b4186f6b6457e090600090a35050565b60008054610100900460ff16156114b3578160ff16600114801561148f5750303b155b6114ab5760405162461bcd60e51b815260040161027690611ccc565b506000919050565b60005460ff8084169116106114da5760405162461bcd60e51b815260040161027690611ccc565b506000805460ff191660ff92909216919091179055600190565b600054610100900460ff1661151b5760405162461bcd60e51b815260040161027690611d1a565b611180600054610100900460ff166115455760405162461bcd60e51b815260040161027690611d1a565b6111803361141a565b50805461155a90611b64565b6000825580601f1061156a575050565b601f0160209004906000526020600020908101906112759190611689565b82805461159490611b64565b90600052602060002090601f0160209004810192826115b657600085556115fc565b82601f106115cf57805160ff19168380011785556115fc565b828001600101855582156115fc579182015b828111156115fc5782518255916020019190600101906115e1565b50611608929150611689565b5090565b6040518060a001604052806005905b606081526020019060019003908161161b5790505090565b6040518061010001604052806000815260200160608152602001606081526020016060815260200160608152602001606081526020016000600181111561167c5761167c6118dd565b8152600060209091015290565b5b80821115611608576000815560010161168a565b6000602082840312156116b057600080fd5b5035919050565b634e487b7160e01b600052604160045260246000fd5b600082601f8301126116de57600080fd5b813567ffffffffffffffff808211156116f9576116f96116b7565b604051601f8301601f19908116603f01168101908282118183101715611721576117216116b7565b8160405283815286602085880101111561173a57600080fd5b836020870160208301376000602085830101528094505050505092915050565b60008060008060008060c0878903121561177357600080fd5b86359550602087013567ffffffffffffffff8082111561179257600080fd5b61179e8a838b016116cd565b965060408901359150808211156117b457600080fd5b6117c08a838b016116cd565b955060608901359150808211156117d657600080fd5b6117e28a838b016116cd565b945060808901359150808211156117f857600080fd5b6118048a838b016116cd565b935060a089013591508082111561181a57600080fd5b5061182789828a016116cd565b9150509295509295509295565b60005b8381101561184f578181015183820152602001611837565b8381111561185e576000848401525b50505050565b6000815180845261187c816020860160208601611834565b601f01601f19169290920160200192915050565b602080825260009060c0830183820185845b60058110156118d157601f198785030183526118bf848351611864565b935091840191908401906001016118a2565b50919695505050505050565b634e487b7160e01b600052602160045260246000fd5b6002811061191157634e487b7160e01b600052602160045260246000fd5b9052565b60208152815160208201526000602083015161010080604085015261193e610120850183611864565b91506040850151601f198086850301606087015261195c8483611864565b935060608701519150808685030160808701526119798483611864565b935060808701519150808685030160a08701526119968483611864565b935060a08701519150808685030160c0870152506119b48382611864565b92505060c08501516119c960e08601826118f3565b5060e08501516001600160a01b038116858301525090949350505050565b60006101008a8352806020840152611a018184018b611864565b90508281036040840152611a15818a611864565b90508281036060840152611a298189611864565b90508281036080840152611a3d8188611864565b905082810360a0840152611a518187611864565b915050611a6160c08301856118f3565b6001600160a01b039290921660e09190910152979650505050505050565b80356001600160a01b038116811461045b57600080fd5b60008060408385031215611aa957600080fd5b82359150611ab960208401611a7f565b90509250929050565b600060208284031215611ad457600080fd5b611add82611a7f565b9392505050565b6020808252818101527f4f776e61626c653a2063616c6c6572206973206e6f7420746865206f776e6572604082015260600190565b634e487b7160e01b600052601160045260246000fd5b600060018201611b4157611b41611b19565b5060010190565b60008251611b5a818460208701611834565b9190910192915050565b600181811c90821680611b7857607f821691505b602082108103611b9857634e487b7160e01b600052602260045260246000fd5b50919050565b600080835481600182811c915080831680611bba57607f831692505b60208084108203611bd957634e487b7160e01b86526022600452602486fd5b818015611bed5760018114611bfe57611c2b565b60ff19861689528489019650611c2b565b60008a81526020902060005b86811015611c235781548b820152908501908301611c0a565b505084890196505b509498975050505050505050565b87815286602082015260e060408201526000611c5860e0830188611864565b8281036060840152611c6a8188611864565b90508281036080840152611c7e8187611864565b905082810360a0840152611c928186611864565b905082810360c0840152611ca68185611864565b9a9950505050505050505050565b60008219821115611cc757611cc7611b19565b500190565b6020808252602e908201527f496e697469616c697a61626c653a20636f6e747261637420697320616c72656160408201526d191e481a5b9a5d1a585b1a5e995960921b606082015260800190565b6020808252602b908201527f496e697469616c697a61626c653a20636f6e7472616374206973206e6f74206960408201526a6e697469616c697a696e6760a81b60608201526080019056fea2646970667358221220d39063a231e3ad55bef55c31f5538098fc4eac42ea379b6116015cf66fe6763964736f6c634300080d0033",
  "devdoc": {
    "kind": "dev",
    "methods": {
      "owner()": {
        "details": "Returns the address of the current owner."
      },
      "renounceOwnership()": {
        "details": "Leaves the contract without owner. It will not be possible to call `onlyOwner` functions anymore. Can only be called by the current owner. NOTE: Renouncing ownership will leave the contract without an owner, thereby removing any functionality that is only available to the owner."
      },
      "transferOwnership(address)": {
        "details": "Transfers ownership of the contract to a new account (`newOwner`). Can only be called by the current owner."
      }
    },
    "version": 1
  },
  "userdoc": {
    "kind": "user",
    "methods": {},
    "version": 1
  },
  "storageLayout": {
    "storage": [
      {
        "astId": 208,
        "contract": "contracts/Metadata.sol:Metadata",
        "label": "_initialized",
        "offset": 0,
        "slot": "0",
        "type": "t_uint8"
      },
      {
        "astId": 211,
        "contract": "contracts/Metadata.sol:Metadata",
        "label": "_initializing",
        "offset": 1,
        "slot": "0",
        "type": "t_bool"
      },
      {
        "astId": 2536,
        "contract": "contracts/Metadata.sol:Metadata",
        "label": "__gap",
        "offset": 0,
        "slot": "1",
        "type": "t_array(t_uint256)50_storage"
      },
      {
        "astId": 10,
        "contract": "contracts/Metadata.sol:Metadata",
        "label": "_owner",
        "offset": 0,
        "slot": "51",
        "type": "t_address"
      },
      {
        "astId": 122,
        "contract": "contracts/Metadata.sol:Metadata",
        "label": "__gap",
        "offset": 0,
        "slot": "52",
        "type": "t_array(t_uint256)49_storage"
      },
      {
        "astId": 7917,
        "contract": "contracts/Metadata.sol:Metadata",
        "label": "service",
        "offset": 0,
        "slot": "101",
        "type": "t_contract(IService)11842"
      },
      {
        "astId": 7919,
        "contract": "contracts/Metadata.sol:Metadata",
        "label": "currentId",
        "offset": 0,
        "slot": "102",
        "type": "t_uint256"
      },
      {
        "astId": 7924,
        "contract": "contracts/Metadata.sol:Metadata",
        "label": "queueInfo",
        "offset": 0,
        "slot": "103",
        "type": "t_mapping(t_uint256,t_struct(QueueInfo)11635_storage)"
      }
    ],
    "types": {
      "t_address": {
        "encoding": "inplace",
        "label": "address",
        "numberOfBytes": "20"
      },
      "t_array(t_uint256)49_storage": {
        "base": "t_uint256",
        "encoding": "inplace",
        "label": "uint256[49]",
        "numberOfBytes": "1568"
      },
      "t_array(t_uint256)50_storage": {
        "base": "t_uint256",
        "encoding": "inplace",
        "label": "uint256[50]",
        "numberOfBytes": "1600"
      },
      "t_bool": {
        "encoding": "inplace",
        "label": "bool",
        "numberOfBytes": "1"
      },
      "t_contract(IService)11842": {
        "encoding": "inplace",
        "label": "contract IService",
        "numberOfBytes": "20"
      },
      "t_enum(Status)11617": {
        "encoding": "inplace",
        "label": "enum IMetadata.Status",
        "numberOfBytes": "1"
      },
      "t_mapping(t_uint256,t_struct(QueueInfo)11635_storage)": {
        "encoding": "mapping",
        "key": "t_uint256",
        "label": "mapping(uint256 => struct IMetadata.QueueInfo)",
        "numberOfBytes": "32",
        "value": "t_struct(QueueInfo)11635_storage"
      },
      "t_string_storage": {
        "encoding": "bytes",
        "label": "string",
        "numberOfBytes": "32"
      },
      "t_struct(QueueInfo)11635_storage": {
        "encoding": "inplace",
        "label": "struct IMetadata.QueueInfo",
        "members": [
          {
            "astId": 11619,
            "contract": "contracts/Metadata.sol:Metadata",
            "label": "jurisdiction",
            "offset": 0,
            "slot": "0",
            "type": "t_uint256"
          },
          {
            "astId": 11621,
            "contract": "contracts/Metadata.sol:Metadata",
            "label": "serialNumber",
            "offset": 0,
            "slot": "1",
            "type": "t_string_storage"
          },
          {
            "astId": 11623,
            "contract": "contracts/Metadata.sol:Metadata",
            "label": "dateOfIncorporation",
            "offset": 0,
            "slot": "2",
            "type": "t_string_storage"
          },
          {
            "astId": 11625,
            "contract": "contracts/Metadata.sol:Metadata",
            "label": "legalAddress",
            "offset": 0,
            "slot": "3",
            "type": "t_string_storage"
          },
          {
            "astId": 11627,
            "contract": "contracts/Metadata.sol:Metadata",
            "label": "taxationStatus",
            "offset": 0,
            "slot": "4",
            "type": "t_string_storage"
          },
          {
            "astId": 11629,
            "contract": "contracts/Metadata.sol:Metadata",
            "label": "registeredName",
            "offset": 0,
            "slot": "5",
            "type": "t_string_storage"
          },
          {
            "astId": 11632,
            "contract": "contracts/Metadata.sol:Metadata",
            "label": "status",
            "offset": 0,
            "slot": "6",
            "type": "t_enum(Status)11617"
          },
          {
            "astId": 11634,
            "contract": "contracts/Metadata.sol:Metadata",
            "label": "owner",
            "offset": 1,
            "slot": "6",
            "type": "t_address"
          }
        ],
        "numberOfBytes": "224"
      },
      "t_uint256": {
        "encoding": "inplace",
        "label": "uint256",
        "numberOfBytes": "32"
      },
      "t_uint8": {
        "encoding": "inplace",
        "label": "uint8",
        "numberOfBytes": "1"
      }
    }
  }
}