{
  "address": "0x4065e20cb2c8f780C4413E248E03Bbbe18c47Eb8",
  "abi": [
    {
      "anonymous": false,
      "inputs": [
        {
          "indexed": false,
          "internalType": "uint8",
          "name": "version",
          "type": "uint8"
        }
      ],
      "name": "Initialized",
      "type": "event"
    },
    {
      "anonymous": false,
      "inputs": [
        {
          "indexed": true,
          "internalType": "address",
          "name": "previousOwner",
          "type": "address"
        },
        {
          "indexed": true,
          "internalType": "address",
          "name": "newOwner",
          "type": "address"
        }
      ],
      "name": "OwnershipTransferred",
      "type": "event"
    },
    {
      "anonymous": false,
      "inputs": [
        {
          "indexed": false,
          "internalType": "uint256",
          "name": "proposalId",
          "type": "uint256"
        },
        {
          "indexed": false,
          "internalType": "uint256",
          "name": "quorum",
          "type": "uint256"
        },
        {
          "indexed": false,
          "internalType": "address[]",
          "name": "targets",
          "type": "address[]"
        },
        {
          "indexed": false,
          "internalType": "uint256[]",
          "name": "values",
          "type": "uint256[]"
        },
        {
          "indexed": false,
          "internalType": "bytes[]",
          "name": "calldatas",
          "type": "bytes[]"
        },
        {
          "indexed": false,
          "internalType": "string",
          "name": "description",
          "type": "string"
        }
      ],
      "name": "ProposalCreated",
      "type": "event"
    },
    {
      "anonymous": false,
      "inputs": [
        {
          "indexed": false,
          "internalType": "uint256",
          "name": "proposalId",
          "type": "uint256"
        }
      ],
      "name": "ProposalExecuted",
      "type": "event"
    },
    {
      "anonymous": false,
      "inputs": [
        {
          "indexed": false,
          "internalType": "address",
          "name": "voter",
          "type": "address"
        },
        {
          "indexed": false,
          "internalType": "uint256",
          "name": "proposalId",
          "type": "uint256"
        },
        {
          "indexed": false,
          "internalType": "uint256",
          "name": "votes",
          "type": "uint256"
        },
        {
          "indexed": false,
          "internalType": "bool",
          "name": "support",
          "type": "bool"
        }
      ],
      "name": "VoteCast",
      "type": "event"
    },
    {
      "inputs": [
        {
          "internalType": "uint256",
          "name": "proposalId",
          "type": "uint256"
        },
        {
          "internalType": "bool",
          "name": "support",
          "type": "bool"
        }
      ],
      "name": "castVote",
      "outputs": [],
      "stateMutability": "nonpayable",
      "type": "function"
    },
    {
      "inputs": [],
      "name": "companyDomain",
      "outputs": [
        {
          "internalType": "string",
          "name": "",
          "type": "string"
        }
      ],
      "stateMutability": "view",
      "type": "function"
    },
    {
      "inputs": [],
      "name": "companyId",
      "outputs": [
        {
          "internalType": "string",
          "name": "",
          "type": "string"
        }
      ],
      "stateMutability": "view",
      "type": "function"
    },
    {
      "inputs": [
        {
          "internalType": "uint256",
          "name": "proposalId",
          "type": "uint256"
        }
      ],
      "name": "execute",
      "outputs": [],
      "stateMutability": "nonpayable",
      "type": "function"
    },
    {
      "inputs": [
        {
          "internalType": "address",
          "name": "owner_",
          "type": "address"
        }
      ],
      "name": "initialize",
      "outputs": [],
      "stateMutability": "nonpayable",
      "type": "function"
    },
    {
      "inputs": [],
      "name": "lastProposalId",
      "outputs": [
        {
          "internalType": "uint256",
          "name": "",
          "type": "uint256"
        }
      ],
      "stateMutability": "view",
      "type": "function"
    },
    {
      "inputs": [],
      "name": "owner",
      "outputs": [
        {
          "internalType": "address",
          "name": "",
          "type": "address"
        }
      ],
      "stateMutability": "view",
      "type": "function"
    },
    {
      "inputs": [
        {
          "internalType": "uint256",
          "name": "proposalId",
          "type": "uint256"
        }
      ],
      "name": "proposalState",
      "outputs": [
        {
          "internalType": "enum Governor.ProposalState",
          "name": "",
          "type": "uint8"
        }
      ],
      "stateMutability": "view",
      "type": "function"
    },
    {
      "inputs": [
        {
          "internalType": "uint256",
          "name": "",
          "type": "uint256"
        }
      ],
      "name": "proposals",
      "outputs": [
        {
          "internalType": "uint256",
          "name": "quorum",
          "type": "uint256"
        },
        {
          "internalType": "uint256",
          "name": "threshold",
          "type": "uint256"
        },
        {
          "internalType": "uint256",
          "name": "startBlock",
          "type": "uint256"
        },
        {
          "internalType": "uint256",
          "name": "endBlock",
          "type": "uint256"
        },
        {
          "internalType": "uint256",
          "name": "forVotes",
          "type": "uint256"
        },
        {
          "internalType": "uint256",
          "name": "againstVotes",
          "type": "uint256"
        },
        {
          "internalType": "bool",
          "name": "executed",
          "type": "bool"
        }
      ],
      "stateMutability": "view",
      "type": "function"
    },
    {
      "inputs": [
        {
          "internalType": "uint256",
          "name": "duration",
          "type": "uint256"
        },
        {
          "internalType": "address",
          "name": "target",
          "type": "address"
        },
        {
          "internalType": "uint256",
          "name": "value",
          "type": "uint256"
        },
        {
          "internalType": "bytes",
          "name": "cd",
          "type": "bytes"
        },
        {
          "internalType": "string",
          "name": "description",
          "type": "string"
        }
      ],
      "name": "proposeSingleAction",
      "outputs": [
        {
          "internalType": "uint256",
          "name": "proposalId",
          "type": "uint256"
        }
      ],
      "stateMutability": "nonpayable",
      "type": "function"
    },
    {
      "inputs": [],
      "name": "renounceOwnership",
      "outputs": [],
      "stateMutability": "nonpayable",
      "type": "function"
    },
    {
      "inputs": [],
      "name": "service",
      "outputs": [
        {
          "internalType": "contract IService",
          "name": "",
          "type": "address"
        }
      ],
      "stateMutability": "view",
      "type": "function"
    },
    {
      "inputs": [
        {
          "internalType": "string",
          "name": "companyDomain_",
          "type": "string"
        }
      ],
      "name": "setCompanyDomain",
      "outputs": [],
      "stateMutability": "nonpayable",
      "type": "function"
    },
    {
      "inputs": [
        {
          "internalType": "string",
          "name": "companyId_",
          "type": "string"
        }
      ],
      "name": "setCompanyId",
      "outputs": [],
      "stateMutability": "nonpayable",
      "type": "function"
    },
    {
      "inputs": [
        {
          "internalType": "address",
          "name": "tge_",
          "type": "address"
        }
      ],
      "name": "setTGE",
      "outputs": [],
      "stateMutability": "nonpayable",
      "type": "function"
    },
    {
      "inputs": [
        {
          "internalType": "address",
          "name": "token_",
          "type": "address"
        }
      ],
      "name": "setToken",
      "outputs": [],
      "stateMutability": "nonpayable",
      "type": "function"
    },
    {
      "inputs": [],
      "name": "tge",
      "outputs": [
        {
          "internalType": "contract ITGE",
          "name": "",
          "type": "address"
        }
      ],
      "stateMutability": "view",
      "type": "function"
    },
    {
      "inputs": [],
      "name": "token",
      "outputs": [
        {
          "internalType": "contract IGovernanceToken",
          "name": "",
          "type": "address"
        }
      ],
      "stateMutability": "view",
      "type": "function"
    },
    {
      "inputs": [
        {
          "internalType": "address",
          "name": "newOwner",
          "type": "address"
        }
      ],
      "name": "transferOwnership",
      "outputs": [],
      "stateMutability": "nonpayable",
      "type": "function"
    },
    {
      "stateMutability": "payable",
      "type": "receive"
    }
  ],
  "transactionHash": "0xd34d24174ab65bdd23a5e96f86002aba6a1b6a1b1d384b28207809a8a43adeae",
  "args": [],
  "numDeployments": 1,
  "solcInputHash": "4dfaa6771f87ad430e2d47b84c416ad0",
  "bytecode": "0x608060405234801561001057600080fd5b5061214c806100206000396000f3fe6080604052600436106101185760003560e01c80638c439f6a116100a0578063d26331d411610064578063d26331d41461035a578063d598d4c914610387578063f2fde38b146103a7578063fc0c546a146103c7578063fe0d94c1146103e757600080fd5b80638c439f6a146102ad5780638da5cb5b146102cd57806392aa43c0146102fa578063a7497fa51461031a578063c4d66de81461033a57600080fd5b80632caffd60116100e75780632caffd601461021d5780633765edcf1461023f578063715018a61461026d57806374cb3041146102825780637bc3a7331461029857600080fd5b8063013cf08b14610124578063144fa6d7146101bb57806315373e3d146101dd5780632ab1a726146101fd57600080fd5b3661011f57005b600080fd5b34801561013057600080fd5b5061017f61013f366004611bc9565b6065602052600090815260409020805460018201546005830154600684015460078501546008860154600990960154949593949293919290919060ff1687565b604080519788526020880196909652948601939093526060850191909152608084015260a0830152151560c082015260e0015b60405180910390f35b3480156101c757600080fd5b506101db6101d6366004611bf7565b610407565b005b3480156101e957600080fd5b506101db6101f8366004611c14565b610476565b34801561020957600080fd5b506101db610218366004611cf5565b61061f565b34801561022957600080fd5b506102326107c5565b6040516101b29190611d8e565b34801561024b57600080fd5b5061025f61025a366004611da1565b610853565b6040519081526020016101b2565b34801561027957600080fd5b506101db610aff565b34801561028e57600080fd5b5061025f60665481565b3480156102a457600080fd5b50610232610b6a565b3480156102b957600080fd5b506101db6102c8366004611cf5565b610b77565b3480156102d957600080fd5b506102e2610ce3565b6040516001600160a01b0390911681526020016101b2565b34801561030657600080fd5b506101db610315366004611bf7565b610cfc565b34801561032657600080fd5b506069546102e2906001600160a01b031681565b34801561034657600080fd5b506101db610355366004611bf7565b610d66565b34801561036657600080fd5b5061037a610375366004611bc9565b610dee565b6040516101b29190611e58565b34801561039357600080fd5b506067546102e2906001600160a01b031681565b3480156103b357600080fd5b506101db6103c2366004611bf7565b6110a7565b3480156103d357600080fd5b506068546102e2906001600160a01b031681565b3480156103f357600080fd5b506101db610402366004611bc9565b611177565b6067546001600160a01b031633146104545760405162461bcd60e51b815260206004820152600b60248201526a4e6f74207365727669636560a81b60448201526064015b60405180910390fd5b606880546001600160a01b0319166001600160a01b0392909216919091179055565b606854604051631092ab9160e31b81523360048201526000916001600160a01b0316906384955c8890602401602060405180830381865afa1580156104bf573d6000803e3d6000fd5b505050506040513d601f19601f820116820180604052508101906104e39190611e80565b9050600081116105205760405162461bcd60e51b81526020600482015260086024820152674e6f20766f74657360c01b604482015260640161044b565b6068546040516370a0823160e01b815233600482018190526001600160a01b039092169163e2ab691d9183906370a0823190602401602060405180830381865afa158015610572573d6000803e3d6000fd5b505050506040513d601f19601f820116820180604052508101906105969190611e80565b6000878152606560205260409081902060060154905160e085901b6001600160e01b03191681526001600160a01b03909316600484015260248301919091526044820152606401600060405180830381600087803b1580156105f757600080fd5b505af115801561060b573d6000803e3d6000fd5b5050505061061a838284611544565b505050565b606b805461062c90611e99565b905060000361071157606760009054906101000a90046001600160a01b03166001600160a01b0316638da5cb5b6040518163ffffffff1660e01b8152600401602060405180830381865afa158015610688573d6000803e3d6000fd5b505050506040513d601f19601f820116820180604052508101906106ac9190611ed3565b6001600160a01b0316336001600160a01b03161461070c5760405162461bcd60e51b815260206004820152601e60248201527f496e697469616c207365747465722073686f756c642062652061646d696e0000604482015260640161044b565b61076a565b33301461076a5760405162461bcd60e51b815260206004820152602160248201527f4368616e6765722073686f756c6420626520706f6f6c20676f7665726e616e636044820152606560f81b606482015260840161044b565b80516000036107ae5760405162461bcd60e51b815260206004820152601060248201526f43616e206e6f7420626520656d70747960801b604482015260640161044b565b80516107c190606b9060208401906119f1565b5050565b606b80546107d290611e99565b80601f01602080910402602001604051908101604052809291908181526020018280546107fe90611e99565b801561084b5780601f106108205761010080835404028352916020019161084b565b820191906000526020600020905b81548152906001019060200180831161082e57829003601f168201915b505050505081565b606754604080516304e31dfb60e01b815290516000926001600160a01b0316916304e31dfb9160048083019260209291908290030181865afa15801561089d573d6000803e3d6000fd5b505050506040513d601f19601f820116820180604052508101906108c19190611ed3565b6001600160a01b0316336001600160a01b0316146109185760405162461bcd60e51b81526020600482015260146024820152734e6f742070726f706f73616c206761746577617960601b604482015260640161044b565b60408051600180825281830190925260009160208083019080368337019050509050858160008151811061094e5761094e611ef0565b6001600160a01b039290921660209283029190910190910152604080516001808252818301909252600091816020016020820280368337019050509050858160008151811061099f5761099f611ef0565b6020908102919091010152604080516001808252818301909252600091816020015b60608152602001906001900390816109c157905050905085816000815181106109ec576109ec611ef0565b6020026020010181905250610af289606760009054906101000a90046001600160a01b03166001600160a01b0316639a0b6f9b6040518163ffffffff1660e01b8152600401602060405180830381865afa158015610a4e573d6000803e3d6000fd5b505050506040513d601f19601f82011682018060405250810190610a729190611e80565b606760009054906101000a90046001600160a01b03166001600160a01b031663b58131b06040518163ffffffff1660e01b8152600401602060405180830381865afa158015610ac5573d6000803e3d6000fd5b505050506040513d601f19601f82011682018060405250810190610ae99190611e80565b8686868b611635565b9998505050505050505050565b33610b08610ce3565b6001600160a01b031614610b5e5760405162461bcd60e51b815260206004820181905260248201527f4f776e61626c653a2063616c6c6572206973206e6f7420746865206f776e6572604482015260640161044b565b610b686000611808565b565b606a80546107d290611e99565b606760009054906101000a90046001600160a01b03166001600160a01b0316638da5cb5b6040518163ffffffff1660e01b8152600401602060405180830381865afa158015610bca573d6000803e3d6000fd5b505050506040513d601f19601f82011682018060405250810190610bee9190611ed3565b6001600160a01b0316336001600160a01b031614610c425760405162461bcd60e51b81526020600482015260116024820152702737ba1039b2b93b34b1b29037bbb732b960791b604482015260640161044b565b606a8054610c4f90611e99565b159050610c8c5760405162461bcd60e51b815260206004820152600b60248201526a105b1c9958591e481cd95d60aa1b604482015260640161044b565b8051600003610cd05760405162461bcd60e51b815260206004820152601060248201526f43616e206e6f7420626520656d70747960801b604482015260640161044b565b80516107c190606a9060208401906119f1565b6000610cf76033546001600160a01b031690565b905090565b6067546001600160a01b03163314610d445760405162461bcd60e51b815260206004820152600b60248201526a4e6f74207365727669636560a81b604482015260640161044b565b606980546001600160a01b0319166001600160a01b0392909216919091179055565b6000610d72600161185a565b90508015610d8a576000805461ff0019166101001790555b606780546001600160a01b03191633179055610da582611808565b80156107c1576000805461ff0019169055604051600181527f7f26b83ff96e1f2b6a682f133852f6798a09c465da95921460cefb38474024989060200160405180910390a15050565b60008181526065602090815260408083208151610140810183528154815260018201548185015260028201805484518187028101870186528181528796939586019390929190830182828015610e6d57602002820191906000526020600020905b81546001600160a01b03168152600190910190602001808311610e4f575b5050505050815260200160038201805480602002602001604051908101604052809291908181526020018280548015610ec557602002820191906000526020600020905b815481526020019060010190808311610eb1575b5050505050815260200160048201805480602002602001604051908101604052809291908181526020016000905b82821015610f9f578382906000526020600020018054610f1290611e99565b80601f0160208091040260200160405190810160405280929190818152602001828054610f3e90611e99565b8015610f8b5780601f10610f6057610100808354040283529160200191610f8b565b820191906000526020600020905b815481529060010190602001808311610f6e57829003601f168201915b505050505081526020019060010190610ef3565b505050908252506005820154602082015260068201546040820152600782015460608201526008820154608082015260099091015460ff16151560a09091015261012081015190915015610ff65750600492915050565b8060a0015160000361100b5750600092915050565b438160c0015111156110205750600192915050565b6000606482600001516110316118e2565b61103b9190611f1c565b6110459190611f3b565b905060008261010001518360e0015161105e9190611f5d565b905081811015801561108c5750602083015161107a9082611f1c565b60e084015161108a906064611f1c565b115b1561109c57506003949350505050565b506002949350505050565b336110b0610ce3565b6001600160a01b0316146111065760405162461bcd60e51b815260206004820181905260248201527f4f776e61626c653a2063616c6c6572206973206e6f7420746865206f776e6572604482015260640161044b565b6001600160a01b03811661116b5760405162461bcd60e51b815260206004820152602660248201527f4f776e61626c653a206e6577206f776e657220697320746865207a65726f206160448201526564647265737360d01b606482015260840161044b565b61117481611808565b50565b6000818152606560209081526040808320815161014081018352815481526001820154818501526002820180548451818702810187018652818152929593948601938301828280156111f257602002820191906000526020600020905b81546001600160a01b031681526001909101906020018083116111d4575b505050505081526020016003820180548060200260200160405190810160405280929190818152602001828054801561124a57602002820191906000526020600020905b815481526020019060010190808311611236575b5050505050815260200160048201805480602002602001604051908101604052809291908181526020016000905b8282101561132457838290600052602060002001805461129790611e99565b80601f01602080910402602001604051908101604052809291908181526020018280546112c390611e99565b80156113105780601f106112e557610100808354040283529160200191611310565b820191906000526020600020905b8154815290600101906020018083116112f357829003601f168201915b505050505081526020019060010190611278565b505050908252506005820154602082015260068201546040820152600782015460608201526008820154608082015260099091015460ff16151560a0909101529050600361137183610dee565b600481111561138257611382611e42565b146113cf5760405162461bcd60e51b815260206004820152601a60248201527f50726f706f73616c20697320696e2077726f6e67207374617465000000000000604482015260640161044b565b6000828152606560209081526040808320600901805460ff191660011790558051808201909152601d81527f43616c6c20726576657274656420776974686f7574206d65737361676500000091810191909152905b82604001515181101561150a576000808460400151838151811061144a5761144a611ef0565b60200260200101516001600160a01b03168560600151848151811061147157611471611ef0565b60200260200101518660800151858151811061148f5761148f611ef0565b60200260200101516040516114a49190611f75565b60006040518083038185875af1925050503d80600081146114e1576040519150601f19603f3d011682016040523d82523d6000602084013e6114e6565b606091505b50915091506114f6828286611950565b5050508061150390611f91565b9050611424565b506040518381527f712ae1383f79ac853f8d882153778e0260ef8f03b504e2866e0593e04d2b291f906020015b60405180910390a1505050565b60008381526065602052604090206006015443106115965760405162461bcd60e51b815260206004820152600f60248201526e159bdd1a5b99c8199a5b9a5cda1959608a1b604482015260640161044b565b80156115c857600083815260656020526040812060070180548492906115bd908490611f5d565b909155506115ef9050565b600083815260656020526040812060080180548492906115e9908490611f5d565b90915550505b604080513381526020810185905290810183905281151560608201527f2c48deccc79dbba942eeb2f991c4bfa0ac136723ddc0ea1b575dd85373408df890608001611537565b6066546000908152606560205260408120600601544310156116995760405162461bcd60e51b815260206004820152601b60248201527f416c726561647920686173206163746976652070726f706f73616c0000000000604482015260640161044b565b6066600081546116a890611f91565b919050819055905060405180610140016040528088815260200187815260200186815260200185815260200184815260200143815260200189436116ec9190611f5d565b815260006020808301829052604080840183905260609093018290528482526065815290829020835181558382015160018201559183015180516117369260028501920190611a75565b5060608201518051611752916003840191602090910190611aca565b506080820151805161176e916004840191602090910190611b04565b5060a0820151600582015560c0820151600682015560e082015160078201556101008201516008820155610120909101516009909101805460ff19169115159190911790556117bc81611990565b7fbd5cfa3a6d750f3995a6e4c6f70b1d01187c16a6fcfcd3bbe400ecf361b756ba8188878787876040516117f59695949392919061203a565b60405180910390a1979650505050505050565b603380546001600160a01b038381166001600160a01b0319831681179093556040519116919082907f8be0079c531659141344cd1fd0a4f28419497f9722a3daafe3b4186f6b6457e090600090a35050565b60008054610100900460ff16156118a1578160ff16600114801561187d5750303b155b6118995760405162461bcd60e51b815260040161044b906120c8565b506000919050565b60005460ff8084169116106118c85760405162461bcd60e51b815260040161044b906120c8565b506000805460ff191660ff92909216919091179055600190565b606854604080516318160ddd60e01b815290516000926001600160a01b0316916318160ddd9160048083019260209291908290030181865afa15801561192c573d6000803e3d6000fd5b505050506040513d601f19601f82011682018060405250810190610cf79190611e80565b6060831561195f575081611989565b82511561196f5782518084602001fd5b8160405162461bcd60e51b815260040161044b9190611d8e565b9392505050565b606754604051630ffb246960e21b8152600481018390526001600160a01b0390911690633fec91a490602401600060405180830381600087803b1580156119d657600080fd5b505af11580156119ea573d6000803e3d6000fd5b5050505050565b8280546119fd90611e99565b90600052602060002090601f016020900481019282611a1f5760008555611a65565b82601f10611a3857805160ff1916838001178555611a65565b82800160010185558215611a65579182015b82811115611a65578251825591602001919060010190611a4a565b50611a71929150611b5d565b5090565b828054828255906000526020600020908101928215611a65579160200282015b82811115611a6557825182546001600160a01b0319166001600160a01b03909116178255602090920191600190910190611a95565b828054828255906000526020600020908101928215611a655791602002820182811115611a65578251825591602001919060010190611a4a565b828054828255906000526020600020908101928215611b51579160200282015b82811115611b515782518051611b419184916020909101906119f1565b5091602001919060010190611b24565b50611a71929150611b72565b5b80821115611a715760008155600101611b5e565b80821115611a71576000611b868282611b8f565b50600101611b72565b508054611b9b90611e99565b6000825580601f10611bab575050565b601f0160209004906000526020600020908101906111749190611b5d565b600060208284031215611bdb57600080fd5b5035919050565b6001600160a01b038116811461117457600080fd5b600060208284031215611c0957600080fd5b813561198981611be2565b60008060408385031215611c2757600080fd5b8235915060208301358015158114611c3e57600080fd5b809150509250929050565b634e487b7160e01b600052604160045260246000fd5b600067ffffffffffffffff80841115611c7a57611c7a611c49565b604051601f8501601f19908116603f01168101908282118183101715611ca257611ca2611c49565b81604052809350858152868686011115611cbb57600080fd5b858560208301376000602087830101525050509392505050565b600082601f830112611ce657600080fd5b61198983833560208501611c5f565b600060208284031215611d0757600080fd5b813567ffffffffffffffff811115611d1e57600080fd5b611d2a84828501611cd5565b949350505050565b60005b83811015611d4d578181015183820152602001611d35565b83811115611d5c576000848401525b50505050565b60008151808452611d7a816020860160208601611d32565b601f01601f19169290920160200192915050565b6020815260006119896020830184611d62565b600080600080600060a08688031215611db957600080fd5b853594506020860135611dcb81611be2565b935060408601359250606086013567ffffffffffffffff80821115611def57600080fd5b818801915088601f830112611e0357600080fd5b611e1289833560208501611c5f565b93506080880135915080821115611e2857600080fd5b50611e3588828901611cd5565b9150509295509295909350565b634e487b7160e01b600052602160045260246000fd5b6020810160058310611e7a57634e487b7160e01b600052602160045260246000fd5b91905290565b600060208284031215611e9257600080fd5b5051919050565b600181811c90821680611ead57607f821691505b602082108103611ecd57634e487b7160e01b600052602260045260246000fd5b50919050565b600060208284031215611ee557600080fd5b815161198981611be2565b634e487b7160e01b600052603260045260246000fd5b634e487b7160e01b600052601160045260246000fd5b6000816000190483118215151615611f3657611f36611f06565b500290565b600082611f5857634e487b7160e01b600052601260045260246000fd5b500490565b60008219821115611f7057611f70611f06565b500190565b60008251611f87818460208701611d32565b9190910192915050565b600060018201611fa357611fa3611f06565b5060010190565b600081518084526020808501945080840160005b83811015611fda57815187529582019590820190600101611fbe565b509495945050505050565b600081518084526020808501808196508360051b8101915082860160005b8581101561202d57828403895261201b848351611d62565b98850198935090840190600101612003565b5091979650505050505050565b600060c082018883526020888185015260c0604085015281885180845260e086019150828a01935060005b8181101561208a5784516001600160a01b031683529383019391830191600101612065565b5050848103606086015261209e8189611faa565b9250505082810360808401526120b48186611fe5565b905082810360a0840152610af28185611d62565b6020808252602e908201527f496e697469616c697a61626c653a20636f6e747261637420697320616c72656160408201526d191e481a5b9a5d1a585b1a5e995960921b60608201526080019056fea2646970667358221220507d2dc761b8a2cdb7ed84cc1ab54f85953a126b6ba7f1a6042e81069b67bd8064736f6c634300080d0033",
  "devdoc": {
    "kind": "dev",
    "methods": {
      "renounceOwnership()": {
        "details": "Leaves the contract without owner. It will not be possible to call `onlyOwner` functions anymore. Can only be called by the current owner. NOTE: Renouncing ownership will leave the contract without an owner, thereby removing any functionality that is only available to the owner."
      },
      "transferOwnership(address)": {
        "details": "Transfers ownership of the contract to a new account (`newOwner`). Can only be called by the current owner."
      }
    },
    "version": 1
  },
  "userdoc": {
    "kind": "user",
    "methods": {},
    "version": 1
  },
  "storageLayout": {
    "storage": [
      {
        "astId": 208,
        "contract": "contracts/Pool.sol:Pool",
        "label": "_initialized",
        "offset": 0,
        "slot": "0",
        "type": "t_uint8"
      },
      {
        "astId": 211,
        "contract": "contracts/Pool.sol:Pool",
        "label": "_initializing",
        "offset": 1,
        "slot": "0",
        "type": "t_bool"
      },
      {
        "astId": 2536,
        "contract": "contracts/Pool.sol:Pool",
        "label": "__gap",
        "offset": 0,
        "slot": "1",
        "type": "t_array(t_uint256)50_storage"
      },
      {
        "astId": 10,
        "contract": "contracts/Pool.sol:Pool",
        "label": "_owner",
        "offset": 0,
        "slot": "51",
        "type": "t_address"
      },
      {
        "astId": 122,
        "contract": "contracts/Pool.sol:Pool",
        "label": "__gap",
        "offset": 0,
        "slot": "52",
        "type": "t_array(t_uint256)49_storage"
      },
      {
        "astId": 9322,
        "contract": "contracts/Pool.sol:Pool",
        "label": "proposals",
        "offset": 0,
        "slot": "101",
        "type": "t_mapping(t_uint256,t_struct(Proposal)9317_storage)"
      },
      {
        "astId": 9324,
        "contract": "contracts/Pool.sol:Pool",
        "label": "lastProposalId",
        "offset": 0,
        "slot": "102",
        "type": "t_uint256"
      },
      {
        "astId": 7186,
        "contract": "contracts/Pool.sol:Pool",
        "label": "service",
        "offset": 0,
        "slot": "103",
        "type": "t_contract(IService)9905"
      },
      {
        "astId": 7189,
        "contract": "contracts/Pool.sol:Pool",
        "label": "token",
        "offset": 0,
        "slot": "104",
        "type": "t_contract(IGovernanceToken)9758"
      },
      {
        "astId": 7192,
        "contract": "contracts/Pool.sol:Pool",
        "label": "tge",
        "offset": 0,
        "slot": "105",
        "type": "t_contract(ITGE)9962"
      },
      {
        "astId": 7194,
        "contract": "contracts/Pool.sol:Pool",
        "label": "companyId",
        "offset": 0,
        "slot": "106",
        "type": "t_string_storage"
      },
      {
        "astId": 7196,
        "contract": "contracts/Pool.sol:Pool",
        "label": "companyDomain",
        "offset": 0,
        "slot": "107",
        "type": "t_string_storage"
      }
    ],
    "types": {
      "t_address": {
        "encoding": "inplace",
        "label": "address",
        "numberOfBytes": "20"
      },
      "t_array(t_address)dyn_storage": {
        "base": "t_address",
        "encoding": "dynamic_array",
        "label": "address[]",
        "numberOfBytes": "32"
      },
      "t_array(t_bytes_storage)dyn_storage": {
        "base": "t_bytes_storage",
        "encoding": "dynamic_array",
        "label": "bytes[]",
        "numberOfBytes": "32"
      },
      "t_array(t_uint256)49_storage": {
        "base": "t_uint256",
        "encoding": "inplace",
        "label": "uint256[49]",
        "numberOfBytes": "1568"
      },
      "t_array(t_uint256)50_storage": {
        "base": "t_uint256",
        "encoding": "inplace",
        "label": "uint256[50]",
        "numberOfBytes": "1600"
      },
      "t_array(t_uint256)dyn_storage": {
        "base": "t_uint256",
        "encoding": "dynamic_array",
        "label": "uint256[]",
        "numberOfBytes": "32"
      },
      "t_bool": {
        "encoding": "inplace",
        "label": "bool",
        "numberOfBytes": "1"
      },
      "t_bytes_storage": {
        "encoding": "bytes",
        "label": "bytes",
        "numberOfBytes": "32"
      },
      "t_contract(IGovernanceToken)9758": {
        "encoding": "inplace",
        "label": "contract IGovernanceToken",
        "numberOfBytes": "20"
      },
      "t_contract(IService)9905": {
        "encoding": "inplace",
        "label": "contract IService",
        "numberOfBytes": "20"
      },
      "t_contract(ITGE)9962": {
        "encoding": "inplace",
        "label": "contract ITGE",
        "numberOfBytes": "20"
      },
      "t_mapping(t_uint256,t_struct(Proposal)9317_storage)": {
        "encoding": "mapping",
        "key": "t_uint256",
        "label": "mapping(uint256 => struct Governor.Proposal)",
        "numberOfBytes": "32",
        "value": "t_struct(Proposal)9317_storage"
      },
      "t_string_storage": {
        "encoding": "bytes",
        "label": "string",
        "numberOfBytes": "32"
      },
      "t_struct(Proposal)9317_storage": {
        "encoding": "inplace",
        "label": "struct Governor.Proposal",
        "members": [
          {
            "astId": 9295,
            "contract": "contracts/Pool.sol:Pool",
            "label": "quorum",
            "offset": 0,
            "slot": "0",
            "type": "t_uint256"
          },
          {
            "astId": 9297,
            "contract": "contracts/Pool.sol:Pool",
            "label": "threshold",
            "offset": 0,
            "slot": "1",
            "type": "t_uint256"
          },
          {
            "astId": 9300,
            "contract": "contracts/Pool.sol:Pool",
            "label": "targets",
            "offset": 0,
            "slot": "2",
            "type": "t_array(t_address)dyn_storage"
          },
          {
            "astId": 9303,
            "contract": "contracts/Pool.sol:Pool",
            "label": "values",
            "offset": 0,
            "slot": "3",
            "type": "t_array(t_uint256)dyn_storage"
          },
          {
            "astId": 9306,
            "contract": "contracts/Pool.sol:Pool",
            "label": "calldatas",
            "offset": 0,
            "slot": "4",
            "type": "t_array(t_bytes_storage)dyn_storage"
          },
          {
            "astId": 9308,
            "contract": "contracts/Pool.sol:Pool",
            "label": "startBlock",
            "offset": 0,
            "slot": "5",
            "type": "t_uint256"
          },
          {
            "astId": 9310,
            "contract": "contracts/Pool.sol:Pool",
            "label": "endBlock",
            "offset": 0,
            "slot": "6",
            "type": "t_uint256"
          },
          {
            "astId": 9312,
            "contract": "contracts/Pool.sol:Pool",
            "label": "forVotes",
            "offset": 0,
            "slot": "7",
            "type": "t_uint256"
          },
          {
            "astId": 9314,
            "contract": "contracts/Pool.sol:Pool",
            "label": "againstVotes",
            "offset": 0,
            "slot": "8",
            "type": "t_uint256"
          },
          {
            "astId": 9316,
            "contract": "contracts/Pool.sol:Pool",
            "label": "executed",
            "offset": 0,
            "slot": "9",
            "type": "t_bool"
          }
        ],
        "numberOfBytes": "320"
      },
      "t_uint256": {
        "encoding": "inplace",
        "label": "uint256",
        "numberOfBytes": "32"
      },
      "t_uint8": {
        "encoding": "inplace",
        "label": "uint8",
        "numberOfBytes": "1"
      }
    }
  }
}