{
  "address": "0x4F27Cc95ff728210847cd91fe801D3Ba555910Ce",
  "abi": [
    {
      "anonymous": false,
      "inputs": [
        {
          "indexed": false,
          "internalType": "uint8",
          "name": "version",
          "type": "uint8"
        }
      ],
      "name": "Initialized",
      "type": "event"
    },
    {
      "anonymous": false,
      "inputs": [
        {
          "indexed": true,
          "internalType": "address",
          "name": "previousOwner",
          "type": "address"
        },
        {
          "indexed": true,
          "internalType": "address",
          "name": "newOwner",
          "type": "address"
        }
      ],
      "name": "OwnershipTransferred",
      "type": "event"
    },
    {
      "anonymous": false,
      "inputs": [
        {
          "indexed": false,
          "internalType": "uint256",
          "name": "proposalId",
          "type": "uint256"
        },
        {
          "indexed": false,
          "internalType": "uint256",
          "name": "quorum",
          "type": "uint256"
        },
        {
          "indexed": false,
          "internalType": "address[]",
          "name": "targets",
          "type": "address[]"
        },
        {
          "indexed": false,
          "internalType": "uint256[]",
          "name": "values",
          "type": "uint256[]"
        },
        {
          "indexed": false,
          "internalType": "bytes[]",
          "name": "calldatas",
          "type": "bytes[]"
        },
        {
          "indexed": false,
          "internalType": "string",
          "name": "description",
          "type": "string"
        }
      ],
      "name": "ProposalCreated",
      "type": "event"
    },
    {
      "anonymous": false,
      "inputs": [
        {
          "indexed": false,
          "internalType": "uint256",
          "name": "proposalId",
          "type": "uint256"
        }
      ],
      "name": "ProposalExecuted",
      "type": "event"
    },
    {
      "anonymous": false,
      "inputs": [
        {
          "indexed": false,
          "internalType": "address",
          "name": "voter",
          "type": "address"
        },
        {
          "indexed": false,
          "internalType": "uint256",
          "name": "proposalId",
          "type": "uint256"
        },
        {
          "indexed": false,
          "internalType": "uint256",
          "name": "votes",
          "type": "uint256"
        },
        {
          "indexed": false,
          "internalType": "bool",
          "name": "support",
          "type": "bool"
        }
      ],
      "name": "VoteCast",
      "type": "event"
    },
    {
      "inputs": [
        {
          "internalType": "uint256",
          "name": "proposalId",
          "type": "uint256"
        },
        {
          "internalType": "uint256",
          "name": "votes",
          "type": "uint256"
        },
        {
          "internalType": "bool",
          "name": "support",
          "type": "bool"
        }
      ],
      "name": "castVote",
      "outputs": [],
      "stateMutability": "nonpayable",
      "type": "function"
    },
    {
      "inputs": [
        {
          "internalType": "uint256",
          "name": "proposalId",
          "type": "uint256"
        }
      ],
      "name": "executeBallot",
      "outputs": [],
      "stateMutability": "nonpayable",
      "type": "function"
    },
    {
      "inputs": [],
      "name": "getBallotDecisionThreshold",
      "outputs": [
        {
          "internalType": "uint256",
          "name": "",
          "type": "uint256"
        }
      ],
      "stateMutability": "view",
      "type": "function"
    },
    {
      "inputs": [],
      "name": "getBallotLifespan",
      "outputs": [
        {
          "internalType": "uint256",
          "name": "",
          "type": "uint256"
        }
      ],
      "stateMutability": "view",
      "type": "function"
    },
    {
      "inputs": [],
      "name": "getBallotQuorumThreshold",
      "outputs": [
        {
          "internalType": "uint256",
          "name": "",
          "type": "uint256"
        }
      ],
      "stateMutability": "view",
      "type": "function"
    },
    {
      "inputs": [],
      "name": "getPoolDateOfIncorporation",
      "outputs": [
        {
          "internalType": "string",
          "name": "",
          "type": "string"
        }
      ],
      "stateMutability": "view",
      "type": "function"
    },
    {
      "inputs": [],
      "name": "getPoolEIN",
      "outputs": [
        {
          "internalType": "string",
          "name": "",
          "type": "string"
        }
      ],
      "stateMutability": "view",
      "type": "function"
    },
    {
      "inputs": [],
      "name": "getPoolJurisdiction",
      "outputs": [
        {
          "internalType": "uint256",
          "name": "",
          "type": "uint256"
        }
      ],
      "stateMutability": "view",
      "type": "function"
    },
    {
      "inputs": [],
      "name": "getPoolLegalAddress",
      "outputs": [
        {
          "internalType": "string",
          "name": "",
          "type": "string"
        }
      ],
      "stateMutability": "view",
      "type": "function"
    },
    {
      "inputs": [],
      "name": "getPoolRegisteredName",
      "outputs": [
        {
          "internalType": "string",
          "name": "",
          "type": "string"
        }
      ],
      "stateMutability": "view",
      "type": "function"
    },
    {
      "inputs": [],
      "name": "getPoolTaxationStatus",
      "outputs": [
        {
          "internalType": "string",
          "name": "",
          "type": "string"
        }
      ],
      "stateMutability": "view",
      "type": "function"
    },
    {
      "inputs": [],
      "name": "getPoolTrademark",
      "outputs": [
        {
          "internalType": "string",
          "name": "",
          "type": "string"
        }
      ],
      "stateMutability": "view",
      "type": "function"
    },
    {
      "inputs": [
        {
          "internalType": "uint256",
          "name": "proposalId",
          "type": "uint256"
        }
      ],
      "name": "getProposal",
      "outputs": [
        {
          "components": [
            {
              "internalType": "uint256",
              "name": "ballotQuorumThreshold",
              "type": "uint256"
            },
            {
              "internalType": "uint256",
              "name": "ballotDecisionThreshold",
              "type": "uint256"
            },
            {
              "internalType": "address[]",
              "name": "targets",
              "type": "address[]"
            },
            {
              "internalType": "uint256[]",
              "name": "values",
              "type": "uint256[]"
            },
            {
              "internalType": "bytes[]",
              "name": "calldatas",
              "type": "bytes[]"
            },
            {
              "internalType": "uint256",
              "name": "startBlock",
              "type": "uint256"
            },
            {
              "internalType": "uint256",
              "name": "endBlock",
              "type": "uint256"
            },
            {
              "internalType": "uint256",
              "name": "forVotes",
              "type": "uint256"
            },
            {
              "internalType": "uint256",
              "name": "againstVotes",
              "type": "uint256"
            },
            {
              "internalType": "bool",
              "name": "executed",
              "type": "bool"
            },
            {
              "internalType": "bool",
              "name": "accepted",
              "type": "bool"
            },
            {
              "internalType": "enum Governor.ProposalExecutionState",
              "name": "state",
              "type": "uint8"
            },
            {
              "internalType": "string",
              "name": "description",
              "type": "string"
            }
          ],
          "internalType": "struct Governor.Proposal",
          "name": "",
          "type": "tuple"
        }
      ],
      "stateMutability": "view",
      "type": "function"
    },
    {
      "inputs": [
        {
          "internalType": "uint256",
          "name": "proposalId",
          "type": "uint256"
        }
      ],
      "name": "getProposalBallotDecisionThreshold",
      "outputs": [
        {
          "internalType": "uint256",
          "name": "",
          "type": "uint256"
        }
      ],
      "stateMutability": "view",
      "type": "function"
    },
    {
      "inputs": [
        {
          "internalType": "uint256",
          "name": "proposalId",
          "type": "uint256"
        }
      ],
      "name": "getProposalBallotLifespan",
      "outputs": [
        {
          "internalType": "uint256",
          "name": "",
          "type": "uint256"
        }
      ],
      "stateMutability": "view",
      "type": "function"
    },
    {
      "inputs": [
        {
          "internalType": "uint256",
          "name": "proposalId",
          "type": "uint256"
        }
      ],
      "name": "getProposalBallotQuorumThreshold",
      "outputs": [
        {
          "internalType": "uint256",
          "name": "",
          "type": "uint256"
        }
      ],
      "stateMutability": "view",
      "type": "function"
    },
    {
      "inputs": [],
      "name": "getTVL",
      "outputs": [
        {
          "internalType": "uint256",
          "name": "",
          "type": "uint256"
        }
      ],
      "stateMutability": "nonpayable",
      "type": "function"
    },
    {
      "inputs": [
        {
          "internalType": "address",
          "name": "poolCreator_",
          "type": "address"
        },
        {
          "internalType": "uint256",
          "name": "jurisdiction_",
          "type": "uint256"
        },
        {
          "internalType": "string",
          "name": "poolEIN_",
          "type": "string"
        },
        {
          "internalType": "string",
          "name": "dateOfIncorporation",
          "type": "string"
        },
        {
          "internalType": "string",
          "name": "legalAddress",
          "type": "string"
        },
        {
          "internalType": "string",
          "name": "taxationStatus",
          "type": "string"
        },
        {
          "internalType": "uint256",
          "name": "ballotQuorumThreshold_",
          "type": "uint256"
        },
        {
          "internalType": "uint256",
          "name": "ballotDecisionThreshold_",
          "type": "uint256"
        },
        {
          "internalType": "uint256",
          "name": "ballotLifespan_",
          "type": "uint256"
        },
        {
          "internalType": "string",
          "name": "trademark",
          "type": "string"
        }
      ],
      "name": "initialize",
      "outputs": [],
      "stateMutability": "nonpayable",
      "type": "function"
    },
    {
      "inputs": [],
      "name": "lastProposalId",
      "outputs": [
        {
          "internalType": "uint256",
          "name": "",
          "type": "uint256"
        }
      ],
      "stateMutability": "view",
      "type": "function"
    },
    {
      "inputs": [],
      "name": "owner",
      "outputs": [
        {
          "internalType": "address",
          "name": "",
          "type": "address"
        }
      ],
      "stateMutability": "view",
      "type": "function"
    },
    {
      "inputs": [
        {
          "internalType": "uint256",
          "name": "proposalId",
          "type": "uint256"
        }
      ],
      "name": "proposalState",
      "outputs": [
        {
          "internalType": "enum Governor.ProposalState",
          "name": "",
          "type": "uint8"
        }
      ],
      "stateMutability": "view",
      "type": "function"
    },
    {
      "inputs": [
        {
          "internalType": "uint256",
          "name": "",
          "type": "uint256"
        }
      ],
      "name": "proposals",
      "outputs": [
        {
          "internalType": "uint256",
          "name": "ballotQuorumThreshold",
          "type": "uint256"
        },
        {
          "internalType": "uint256",
          "name": "ballotDecisionThreshold",
          "type": "uint256"
        },
        {
          "internalType": "uint256",
          "name": "startBlock",
          "type": "uint256"
        },
        {
          "internalType": "uint256",
          "name": "endBlock",
          "type": "uint256"
        },
        {
          "internalType": "uint256",
          "name": "forVotes",
          "type": "uint256"
        },
        {
          "internalType": "uint256",
          "name": "againstVotes",
          "type": "uint256"
        },
        {
          "internalType": "bool",
          "name": "executed",
          "type": "bool"
        },
        {
          "internalType": "bool",
          "name": "accepted",
          "type": "bool"
        },
        {
          "internalType": "enum Governor.ProposalExecutionState",
          "name": "state",
          "type": "uint8"
        },
        {
          "internalType": "string",
          "name": "description",
          "type": "string"
        }
      ],
      "stateMutability": "view",
      "type": "function"
    },
    {
      "inputs": [
        {
          "internalType": "address",
          "name": "target",
          "type": "address"
        },
        {
          "internalType": "uint256",
          "name": "value",
          "type": "uint256"
        },
        {
          "internalType": "bytes",
          "name": "cd",
          "type": "bytes"
        },
        {
          "internalType": "string",
          "name": "description",
          "type": "string"
        }
      ],
      "name": "proposeSingleAction",
      "outputs": [
        {
          "internalType": "uint256",
          "name": "proposalId",
          "type": "uint256"
        }
      ],
      "stateMutability": "nonpayable",
      "type": "function"
    },
    {
      "inputs": [],
      "name": "renounceOwnership",
      "outputs": [],
      "stateMutability": "nonpayable",
      "type": "function"
    },
    {
      "inputs": [],
      "name": "service",
      "outputs": [
        {
          "internalType": "contract IService",
          "name": "",
          "type": "address"
        }
      ],
      "stateMutability": "view",
      "type": "function"
    },
    {
      "inputs": [
        {
          "internalType": "uint256",
          "name": "ballotQuorumThreshold_",
          "type": "uint256"
        },
        {
          "internalType": "uint256",
          "name": "ballotDecisionThreshold_",
          "type": "uint256"
        },
        {
          "internalType": "uint256",
          "name": "ballotLifespan_",
          "type": "uint256"
        }
      ],
      "name": "setGovernanceSettings",
      "outputs": [],
      "stateMutability": "nonpayable",
      "type": "function"
    },
    {
      "inputs": [
        {
          "internalType": "string",
          "name": "registeredName",
          "type": "string"
        }
      ],
      "name": "setRegisteredName",
      "outputs": [],
      "stateMutability": "nonpayable",
      "type": "function"
    },
    {
      "inputs": [
        {
          "internalType": "address",
          "name": "tge_",
          "type": "address"
        }
      ],
      "name": "setTGE",
      "outputs": [],
      "stateMutability": "nonpayable",
      "type": "function"
    },
    {
      "inputs": [
        {
          "internalType": "address",
          "name": "token_",
          "type": "address"
        }
      ],
      "name": "setToken",
      "outputs": [],
      "stateMutability": "nonpayable",
      "type": "function"
    },
    {
      "inputs": [],
      "name": "tge",
      "outputs": [
        {
          "internalType": "contract ITGE",
          "name": "",
          "type": "address"
        }
      ],
      "stateMutability": "view",
      "type": "function"
    },
    {
      "inputs": [],
      "name": "token",
      "outputs": [
        {
          "internalType": "contract IGovernanceToken",
          "name": "",
          "type": "address"
        }
      ],
      "stateMutability": "view",
      "type": "function"
    },
    {
      "inputs": [
        {
          "internalType": "address",
          "name": "newOwner",
          "type": "address"
        }
      ],
      "name": "transferOwnership",
      "outputs": [],
      "stateMutability": "nonpayable",
      "type": "function"
    },
    {
      "stateMutability": "payable",
      "type": "receive"
    }
  ],
  "transactionHash": "0xbbd113e64a6c07b044efe2e808bf7c6f4e967344475d30422e08f63a69db6119",
  "args": [],
  "numDeployments": 2,
  "solcInputHash": "474d85433bc8cff9341499e4a183032a",
  "bytecode": "0x608060405234801561001057600080fd5b5061367b806100206000396000f3fe6080604052600436106101e75760003560e01c806378809b8311610102578063c7f758a811610095578063ea0a0e9e11610064578063ea0a0e9e14610570578063f2fde38b14610585578063f9000ba8146105a5578063fc0c546a146105c557600080fd5b8063c7f758a8146104e1578063d26331d41461050e578063d598d4c91461053b578063da9604311461055b57600080fd5b806392aa43c0116100d157806392aa43c01461047757806397b3fcaa14610497578063a1db8b4c146104ac578063a7497fa5146104c157600080fd5b806378809b831461040057806383d09ee11461041557806385c7bb83146104355780638da5cb5b1461044a57600080fd5b80635827e38d1161017a5780636e48bb71116101495780636e48bb7114610385578063715018a6146103b557806374cb3041146103ca57806378406c49146103e057600080fd5b80635827e38d1461030e5780635d0462561461033b57806366c2ec2c146103505780636ccb91a01461036557600080fd5b8063144fa6d7116101b6578063144fa6d714610297578063168dfb50146102b95780634dd70367146102d95780635473fda0146102f957600080fd5b8063013cf08b146101f357806309e252c4146102325780630f74fdb014610260578063134870481461028257600080fd5b366101ee57005b600080fd5b3480156101ff57600080fd5b5061021361020e366004612b52565b6105e5565b6040516102299a99989796959493929190612bf1565b60405180910390f35b34801561023e57600080fd5b5061025261024d366004612d6f565b6106cb565b604051908152602001610229565b34801561026c57600080fd5b50610275610895565b6040516102299190612e06565b34801561028e57600080fd5b50610275610927565b3480156102a357600080fd5b506102b76102b2366004612e19565b610a25565b005b3480156102c557600080fd5b506102b76102d4366004612e36565b610a8f565b3480156102e557600080fd5b506102b76102f4366004612b52565b610bc6565b34801561030557600080fd5b506102756110a7565b34801561031a57600080fd5b50610252610329366004612b52565b60009081526065602052604090205490565b34801561034757600080fd5b506102756111a5565b34801561035c57600080fd5b50606f54610252565b34801561037157600080fd5b506102b7610380366004612e62565b6111b4565b34801561039157600080fd5b506102526103a0366004612b52565b60009081526065602052604090206001015490565b3480156103c157600080fd5b506102b76113ab565b3480156103d657600080fd5b5061025260665481565b3480156103ec57600080fd5b506102b76103fb366004612f6d565b611416565b34801561040c57600080fd5b50606b54610252565b34801561042157600080fd5b50610252610430366004612b52565b611586565b34801561044157600080fd5b506102756115af565b34801561045657600080fd5b5061045f6116ad565b6040516001600160a01b039091168152602001610229565b34801561048357600080fd5b506102b7610492366004612e19565b6116c6565b3480156104a357600080fd5b50610252611730565b3480156104b857600080fd5b50606a54610252565b3480156104cd57600080fd5b5060695461045f906001600160a01b031681565b3480156104ed57600080fd5b506105016104fc366004612b52565b611aa5565b6040516102299190613073565b34801561051a57600080fd5b5061052e610529366004612b52565b611d77565b6040516102299190613178565b34801561054757600080fd5b5060675461045f906001600160a01b031681565b34801561056757600080fd5b50606c54610252565b34801561057c57600080fd5b506102756120f8565b34801561059157600080fd5b506102b76105a0366004612e19565b612107565b3480156105b157600080fd5b506102b76105c0366004613192565b6121d7565b3480156105d157600080fd5b5060685461045f906001600160a01b031681565b60656020526000908152604090208054600182015460058301546006840154600785015460088601546009870154600a8801805497989697959694959394929360ff808416946101008504821694620100009004909116929091610648906131d0565b80601f0160208091040260200160405190810160405280929190818152602001828054610674906131d0565b80156106c15780601f10610696576101008083540402835291602001916106c1565b820191906000526020600020905b8154815290600101906020018083116106a457829003601f168201915b505050505090508a565b606754604080516304e31dfb60e01b815290516000926001600160a01b0316916304e31dfb9160048083019260209291908290030181865afa158015610715573d6000803e3d6000fd5b505050506040513d601f19601f820116820180604052508101906107399190613215565b6001600160a01b0316336001600160a01b0316146107955760405162461bcd60e51b81526020600482015260146024820152734e6f742070726f706f73616c206761746577617960601b60448201526064015b60405180910390fd5b6040805160018082528183019092526000916020808301908036833701905050905085816000815181106107cb576107cb613232565b6001600160a01b039290921660209283029190910190910152604080516001808252818301909252600091816020016020820280368337019050509050858160008151811061081c5761081c613232565b6020908102919091010152604080516001808252818301909252600091816020015b606081526020019060019003908161083e579050509050858160008151811061086957610869613232565b6020026020010181905250610889606c54606a54606b548686868b6123d8565b98975050505050505050565b6060606e80546108a4906131d0565b80601f01602080910402602001604051908101604052809291908181526020018280546108d0906131d0565b801561091d5780601f106108f25761010080835404028352916020019161091d565b820191906000526020600020905b81548152906001019060200180831161090057829003601f168201915b5050505050905090565b60606000606760009054906101000a90046001600160a01b03166001600160a01b031663392f37e96040518163ffffffff1660e01b8152600401602060405180830381865afa15801561097e573d6000803e3d6000fd5b505050506040513d601f19601f820116820180604052508101906109a29190613215565b607154604051634bedf36960e01b81529192506001600160a01b03831691634bedf369916109d69160040190815260200190565b600060405180830381865afa1580156109f3573d6000803e3d6000fd5b505050506040513d6000823e601f3d908101601f19168201604052610a1b91908101906132a7565b6040015191505090565b6067546001600160a01b03163314610a6d5760405162461bcd60e51b815260206004820152600b60248201526a4e6f74207365727669636560a81b604482015260640161078c565b606880546001600160a01b0319166001600160a01b0392909216919091179055565b333014610acb5760405162461bcd60e51b815260206004820152600a602482015269139bdd0818481c1bdbdb60b21b604482015260640161078c565b612710831115610b1d5760405162461bcd60e51b815260206004820152601d60248201527f496e76616c69642062616c6c6f7451756f72756d5468726573686f6c64000000604482015260640161078c565b612710821115610b6f5760405162461bcd60e51b815260206004820152601f60248201527f496e76616c69642062616c6c6f744465636973696f6e5468726573686f6c6400604482015260640161078c565b60008111610bb85760405162461bcd60e51b815260206004820152601660248201527524b73b30b634b2103130b63637ba2634b332b9b830b760511b604482015260640161078c565b606a92909255606b55606c55565b600081815260656020908152604080832081516101a08101835281548152600182015481850152600282018054845181870281018701865281815292959394860193830182828015610c4157602002820191906000526020600020905b81546001600160a01b03168152600190910190602001808311610c23575b5050505050815260200160038201805480602002602001604051908101604052809291908181526020018280548015610c9957602002820191906000526020600020905b815481526020019060010190808311610c85575b5050505050815260200160048201805480602002602001604051908101604052809291908181526020016000905b82821015610d73578382906000526020600020018054610ce6906131d0565b80601f0160208091040260200160405190810160405280929190818152602001828054610d12906131d0565b8015610d5f5780601f10610d3457610100808354040283529160200191610d5f565b820191906000526020600020905b815481529060010190602001808311610d4257829003601f168201915b505050505081526020019060010190610cc7565b5050509082525060058201546020820152600682015460408201526007820154606082015260088201546080820152600982015460ff808216151560a084015261010082048116151560c084015260e09092019162010000909104166001811115610de057610de0612b6b565b6001811115610df157610df1612b6b565b8152602001600a82018054610e05906131d0565b80601f0160208091040260200160405190810160405280929190818152602001828054610e31906131d0565b8015610e7e5780601f10610e5357610100808354040283529160200191610e7e565b820191906000526020600020905b815481529060010190602001808311610e6157829003601f168201915b505050919092525050506000838152606560205260409020600901805460ff1916600117905590506003610eb183611d77565b6004811115610ec257610ec2612b6b565b14610f0f5760405162461bcd60e51b815260206004820152601a60248201527f50726f706f73616c20697320696e2077726f6e67207374617465000000000000604482015260640161078c565b6000828152606560209081526040808320600901805461ff0019166101001790558051808201909152601d81527f43616c6c20726576657274656420776974686f7574206d65737361676500000091810191909152905b82604001515181101561104c5760008084604001518381518110610f8c57610f8c613232565b60200260200101516001600160a01b031685606001518481518110610fb357610fb3613232565b602002602001015186608001518581518110610fd157610fd1613232565b6020026020010151604051610fe691906133ac565b60006040518083038185875af1925050503d8060008114611023576040519150601f19603f3d011682016040523d82523d6000602084013e611028565b606091505b509150915061103882828661261e565b50505080611045906133de565b9050610f66565b50600083815260656020908152604091829020600901805462ff000019166201000017905590518481527f712ae1383f79ac853f8d882153778e0260ef8f03b504e2866e0593e04d2b291f91015b60405180910390a1505050565b60606000606760009054906101000a90046001600160a01b03166001600160a01b031663392f37e96040518163ffffffff1660e01b8152600401602060405180830381865afa1580156110fe573d6000803e3d6000fd5b505050506040513d601f19601f820116820180604052508101906111229190613215565b607154604051634bedf36960e01b81529192506001600160a01b03831691634bedf369916111569160040190815260200190565b600060405180830381865afa158015611173573d6000803e3d6000fd5b505050506040513d6000823e601f3d908101601f1916820160405261119b91908101906132a7565b6080015191505090565b6060606d80546108a4906131d0565b60006111c0600161265e565b905080156111d8576000805461ff0019166101001790555b606780546001600160a01b031916331790556111f38b6126eb565b606f8a9055885161120b9060709060208c01906128fd565b50875161121f9060729060208b01906128fd565b5086516112339060739060208a01906128fd565b5085516112479060749060208901906128fd565b50815161125b90606e9060208501906128fd565b506127108511156112ae5760405162461bcd60e51b815260206004820152601d60248201527f496e76616c69642062616c6c6f7451756f72756d5468726573686f6c64000000604482015260640161078c565b6127108411156113005760405162461bcd60e51b815260206004820152601f60248201527f496e76616c69642062616c6c6f744465636973696f6e5468726573686f6c6400604482015260640161078c565b600083116113495760405162461bcd60e51b815260206004820152601660248201527524b73b30b634b2103130b63637ba2634b332b9b830b760511b604482015260640161078c565b606a859055606b849055606c839055801561139e576000805461ff0019169055604051600181527f7f26b83ff96e1f2b6a682f133852f6798a09c465da95921460cefb38474024989060200160405180910390a15b5050505050505050505050565b336113b46116ad565b6001600160a01b03161461140a5760405162461bcd60e51b815260206004820181905260248201527f4f776e61626c653a2063616c6c6572206973206e6f7420746865206f776e6572604482015260640161078c565b61141460006126eb565b565b606760009054906101000a90046001600160a01b03166001600160a01b0316638da5cb5b6040518163ffffffff1660e01b8152600401602060405180830381865afa158015611469573d6000803e3d6000fd5b505050506040513d601f19601f8201168201806040525081019061148d9190613215565b6001600160a01b0316336001600160a01b0316146114e15760405162461bcd60e51b81526020600482015260116024820152702737ba1039b2b93b34b1b29037bbb732b960791b604482015260640161078c565b606d80546114ee906131d0565b15905061152b5760405162461bcd60e51b815260206004820152600b60248201526a105b1c9958591e481cd95d60aa1b604482015260640161078c565b805160000361156f5760405162461bcd60e51b815260206004820152601060248201526f43616e206e6f7420626520656d70747960801b604482015260640161078c565b805161158290606d9060208401906128fd565b5050565b600081815260656020526040812060058101546006909101546115a991906133f7565b92915050565b60606000606760009054906101000a90046001600160a01b03166001600160a01b031663392f37e96040518163ffffffff1660e01b8152600401602060405180830381865afa158015611606573d6000803e3d6000fd5b505050506040513d601f19601f8201168201806040525081019061162a9190613215565b607154604051634bedf36960e01b81529192506001600160a01b03831691634bedf3699161165e9160040190815260200190565b600060405180830381865afa15801561167b573d6000803e3d6000fd5b505050506040513d6000823e601f3d908101601f191682016040526116a391908101906132a7565b6060015191505090565b60006116c16033546001600160a01b031690565b905090565b6067546001600160a01b0316331461170e5760405162461bcd60e51b815260206004820152600b60248201526a4e6f74207365727669636560a81b604482015260640161078c565b606980546001600160a01b0319166001600160a01b0392909216919091179055565b600080606760009054906101000a90046001600160a01b03166001600160a01b0316634db4a3526040518163ffffffff1660e01b8152600401602060405180830381865afa158015611786573d6000803e3d6000fd5b505050506040513d601f19601f820116820180604052508101906117aa9190613215565b90506000606760009054906101000a90046001600160a01b03166001600160a01b0316635e1762a06040518163ffffffff1660e01b8152600401602060405180830381865afa158015611801573d6000803e3d6000fd5b505050506040513d601f19601f820116820180604052508101906118259190613215565b90506000816001600160a01b031663ca735cc16040518163ffffffff1660e01b8152600401600060405180830381865afa158015611867573d6000803e3d6000fd5b505050506040513d6000823e601f3d908101601f1916820160405261188f919081019061340e565b90506000805b8251811015611a9c5760006001600160a01b03168382815181106118bb576118bb613232565b60200260200101516001600160a01b0316036118e2576118db47836134b4565b9150611a8a565b60008382815181106118f6576118f6613232565b60209081029190910101516040516370a0823160e01b81523060048201526001600160a01b03909116906370a0823190602401602060405180830381865afa158015611946573d6000803e3d6000fd5b505050506040513d601f19601f8201168201806040525081019061196a91906134cc565b90508015611a8857856001600160a01b031663cdca1753866001600160a01b03166350eb1c438786815181106119a2576119a2613232565b60200260200101516040518263ffffffff1660e01b81526004016119d591906001600160a01b0391909116815260200190565b600060405180830381865afa1580156119f2573d6000803e3d6000fd5b505050506040513d6000823e601f3d908101601f19168201604052611a1a91908101906134e5565b836040518363ffffffff1660e01b8152600401611a3892919061352e565b6020604051808303816000875af1158015611a57573d6000803e3d6000fd5b505050506040513d601f19601f82011682018060405250810190611a7b91906134cc565b611a8590846134b4565b92505b505b80611a94816133de565b915050611895565b50949350505050565b611aad612981565b60008281526065602090815260409182902082516101a0810184528154815260018201548184015260028201805485518186028101860187528181529295939493860193830182828015611b2a57602002820191906000526020600020905b81546001600160a01b03168152600190910190602001808311611b0c575b5050505050815260200160038201805480602002602001604051908101604052809291908181526020018280548015611b8257602002820191906000526020600020905b815481526020019060010190808311611b6e575b5050505050815260200160048201805480602002602001604051908101604052809291908181526020016000905b82821015611c5c578382906000526020600020018054611bcf906131d0565b80601f0160208091040260200160405190810160405280929190818152602001828054611bfb906131d0565b8015611c485780601f10611c1d57610100808354040283529160200191611c48565b820191906000526020600020905b815481529060010190602001808311611c2b57829003601f168201915b505050505081526020019060010190611bb0565b5050509082525060058201546020820152600682015460408201526007820154606082015260088201546080820152600982015460ff808216151560a084015261010082048116151560c084015260e09092019162010000909104166001811115611cc957611cc9612b6b565b6001811115611cda57611cda612b6b565b8152602001600a82018054611cee906131d0565b80601f0160208091040260200160405190810160405280929190818152602001828054611d1a906131d0565b8015611d675780601f10611d3c57610100808354040283529160200191611d67565b820191906000526020600020905b815481529060010190602001808311611d4a57829003601f168201915b5050505050815250509050919050565b600081815260656020908152604080832081516101a0810183528154815260018201548185015260028201805484518187028101870186528181528796939586019390929190830182828015611df657602002820191906000526020600020905b81546001600160a01b03168152600190910190602001808311611dd8575b5050505050815260200160038201805480602002602001604051908101604052809291908181526020018280548015611e4e57602002820191906000526020600020905b815481526020019060010190808311611e3a575b5050505050815260200160048201805480602002602001604051908101604052809291908181526020016000905b82821015611f28578382906000526020600020018054611e9b906131d0565b80601f0160208091040260200160405190810160405280929190818152602001828054611ec7906131d0565b8015611f145780601f10611ee957610100808354040283529160200191611f14565b820191906000526020600020905b815481529060010190602001808311611ef757829003601f168201915b505050505081526020019060010190611e7c565b5050509082525060058201546020820152600682015460408201526007820154606082015260088201546080820152600982015460ff808216151560a084015261010082048116151560c084015260e09092019162010000909104166001811115611f9557611f95612b6b565b6001811115611fa657611fa6612b6b565b8152602001600a82018054611fba906131d0565b80601f0160208091040260200160405190810160405280929190818152602001828054611fe6906131d0565b80156120335780601f1061200857610100808354040283529160200191612033565b820191906000526020600020905b81548152906001019060200180831161201657829003601f168201915b5050505050815250509050806101200151156120525750600492915050565b8060a001516000036120675750600092915050565b438160c00151111561207c5750600192915050565b60006064826000015161208d61273d565b6120979190613550565b6120a1919061356f565b905060008261010001518360e001516120ba91906134b4565b90508181101580156120dd575060208301516120d69082613550565b8360e00151115b156120ed57506003949350505050565b506002949350505050565b6060607080546108a4906131d0565b336121106116ad565b6001600160a01b0316146121665760405162461bcd60e51b815260206004820181905260248201527f4f776e61626c653a2063616c6c6572206973206e6f7420746865206f776e6572604482015260640161078c565b6001600160a01b0381166121cb5760405162461bcd60e51b815260206004820152602660248201527f4f776e61626c653a206e6577206f776e657220697320746865207a65726f206160448201526564647265737360d01b606482015260840161078c565b6121d4816126eb565b50565b600019820361225357606854604051631092ab9160e31b81523360048201526001600160a01b03909116906384955c8890602401602060405180830381865afa158015612228573d6000803e3d6000fd5b505050506040513d601f19601f8201168201806040525081019061224c91906134cc565b915061230e565b606854604051631092ab9160e31b81523360048201526001600160a01b03909116906384955c8890602401602060405180830381865afa15801561229b573d6000803e3d6000fd5b505050506040513d601f19601f820116820180604052508101906122bf91906134cc565b82111561230e5760405162461bcd60e51b815260206004820152601b60248201527f4e6f7420656e6f75676820756e6c6f636b65642062616c616e63650000000000604482015260640161078c565b600082116123495760405162461bcd60e51b81526020600482015260086024820152674e6f20766f74657360c01b604482015260640161078c565b6068546000848152606560205260409081902060060154905163e2ab691d60e01b81523360048201526024810185905260448101919091526001600160a01b039091169063e2ab691d90606401600060405180830381600087803b1580156123b057600080fd5b505af11580156123c4573d6000803e3d6000fd5b505050506123d38383836127ab565b505050565b60665460009081526065602052604081206006015443101561243c5760405162461bcd60e51b815260206004820152601b60248201527f416c726561647920686173206163746976652070726f706f73616c0000000000604482015260640161078c565b60666000815461244b906133de565b9190508190559050604051806101a00160405280888152602001878152602001868152602001858152602001848152602001438152602001894361248f91906134b4565b8152600060208083018290526040808401839052606084018390526080840183905260a0840183905260c09093018690528482526065815290829020835181558382015160018201559183015180516124ee92600285019201906129fe565b506060820151805161250a916003840191602090910190612a53565b5060808201518051612526916004840191602090910190612a8d565b5060a0820151600582015560c0820151600682015560e0820151600782015561010080830151600883015561012083015160098301805461014086015161ffff1990911692151561ff0019169290921791151590920217808255610160840151919062ff00001916620100008360018111156125a4576125a4612b6b565b021790555061018082015180516125c591600a8401916020909101906128fd565b509050506125d28161289c565b7fbd5cfa3a6d750f3995a6e4c6f70b1d01187c16a6fcfcd3bbe400ecf361b756ba81888787878760405161260b96959493929190613591565b60405180910390a1979650505050505050565b6060831561262d575081612657565b82511561263d5782518084602001fd5b8160405162461bcd60e51b815260040161078c9190612e06565b9392505050565b60008054610100900460ff16156126a5578160ff1660011480156126815750303b155b61269d5760405162461bcd60e51b815260040161078c906135f7565b506000919050565b60005460ff8084169116106126cc5760405162461bcd60e51b815260040161078c906135f7565b506000805460ff191660ff92909216919091179055600190565b919050565b603380546001600160a01b038381166001600160a01b0319831681179093556040519116919082907f8be0079c531659141344cd1fd0a4f28419497f9722a3daafe3b4186f6b6457e090600090a35050565b606854604080516318160ddd60e01b815290516000926001600160a01b0316916318160ddd9160048083019260209291908290030181865afa158015612787573d6000803e3d6000fd5b505050506040513d601f19601f820116820180604052508101906116c191906134cc565b60008381526065602052604090206006015443106127fd5760405162461bcd60e51b815260206004820152600f60248201526e159bdd1a5b99c8199a5b9a5cda1959608a1b604482015260640161078c565b801561282f57600083815260656020526040812060070180548492906128249084906134b4565b909155506128569050565b600083815260656020526040812060080180548492906128509084906134b4565b90915550505b604080513381526020810185905290810183905281151560608201527f2c48deccc79dbba942eeb2f991c4bfa0ac136723ddc0ea1b575dd85373408df89060800161109a565b606754604051630ffb246960e21b8152600481018390526001600160a01b0390911690633fec91a490602401600060405180830381600087803b1580156128e257600080fd5b505af11580156128f6573d6000803e3d6000fd5b5050505050565b828054612909906131d0565b90600052602060002090601f01602090048101928261292b5760008555612971565b82601f1061294457805160ff1916838001178555612971565b82800160010185558215612971579182015b82811115612971578251825591602001919060010190612956565b5061297d929150612ae6565b5090565b604051806101a00160405280600081526020016000815260200160608152602001606081526020016060815260200160008152602001600081526020016000815260200160008152602001600015158152602001600015158152602001600060018111156129f1576129f1612b6b565b8152602001606081525090565b828054828255906000526020600020908101928215612971579160200282015b8281111561297157825182546001600160a01b0319166001600160a01b03909116178255602090920191600190910190612a1e565b8280548282559060005260206000209081019282156129715791602002820182811115612971578251825591602001919060010190612956565b828054828255906000526020600020908101928215612ada579160200282015b82811115612ada5782518051612aca9184916020909101906128fd565b5091602001919060010190612aad565b5061297d929150612afb565b5b8082111561297d5760008155600101612ae7565b8082111561297d576000612b0f8282612b18565b50600101612afb565b508054612b24906131d0565b6000825580601f10612b34575050565b601f0160209004906000526020600020908101906121d49190612ae6565b600060208284031215612b6457600080fd5b5035919050565b634e487b7160e01b600052602160045260246000fd5b60028110612b9157612b91612b6b565b9052565b60005b83811015612bb0578181015183820152602001612b98565b83811115612bbf576000848401525b50505050565b60008151808452612bdd816020860160208601612b95565b601f01601f19169290920160200192915050565b60006101408c83528b60208401528a60408401528960608401528860808401528760a084015286151560c084015285151560e0840152612c35610100840186612b81565b80610120840152612c4881840185612bc5565b9d9c50505050505050505050505050565b6001600160a01b03811681146121d457600080fd5b80356126e681612c59565b634e487b7160e01b600052604160045260246000fd5b60405160e0810167ffffffffffffffff81118282101715612cb257612cb2612c79565b60405290565b604051601f8201601f1916810167ffffffffffffffff81118282101715612ce157612ce1612c79565b604052919050565b600067ffffffffffffffff821115612d0357612d03612c79565b50601f01601f191660200190565b6000612d24612d1f84612ce9565b612cb8565b9050828152838383011115612d3857600080fd5b828260208301376000602084830101529392505050565b600082601f830112612d6057600080fd5b61265783833560208501612d11565b60008060008060808587031215612d8557600080fd5b8435612d9081612c59565b935060208501359250604085013567ffffffffffffffff80821115612db457600080fd5b818701915087601f830112612dc857600080fd5b612dd788833560208501612d11565b93506060870135915080821115612ded57600080fd5b50612dfa87828801612d4f565b91505092959194509250565b6020815260006126576020830184612bc5565b600060208284031215612e2b57600080fd5b813561265781612c59565b600080600060608486031215612e4b57600080fd5b505081359360208301359350604090920135919050565b6000806000806000806000806000806101408b8d031215612e8257600080fd5b612e8b8b612c6e565b995060208b0135985060408b013567ffffffffffffffff80821115612eaf57600080fd5b612ebb8e838f01612d4f565b995060608d0135915080821115612ed157600080fd5b612edd8e838f01612d4f565b985060808d0135915080821115612ef357600080fd5b612eff8e838f01612d4f565b975060a08d0135915080821115612f1557600080fd5b612f218e838f01612d4f565b965060c08d0135955060e08d013594506101008d013593506101208d0135915080821115612f4e57600080fd5b50612f5b8d828e01612d4f565b9150509295989b9194979a5092959850565b600060208284031215612f7f57600080fd5b813567ffffffffffffffff811115612f9657600080fd5b612fa284828501612d4f565b949350505050565b600081518084526020808501945080840160005b83811015612fe35781516001600160a01b031687529582019590820190600101612fbe565b509495945050505050565b600081518084526020808501945080840160005b83811015612fe357815187529582019590820190600101613002565b600081518084526020808501808196508360051b8101915082860160005b85811015613066578284038952613054848351612bc5565b9885019893509084019060010161303c565b5091979650505050505050565b602081528151602082015260208201516040820152600060408301516101a08060608501526130a66101c0850183612faa565b91506060850151601f19808685030160808701526130c48483612fee565b935060808701519150808685030160a08701526130e1848361301e565b935060a087015160c087015260c087015160e087015260e0870151915061010082818801528088015192505061012082818801528088015192505061014061312c8188018415159052565b87015191506101606131418782018415159052565b870151915061018061315587820184612b81565b87015186850390910183870152905061316e8382612bc5565b9695505050505050565b602081016005831061318c5761318c612b6b565b91905290565b6000806000606084860312156131a757600080fd5b8335925060208401359150604084013580151581146131c557600080fd5b809150509250925092565b600181811c908216806131e457607f821691505b60208210810361320457634e487b7160e01b600052602260045260246000fd5b50919050565b80516126e681612c59565b60006020828403121561322757600080fd5b815161265781612c59565b634e487b7160e01b600052603260045260246000fd5b6000613256612d1f84612ce9565b905082815283838301111561326a57600080fd5b612657836020830184612b95565b600082601f83011261328957600080fd5b61265783835160208501613248565b8051600281106126e657600080fd5b6000602082840312156132b957600080fd5b815167ffffffffffffffff808211156132d157600080fd5b9083019060e082860312156132e557600080fd5b6132ed612c8f565b8251815260208301518281111561330357600080fd5b61330f87828601613278565b60208301525060408301518281111561332757600080fd5b61333387828601613278565b60408301525060608301518281111561334b57600080fd5b61335787828601613278565b60608301525060808301518281111561336f57600080fd5b61337b87828601613278565b60808301525061338d60a08401613298565b60a082015261339e60c0840161320a565b60c082015295945050505050565b600082516133be818460208701612b95565b9190910192915050565b634e487b7160e01b600052601160045260246000fd5b6000600182016133f0576133f06133c8565b5060010190565b600082821015613409576134096133c8565b500390565b6000602080838503121561342157600080fd5b825167ffffffffffffffff8082111561343957600080fd5b818501915085601f83011261344d57600080fd5b81518181111561345f5761345f612c79565b8060051b9150613470848301612cb8565b818152918301840191848101908884111561348a57600080fd5b938501935b8385101561088957845192506134a483612c59565b828252938501939085019061348f565b600082198211156134c7576134c76133c8565b500190565b6000602082840312156134de57600080fd5b5051919050565b6000602082840312156134f757600080fd5b815167ffffffffffffffff81111561350e57600080fd5b8201601f8101841361351f57600080fd5b612fa284825160208401613248565b6040815260006135416040830185612bc5565b90508260208301529392505050565b600081600019048311821515161561356a5761356a6133c8565b500290565b60008261358c57634e487b7160e01b600052601260045260246000fd5b500490565b86815285602082015260c0604082015260006135b060c0830187612faa565b82810360608401526135c28187612fee565b905082810360808401526135d6818661301e565b905082810360a08401526135ea8185612bc5565b9998505050505050505050565b6020808252602e908201527f496e697469616c697a61626c653a20636f6e747261637420697320616c72656160408201526d191e481a5b9a5d1a585b1a5e995960921b60608201526080019056fea26469706673582212208e74f6c2489a451f3f15ad1c854b7577efa832baa43eaf7d2530f6a28cb6c1f964736f6c634300080d0033",
  "devdoc": {
    "kind": "dev",
    "methods": {
      "renounceOwnership()": {
        "details": "Leaves the contract without owner. It will not be possible to call `onlyOwner` functions anymore. Can only be called by the current owner. NOTE: Renouncing ownership will leave the contract without an owner, thereby removing any functionality that is only available to the owner."
      },
      "transferOwnership(address)": {
        "details": "Transfers ownership of the contract to a new account (`newOwner`). Can only be called by the current owner."
      }
    },
    "version": 1
  },
  "userdoc": {
    "kind": "user",
    "methods": {},
    "version": 1
  },
  "storageLayout": {
    "storage": [
      {
        "astId": 208,
        "contract": "contracts/Pool.sol:Pool",
        "label": "_initialized",
        "offset": 0,
        "slot": "0",
        "type": "t_uint8"
      },
      {
        "astId": 211,
        "contract": "contracts/Pool.sol:Pool",
        "label": "_initializing",
        "offset": 1,
        "slot": "0",
        "type": "t_bool"
      },
      {
        "astId": 2536,
        "contract": "contracts/Pool.sol:Pool",
        "label": "__gap",
        "offset": 0,
        "slot": "1",
        "type": "t_array(t_uint256)50_storage"
      },
      {
        "astId": 10,
        "contract": "contracts/Pool.sol:Pool",
        "label": "_owner",
        "offset": 0,
        "slot": "51",
        "type": "t_address"
      },
      {
        "astId": 122,
        "contract": "contracts/Pool.sol:Pool",
        "label": "__gap",
        "offset": 0,
        "slot": "52",
        "type": "t_array(t_uint256)49_storage"
      },
      {
        "astId": 10233,
        "contract": "contracts/Pool.sol:Pool",
        "label": "proposals",
        "offset": 0,
        "slot": "101",
        "type": "t_mapping(t_uint256,t_struct(Proposal)10228_storage)"
      },
      {
        "astId": 10235,
        "contract": "contracts/Pool.sol:Pool",
        "label": "lastProposalId",
        "offset": 0,
        "slot": "102",
        "type": "t_uint256"
      },
      {
        "astId": 7567,
        "contract": "contracts/Pool.sol:Pool",
        "label": "service",
        "offset": 0,
        "slot": "103",
        "type": "t_contract(IService)10974"
      },
      {
        "astId": 7570,
        "contract": "contracts/Pool.sol:Pool",
        "label": "token",
        "offset": 0,
        "slot": "104",
        "type": "t_contract(IGovernanceToken)10746"
      },
      {
        "astId": 7573,
        "contract": "contracts/Pool.sol:Pool",
        "label": "tge",
        "offset": 0,
        "slot": "105",
        "type": "t_contract(ITGE)11033"
      },
      {
        "astId": 7575,
        "contract": "contracts/Pool.sol:Pool",
        "label": "_ballotQuorumThreshold",
        "offset": 0,
        "slot": "106",
        "type": "t_uint256"
      },
      {
        "astId": 7577,
        "contract": "contracts/Pool.sol:Pool",
        "label": "_ballotDecisionThreshold",
        "offset": 0,
        "slot": "107",
        "type": "t_uint256"
      },
      {
        "astId": 7579,
        "contract": "contracts/Pool.sol:Pool",
        "label": "_ballotLifespan",
        "offset": 0,
        "slot": "108",
        "type": "t_uint256"
      },
      {
        "astId": 7581,
        "contract": "contracts/Pool.sol:Pool",
        "label": "_poolRegisteredName",
        "offset": 0,
        "slot": "109",
        "type": "t_string_storage"
      },
      {
        "astId": 7583,
        "contract": "contracts/Pool.sol:Pool",
        "label": "_poolTrademark",
        "offset": 0,
        "slot": "110",
        "type": "t_string_storage"
      },
      {
        "astId": 7585,
        "contract": "contracts/Pool.sol:Pool",
        "label": "_poolJurisdiction",
        "offset": 0,
        "slot": "111",
        "type": "t_uint256"
      },
      {
        "astId": 7587,
        "contract": "contracts/Pool.sol:Pool",
        "label": "_poolEIN",
        "offset": 0,
        "slot": "112",
        "type": "t_string_storage"
      },
      {
        "astId": 7589,
        "contract": "contracts/Pool.sol:Pool",
        "label": "_poolMetadataIndex",
        "offset": 0,
        "slot": "113",
        "type": "t_uint256"
      },
      {
        "astId": 7591,
        "contract": "contracts/Pool.sol:Pool",
        "label": "_poolDateOfIncorporation",
        "offset": 0,
        "slot": "114",
        "type": "t_string_storage"
      },
      {
        "astId": 7593,
        "contract": "contracts/Pool.sol:Pool",
        "label": "_poolLegalAddress",
        "offset": 0,
        "slot": "115",
        "type": "t_string_storage"
      },
      {
        "astId": 7595,
        "contract": "contracts/Pool.sol:Pool",
        "label": "_poolTaxationStatus",
        "offset": 0,
        "slot": "116",
        "type": "t_string_storage"
      }
    ],
    "types": {
      "t_address": {
        "encoding": "inplace",
        "label": "address",
        "numberOfBytes": "20"
      },
      "t_array(t_address)dyn_storage": {
        "base": "t_address",
        "encoding": "dynamic_array",
        "label": "address[]",
        "numberOfBytes": "32"
      },
      "t_array(t_bytes_storage)dyn_storage": {
        "base": "t_bytes_storage",
        "encoding": "dynamic_array",
        "label": "bytes[]",
        "numberOfBytes": "32"
      },
      "t_array(t_uint256)49_storage": {
        "base": "t_uint256",
        "encoding": "inplace",
        "label": "uint256[49]",
        "numberOfBytes": "1568"
      },
      "t_array(t_uint256)50_storage": {
        "base": "t_uint256",
        "encoding": "inplace",
        "label": "uint256[50]",
        "numberOfBytes": "1600"
      },
      "t_array(t_uint256)dyn_storage": {
        "base": "t_uint256",
        "encoding": "dynamic_array",
        "label": "uint256[]",
        "numberOfBytes": "32"
      },
      "t_bool": {
        "encoding": "inplace",
        "label": "bool",
        "numberOfBytes": "1"
      },
      "t_bytes_storage": {
        "encoding": "bytes",
        "label": "bytes",
        "numberOfBytes": "32"
      },
      "t_contract(IGovernanceToken)10746": {
        "encoding": "inplace",
        "label": "contract IGovernanceToken",
        "numberOfBytes": "20"
      },
      "t_contract(IService)10974": {
        "encoding": "inplace",
        "label": "contract IService",
        "numberOfBytes": "20"
      },
      "t_contract(ITGE)11033": {
        "encoding": "inplace",
        "label": "contract ITGE",
        "numberOfBytes": "20"
      },
      "t_enum(ProposalExecutionState)10244": {
        "encoding": "inplace",
        "label": "enum Governor.ProposalExecutionState",
        "numberOfBytes": "1"
      },
      "t_mapping(t_uint256,t_struct(Proposal)10228_storage)": {
        "encoding": "mapping",
        "key": "t_uint256",
        "label": "mapping(uint256 => struct Governor.Proposal)",
        "numberOfBytes": "32",
        "value": "t_struct(Proposal)10228_storage"
      },
      "t_string_storage": {
        "encoding": "bytes",
        "label": "string",
        "numberOfBytes": "32"
      },
      "t_struct(Proposal)10228_storage": {
        "encoding": "inplace",
        "label": "struct Governor.Proposal",
        "members": [
          {
            "astId": 10199,
            "contract": "contracts/Pool.sol:Pool",
            "label": "ballotQuorumThreshold",
            "offset": 0,
            "slot": "0",
            "type": "t_uint256"
          },
          {
            "astId": 10201,
            "contract": "contracts/Pool.sol:Pool",
            "label": "ballotDecisionThreshold",
            "offset": 0,
            "slot": "1",
            "type": "t_uint256"
          },
          {
            "astId": 10204,
            "contract": "contracts/Pool.sol:Pool",
            "label": "targets",
            "offset": 0,
            "slot": "2",
            "type": "t_array(t_address)dyn_storage"
          },
          {
            "astId": 10207,
            "contract": "contracts/Pool.sol:Pool",
            "label": "values",
            "offset": 0,
            "slot": "3",
            "type": "t_array(t_uint256)dyn_storage"
          },
          {
            "astId": 10210,
            "contract": "contracts/Pool.sol:Pool",
            "label": "calldatas",
            "offset": 0,
            "slot": "4",
            "type": "t_array(t_bytes_storage)dyn_storage"
          },
          {
            "astId": 10212,
            "contract": "contracts/Pool.sol:Pool",
            "label": "startBlock",
            "offset": 0,
            "slot": "5",
            "type": "t_uint256"
          },
          {
            "astId": 10214,
            "contract": "contracts/Pool.sol:Pool",
            "label": "endBlock",
            "offset": 0,
            "slot": "6",
            "type": "t_uint256"
          },
          {
            "astId": 10216,
            "contract": "contracts/Pool.sol:Pool",
            "label": "forVotes",
            "offset": 0,
            "slot": "7",
            "type": "t_uint256"
          },
          {
            "astId": 10218,
            "contract": "contracts/Pool.sol:Pool",
            "label": "againstVotes",
            "offset": 0,
            "slot": "8",
            "type": "t_uint256"
          },
          {
            "astId": 10220,
            "contract": "contracts/Pool.sol:Pool",
            "label": "executed",
            "offset": 0,
            "slot": "9",
            "type": "t_bool"
          },
          {
            "astId": 10222,
            "contract": "contracts/Pool.sol:Pool",
            "label": "accepted",
            "offset": 1,
            "slot": "9",
            "type": "t_bool"
          },
          {
            "astId": 10225,
            "contract": "contracts/Pool.sol:Pool",
            "label": "state",
            "offset": 2,
            "slot": "9",
            "type": "t_enum(ProposalExecutionState)10244"
          },
          {
            "astId": 10227,
            "contract": "contracts/Pool.sol:Pool",
            "label": "description",
            "offset": 0,
            "slot": "10",
            "type": "t_string_storage"
          }
        ],
        "numberOfBytes": "352"
      },
      "t_uint256": {
        "encoding": "inplace",
        "label": "uint256",
        "numberOfBytes": "32"
      },
      "t_uint8": {
        "encoding": "inplace",
        "label": "uint8",
        "numberOfBytes": "1"
      }
    }
  }
}