{
  "address": "0x76ea9429f4DD5A5F2c9A502654c27A5D57EBeE83",
  "abi": [
    {
      "anonymous": false,
      "inputs": [
        {
          "indexed": false,
          "internalType": "uint8",
          "name": "version",
          "type": "uint8"
        }
      ],
      "name": "Initialized",
      "type": "event"
    },
    {
      "anonymous": false,
      "inputs": [
        {
          "indexed": true,
          "internalType": "address",
          "name": "previousOwner",
          "type": "address"
        },
        {
          "indexed": true,
          "internalType": "address",
          "name": "newOwner",
          "type": "address"
        }
      ],
      "name": "OwnershipTransferred",
      "type": "event"
    },
    {
      "anonymous": false,
      "inputs": [
        {
          "indexed": false,
          "internalType": "uint256",
          "name": "proposalId",
          "type": "uint256"
        },
        {
          "indexed": false,
          "internalType": "uint256",
          "name": "quorum",
          "type": "uint256"
        },
        {
          "indexed": false,
          "internalType": "address[]",
          "name": "targets",
          "type": "address[]"
        },
        {
          "indexed": false,
          "internalType": "uint256[]",
          "name": "values",
          "type": "uint256[]"
        },
        {
          "indexed": false,
          "internalType": "bytes[]",
          "name": "calldatas",
          "type": "bytes[]"
        },
        {
          "indexed": false,
          "internalType": "string",
          "name": "description",
          "type": "string"
        }
      ],
      "name": "ProposalCreated",
      "type": "event"
    },
    {
      "anonymous": false,
      "inputs": [
        {
          "indexed": false,
          "internalType": "uint256",
          "name": "proposalId",
          "type": "uint256"
        }
      ],
      "name": "ProposalExecuted",
      "type": "event"
    },
    {
      "anonymous": false,
      "inputs": [
        {
          "indexed": false,
          "internalType": "address",
          "name": "voter",
          "type": "address"
        },
        {
          "indexed": false,
          "internalType": "uint256",
          "name": "proposalId",
          "type": "uint256"
        },
        {
          "indexed": false,
          "internalType": "uint256",
          "name": "votes",
          "type": "uint256"
        },
        {
          "indexed": false,
          "internalType": "bool",
          "name": "support",
          "type": "bool"
        }
      ],
      "name": "VoteCast",
      "type": "event"
    },
    {
      "inputs": [
        {
          "internalType": "uint256",
          "name": "proposalId",
          "type": "uint256"
        },
        {
          "internalType": "uint256",
          "name": "votes",
          "type": "uint256"
        },
        {
          "internalType": "bool",
          "name": "support",
          "type": "bool"
        }
      ],
      "name": "castVote",
      "outputs": [],
      "stateMutability": "nonpayable",
      "type": "function"
    },
    {
      "inputs": [],
      "name": "companyDomain",
      "outputs": [
        {
          "internalType": "string",
          "name": "",
          "type": "string"
        }
      ],
      "stateMutability": "view",
      "type": "function"
    },
    {
      "inputs": [],
      "name": "companyId",
      "outputs": [
        {
          "internalType": "string",
          "name": "",
          "type": "string"
        }
      ],
      "stateMutability": "view",
      "type": "function"
    },
    {
      "inputs": [
        {
          "internalType": "uint256",
          "name": "proposalId",
          "type": "uint256"
        }
      ],
      "name": "execute",
      "outputs": [],
      "stateMutability": "nonpayable",
      "type": "function"
    },
    {
      "inputs": [
        {
          "internalType": "address",
          "name": "owner_",
          "type": "address"
        }
      ],
      "name": "initialize",
      "outputs": [],
      "stateMutability": "nonpayable",
      "type": "function"
    },
    {
      "inputs": [],
      "name": "lastProposalId",
      "outputs": [
        {
          "internalType": "uint256",
          "name": "",
          "type": "uint256"
        }
      ],
      "stateMutability": "view",
      "type": "function"
    },
    {
      "inputs": [],
      "name": "owner",
      "outputs": [
        {
          "internalType": "address",
          "name": "",
          "type": "address"
        }
      ],
      "stateMutability": "view",
      "type": "function"
    },
    {
      "inputs": [
        {
          "internalType": "uint256",
          "name": "proposalId",
          "type": "uint256"
        }
      ],
      "name": "proposalState",
      "outputs": [
        {
          "internalType": "enum Governor.ProposalState",
          "name": "",
          "type": "uint8"
        }
      ],
      "stateMutability": "view",
      "type": "function"
    },
    {
      "inputs": [
        {
          "internalType": "uint256",
          "name": "",
          "type": "uint256"
        }
      ],
      "name": "proposals",
      "outputs": [
        {
          "internalType": "uint256",
          "name": "quorum",
          "type": "uint256"
        },
        {
          "internalType": "uint256",
          "name": "threshold",
          "type": "uint256"
        },
        {
          "internalType": "uint256",
          "name": "startBlock",
          "type": "uint256"
        },
        {
          "internalType": "uint256",
          "name": "endBlock",
          "type": "uint256"
        },
        {
          "internalType": "uint256",
          "name": "forVotes",
          "type": "uint256"
        },
        {
          "internalType": "uint256",
          "name": "againstVotes",
          "type": "uint256"
        },
        {
          "internalType": "bool",
          "name": "executed",
          "type": "bool"
        }
      ],
      "stateMutability": "view",
      "type": "function"
    },
    {
      "inputs": [
        {
          "internalType": "uint256",
          "name": "duration",
          "type": "uint256"
        },
        {
          "internalType": "address",
          "name": "target",
          "type": "address"
        },
        {
          "internalType": "uint256",
          "name": "value",
          "type": "uint256"
        },
        {
          "internalType": "bytes",
          "name": "cd",
          "type": "bytes"
        },
        {
          "internalType": "string",
          "name": "description",
          "type": "string"
        }
      ],
      "name": "proposeSingleAction",
      "outputs": [
        {
          "internalType": "uint256",
          "name": "proposalId",
          "type": "uint256"
        }
      ],
      "stateMutability": "nonpayable",
      "type": "function"
    },
    {
      "inputs": [],
      "name": "renounceOwnership",
      "outputs": [],
      "stateMutability": "nonpayable",
      "type": "function"
    },
    {
      "inputs": [],
      "name": "service",
      "outputs": [
        {
          "internalType": "contract IService",
          "name": "",
          "type": "address"
        }
      ],
      "stateMutability": "view",
      "type": "function"
    },
    {
      "inputs": [
        {
          "internalType": "string",
          "name": "companyDomain_",
          "type": "string"
        }
      ],
      "name": "setCompanyDomain",
      "outputs": [],
      "stateMutability": "nonpayable",
      "type": "function"
    },
    {
      "inputs": [
        {
          "internalType": "string",
          "name": "companyId_",
          "type": "string"
        }
      ],
      "name": "setCompanyId",
      "outputs": [],
      "stateMutability": "nonpayable",
      "type": "function"
    },
    {
      "inputs": [
        {
          "internalType": "address",
          "name": "tge_",
          "type": "address"
        }
      ],
      "name": "setTGE",
      "outputs": [],
      "stateMutability": "nonpayable",
      "type": "function"
    },
    {
      "inputs": [
        {
          "internalType": "address",
          "name": "token_",
          "type": "address"
        }
      ],
      "name": "setToken",
      "outputs": [],
      "stateMutability": "nonpayable",
      "type": "function"
    },
    {
      "inputs": [],
      "name": "tge",
      "outputs": [
        {
          "internalType": "contract ITGE",
          "name": "",
          "type": "address"
        }
      ],
      "stateMutability": "view",
      "type": "function"
    },
    {
      "inputs": [],
      "name": "token",
      "outputs": [
        {
          "internalType": "contract IGovernanceToken",
          "name": "",
          "type": "address"
        }
      ],
      "stateMutability": "view",
      "type": "function"
    },
    {
      "inputs": [
        {
          "internalType": "address",
          "name": "newOwner",
          "type": "address"
        }
      ],
      "name": "transferOwnership",
      "outputs": [],
      "stateMutability": "nonpayable",
      "type": "function"
    },
    {
      "stateMutability": "payable",
      "type": "receive"
    }
  ],
  "transactionHash": "0x540cf6f66d8727ae3fae8bc50daf913e4a2e890588d873913d4063d59027bad5",
  "args": [],
  "numDeployments": 2,
  "solcInputHash": "a92f2d21a2e6b235a63ce6ec5f8104c5",
  "bytecode": "0x608060405234801561001057600080fd5b506121ad806100206000396000f3fe6080604052600436106101185760003560e01c80638da5cb5b116100a0578063d598d4c911610064578063d598d4c914610367578063f2fde38b14610387578063f9000ba8146103a7578063fc0c546a146103c7578063fe0d94c1146103e757600080fd5b80638da5cb5b146102ad57806392aa43c0146102da578063a7497fa5146102fa578063c4d66de81461031a578063d26331d41461033a57600080fd5b80633765edcf116100e75780633765edcf1461021f578063715018a61461024d57806374cb3041146102625780637bc3a733146102785780638c439f6a1461028d57600080fd5b8063013cf08b14610124578063144fa6d7146101bb5780632ab1a726146101dd5780632caffd60146101fd57600080fd5b3661011f57005b600080fd5b34801561013057600080fd5b5061017f61013f366004611c21565b6065602052600090815260409020805460018201546005830154600684015460078501546008860154600990960154949593949293919290919060ff1687565b604080519788526020880196909652948601939093526060850191909152608084015260a0830152151560c082015260e0015b60405180910390f35b3480156101c757600080fd5b506101db6101d6366004611c4f565b610407565b005b3480156101e957600080fd5b506101db6101f8366004611d18565b610476565b34801561020957600080fd5b5061021261061c565b6040516101b29190611db1565b34801561022b57600080fd5b5061023f61023a366004611dc4565b6106aa565b6040519081526020016101b2565b34801561025957600080fd5b506101db610956565b34801561026e57600080fd5b5061023f60665481565b34801561028457600080fd5b506102126109c1565b34801561029957600080fd5b506101db6102a8366004611d18565b6109ce565b3480156102b957600080fd5b506102c2610b3a565b6040516001600160a01b0390911681526020016101b2565b3480156102e657600080fd5b506101db6102f5366004611c4f565b610b53565b34801561030657600080fd5b506069546102c2906001600160a01b031681565b34801561032657600080fd5b506101db610335366004611c4f565b610bbd565b34801561034657600080fd5b5061035a610355366004611c21565b610c45565b6040516101b29190611e7b565b34801561037357600080fd5b506067546102c2906001600160a01b031681565b34801561039357600080fd5b506101db6103a2366004611c4f565b610efe565b3480156103b357600080fd5b506101db6103c2366004611ea3565b610fce565b3480156103d357600080fd5b506068546102c2906001600160a01b031681565b3480156103f357600080fd5b506101db610402366004611c21565b6111cf565b6067546001600160a01b031633146104545760405162461bcd60e51b815260206004820152600b60248201526a4e6f74207365727669636560a81b60448201526064015b60405180910390fd5b606880546001600160a01b0319166001600160a01b0392909216919091179055565b606b805461048390611ee1565b905060000361056857606760009054906101000a90046001600160a01b03166001600160a01b0316638da5cb5b6040518163ffffffff1660e01b8152600401602060405180830381865afa1580156104df573d6000803e3d6000fd5b505050506040513d601f19601f820116820180604052508101906105039190611f1b565b6001600160a01b0316336001600160a01b0316146105635760405162461bcd60e51b815260206004820152601e60248201527f496e697469616c207365747465722073686f756c642062652061646d696e0000604482015260640161044b565b6105c1565b3330146105c15760405162461bcd60e51b815260206004820152602160248201527f4368616e6765722073686f756c6420626520706f6f6c20676f7665726e616e636044820152606560f81b606482015260840161044b565b80516000036106055760405162461bcd60e51b815260206004820152601060248201526f43616e206e6f7420626520656d70747960801b604482015260640161044b565b805161061890606b906020840190611a49565b5050565b606b805461062990611ee1565b80601f016020809104026020016040519081016040528092919081815260200182805461065590611ee1565b80156106a25780601f10610677576101008083540402835291602001916106a2565b820191906000526020600020905b81548152906001019060200180831161068557829003601f168201915b505050505081565b606754604080516304e31dfb60e01b815290516000926001600160a01b0316916304e31dfb9160048083019260209291908290030181865afa1580156106f4573d6000803e3d6000fd5b505050506040513d601f19601f820116820180604052508101906107189190611f1b565b6001600160a01b0316336001600160a01b03161461076f5760405162461bcd60e51b81526020600482015260146024820152734e6f742070726f706f73616c206761746577617960601b604482015260640161044b565b6040805160018082528183019092526000916020808301908036833701905050905085816000815181106107a5576107a5611f38565b6001600160a01b03929092166020928302919091019091015260408051600180825281830190925260009181602001602082028036833701905050905085816000815181106107f6576107f6611f38565b6020908102919091010152604080516001808252818301909252600091816020015b6060815260200190600190039081610818579050509050858160008151811061084357610843611f38565b602002602001018190525061094989606760009054906101000a90046001600160a01b03166001600160a01b0316639a0b6f9b6040518163ffffffff1660e01b8152600401602060405180830381865afa1580156108a5573d6000803e3d6000fd5b505050506040513d601f19601f820116820180604052508101906108c99190611f4e565b606760009054906101000a90046001600160a01b03166001600160a01b031663b58131b06040518163ffffffff1660e01b8152600401602060405180830381865afa15801561091c573d6000803e3d6000fd5b505050506040513d601f19601f820116820180604052508101906109409190611f4e565b8686868b61159c565b9998505050505050505050565b3361095f610b3a565b6001600160a01b0316146109b55760405162461bcd60e51b815260206004820181905260248201527f4f776e61626c653a2063616c6c6572206973206e6f7420746865206f776e6572604482015260640161044b565b6109bf600061176f565b565b606a805461062990611ee1565b606760009054906101000a90046001600160a01b03166001600160a01b0316638da5cb5b6040518163ffffffff1660e01b8152600401602060405180830381865afa158015610a21573d6000803e3d6000fd5b505050506040513d601f19601f82011682018060405250810190610a459190611f1b565b6001600160a01b0316336001600160a01b031614610a995760405162461bcd60e51b81526020600482015260116024820152702737ba1039b2b93b34b1b29037bbb732b960791b604482015260640161044b565b606a8054610aa690611ee1565b159050610ae35760405162461bcd60e51b815260206004820152600b60248201526a105b1c9958591e481cd95d60aa1b604482015260640161044b565b8051600003610b275760405162461bcd60e51b815260206004820152601060248201526f43616e206e6f7420626520656d70747960801b604482015260640161044b565b805161061890606a906020840190611a49565b6000610b4e6033546001600160a01b031690565b905090565b6067546001600160a01b03163314610b9b5760405162461bcd60e51b815260206004820152600b60248201526a4e6f74207365727669636560a81b604482015260640161044b565b606980546001600160a01b0319166001600160a01b0392909216919091179055565b6000610bc960016117c1565b90508015610be1576000805461ff0019166101001790555b606780546001600160a01b03191633179055610bfc8261176f565b8015610618576000805461ff0019169055604051600181527f7f26b83ff96e1f2b6a682f133852f6798a09c465da95921460cefb38474024989060200160405180910390a15050565b60008181526065602090815260408083208151610140810183528154815260018201548185015260028201805484518187028101870186528181528796939586019390929190830182828015610cc457602002820191906000526020600020905b81546001600160a01b03168152600190910190602001808311610ca6575b5050505050815260200160038201805480602002602001604051908101604052809291908181526020018280548015610d1c57602002820191906000526020600020905b815481526020019060010190808311610d08575b5050505050815260200160048201805480602002602001604051908101604052809291908181526020016000905b82821015610df6578382906000526020600020018054610d6990611ee1565b80601f0160208091040260200160405190810160405280929190818152602001828054610d9590611ee1565b8015610de25780601f10610db757610100808354040283529160200191610de2565b820191906000526020600020905b815481529060010190602001808311610dc557829003601f168201915b505050505081526020019060010190610d4a565b505050908252506005820154602082015260068201546040820152600782015460608201526008820154608082015260099091015460ff16151560a09091015261012081015190915015610e4d5750600492915050565b8060a00151600003610e625750600092915050565b438160c001511115610e775750600192915050565b600060648260000151610e88611849565b610e929190611f7d565b610e9c9190611f9c565b905060008261010001518360e00151610eb59190611fbe565b9050818110158015610ee357506020830151610ed19082611f7d565b60e0840151610ee1906064611f7d565b115b15610ef357506003949350505050565b506002949350505050565b33610f07610b3a565b6001600160a01b031614610f5d5760405162461bcd60e51b815260206004820181905260248201527f4f776e61626c653a2063616c6c6572206973206e6f7420746865206f776e6572604482015260640161044b565b6001600160a01b038116610fc25760405162461bcd60e51b815260206004820152602660248201527f4f776e61626c653a206e6577206f776e657220697320746865207a65726f206160448201526564647265737360d01b606482015260840161044b565b610fcb8161176f565b50565b600019820361104a57606854604051631092ab9160e31b81523360048201526001600160a01b03909116906384955c8890602401602060405180830381865afa15801561101f573d6000803e3d6000fd5b505050506040513d601f19601f820116820180604052508101906110439190611f4e565b9150611105565b606854604051631092ab9160e31b81523360048201526001600160a01b03909116906384955c8890602401602060405180830381865afa158015611092573d6000803e3d6000fd5b505050506040513d601f19601f820116820180604052508101906110b69190611f4e565b8211156111055760405162461bcd60e51b815260206004820152601b60248201527f4e6f7420656e6f75676820756e6c6f636b65642062616c616e63650000000000604482015260640161044b565b600082116111405760405162461bcd60e51b81526020600482015260086024820152674e6f20766f74657360c01b604482015260640161044b565b6068546000848152606560205260409081902060060154905163e2ab691d60e01b81523360048201526024810185905260448101919091526001600160a01b039091169063e2ab691d90606401600060405180830381600087803b1580156111a757600080fd5b505af11580156111bb573d6000803e3d6000fd5b505050506111ca8383836118b7565b505050565b60008181526065602090815260408083208151610140810183528154815260018201548185015260028201805484518187028101870186528181529295939486019383018282801561124a57602002820191906000526020600020905b81546001600160a01b0316815260019091019060200180831161122c575b50505050508152602001600382018054806020026020016040519081016040528092919081815260200182805480156112a257602002820191906000526020600020905b81548152602001906001019080831161128e575b5050505050815260200160048201805480602002602001604051908101604052809291908181526020016000905b8282101561137c5783829060005260206000200180546112ef90611ee1565b80601f016020809104026020016040519081016040528092919081815260200182805461131b90611ee1565b80156113685780601f1061133d57610100808354040283529160200191611368565b820191906000526020600020905b81548152906001019060200180831161134b57829003601f168201915b5050505050815260200190600101906112d0565b505050908252506005820154602082015260068201546040820152600782015460608201526008820154608082015260099091015460ff16151560a090910152905060036113c983610c45565b60048111156113da576113da611e65565b146114275760405162461bcd60e51b815260206004820152601a60248201527f50726f706f73616c20697320696e2077726f6e67207374617465000000000000604482015260640161044b565b6000828152606560209081526040808320600901805460ff191660011790558051808201909152601d81527f43616c6c20726576657274656420776974686f7574206d65737361676500000091810191909152905b82604001515181101561156257600080846040015183815181106114a2576114a2611f38565b60200260200101516001600160a01b0316856060015184815181106114c9576114c9611f38565b6020026020010151866080015185815181106114e7576114e7611f38565b60200260200101516040516114fc9190611fd6565b60006040518083038185875af1925050503d8060008114611539576040519150601f19603f3d011682016040523d82523d6000602084013e61153e565b606091505b509150915061154e8282866119a8565b5050508061155b90611ff2565b905061147c565b506040518381527f712ae1383f79ac853f8d882153778e0260ef8f03b504e2866e0593e04d2b291f906020015b60405180910390a1505050565b6066546000908152606560205260408120600601544310156116005760405162461bcd60e51b815260206004820152601b60248201527f416c726561647920686173206163746976652070726f706f73616c0000000000604482015260640161044b565b60666000815461160f90611ff2565b919050819055905060405180610140016040528088815260200187815260200186815260200185815260200184815260200143815260200189436116539190611fbe565b8152600060208083018290526040808401839052606090930182905284825260658152908290208351815583820151600182015591830151805161169d9260028501920190611acd565b50606082015180516116b9916003840191602090910190611b22565b50608082015180516116d5916004840191602090910190611b5c565b5060a0820151600582015560c0820151600682015560e082015160078201556101008201516008820155610120909101516009909101805460ff1916911515919091179055611723816119e8565b7fbd5cfa3a6d750f3995a6e4c6f70b1d01187c16a6fcfcd3bbe400ecf361b756ba81888787878760405161175c9695949392919061209b565b60405180910390a1979650505050505050565b603380546001600160a01b038381166001600160a01b0319831681179093556040519116919082907f8be0079c531659141344cd1fd0a4f28419497f9722a3daafe3b4186f6b6457e090600090a35050565b60008054610100900460ff1615611808578160ff1660011480156117e45750303b155b6118005760405162461bcd60e51b815260040161044b90612129565b506000919050565b60005460ff80841691161061182f5760405162461bcd60e51b815260040161044b90612129565b506000805460ff191660ff92909216919091179055600190565b606854604080516318160ddd60e01b815290516000926001600160a01b0316916318160ddd9160048083019260209291908290030181865afa158015611893573d6000803e3d6000fd5b505050506040513d601f19601f82011682018060405250810190610b4e9190611f4e565b60008381526065602052604090206006015443106119095760405162461bcd60e51b815260206004820152600f60248201526e159bdd1a5b99c8199a5b9a5cda1959608a1b604482015260640161044b565b801561193b5760008381526065602052604081206007018054849290611930908490611fbe565b909155506119629050565b6000838152606560205260408120600801805484929061195c908490611fbe565b90915550505b604080513381526020810185905290810183905281151560608201527f2c48deccc79dbba942eeb2f991c4bfa0ac136723ddc0ea1b575dd85373408df89060800161158f565b606083156119b75750816119e1565b8251156119c75782518084602001fd5b8160405162461bcd60e51b815260040161044b9190611db1565b9392505050565b606754604051630ffb246960e21b8152600481018390526001600160a01b0390911690633fec91a490602401600060405180830381600087803b158015611a2e57600080fd5b505af1158015611a42573d6000803e3d6000fd5b5050505050565b828054611a5590611ee1565b90600052602060002090601f016020900481019282611a775760008555611abd565b82601f10611a9057805160ff1916838001178555611abd565b82800160010185558215611abd579182015b82811115611abd578251825591602001919060010190611aa2565b50611ac9929150611bb5565b5090565b828054828255906000526020600020908101928215611abd579160200282015b82811115611abd57825182546001600160a01b0319166001600160a01b03909116178255602090920191600190910190611aed565b828054828255906000526020600020908101928215611abd5791602002820182811115611abd578251825591602001919060010190611aa2565b828054828255906000526020600020908101928215611ba9579160200282015b82811115611ba95782518051611b99918491602090910190611a49565b5091602001919060010190611b7c565b50611ac9929150611bca565b5b80821115611ac95760008155600101611bb6565b80821115611ac9576000611bde8282611be7565b50600101611bca565b508054611bf390611ee1565b6000825580601f10611c03575050565b601f016020900490600052602060002090810190610fcb9190611bb5565b600060208284031215611c3357600080fd5b5035919050565b6001600160a01b0381168114610fcb57600080fd5b600060208284031215611c6157600080fd5b81356119e181611c3a565b634e487b7160e01b600052604160045260246000fd5b600067ffffffffffffffff80841115611c9d57611c9d611c6c565b604051601f8501601f19908116603f01168101908282118183101715611cc557611cc5611c6c565b81604052809350858152868686011115611cde57600080fd5b858560208301376000602087830101525050509392505050565b600082601f830112611d0957600080fd5b6119e183833560208501611c82565b600060208284031215611d2a57600080fd5b813567ffffffffffffffff811115611d4157600080fd5b611d4d84828501611cf8565b949350505050565b60005b83811015611d70578181015183820152602001611d58565b83811115611d7f576000848401525b50505050565b60008151808452611d9d816020860160208601611d55565b601f01601f19169290920160200192915050565b6020815260006119e16020830184611d85565b600080600080600060a08688031215611ddc57600080fd5b853594506020860135611dee81611c3a565b935060408601359250606086013567ffffffffffffffff80821115611e1257600080fd5b818801915088601f830112611e2657600080fd5b611e3589833560208501611c82565b93506080880135915080821115611e4b57600080fd5b50611e5888828901611cf8565b9150509295509295909350565b634e487b7160e01b600052602160045260246000fd5b6020810160058310611e9d57634e487b7160e01b600052602160045260246000fd5b91905290565b600080600060608486031215611eb857600080fd5b833592506020840135915060408401358015158114611ed657600080fd5b809150509250925092565b600181811c90821680611ef557607f821691505b602082108103611f1557634e487b7160e01b600052602260045260246000fd5b50919050565b600060208284031215611f2d57600080fd5b81516119e181611c3a565b634e487b7160e01b600052603260045260246000fd5b600060208284031215611f6057600080fd5b5051919050565b634e487b7160e01b600052601160045260246000fd5b6000816000190483118215151615611f9757611f97611f67565b500290565b600082611fb957634e487b7160e01b600052601260045260246000fd5b500490565b60008219821115611fd157611fd1611f67565b500190565b60008251611fe8818460208701611d55565b9190910192915050565b60006001820161200457612004611f67565b5060010190565b600081518084526020808501945080840160005b8381101561203b5781518752958201959082019060010161201f565b509495945050505050565b600081518084526020808501808196508360051b8101915082860160005b8581101561208e57828403895261207c848351611d85565b98850198935090840190600101612064565b5091979650505050505050565b600060c082018883526020888185015260c0604085015281885180845260e086019150828a01935060005b818110156120eb5784516001600160a01b0316835293830193918301916001016120c6565b505084810360608601526120ff818961200b565b9250505082810360808401526121158186612046565b905082810360a08401526109498185611d85565b6020808252602e908201527f496e697469616c697a61626c653a20636f6e747261637420697320616c72656160408201526d191e481a5b9a5d1a585b1a5e995960921b60608201526080019056fea2646970667358221220b34578b813886ecda774f34b18c6343595f9909723c308a9a27da5ecdd874c1864736f6c634300080d0033",
  "devdoc": {
    "kind": "dev",
    "methods": {
      "renounceOwnership()": {
        "details": "Leaves the contract without owner. It will not be possible to call `onlyOwner` functions anymore. Can only be called by the current owner. NOTE: Renouncing ownership will leave the contract without an owner, thereby removing any functionality that is only available to the owner."
      },
      "transferOwnership(address)": {
        "details": "Transfers ownership of the contract to a new account (`newOwner`). Can only be called by the current owner."
      }
    },
    "version": 1
  },
  "userdoc": {
    "kind": "user",
    "methods": {},
    "version": 1
  },
  "storageLayout": {
    "storage": [
      {
        "astId": 208,
        "contract": "contracts/Pool.sol:Pool",
        "label": "_initialized",
        "offset": 0,
        "slot": "0",
        "type": "t_uint8"
      },
      {
        "astId": 211,
        "contract": "contracts/Pool.sol:Pool",
        "label": "_initializing",
        "offset": 1,
        "slot": "0",
        "type": "t_bool"
      },
      {
        "astId": 2536,
        "contract": "contracts/Pool.sol:Pool",
        "label": "__gap",
        "offset": 0,
        "slot": "1",
        "type": "t_array(t_uint256)50_storage"
      },
      {
        "astId": 10,
        "contract": "contracts/Pool.sol:Pool",
        "label": "_owner",
        "offset": 0,
        "slot": "51",
        "type": "t_address"
      },
      {
        "astId": 122,
        "contract": "contracts/Pool.sol:Pool",
        "label": "__gap",
        "offset": 0,
        "slot": "52",
        "type": "t_array(t_uint256)49_storage"
      },
      {
        "astId": 9394,
        "contract": "contracts/Pool.sol:Pool",
        "label": "proposals",
        "offset": 0,
        "slot": "101",
        "type": "t_mapping(t_uint256,t_struct(Proposal)9389_storage)"
      },
      {
        "astId": 9396,
        "contract": "contracts/Pool.sol:Pool",
        "label": "lastProposalId",
        "offset": 0,
        "slot": "102",
        "type": "t_uint256"
      },
      {
        "astId": 7174,
        "contract": "contracts/Pool.sol:Pool",
        "label": "service",
        "offset": 0,
        "slot": "103",
        "type": "t_contract(IService)9977"
      },
      {
        "astId": 7177,
        "contract": "contracts/Pool.sol:Pool",
        "label": "token",
        "offset": 0,
        "slot": "104",
        "type": "t_contract(IGovernanceToken)9830"
      },
      {
        "astId": 7180,
        "contract": "contracts/Pool.sol:Pool",
        "label": "tge",
        "offset": 0,
        "slot": "105",
        "type": "t_contract(ITGE)10037"
      },
      {
        "astId": 7182,
        "contract": "contracts/Pool.sol:Pool",
        "label": "companyId",
        "offset": 0,
        "slot": "106",
        "type": "t_string_storage"
      },
      {
        "astId": 7184,
        "contract": "contracts/Pool.sol:Pool",
        "label": "companyDomain",
        "offset": 0,
        "slot": "107",
        "type": "t_string_storage"
      }
    ],
    "types": {
      "t_address": {
        "encoding": "inplace",
        "label": "address",
        "numberOfBytes": "20"
      },
      "t_array(t_address)dyn_storage": {
        "base": "t_address",
        "encoding": "dynamic_array",
        "label": "address[]",
        "numberOfBytes": "32"
      },
      "t_array(t_bytes_storage)dyn_storage": {
        "base": "t_bytes_storage",
        "encoding": "dynamic_array",
        "label": "bytes[]",
        "numberOfBytes": "32"
      },
      "t_array(t_uint256)49_storage": {
        "base": "t_uint256",
        "encoding": "inplace",
        "label": "uint256[49]",
        "numberOfBytes": "1568"
      },
      "t_array(t_uint256)50_storage": {
        "base": "t_uint256",
        "encoding": "inplace",
        "label": "uint256[50]",
        "numberOfBytes": "1600"
      },
      "t_array(t_uint256)dyn_storage": {
        "base": "t_uint256",
        "encoding": "dynamic_array",
        "label": "uint256[]",
        "numberOfBytes": "32"
      },
      "t_bool": {
        "encoding": "inplace",
        "label": "bool",
        "numberOfBytes": "1"
      },
      "t_bytes_storage": {
        "encoding": "bytes",
        "label": "bytes",
        "numberOfBytes": "32"
      },
      "t_contract(IGovernanceToken)9830": {
        "encoding": "inplace",
        "label": "contract IGovernanceToken",
        "numberOfBytes": "20"
      },
      "t_contract(IService)9977": {
        "encoding": "inplace",
        "label": "contract IService",
        "numberOfBytes": "20"
      },
      "t_contract(ITGE)10037": {
        "encoding": "inplace",
        "label": "contract ITGE",
        "numberOfBytes": "20"
      },
      "t_mapping(t_uint256,t_struct(Proposal)9389_storage)": {
        "encoding": "mapping",
        "key": "t_uint256",
        "label": "mapping(uint256 => struct Governor.Proposal)",
        "numberOfBytes": "32",
        "value": "t_struct(Proposal)9389_storage"
      },
      "t_string_storage": {
        "encoding": "bytes",
        "label": "string",
        "numberOfBytes": "32"
      },
      "t_struct(Proposal)9389_storage": {
        "encoding": "inplace",
        "label": "struct Governor.Proposal",
        "members": [
          {
            "astId": 9367,
            "contract": "contracts/Pool.sol:Pool",
            "label": "quorum",
            "offset": 0,
            "slot": "0",
            "type": "t_uint256"
          },
          {
            "astId": 9369,
            "contract": "contracts/Pool.sol:Pool",
            "label": "threshold",
            "offset": 0,
            "slot": "1",
            "type": "t_uint256"
          },
          {
            "astId": 9372,
            "contract": "contracts/Pool.sol:Pool",
            "label": "targets",
            "offset": 0,
            "slot": "2",
            "type": "t_array(t_address)dyn_storage"
          },
          {
            "astId": 9375,
            "contract": "contracts/Pool.sol:Pool",
            "label": "values",
            "offset": 0,
            "slot": "3",
            "type": "t_array(t_uint256)dyn_storage"
          },
          {
            "astId": 9378,
            "contract": "contracts/Pool.sol:Pool",
            "label": "calldatas",
            "offset": 0,
            "slot": "4",
            "type": "t_array(t_bytes_storage)dyn_storage"
          },
          {
            "astId": 9380,
            "contract": "contracts/Pool.sol:Pool",
            "label": "startBlock",
            "offset": 0,
            "slot": "5",
            "type": "t_uint256"
          },
          {
            "astId": 9382,
            "contract": "contracts/Pool.sol:Pool",
            "label": "endBlock",
            "offset": 0,
            "slot": "6",
            "type": "t_uint256"
          },
          {
            "astId": 9384,
            "contract": "contracts/Pool.sol:Pool",
            "label": "forVotes",
            "offset": 0,
            "slot": "7",
            "type": "t_uint256"
          },
          {
            "astId": 9386,
            "contract": "contracts/Pool.sol:Pool",
            "label": "againstVotes",
            "offset": 0,
            "slot": "8",
            "type": "t_uint256"
          },
          {
            "astId": 9388,
            "contract": "contracts/Pool.sol:Pool",
            "label": "executed",
            "offset": 0,
            "slot": "9",
            "type": "t_bool"
          }
        ],
        "numberOfBytes": "320"
      },
      "t_uint256": {
        "encoding": "inplace",
        "label": "uint256",
        "numberOfBytes": "32"
      },
      "t_uint8": {
        "encoding": "inplace",
        "label": "uint8",
        "numberOfBytes": "1"
      }
    }
  }
}