{
  "address": "0x544C9160505712d6B5E12888b5eB9bCb708885aF",
  "abi": [
    {
      "anonymous": false,
      "inputs": [
        {
          "indexed": false,
          "internalType": "uint8",
          "name": "version",
          "type": "uint8"
        }
      ],
      "name": "Initialized",
      "type": "event"
    },
    {
      "anonymous": false,
      "inputs": [
        {
          "indexed": true,
          "internalType": "address",
          "name": "previousOwner",
          "type": "address"
        },
        {
          "indexed": true,
          "internalType": "address",
          "name": "newOwner",
          "type": "address"
        }
      ],
      "name": "OwnershipTransferred",
      "type": "event"
    },
    {
      "anonymous": false,
      "inputs": [
        {
          "indexed": false,
          "internalType": "uint256",
          "name": "proposalId",
          "type": "uint256"
        },
        {
          "indexed": false,
          "internalType": "uint256",
          "name": "quorum",
          "type": "uint256"
        },
        {
          "indexed": false,
          "internalType": "address[]",
          "name": "targets",
          "type": "address[]"
        },
        {
          "indexed": false,
          "internalType": "uint256[]",
          "name": "values",
          "type": "uint256[]"
        },
        {
          "indexed": false,
          "internalType": "bytes[]",
          "name": "calldatas",
          "type": "bytes[]"
        },
        {
          "indexed": false,
          "internalType": "string",
          "name": "description",
          "type": "string"
        }
      ],
      "name": "ProposalCreated",
      "type": "event"
    },
    {
      "anonymous": false,
      "inputs": [
        {
          "indexed": false,
          "internalType": "uint256",
          "name": "proposalId",
          "type": "uint256"
        }
      ],
      "name": "ProposalExecuted",
      "type": "event"
    },
    {
      "anonymous": false,
      "inputs": [
        {
          "indexed": false,
          "internalType": "address",
          "name": "voter",
          "type": "address"
        },
        {
          "indexed": false,
          "internalType": "uint256",
          "name": "proposalId",
          "type": "uint256"
        },
        {
          "indexed": false,
          "internalType": "uint256",
          "name": "votes",
          "type": "uint256"
        },
        {
          "indexed": false,
          "internalType": "bool",
          "name": "support",
          "type": "bool"
        }
      ],
      "name": "VoteCast",
      "type": "event"
    },
    {
      "inputs": [
        {
          "internalType": "uint256",
          "name": "proposalId",
          "type": "uint256"
        },
        {
          "internalType": "bool",
          "name": "support",
          "type": "bool"
        }
      ],
      "name": "castVote",
      "outputs": [],
      "stateMutability": "nonpayable",
      "type": "function"
    },
    {
      "inputs": [
        {
          "internalType": "uint256",
          "name": "duration",
          "type": "uint256"
        },
        {
          "components": [
            {
              "internalType": "string",
              "name": "metadataURI",
              "type": "string"
            },
            {
              "internalType": "uint256",
              "name": "price",
              "type": "uint256"
            },
            {
              "internalType": "uint256",
              "name": "hardcap",
              "type": "uint256"
            },
            {
              "internalType": "uint256",
              "name": "softcap",
              "type": "uint256"
            },
            {
              "internalType": "uint256",
              "name": "minPurchase",
              "type": "uint256"
            },
            {
              "internalType": "uint256",
              "name": "maxPurchase",
              "type": "uint256"
            },
            {
              "internalType": "uint256",
              "name": "lockupPercent",
              "type": "uint256"
            },
            {
              "internalType": "uint256",
              "name": "lockupDuration",
              "type": "uint256"
            },
            {
              "internalType": "uint256",
              "name": "lockupTVL",
              "type": "uint256"
            },
            {
              "internalType": "uint256",
              "name": "duration",
              "type": "uint256"
            },
            {
              "internalType": "address[]",
              "name": "whitelist",
              "type": "address[]"
            }
          ],
          "internalType": "struct ITGE.TGEInfo",
          "name": "info",
          "type": "tuple"
        },
        {
          "internalType": "string",
          "name": "description",
          "type": "string"
        }
      ],
      "name": "createTGEProposal",
      "outputs": [
        {
          "internalType": "uint256",
          "name": "proposalId",
          "type": "uint256"
        }
      ],
      "stateMutability": "nonpayable",
      "type": "function"
    },
    {
      "inputs": [
        {
          "internalType": "uint256",
          "name": "duration",
          "type": "uint256"
        },
        {
          "internalType": "address",
          "name": "to",
          "type": "address"
        },
        {
          "internalType": "uint256",
          "name": "value",
          "type": "uint256"
        },
        {
          "internalType": "string",
          "name": "description",
          "type": "string"
        }
      ],
      "name": "createTransferETHProposal",
      "outputs": [
        {
          "internalType": "uint256",
          "name": "proposalId",
          "type": "uint256"
        }
      ],
      "stateMutability": "nonpayable",
      "type": "function"
    },
    {
      "inputs": [
        {
          "internalType": "uint256",
          "name": "proposalId",
          "type": "uint256"
        }
      ],
      "name": "execute",
      "outputs": [],
      "stateMutability": "nonpayable",
      "type": "function"
    },
    {
      "inputs": [
        {
          "internalType": "address",
          "name": "owner_",
          "type": "address"
        }
      ],
      "name": "initialize",
      "outputs": [],
      "stateMutability": "nonpayable",
      "type": "function"
    },
    {
      "inputs": [],
      "name": "lastProposalId",
      "outputs": [
        {
          "internalType": "uint256",
          "name": "",
          "type": "uint256"
        }
      ],
      "stateMutability": "view",
      "type": "function"
    },
    {
      "inputs": [],
      "name": "metadataURI",
      "outputs": [
        {
          "internalType": "string",
          "name": "",
          "type": "string"
        }
      ],
      "stateMutability": "view",
      "type": "function"
    },
    {
      "inputs": [],
      "name": "owner",
      "outputs": [
        {
          "internalType": "address",
          "name": "",
          "type": "address"
        }
      ],
      "stateMutability": "view",
      "type": "function"
    },
    {
      "inputs": [
        {
          "internalType": "uint256",
          "name": "proposalId",
          "type": "uint256"
        }
      ],
      "name": "proposalState",
      "outputs": [
        {
          "internalType": "enum Governor.ProposalState",
          "name": "",
          "type": "uint8"
        }
      ],
      "stateMutability": "view",
      "type": "function"
    },
    {
      "inputs": [
        {
          "internalType": "uint256",
          "name": "",
          "type": "uint256"
        }
      ],
      "name": "proposals",
      "outputs": [
        {
          "internalType": "uint256",
          "name": "quorum",
          "type": "uint256"
        },
        {
          "internalType": "uint256",
          "name": "threshold",
          "type": "uint256"
        },
        {
          "internalType": "uint256",
          "name": "startBlock",
          "type": "uint256"
        },
        {
          "internalType": "uint256",
          "name": "endBlock",
          "type": "uint256"
        },
        {
          "internalType": "uint256",
          "name": "forVotes",
          "type": "uint256"
        },
        {
          "internalType": "uint256",
          "name": "againstVotes",
          "type": "uint256"
        },
        {
          "internalType": "bool",
          "name": "executed",
          "type": "bool"
        }
      ],
      "stateMutability": "view",
      "type": "function"
    },
    {
      "inputs": [],
      "name": "renounceOwnership",
      "outputs": [],
      "stateMutability": "nonpayable",
      "type": "function"
    },
    {
      "inputs": [],
      "name": "service",
      "outputs": [
        {
          "internalType": "contract IService",
          "name": "",
          "type": "address"
        }
      ],
      "stateMutability": "view",
      "type": "function"
    },
    {
      "inputs": [
        {
          "internalType": "string",
          "name": "metadataURI_",
          "type": "string"
        }
      ],
      "name": "setMetadataURI",
      "outputs": [],
      "stateMutability": "nonpayable",
      "type": "function"
    },
    {
      "inputs": [
        {
          "internalType": "address",
          "name": "tge_",
          "type": "address"
        }
      ],
      "name": "setTGE",
      "outputs": [],
      "stateMutability": "nonpayable",
      "type": "function"
    },
    {
      "inputs": [
        {
          "internalType": "address",
          "name": "token_",
          "type": "address"
        }
      ],
      "name": "setToken",
      "outputs": [],
      "stateMutability": "nonpayable",
      "type": "function"
    },
    {
      "inputs": [],
      "name": "tge",
      "outputs": [
        {
          "internalType": "contract ITGE",
          "name": "",
          "type": "address"
        }
      ],
      "stateMutability": "view",
      "type": "function"
    },
    {
      "inputs": [],
      "name": "token",
      "outputs": [
        {
          "internalType": "contract IGovernanceToken",
          "name": "",
          "type": "address"
        }
      ],
      "stateMutability": "view",
      "type": "function"
    },
    {
      "inputs": [
        {
          "internalType": "address",
          "name": "newOwner",
          "type": "address"
        }
      ],
      "name": "transferOwnership",
      "outputs": [],
      "stateMutability": "nonpayable",
      "type": "function"
    },
    {
      "stateMutability": "payable",
      "type": "receive"
    }
  ],
  "transactionHash": "0xe9cc7d7297269db4972969619edf7176e284fbf97fa909eeca8994a22b9c6000",
  "args": [],
  "numDeployments": 1,
  "solcInputHash": "39f96f7bb5a095faa550612a86705d4a",
  "bytecode": "0x608060405234801561001057600080fd5b5061225a806100206000396000f3fe60806040526004361061010d5760003560e01c80638da5cb5b11610095578063d26331d411610064578063d26331d41461033a578063d598d4c914610367578063f2fde38b14610387578063fc0c546a146103a7578063fe0d94c1146103c757600080fd5b80638da5cb5b146102ad57806392aa43c0146102da578063a7497fa5146102fa578063c4d66de81461031a57600080fd5b806315373e3d116100dc57806315373e3d146102225780633e2d06ed14610242578063715018a61461026257806374cb304114610277578063750521f51461028d57600080fd5b8063013cf08b1461011957806303ee438c146101b05780630cd27c0f146101d2578063144fa6d71461020057600080fd5b3661011457005b600080fd5b34801561012557600080fd5b50610174610134366004611aa0565b6065602052600090815260409020805460018201546005830154600684015460078501546008860154600990960154949593949293919290919060ff1687565b604080519788526020880196909652948601939093526060850191909152608084015260a0830152151560c082015260e0015b60405180910390f35b3480156101bc57600080fd5b506101c56103e7565b6040516101a79190611b15565b3480156101de57600080fd5b506101f26101ed366004611ca7565b610475565b6040519081526020016101a7565b34801561020c57600080fd5b5061022061021b366004611dc9565b61059b565b005b34801561022e57600080fd5b5061022061023d366004611de6565b610605565b34801561024e57600080fd5b506101f261025d366004611e1b565b6107ae565b34801561026e57600080fd5b50610220610883565b34801561028357600080fd5b506101f260665481565b34801561029957600080fd5b506102206102a8366004611e7e565b6108ee565b3480156102b957600080fd5b506102c26109d0565b6040516001600160a01b0390911681526020016101a7565b3480156102e657600080fd5b506102206102f5366004611dc9565b6109e9565b34801561030657600080fd5b506069546102c2906001600160a01b031681565b34801561032657600080fd5b50610220610335366004611dc9565b610a53565b34801561034657600080fd5b5061035a610355366004611aa0565b610adb565b6040516101a79190611ec9565b34801561037357600080fd5b506067546102c2906001600160a01b031681565b34801561039357600080fd5b506102206103a2366004611dc9565b610d94565b3480156103b357600080fd5b506068546102c2906001600160a01b031681565b3480156103d357600080fd5b506102206103e2366004611aa0565b610e64565b606a80546103f490611ef1565b80601f016020809104026020016040519081016040528092919081815260200182805461042090611ef1565b801561046d5780601f106104425761010080835404028352916020019161046d565b820191906000526020600020905b81548152906001019060200180831161045057829003601f168201915b505050505081565b6068546040516370a0823160e01b815233600482015260009182916001600160a01b03909116906370a0823190602401602060405180830381865afa1580156104c2573d6000803e3d6000fd5b505050506040513d601f19601f820116820180604052508101906104e69190611f2b565b1161052a5760405162461bcd60e51b815260206004820152600f60248201526e2737ba1039b430b932b437b63232b960891b60448201526064015b60405180910390fd5b6067546040516105939186916001600160a01b03909116906000906281176b60e51b9061055b908990602401611f88565b60408051601f198184030181529190526020810180516001600160e01b03166001600160e01b03199093169290921790915286611231565b949350505050565b6067546001600160a01b031633146105e35760405162461bcd60e51b815260206004820152600b60248201526a4e6f74207365727669636560a81b6044820152606401610521565b606880546001600160a01b0319166001600160a01b0392909216919091179055565b606854604051631092ab9160e31b81523360048201526000916001600160a01b0316906384955c8890602401602060405180830381865afa15801561064e573d6000803e3d6000fd5b505050506040513d601f19601f820116820180604052508101906106729190611f2b565b9050600081116106af5760405162461bcd60e51b81526020600482015260086024820152674e6f20766f74657360c01b6044820152606401610521565b6068546040516370a0823160e01b815233600482018190526001600160a01b039092169163e2ab691d9183906370a0823190602401602060405180830381865afa158015610701573d6000803e3d6000fd5b505050506040513d601f19601f820116820180604052508101906107259190611f2b565b6000878152606560205260409081902060060154905160e085901b6001600160e01b03191681526001600160a01b03909316600484015260248301919091526044820152606401600060405180830381600087803b15801561078657600080fd5b505af115801561079a573d6000803e3d6000fd5b505050506107a983828461141b565b505050565b6068546040516370a0823160e01b815233600482015260009182916001600160a01b03909116906370a0823190602401602060405180830381865afa1580156107fb573d6000803e3d6000fd5b505050506040513d601f19601f8201168201806040525081019061081f9190611f2b565b1161085e5760405162461bcd60e51b815260206004820152600f60248201526e2737ba1039b430b932b437b63232b960891b6044820152606401610521565b61087a8585856040518060200160405280600081525086611231565b95945050505050565b3361088c6109d0565b6001600160a01b0316146108e25760405162461bcd60e51b815260206004820181905260248201527f4f776e61626c653a2063616c6c6572206973206e6f7420746865206f776e65726044820152606401610521565b6108ec600061150c565b565b606760009054906101000a90046001600160a01b03166001600160a01b0316638da5cb5b6040518163ffffffff1660e01b8152600401602060405180830381865afa158015610941573d6000803e3d6000fd5b505050506040513d601f19601f820116820180604052508101906109659190612036565b6001600160a01b0316336001600160a01b0316146109b95760405162461bcd60e51b81526020600482015260116024820152702737ba1039b2b93b34b1b29037bbb732b960791b6044820152606401610521565b80516109cc90606a9060208401906118c8565b5050565b60006109e46033546001600160a01b031690565b905090565b6067546001600160a01b03163314610a315760405162461bcd60e51b815260206004820152600b60248201526a4e6f74207365727669636560a81b6044820152606401610521565b606980546001600160a01b0319166001600160a01b0392909216919091179055565b6000610a5f600161155e565b90508015610a77576000805461ff0019166101001790555b606780546001600160a01b03191633179055610a928261150c565b80156109cc576000805461ff0019169055604051600181527f7f26b83ff96e1f2b6a682f133852f6798a09c465da95921460cefb38474024989060200160405180910390a15050565b60008181526065602090815260408083208151610140810183528154815260018201548185015260028201805484518187028101870186528181528796939586019390929190830182828015610b5a57602002820191906000526020600020905b81546001600160a01b03168152600190910190602001808311610b3c575b5050505050815260200160038201805480602002602001604051908101604052809291908181526020018280548015610bb257602002820191906000526020600020905b815481526020019060010190808311610b9e575b5050505050815260200160048201805480602002602001604051908101604052809291908181526020016000905b82821015610c8c578382906000526020600020018054610bff90611ef1565b80601f0160208091040260200160405190810160405280929190818152602001828054610c2b90611ef1565b8015610c785780601f10610c4d57610100808354040283529160200191610c78565b820191906000526020600020905b815481529060010190602001808311610c5b57829003601f168201915b505050505081526020019060010190610be0565b505050908252506005820154602082015260068201546040820152600782015460608201526008820154608082015260099091015460ff16151560a09091015261012081015190915015610ce35750600492915050565b8060a00151600003610cf85750600092915050565b438160c001511115610d0d5750600192915050565b600060648260000151610d1e6115e6565b610d289190612069565b610d329190612088565b905060008261010001518360e00151610d4b91906120aa565b9050818110158015610d7957506020830151610d679082612069565b60e0840151610d77906064612069565b115b15610d8957506003949350505050565b506002949350505050565b33610d9d6109d0565b6001600160a01b031614610df35760405162461bcd60e51b815260206004820181905260248201527f4f776e61626c653a2063616c6c6572206973206e6f7420746865206f776e65726044820152606401610521565b6001600160a01b038116610e585760405162461bcd60e51b815260206004820152602660248201527f4f776e61626c653a206e6577206f776e657220697320746865207a65726f206160448201526564647265737360d01b6064820152608401610521565b610e618161150c565b50565b600081815260656020908152604080832081516101408101835281548152600182015481850152600282018054845181870281018701865281815292959394860193830182828015610edf57602002820191906000526020600020905b81546001600160a01b03168152600190910190602001808311610ec1575b5050505050815260200160038201805480602002602001604051908101604052809291908181526020018280548015610f3757602002820191906000526020600020905b815481526020019060010190808311610f23575b5050505050815260200160048201805480602002602001604051908101604052809291908181526020016000905b82821015611011578382906000526020600020018054610f8490611ef1565b80601f0160208091040260200160405190810160405280929190818152602001828054610fb090611ef1565b8015610ffd5780601f10610fd257610100808354040283529160200191610ffd565b820191906000526020600020905b815481529060010190602001808311610fe057829003601f168201915b505050505081526020019060010190610f65565b505050908252506005820154602082015260068201546040820152600782015460608201526008820154608082015260099091015460ff16151560a0909101529050600361105e83610adb565b600481111561106f5761106f611eb3565b146110bc5760405162461bcd60e51b815260206004820152601a60248201527f50726f706f73616c20697320696e2077726f6e672073746174650000000000006044820152606401610521565b6000828152606560209081526040808320600901805460ff191660011790558051808201909152601d81527f43616c6c20726576657274656420776974686f7574206d65737361676500000091810191909152905b8260400151518110156111f75760008084604001518381518110611137576111376120c2565b60200260200101516001600160a01b03168560600151848151811061115e5761115e6120c2565b60200260200101518660800151858151811061117c5761117c6120c2565b602002602001015160405161119191906120d8565b60006040518083038185875af1925050503d80600081146111ce576040519150601f19603f3d011682016040523d82523d6000602084013e6111d3565b606091505b50915091506111e3828286611654565b505050806111f0906120f4565b9050611111565b506040518381527f712ae1383f79ac853f8d882153778e0260ef8f03b504e2866e0593e04d2b291f906020015b60405180910390a1505050565b60408051600180825281830190925260009182919060208083019080368337019050509050858160008151811061126a5761126a6120c2565b6001600160a01b03929092166020928302919091019091015260408051600180825281830190925260009181602001602082028036833701905050905085816000815181106112bb576112bb6120c2565b6020908102919091010152604080516001808252818301909252600091816020015b60608152602001906001900390816112dd5790505090508581600081518110611308576113086120c2565b602002602001018190525061140e89606760009054906101000a90046001600160a01b03166001600160a01b0316639a0b6f9b6040518163ffffffff1660e01b8152600401602060405180830381865afa15801561136a573d6000803e3d6000fd5b505050506040513d601f19601f8201168201806040525081019061138e9190611f2b565b606760009054906101000a90046001600160a01b03166001600160a01b031663b58131b06040518163ffffffff1660e01b8152600401602060405180830381865afa1580156113e1573d6000803e3d6000fd5b505050506040513d601f19601f820116820180604052508101906114059190611f2b565b8686868b611694565b9998505050505050505050565b600083815260656020526040902060060154431061146d5760405162461bcd60e51b815260206004820152600f60248201526e159bdd1a5b99c8199a5b9a5cda1959608a1b6044820152606401610521565b801561149f57600083815260656020526040812060070180548492906114949084906120aa565b909155506114c69050565b600083815260656020526040812060080180548492906114c09084906120aa565b90915550505b604080513381526020810185905290810183905281151560608201527f2c48deccc79dbba942eeb2f991c4bfa0ac136723ddc0ea1b575dd85373408df890608001611224565b603380546001600160a01b038381166001600160a01b0319831681179093556040519116919082907f8be0079c531659141344cd1fd0a4f28419497f9722a3daafe3b4186f6b6457e090600090a35050565b60008054610100900460ff16156115a5578160ff1660011480156115815750303b155b61159d5760405162461bcd60e51b81526004016105219061210d565b506000919050565b60005460ff8084169116106115cc5760405162461bcd60e51b81526004016105219061210d565b506000805460ff191660ff92909216919091179055600190565b606854604080516318160ddd60e01b815290516000926001600160a01b0316916318160ddd9160048083019260209291908290030181865afa158015611630573d6000803e3d6000fd5b505050506040513d601f19601f820116820180604052508101906109e49190611f2b565b6060831561166357508161168d565b8251156116735782518084602001fd5b8160405162461bcd60e51b81526004016105219190611b15565b9392505050565b6066546000908152606560205260408120600601544310156116f85760405162461bcd60e51b815260206004820152601b60248201527f416c726561647920686173206163746976652070726f706f73616c00000000006044820152606401610521565b606660008154611707906120f4565b9190508190559050604051806101400160405280888152602001878152602001868152602001858152602001848152602001438152602001894361174b91906120aa565b81526000602080830182905260408084018390526060909301829052848252606581529082902083518155838201516001820155918301518051611795926002850192019061194c565b50606082015180516117b19160038401916020909101906119a1565b50608082015180516117cd9160048401916020909101906119db565b5060a0820151600582015560c0820151600682015560e082015160078201556101008201516008820155610120909101516009909101805460ff191691151591909117905561181b81611867565b7fbd5cfa3a6d750f3995a6e4c6f70b1d01187c16a6fcfcd3bbe400ecf361b756ba8188878787876040516118549695949392919061215b565b60405180910390a1979650505050505050565b606754604051630ffb246960e21b8152600481018390526001600160a01b0390911690633fec91a490602401600060405180830381600087803b1580156118ad57600080fd5b505af11580156118c1573d6000803e3d6000fd5b5050505050565b8280546118d490611ef1565b90600052602060002090601f0160209004810192826118f6576000855561193c565b82601f1061190f57805160ff191683800117855561193c565b8280016001018555821561193c579182015b8281111561193c578251825591602001919060010190611921565b50611948929150611a34565b5090565b82805482825590600052602060002090810192821561193c579160200282015b8281111561193c57825182546001600160a01b0319166001600160a01b0390911617825560209092019160019091019061196c565b82805482825590600052602060002090810192821561193c579160200282018281111561193c578251825591602001919060010190611921565b828054828255906000526020600020908101928215611a28579160200282015b82811115611a285782518051611a189184916020909101906118c8565b50916020019190600101906119fb565b50611948929150611a49565b5b808211156119485760008155600101611a35565b80821115611948576000611a5d8282611a66565b50600101611a49565b508054611a7290611ef1565b6000825580601f10611a82575050565b601f016020900490600052602060002090810190610e619190611a34565b600060208284031215611ab257600080fd5b5035919050565b60005b83811015611ad4578181015183820152602001611abc565b83811115611ae3576000848401525b50505050565b60008151808452611b01816020860160208601611ab9565b601f01601f19169290920160200192915050565b60208152600061168d6020830184611ae9565b634e487b7160e01b600052604160045260246000fd5b604051610160810167ffffffffffffffff81118282101715611b6257611b62611b28565b60405290565b604051601f8201601f1916810167ffffffffffffffff81118282101715611b9157611b91611b28565b604052919050565b600082601f830112611baa57600080fd5b813567ffffffffffffffff811115611bc457611bc4611b28565b611bd7601f8201601f1916602001611b68565b818152846020838601011115611bec57600080fd5b816020850160208301376000918101602001919091529392505050565b6001600160a01b0381168114610e6157600080fd5b600082601f830112611c2f57600080fd5b8135602067ffffffffffffffff821115611c4b57611c4b611b28565b8160051b611c5a828201611b68565b9283528481018201928281019087851115611c7457600080fd5b83870192505b84831015611c9c578235611c8d81611c09565b82529183019190830190611c7a565b979650505050505050565b600080600060608486031215611cbc57600080fd5b83359250602084013567ffffffffffffffff80821115611cdb57600080fd5b908501906101608288031215611cf057600080fd5b611cf8611b3e565b823582811115611d0757600080fd5b611d1389828601611b99565b8252506020830135602082015260408301356040820152606083013560608201526080830135608082015260a083013560a082015260c083013560c082015260e083013560e08201526101008084013581830152506101208084013581830152506101408084013583811115611d8857600080fd5b611d948a828701611c1e565b828401525050809450506040860135915080821115611db257600080fd5b50611dbf86828701611b99565b9150509250925092565b600060208284031215611ddb57600080fd5b813561168d81611c09565b60008060408385031215611df957600080fd5b8235915060208301358015158114611e1057600080fd5b809150509250929050565b60008060008060808587031215611e3157600080fd5b843593506020850135611e4381611c09565b925060408501359150606085013567ffffffffffffffff811115611e6657600080fd5b611e7287828801611b99565b91505092959194509250565b600060208284031215611e9057600080fd5b813567ffffffffffffffff811115611ea757600080fd5b61059384828501611b99565b634e487b7160e01b600052602160045260246000fd5b6020810160058310611eeb57634e487b7160e01b600052602160045260246000fd5b91905290565b600181811c90821680611f0557607f821691505b602082108103611f2557634e487b7160e01b600052602260045260246000fd5b50919050565b600060208284031215611f3d57600080fd5b5051919050565b600081518084526020808501945080840160005b83811015611f7d5781516001600160a01b031687529582019590820190600101611f58565b509495945050505050565b6020815260008251610160806020850152611fa7610180850183611ae9565b9150602085015160408501526040850151606085015260608501516080850152608085015160a085015260a085015160c085015260c085015160e085015260e0850151610100818187015280870151915050610120818187015280870151915050610140818187015280870151915050601f19858403018286015261202c8382611f44565b9695505050505050565b60006020828403121561204857600080fd5b815161168d81611c09565b634e487b7160e01b600052601160045260246000fd5b600081600019048311821515161561208357612083612053565b500290565b6000826120a557634e487b7160e01b600052601260045260246000fd5b500490565b600082198211156120bd576120bd612053565b500190565b634e487b7160e01b600052603260045260246000fd5b600082516120ea818460208701611ab9565b9190910192915050565b60006001820161210657612106612053565b5060010190565b6020808252602e908201527f496e697469616c697a61626c653a20636f6e747261637420697320616c72656160408201526d191e481a5b9a5d1a585b1a5e995960921b606082015260800190565b86815260006020878184015260c0604084015261217b60c0840188611f44565b838103606085015286518082528288019183019060005b818110156121ae57835183529284019291840191600101612192565b5050848103608086015286518082528382019250600581901b8201840184890160005b838110156121ff57601f198584030186526121ed838351611ae9565b958701959250908601906001016121d1565b505086810360a08801526122138189611ae9565b9d9c5050505050505050505050505056fea2646970667358221220eca6660e43e60db0143430386638c452987dc38926ef00353e6165ba5820304e64736f6c634300080d0033",
  "devdoc": {
    "kind": "dev",
    "methods": {
      "renounceOwnership()": {
        "details": "Leaves the contract without owner. It will not be possible to call `onlyOwner` functions anymore. Can only be called by the current owner. NOTE: Renouncing ownership will leave the contract without an owner, thereby removing any functionality that is only available to the owner."
      },
      "transferOwnership(address)": {
        "details": "Transfers ownership of the contract to a new account (`newOwner`). Can only be called by the current owner."
      }
    },
    "version": 1
  },
  "userdoc": {
    "kind": "user",
    "methods": {},
    "version": 1
  },
  "storageLayout": {
    "storage": [
      {
        "astId": 208,
        "contract": "contracts/Pool.sol:Pool",
        "label": "_initialized",
        "offset": 0,
        "slot": "0",
        "type": "t_uint8"
      },
      {
        "astId": 211,
        "contract": "contracts/Pool.sol:Pool",
        "label": "_initializing",
        "offset": 1,
        "slot": "0",
        "type": "t_bool"
      },
      {
        "astId": 2312,
        "contract": "contracts/Pool.sol:Pool",
        "label": "__gap",
        "offset": 0,
        "slot": "1",
        "type": "t_array(t_uint256)50_storage"
      },
      {
        "astId": 10,
        "contract": "contracts/Pool.sol:Pool",
        "label": "_owner",
        "offset": 0,
        "slot": "51",
        "type": "t_address"
      },
      {
        "astId": 122,
        "contract": "contracts/Pool.sol:Pool",
        "label": "__gap",
        "offset": 0,
        "slot": "52",
        "type": "t_array(t_uint256)49_storage"
      },
      {
        "astId": 6572,
        "contract": "contracts/Pool.sol:Pool",
        "label": "proposals",
        "offset": 0,
        "slot": "101",
        "type": "t_mapping(t_uint256,t_struct(Proposal)6567_storage)"
      },
      {
        "astId": 6574,
        "contract": "contracts/Pool.sol:Pool",
        "label": "lastProposalId",
        "offset": 0,
        "slot": "102",
        "type": "t_uint256"
      },
      {
        "astId": 5011,
        "contract": "contracts/Pool.sol:Pool",
        "label": "service",
        "offset": 0,
        "slot": "103",
        "type": "t_contract(IService)7075"
      },
      {
        "astId": 5014,
        "contract": "contracts/Pool.sol:Pool",
        "label": "token",
        "offset": 0,
        "slot": "104",
        "type": "t_contract(IGovernanceToken)7001"
      },
      {
        "astId": 5017,
        "contract": "contracts/Pool.sol:Pool",
        "label": "tge",
        "offset": 0,
        "slot": "105",
        "type": "t_contract(ITGE)7140"
      },
      {
        "astId": 5019,
        "contract": "contracts/Pool.sol:Pool",
        "label": "metadataURI",
        "offset": 0,
        "slot": "106",
        "type": "t_string_storage"
      }
    ],
    "types": {
      "t_address": {
        "encoding": "inplace",
        "label": "address",
        "numberOfBytes": "20"
      },
      "t_array(t_address)dyn_storage": {
        "base": "t_address",
        "encoding": "dynamic_array",
        "label": "address[]",
        "numberOfBytes": "32"
      },
      "t_array(t_bytes_storage)dyn_storage": {
        "base": "t_bytes_storage",
        "encoding": "dynamic_array",
        "label": "bytes[]",
        "numberOfBytes": "32"
      },
      "t_array(t_uint256)49_storage": {
        "base": "t_uint256",
        "encoding": "inplace",
        "label": "uint256[49]",
        "numberOfBytes": "1568"
      },
      "t_array(t_uint256)50_storage": {
        "base": "t_uint256",
        "encoding": "inplace",
        "label": "uint256[50]",
        "numberOfBytes": "1600"
      },
      "t_array(t_uint256)dyn_storage": {
        "base": "t_uint256",
        "encoding": "dynamic_array",
        "label": "uint256[]",
        "numberOfBytes": "32"
      },
      "t_bool": {
        "encoding": "inplace",
        "label": "bool",
        "numberOfBytes": "1"
      },
      "t_bytes_storage": {
        "encoding": "bytes",
        "label": "bytes",
        "numberOfBytes": "32"
      },
      "t_contract(IGovernanceToken)7001": {
        "encoding": "inplace",
        "label": "contract IGovernanceToken",
        "numberOfBytes": "20"
      },
      "t_contract(IService)7075": {
        "encoding": "inplace",
        "label": "contract IService",
        "numberOfBytes": "20"
      },
      "t_contract(ITGE)7140": {
        "encoding": "inplace",
        "label": "contract ITGE",
        "numberOfBytes": "20"
      },
      "t_mapping(t_uint256,t_struct(Proposal)6567_storage)": {
        "encoding": "mapping",
        "key": "t_uint256",
        "label": "mapping(uint256 => struct Governor.Proposal)",
        "numberOfBytes": "32",
        "value": "t_struct(Proposal)6567_storage"
      },
      "t_string_storage": {
        "encoding": "bytes",
        "label": "string",
        "numberOfBytes": "32"
      },
      "t_struct(Proposal)6567_storage": {
        "encoding": "inplace",
        "label": "struct Governor.Proposal",
        "members": [
          {
            "astId": 6545,
            "contract": "contracts/Pool.sol:Pool",
            "label": "quorum",
            "offset": 0,
            "slot": "0",
            "type": "t_uint256"
          },
          {
            "astId": 6547,
            "contract": "contracts/Pool.sol:Pool",
            "label": "threshold",
            "offset": 0,
            "slot": "1",
            "type": "t_uint256"
          },
          {
            "astId": 6550,
            "contract": "contracts/Pool.sol:Pool",
            "label": "targets",
            "offset": 0,
            "slot": "2",
            "type": "t_array(t_address)dyn_storage"
          },
          {
            "astId": 6553,
            "contract": "contracts/Pool.sol:Pool",
            "label": "values",
            "offset": 0,
            "slot": "3",
            "type": "t_array(t_uint256)dyn_storage"
          },
          {
            "astId": 6556,
            "contract": "contracts/Pool.sol:Pool",
            "label": "calldatas",
            "offset": 0,
            "slot": "4",
            "type": "t_array(t_bytes_storage)dyn_storage"
          },
          {
            "astId": 6558,
            "contract": "contracts/Pool.sol:Pool",
            "label": "startBlock",
            "offset": 0,
            "slot": "5",
            "type": "t_uint256"
          },
          {
            "astId": 6560,
            "contract": "contracts/Pool.sol:Pool",
            "label": "endBlock",
            "offset": 0,
            "slot": "6",
            "type": "t_uint256"
          },
          {
            "astId": 6562,
            "contract": "contracts/Pool.sol:Pool",
            "label": "forVotes",
            "offset": 0,
            "slot": "7",
            "type": "t_uint256"
          },
          {
            "astId": 6564,
            "contract": "contracts/Pool.sol:Pool",
            "label": "againstVotes",
            "offset": 0,
            "slot": "8",
            "type": "t_uint256"
          },
          {
            "astId": 6566,
            "contract": "contracts/Pool.sol:Pool",
            "label": "executed",
            "offset": 0,
            "slot": "9",
            "type": "t_bool"
          }
        ],
        "numberOfBytes": "320"
      },
      "t_uint256": {
        "encoding": "inplace",
        "label": "uint256",
        "numberOfBytes": "32"
      },
      "t_uint8": {
        "encoding": "inplace",
        "label": "uint8",
        "numberOfBytes": "1"
      }
    }
  }
}