{
  "address": "0x3d1e24F3562f5a65fB37FEeC3042f1Abd530B3f1",
  "abi": [
    {
      "anonymous": false,
      "inputs": [
        {
          "indexed": false,
          "internalType": "uint8",
          "name": "version",
          "type": "uint8"
        }
      ],
      "name": "Initialized",
      "type": "event"
    },
    {
      "anonymous": false,
      "inputs": [
        {
          "indexed": true,
          "internalType": "address",
          "name": "previousOwner",
          "type": "address"
        },
        {
          "indexed": true,
          "internalType": "address",
          "name": "newOwner",
          "type": "address"
        }
      ],
      "name": "OwnershipTransferred",
      "type": "event"
    },
    {
      "inputs": [
        {
          "internalType": "contract IPool",
          "name": "pool",
          "type": "address"
        },
        {
          "internalType": "uint256",
          "name": "duration",
          "type": "uint256"
        },
        {
          "internalType": "string",
          "name": "companyDomain",
          "type": "string"
        },
        {
          "internalType": "string",
          "name": "description",
          "type": "string"
        }
      ],
      "name": "createSetCompanyDomainProposal",
      "outputs": [
        {
          "internalType": "uint256",
          "name": "proposalId",
          "type": "uint256"
        }
      ],
      "stateMutability": "nonpayable",
      "type": "function"
    },
    {
      "inputs": [
        {
          "internalType": "contract IPool",
          "name": "pool",
          "type": "address"
        },
        {
          "internalType": "uint256",
          "name": "duration",
          "type": "uint256"
        },
        {
          "components": [
            {
              "internalType": "string",
              "name": "metadataURI",
              "type": "string"
            },
            {
              "internalType": "uint256",
              "name": "price",
              "type": "uint256"
            },
            {
              "internalType": "uint256",
              "name": "hardcap",
              "type": "uint256"
            },
            {
              "internalType": "uint256",
              "name": "softcap",
              "type": "uint256"
            },
            {
              "internalType": "uint256",
              "name": "minPurchase",
              "type": "uint256"
            },
            {
              "internalType": "uint256",
              "name": "maxPurchase",
              "type": "uint256"
            },
            {
              "internalType": "uint256",
              "name": "lockupPercent",
              "type": "uint256"
            },
            {
              "internalType": "uint256",
              "name": "lockupDuration",
              "type": "uint256"
            },
            {
              "internalType": "uint256",
              "name": "lockupTVL",
              "type": "uint256"
            },
            {
              "internalType": "uint256",
              "name": "duration",
              "type": "uint256"
            },
            {
              "internalType": "address[]",
              "name": "whitelist",
              "type": "address[]"
            }
          ],
          "internalType": "struct ITGE.TGEInfo",
          "name": "info",
          "type": "tuple"
        },
        {
          "internalType": "string",
          "name": "description",
          "type": "string"
        }
      ],
      "name": "createTGEProposal",
      "outputs": [
        {
          "internalType": "uint256",
          "name": "proposalId",
          "type": "uint256"
        }
      ],
      "stateMutability": "nonpayable",
      "type": "function"
    },
    {
      "inputs": [
        {
          "internalType": "contract IPool",
          "name": "pool",
          "type": "address"
        },
        {
          "internalType": "uint256",
          "name": "duration",
          "type": "uint256"
        },
        {
          "internalType": "address",
          "name": "token",
          "type": "address"
        },
        {
          "internalType": "address",
          "name": "to",
          "type": "address"
        },
        {
          "internalType": "uint256",
          "name": "value",
          "type": "uint256"
        },
        {
          "internalType": "string",
          "name": "description",
          "type": "string"
        }
      ],
      "name": "createTransferERC20Proposal",
      "outputs": [
        {
          "internalType": "uint256",
          "name": "proposalId",
          "type": "uint256"
        }
      ],
      "stateMutability": "nonpayable",
      "type": "function"
    },
    {
      "inputs": [
        {
          "internalType": "contract IPool",
          "name": "pool",
          "type": "address"
        },
        {
          "internalType": "uint256",
          "name": "duration",
          "type": "uint256"
        },
        {
          "internalType": "address",
          "name": "to",
          "type": "address"
        },
        {
          "internalType": "uint256",
          "name": "value",
          "type": "uint256"
        },
        {
          "internalType": "string",
          "name": "description",
          "type": "string"
        }
      ],
      "name": "createTransferETHProposal",
      "outputs": [
        {
          "internalType": "uint256",
          "name": "proposalId",
          "type": "uint256"
        }
      ],
      "stateMutability": "nonpayable",
      "type": "function"
    },
    {
      "inputs": [],
      "name": "initialize",
      "outputs": [],
      "stateMutability": "nonpayable",
      "type": "function"
    },
    {
      "inputs": [],
      "name": "owner",
      "outputs": [
        {
          "internalType": "address",
          "name": "",
          "type": "address"
        }
      ],
      "stateMutability": "view",
      "type": "function"
    },
    {
      "inputs": [],
      "name": "renounceOwnership",
      "outputs": [],
      "stateMutability": "nonpayable",
      "type": "function"
    },
    {
      "inputs": [
        {
          "internalType": "address",
          "name": "newOwner",
          "type": "address"
        }
      ],
      "name": "transferOwnership",
      "outputs": [],
      "stateMutability": "nonpayable",
      "type": "function"
    }
  ],
  "transactionHash": "0x7591c48fb3409aeda85a51fe024a15b438b7b30dcecea2d4678f8e957e8191c3",
  "args": [],
  "numDeployments": 1,
  "solcInputHash": "4dfaa6771f87ad430e2d47b84c416ad0",
  "bytecode": "0x608060405234801561001057600080fd5b50611173806100206000396000f3fe608060405234801561001057600080fd5b50600436106100885760003560e01c80638129fc1c1161005b5780638129fc1c146100e35780638da5cb5b146100eb57806393b857b314610106578063f2fde38b1461011957600080fd5b8063158c19281461008d5780635045c314146100b3578063715018a6146100c657806374a5e1b6146100d0575b600080fd5b6100a061009b366004610b48565b61012c565b6040519081526020015b60405180910390f35b6100a06100c1366004610c4d565b6102e5565b6100ce6104f7565b005b6100a06100de366004610d82565b61055d565b6100ce6106cb565b6033546040516001600160a01b0390911681526020016100aa565b6100a0610114366004610df8565b610740565b6100ce610127366004610e5f565b61085a565b6000866000816001600160a01b031663fc0c546a6040518163ffffffff1660e01b8152600401602060405180830381865afa15801561016f573d6000803e3d6000fd5b505050506040513d601f19601f820116820180604052508101906101939190610e83565b6040516370a0823160e01b81523360048201526001600160a01b0391909116906370a0823190602401602060405180830381865afa1580156101d9573d6000803e3d6000fd5b505050506040513d601f19601f820116820180604052508101906101fd9190610ea0565b116102235760405162461bcd60e51b815260040161021a90610eb9565b60405180910390fd5b604080516001600160a01b038781166024830152604480830188905283518084039091018152606490920183526020820180516001600160e01b031663a9059cbb60e01b1790529151633765edcf60e01b8152918a1691633765edcf91610296918b918b91600091908a90600401610f2f565b6020604051808303816000875af11580156102b5573d6000803e3d6000fd5b505050506040513d601f19601f820116820180604052508101906102d99190610ea0565b98975050505050505050565b6000846000816001600160a01b031663fc0c546a6040518163ffffffff1660e01b8152600401602060405180830381865afa158015610328573d6000803e3d6000fd5b505050506040513d601f19601f8201168201806040525081019061034c9190610e83565b6040516370a0823160e01b81523360048201526001600160a01b0391909116906370a0823190602401602060405180830381865afa158015610392573d6000803e3d6000fd5b505050506040513d601f19601f820116820180604052508101906103b69190610ea0565b116103d35760405162461bcd60e51b815260040161021a90610eb9565b856001600160a01b0316633765edcf86886001600160a01b031663d598d4c96040518163ffffffff1660e01b8152600401602060405180830381865afa158015610421573d6000803e3d6000fd5b505050506040513d601f19601f820116820180604052508101906104459190610e83565b6000631022ed6060e01b896040516024016104609190610fb2565b60408051601f198184030181529181526020820180516001600160e01b03166001600160e01b03199485161790525160e087901b90921682526104aa949392918a90600401610f2f565b6020604051808303816000875af11580156104c9573d6000803e3d6000fd5b505050506040513d601f19601f820116820180604052508101906104ed9190610ea0565b9695505050505050565b6033546001600160a01b031633146105515760405162461bcd60e51b815260206004820181905260248201527f4f776e61626c653a2063616c6c6572206973206e6f7420746865206f776e6572604482015260640161021a565b61055b600061091e565b565b6000856000816001600160a01b031663fc0c546a6040518163ffffffff1660e01b8152600401602060405180830381865afa1580156105a0573d6000803e3d6000fd5b505050506040513d601f19601f820116820180604052508101906105c49190610e83565b6040516370a0823160e01b81523360048201526001600160a01b0391909116906370a0823190602401602060405180830381865afa15801561060a573d6000803e3d6000fd5b505050506040513d601f19601f8201168201806040525081019061062e9190610ea0565b1161064b5760405162461bcd60e51b815260040161021a90610eb9565b604051633765edcf60e01b81526001600160a01b03881690633765edcf9061067d908990899089908990600401611056565b6020604051808303816000875af115801561069c573d6000803e3d6000fd5b505050506040513d601f19601f820116820180604052508101906106c09190610ea0565b979650505050505050565b60006106d76001610970565b905080156106ef576000805461ff0019166101001790555b6106f76109f8565b801561073d576000805461ff0019169055604051600181527f7f26b83ff96e1f2b6a682f133852f6798a09c465da95921460cefb38474024989060200160405180910390a15b50565b6000846000816001600160a01b031663fc0c546a6040518163ffffffff1660e01b8152600401602060405180830381865afa158015610783573d6000803e3d6000fd5b505050506040513d601f19601f820116820180604052508101906107a79190610e83565b6040516370a0823160e01b81523360048201526001600160a01b0391909116906370a0823190602401602060405180830381865afa1580156107ed573d6000803e3d6000fd5b505050506040513d601f19601f820116820180604052508101906108119190610ea0565b1161082e5760405162461bcd60e51b815260040161021a90610eb9565b856001600160a01b0316633765edcf86886000632ab1a72660e01b896040516024016104609190611091565b6033546001600160a01b031633146108b45760405162461bcd60e51b815260206004820181905260248201527f4f776e61626c653a2063616c6c6572206973206e6f7420746865206f776e6572604482015260640161021a565b6001600160a01b0381166109195760405162461bcd60e51b815260206004820152602660248201527f4f776e61626c653a206e6577206f776e657220697320746865207a65726f206160448201526564647265737360d01b606482015260840161021a565b61073d815b603380546001600160a01b038381166001600160a01b0319831681179093556040519116919082907f8be0079c531659141344cd1fd0a4f28419497f9722a3daafe3b4186f6b6457e090600090a35050565b60008054610100900460ff16156109b7578160ff1660011480156109935750303b155b6109af5760405162461bcd60e51b815260040161021a906110a4565b506000919050565b60005460ff8084169116106109de5760405162461bcd60e51b815260040161021a906110a4565b506000805460ff191660ff92909216919091179055600190565b600054610100900460ff16610a1f5760405162461bcd60e51b815260040161021a906110f2565b61055b600054610100900460ff16610a495760405162461bcd60e51b815260040161021a906110f2565b61055b3361091e565b6001600160a01b038116811461073d57600080fd5b634e487b7160e01b600052604160045260246000fd5b604051610160810167ffffffffffffffff81118282101715610aa157610aa1610a67565b60405290565b604051601f8201601f1916810167ffffffffffffffff81118282101715610ad057610ad0610a67565b604052919050565b600082601f830112610ae957600080fd5b813567ffffffffffffffff811115610b0357610b03610a67565b610b16601f8201601f1916602001610aa7565b818152846020838601011115610b2b57600080fd5b816020850160208301376000918101602001919091529392505050565b60008060008060008060c08789031215610b6157600080fd5b8635610b6c81610a52565b9550602087013594506040870135610b8381610a52565b93506060870135610b9381610a52565b92506080870135915060a087013567ffffffffffffffff811115610bb657600080fd5b610bc289828a01610ad8565b9150509295509295509295565b600082601f830112610be057600080fd5b8135602067ffffffffffffffff821115610bfc57610bfc610a67565b8160051b610c0b828201610aa7565b9283528481018201928281019087851115610c2557600080fd5b83870192505b848310156106c0578235610c3e81610a52565b82529183019190830190610c2b565b60008060008060808587031215610c6357600080fd5b8435610c6e81610a52565b935060208501359250604085013567ffffffffffffffff80821115610c9257600080fd5b908601906101608289031215610ca757600080fd5b610caf610a7d565b823582811115610cbe57600080fd5b610cca8a828601610ad8565b8252506020830135602082015260408301356040820152606083013560608201526080830135608082015260a083013560a082015260c083013560c082015260e083013560e08201526101008084013581830152506101208084013581830152506101408084013583811115610d3f57600080fd5b610d4b8b828701610bcf565b828401525050809450506060870135915080821115610d6957600080fd5b50610d7687828801610ad8565b91505092959194509250565b600080600080600060a08688031215610d9a57600080fd5b8535610da581610a52565b9450602086013593506040860135610dbc81610a52565b925060608601359150608086013567ffffffffffffffff811115610ddf57600080fd5b610deb88828901610ad8565b9150509295509295909350565b60008060008060808587031215610e0e57600080fd5b8435610e1981610a52565b935060208501359250604085013567ffffffffffffffff80821115610e3d57600080fd5b610e4988838901610ad8565b93506060870135915080821115610d6957600080fd5b600060208284031215610e7157600080fd5b8135610e7c81610a52565b9392505050565b600060208284031215610e9557600080fd5b8151610e7c81610a52565b600060208284031215610eb257600080fd5b5051919050565b6020808252600f908201526e2737ba1039b430b932b437b63232b960891b604082015260600190565b6000815180845260005b81811015610f0857602081850181015186830182015201610eec565b81811115610f1a576000602083870101525b50601f01601f19169290920160200192915050565b85815260018060a01b038516602082015283604082015260a060608201526000610f5c60a0830185610ee2565b82810360808401526102d98185610ee2565b600081518084526020808501945080840160005b83811015610fa75781516001600160a01b031687529582019590820190600101610f82565b509495945050505050565b6020815260008251610160806020850152610fd1610180850183610ee2565b9150602085015160408501526040850151606085015260608501516080850152608085015160a085015260a085015160c085015260c085015160e085015260e0850151610100818187015280870151915050610120818187015280870151915050610140818187015280870151915050601f1985840301828601526104ed8382610f6e565b84815260018060a01b038416602082015282604082015260a06060820152600060a082015260c0608082015260006104ed60c0830184610ee2565b602081526000610e7c6020830184610ee2565b6020808252602e908201527f496e697469616c697a61626c653a20636f6e747261637420697320616c72656160408201526d191e481a5b9a5d1a585b1a5e995960921b606082015260800190565b6020808252602b908201527f496e697469616c697a61626c653a20636f6e7472616374206973206e6f74206960408201526a6e697469616c697a696e6760a81b60608201526080019056fea26469706673582212201e5a09ad7f00c70dab7a084194a3d67df54bd5067c6b09c2e1420775c41b614d64736f6c634300080d0033",
  "devdoc": {
    "kind": "dev",
    "methods": {
      "owner()": {
        "details": "Returns the address of the current owner."
      },
      "renounceOwnership()": {
        "details": "Leaves the contract without owner. It will not be possible to call `onlyOwner` functions anymore. Can only be called by the current owner. NOTE: Renouncing ownership will leave the contract without an owner, thereby removing any functionality that is only available to the owner."
      },
      "transferOwnership(address)": {
        "details": "Transfers ownership of the contract to a new account (`newOwner`). Can only be called by the current owner."
      }
    },
    "version": 1
  },
  "userdoc": {
    "kind": "user",
    "methods": {},
    "version": 1
  },
  "storageLayout": {
    "storage": [
      {
        "astId": 208,
        "contract": "contracts/ProposalGateway.sol:ProposalGateway",
        "label": "_initialized",
        "offset": 0,
        "slot": "0",
        "type": "t_uint8"
      },
      {
        "astId": 211,
        "contract": "contracts/ProposalGateway.sol:ProposalGateway",
        "label": "_initializing",
        "offset": 1,
        "slot": "0",
        "type": "t_bool"
      },
      {
        "astId": 2536,
        "contract": "contracts/ProposalGateway.sol:ProposalGateway",
        "label": "__gap",
        "offset": 0,
        "slot": "1",
        "type": "t_array(t_uint256)50_storage"
      },
      {
        "astId": 10,
        "contract": "contracts/ProposalGateway.sol:ProposalGateway",
        "label": "_owner",
        "offset": 0,
        "slot": "51",
        "type": "t_address"
      },
      {
        "astId": 122,
        "contract": "contracts/ProposalGateway.sol:ProposalGateway",
        "label": "__gap",
        "offset": 0,
        "slot": "52",
        "type": "t_array(t_uint256)49_storage"
      }
    ],
    "types": {
      "t_address": {
        "encoding": "inplace",
        "label": "address",
        "numberOfBytes": "20"
      },
      "t_array(t_uint256)49_storage": {
        "base": "t_uint256",
        "encoding": "inplace",
        "label": "uint256[49]",
        "numberOfBytes": "1568"
      },
      "t_array(t_uint256)50_storage": {
        "base": "t_uint256",
        "encoding": "inplace",
        "label": "uint256[50]",
        "numberOfBytes": "1600"
      },
      "t_bool": {
        "encoding": "inplace",
        "label": "bool",
        "numberOfBytes": "1"
      },
      "t_uint256": {
        "encoding": "inplace",
        "label": "uint256",
        "numberOfBytes": "32"
      },
      "t_uint8": {
        "encoding": "inplace",
        "label": "uint8",
        "numberOfBytes": "1"
      }
    }
  }
}