{
  "address": "0xa0c21ca3a9fdf018871e6bda272a9e6776a36adc",
  "abi": [
    {
      "anonymous": false,
      "inputs": [
        {
          "indexed": false,
          "internalType": "uint8",
          "name": "version",
          "type": "uint8"
        }
      ],
      "name": "Initialized",
      "type": "event"
    },
    {
      "anonymous": false,
      "inputs": [
        {
          "indexed": true,
          "internalType": "address",
          "name": "previousOwner",
          "type": "address"
        },
        {
          "indexed": true,
          "internalType": "address",
          "name": "newOwner",
          "type": "address"
        }
      ],
      "name": "OwnershipTransferred",
      "type": "event"
    },
    {
      "inputs": [
        {
          "internalType": "contract IPool",
          "name": "pool",
          "type": "address"
        },
        {
          "internalType": "uint256",
          "name": "ballotQuorumThreshold",
          "type": "uint256"
        },
        {
          "internalType": "uint256",
          "name": "ballotDecisionThreshold",
          "type": "uint256"
        },
        {
          "internalType": "uint256",
          "name": "ballotLifespan",
          "type": "uint256"
        },
        {
          "internalType": "string",
          "name": "description",
          "type": "string"
        }
      ],
      "name": "createGovernanceSettingsProposal",
      "outputs": [
        {
          "internalType": "uint256",
          "name": "proposalId",
          "type": "uint256"
        }
      ],
      "stateMutability": "nonpayable",
      "type": "function"
    },
    {
      "inputs": [
        {
          "internalType": "contract IPool",
          "name": "pool",
          "type": "address"
        },
        {
          "components": [
            {
              "internalType": "string",
              "name": "metadataURI",
              "type": "string"
            },
            {
              "internalType": "uint256",
              "name": "price",
              "type": "uint256"
            },
            {
              "internalType": "uint256",
              "name": "hardcap",
              "type": "uint256"
            },
            {
              "internalType": "uint256",
              "name": "softcap",
              "type": "uint256"
            },
            {
              "internalType": "uint256",
              "name": "minPurchase",
              "type": "uint256"
            },
            {
              "internalType": "uint256",
              "name": "maxPurchase",
              "type": "uint256"
            },
            {
              "internalType": "uint256",
              "name": "lockupPercent",
              "type": "uint256"
            },
            {
              "internalType": "uint256",
              "name": "lockupDuration",
              "type": "uint256"
            },
            {
              "internalType": "uint256",
              "name": "lockupTVL",
              "type": "uint256"
            },
            {
              "internalType": "uint256",
              "name": "duration",
              "type": "uint256"
            },
            {
              "internalType": "address[]",
              "name": "userWhitelist",
              "type": "address[]"
            },
            {
              "internalType": "address",
              "name": "unitOfAccount",
              "type": "address"
            }
          ],
          "internalType": "struct ITGE.TGEInfo",
          "name": "info",
          "type": "tuple"
        },
        {
          "internalType": "string",
          "name": "description",
          "type": "string"
        }
      ],
      "name": "createTGEProposal",
      "outputs": [
        {
          "internalType": "uint256",
          "name": "proposalId",
          "type": "uint256"
        }
      ],
      "stateMutability": "nonpayable",
      "type": "function"
    },
    {
      "inputs": [
        {
          "internalType": "contract IPool",
          "name": "pool",
          "type": "address"
        },
        {
          "internalType": "address",
          "name": "token",
          "type": "address"
        },
        {
          "internalType": "address",
          "name": "to",
          "type": "address"
        },
        {
          "internalType": "uint256",
          "name": "value",
          "type": "uint256"
        },
        {
          "internalType": "string",
          "name": "description",
          "type": "string"
        }
      ],
      "name": "createTransferERC20Proposal",
      "outputs": [
        {
          "internalType": "uint256",
          "name": "proposalId",
          "type": "uint256"
        }
      ],
      "stateMutability": "nonpayable",
      "type": "function"
    },
    {
      "inputs": [
        {
          "internalType": "contract IPool",
          "name": "pool",
          "type": "address"
        },
        {
          "internalType": "address",
          "name": "to",
          "type": "address"
        },
        {
          "internalType": "uint256",
          "name": "value",
          "type": "uint256"
        },
        {
          "internalType": "string",
          "name": "description",
          "type": "string"
        }
      ],
      "name": "createTransferETHProposal",
      "outputs": [
        {
          "internalType": "uint256",
          "name": "proposalId",
          "type": "uint256"
        }
      ],
      "stateMutability": "nonpayable",
      "type": "function"
    },
    {
      "inputs": [],
      "name": "initialize",
      "outputs": [],
      "stateMutability": "nonpayable",
      "type": "function"
    },
    {
      "inputs": [],
      "name": "owner",
      "outputs": [
        {
          "internalType": "address",
          "name": "",
          "type": "address"
        }
      ],
      "stateMutability": "view",
      "type": "function"
    },
    {
      "inputs": [],
      "name": "renounceOwnership",
      "outputs": [],
      "stateMutability": "nonpayable",
      "type": "function"
    },
    {
      "inputs": [
        {
          "internalType": "address",
          "name": "newOwner",
          "type": "address"
        }
      ],
      "name": "transferOwnership",
      "outputs": [],
      "stateMutability": "nonpayable",
      "type": "function"
    }
  ],
  "transactionHash": "0x67ca03809e19eb08a1c6148a113f29f99b9d2b34e5a7f05d83dddd883eb75331",
  "args": [],
  "numDeployments": 3,
  "solcInputHash": "01980dfa933470ac6d6b3578f526aa51",
  "bytecode": "0x608060405234801561001057600080fd5b50611178806100206000396000f3fe608060405234801561001057600080fd5b50600436106100885760003560e01c8063e50cfd221161005b578063e50cfd22146100e0578063f0e5b1c4146100f3578063f0eae65214610106578063f2fde38b1461011957600080fd5b8063388ef0fb1461008d578063715018a6146100b35780638129fc1c146100bd5780638da5cb5b146100c5575b600080fd5b6100a061009b366004610b6f565b61012c565b6040519081526020015b60405180910390f35b6100bb6102ef565b005b6100bb610355565b6033546040516001600160a01b0390911681526020016100aa565b6100a06100ee366004610c6c565b6103ca565b6100a0610101366004610da7565b6105d9565b6100a0610114366004610dfb565b610706565b6100bb610127366004610e67565b610871565b6000856000816001600160a01b031663fc0c546a6040518163ffffffff1660e01b8152600401602060405180830381865afa15801561016f573d6000803e3d6000fd5b505050506040513d601f19601f820116820180604052508101906101939190610e8b565b6040516370a0823160e01b81523360048201526001600160a01b0391909116906370a0823190602401602060405180830381865afa1580156101d9573d6000803e3d6000fd5b505050506040513d601f19601f820116820180604052508101906101fd9190610ea8565b116102235760405162461bcd60e51b815260040161021a90610ec1565b60405180910390fd5b6040516001600160a01b038681166024830152604482018690528816906309e252c490889060009063a9059cbb60e01b906064015b60408051601f198184030181529181526020820180516001600160e01b03166001600160e01b03199485161790525160e086901b90921682526102a19392918990600401610f37565b6020604051808303816000875af11580156102c0573d6000803e3d6000fd5b505050506040513d601f19601f820116820180604052508101906102e49190610ea8565b979650505050505050565b6033546001600160a01b031633146103495760405162461bcd60e51b815260206004820181905260248201527f4f776e61626c653a2063616c6c6572206973206e6f7420746865206f776e6572604482015260640161021a565b6103536000610935565b565b60006103616001610987565b90508015610379576000805461ff0019166101001790555b610381610a14565b80156103c7576000805461ff0019169055604051600181527f7f26b83ff96e1f2b6a682f133852f6798a09c465da95921460cefb38474024989060200160405180910390a15b50565b6000836000816001600160a01b031663fc0c546a6040518163ffffffff1660e01b8152600401602060405180830381865afa15801561040d573d6000803e3d6000fd5b505050506040513d601f19601f820116820180604052508101906104319190610e8b565b6040516370a0823160e01b81523360048201526001600160a01b0391909116906370a0823190602401602060405180830381865afa158015610477573d6000803e3d6000fd5b505050506040513d601f19601f8201168201806040525081019061049b9190610ea8565b116104b85760405162461bcd60e51b815260040161021a90610ec1565b846001600160a01b03166309e252c4866001600160a01b031663d598d4c96040518163ffffffff1660e01b8152600401602060405180830381865afa158015610505573d6000803e3d6000fd5b505050506040513d601f19601f820116820180604052508101906105299190610e8b565b6000636e0e69f960e01b886040516024016105449190610fb4565b60408051601f198184030181529181526020820180516001600160e01b03166001600160e01b03199485161790525160e086901b909216825261058d9392918990600401610f37565b6020604051808303816000875af11580156105ac573d6000803e3d6000fd5b505050506040513d601f19601f820116820180604052508101906105d09190610ea8565b95945050505050565b6000856000816001600160a01b031663fc0c546a6040518163ffffffff1660e01b8152600401602060405180830381865afa15801561061c573d6000803e3d6000fd5b505050506040513d601f19601f820116820180604052508101906106409190610e8b565b6040516370a0823160e01b81523360048201526001600160a01b0391909116906370a0823190602401602060405180830381865afa158015610686573d6000803e3d6000fd5b505050506040513d601f19601f820116820180604052508101906106aa9190610ea8565b116106c75760405162461bcd60e51b815260040161021a90610ec1565b6040516024810187905260448101869052606481018590526001600160a01b038816906309e252c4908990600090630168dfb560e41b90608401610258565b6000846000816001600160a01b031663fc0c546a6040518163ffffffff1660e01b8152600401602060405180830381865afa158015610749573d6000803e3d6000fd5b505050506040513d601f19601f8201168201806040525081019061076d9190610e8b565b6040516370a0823160e01b81523360048201526001600160a01b0391909116906370a0823190602401602060405180830381865afa1580156107b3573d6000803e3d6000fd5b505050506040513d601f19601f820116820180604052508101906107d79190610ea8565b116107f45760405162461bcd60e51b815260040161021a90610ec1565b60405163027894b160e21b81526001600160a01b038716906309e252c49061082490889088908890600401611074565b6020604051808303816000875af1158015610843573d6000803e3d6000fd5b505050506040513d601f19601f820116820180604052508101906108679190610ea8565b9695505050505050565b6033546001600160a01b031633146108cb5760405162461bcd60e51b815260206004820181905260248201527f4f776e61626c653a2063616c6c6572206973206e6f7420746865206f776e6572604482015260640161021a565b6001600160a01b0381166109305760405162461bcd60e51b815260206004820152602660248201527f4f776e61626c653a206e6577206f776e657220697320746865207a65726f206160448201526564647265737360d01b606482015260840161021a565b6103c7815b603380546001600160a01b038381166001600160a01b0319831681179093556040519116919082907f8be0079c531659141344cd1fd0a4f28419497f9722a3daafe3b4186f6b6457e090600090a35050565b60008054610100900460ff16156109ce578160ff1660011480156109aa5750303b155b6109c65760405162461bcd60e51b815260040161021a906110a9565b506000919050565b60005460ff8084169116106109f55760405162461bcd60e51b815260040161021a906110a9565b506000805460ff191660ff92909216919091179055600190565b919050565b600054610100900460ff16610a3b5760405162461bcd60e51b815260040161021a906110f7565b610353600054610100900460ff16610a655760405162461bcd60e51b815260040161021a906110f7565b61035333610935565b6001600160a01b03811681146103c757600080fd5b8035610a0f81610a6e565b634e487b7160e01b600052604160045260246000fd5b604051610180810167ffffffffffffffff81118282101715610ac857610ac8610a8e565b60405290565b604051601f8201601f1916810167ffffffffffffffff81118282101715610af757610af7610a8e565b604052919050565b600082601f830112610b1057600080fd5b813567ffffffffffffffff811115610b2a57610b2a610a8e565b610b3d601f8201601f1916602001610ace565b818152846020838601011115610b5257600080fd5b816020850160208301376000918101602001919091529392505050565b600080600080600060a08688031215610b8757600080fd5b8535610b9281610a6e565b94506020860135610ba281610a6e565b93506040860135610bb281610a6e565b925060608601359150608086013567ffffffffffffffff811115610bd557600080fd5b610be188828901610aff565b9150509295509295909350565b600082601f830112610bff57600080fd5b8135602067ffffffffffffffff821115610c1b57610c1b610a8e565b8160051b610c2a828201610ace565b9283528481018201928281019087851115610c4457600080fd5b83870192505b848310156102e4578235610c5d81610a6e565b82529183019190830190610c4a565b600080600060608486031215610c8157600080fd5b8335610c8c81610a6e565b9250602084013567ffffffffffffffff80821115610ca957600080fd5b908501906101808288031215610cbe57600080fd5b610cc6610aa4565b823582811115610cd557600080fd5b610ce189828601610aff565b8252506020830135602082015260408301356040820152606083013560608201526080830135608082015260a083013560a082015260c083013560c082015260e083013560e08201526101008084013581830152506101208084013581830152506101408084013583811115610d5657600080fd5b610d628a828701610bee565b828401525050610160610d76818501610a83565b9082015293506040860135915080821115610d9057600080fd5b50610d9d86828701610aff565b9150509250925092565b600080600080600060a08688031215610dbf57600080fd5b8535610dca81610a6e565b9450602086013593506040860135925060608601359150608086013567ffffffffffffffff811115610bd557600080fd5b60008060008060808587031215610e1157600080fd5b8435610e1c81610a6e565b93506020850135610e2c81610a6e565b925060408501359150606085013567ffffffffffffffff811115610e4f57600080fd5b610e5b87828801610aff565b91505092959194509250565b600060208284031215610e7957600080fd5b8135610e8481610a6e565b9392505050565b600060208284031215610e9d57600080fd5b8151610e8481610a6e565b600060208284031215610eba57600080fd5b5051919050565b6020808252600f908201526e2737ba1039b430b932b437b63232b960891b604082015260600190565b6000815180845260005b81811015610f1057602081850181015186830182015201610ef4565b81811115610f22576000602083870101525b50601f01601f19169290920160200192915050565b60018060a01b0385168152836020820152608060408201526000610f5e6080830185610eea565b82810360608401526102e48185610eea565b600081518084526020808501945080840160005b83811015610fa95781516001600160a01b031687529582019590820190600101610f84565b509495945050505050565b6020815260008251610180806020850152610fd36101a0850183610eea565b9150602085015160408501526040850151606085015260608501516080850152608085015160a085015260a085015160c085015260c085015160e085015260e0850151610100818187015280870151915050610120818187015280870151915050610140818187015280870151915050610160601f19868503018187015261105b8483610f70565b9601516001600160a01b03169190940152509192915050565b60018060a01b0384168152826020820152608060408201526000608082015260a0606082015260006105d060a0830184610eea565b6020808252602e908201527f496e697469616c697a61626c653a20636f6e747261637420697320616c72656160408201526d191e481a5b9a5d1a585b1a5e995960921b606082015260800190565b6020808252602b908201527f496e697469616c697a61626c653a20636f6e7472616374206973206e6f74206960408201526a6e697469616c697a696e6760a81b60608201526080019056fea2646970667358221220e149fcbaffb9f6c77b651ed2ecc15b30c4cea6b4db2c15fb36996e3a7ed2000364736f6c634300080d0033",
  "devdoc": {
    "kind": "dev",
    "methods": {
      "owner()": {
        "details": "Returns the address of the current owner."
      },
      "renounceOwnership()": {
        "details": "Leaves the contract without owner. It will not be possible to call `onlyOwner` functions anymore. Can only be called by the current owner. NOTE: Renouncing ownership will leave the contract without an owner, thereby removing any functionality that is only available to the owner."
      },
      "transferOwnership(address)": {
        "details": "Transfers ownership of the contract to a new account (`newOwner`). Can only be called by the current owner."
      }
    },
    "version": 1
  },
  "userdoc": {
    "kind": "user",
    "methods": {},
    "version": 1
  },
  "storageLayout": {
    "storage": [
      {
        "astId": 208,
        "contract": "contracts/ProposalGateway.sol:ProposalGateway",
        "label": "_initialized",
        "offset": 0,
        "slot": "0",
        "type": "t_uint8"
      },
      {
        "astId": 211,
        "contract": "contracts/ProposalGateway.sol:ProposalGateway",
        "label": "_initializing",
        "offset": 1,
        "slot": "0",
        "type": "t_bool"
      },
      {
        "astId": 2536,
        "contract": "contracts/ProposalGateway.sol:ProposalGateway",
        "label": "__gap",
        "offset": 0,
        "slot": "1",
        "type": "t_array(t_uint256)50_storage"
      },
      {
        "astId": 10,
        "contract": "contracts/ProposalGateway.sol:ProposalGateway",
        "label": "_owner",
        "offset": 0,
        "slot": "51",
        "type": "t_address"
      },
      {
        "astId": 122,
        "contract": "contracts/ProposalGateway.sol:ProposalGateway",
        "label": "__gap",
        "offset": 0,
        "slot": "52",
        "type": "t_array(t_uint256)49_storage"
      }
    ],
    "types": {
      "t_address": {
        "encoding": "inplace",
        "label": "address",
        "numberOfBytes": "20"
      },
      "t_array(t_uint256)49_storage": {
        "base": "t_uint256",
        "encoding": "inplace",
        "label": "uint256[49]",
        "numberOfBytes": "1568"
      },
      "t_array(t_uint256)50_storage": {
        "base": "t_uint256",
        "encoding": "inplace",
        "label": "uint256[50]",
        "numberOfBytes": "1600"
      },
      "t_bool": {
        "encoding": "inplace",
        "label": "bool",
        "numberOfBytes": "1"
      },
      "t_uint256": {
        "encoding": "inplace",
        "label": "uint256",
        "numberOfBytes": "32"
      },
      "t_uint8": {
        "encoding": "inplace",
        "label": "uint8",
        "numberOfBytes": "1"
      }
    }
  }
}