{
  "address": "0xdAAe5f081A53F14b925d6209F345Ee81f766154C",
  "abi": [
    {
      "inputs": [
        {
          "internalType": "contract IDirectory",
          "name": "directory_",
          "type": "address"
        },
        {
          "internalType": "address",
          "name": "poolBeacon_",
          "type": "address"
        },
        {
          "internalType": "address",
          "name": "proposalGateway_",
          "type": "address"
        },
        {
          "internalType": "address",
          "name": "tokenBeacon_",
          "type": "address"
        },
        {
          "internalType": "address",
          "name": "tgeBeacon_",
          "type": "address"
        },
        {
          "internalType": "contract IMetadata",
          "name": "metadata_",
          "type": "address"
        },
        {
          "internalType": "uint256",
          "name": "fee_",
          "type": "uint256"
        },
        {
          "internalType": "uint256[3]",
          "name": "ballotParams",
          "type": "uint256[3]"
        },
        {
          "internalType": "contract ISwapRouter",
          "name": "uniswapRouter_",
          "type": "address"
        },
        {
          "internalType": "contract IQuoter",
          "name": "uniswapQuoter_",
          "type": "address"
        },
        {
          "internalType": "contract IWhitelistedTokens",
          "name": "whitelistedTokens_",
          "type": "address"
        }
      ],
      "stateMutability": "nonpayable",
      "type": "constructor"
    },
    {
      "anonymous": false,
      "inputs": [
        {
          "indexed": false,
          "internalType": "uint256",
          "name": "fee",
          "type": "uint256"
        }
      ],
      "name": "FeeSet",
      "type": "event"
    },
    {
      "anonymous": false,
      "inputs": [
        {
          "indexed": false,
          "internalType": "uint256",
          "name": "quorumThreshold",
          "type": "uint256"
        },
        {
          "indexed": false,
          "internalType": "uint256",
          "name": "decisionThreshold",
          "type": "uint256"
        },
        {
          "indexed": false,
          "internalType": "uint256",
          "name": "lifespan",
          "type": "uint256"
        }
      ],
      "name": "GovernanceSettingsSet",
      "type": "event"
    },
    {
      "anonymous": false,
      "inputs": [
        {
          "indexed": true,
          "internalType": "address",
          "name": "previousOwner",
          "type": "address"
        },
        {
          "indexed": true,
          "internalType": "address",
          "name": "newOwner",
          "type": "address"
        }
      ],
      "name": "OwnershipTransferred",
      "type": "event"
    },
    {
      "anonymous": false,
      "inputs": [
        {
          "indexed": false,
          "internalType": "address",
          "name": "pool",
          "type": "address"
        },
        {
          "indexed": false,
          "internalType": "address",
          "name": "token",
          "type": "address"
        },
        {
          "indexed": false,
          "internalType": "address",
          "name": "tge",
          "type": "address"
        }
      ],
      "name": "PoolCreated",
      "type": "event"
    },
    {
      "anonymous": false,
      "inputs": [
        {
          "indexed": false,
          "internalType": "address",
          "name": "pool",
          "type": "address"
        },
        {
          "indexed": false,
          "internalType": "address",
          "name": "tge",
          "type": "address"
        }
      ],
      "name": "SecondaryTGECreated",
      "type": "event"
    },
    {
      "anonymous": false,
      "inputs": [
        {
          "indexed": false,
          "internalType": "address",
          "name": "token",
          "type": "address"
        },
        {
          "indexed": false,
          "internalType": "bool",
          "name": "whitelisted",
          "type": "bool"
        }
      ],
      "name": "TokenWhitelistedSet",
      "type": "event"
    },
    {
      "anonymous": false,
      "inputs": [
        {
          "indexed": false,
          "internalType": "address",
          "name": "account",
          "type": "address"
        },
        {
          "indexed": false,
          "internalType": "bool",
          "name": "whitelisted",
          "type": "bool"
        }
      ],
      "name": "UserWhitelistedSet",
      "type": "event"
    },
    {
      "inputs": [],
      "name": "ThresholdDecimals",
      "outputs": [
        {
          "internalType": "uint256",
          "name": "",
          "type": "uint256"
        }
      ],
      "stateMutability": "view",
      "type": "function"
    },
    {
      "inputs": [
        {
          "internalType": "uint256",
          "name": "proposalId",
          "type": "uint256"
        }
      ],
      "name": "addProposal",
      "outputs": [],
      "stateMutability": "nonpayable",
      "type": "function"
    },
    {
      "inputs": [
        {
          "internalType": "address",
          "name": "account",
          "type": "address"
        }
      ],
      "name": "addUserToWhitelist",
      "outputs": [],
      "stateMutability": "nonpayable",
      "type": "function"
    },
    {
      "inputs": [
        {
          "internalType": "contract IPool",
          "name": "pool",
          "type": "address"
        },
        {
          "components": [
            {
              "internalType": "string",
              "name": "name",
              "type": "string"
            },
            {
              "internalType": "string",
              "name": "symbol",
              "type": "string"
            },
            {
              "internalType": "uint256",
              "name": "cap",
              "type": "uint256"
            }
          ],
          "internalType": "struct IGovernanceToken.TokenInfo",
          "name": "tokenInfo",
          "type": "tuple"
        },
        {
          "components": [
            {
              "internalType": "string",
              "name": "metadataURI",
              "type": "string"
            },
            {
              "internalType": "uint256",
              "name": "price",
              "type": "uint256"
            },
            {
              "internalType": "uint256",
              "name": "hardcap",
              "type": "uint256"
            },
            {
              "internalType": "uint256",
              "name": "softcap",
              "type": "uint256"
            },
            {
              "internalType": "uint256",
              "name": "minPurchase",
              "type": "uint256"
            },
            {
              "internalType": "uint256",
              "name": "maxPurchase",
              "type": "uint256"
            },
            {
              "internalType": "uint256",
              "name": "lockupPercent",
              "type": "uint256"
            },
            {
              "internalType": "uint256",
              "name": "lockupDuration",
              "type": "uint256"
            },
            {
              "internalType": "uint256",
              "name": "lockupTVL",
              "type": "uint256"
            },
            {
              "internalType": "uint256",
              "name": "duration",
              "type": "uint256"
            },
            {
              "internalType": "address[]",
              "name": "userWhitelist",
              "type": "address[]"
            },
            {
              "internalType": "address",
              "name": "unitOfAccount",
              "type": "address"
            }
          ],
          "internalType": "struct ITGE.TGEInfo",
          "name": "tgeInfo",
          "type": "tuple"
        },
        {
          "internalType": "uint256",
          "name": "ballotQuorumThreshold_",
          "type": "uint256"
        },
        {
          "internalType": "uint256",
          "name": "ballotDecisionThreshold_",
          "type": "uint256"
        },
        {
          "internalType": "uint256",
          "name": "ballotLifespan_",
          "type": "uint256"
        },
        {
          "internalType": "uint256",
          "name": "jurisdiction",
          "type": "uint256"
        },
        {
          "internalType": "string",
          "name": "trademark",
          "type": "string"
        }
      ],
      "name": "createPool",
      "outputs": [],
      "stateMutability": "payable",
      "type": "function"
    },
    {
      "inputs": [
        {
          "components": [
            {
              "internalType": "string",
              "name": "metadataURI",
              "type": "string"
            },
            {
              "internalType": "uint256",
              "name": "price",
              "type": "uint256"
            },
            {
              "internalType": "uint256",
              "name": "hardcap",
              "type": "uint256"
            },
            {
              "internalType": "uint256",
              "name": "softcap",
              "type": "uint256"
            },
            {
              "internalType": "uint256",
              "name": "minPurchase",
              "type": "uint256"
            },
            {
              "internalType": "uint256",
              "name": "maxPurchase",
              "type": "uint256"
            },
            {
              "internalType": "uint256",
              "name": "lockupPercent",
              "type": "uint256"
            },
            {
              "internalType": "uint256",
              "name": "lockupDuration",
              "type": "uint256"
            },
            {
              "internalType": "uint256",
              "name": "lockupTVL",
              "type": "uint256"
            },
            {
              "internalType": "uint256",
              "name": "duration",
              "type": "uint256"
            },
            {
              "internalType": "address[]",
              "name": "userWhitelist",
              "type": "address[]"
            },
            {
              "internalType": "address",
              "name": "unitOfAccount",
              "type": "address"
            }
          ],
          "internalType": "struct ITGE.TGEInfo",
          "name": "tgeInfo",
          "type": "tuple"
        }
      ],
      "name": "createSecondaryTGE",
      "outputs": [],
      "stateMutability": "nonpayable",
      "type": "function"
    },
    {
      "inputs": [],
      "name": "directory",
      "outputs": [
        {
          "internalType": "contract IDirectory",
          "name": "",
          "type": "address"
        }
      ],
      "stateMutability": "view",
      "type": "function"
    },
    {
      "inputs": [],
      "name": "fee",
      "outputs": [
        {
          "internalType": "uint256",
          "name": "",
          "type": "uint256"
        }
      ],
      "stateMutability": "view",
      "type": "function"
    },
    {
      "inputs": [],
      "name": "getBallotDecisionThreshold",
      "outputs": [
        {
          "internalType": "uint256",
          "name": "",
          "type": "uint256"
        }
      ],
      "stateMutability": "view",
      "type": "function"
    },
    {
      "inputs": [],
      "name": "getBallotLifespan",
      "outputs": [
        {
          "internalType": "uint256",
          "name": "",
          "type": "uint256"
        }
      ],
      "stateMutability": "view",
      "type": "function"
    },
    {
      "inputs": [],
      "name": "getBallotQuorumThreshold",
      "outputs": [
        {
          "internalType": "uint256",
          "name": "",
          "type": "uint256"
        }
      ],
      "stateMutability": "view",
      "type": "function"
    },
    {
      "inputs": [
        {
          "internalType": "address",
          "name": "account",
          "type": "address"
        }
      ],
      "name": "isUserWhitelisted",
      "outputs": [
        {
          "internalType": "bool",
          "name": "",
          "type": "bool"
        }
      ],
      "stateMutability": "view",
      "type": "function"
    },
    {
      "inputs": [],
      "name": "metadata",
      "outputs": [
        {
          "internalType": "contract IMetadata",
          "name": "",
          "type": "address"
        }
      ],
      "stateMutability": "view",
      "type": "function"
    },
    {
      "inputs": [],
      "name": "owner",
      "outputs": [
        {
          "internalType": "address",
          "name": "",
          "type": "address"
        }
      ],
      "stateMutability": "view",
      "type": "function"
    },
    {
      "inputs": [],
      "name": "poolBeacon",
      "outputs": [
        {
          "internalType": "address",
          "name": "",
          "type": "address"
        }
      ],
      "stateMutability": "view",
      "type": "function"
    },
    {
      "inputs": [],
      "name": "proposalGateway",
      "outputs": [
        {
          "internalType": "address",
          "name": "",
          "type": "address"
        }
      ],
      "stateMutability": "view",
      "type": "function"
    },
    {
      "inputs": [],
      "name": "proposalQuorum",
      "outputs": [
        {
          "internalType": "uint256",
          "name": "",
          "type": "uint256"
        }
      ],
      "stateMutability": "view",
      "type": "function"
    },
    {
      "inputs": [],
      "name": "proposalThreshold",
      "outputs": [
        {
          "internalType": "uint256",
          "name": "",
          "type": "uint256"
        }
      ],
      "stateMutability": "view",
      "type": "function"
    },
    {
      "inputs": [
        {
          "internalType": "address",
          "name": "account",
          "type": "address"
        }
      ],
      "name": "removeUserFromWhitelist",
      "outputs": [],
      "stateMutability": "nonpayable",
      "type": "function"
    },
    {
      "inputs": [],
      "name": "renounceOwnership",
      "outputs": [],
      "stateMutability": "nonpayable",
      "type": "function"
    },
    {
      "inputs": [
        {
          "internalType": "uint256",
          "name": "fee_",
          "type": "uint256"
        }
      ],
      "name": "setFee",
      "outputs": [],
      "stateMutability": "nonpayable",
      "type": "function"
    },
    {
      "inputs": [
        {
          "internalType": "uint256",
          "name": "ballotQuorumThreshold_",
          "type": "uint256"
        },
        {
          "internalType": "uint256",
          "name": "ballotDecisionThreshold_",
          "type": "uint256"
        },
        {
          "internalType": "uint256",
          "name": "ballotLifespan_",
          "type": "uint256"
        }
      ],
      "name": "setGovernanceSettings",
      "outputs": [],
      "stateMutability": "nonpayable",
      "type": "function"
    },
    {
      "inputs": [
        {
          "internalType": "address",
          "name": "poolBeacon_",
          "type": "address"
        }
      ],
      "name": "setPoolBeacon",
      "outputs": [],
      "stateMutability": "nonpayable",
      "type": "function"
    },
    {
      "inputs": [
        {
          "internalType": "address",
          "name": "tgeBeacon_",
          "type": "address"
        }
      ],
      "name": "setTGEBeacon",
      "outputs": [],
      "stateMutability": "nonpayable",
      "type": "function"
    },
    {
      "inputs": [
        {
          "internalType": "address",
          "name": "tokenBeacon_",
          "type": "address"
        }
      ],
      "name": "setTokenBeacon",
      "outputs": [],
      "stateMutability": "nonpayable",
      "type": "function"
    },
    {
      "inputs": [],
      "name": "tgeBeacon",
      "outputs": [
        {
          "internalType": "address",
          "name": "",
          "type": "address"
        }
      ],
      "stateMutability": "view",
      "type": "function"
    },
    {
      "inputs": [],
      "name": "tokenBeacon",
      "outputs": [
        {
          "internalType": "address",
          "name": "",
          "type": "address"
        }
      ],
      "stateMutability": "view",
      "type": "function"
    },
    {
      "inputs": [],
      "name": "tokenWhitelist",
      "outputs": [
        {
          "internalType": "address[]",
          "name": "",
          "type": "address[]"
        }
      ],
      "stateMutability": "view",
      "type": "function"
    },
    {
      "inputs": [
        {
          "internalType": "address",
          "name": "to",
          "type": "address"
        }
      ],
      "name": "transferFunds",
      "outputs": [],
      "stateMutability": "nonpayable",
      "type": "function"
    },
    {
      "inputs": [
        {
          "internalType": "address",
          "name": "newOwner",
          "type": "address"
        }
      ],
      "name": "transferOwnership",
      "outputs": [],
      "stateMutability": "nonpayable",
      "type": "function"
    },
    {
      "inputs": [],
      "name": "uniswapQuoter",
      "outputs": [
        {
          "internalType": "contract IQuoter",
          "name": "",
          "type": "address"
        }
      ],
      "stateMutability": "view",
      "type": "function"
    },
    {
      "inputs": [],
      "name": "uniswapRouter",
      "outputs": [
        {
          "internalType": "contract ISwapRouter",
          "name": "",
          "type": "address"
        }
      ],
      "stateMutability": "view",
      "type": "function"
    },
    {
      "inputs": [],
      "name": "userWhitelist",
      "outputs": [
        {
          "internalType": "address[]",
          "name": "",
          "type": "address[]"
        }
      ],
      "stateMutability": "view",
      "type": "function"
    },
    {
      "inputs": [
        {
          "internalType": "uint256",
          "name": "index",
          "type": "uint256"
        }
      ],
      "name": "userWhitelistAt",
      "outputs": [
        {
          "internalType": "address",
          "name": "",
          "type": "address"
        }
      ],
      "stateMutability": "view",
      "type": "function"
    },
    {
      "inputs": [],
      "name": "userWhitelistLength",
      "outputs": [
        {
          "internalType": "uint256",
          "name": "",
          "type": "uint256"
        }
      ],
      "stateMutability": "view",
      "type": "function"
    },
    {
      "inputs": [],
      "name": "whitelistedTokens",
      "outputs": [
        {
          "internalType": "contract IWhitelistedTokens",
          "name": "",
          "type": "address"
        }
      ],
      "stateMutability": "view",
      "type": "function"
    }
  ],
  "transactionHash": "0xda267bb16fb2aff91e854042591b4e5b273e297620be81ed3c3ebcf078a6c470",
  "args": [
    "0x7E2E490FD367C8D4dC50c2145edE9B0E1d55b61F",
    "0x73df0a68c85CBFeF108EC6664447cAeEf4E15315",
    "0x9Ea94C63D6b454fCf9a81e7Bb1db05d7f49d8ae5",
    "0xe95238Dc068A069eE0558Ce4A9E7DC6C59Fd6B25",
    "0x090B0FCd34C905d6BEA873Ff2C2C0A65Aa18677E",
    "0x657678294425d55EC2c81D510A56768AA8025E89",
    "0",
    [
      "50",
      "25",
      "50"
    ],
    "0xe592427a0aece92de3edee1f18e0157c05861564",
    "0xb27308f9f90d607463bb33ea1bebb41c27ce5ab6",
    "0x3fd37C8Cc82b25E0a221F09Aa1f3957e7b7b715c"
  ],
  "numDeployments": 1,
  "solcInputHash": "997243aed0f6d9a9bf25071fa8e11a98",
  "bytecode": "0x60806040523480156200001157600080fd5b5060405162003a9238038062003a928339810160408190526200003491620001ea565b6200003f336200016f565b600280546001600160a01b038d81166001600160a01b031992831617909255600480548c8416908316179055600580548d8416908316179055600680548b8416908316179055600780548a84169083161790556001805489841690831617905560088790558551600b55602080870151600c55604080880151600d55600e80548416888616179055600f80548416878616179055600380549093169385169390931790915590518681527f20461e09b8e557b77e107939f9ce6544698123aad0fc964ac5cc59b7df2e608f910160405180910390a183516020808601516040808801518151948552928401919091528201527fae6075a1f7b230b994c46ac23890f3aea156bbf1195be708ad574a240164a6559060600160405180910390a1505050505050505050505062000341565b600080546001600160a01b038381166001600160a01b0319831681178455604051919092169283917f8be0079c531659141344cd1fd0a4f28419497f9722a3daafe3b4186f6b6457e09190a35050565b6001600160a01b0381168114620001d557600080fd5b50565b8051620001e581620001bf565b919050565b60008060008060008060008060008060006101a08c8e0312156200020d57600080fd5b8b516200021a81620001bf565b60208d0151909b506200022d81620001bf565b60408d0151909a506200024081620001bf565b60608d01519099506200025381620001bf565b60808d01519098506200026681620001bf565b60a08d01519097506200027981620001bf565b8096505060c08c015194508c60ff8d01126200029457600080fd5b604051606081016001600160401b0381118282101715620002c557634e487b7160e01b600052604160045260246000fd5b604052806101408e018f811115620002dc57600080fd5b60e08f015b81811015620002fb578051835260209283019201620002e1565b508296506200030a81620001d8565b95505050506200031e6101608d01620001d8565b91506200032f6101808d01620001d8565b90509295989b509295989b9093969950565b61374180620003516000396000f3fe6080604052600436106200022f5760003560e01c806394218737116200012f578063d419f54711620000ad578063e39ff19f1162000078578063e39ff19f1462000601578063f2fde38b1462000626578063f7f5e5a6146200064b578063f9902bb11462000670578063fb237eb2146200069557600080fd5b8063d419f5471462000595578063da96043114620005ba578063dad01e5b14620005d1578063ddca3f4314620005e957600080fd5b8063b58131b011620000fa578063b58131b014620004ff578063c41c2f241462000517578063c5a7b2ea1462000539578063ca735cc1146200055b578063ccf5a77c146200057357600080fd5b80639421873714620004845780639459c17314620004ab5780639a0b6f9b14620004d0578063a1db8b4c14620004e857600080fd5b806369fe0e2d11620001bd578063735de9f71162000188578063735de9f714620003e5578063747b8050146200040757806378809b83146200042c57806386c36a6b146200044d5780638da5cb5b146200046457600080fd5b806369fe0e2d146200036c5780636aca4f4914620003915780636e0e69f914620003a8578063715018a614620003cd57600080fd5b8063392f37e911620001fe578063392f37e914620002e15780633fec91a414620003035780634db4a35214620003285780635e1762a0146200034a57600080fd5b806301569ab0146200023457806304e31dfb14620002735780630f842e0c1462000295578063168dfb5014620002bc575b600080fd5b3480156200024157600080fd5b5060075462000256906001600160a01b031681565b6040516001600160a01b0390911681526020015b60405180910390f35b3480156200028057600080fd5b5060045462000256906001600160a01b031681565b348015620002a257600080fd5b50620002ba620002b4366004620021f0565b620006cb565b005b348015620002c957600080fd5b50620002ba620002db36600462002210565b6200074c565b348015620002ee57600080fd5b5060015462000256906001600160a01b031681565b3480156200031057600080fd5b50620002ba620003223660046200223d565b620008c1565b3480156200033557600080fd5b50600f5462000256906001600160a01b031681565b3480156200035757600080fd5b5060035462000256906001600160a01b031681565b3480156200037957600080fd5b50620002ba6200038b3660046200223d565b620009e1565b620002ba620003a2366004620025a7565b62000a4a565b348015620003b557600080fd5b50620002ba620003c736600462002673565b620015d1565b348015620003da57600080fd5b50620002ba62001a98565b348015620003f257600080fd5b50600e5462000256906001600160a01b031681565b3480156200041457600080fd5b50620002ba62000426366004620021f0565b62001ad3565b3480156200043957600080fd5b50600c545b6040519081526020016200026a565b3480156200045a57600080fd5b506200043e600281565b3480156200047157600080fd5b506000546001600160a01b031662000256565b3480156200049157600080fd5b506200049c62001b96565b6040516200026a9190620026b4565b348015620004b857600080fd5b5062000256620004ca3660046200223d565b62001ba4565b348015620004dd57600080fd5b506200043e60095481565b348015620004f557600080fd5b50600b546200043e565b3480156200050c57600080fd5b506200043e600a5481565b3480156200052457600080fd5b5060025462000256906001600160a01b031681565b3480156200054657600080fd5b5060055462000256906001600160a01b031681565b3480156200056857600080fd5b506200049c62001bb9565b3480156200058057600080fd5b5060065462000256906001600160a01b031681565b348015620005a257600080fd5b50620002ba620005b4366004620021f0565b62001c2e565b348015620005c757600080fd5b50600d546200043e565b348015620005de57600080fd5b506200043e62001ca6565b348015620005f657600080fd5b506200043e60085481565b3480156200060e57600080fd5b50620002ba62000620366004620021f0565b62001cb4565b3480156200063357600080fd5b50620002ba62000645366004620021f0565b62001d18565b3480156200065857600080fd5b50620002ba6200066a366004620021f0565b62001dba565b3480156200067d57600080fd5b50620002ba6200068f366004620021f0565b62001e32565b348015620006a257600080fd5b50620006ba620006b4366004620021f0565b62001efa565b60405190151581526020016200026a565b6000546001600160a01b03163314620007015760405162461bcd60e51b8152600401620006f89062002703565b60405180910390fd5b6001600160a01b0381166200072a5760405162461bcd60e51b8152600401620006f89062002738565b600780546001600160a01b0319166001600160a01b0392909216919091179055565b6000546001600160a01b03163314620007795760405162461bcd60e51b8152600401620006f89062002703565b612710831115620007cd5760405162461bcd60e51b815260206004820152601d60248201527f496e76616c69642062616c6c6f7451756f72756d5468726573686f6c640000006044820152606401620006f8565b612710821115620008215760405162461bcd60e51b815260206004820152601f60248201527f496e76616c69642062616c6c6f744465636973696f6e5468726573686f6c64006044820152606401620006f8565b600081116200086c5760405162461bcd60e51b815260206004820152601660248201527524b73b30b634b2103130b63637ba2634b332b9b830b760511b6044820152606401620006f8565b600b839055600c829055600d81905560408051848152602081018490529081018290527fae6075a1f7b230b994c46ac23890f3aea156bbf1195be708ad574a240164a6559060600160405180910390a1505050565b600254604051630db9619f60e31b81523360048201526001916001600160a01b031690636dcb0cf890602401602060405180830381865afa1580156200090b573d6000803e3d6000fd5b505050506040513d601f19601f8201168201806040525081019062000931919062002777565b600381111562000945576200094562002761565b14620009655760405162461bcd60e51b8152600401620006f8906200279a565b60025460405163f4be936960e01b8152336004820152602481018390526001600160a01b039091169063f4be9369906044016020604051808303816000875af1158015620009b7573d6000803e3d6000fd5b505050506040513d601f19601f82011682018060405250810190620009dd9190620027be565b5050565b6000546001600160a01b0316331462000a0e5760405162461bcd60e51b8152600401620006f89062002703565b60088190556040518181527f20461e09b8e557b77e107939f9ce6544698123aad0fc964ac5cc59b7df2e608f906020015b60405180910390a150565b62000a553362001efa565b62000a955760405162461bcd60e51b815260206004820152600f60248201526e139bdd081dda1a5d195b1a5cdd1959608a1b6044820152606401620006f8565b60035461016087015160405163b5af090f60e01b81526001600160a01b03918216600482015291169063b5af090f90602401602060405180830381865afa15801562000ae5573d6000803e3d6000fd5b505050506040513d601f19601f8201168201806040525081019062000b0b9190620027d8565b8062000b2357506101608601516001600160a01b0316155b62000b695760405162461bcd60e51b8152602060048201526015602482015274125b9d985b1a5908155b9a5d13d99058d8dbdd5b9d605a1b6044820152606401620006f8565b6001600160a01b03881662000ecd57600854341462000bc25760405162461bcd60e51b8152602060048201526014602482015273125b98dbdc9c9958dd08199959481c185cdcd95960621b6044820152606401620006f8565b600154604051630ca3d0fb60e01b8152600481018490526000916001600160a01b031690630ca3d0fb906024016020604051808303816000875af115801562000c0f573d6000803e3d6000fd5b505050506040513d601f19601f8201168201806040525081019062000c359190620027be565b90506000811162000c895760405162461bcd60e51b815260206004820152601b60248201527f4176616c6961626c6520636f6d70616e79206e6f7420666f756e6400000000006044820152606401620006f8565b600154604051630d1e6acd60e11b8152600481018390526000916001600160a01b031690631a3cd59a90602401600060405180830381865afa15801562000cd4573d6000803e3d6000fd5b505050506040513d6000823e601f3d908101601f1916820160405262000cfe91908101906200287b565b6005546040519192506001600160a01b03169062000d1c90620021ba565b62000d28919062002921565b604051809103906000f08015801562000d45573d6000803e3d6000fd5b5099506001600160a01b038a1663acec84dc3386846000602002015185600160200201518660026020020151876003602002015188600460200201518f8f8f8e6040518c63ffffffff1660e01b815260040162000dad9b9a9998979695949392919062002988565b600060405180830381600087803b15801562000dc857600080fd5b505af115801562000ddd573d6000803e3d6000fd5b5050600154604051637fd3924760e01b8152600481018690526001600160a01b038e811660248301529091169250637fd392479150604401600060405180830381600087803b15801562000e3057600080fd5b505af115801562000e45573d6000803e3d6000fd5b50506002546040516303203cd960e21b81526001600160a01b039091169250630c80f364915062000e7e908d9060019060040162002a4b565b6020604051808303816000875af115801562000e9e573d6000803e3d6000fd5b505050506040513d601f19601f8201168201806040525081019062000ec49190620027be565b50505062001168565b600254604051630db9619f60e31b81526001600160a01b038a811660048301526001921690636dcb0cf890602401602060405180830381865afa15801562000f19573d6000803e3d6000fd5b505050506040513d601f19601f8201168201806040525081019062000f3f919062002777565b600381111562000f535762000f5362002761565b1462000f735760405162461bcd60e51b8152600401620006f8906200279a565b876001600160a01b0316638da5cb5b6040518163ffffffff1660e01b8152600401602060405180830381865afa15801562000fb2573d6000803e3d6000fd5b505050506040513d601f19601f8201168201806040525081019062000fd8919062002a87565b6001600160a01b0316336001600160a01b0316146200103a5760405162461bcd60e51b815260206004820152601860248201527f53656e646572206973206e6f7420706f6f6c206f776e657200000000000000006044820152606401620006f8565b6001886001600160a01b031663a7497fa56040518163ffffffff1660e01b8152600401602060405180830381865afa1580156200107b573d6000803e3d6000fd5b505050506040513d601f19601f82011682018060405250810190620010a1919062002a87565b6001600160a01b031663c19d93fb6040518163ffffffff1660e01b8152600401602060405180830381865afa158015620010df573d6000803e3d6000fd5b505050506040513d601f19601f8201168201806040525081019062001105919062002aa7565b600281111562001119576200111962002761565b14620011685760405162461bcd60e51b815260206004820152601760248201527f50726576696f757320544745206e6f74206661696c65640000000000000000006044820152606401620006f8565b6006546040516000916001600160a01b0316906200118690620021ba565b62001192919062002921565b604051809103906000f080158015620011af573d6000803e3d6000fd5b50600280546040516303203cd960e21b81529293506001600160a01b031691630c80f36491620011e59185919060040162002a4b565b6020604051808303816000875af115801562001205573d6000803e3d6000fd5b505050506040513d601f19601f820116820180604052508101906200122b9190620027be565b506007546040516000916001600160a01b0316906200124a90620021ba565b62001256919062002921565b604051809103906000f08015801562001273573d6000803e3d6000fd5b506002546040516303203cd960e21b81529192506001600160a01b031690630c80f36490620012aa90849060039060040162002a4b565b6020604051808303816000875af1158015620012ca573d6000803e3d6000fd5b505050506040513d601f19601f82011682018060405250810190620012f09190620027be565b506001600160a01b038a166200136a576040516322ae8aef60e01b81526001600160a01b038316906322ae8aef9062001330908d908d9060040162002aca565b600060405180830381600087803b1580156200134b57600080fd5b505af115801562001360573d6000803e3d6000fd5b5050505062001459565b816001600160a01b03166322ae8aef8b60405180606001604052808e6001600160a01b0316630f74fdb06040518163ffffffff1660e01b8152600401600060405180830381865afa158015620013c4573d6000803e3d6000fd5b505050506040513d6000823e601f3d908101601f19168201604052620013ee919081019062002b2d565b81526020018d6020015181526020018d604001518152506040518363ffffffff1660e01b81526004016200142492919062002aca565b600060405180830381600087803b1580156200143f57600080fd5b505af115801562001454573d6000803e3d6000fd5b505050505b60405163144fa6d760e01b81526001600160a01b0383811660048301528b169063144fa6d790602401600060405180830381600087803b1580156200149d57600080fd5b505af1158015620014b2573d6000803e3d6000fd5b5050604051633a7d190b60e01b81526001600160a01b0384169250633a7d190b9150620014e890339086908d9060040162002bac565b600060405180830381600087803b1580156200150357600080fd5b505af115801562001518573d6000803e3d6000fd5b505060405163024aa90f60e61b81526001600160a01b0384811660048301528d1692506392aa43c09150602401600060405180830381600087803b1580156200156057600080fd5b505af115801562001575573d6000803e3d6000fd5b5050604080516001600160a01b038e81168252868116602083015285168183015290517f9c5d829b9b23efc461f9aeef91979ec04bb903feb3bee4f26d22114abfc7335b9350908190036060019150a150505050505050505050565b600254604051630db9619f60e31b81523360048201526001916001600160a01b031690636dcb0cf890602401602060405180830381865afa1580156200161b573d6000803e3d6000fd5b505050506040513d601f19601f8201168201806040525081019062001641919062002777565b600381111562001655576200165562002761565b14620016755760405162461bcd60e51b8152600401620006f8906200279a565b6000336001600160a01b031663a7497fa56040518163ffffffff1660e01b8152600401602060405180830381865afa158015620016b6573d6000803e3d6000fd5b505050506040513d601f19601f82011682018060405250810190620016dc919062002a87565b6001600160a01b031663c19d93fb6040518163ffffffff1660e01b8152600401602060405180830381865afa1580156200171a573d6000803e3d6000fd5b505050506040513d601f19601f8201168201806040525081019062001740919062002aa7565b600281111562001754576200175462002761565b03620017945760405162461bcd60e51b815260206004820152600e60248201526d486173206163746976652054474560901b6044820152606401620006f8565b60035461016082015160405163b5af090f60e01b81526001600160a01b03918216600482015291169063b5af090f90602401602060405180830381865afa158015620017e4573d6000803e3d6000fd5b505050506040513d601f19601f820116820180604052508101906200180a9190620027d8565b806200182257506101608101516001600160a01b0316155b620018685760405162461bcd60e51b8152602060048201526015602482015274125b9d985b1a5908155b9a5d13d99058d8dbdd5b9d605a1b6044820152606401620006f8565b6007546040516000916001600160a01b0316906200188690620021ba565b62001892919062002921565b604051809103906000f080158015620018af573d6000803e3d6000fd5b506002546040516303203cd960e21b81529192506001600160a01b031690630c80f36490620018e690849060039060040162002a4b565b6020604051808303816000875af115801562001906573d6000803e3d6000fd5b505050506040513d601f19601f820116820180604052508101906200192c9190620027be565b50806001600160a01b0316633a7d190b33336001600160a01b031663fc0c546a6040518163ffffffff1660e01b8152600401602060405180830381865afa1580156200197c573d6000803e3d6000fd5b505050506040513d601f19601f82011682018060405250810190620019a2919062002a87565b856040518463ffffffff1660e01b8152600401620019c39392919062002bac565b600060405180830381600087803b158015620019de57600080fd5b505af1158015620019f3573d6000803e3d6000fd5b505060405163024aa90f60e61b81526001600160a01b03841660048201523392506392aa43c09150602401600060405180830381600087803b15801562001a3957600080fd5b505af115801562001a4e573d6000803e3d6000fd5b5050604080513381526001600160a01b03851660208201527f0e3dbd8c6caab1c68013fb13d63b7ff61db8fed8b3e7ce4e8e294ee1d0c22e8e935001905060405180910390a15050565b6000546001600160a01b0316331462001ac55760405162461bcd60e51b8152600401620006f89062002703565b62001ad1600062001f09565b565b6000546001600160a01b0316331462001b005760405162461bcd60e51b8152600401620006f89062002703565b62001b0d60108262001f59565b62001b515760405162461bcd60e51b8152602060048201526013602482015272105b1c9958591e481dda1a5d195b1a5cdd1959606a1b6044820152606401620006f8565b604080516001600160a01b0383168152600160208201527fdf3714d6f88cdae2b889250b70116def7fb5083073c65cce38b56d2b0b0ef64e910162000a3f565b905090565b606062001b91601062001f77565b600062001bb360108362001f86565b92915050565b6003546040805163ca735cc160e01b815290516060926001600160a01b03169163ca735cc19160048083019260009291908290030181865afa15801562001c04573d6000803e3d6000fd5b505050506040513d6000823e601f3d908101601f1916820160405262001b91919081019062002ca0565b6000546001600160a01b0316331462001c5b5760405162461bcd60e51b8152600401620006f89062002703565b6001600160a01b03811662001c845760405162461bcd60e51b8152600401620006f89062002738565b600580546001600160a01b0319166001600160a01b0392909216919091179055565b600062001b91601062001f94565b6000546001600160a01b0316331462001ce15760405162461bcd60e51b8152600401620006f89062002703565b6040516001600160a01b03821690303180156108fc02916000818181858888f19350505050158015620009dd573d6000803e3d6000fd5b6000546001600160a01b0316331462001d455760405162461bcd60e51b8152600401620006f89062002703565b6001600160a01b03811662001dac5760405162461bcd60e51b815260206004820152602660248201527f4f776e61626c653a206e6577206f776e657220697320746865207a65726f206160448201526564647265737360d01b6064820152608401620006f8565b62001db78162001f09565b50565b6000546001600160a01b0316331462001de75760405162461bcd60e51b8152600401620006f89062002703565b6001600160a01b03811662001e105760405162461bcd60e51b8152600401620006f89062002738565b600680546001600160a01b0319166001600160a01b0392909216919091179055565b6000546001600160a01b0316331462001e5f5760405162461bcd60e51b8152600401620006f89062002703565b62001e6c60108262001f9f565b62001eba5760405162461bcd60e51b815260206004820152601760248201527f416c7265616479206e6f742077686974656c69737465640000000000000000006044820152606401620006f8565b604080516001600160a01b0383168152600060208201527fdf3714d6f88cdae2b889250b70116def7fb5083073c65cce38b56d2b0b0ef64e910162000a3f565b600062001bb360108362001fb6565b600080546001600160a01b038381166001600160a01b0319831681178455604051919092169283917f8be0079c531659141344cd1fd0a4f28419497f9722a3daafe3b4186f6b6457e09190a35050565b600062001f70836001600160a01b03841662001fd9565b9392505050565b6060600062001f70836200202b565b600062001f70838362002089565b600062001bb3825490565b600062001f70836001600160a01b038416620020b6565b6001600160a01b0381166000908152600183016020526040812054151562001f70565b6000818152600183016020526040812054620020225750815460018181018455600084815260208082209093018490558454848252828601909352604090209190915562001bb3565b50600062001bb3565b6060816000018054806020026020016040519081016040528092919081815260200182805480156200207d57602002820191906000526020600020905b81548152602001906001019080831162002068575b50505050509050919050565b6000826000018281548110620020a357620020a362002944565b9060005260206000200154905092915050565b60008181526001830160205260408120548015620021af576000620020dd60018362002d45565b8554909150600090620020f39060019062002d45565b90508181146200215f57600086600001828154811062002117576200211762002944565b90600052602060002001549050808760000184815481106200213d576200213d62002944565b6000918252602080832090910192909255918252600188019052604090208390555b855486908062002173576200217362002d6b565b60019003818190600052602060002001600090559055856001016000868152602001908152602001600020600090556001935050505062001bb3565b600091505062001bb3565b61098a8062002d8283390190565b6001600160a01b038116811462001db757600080fd5b8035620021eb81620021c8565b919050565b6000602082840312156200220357600080fd5b813562001f7081620021c8565b6000806000606084860312156200222657600080fd5b505081359360208301359350604090920135919050565b6000602082840312156200225057600080fd5b5035919050565b634e487b7160e01b600052604160045260246000fd5b604051610180810167ffffffffffffffff8111828210171562002294576200229462002257565b60405290565b60405160a0810167ffffffffffffffff8111828210171562002294576200229462002257565b604051601f8201601f1916810167ffffffffffffffff81118282101715620022ec57620022ec62002257565b604052919050565b600067ffffffffffffffff82111562002311576200231162002257565b50601f01601f191660200190565b600082601f8301126200233157600080fd5b8135620023486200234282620022f4565b620022c0565b8181528460208386010111156200235e57600080fd5b816020850160208301376000918101602001919091529392505050565b6000606082840312156200238e57600080fd5b6040516060810167ffffffffffffffff8282108183111715620023b557620023b562002257565b816040528293508435915080821115620023ce57600080fd5b620023dc868387016200231f565b83526020850135915080821115620023f357600080fd5b5062002402858286016200231f565b602083015250604083013560408201525092915050565b600067ffffffffffffffff82111562002436576200243662002257565b5060051b60200190565b600082601f8301126200245257600080fd5b8135602062002465620023428362002419565b82815260059290921b840181019181810190868411156200248557600080fd5b8286015b84811015620024ad5780356200249f81620021c8565b835291830191830162002489565b509695505050505050565b60006101808284031215620024cc57600080fd5b620024d66200226d565b9050813567ffffffffffffffff80821115620024f157600080fd5b620024ff858386016200231f565b83526020840135602084015260408401356040840152606084013560608401526080840135608084015260a084013560a084015260c084013560c084015260e084013560e08401526101009150818401358284015261012091508184013582840152610140915081840135818111156200257857600080fd5b620025868682870162002440565b838501525050506101606200259d818401620021de565b9082015292915050565b600080600080600080600080610100898b031215620025c557600080fd5b620025d089620021de565b9750602089013567ffffffffffffffff80821115620025ee57600080fd5b620025fc8c838d016200237b565b985060408b01359150808211156200261357600080fd5b620026218c838d01620024b8565b975060608b0135965060808b0135955060a08b0135945060c08b0135935060e08b01359150808211156200265457600080fd5b50620026638b828c016200231f565b9150509295985092959890939650565b6000602082840312156200268657600080fd5b813567ffffffffffffffff8111156200269e57600080fd5b620026ac84828501620024b8565b949350505050565b6020808252825182820181905260009190848201906040850190845b81811015620026f75783516001600160a01b031683529284019291840191600101620026d0565b50909695505050505050565b6020808252818101527f4f776e61626c653a2063616c6c6572206973206e6f7420746865206f776e6572604082015260600190565b6020808252600f908201526e496e76616c6964206164647265737360881b604082015260600190565b634e487b7160e01b600052602160045260246000fd5b6000602082840312156200278a57600080fd5b81516004811062001f7057600080fd5b6020808252600a9082015269139bdd0818481c1bdbdb60b21b604082015260600190565b600060208284031215620027d157600080fd5b5051919050565b600060208284031215620027eb57600080fd5b8151801515811462001f7057600080fd5b60005b8381101562002819578181015183820152602001620027ff565b8381111562002829576000848401525b50505050565b600082601f8301126200284157600080fd5b8151620028526200234282620022f4565b8181528460208386010111156200286857600080fd5b620026ac826020830160208701620027fc565b600060208083850312156200288f57600080fd5b825167ffffffffffffffff80821115620028a857600080fd5b818501915085601f830112620028bd57600080fd5b620028c76200229a565b8060a0840188811115620028da57600080fd5b845b818110156200291357805185811115620028f65760008081fd5b620029048b8289016200282f565b855250928601928601620028dc565b509098975050505050505050565b6001600160a01b0391909116815260406020820181905260009082015260600190565b634e487b7160e01b600052603260045260246000fd5b6000815180845262002974816020860160208601620027fc565b601f01601f19169290920160200192915050565b6001600160a01b038c168152602081018b905261016060408201819052600090620029b68382018d6200295a565b90508281036060840152620029cc818c6200295a565b90508281036080840152620029e2818b6200295a565b905082810360a0840152620029f8818a6200295a565b905082810360c084015262002a0e81896200295a565b90508660e0840152856101008401528461012084015282810361014084015262002a3981856200295a565b9e9d5050505050505050505050505050565b6001600160a01b0383168152604081016004831062002a7a57634e487b7160e01b600052602160045260246000fd5b8260208301529392505050565b60006020828403121562002a9a57600080fd5b815162001f7081620021c8565b60006020828403121562002aba57600080fd5b81516003811062001f7057600080fd5b60018060a01b038316815260406020820152600082516060604084015262002af660a08401826200295a565b90506020840151603f1984830301606085015262002b1582826200295a565b91505060408401516080840152809150509392505050565b60006020828403121562002b4057600080fd5b815167ffffffffffffffff81111562002b5857600080fd5b620026ac848285016200282f565b600081518084526020808501945080840160005b8381101562002ba15781516001600160a01b03168752958201959082019060010162002b7a565b509495945050505050565b6001600160a01b03848116825283166020820152606060408201819052825161018091830182905260009162002be76101e08501836200295a565b915060208501516080850152604085015160a0850152606085015160c0850152608085015160e085015260a0850151610100818187015260c08701519150610120828188015260e0880151925061014083818901528289015193506101609250838389015281890151858901528089015194505050605f19868503016101a087015262002c75848462002b66565b9350808701519250505062002c966101c08501826001600160a01b03169052565b5095945050505050565b6000602080838503121562002cb457600080fd5b825167ffffffffffffffff81111562002ccc57600080fd5b8301601f8101851362002cde57600080fd5b805162002cef620023428262002419565b81815260059190911b8201830190838101908783111562002d0f57600080fd5b928401925b8284101562002d3a57835162002d2a81620021c8565b8252928401929084019062002d14565b979650505050505050565b60008282101562002d6657634e487b7160e01b600052601160045260246000fd5b500390565b634e487b7160e01b600052603160045260246000fdfe608060405260405161098a38038061098a8339810160408190526100229161048b565b61004d60017fa3f0ad74e5423aebfd80d3ef4346578335a9a72aeaee59ff6cb3582b35133d5161054b565b6000805160206109438339815191521461006957610069610570565b6100758282600061007c565b50506105f0565b61008583610147565b6040516001600160a01b038416907f1cf3b03a6cf19fa2baba4df148e9dcabedea7f8a5c07840e207e5c089be95d3e90600090a26000825111806100c65750805b1561014257610140836001600160a01b0316635c60da1b6040518163ffffffff1660e01b8152600401602060405180830381865afa15801561010c573d6000803e3d6000fd5b505050506040513d601f19601f820116820180604052508101906101309190610586565b836102d860201b6100291760201c565b505b505050565b61015a8161030460201b6100551760201c565b6101b95760405162461bcd60e51b815260206004820152602560248201527f455243313936373a206e657720626561636f6e206973206e6f74206120636f6e6044820152641d1c9858dd60da1b60648201526084015b60405180910390fd5b61022d816001600160a01b0316635c60da1b6040518163ffffffff1660e01b8152600401602060405180830381865afa1580156101fa573d6000803e3d6000fd5b505050506040513d601f19601f8201168201806040525081019061021e9190610586565b61030460201b6100551760201c565b6102925760405162461bcd60e51b815260206004820152603060248201527f455243313936373a20626561636f6e20696d706c656d656e746174696f6e206960448201526f1cc81b9bdd08184818dbdb9d1c9858dd60821b60648201526084016101b0565b806102b760008051602061094383398151915260001b61031360201b6100641760201c565b80546001600160a01b0319166001600160a01b039290921691909117905550565b60606102fd838360405180606001604052806027815260200161096360279139610316565b9392505050565b6001600160a01b03163b151590565b90565b60606001600160a01b0384163b61037e5760405162461bcd60e51b815260206004820152602660248201527f416464726573733a2064656c65676174652063616c6c20746f206e6f6e2d636f6044820152651b9d1c9858dd60d21b60648201526084016101b0565b600080856001600160a01b03168560405161039991906105a1565b600060405180830381855af49150503d80600081146103d4576040519150601f19603f3d011682016040523d82523d6000602084013e6103d9565b606091505b5090925090506103ea8282866103f4565b9695505050505050565b606083156104035750816102fd565b8251156104135782518084602001fd5b8160405162461bcd60e51b81526004016101b091906105bd565b80516001600160a01b038116811461044457600080fd5b919050565b634e487b7160e01b600052604160045260246000fd5b60005b8381101561047a578181015183820152602001610462565b838111156101405750506000910152565b6000806040838503121561049e57600080fd5b6104a78361042d565b60208401519092506001600160401b03808211156104c457600080fd5b818501915085601f8301126104d857600080fd5b8151818111156104ea576104ea610449565b604051601f8201601f19908116603f0116810190838211818310171561051257610512610449565b8160405282815288602084870101111561052b57600080fd5b61053c83602083016020880161045f565b80955050505050509250929050565b60008282101561056b57634e487b7160e01b600052601160045260246000fd5b500390565b634e487b7160e01b600052600160045260246000fd5b60006020828403121561059857600080fd5b6102fd8261042d565b600082516105b381846020870161045f565b9190910192915050565b60208152600082518060208401526105dc81604085016020870161045f565b601f01601f19169190910160400192915050565b610344806105ff6000396000f3fe60806040523661001357610011610017565b005b6100115b610027610022610067565b610100565b565b606061004e83836040518060600160405280602781526020016102e860279139610124565b9392505050565b6001600160a01b03163b151590565b90565b600061009a7fa3f0ad74e5423aebfd80d3ef4346578335a9a72aeaee59ff6cb3582b35133d50546001600160a01b031690565b6001600160a01b0316635c60da1b6040518163ffffffff1660e01b8152600401602060405180830381865afa1580156100d7573d6000803e3d6000fd5b505050506040513d601f19601f820116820180604052508101906100fb919061023f565b905090565b3660008037600080366000845af43d6000803e80801561011f573d6000f35b3d6000fd5b60606001600160a01b0384163b6101915760405162461bcd60e51b815260206004820152602660248201527f416464726573733a2064656c65676174652063616c6c20746f206e6f6e2d636f6044820152651b9d1c9858dd60d21b60648201526084015b60405180910390fd5b600080856001600160a01b0316856040516101ac9190610298565b600060405180830381855af49150503d80600081146101e7576040519150601f19603f3d011682016040523d82523d6000602084013e6101ec565b606091505b50915091506101fc828286610206565b9695505050505050565b6060831561021557508161004e565b8251156102255782518084602001fd5b8160405162461bcd60e51b815260040161018891906102b4565b60006020828403121561025157600080fd5b81516001600160a01b038116811461004e57600080fd5b60005b8381101561028357818101518382015260200161026b565b83811115610292576000848401525b50505050565b600082516102aa818460208701610268565b9190910192915050565b60208152600082518060208401526102d3816040850160208701610268565b601f01601f1916919091016040019291505056fe416464726573733a206c6f772d6c6576656c2064656c65676174652063616c6c206661696c6564a26469706673582212202af598a06f5c1d44b2a1949e6589ce4824b460dd99fcafab4c1f7995e392e7b664736f6c634300080d0033a3f0ad74e5423aebfd80d3ef4346578335a9a72aeaee59ff6cb3582b35133d50416464726573733a206c6f772d6c6576656c2064656c65676174652063616c6c206661696c6564a2646970667358221220b342a2ef4469aa8196bc250a50f4c2bc5aaa0429ce82944aa059c298450db53664736f6c634300080d0033",
  "devdoc": {
    "kind": "dev",
    "methods": {
      "renounceOwnership()": {
        "details": "Leaves the contract without owner. It will not be possible to call `onlyOwner` functions anymore. Can only be called by the current owner. NOTE: Renouncing ownership will leave the contract without an owner, thereby removing any functionality that is only available to the owner."
      },
      "transferOwnership(address)": {
        "details": "Transfers ownership of the contract to a new account (`newOwner`). Can only be called by the current owner."
      }
    },
    "version": 1
  },
  "userdoc": {
    "kind": "user",
    "methods": {},
    "version": 1
  },
  "storageLayout": {
    "storage": [
      {
        "astId": 4403,
        "contract": "contracts/Service.sol:Service",
        "label": "_owner",
        "offset": 0,
        "slot": "0",
        "type": "t_address"
      },
      {
        "astId": 9224,
        "contract": "contracts/Service.sol:Service",
        "label": "metadata",
        "offset": 0,
        "slot": "1",
        "type": "t_contract(IMetadata)11670"
      },
      {
        "astId": 9230,
        "contract": "contracts/Service.sol:Service",
        "label": "directory",
        "offset": 0,
        "slot": "2",
        "type": "t_contract(IDirectory)11544"
      },
      {
        "astId": 9233,
        "contract": "contracts/Service.sol:Service",
        "label": "whitelistedTokens",
        "offset": 0,
        "slot": "3",
        "type": "t_contract(IWhitelistedTokens)11931"
      },
      {
        "astId": 9235,
        "contract": "contracts/Service.sol:Service",
        "label": "proposalGateway",
        "offset": 0,
        "slot": "4",
        "type": "t_address"
      },
      {
        "astId": 9237,
        "contract": "contracts/Service.sol:Service",
        "label": "poolBeacon",
        "offset": 0,
        "slot": "5",
        "type": "t_address"
      },
      {
        "astId": 9239,
        "contract": "contracts/Service.sol:Service",
        "label": "tokenBeacon",
        "offset": 0,
        "slot": "6",
        "type": "t_address"
      },
      {
        "astId": 9241,
        "contract": "contracts/Service.sol:Service",
        "label": "tgeBeacon",
        "offset": 0,
        "slot": "7",
        "type": "t_address"
      },
      {
        "astId": 9243,
        "contract": "contracts/Service.sol:Service",
        "label": "fee",
        "offset": 0,
        "slot": "8",
        "type": "t_uint256"
      },
      {
        "astId": 9245,
        "contract": "contracts/Service.sol:Service",
        "label": "proposalQuorum",
        "offset": 0,
        "slot": "9",
        "type": "t_uint256"
      },
      {
        "astId": 9247,
        "contract": "contracts/Service.sol:Service",
        "label": "proposalThreshold",
        "offset": 0,
        "slot": "10",
        "type": "t_uint256"
      },
      {
        "astId": 9249,
        "contract": "contracts/Service.sol:Service",
        "label": "_ballotQuorumThreshold",
        "offset": 0,
        "slot": "11",
        "type": "t_uint256"
      },
      {
        "astId": 9251,
        "contract": "contracts/Service.sol:Service",
        "label": "_ballotDecisionThreshold",
        "offset": 0,
        "slot": "12",
        "type": "t_uint256"
      },
      {
        "astId": 9253,
        "contract": "contracts/Service.sol:Service",
        "label": "_ballotLifespan",
        "offset": 0,
        "slot": "13",
        "type": "t_uint256"
      },
      {
        "astId": 9256,
        "contract": "contracts/Service.sol:Service",
        "label": "uniswapRouter",
        "offset": 0,
        "slot": "14",
        "type": "t_contract(ISwapRouter)7356"
      },
      {
        "astId": 9259,
        "contract": "contracts/Service.sol:Service",
        "label": "uniswapQuoter",
        "offset": 0,
        "slot": "15",
        "type": "t_contract(IQuoter)7256"
      },
      {
        "astId": 9262,
        "contract": "contracts/Service.sol:Service",
        "label": "_userWhitelist",
        "offset": 0,
        "slot": "16",
        "type": "t_struct(AddressSet)6898_storage"
      }
    ],
    "types": {
      "t_address": {
        "encoding": "inplace",
        "label": "address",
        "numberOfBytes": "20"
      },
      "t_array(t_bytes32)dyn_storage": {
        "base": "t_bytes32",
        "encoding": "dynamic_array",
        "label": "bytes32[]",
        "numberOfBytes": "32"
      },
      "t_bytes32": {
        "encoding": "inplace",
        "label": "bytes32",
        "numberOfBytes": "32"
      },
      "t_contract(IDirectory)11544": {
        "encoding": "inplace",
        "label": "contract IDirectory",
        "numberOfBytes": "20"
      },
      "t_contract(IMetadata)11670": {
        "encoding": "inplace",
        "label": "contract IMetadata",
        "numberOfBytes": "20"
      },
      "t_contract(IQuoter)7256": {
        "encoding": "inplace",
        "label": "contract IQuoter",
        "numberOfBytes": "20"
      },
      "t_contract(ISwapRouter)7356": {
        "encoding": "inplace",
        "label": "contract ISwapRouter",
        "numberOfBytes": "20"
      },
      "t_contract(IWhitelistedTokens)11931": {
        "encoding": "inplace",
        "label": "contract IWhitelistedTokens",
        "numberOfBytes": "20"
      },
      "t_mapping(t_bytes32,t_uint256)": {
        "encoding": "mapping",
        "key": "t_bytes32",
        "label": "mapping(bytes32 => uint256)",
        "numberOfBytes": "32",
        "value": "t_uint256"
      },
      "t_struct(AddressSet)6898_storage": {
        "encoding": "inplace",
        "label": "struct EnumerableSet.AddressSet",
        "members": [
          {
            "astId": 6897,
            "contract": "contracts/Service.sol:Service",
            "label": "_inner",
            "offset": 0,
            "slot": "0",
            "type": "t_struct(Set)6597_storage"
          }
        ],
        "numberOfBytes": "64"
      },
      "t_struct(Set)6597_storage": {
        "encoding": "inplace",
        "label": "struct EnumerableSet.Set",
        "members": [
          {
            "astId": 6592,
            "contract": "contracts/Service.sol:Service",
            "label": "_values",
            "offset": 0,
            "slot": "0",
            "type": "t_array(t_bytes32)dyn_storage"
          },
          {
            "astId": 6596,
            "contract": "contracts/Service.sol:Service",
            "label": "_indexes",
            "offset": 0,
            "slot": "1",
            "type": "t_mapping(t_bytes32,t_uint256)"
          }
        ],
        "numberOfBytes": "64"
      },
      "t_uint256": {
        "encoding": "inplace",
        "label": "uint256",
        "numberOfBytes": "32"
      }
    }
  }
}