{
  "address": "0xF36C6F78444BF88fb0F7e2c83C68bA1B9805055A",
  "abi": [
    {
      "inputs": [
        {
          "internalType": "contract IDirectory",
          "name": "directory_",
          "type": "address"
        },
        {
          "internalType": "address",
          "name": "poolMaster_",
          "type": "address"
        },
        {
          "internalType": "address",
          "name": "tokenMaster_",
          "type": "address"
        },
        {
          "internalType": "address",
          "name": "tgeMaster_",
          "type": "address"
        },
        {
          "internalType": "uint256",
          "name": "fee_",
          "type": "uint256"
        },
        {
          "internalType": "uint256",
          "name": "proposalQuorum_",
          "type": "uint256"
        },
        {
          "internalType": "uint256",
          "name": "proposalThreshold_",
          "type": "uint256"
        }
      ],
      "stateMutability": "nonpayable",
      "type": "constructor"
    },
    {
      "anonymous": false,
      "inputs": [
        {
          "indexed": false,
          "internalType": "uint256",
          "name": "fee",
          "type": "uint256"
        }
      ],
      "name": "FeeSet",
      "type": "event"
    },
    {
      "anonymous": false,
      "inputs": [
        {
          "indexed": true,
          "internalType": "address",
          "name": "previousOwner",
          "type": "address"
        },
        {
          "indexed": true,
          "internalType": "address",
          "name": "newOwner",
          "type": "address"
        }
      ],
      "name": "OwnershipTransferred",
      "type": "event"
    },
    {
      "anonymous": false,
      "inputs": [
        {
          "indexed": false,
          "internalType": "address",
          "name": "pool",
          "type": "address"
        },
        {
          "indexed": false,
          "internalType": "address",
          "name": "token",
          "type": "address"
        },
        {
          "indexed": false,
          "internalType": "address",
          "name": "tge",
          "type": "address"
        }
      ],
      "name": "PoolCreated",
      "type": "event"
    },
    {
      "anonymous": false,
      "inputs": [
        {
          "indexed": false,
          "internalType": "uint256",
          "name": "quorum",
          "type": "uint256"
        }
      ],
      "name": "ProposalQuorumSet",
      "type": "event"
    },
    {
      "anonymous": false,
      "inputs": [
        {
          "indexed": false,
          "internalType": "uint256",
          "name": "threshold",
          "type": "uint256"
        }
      ],
      "name": "ProposalThresholdSet",
      "type": "event"
    },
    {
      "anonymous": false,
      "inputs": [
        {
          "indexed": false,
          "internalType": "address",
          "name": "pool",
          "type": "address"
        },
        {
          "indexed": false,
          "internalType": "address",
          "name": "tge",
          "type": "address"
        }
      ],
      "name": "SecondaryTGECreated",
      "type": "event"
    },
    {
      "anonymous": false,
      "inputs": [
        {
          "indexed": false,
          "internalType": "address",
          "name": "account",
          "type": "address"
        },
        {
          "indexed": false,
          "internalType": "bool",
          "name": "whitelisted",
          "type": "bool"
        }
      ],
      "name": "WhitelistedSet",
      "type": "event"
    },
    {
      "inputs": [
        {
          "internalType": "uint256",
          "name": "proposalId",
          "type": "uint256"
        }
      ],
      "name": "addProposal",
      "outputs": [],
      "stateMutability": "nonpayable",
      "type": "function"
    },
    {
      "inputs": [
        {
          "internalType": "address",
          "name": "account",
          "type": "address"
        }
      ],
      "name": "addToWhitelist",
      "outputs": [],
      "stateMutability": "nonpayable",
      "type": "function"
    },
    {
      "inputs": [
        {
          "internalType": "contract IPool",
          "name": "pool",
          "type": "address"
        },
        {
          "components": [
            {
              "internalType": "string",
              "name": "name",
              "type": "string"
            },
            {
              "internalType": "string",
              "name": "symbol",
              "type": "string"
            },
            {
              "internalType": "uint256",
              "name": "cap",
              "type": "uint256"
            }
          ],
          "internalType": "struct IGovernanceToken.TokenInfo",
          "name": "tokenInfo",
          "type": "tuple"
        },
        {
          "components": [
            {
              "internalType": "string",
              "name": "metadataURI",
              "type": "string"
            },
            {
              "internalType": "uint256",
              "name": "price",
              "type": "uint256"
            },
            {
              "internalType": "uint256",
              "name": "hardcap",
              "type": "uint256"
            },
            {
              "internalType": "uint256",
              "name": "softcap",
              "type": "uint256"
            },
            {
              "internalType": "uint256",
              "name": "minPurchase",
              "type": "uint256"
            },
            {
              "internalType": "uint256",
              "name": "maxPurchase",
              "type": "uint256"
            },
            {
              "internalType": "uint256",
              "name": "lockupPercent",
              "type": "uint256"
            },
            {
              "internalType": "uint256",
              "name": "lockupDuration",
              "type": "uint256"
            },
            {
              "internalType": "uint256",
              "name": "lockupTVL",
              "type": "uint256"
            },
            {
              "internalType": "uint256",
              "name": "duration",
              "type": "uint256"
            },
            {
              "internalType": "address[]",
              "name": "whitelist",
              "type": "address[]"
            }
          ],
          "internalType": "struct ITGE.TGEInfo",
          "name": "tgeInfo",
          "type": "tuple"
        }
      ],
      "name": "createPool",
      "outputs": [],
      "stateMutability": "payable",
      "type": "function"
    },
    {
      "inputs": [
        {
          "components": [
            {
              "internalType": "string",
              "name": "metadataURI",
              "type": "string"
            },
            {
              "internalType": "uint256",
              "name": "price",
              "type": "uint256"
            },
            {
              "internalType": "uint256",
              "name": "hardcap",
              "type": "uint256"
            },
            {
              "internalType": "uint256",
              "name": "softcap",
              "type": "uint256"
            },
            {
              "internalType": "uint256",
              "name": "minPurchase",
              "type": "uint256"
            },
            {
              "internalType": "uint256",
              "name": "maxPurchase",
              "type": "uint256"
            },
            {
              "internalType": "uint256",
              "name": "lockupPercent",
              "type": "uint256"
            },
            {
              "internalType": "uint256",
              "name": "lockupDuration",
              "type": "uint256"
            },
            {
              "internalType": "uint256",
              "name": "lockupTVL",
              "type": "uint256"
            },
            {
              "internalType": "uint256",
              "name": "duration",
              "type": "uint256"
            },
            {
              "internalType": "address[]",
              "name": "whitelist",
              "type": "address[]"
            }
          ],
          "internalType": "struct ITGE.TGEInfo",
          "name": "tgeInfo",
          "type": "tuple"
        }
      ],
      "name": "createSecondaryTGE",
      "outputs": [],
      "stateMutability": "nonpayable",
      "type": "function"
    },
    {
      "inputs": [],
      "name": "directory",
      "outputs": [
        {
          "internalType": "contract IDirectory",
          "name": "",
          "type": "address"
        }
      ],
      "stateMutability": "view",
      "type": "function"
    },
    {
      "inputs": [],
      "name": "fee",
      "outputs": [
        {
          "internalType": "uint256",
          "name": "",
          "type": "uint256"
        }
      ],
      "stateMutability": "view",
      "type": "function"
    },
    {
      "inputs": [
        {
          "internalType": "address",
          "name": "account",
          "type": "address"
        }
      ],
      "name": "isWhitelisted",
      "outputs": [
        {
          "internalType": "bool",
          "name": "",
          "type": "bool"
        }
      ],
      "stateMutability": "view",
      "type": "function"
    },
    {
      "inputs": [],
      "name": "owner",
      "outputs": [
        {
          "internalType": "address",
          "name": "",
          "type": "address"
        }
      ],
      "stateMutability": "view",
      "type": "function"
    },
    {
      "inputs": [],
      "name": "poolMaster",
      "outputs": [
        {
          "internalType": "address",
          "name": "",
          "type": "address"
        }
      ],
      "stateMutability": "view",
      "type": "function"
    },
    {
      "inputs": [],
      "name": "proposalQuorum",
      "outputs": [
        {
          "internalType": "uint256",
          "name": "",
          "type": "uint256"
        }
      ],
      "stateMutability": "view",
      "type": "function"
    },
    {
      "inputs": [],
      "name": "proposalThreshold",
      "outputs": [
        {
          "internalType": "uint256",
          "name": "",
          "type": "uint256"
        }
      ],
      "stateMutability": "view",
      "type": "function"
    },
    {
      "inputs": [
        {
          "internalType": "address",
          "name": "account",
          "type": "address"
        }
      ],
      "name": "removeFromWhitelist",
      "outputs": [],
      "stateMutability": "nonpayable",
      "type": "function"
    },
    {
      "inputs": [],
      "name": "renounceOwnership",
      "outputs": [],
      "stateMutability": "nonpayable",
      "type": "function"
    },
    {
      "inputs": [
        {
          "internalType": "uint256",
          "name": "fee_",
          "type": "uint256"
        }
      ],
      "name": "setFee",
      "outputs": [],
      "stateMutability": "nonpayable",
      "type": "function"
    },
    {
      "inputs": [
        {
          "internalType": "uint256",
          "name": "proposalQuorum_",
          "type": "uint256"
        }
      ],
      "name": "setProposalQuorum",
      "outputs": [],
      "stateMutability": "nonpayable",
      "type": "function"
    },
    {
      "inputs": [
        {
          "internalType": "uint256",
          "name": "proposalThreshold_",
          "type": "uint256"
        }
      ],
      "name": "setProposalThreshold",
      "outputs": [],
      "stateMutability": "nonpayable",
      "type": "function"
    },
    {
      "inputs": [],
      "name": "tgeMaster",
      "outputs": [
        {
          "internalType": "address",
          "name": "",
          "type": "address"
        }
      ],
      "stateMutability": "view",
      "type": "function"
    },
    {
      "inputs": [],
      "name": "tokenMaster",
      "outputs": [
        {
          "internalType": "address",
          "name": "",
          "type": "address"
        }
      ],
      "stateMutability": "view",
      "type": "function"
    },
    {
      "inputs": [
        {
          "internalType": "address",
          "name": "to",
          "type": "address"
        }
      ],
      "name": "transferFunds",
      "outputs": [],
      "stateMutability": "nonpayable",
      "type": "function"
    },
    {
      "inputs": [
        {
          "internalType": "address",
          "name": "newOwner",
          "type": "address"
        }
      ],
      "name": "transferOwnership",
      "outputs": [],
      "stateMutability": "nonpayable",
      "type": "function"
    },
    {
      "inputs": [],
      "name": "whitelist",
      "outputs": [
        {
          "internalType": "address[]",
          "name": "",
          "type": "address[]"
        }
      ],
      "stateMutability": "view",
      "type": "function"
    },
    {
      "inputs": [
        {
          "internalType": "uint256",
          "name": "index",
          "type": "uint256"
        }
      ],
      "name": "whitelistAt",
      "outputs": [
        {
          "internalType": "address",
          "name": "",
          "type": "address"
        }
      ],
      "stateMutability": "view",
      "type": "function"
    },
    {
      "inputs": [],
      "name": "whitelistLength",
      "outputs": [
        {
          "internalType": "uint256",
          "name": "",
          "type": "uint256"
        }
      ],
      "stateMutability": "view",
      "type": "function"
    }
  ],
  "transactionHash": "0xd53a8e95211fff2faef7ae03ecc02829c151c8384c64a60aaefaa67e29da35a1",
  "args": [
    "0x2a4a3494e1f8D8fD3eEf2b53c6105F2bB0C07322",
    "0x544C9160505712d6B5E12888b5eB9bCb708885aF",
    "0x3786a1046c0B7581B64E28331997Dc2d279324E2",
    "0xa13373fd51B44C5174CAb8C829012d78717c47AE",
    "0",
    "30",
    "50"
  ],
  "numDeployments": 1,
  "solcInputHash": "39f96f7bb5a095faa550612a86705d4a",
  "bytecode": "0x60806040523480156200001157600080fd5b50604051620020a3380380620020a38339810160408190526200003491620001a7565b6200003f336200013e565b600180546001600160a01b03199081166001600160a01b038a811691909117909255600280548216898416179055600380548216888416179055600480549091169186169190911790556005839055600682905560078190556040518381527f20461e09b8e557b77e107939f9ce6544698123aad0fc964ac5cc59b7df2e608f9060200160405180910390a16040518281527fb3b5a2f69b3db6f9f9545a71982d531ee15418a26301988f14ec9d4636042e689060200160405180910390a16040518181527fddaabc20f9c626e5660727e2e44f0bf5ad346108c4c3be2674ea6300a815218f9060200160405180910390a1505050505050506200022e565b600080546001600160a01b038381166001600160a01b0319831681178455604051919092169283917f8be0079c531659141344cd1fd0a4f28419497f9722a3daafe3b4186f6b6457e09190a35050565b6001600160a01b0381168114620001a457600080fd5b50565b600080600080600080600060e0888a031215620001c357600080fd5b8751620001d0816200018e565b6020890151909750620001e3816200018e565b6040890151909650620001f6816200018e565b606089015190955062000209816200018e565b809450506080880151925060a0880151915060c0880151905092959891949750929550565b611e65806200023e6000396000f3fe6080604052600436106101405760003560e01c80638ab1d681116100b6578063ccd4743e1161006f578063ccd4743e1461036b578063ddca3f431461038b578063e39ff19f146103a1578063e43252d7146103c1578063ece40cc1146103e1578063f2fde38b1461040157600080fd5b80638ab1d681146102bf5780638da5cb5b146102df57806393e59dc1146102fd5780639a0b6f9b1461031f578063b58131b014610335578063c41c2f241461034b57600080fd5b80633fec91a4116101085780633fec91a41461021457806342b8cdbf1461023457806369fe0e2d14610247578063715018a61461026757806378bb51641461027c5780638548abf61461029f57600080fd5b80631022ed60146101455780631be40f27146101675780632346e06d146101a4578063265d4409146101c45780633af32abf146101e4575b600080fd5b34801561015157600080fd5b5061016561016036600461197b565b610421565b005b34801561017357600080fd5b506101876101823660046119b8565b6107cb565b6040516001600160a01b0390911681526020015b60405180910390f35b3480156101b057600080fd5b50600454610187906001600160a01b031681565b3480156101d057600080fd5b50600354610187906001600160a01b031681565b3480156101f057600080fd5b506102046101ff3660046119d1565b6107de565b604051901515815260200161019b565b34801561022057600080fd5b5061016561022f3660046119b8565b6107eb565b6101656102423660046119ee565b6108ff565b34801561025357600080fd5b506101656102623660046119b8565b610ff4565b34801561027357600080fd5b5061016561105a565b34801561028857600080fd5b50610291611090565b60405190815260200161019b565b3480156102ab57600080fd5b506101656102ba3660046119b8565b6110a1565b3480156102cb57600080fd5b506101656102da3660046119d1565b611100565b3480156102eb57600080fd5b506000546001600160a01b0316610187565b34801561030957600080fd5b506103126111c0565b60405161019b9190611abe565b34801561032b57600080fd5b5061029160065481565b34801561034157600080fd5b5061029160075481565b34801561035757600080fd5b50600154610187906001600160a01b031681565b34801561037757600080fd5b50600254610187906001600160a01b031681565b34801561039757600080fd5b5061029160055481565b3480156103ad57600080fd5b506101656103bc3660046119d1565b6111cc565b3480156103cd57600080fd5b506101656103dc3660046119d1565b61122c565b3480156103ed57600080fd5b506101656103fc3660046119b8565b6112e2565b34801561040d57600080fd5b5061016561041c3660046119d1565b611341565b60018054604051630db9619f60e31b81523360048201526001600160a01b0390911690636dcb0cf890602401602060405180830381865afa15801561046a573d6000803e3d6000fd5b505050506040513d601f19601f8201168201806040525081019061048e9190611b21565b600381111561049f5761049f611b0b565b146104c55760405162461bcd60e51b81526004016104bc90611b42565b60405180910390fd5b6000336001600160a01b031663a7497fa56040518163ffffffff1660e01b8152600401602060405180830381865afa158015610505573d6000803e3d6000fd5b505050506040513d601f19601f820116820180604052508101906105299190611b66565b6001600160a01b031663c19d93fb6040518163ffffffff1660e01b8152600401602060405180830381865afa158015610566573d6000803e3d6000fd5b505050506040513d601f19601f8201168201806040525081019061058a9190611b83565b600281111561059b5761059b611b0b565b036105d95760405162461bcd60e51b815260206004820152600e60248201526d486173206163746976652054474560901b60448201526064016104bc565b6004546000906105f1906001600160a01b03166113dc565b6001546040516303203cd960e21b81529192506001600160a01b031690630c80f36490610625908490600390600401611ba4565b6020604051808303816000875af1158015610644573d6000803e3d6000fd5b505050506040513d601f19601f820116820180604052508101906106689190611bdf565b50806001600160a01b03166349297b3333336001600160a01b031663fc0c546a6040518163ffffffff1660e01b8152600401602060405180830381865afa1580156106b7573d6000803e3d6000fd5b505050506040513d601f19601f820116820180604052508101906106db9190611b66565b856040518463ffffffff1660e01b81526004016106fa93929190611c89565b600060405180830381600087803b15801561071457600080fd5b505af1158015610728573d6000803e3d6000fd5b505060405163024aa90f60e61b81526001600160a01b03841660048201523392506392aa43c09150602401600060405180830381600087803b15801561076d57600080fd5b505af1158015610781573d6000803e3d6000fd5b5050604080513381526001600160a01b03851660208201527f0e3dbd8c6caab1c68013fb13d63b7ff61db8fed8b3e7ce4e8e294ee1d0c22e8e935001905060405180910390a15050565b60006107d8600883611479565b92915050565b60006107d860088361148c565b60018054604051630db9619f60e31b81523360048201526001600160a01b0390911690636dcb0cf890602401602060405180830381865afa158015610834573d6000803e3d6000fd5b505050506040513d601f19601f820116820180604052508101906108589190611b21565b600381111561086957610869611b0b565b146108865760405162461bcd60e51b81526004016104bc90611b42565b60015460405163f4be936960e01b8152336004820152602481018390526001600160a01b039091169063f4be9369906044016020604051808303816000875af11580156108d7573d6000803e3d6000fd5b505050506040513d601f19601f820116820180604052508101906108fb9190611bdf565b5050565b610908336107de565b6109465760405162461bcd60e51b815260206004820152600f60248201526e139bdd081dda1a5d195b1a5cdd1959608a1b60448201526064016104bc565b600554341461098e5760405162461bcd60e51b8152602060048201526014602482015273125b98dbdc9c9958dd08199959481c185cdcd95960621b60448201526064016104bc565b6001600160a01b038316610a87576002546109b1906001600160a01b03166113dc565b60405163189acdbd60e31b81523360048201529093506001600160a01b0384169063c4d66de890602401600060405180830381600087803b1580156109f557600080fd5b505af1158015610a09573d6000803e3d6000fd5b5050600180546040516303203cd960e21b81526001600160a01b039091169350630c80f3649250610a3e918791600401611ba4565b6020604051808303816000875af1158015610a5d573d6000803e3d6000fd5b505050506040513d601f19601f82011682018060405250810190610a819190611bdf565b50610d09565b60018054604051630db9619f60e31b81526001600160a01b03868116600483015290911690636dcb0cf890602401602060405180830381865afa158015610ad2573d6000803e3d6000fd5b505050506040513d601f19601f82011682018060405250810190610af69190611b21565b6003811115610b0757610b07611b0b565b14610b245760405162461bcd60e51b81526004016104bc90611b42565b826001600160a01b0316638da5cb5b6040518163ffffffff1660e01b8152600401602060405180830381865afa158015610b62573d6000803e3d6000fd5b505050506040513d601f19601f82011682018060405250810190610b869190611b66565b6001600160a01b0316336001600160a01b031614610be65760405162461bcd60e51b815260206004820152601860248201527f53656e646572206973206e6f7420706f6f6c206f776e6572000000000000000060448201526064016104bc565b6001836001600160a01b031663a7497fa56040518163ffffffff1660e01b8152600401602060405180830381865afa158015610c26573d6000803e3d6000fd5b505050506040513d601f19601f82011682018060405250810190610c4a9190611b66565b6001600160a01b031663c19d93fb6040518163ffffffff1660e01b8152600401602060405180830381865afa158015610c87573d6000803e3d6000fd5b505050506040513d601f19601f82011682018060405250810190610cab9190611b83565b6002811115610cbc57610cbc611b0b565b14610d095760405162461bcd60e51b815260206004820152601760248201527f50726576696f757320544745206e6f74206661696c656400000000000000000060448201526064016104bc565b600354600090610d21906001600160a01b03166113dc565b6001546040516303203cd960e21b81529192506001600160a01b031690630c80f36490610d55908490600290600401611ba4565b6020604051808303816000875af1158015610d74573d6000803e3d6000fd5b505050506040513d601f19601f82011682018060405250810190610d989190611bdf565b50600454600090610db1906001600160a01b03166113dc565b6001546040516303203cd960e21b81529192506001600160a01b031690630c80f36490610de5908490600390600401611ba4565b6020604051808303816000875af1158015610e04573d6000803e3d6000fd5b505050506040513d601f19601f82011682018060405250810190610e289190611bdf565b506040516322ae8aef60e01b81526001600160a01b038316906322ae8aef90610e579088908890600401611d4a565b600060405180830381600087803b158015610e7157600080fd5b505af1158015610e85573d6000803e3d6000fd5b505060405163144fa6d760e01b81526001600160a01b0385811660048301528816925063144fa6d79150602401600060405180830381600087803b158015610ecc57600080fd5b505af1158015610ee0573d6000803e3d6000fd5b50506040516349297b3360e01b81526001600160a01b03841692506349297b339150610f1490339086908890600401611c89565b600060405180830381600087803b158015610f2e57600080fd5b505af1158015610f42573d6000803e3d6000fd5b505060405163024aa90f60e61b81526001600160a01b038481166004830152881692506392aa43c09150602401600060405180830381600087803b158015610f8957600080fd5b505af1158015610f9d573d6000803e3d6000fd5b5050604080516001600160a01b038981168252868116602083015285168183015290517f9c5d829b9b23efc461f9aeef91979ec04bb903feb3bee4f26d22114abfc7335b9350908190036060019150a15050505050565b6000546001600160a01b0316331461101e5760405162461bcd60e51b81526004016104bc90611da9565b60058190556040518181527f20461e09b8e557b77e107939f9ce6544698123aad0fc964ac5cc59b7df2e608f906020015b60405180910390a150565b6000546001600160a01b031633146110845760405162461bcd60e51b81526004016104bc90611da9565b61108e60006114ae565b565b600061109c60086114fe565b905090565b6000546001600160a01b031633146110cb5760405162461bcd60e51b81526004016104bc90611da9565b60068190556040518181527fb3b5a2f69b3db6f9f9545a71982d531ee15418a26301988f14ec9d4636042e689060200161104f565b6000546001600160a01b0316331461112a5760405162461bcd60e51b81526004016104bc90611da9565b611135600882611508565b6111815760405162461bcd60e51b815260206004820152601760248201527f416c7265616479206e6f742077686974656c697374656400000000000000000060448201526064016104bc565b604080516001600160a01b0383168152600060208201527f707f3c5101172c4122bef76a7247663a6c9347fd005fc5eff73c858572d9f589910161104f565b606061109c600861151d565b6000546001600160a01b031633146111f65760405162461bcd60e51b81526004016104bc90611da9565b6040516001600160a01b03821690303180156108fc02916000818181858888f193505050501580156108fb573d6000803e3d6000fd5b6000546001600160a01b031633146112565760405162461bcd60e51b81526004016104bc90611da9565b61126160088261152a565b6112a35760405162461bcd60e51b8152602060048201526013602482015272105b1c9958591e481dda1a5d195b1a5cdd1959606a1b60448201526064016104bc565b604080516001600160a01b0383168152600160208201527f707f3c5101172c4122bef76a7247663a6c9347fd005fc5eff73c858572d9f589910161104f565b6000546001600160a01b0316331461130c5760405162461bcd60e51b81526004016104bc90611da9565b60078190556040518181527fddaabc20f9c626e5660727e2e44f0bf5ad346108c4c3be2674ea6300a815218f9060200161104f565b6000546001600160a01b0316331461136b5760405162461bcd60e51b81526004016104bc90611da9565b6001600160a01b0381166113d05760405162461bcd60e51b815260206004820152602660248201527f4f776e61626c653a206e6577206f776e657220697320746865207a65726f206160448201526564647265737360d01b60648201526084016104bc565b6113d9816114ae565b50565b6000604051733d602d80600a3d3981f3363d3d373d3d3d363d7360601b81528260601b60148201526e5af43d82803e903d91602b57fd5bf360881b60288201526037816000f09150506001600160a01b0381166114745760405162461bcd60e51b8152602060048201526016602482015275115490cc4c4d8dce8818dc99585d194819985a5b195960521b60448201526064016104bc565b919050565b6000611485838361153f565b9392505050565b6001600160a01b03811660009081526001830160205260408120541515611485565b600080546001600160a01b038381166001600160a01b0319831681178455604051919092169283917f8be0079c531659141344cd1fd0a4f28419497f9722a3daafe3b4186f6b6457e09190a35050565b60006107d8825490565b6000611485836001600160a01b038416611569565b606060006114858361165c565b6000611485836001600160a01b0384166116b8565b600082600001828154811061155657611556611dde565b9060005260206000200154905092915050565b6000818152600183016020526040812054801561165257600061158d600183611df4565b85549091506000906115a190600190611df4565b90508181146116065760008660000182815481106115c1576115c1611dde565b90600052602060002001549050808760000184815481106115e4576115e4611dde565b6000918252602080832090910192909255918252600188019052604090208390555b855486908061161757611617611e19565b6001900381819060005260206000200160009055905585600101600086815260200190815260200160002060009055600193505050506107d8565b60009150506107d8565b6060816000018054806020026020016040519081016040528092919081815260200182805480156116ac57602002820191906000526020600020905b815481526020019060010190808311611698575b50505050509050919050565b60008181526001830160205260408120546116ff575081546001818101845560008481526020808220909301849055845484825282860190935260409020919091556107d8565b5060006107d8565b634e487b7160e01b600052604160045260246000fd5b604051610160810167ffffffffffffffff8111828210171561174157611741611707565b60405290565b6040516060810167ffffffffffffffff8111828210171561174157611741611707565b604051601f8201601f1916810167ffffffffffffffff8111828210171561179357611793611707565b604052919050565b600082601f8301126117ac57600080fd5b813567ffffffffffffffff8111156117c6576117c6611707565b6117d9601f8201601f191660200161176a565b8181528460208386010111156117ee57600080fd5b816020850160208301376000918101602001919091529392505050565b6001600160a01b03811681146113d957600080fd5b600082601f83011261183157600080fd5b8135602067ffffffffffffffff82111561184d5761184d611707565b8160051b61185c82820161176a565b928352848101820192828101908785111561187657600080fd5b83870192505b8483101561189e57823561188f8161180b565b8252918301919083019061187c565b979650505050505050565b600061016082840312156118bc57600080fd5b6118c461171d565b9050813567ffffffffffffffff808211156118de57600080fd5b6118ea8583860161179b565b83526020840135602084015260408401356040840152606084013560608401526080840135608084015260a084013560a084015260c084013560c084015260e084013560e084015261010091508184013582840152610120915081840135828401526101409150818401358181111561196257600080fd5b61196e86828701611820565b8385015250505092915050565b60006020828403121561198d57600080fd5b813567ffffffffffffffff8111156119a457600080fd5b6119b0848285016118a9565b949350505050565b6000602082840312156119ca57600080fd5b5035919050565b6000602082840312156119e357600080fd5b81356114858161180b565b600080600060608486031215611a0357600080fd5b8335611a0e8161180b565b9250602084013567ffffffffffffffff80821115611a2b57600080fd5b9085019060608288031215611a3f57600080fd5b611a47611747565b823582811115611a5657600080fd5b611a628982860161179b565b825250602083013582811115611a7757600080fd5b611a838982860161179b565b602083015250604092830135838201529350908501359080821115611aa757600080fd5b50611ab4868287016118a9565b9150509250925092565b6020808252825182820181905260009190848201906040850190845b81811015611aff5783516001600160a01b031683529284019291840191600101611ada565b50909695505050505050565b634e487b7160e01b600052602160045260246000fd5b600060208284031215611b3357600080fd5b81516004811061148557600080fd5b6020808252600a9082015269139bdd0818481c1bdbdb60b21b604082015260600190565b600060208284031215611b7857600080fd5b81516114858161180b565b600060208284031215611b9557600080fd5b81516003811061148557600080fd5b6001600160a01b03831681526040810160048310611bd257634e487b7160e01b600052602160045260246000fd5b8260208301529392505050565b600060208284031215611bf157600080fd5b5051919050565b6000815180845260005b81811015611c1e57602081850181015186830182015201611c02565b81811115611c30576000602083870101525b50601f01601f19169290920160200192915050565b600081518084526020808501945080840160005b83811015611c7e5781516001600160a01b031687529582019590820190600101611c59565b509495945050505050565b6001600160a01b038481168252831660208201526060604082018190528251610160918301829052600091611cc26101c0850183611bf8565b915060208501516080850152604085015160a0850152606085015160c0850152608085015160e085015260a0850151610100818187015260c08701519150610120828188015260e08801519250610140838189015282890151858901528189015161018089015280890151945050505050605f19848303016101a085015261189e8282611c45565b60018060a01b0383168152604060208201526000825160606040840152611d7460a0840182611bf8565b90506020840151603f19848303016060850152611d918282611bf8565b91505060408401516080840152809150509392505050565b6020808252818101527f4f776e61626c653a2063616c6c6572206973206e6f7420746865206f776e6572604082015260600190565b634e487b7160e01b600052603260045260246000fd5b600082821015611e1457634e487b7160e01b600052601160045260246000fd5b500390565b634e487b7160e01b600052603160045260246000fdfea26469706673582212202cc07b5b48655e3297d9756645d77eb2b7d5f0cd135e15c20e9f667acd29672d64736f6c634300080d0033",
  "devdoc": {
    "kind": "dev",
    "methods": {
      "renounceOwnership()": {
        "details": "Leaves the contract without owner. It will not be possible to call `onlyOwner` functions anymore. Can only be called by the current owner. NOTE: Renouncing ownership will leave the contract without an owner, thereby removing any functionality that is only available to the owner."
      },
      "transferOwnership(address)": {
        "details": "Transfers ownership of the contract to a new account (`newOwner`). Can only be called by the current owner."
      }
    },
    "version": 1
  },
  "userdoc": {
    "kind": "user",
    "methods": {},
    "version": 1
  },
  "storageLayout": {
    "storage": [
      {
        "astId": 3636,
        "contract": "contracts/Service.sol:Service",
        "label": "_owner",
        "offset": 0,
        "slot": "0",
        "type": "t_address"
      },
      {
        "astId": 5376,
        "contract": "contracts/Service.sol:Service",
        "label": "directory",
        "offset": 0,
        "slot": "1",
        "type": "t_contract(IDirectory)6940"
      },
      {
        "astId": 5378,
        "contract": "contracts/Service.sol:Service",
        "label": "poolMaster",
        "offset": 0,
        "slot": "2",
        "type": "t_address"
      },
      {
        "astId": 5380,
        "contract": "contracts/Service.sol:Service",
        "label": "tokenMaster",
        "offset": 0,
        "slot": "3",
        "type": "t_address"
      },
      {
        "astId": 5382,
        "contract": "contracts/Service.sol:Service",
        "label": "tgeMaster",
        "offset": 0,
        "slot": "4",
        "type": "t_address"
      },
      {
        "astId": 5384,
        "contract": "contracts/Service.sol:Service",
        "label": "fee",
        "offset": 0,
        "slot": "5",
        "type": "t_uint256"
      },
      {
        "astId": 5386,
        "contract": "contracts/Service.sol:Service",
        "label": "proposalQuorum",
        "offset": 0,
        "slot": "6",
        "type": "t_uint256"
      },
      {
        "astId": 5388,
        "contract": "contracts/Service.sol:Service",
        "label": "proposalThreshold",
        "offset": 0,
        "slot": "7",
        "type": "t_uint256"
      },
      {
        "astId": 5391,
        "contract": "contracts/Service.sol:Service",
        "label": "_whitelist",
        "offset": 0,
        "slot": "8",
        "type": "t_struct(AddressSet)4147_storage"
      }
    ],
    "types": {
      "t_address": {
        "encoding": "inplace",
        "label": "address",
        "numberOfBytes": "20"
      },
      "t_array(t_bytes32)dyn_storage": {
        "base": "t_bytes32",
        "encoding": "dynamic_array",
        "label": "bytes32[]",
        "numberOfBytes": "32"
      },
      "t_bytes32": {
        "encoding": "inplace",
        "label": "bytes32",
        "numberOfBytes": "32"
      },
      "t_contract(IDirectory)6940": {
        "encoding": "inplace",
        "label": "contract IDirectory",
        "numberOfBytes": "20"
      },
      "t_mapping(t_bytes32,t_uint256)": {
        "encoding": "mapping",
        "key": "t_bytes32",
        "label": "mapping(bytes32 => uint256)",
        "numberOfBytes": "32",
        "value": "t_uint256"
      },
      "t_struct(AddressSet)4147_storage": {
        "encoding": "inplace",
        "label": "struct EnumerableSet.AddressSet",
        "members": [
          {
            "astId": 4146,
            "contract": "contracts/Service.sol:Service",
            "label": "_inner",
            "offset": 0,
            "slot": "0",
            "type": "t_struct(Set)3846_storage"
          }
        ],
        "numberOfBytes": "64"
      },
      "t_struct(Set)3846_storage": {
        "encoding": "inplace",
        "label": "struct EnumerableSet.Set",
        "members": [
          {
            "astId": 3841,
            "contract": "contracts/Service.sol:Service",
            "label": "_values",
            "offset": 0,
            "slot": "0",
            "type": "t_array(t_bytes32)dyn_storage"
          },
          {
            "astId": 3845,
            "contract": "contracts/Service.sol:Service",
            "label": "_indexes",
            "offset": 0,
            "slot": "1",
            "type": "t_mapping(t_bytes32,t_uint256)"
          }
        ],
        "numberOfBytes": "64"
      },
      "t_uint256": {
        "encoding": "inplace",
        "label": "uint256",
        "numberOfBytes": "32"
      }
    }
  }
}