{
  "address": "0xa13373fd51B44C5174CAb8C829012d78717c47AE",
  "abi": [
    {
      "anonymous": false,
      "inputs": [
        {
          "indexed": false,
          "internalType": "uint8",
          "name": "version",
          "type": "uint8"
        }
      ],
      "name": "Initialized",
      "type": "event"
    },
    {
      "anonymous": false,
      "inputs": [
        {
          "indexed": true,
          "internalType": "address",
          "name": "previousOwner",
          "type": "address"
        },
        {
          "indexed": true,
          "internalType": "address",
          "name": "newOwner",
          "type": "address"
        }
      ],
      "name": "OwnershipTransferred",
      "type": "event"
    },
    {
      "inputs": [],
      "name": "claimBack",
      "outputs": [],
      "stateMutability": "nonpayable",
      "type": "function"
    },
    {
      "inputs": [],
      "name": "createdAt",
      "outputs": [
        {
          "internalType": "uint256",
          "name": "",
          "type": "uint256"
        }
      ],
      "stateMutability": "view",
      "type": "function"
    },
    {
      "inputs": [],
      "name": "duration",
      "outputs": [
        {
          "internalType": "uint256",
          "name": "",
          "type": "uint256"
        }
      ],
      "stateMutability": "view",
      "type": "function"
    },
    {
      "inputs": [],
      "name": "getTVL",
      "outputs": [
        {
          "internalType": "uint256",
          "name": "",
          "type": "uint256"
        }
      ],
      "stateMutability": "view",
      "type": "function"
    },
    {
      "inputs": [],
      "name": "hardcap",
      "outputs": [
        {
          "internalType": "uint256",
          "name": "",
          "type": "uint256"
        }
      ],
      "stateMutability": "view",
      "type": "function"
    },
    {
      "inputs": [
        {
          "internalType": "address",
          "name": "owner_",
          "type": "address"
        },
        {
          "internalType": "address",
          "name": "token_",
          "type": "address"
        },
        {
          "components": [
            {
              "internalType": "string",
              "name": "metadataURI",
              "type": "string"
            },
            {
              "internalType": "uint256",
              "name": "price",
              "type": "uint256"
            },
            {
              "internalType": "uint256",
              "name": "hardcap",
              "type": "uint256"
            },
            {
              "internalType": "uint256",
              "name": "softcap",
              "type": "uint256"
            },
            {
              "internalType": "uint256",
              "name": "minPurchase",
              "type": "uint256"
            },
            {
              "internalType": "uint256",
              "name": "maxPurchase",
              "type": "uint256"
            },
            {
              "internalType": "uint256",
              "name": "lockupPercent",
              "type": "uint256"
            },
            {
              "internalType": "uint256",
              "name": "lockupDuration",
              "type": "uint256"
            },
            {
              "internalType": "uint256",
              "name": "lockupTVL",
              "type": "uint256"
            },
            {
              "internalType": "uint256",
              "name": "duration",
              "type": "uint256"
            },
            {
              "internalType": "address[]",
              "name": "whitelist",
              "type": "address[]"
            }
          ],
          "internalType": "struct ITGE.TGEInfo",
          "name": "info",
          "type": "tuple"
        }
      ],
      "name": "initialize",
      "outputs": [],
      "stateMutability": "nonpayable",
      "type": "function"
    },
    {
      "inputs": [
        {
          "internalType": "address",
          "name": "",
          "type": "address"
        }
      ],
      "name": "isWhitelisted",
      "outputs": [
        {
          "internalType": "bool",
          "name": "",
          "type": "bool"
        }
      ],
      "stateMutability": "view",
      "type": "function"
    },
    {
      "inputs": [
        {
          "internalType": "address",
          "name": "",
          "type": "address"
        }
      ],
      "name": "lockedBalanceOf",
      "outputs": [
        {
          "internalType": "uint256",
          "name": "",
          "type": "uint256"
        }
      ],
      "stateMutability": "view",
      "type": "function"
    },
    {
      "inputs": [],
      "name": "lockupDuration",
      "outputs": [
        {
          "internalType": "uint256",
          "name": "",
          "type": "uint256"
        }
      ],
      "stateMutability": "view",
      "type": "function"
    },
    {
      "inputs": [],
      "name": "lockupPercent",
      "outputs": [
        {
          "internalType": "uint256",
          "name": "",
          "type": "uint256"
        }
      ],
      "stateMutability": "view",
      "type": "function"
    },
    {
      "inputs": [],
      "name": "lockupTVL",
      "outputs": [
        {
          "internalType": "uint256",
          "name": "",
          "type": "uint256"
        }
      ],
      "stateMutability": "view",
      "type": "function"
    },
    {
      "inputs": [],
      "name": "maxPurchase",
      "outputs": [
        {
          "internalType": "uint256",
          "name": "",
          "type": "uint256"
        }
      ],
      "stateMutability": "view",
      "type": "function"
    },
    {
      "inputs": [
        {
          "internalType": "address",
          "name": "account",
          "type": "address"
        }
      ],
      "name": "maxPurchaseOf",
      "outputs": [
        {
          "internalType": "uint256",
          "name": "",
          "type": "uint256"
        }
      ],
      "stateMutability": "view",
      "type": "function"
    },
    {
      "inputs": [],
      "name": "metadataURI",
      "outputs": [
        {
          "internalType": "string",
          "name": "",
          "type": "string"
        }
      ],
      "stateMutability": "view",
      "type": "function"
    },
    {
      "inputs": [],
      "name": "minPurchase",
      "outputs": [
        {
          "internalType": "uint256",
          "name": "",
          "type": "uint256"
        }
      ],
      "stateMutability": "view",
      "type": "function"
    },
    {
      "inputs": [],
      "name": "owner",
      "outputs": [
        {
          "internalType": "address",
          "name": "",
          "type": "address"
        }
      ],
      "stateMutability": "view",
      "type": "function"
    },
    {
      "inputs": [],
      "name": "price",
      "outputs": [
        {
          "internalType": "uint256",
          "name": "",
          "type": "uint256"
        }
      ],
      "stateMutability": "view",
      "type": "function"
    },
    {
      "inputs": [
        {
          "internalType": "uint256",
          "name": "amount",
          "type": "uint256"
        }
      ],
      "name": "purchase",
      "outputs": [],
      "stateMutability": "payable",
      "type": "function"
    },
    {
      "inputs": [
        {
          "internalType": "address",
          "name": "",
          "type": "address"
        }
      ],
      "name": "purchaseOf",
      "outputs": [
        {
          "internalType": "uint256",
          "name": "",
          "type": "uint256"
        }
      ],
      "stateMutability": "view",
      "type": "function"
    },
    {
      "inputs": [],
      "name": "renounceOwnership",
      "outputs": [],
      "stateMutability": "nonpayable",
      "type": "function"
    },
    {
      "inputs": [],
      "name": "setLockupTVLReached",
      "outputs": [],
      "stateMutability": "nonpayable",
      "type": "function"
    },
    {
      "inputs": [],
      "name": "softcap",
      "outputs": [
        {
          "internalType": "uint256",
          "name": "",
          "type": "uint256"
        }
      ],
      "stateMutability": "view",
      "type": "function"
    },
    {
      "inputs": [],
      "name": "state",
      "outputs": [
        {
          "internalType": "enum ITGE.State",
          "name": "",
          "type": "uint8"
        }
      ],
      "stateMutability": "view",
      "type": "function"
    },
    {
      "inputs": [],
      "name": "token",
      "outputs": [
        {
          "internalType": "contract IGovernanceToken",
          "name": "",
          "type": "address"
        }
      ],
      "stateMutability": "view",
      "type": "function"
    },
    {
      "inputs": [],
      "name": "totalPurchases",
      "outputs": [
        {
          "internalType": "uint256",
          "name": "",
          "type": "uint256"
        }
      ],
      "stateMutability": "view",
      "type": "function"
    },
    {
      "inputs": [],
      "name": "transferFunds",
      "outputs": [],
      "stateMutability": "nonpayable",
      "type": "function"
    },
    {
      "inputs": [
        {
          "internalType": "address",
          "name": "newOwner",
          "type": "address"
        }
      ],
      "name": "transferOwnership",
      "outputs": [],
      "stateMutability": "nonpayable",
      "type": "function"
    },
    {
      "inputs": [],
      "name": "unlock",
      "outputs": [],
      "stateMutability": "nonpayable",
      "type": "function"
    },
    {
      "inputs": [],
      "name": "unlockAvailable",
      "outputs": [
        {
          "internalType": "bool",
          "name": "",
          "type": "bool"
        }
      ],
      "stateMutability": "view",
      "type": "function"
    },
    {
      "inputs": [
        {
          "internalType": "uint256",
          "name": "",
          "type": "uint256"
        }
      ],
      "name": "whitelist",
      "outputs": [
        {
          "internalType": "address",
          "name": "",
          "type": "address"
        }
      ],
      "stateMutability": "view",
      "type": "function"
    }
  ],
  "transactionHash": "0x1a5a0198713f86d2cbc435e45bc1131dade3ca8bd64a91a62604bf4b0f2d5a0d",
  "args": [],
  "numDeployments": 1,
  "solcInputHash": "39f96f7bb5a095faa550612a86705d4a",
  "bytecode": "0x608060405234801561001057600080fd5b50611ad8806100206000396000f3fe6080604052600436106101cd5760003560e01c80638da5cb5b116100f7578063bf7fec0811610095578063efef39a111610064578063efef39a1146104ca578063f2fde38b146104dd578063f89be593146104fd578063fc0c546a1461051357600080fd5b8063bf7fec081461044f578063c19d93fb1461047c578063cf09e0d01461049e578063e15c38bd146104b457600080fd5b80639b8c3e21116100d15780639b8c3e21146103f9578063a035b1fe1461040e578063a69df4b514610424578063b071cbe61461043957600080fd5b80638da5cb5b146103b0578063977b055b146103ce57806397b3fcaa146103e457600080fd5b80633af32abf1161016f578063593557361161013e57806359355736146103205780635962a9411461034d578063715018a6146103635780637ebd1b301461037857600080fd5b80633af32abf1461029b5780633c68eb81146102cb57806342ee5d84146102e057806349297b331461030057600080fd5b80630fb5a6b4116101ab5780630fb5a6b4146102425780631ada70a814610258578063205decf41461026e57806333b5b62e1461028557600080fd5b8063028dcc4d146101d257806303ee438c146101fc5780630409f6f81461021e575b600080fd5b3480156101de57600080fd5b506101e7610533565b60405190151581526020015b60405180910390f35b34801561020857600080fd5b5061021161055c565b6040516101f39190611580565b34801561022a57600080fd5b50610234606d5481565b6040519081526020016101f3565b34801561024e57600080fd5b50610234606f5481565b34801561026457600080fd5b50610234606e5481565b34801561027a57600080fd5b506102836105ea565b005b34801561029157600080fd5b50610234606a5481565b3480156102a757600080fd5b506101e76102b63660046115ea565b60716020526000908152604090205460ff1681565b3480156102d757600080fd5b50610283610657565b3480156102ec57600080fd5b506102346102fb3660046115ea565b61079e565b34801561030c57600080fd5b5061028361031b366004611771565b6107ca565b34801561032c57600080fd5b5061023461033b3660046115ea565b60766020526000908152604090205481565b34801561035957600080fd5b5061023460735481565b34801561036f57600080fd5b50610283610ad2565b34801561038457600080fd5b5061039861039336600461188a565b610b38565b6040516001600160a01b0390911681526020016101f3565b3480156103bc57600080fd5b506033546001600160a01b0316610398565b3480156103da57600080fd5b50610234606b5481565b3480156103f057600080fd5b50610234610b62565b34801561040557600080fd5b50610283610b74565b34801561041a57600080fd5b5061023460675481565b34801561043057600080fd5b50610283610dd9565b34801561044557600080fd5b5061023460685481565b34801561045b57600080fd5b5061023461046a3660046115ea565b60746020526000908152604090205481565b34801561048857600080fd5b50610491610f48565b6040516101f391906118b9565b3480156104aa57600080fd5b5061023460725481565b3480156104c057600080fd5b50610234606c5481565b6102836104d836600461188a565b610f7e565b3480156104e957600080fd5b506102836104f83660046115ea565b61132a565b34801561050957600080fd5b5061023460695481565b34801561051f57600080fd5b50606554610398906001600160a01b031681565b60755460009060ff1680156105575750606e5460725461055391906118f7565b4310155b905090565b606680546105699061190f565b80601f01602080910402602001604051908101604052809291908181526020018280546105959061190f565b80156105e25780601f106105b7576101008083540402835291602001916105e2565b820191906000526020600020905b8154815290600101906020018083116105c557829003601f168201915b505050505081565b606d546105f5610b62565b10156106485760405162461bcd60e51b815260206004820152601a60248201527f4c6f636b75702054564c206e6f7420796574207265616368656400000000000060448201526064015b60405180910390fd5b6075805460ff19166001179055565b600280610662610f48565b6002811115610673576106736118a3565b146106905760405162461bcd60e51b815260040161063f90611949565b606554604080516316f0115b60e01b815290516000926001600160a01b0316916316f0115b9160048083019260209291908290030181865afa1580156106da573d6000803e3d6000fd5b505050506040513d601f19601f820116820180604052508101906106fe9190611975565b6001600160a01b0316306001600160a01b03163160405160006040518083038185875af1925050503d8060008114610752576040519150601f19603f3d011682016040523d82523d6000602084013e610757565b606091505b505090508061079a5760405162461bcd60e51b815260206004820152600f60248201526e151c985b9cd9995c8819985a5b1959608a1b604482015260640161063f565b5050565b6001600160a01b038116600090815260746020526040812054606b546107c49190611992565b92915050565b60006107d660016113f5565b905080156107ee576000805461ff0019166101001790555b6000836001600160a01b03166318160ddd6040518163ffffffff1660e01b8152600401602060405180830381865afa15801561082e573d6000803e3d6000fd5b505050506040513d601f19601f8201168201806040525081019061085291906119a9565b846001600160a01b031663355274ea6040518163ffffffff1660e01b8152600401602060405180830381865afa158015610890573d6000803e3d6000fd5b505050506040513d601f19601f820116820180604052508101906108b491906119a9565b6108be9190611992565b905080836040015111156109205760405162461bcd60e51b8152602060048201526024808201527f4861726463617020686967686572207468616e2072656d61696e696e6720737560448201526370706c7960e01b606482015260840161063f565b6109298561147d565b606580546001600160a01b0319166001600160a01b0386161790558251805161095a916066916020909101906114e7565b506020830151606755604083015160685560608301516069556080830151606a5560a0830151606b5560c0830151606c55610100830151606d8190556075805460ff1916911591909117905560e0830151606e55610120830151606f5560005b83610140015151811015610a8057607084610140015182815181106109e1576109e16119c2565b60209081029190910181015182546001808201855560009485529284200180546001600160a01b0319166001600160a01b039092169190911790556101408601518051919260719290919085908110610a3c57610a3c6119c2565b6020908102919091018101516001600160a01b03168252810191909152604001600020805460ff191691151591909117905580610a78816119d8565b9150506109ba565b5050436072558015610acc576000805461ff0019169055604051600181527f7f26b83ff96e1f2b6a682f133852f6798a09c465da95921460cefb38474024989060200160405180910390a15b50505050565b6033546001600160a01b03163314610b2c5760405162461bcd60e51b815260206004820181905260248201527f4f776e61626c653a2063616c6c6572206973206e6f7420746865206f776e6572604482015260640161063f565b610b36600061147d565b565b60708181548110610b4857600080fd5b6000918252602090912001546001600160a01b0316905081565b600060675460735461055791906119f1565b600180610b7f610f48565b6002811115610b9057610b906118a3565b14610bad5760405162461bcd60e51b815260040161063f90611949565b6065546040516370a0823160e01b81523360048201526000916001600160a01b0316906370a0823190602401602060405180830381865afa158015610bf6573d6000803e3d6000fd5b505050506040513d601f19601f82011682018060405250810190610c1a91906119a9565b3360009081526076602052604081205491925090610c5190610c3c90846118f7565b336000908152607460205260409020546114cf565b33600090815260746020526040812080549293508392909190610c75908490611992565b909155505081811115610d2e57610c8c8282611992565b3360009081526076602052604081208054909190610cab908490611992565b90915550506065546001600160a01b0316639dc29fac30610ccc8585611992565b6040516001600160e01b031960e085901b1681526001600160a01b0390921660048301526024820152604401600060405180830381600087803b158015610d1257600080fd5b505af1158015610d26573d6000803e3d6000fd5b505050508190505b606554604051632770a7eb60e21b8152336004820152602481018390526001600160a01b0390911690639dc29fac90604401600060405180830381600087803b158015610d7a57600080fd5b505af1158015610d8e573d6000803e3d6000fd5b50505050600060675482610da291906119f1565b604051909150339082156108fc029083906000818181858888f19350505050158015610dd2573d6000803e3d6000fd5b5050505050565b600280610de4610f48565b6002811115610df557610df56118a3565b14610e125760405162461bcd60e51b815260040161063f90611949565b610e1a610533565b610e665760405162461bcd60e51b815260206004820152601860248201527f556e6c6f636b206e6f742079657420617661696c61626c650000000000000000604482015260640161063f565b33600090815260766020526040902054610eb65760405162461bcd60e51b81526020600482015260116024820152704e6f206c6f636b65642062616c616e636560781b604482015260640161063f565b336000818152607660205260408082208054929055606554905163a9059cbb60e01b815260048101939093526024830182905290916001600160a01b039091169063a9059cbb906044016020604051808303816000875af1158015610f1f573d6000803e3d6000fd5b505050506040513d601f19601f82011682018060405250810190610f439190611a10565b505050565b6000606f54607254610f5a91906118f7565b431015610f675750600090565b60695460735410610f785750600290565b50600190565b3360009081526071602052604090205460ff16610fcf5760405162461bcd60e51b815260206004820152600f60248201526e139bdd081dda1a5d195b1a5cdd1959608a1b604482015260640161063f565b600080610fda610f48565b6002811115610feb57610feb6118a3565b146110085760405162461bcd60e51b815260040161063f90611949565b3360009081526071602052604090205460ff166110595760405162461bcd60e51b815260206004820152600f60248201526e139bdd081dda1a5d195b1a5cdd1959608a1b604482015260640161063f565b606a548210156110ab5760405162461bcd60e51b815260206004820152601d60248201527f416d6f756e74206c657373207468616e206d696e207075726368617365000000604482015260640161063f565b6067546110b890836119f1565b34146111065760405162461bcd60e51b815260206004820152601860248201527f496e76616c6964204554482076616c7565207061737365640000000000000000604482015260640161063f565b61110f3361079e565b8211156111575760405162461bcd60e51b81526020600482015260166024820152754f766572666c6f7773206d617820707572636861736560501b604482015260640161063f565b6068548260735461116891906118f7565b11156111aa5760405162461bcd60e51b815260206004820152601160248201527004f766572666c6f7773206861726463617607c1b604482015260640161063f565b81607360008282546111bc91906118f7565b909155505033600090815260746020526040812080548492906111e09084906118f7565b9091555050606c546000906064906111f890856119f1565b6112039060636118f7565b61120d9190611a32565b9050600061121b8285611992565b111561129c576065546001600160a01b03166340c10f193361123d8487611992565b6040516001600160e01b031960e085901b1681526001600160a01b0390921660048301526024820152604401600060405180830381600087803b15801561128357600080fd5b505af1158015611297573d6000803e3d6000fd5b505050505b6065546040516340c10f1960e01b8152306004820152602481018390526001600160a01b03909116906340c10f1990604401600060405180830381600087803b1580156112e857600080fd5b505af11580156112fc573d6000803e3d6000fd5b505033600090815260766020526040812080548594509092506113209084906118f7565b9091555050505050565b6033546001600160a01b031633146113845760405162461bcd60e51b815260206004820181905260248201527f4f776e61626c653a2063616c6c6572206973206e6f7420746865206f776e6572604482015260640161063f565b6001600160a01b0381166113e95760405162461bcd60e51b815260206004820152602660248201527f4f776e61626c653a206e6577206f776e657220697320746865207a65726f206160448201526564647265737360d01b606482015260840161063f565b6113f28161147d565b50565b60008054610100900460ff161561143c578160ff1660011480156114185750303b155b6114345760405162461bcd60e51b815260040161063f90611a54565b506000919050565b60005460ff8084169116106114635760405162461bcd60e51b815260040161063f90611a54565b506000805460ff191660ff92909216919091179055600190565b603380546001600160a01b038381166001600160a01b0319831681179093556040519116919082907f8be0079c531659141344cd1fd0a4f28419497f9722a3daafe3b4186f6b6457e090600090a35050565b60008183106114de57816114e0565b825b9392505050565b8280546114f39061190f565b90600052602060002090601f016020900481019282611515576000855561155b565b82601f1061152e57805160ff191683800117855561155b565b8280016001018555821561155b579182015b8281111561155b578251825591602001919060010190611540565b5061156792915061156b565b5090565b5b80821115611567576000815560010161156c565b600060208083528351808285015260005b818110156115ad57858101830151858201604001528201611591565b818111156115bf576000604083870101525b50601f01601f1916929092016040019392505050565b6001600160a01b03811681146113f257600080fd5b6000602082840312156115fc57600080fd5b81356114e0816115d5565b634e487b7160e01b600052604160045260246000fd5b604051610160810167ffffffffffffffff8111828210171561164157611641611607565b60405290565b604051601f8201601f1916810167ffffffffffffffff8111828210171561167057611670611607565b604052919050565b600082601f83011261168957600080fd5b813567ffffffffffffffff8111156116a3576116a3611607565b6116b6601f8201601f1916602001611647565b8181528460208386010111156116cb57600080fd5b816020850160208301376000918101602001919091529392505050565b600082601f8301126116f957600080fd5b8135602067ffffffffffffffff82111561171557611715611607565b8160051b611724828201611647565b928352848101820192828101908785111561173e57600080fd5b83870192505b84831015611766578235611757816115d5565b82529183019190830190611744565b979650505050505050565b60008060006060848603121561178657600080fd5b8335611791816115d5565b925060208401356117a1816115d5565b9150604084013567ffffffffffffffff808211156117be57600080fd5b9085019061016082880312156117d357600080fd5b6117db61161d565b8235828111156117ea57600080fd5b6117f689828601611678565b8252506020830135602082015260408301356040820152606083013560608201526080830135608082015260a083013560a082015260c083013560c082015260e083013560e0820152610100808401358183015250610120808401358183015250610140808401358381111561186b57600080fd5b6118778a8287016116e8565b8284015250508093505050509250925092565b60006020828403121561189c57600080fd5b5035919050565b634e487b7160e01b600052602160045260246000fd5b60208101600383106118db57634e487b7160e01b600052602160045260246000fd5b91905290565b634e487b7160e01b600052601160045260246000fd5b6000821982111561190a5761190a6118e1565b500190565b600181811c9082168061192357607f821691505b60208210810361194357634e487b7160e01b600052602260045260246000fd5b50919050565b60208082526012908201527154474520696e2077726f6e6720737461746560701b604082015260600190565b60006020828403121561198757600080fd5b81516114e0816115d5565b6000828210156119a4576119a46118e1565b500390565b6000602082840312156119bb57600080fd5b5051919050565b634e487b7160e01b600052603260045260246000fd5b6000600182016119ea576119ea6118e1565b5060010190565b6000816000190483118215151615611a0b57611a0b6118e1565b500290565b600060208284031215611a2257600080fd5b815180151581146114e057600080fd5b600082611a4f57634e487b7160e01b600052601260045260246000fd5b500490565b6020808252602e908201527f496e697469616c697a61626c653a20636f6e747261637420697320616c72656160408201526d191e481a5b9a5d1a585b1a5e995960921b60608201526080019056fea2646970667358221220eb5896204cf2de6f32ab87855e986a0eba3619db8c2761c331faa27b49b6b29b64736f6c634300080d0033",
  "devdoc": {
    "kind": "dev",
    "methods": {
      "owner()": {
        "details": "Returns the address of the current owner."
      },
      "renounceOwnership()": {
        "details": "Leaves the contract without owner. It will not be possible to call `onlyOwner` functions anymore. Can only be called by the current owner. NOTE: Renouncing ownership will leave the contract without an owner, thereby removing any functionality that is only available to the owner."
      },
      "transferOwnership(address)": {
        "details": "Transfers ownership of the contract to a new account (`newOwner`). Can only be called by the current owner."
      }
    },
    "version": 1
  },
  "userdoc": {
    "kind": "user",
    "methods": {},
    "version": 1
  },
  "storageLayout": {
    "storage": [
      {
        "astId": 208,
        "contract": "contracts/TGE.sol:TGE",
        "label": "_initialized",
        "offset": 0,
        "slot": "0",
        "type": "t_uint8"
      },
      {
        "astId": 211,
        "contract": "contracts/TGE.sol:TGE",
        "label": "_initializing",
        "offset": 1,
        "slot": "0",
        "type": "t_bool"
      },
      {
        "astId": 2312,
        "contract": "contracts/TGE.sol:TGE",
        "label": "__gap",
        "offset": 0,
        "slot": "1",
        "type": "t_array(t_uint256)50_storage"
      },
      {
        "astId": 10,
        "contract": "contracts/TGE.sol:TGE",
        "label": "_owner",
        "offset": 0,
        "slot": "51",
        "type": "t_address"
      },
      {
        "astId": 122,
        "contract": "contracts/TGE.sol:TGE",
        "label": "__gap",
        "offset": 0,
        "slot": "52",
        "type": "t_array(t_uint256)49_storage"
      },
      {
        "astId": 5959,
        "contract": "contracts/TGE.sol:TGE",
        "label": "token",
        "offset": 0,
        "slot": "101",
        "type": "t_contract(IGovernanceToken)7001"
      },
      {
        "astId": 5961,
        "contract": "contracts/TGE.sol:TGE",
        "label": "metadataURI",
        "offset": 0,
        "slot": "102",
        "type": "t_string_storage"
      },
      {
        "astId": 5963,
        "contract": "contracts/TGE.sol:TGE",
        "label": "price",
        "offset": 0,
        "slot": "103",
        "type": "t_uint256"
      },
      {
        "astId": 5965,
        "contract": "contracts/TGE.sol:TGE",
        "label": "hardcap",
        "offset": 0,
        "slot": "104",
        "type": "t_uint256"
      },
      {
        "astId": 5967,
        "contract": "contracts/TGE.sol:TGE",
        "label": "softcap",
        "offset": 0,
        "slot": "105",
        "type": "t_uint256"
      },
      {
        "astId": 5969,
        "contract": "contracts/TGE.sol:TGE",
        "label": "minPurchase",
        "offset": 0,
        "slot": "106",
        "type": "t_uint256"
      },
      {
        "astId": 5971,
        "contract": "contracts/TGE.sol:TGE",
        "label": "maxPurchase",
        "offset": 0,
        "slot": "107",
        "type": "t_uint256"
      },
      {
        "astId": 5973,
        "contract": "contracts/TGE.sol:TGE",
        "label": "lockupPercent",
        "offset": 0,
        "slot": "108",
        "type": "t_uint256"
      },
      {
        "astId": 5975,
        "contract": "contracts/TGE.sol:TGE",
        "label": "lockupTVL",
        "offset": 0,
        "slot": "109",
        "type": "t_uint256"
      },
      {
        "astId": 5977,
        "contract": "contracts/TGE.sol:TGE",
        "label": "lockupDuration",
        "offset": 0,
        "slot": "110",
        "type": "t_uint256"
      },
      {
        "astId": 5979,
        "contract": "contracts/TGE.sol:TGE",
        "label": "duration",
        "offset": 0,
        "slot": "111",
        "type": "t_uint256"
      },
      {
        "astId": 5982,
        "contract": "contracts/TGE.sol:TGE",
        "label": "whitelist",
        "offset": 0,
        "slot": "112",
        "type": "t_array(t_address)dyn_storage"
      },
      {
        "astId": 5986,
        "contract": "contracts/TGE.sol:TGE",
        "label": "isWhitelisted",
        "offset": 0,
        "slot": "113",
        "type": "t_mapping(t_address,t_bool)"
      },
      {
        "astId": 5988,
        "contract": "contracts/TGE.sol:TGE",
        "label": "createdAt",
        "offset": 0,
        "slot": "114",
        "type": "t_uint256"
      },
      {
        "astId": 5990,
        "contract": "contracts/TGE.sol:TGE",
        "label": "totalPurchases",
        "offset": 0,
        "slot": "115",
        "type": "t_uint256"
      },
      {
        "astId": 5994,
        "contract": "contracts/TGE.sol:TGE",
        "label": "purchaseOf",
        "offset": 0,
        "slot": "116",
        "type": "t_mapping(t_address,t_uint256)"
      },
      {
        "astId": 5996,
        "contract": "contracts/TGE.sol:TGE",
        "label": "lockupTVLReached",
        "offset": 0,
        "slot": "117",
        "type": "t_bool"
      },
      {
        "astId": 6000,
        "contract": "contracts/TGE.sol:TGE",
        "label": "lockedBalanceOf",
        "offset": 0,
        "slot": "118",
        "type": "t_mapping(t_address,t_uint256)"
      }
    ],
    "types": {
      "t_address": {
        "encoding": "inplace",
        "label": "address",
        "numberOfBytes": "20"
      },
      "t_array(t_address)dyn_storage": {
        "base": "t_address",
        "encoding": "dynamic_array",
        "label": "address[]",
        "numberOfBytes": "32"
      },
      "t_array(t_uint256)49_storage": {
        "base": "t_uint256",
        "encoding": "inplace",
        "label": "uint256[49]",
        "numberOfBytes": "1568"
      },
      "t_array(t_uint256)50_storage": {
        "base": "t_uint256",
        "encoding": "inplace",
        "label": "uint256[50]",
        "numberOfBytes": "1600"
      },
      "t_bool": {
        "encoding": "inplace",
        "label": "bool",
        "numberOfBytes": "1"
      },
      "t_contract(IGovernanceToken)7001": {
        "encoding": "inplace",
        "label": "contract IGovernanceToken",
        "numberOfBytes": "20"
      },
      "t_mapping(t_address,t_bool)": {
        "encoding": "mapping",
        "key": "t_address",
        "label": "mapping(address => bool)",
        "numberOfBytes": "32",
        "value": "t_bool"
      },
      "t_mapping(t_address,t_uint256)": {
        "encoding": "mapping",
        "key": "t_address",
        "label": "mapping(address => uint256)",
        "numberOfBytes": "32",
        "value": "t_uint256"
      },
      "t_string_storage": {
        "encoding": "bytes",
        "label": "string",
        "numberOfBytes": "32"
      },
      "t_uint256": {
        "encoding": "inplace",
        "label": "uint256",
        "numberOfBytes": "32"
      },
      "t_uint8": {
        "encoding": "inplace",
        "label": "uint8",
        "numberOfBytes": "1"
      }
    }
  }
}