{
  "address": "0xFD1e8032E416511088fB4e607d95325A68Cb3Af0",
  "abi": [
    {
      "anonymous": false,
      "inputs": [
        {
          "indexed": false,
          "internalType": "uint8",
          "name": "version",
          "type": "uint8"
        }
      ],
      "name": "Initialized",
      "type": "event"
    },
    {
      "anonymous": false,
      "inputs": [
        {
          "indexed": true,
          "internalType": "address",
          "name": "previousOwner",
          "type": "address"
        },
        {
          "indexed": true,
          "internalType": "address",
          "name": "newOwner",
          "type": "address"
        }
      ],
      "name": "OwnershipTransferred",
      "type": "event"
    },
    {
      "inputs": [],
      "name": "claimBack",
      "outputs": [],
      "stateMutability": "nonpayable",
      "type": "function"
    },
    {
      "inputs": [],
      "name": "createdAt",
      "outputs": [
        {
          "internalType": "uint256",
          "name": "",
          "type": "uint256"
        }
      ],
      "stateMutability": "view",
      "type": "function"
    },
    {
      "inputs": [],
      "name": "duration",
      "outputs": [
        {
          "internalType": "uint256",
          "name": "",
          "type": "uint256"
        }
      ],
      "stateMutability": "view",
      "type": "function"
    },
    {
      "inputs": [],
      "name": "getTVL",
      "outputs": [
        {
          "internalType": "uint256",
          "name": "",
          "type": "uint256"
        }
      ],
      "stateMutability": "nonpayable",
      "type": "function"
    },
    {
      "inputs": [],
      "name": "hardcap",
      "outputs": [
        {
          "internalType": "uint256",
          "name": "",
          "type": "uint256"
        }
      ],
      "stateMutability": "view",
      "type": "function"
    },
    {
      "inputs": [
        {
          "internalType": "address",
          "name": "owner_",
          "type": "address"
        },
        {
          "internalType": "address",
          "name": "token_",
          "type": "address"
        },
        {
          "components": [
            {
              "internalType": "string",
              "name": "metadataURI",
              "type": "string"
            },
            {
              "internalType": "uint256",
              "name": "price",
              "type": "uint256"
            },
            {
              "internalType": "uint256",
              "name": "hardcap",
              "type": "uint256"
            },
            {
              "internalType": "uint256",
              "name": "softcap",
              "type": "uint256"
            },
            {
              "internalType": "uint256",
              "name": "minPurchase",
              "type": "uint256"
            },
            {
              "internalType": "uint256",
              "name": "maxPurchase",
              "type": "uint256"
            },
            {
              "internalType": "uint256",
              "name": "lockupPercent",
              "type": "uint256"
            },
            {
              "internalType": "uint256",
              "name": "lockupDuration",
              "type": "uint256"
            },
            {
              "internalType": "uint256",
              "name": "lockupTVL",
              "type": "uint256"
            },
            {
              "internalType": "uint256",
              "name": "duration",
              "type": "uint256"
            },
            {
              "internalType": "address[]",
              "name": "whitelist",
              "type": "address[]"
            }
          ],
          "internalType": "struct ITGE.TGEInfo",
          "name": "info",
          "type": "tuple"
        }
      ],
      "name": "initialize",
      "outputs": [],
      "stateMutability": "nonpayable",
      "type": "function"
    },
    {
      "inputs": [
        {
          "internalType": "address",
          "name": "",
          "type": "address"
        }
      ],
      "name": "isWhitelisted",
      "outputs": [
        {
          "internalType": "bool",
          "name": "",
          "type": "bool"
        }
      ],
      "stateMutability": "view",
      "type": "function"
    },
    {
      "inputs": [
        {
          "internalType": "address",
          "name": "",
          "type": "address"
        }
      ],
      "name": "lockedBalanceOf",
      "outputs": [
        {
          "internalType": "uint256",
          "name": "",
          "type": "uint256"
        }
      ],
      "stateMutability": "view",
      "type": "function"
    },
    {
      "inputs": [],
      "name": "lockupDuration",
      "outputs": [
        {
          "internalType": "uint256",
          "name": "",
          "type": "uint256"
        }
      ],
      "stateMutability": "view",
      "type": "function"
    },
    {
      "inputs": [],
      "name": "lockupPercent",
      "outputs": [
        {
          "internalType": "uint256",
          "name": "",
          "type": "uint256"
        }
      ],
      "stateMutability": "view",
      "type": "function"
    },
    {
      "inputs": [],
      "name": "lockupTVL",
      "outputs": [
        {
          "internalType": "uint256",
          "name": "",
          "type": "uint256"
        }
      ],
      "stateMutability": "view",
      "type": "function"
    },
    {
      "inputs": [],
      "name": "lockupTVLReached",
      "outputs": [
        {
          "internalType": "bool",
          "name": "",
          "type": "bool"
        }
      ],
      "stateMutability": "view",
      "type": "function"
    },
    {
      "inputs": [],
      "name": "maxPurchase",
      "outputs": [
        {
          "internalType": "uint256",
          "name": "",
          "type": "uint256"
        }
      ],
      "stateMutability": "view",
      "type": "function"
    },
    {
      "inputs": [
        {
          "internalType": "address",
          "name": "account",
          "type": "address"
        }
      ],
      "name": "maxPurchaseOf",
      "outputs": [
        {
          "internalType": "uint256",
          "name": "",
          "type": "uint256"
        }
      ],
      "stateMutability": "view",
      "type": "function"
    },
    {
      "inputs": [],
      "name": "metadataURI",
      "outputs": [
        {
          "internalType": "string",
          "name": "",
          "type": "string"
        }
      ],
      "stateMutability": "view",
      "type": "function"
    },
    {
      "inputs": [],
      "name": "minPurchase",
      "outputs": [
        {
          "internalType": "uint256",
          "name": "",
          "type": "uint256"
        }
      ],
      "stateMutability": "view",
      "type": "function"
    },
    {
      "inputs": [],
      "name": "owner",
      "outputs": [
        {
          "internalType": "address",
          "name": "",
          "type": "address"
        }
      ],
      "stateMutability": "view",
      "type": "function"
    },
    {
      "inputs": [],
      "name": "price",
      "outputs": [
        {
          "internalType": "uint256",
          "name": "",
          "type": "uint256"
        }
      ],
      "stateMutability": "view",
      "type": "function"
    },
    {
      "inputs": [
        {
          "internalType": "address",
          "name": "currency",
          "type": "address"
        },
        {
          "internalType": "uint256",
          "name": "amount",
          "type": "uint256"
        }
      ],
      "name": "purchase",
      "outputs": [],
      "stateMutability": "payable",
      "type": "function"
    },
    {
      "inputs": [
        {
          "internalType": "address",
          "name": "",
          "type": "address"
        }
      ],
      "name": "purchaseOf",
      "outputs": [
        {
          "internalType": "uint256",
          "name": "",
          "type": "uint256"
        }
      ],
      "stateMutability": "view",
      "type": "function"
    },
    {
      "inputs": [],
      "name": "renounceOwnership",
      "outputs": [],
      "stateMutability": "nonpayable",
      "type": "function"
    },
    {
      "inputs": [],
      "name": "setLockupTVLReached",
      "outputs": [],
      "stateMutability": "nonpayable",
      "type": "function"
    },
    {
      "inputs": [],
      "name": "softcap",
      "outputs": [
        {
          "internalType": "uint256",
          "name": "",
          "type": "uint256"
        }
      ],
      "stateMutability": "view",
      "type": "function"
    },
    {
      "inputs": [],
      "name": "state",
      "outputs": [
        {
          "internalType": "enum ITGE.State",
          "name": "",
          "type": "uint8"
        }
      ],
      "stateMutability": "view",
      "type": "function"
    },
    {
      "inputs": [],
      "name": "token",
      "outputs": [
        {
          "internalType": "contract IGovernanceToken",
          "name": "",
          "type": "address"
        }
      ],
      "stateMutability": "view",
      "type": "function"
    },
    {
      "inputs": [],
      "name": "totalPurchases",
      "outputs": [
        {
          "internalType": "uint256",
          "name": "",
          "type": "uint256"
        }
      ],
      "stateMutability": "view",
      "type": "function"
    },
    {
      "inputs": [
        {
          "internalType": "address",
          "name": "currency",
          "type": "address"
        }
      ],
      "name": "transferFunds",
      "outputs": [],
      "stateMutability": "nonpayable",
      "type": "function"
    },
    {
      "inputs": [
        {
          "internalType": "address",
          "name": "newOwner",
          "type": "address"
        }
      ],
      "name": "transferOwnership",
      "outputs": [],
      "stateMutability": "nonpayable",
      "type": "function"
    },
    {
      "inputs": [],
      "name": "unlock",
      "outputs": [],
      "stateMutability": "nonpayable",
      "type": "function"
    },
    {
      "inputs": [],
      "name": "unlockAvailable",
      "outputs": [
        {
          "internalType": "bool",
          "name": "",
          "type": "bool"
        }
      ],
      "stateMutability": "view",
      "type": "function"
    },
    {
      "inputs": [
        {
          "internalType": "uint256",
          "name": "",
          "type": "uint256"
        }
      ],
      "name": "whitelist",
      "outputs": [
        {
          "internalType": "address",
          "name": "",
          "type": "address"
        }
      ],
      "stateMutability": "view",
      "type": "function"
    }
  ],
  "transactionHash": "0x018b7f0f2ed37a76f58c345869b0d9b94be75b63f125f553b21bcbfbf3236ccb",
  "args": [],
  "numDeployments": 1,
  "solcInputHash": "4dfaa6771f87ad430e2d47b84c416ad0",
  "bytecode": "0x608060405234801561001057600080fd5b50612767806100206000396000f3fe6080604052600436106101d85760003560e01c80638de9322211610102578063c19d93fb11610095578063ec76d21511610064578063ec76d215146104f3578063f2fde38b1461050d578063f89be5931461052d578063fc0c546a1461054357600080fd5b8063c19d93fb14610485578063cf09e0d0146104a7578063e15c38bd146104bd578063e39ff19f146104d357600080fd5b8063a035b1fe116100d1578063a035b1fe14610417578063a69df4b51461042d578063b071cbe614610442578063bf7fec081461045857600080fd5b80638de93222146103c4578063977b055b146103d757806397b3fcaa146103ed5780639b8c3e211461040257600080fd5b80633af32abf1161017a5780635962a941116101495780635962a94114610343578063715018a6146103595780637ebd1b301461036e5780638da5cb5b146103a657600080fd5b80633af32abf146102a657806342ee5d84146102d657806349297b33146102f6578063593557361461031657600080fd5b80630fb5a6b4116101b65780630fb5a6b41461024d5780631ada70a814610263578063205decf41461027957806333b5b62e1461029057600080fd5b8063028dcc4d146101dd57806303ee438c146102075780630409f6f814610229575b600080fd5b3480156101e957600080fd5b506101f2610563565b60405190151581526020015b60405180910390f35b34801561021357600080fd5b5061021c61058c565b6040516101fe91906120c9565b34801561023557600080fd5b5061023f606d5481565b6040519081526020016101fe565b34801561025957600080fd5b5061023f606f5481565b34801561026f57600080fd5b5061023f606e5481565b34801561028557600080fd5b5061028e61061a565b005b34801561029c57600080fd5b5061023f606a5481565b3480156102b257600080fd5b506101f26102c13660046120f1565b60716020526000908152604090205460ff1681565b3480156102e257600080fd5b5061023f6102f13660046120f1565b610687565b34801561030257600080fd5b5061028e610311366004612290565b6106b3565b34801561032257600080fd5b5061023f6103313660046120f1565b60766020526000908152604090205481565b34801561034f57600080fd5b5061023f60735481565b34801561036557600080fd5b5061028e6109ff565b34801561037a57600080fd5b5061038e6103893660046123a9565b610a65565b6040516001600160a01b0390911681526020016101fe565b3480156103b257600080fd5b506033546001600160a01b031661038e565b61028e6103d23660046123c2565b610a8f565b3480156103e357600080fd5b5061023f606b5481565b3480156103f957600080fd5b5061023f6110b7565b34801561040e57600080fd5b5061028e611428565b34801561042357600080fd5b5061023f60675481565b34801561043957600080fd5b5061028e61168d565b34801561044e57600080fd5b5061023f60685481565b34801561046457600080fd5b5061023f6104733660046120f1565b60746020526000908152604090205481565b34801561049157600080fd5b5061049a6117c2565b6040516101fe9190612404565b3480156104b357600080fd5b5061023f60725481565b3480156104c957600080fd5b5061023f606c5481565b3480156104df57600080fd5b5061028e6104ee3660046120f1565b6117f8565b3480156104ff57600080fd5b506075546101f29060ff1681565b34801561051957600080fd5b5061028e6105283660046120f1565b611a0f565b34801561053957600080fd5b5061023f60695481565b34801561054f57600080fd5b5060655461038e906001600160a01b031681565b60755460009060ff1680156105875750606e546072546105839190612442565b4310155b905090565b606680546105999061245a565b80601f01602080910402602001604051908101604052809291908181526020018280546105c59061245a565b80156106125780601f106105e757610100808354040283529160200191610612565b820191906000526020600020905b8154815290600101906020018083116105f557829003601f168201915b505050505081565b606d546106256110b7565b10156106785760405162461bcd60e51b815260206004820152601a60248201527f4c6f636b75702054564c206e6f7420796574207265616368656400000000000060448201526064015b60405180910390fd5b6075805460ff19166001179055565b6001600160a01b038116600090815260746020526040812054606b546106ad9190612494565b92915050565b60006106bf6001611ada565b905080156106d7576000805461ff0019166101001790555b6000836001600160a01b03166318160ddd6040518163ffffffff1660e01b8152600401602060405180830381865afa158015610717573d6000803e3d6000fd5b505050506040513d601f19601f8201168201806040525081019061073b91906124ab565b846001600160a01b031663355274ea6040518163ffffffff1660e01b8152600401602060405180830381865afa158015610779573d6000803e3d6000fd5b505050506040513d601f19601f8201168201806040525081019061079d91906124ab565b6107a79190612494565b905080836040015111156108095760405162461bcd60e51b8152602060048201526024808201527f4861726463617020686967686572207468616e2072656d61696e696e6720737560448201526370706c7960e01b606482015260840161066f565b61081285611b62565b606580546001600160a01b0319166001600160a01b0386161790558251805161084391606691602090910190611fd8565b506020830151606755604083015160685560608301516069556080830151606a5560a0830151606b5560c0830151606c55610100830151606d8190556075805460ff1916911591909117905560e0830151606e55610120830151606f5560005b8361014001515181101561096957607084610140015182815181106108ca576108ca6124c4565b60209081029190910181015182546001808201855560009485529284200180546001600160a01b0319166001600160a01b039092169190911790556101408601518051919260719290919085908110610925576109256124c4565b6020908102919091018101516001600160a01b03168252810191909152604001600020805460ff191691151591909117905580610961816124da565b9150506108a3565b50826101400151516000036109ae576000805260716020527fad843ed81c51f3253e288ab81893b95f341abc6f3805e238467be473bc3798f5805460ff191660011790555b504360725580156109f9576000805461ff0019169055604051600181527f7f26b83ff96e1f2b6a682f133852f6798a09c465da95921460cefb38474024989060200160405180910390a15b50505050565b6033546001600160a01b03163314610a595760405162461bcd60e51b815260206004820181905260248201527f4f776e61626c653a2063616c6c6572206973206e6f7420746865206f776e6572604482015260640161066f565b610a636000611b62565b565b60708181548110610a7557600080fd5b6000918252602090912001546001600160a01b0316905081565b6000805260716020527fad843ed81c51f3253e288ab81893b95f341abc6f3805e238467be473bc3798f55460ff1680610ad757503360009081526071602052604090205460ff165b610b155760405162461bcd60e51b815260206004820152600f60248201526e139bdd081dda1a5d195b1a5cdd1959608a1b604482015260640161066f565b600080610b206117c2565b6002811115610b3157610b316123ee565b14610b4e5760405162461bcd60e51b815260040161066f906124f3565b6065546040805163d598d4c960e01b815290516000926001600160a01b03169163d598d4c99160048083019260209291908290030181865afa158015610b98573d6000803e3d6000fd5b505050506040513d601f19601f82011682018060405250810190610bbc919061251f565b60405163b5af090f60e01b81526001600160a01b0386811660048301529192509082169063b5af090f90602401602060405180830381865afa158015610c06573d6000803e3d6000fd5b505050506040513d601f19601f82011682018060405250810190610c2a919061253c565b610c6e5760405162461bcd60e51b8152602060048201526015602482015274151bdad95b881b9bdd081dda1a5d195b1a5cdd1959605a1b604482015260640161066f565b6001600160a01b038416610cdc57606754610c89908461255e565b3414610cd75760405162461bcd60e51b815260206004820152601860248201527f496e76616c6964204554482076616c7565207061737365640000000000000000604482015260640161066f565b610e3f565b6000816001600160a01b0316634db4a3526040518163ffffffff1660e01b8152600401602060405180830381865afa158015610d1c573d6000803e3d6000fd5b505050506040513d601f19601f82011682018060405250810190610d40919061251f565b6040516363d08dff60e01b81526001600160a01b03878116600483015291821691632f80bb1d91908516906363d08dff90602401600060405180830381865afa158015610d91573d6000803e3d6000fd5b505050506040513d6000823e601f3d908101601f19168201604052610db9919081019061257d565b606754610dc6908861255e565b6040518363ffffffff1660e01b8152600401610de39291906125f4565b6020604051808303816000875af1158015610e02573d6000803e3d6000fd5b505050506040513d601f19601f82011682018060405250810190610e2691906124ab565b9050610e3d6001600160a01b038616333084611bb4565b505b606a54831015610e915760405162461bcd60e51b815260206004820152601d60248201527f416d6f756e74206c657373207468616e206d696e207075726368617365000000604482015260640161066f565b610e9a33610687565b831115610ee25760405162461bcd60e51b81526020600482015260166024820152754f766572666c6f7773206d617820707572636861736560501b604482015260640161066f565b60685483607354610ef39190612442565b1115610f355760405162461bcd60e51b815260206004820152601160248201527004f766572666c6f7773206861726463617607c1b604482015260640161066f565b8260736000828254610f479190612442565b90915550503360009081526074602052604081208054859290610f6b908490612442565b9091555050606c54600090606490610f83908661255e565b610f8e906063612442565b610f989190612616565b90506000610fa68286612494565b1115611027576065546001600160a01b03166340c10f1933610fc88488612494565b6040516001600160e01b031960e085901b1681526001600160a01b0390921660048301526024820152604401600060405180830381600087803b15801561100e57600080fd5b505af1158015611022573d6000803e3d6000fd5b505050505b6065546040516340c10f1960e01b8152306004820152602481018390526001600160a01b03909116906340c10f1990604401600060405180830381600087803b15801561107357600080fd5b505af1158015611087573d6000803e3d6000fd5b505033600090815260766020526040812080548594509092506110ab908490612442565b90915550505050505050565b600080606560009054906101000a90046001600160a01b03166001600160a01b031663d598d4c96040518163ffffffff1660e01b8152600401602060405180830381865afa15801561110d573d6000803e3d6000fd5b505050506040513d601f19601f82011682018060405250810190611131919061251f565b90506000816001600160a01b0316634db4a3526040518163ffffffff1660e01b8152600401602060405180830381865afa158015611173573d6000803e3d6000fd5b505050506040513d601f19601f82011682018060405250810190611197919061251f565b90506000826001600160a01b031663ca735cc16040518163ffffffff1660e01b8152600401600060405180830381865afa1580156111d9573d6000803e3d6000fd5b505050506040513d6000823e601f3d908101601f191682016040526112019190810190612638565b90506000805b825181101561140e5760006001600160a01b031683828151811061122d5761122d6124c4565b60200260200101516001600160a01b0316036112545761124d4783612442565b91506113fc565b6000838281518110611268576112686124c4565b60209081029190910101516040516370a0823160e01b81523060048201526001600160a01b03909116906370a0823190602401602060405180830381865afa1580156112b8573d6000803e3d6000fd5b505050506040513d601f19601f820116820180604052508101906112dc91906124ab565b905080156113fa57846001600160a01b031663cdca1753876001600160a01b03166350eb1c43878681518110611314576113146124c4565b60200260200101516040518263ffffffff1660e01b815260040161134791906001600160a01b0391909116815260200190565b600060405180830381865afa158015611364573d6000803e3d6000fd5b505050506040513d6000823e601f3d908101601f1916820160405261138c919081019061257d565b836040518363ffffffff1660e01b81526004016113aa9291906125f4565b6020604051808303816000875af11580156113c9573d6000803e3d6000fd5b505050506040513d601f19601f820116820180604052508101906113ed91906124ab565b6113f79084612442565b92505b505b80611406816124da565b915050611207565b5060675460735461141f919061255e565b94505050505090565b6001806114336117c2565b6002811115611444576114446123ee565b146114615760405162461bcd60e51b815260040161066f906124f3565b6065546040516370a0823160e01b81523360048201526000916001600160a01b0316906370a0823190602401602060405180830381865afa1580156114aa573d6000803e3d6000fd5b505050506040513d601f19601f820116820180604052508101906114ce91906124ab565b3360009081526076602052604081205491925090611505906114f09084612442565b33600090815260746020526040902054611c1f565b33600090815260746020526040812080549293508392909190611529908490612494565b9091555050818111156115e2576115408282612494565b336000908152607660205260408120805490919061155f908490612494565b90915550506065546001600160a01b0316639dc29fac306115808585612494565b6040516001600160e01b031960e085901b1681526001600160a01b0390921660048301526024820152604401600060405180830381600087803b1580156115c657600080fd5b505af11580156115da573d6000803e3d6000fd5b505050508190505b606554604051632770a7eb60e21b8152336004820152602481018390526001600160a01b0390911690639dc29fac90604401600060405180830381600087803b15801561162e57600080fd5b505af1158015611642573d6000803e3d6000fd5b50505050600060675482611656919061255e565b604051909150339082156108fc029083906000818181858888f19350505050158015611686573d6000803e3d6000fd5b5050505050565b611695610563565b6116e15760405162461bcd60e51b815260206004820152601860248201527f556e6c6f636b206e6f742079657420617661696c61626c650000000000000000604482015260640161066f565b336000908152607660205260409020546117315760405162461bcd60e51b81526020600482015260116024820152704e6f206c6f636b65642062616c616e636560781b604482015260640161066f565b336000818152607660205260408082208054929055606554905163a9059cbb60e01b815260048101939093526024830182905290916001600160a01b039091169063a9059cbb906044016020604051808303816000875af115801561179a573d6000803e3d6000fd5b505050506040513d601f19601f820116820180604052508101906117be919061253c565b5050565b6000606f546072546117d49190612442565b4310156117e15750600090565b606954607354106117f25750600290565b50600190565b6002806118036117c2565b6002811115611814576118146123ee565b146118315760405162461bcd60e51b815260040161066f906124f3565b6001600160a01b0382166118c9576117be47606560009054906101000a90046001600160a01b03166001600160a01b03166316f0115b6040518163ffffffff1660e01b8152600401602060405180830381865afa158015611896573d6000803e3d6000fd5b505050506040513d601f19601f820116820180604052508101906118ba919061251f565b6001600160a01b031690611c37565b6065546001600160a01b03908116908316036119275760405162461bcd60e51b815260206004820181905260248201527f496d706f737369626c6520746f207472616e736665722054474520746f6b656e604482015260640161066f565b606554604080516316f0115b60e01b815290516117be926001600160a01b0316916316f0115b9160048083019260209291908290030181865afa158015611972573d6000803e3d6000fd5b505050506040513d601f19601f82011682018060405250810190611996919061251f565b6040516370a0823160e01b81523060048201526001600160a01b038516906370a0823190602401602060405180830381865afa1580156119da573d6000803e3d6000fd5b505050506040513d601f19601f820116820180604052508101906119fe91906124ab565b6001600160a01b0385169190611d55565b6033546001600160a01b03163314611a695760405162461bcd60e51b815260206004820181905260248201527f4f776e61626c653a2063616c6c6572206973206e6f7420746865206f776e6572604482015260640161066f565b6001600160a01b038116611ace5760405162461bcd60e51b815260206004820152602660248201527f4f776e61626c653a206e6577206f776e657220697320746865207a65726f206160448201526564647265737360d01b606482015260840161066f565b611ad781611b62565b50565b60008054610100900460ff1615611b21578160ff166001148015611afd5750303b155b611b195760405162461bcd60e51b815260040161066f906126c7565b506000919050565b60005460ff808416911610611b485760405162461bcd60e51b815260040161066f906126c7565b506000805460ff191660ff92909216919091179055600190565b603380546001600160a01b038381166001600160a01b0319831681179093556040519116919082907f8be0079c531659141344cd1fd0a4f28419497f9722a3daafe3b4186f6b6457e090600090a35050565b6040516001600160a01b03808516602483015283166044820152606481018290526109f99085906323b872dd60e01b906084015b60408051601f198184030181529190526020810180516001600160e01b03166001600160e01b031990931692909217909152611d85565b6000818310611c2e5781611c30565b825b9392505050565b80471015611c875760405162461bcd60e51b815260206004820152601d60248201527f416464726573733a20696e73756666696369656e742062616c616e6365000000604482015260640161066f565b6000826001600160a01b03168260405160006040518083038185875af1925050503d8060008114611cd4576040519150601f19603f3d011682016040523d82523d6000602084013e611cd9565b606091505b5050905080611d505760405162461bcd60e51b815260206004820152603a60248201527f416464726573733a20756e61626c6520746f2073656e642076616c75652c207260448201527f6563697069656e74206d61792068617665207265766572746564000000000000606482015260840161066f565b505050565b6040516001600160a01b038316602482015260448101829052611d5090849063a9059cbb60e01b90606401611be8565b6000611dda826040518060400160405280602081526020017f5361666545524332303a206c6f772d6c6576656c2063616c6c206661696c6564815250856001600160a01b0316611e579092919063ffffffff16565b805190915015611d505780806020019051810190611df8919061253c565b611d505760405162461bcd60e51b815260206004820152602a60248201527f5361666545524332303a204552433230206f7065726174696f6e20646964206e6044820152691bdd081cdd58d8d9595960b21b606482015260840161066f565b6060611e668484600085611e6e565b949350505050565b606082471015611ecf5760405162461bcd60e51b815260206004820152602660248201527f416464726573733a20696e73756666696369656e742062616c616e636520666f6044820152651c8818d85b1b60d21b606482015260840161066f565b6001600160a01b0385163b611f265760405162461bcd60e51b815260206004820152601d60248201527f416464726573733a2063616c6c20746f206e6f6e2d636f6e7472616374000000604482015260640161066f565b600080866001600160a01b03168587604051611f429190612715565b60006040518083038185875af1925050503d8060008114611f7f576040519150601f19603f3d011682016040523d82523d6000602084013e611f84565b606091505b5091509150611f94828286611f9f565b979650505050505050565b60608315611fae575081611c30565b825115611fbe5782518084602001fd5b8160405162461bcd60e51b815260040161066f91906120c9565b828054611fe49061245a565b90600052602060002090601f016020900481019282612006576000855561204c565b82601f1061201f57805160ff191683800117855561204c565b8280016001018555821561204c579182015b8281111561204c578251825591602001919060010190612031565b5061205892915061205c565b5090565b5b80821115612058576000815560010161205d565b60005b8381101561208c578181015183820152602001612074565b838111156109f95750506000910152565b600081518084526120b5816020860160208601612071565b601f01601f19169290920160200192915050565b602081526000611c30602083018461209d565b6001600160a01b0381168114611ad757600080fd5b60006020828403121561210357600080fd5b8135611c30816120dc565b634e487b7160e01b600052604160045260246000fd5b604051610160810167ffffffffffffffff811182821017156121485761214861210e565b60405290565b604051601f8201601f1916810167ffffffffffffffff811182821017156121775761217761210e565b604052919050565b600067ffffffffffffffff8211156121995761219961210e565b50601f01601f191660200190565b600082601f8301126121b857600080fd5b81356121cb6121c68261217f565b61214e565b8181528460208386010111156121e057600080fd5b816020850160208301376000918101602001919091529392505050565b600067ffffffffffffffff8211156122175761221761210e565b5060051b60200190565b600082601f83011261223257600080fd5b813560206122426121c6836121fd565b82815260059290921b8401810191818101908684111561226157600080fd5b8286015b84811015612285578035612278816120dc565b8352918301918301612265565b509695505050505050565b6000806000606084860312156122a557600080fd5b83356122b0816120dc565b925060208401356122c0816120dc565b9150604084013567ffffffffffffffff808211156122dd57600080fd5b9085019061016082880312156122f257600080fd5b6122fa612124565b82358281111561230957600080fd5b612315898286016121a7565b8252506020830135602082015260408301356040820152606083013560608201526080830135608082015260a083013560a082015260c083013560c082015260e083013560e0820152610100808401358183015250610120808401358183015250610140808401358381111561238a57600080fd5b6123968a828701612221565b8284015250508093505050509250925092565b6000602082840312156123bb57600080fd5b5035919050565b600080604083850312156123d557600080fd5b82356123e0816120dc565b946020939093013593505050565b634e487b7160e01b600052602160045260246000fd5b602081016003831061242657634e487b7160e01b600052602160045260246000fd5b91905290565b634e487b7160e01b600052601160045260246000fd5b600082198211156124555761245561242c565b500190565b600181811c9082168061246e57607f821691505b60208210810361248e57634e487b7160e01b600052602260045260246000fd5b50919050565b6000828210156124a6576124a661242c565b500390565b6000602082840312156124bd57600080fd5b5051919050565b634e487b7160e01b600052603260045260246000fd5b6000600182016124ec576124ec61242c565b5060010190565b60208082526012908201527154474520696e2077726f6e6720737461746560701b604082015260600190565b60006020828403121561253157600080fd5b8151611c30816120dc565b60006020828403121561254e57600080fd5b81518015158114611c3057600080fd5b60008160001904831182151516156125785761257861242c565b500290565b60006020828403121561258f57600080fd5b815167ffffffffffffffff8111156125a657600080fd5b8201601f810184136125b757600080fd5b80516125c56121c68261217f565b8181528560208385010111156125da57600080fd5b6125eb826020830160208601612071565b95945050505050565b604081526000612607604083018561209d565b90508260208301529392505050565b60008261263357634e487b7160e01b600052601260045260246000fd5b500490565b6000602080838503121561264b57600080fd5b825167ffffffffffffffff81111561266257600080fd5b8301601f8101851361267357600080fd5b80516126816121c6826121fd565b81815260059190911b820183019083810190878311156126a057600080fd5b928401925b82841015611f945783516126b8816120dc565b825292840192908401906126a5565b6020808252602e908201527f496e697469616c697a61626c653a20636f6e747261637420697320616c72656160408201526d191e481a5b9a5d1a585b1a5e995960921b606082015260800190565b60008251612727818460208701612071565b919091019291505056fea26469706673582212206a5a0df327d7e9e7fa42f403ef4195e3868f74775b890498a4f14490a343b4e764736f6c634300080d0033",
  "devdoc": {
    "kind": "dev",
    "methods": {
      "owner()": {
        "details": "Returns the address of the current owner."
      },
      "renounceOwnership()": {
        "details": "Leaves the contract without owner. It will not be possible to call `onlyOwner` functions anymore. Can only be called by the current owner. NOTE: Renouncing ownership will leave the contract without an owner, thereby removing any functionality that is only available to the owner."
      },
      "transferOwnership(address)": {
        "details": "Transfers ownership of the contract to a new account (`newOwner`). Can only be called by the current owner."
      }
    },
    "version": 1
  },
  "userdoc": {
    "kind": "user",
    "methods": {},
    "version": 1
  },
  "storageLayout": {
    "storage": [
      {
        "astId": 208,
        "contract": "contracts/TGE.sol:TGE",
        "label": "_initialized",
        "offset": 0,
        "slot": "0",
        "type": "t_uint8"
      },
      {
        "astId": 211,
        "contract": "contracts/TGE.sol:TGE",
        "label": "_initializing",
        "offset": 1,
        "slot": "0",
        "type": "t_bool"
      },
      {
        "astId": 2536,
        "contract": "contracts/TGE.sol:TGE",
        "label": "__gap",
        "offset": 0,
        "slot": "1",
        "type": "t_array(t_uint256)50_storage"
      },
      {
        "astId": 10,
        "contract": "contracts/TGE.sol:TGE",
        "label": "_owner",
        "offset": 0,
        "slot": "51",
        "type": "t_address"
      },
      {
        "astId": 122,
        "contract": "contracts/TGE.sol:TGE",
        "label": "__gap",
        "offset": 0,
        "slot": "52",
        "type": "t_array(t_uint256)49_storage"
      },
      {
        "astId": 8526,
        "contract": "contracts/TGE.sol:TGE",
        "label": "token",
        "offset": 0,
        "slot": "101",
        "type": "t_contract(IGovernanceToken)9758"
      },
      {
        "astId": 8528,
        "contract": "contracts/TGE.sol:TGE",
        "label": "metadataURI",
        "offset": 0,
        "slot": "102",
        "type": "t_string_storage"
      },
      {
        "astId": 8530,
        "contract": "contracts/TGE.sol:TGE",
        "label": "price",
        "offset": 0,
        "slot": "103",
        "type": "t_uint256"
      },
      {
        "astId": 8532,
        "contract": "contracts/TGE.sol:TGE",
        "label": "hardcap",
        "offset": 0,
        "slot": "104",
        "type": "t_uint256"
      },
      {
        "astId": 8534,
        "contract": "contracts/TGE.sol:TGE",
        "label": "softcap",
        "offset": 0,
        "slot": "105",
        "type": "t_uint256"
      },
      {
        "astId": 8536,
        "contract": "contracts/TGE.sol:TGE",
        "label": "minPurchase",
        "offset": 0,
        "slot": "106",
        "type": "t_uint256"
      },
      {
        "astId": 8538,
        "contract": "contracts/TGE.sol:TGE",
        "label": "maxPurchase",
        "offset": 0,
        "slot": "107",
        "type": "t_uint256"
      },
      {
        "astId": 8540,
        "contract": "contracts/TGE.sol:TGE",
        "label": "lockupPercent",
        "offset": 0,
        "slot": "108",
        "type": "t_uint256"
      },
      {
        "astId": 8542,
        "contract": "contracts/TGE.sol:TGE",
        "label": "lockupTVL",
        "offset": 0,
        "slot": "109",
        "type": "t_uint256"
      },
      {
        "astId": 8544,
        "contract": "contracts/TGE.sol:TGE",
        "label": "lockupDuration",
        "offset": 0,
        "slot": "110",
        "type": "t_uint256"
      },
      {
        "astId": 8546,
        "contract": "contracts/TGE.sol:TGE",
        "label": "duration",
        "offset": 0,
        "slot": "111",
        "type": "t_uint256"
      },
      {
        "astId": 8549,
        "contract": "contracts/TGE.sol:TGE",
        "label": "whitelist",
        "offset": 0,
        "slot": "112",
        "type": "t_array(t_address)dyn_storage"
      },
      {
        "astId": 8553,
        "contract": "contracts/TGE.sol:TGE",
        "label": "isWhitelisted",
        "offset": 0,
        "slot": "113",
        "type": "t_mapping(t_address,t_bool)"
      },
      {
        "astId": 8555,
        "contract": "contracts/TGE.sol:TGE",
        "label": "createdAt",
        "offset": 0,
        "slot": "114",
        "type": "t_uint256"
      },
      {
        "astId": 8557,
        "contract": "contracts/TGE.sol:TGE",
        "label": "totalPurchases",
        "offset": 0,
        "slot": "115",
        "type": "t_uint256"
      },
      {
        "astId": 8561,
        "contract": "contracts/TGE.sol:TGE",
        "label": "purchaseOf",
        "offset": 0,
        "slot": "116",
        "type": "t_mapping(t_address,t_uint256)"
      },
      {
        "astId": 8563,
        "contract": "contracts/TGE.sol:TGE",
        "label": "lockupTVLReached",
        "offset": 0,
        "slot": "117",
        "type": "t_bool"
      },
      {
        "astId": 8567,
        "contract": "contracts/TGE.sol:TGE",
        "label": "lockedBalanceOf",
        "offset": 0,
        "slot": "118",
        "type": "t_mapping(t_address,t_uint256)"
      }
    ],
    "types": {
      "t_address": {
        "encoding": "inplace",
        "label": "address",
        "numberOfBytes": "20"
      },
      "t_array(t_address)dyn_storage": {
        "base": "t_address",
        "encoding": "dynamic_array",
        "label": "address[]",
        "numberOfBytes": "32"
      },
      "t_array(t_uint256)49_storage": {
        "base": "t_uint256",
        "encoding": "inplace",
        "label": "uint256[49]",
        "numberOfBytes": "1568"
      },
      "t_array(t_uint256)50_storage": {
        "base": "t_uint256",
        "encoding": "inplace",
        "label": "uint256[50]",
        "numberOfBytes": "1600"
      },
      "t_bool": {
        "encoding": "inplace",
        "label": "bool",
        "numberOfBytes": "1"
      },
      "t_contract(IGovernanceToken)9758": {
        "encoding": "inplace",
        "label": "contract IGovernanceToken",
        "numberOfBytes": "20"
      },
      "t_mapping(t_address,t_bool)": {
        "encoding": "mapping",
        "key": "t_address",
        "label": "mapping(address => bool)",
        "numberOfBytes": "32",
        "value": "t_bool"
      },
      "t_mapping(t_address,t_uint256)": {
        "encoding": "mapping",
        "key": "t_address",
        "label": "mapping(address => uint256)",
        "numberOfBytes": "32",
        "value": "t_uint256"
      },
      "t_string_storage": {
        "encoding": "bytes",
        "label": "string",
        "numberOfBytes": "32"
      },
      "t_uint256": {
        "encoding": "inplace",
        "label": "uint256",
        "numberOfBytes": "32"
      },
      "t_uint8": {
        "encoding": "inplace",
        "label": "uint8",
        "numberOfBytes": "1"
      }
    }
  }
}