{
  "address": "0x536A528436C0e9F93c65fA3c6cec0181b2a982b8",
  "abi": [
    {
      "anonymous": false,
      "inputs": [
        {
          "indexed": false,
          "internalType": "uint8",
          "name": "version",
          "type": "uint8"
        }
      ],
      "name": "Initialized",
      "type": "event"
    },
    {
      "anonymous": false,
      "inputs": [
        {
          "indexed": true,
          "internalType": "address",
          "name": "previousOwner",
          "type": "address"
        },
        {
          "indexed": true,
          "internalType": "address",
          "name": "newOwner",
          "type": "address"
        }
      ],
      "name": "OwnershipTransferred",
      "type": "event"
    },
    {
      "inputs": [],
      "name": "claimBack",
      "outputs": [],
      "stateMutability": "nonpayable",
      "type": "function"
    },
    {
      "inputs": [],
      "name": "createdAt",
      "outputs": [
        {
          "internalType": "uint256",
          "name": "",
          "type": "uint256"
        }
      ],
      "stateMutability": "view",
      "type": "function"
    },
    {
      "inputs": [],
      "name": "duration",
      "outputs": [
        {
          "internalType": "uint256",
          "name": "",
          "type": "uint256"
        }
      ],
      "stateMutability": "view",
      "type": "function"
    },
    {
      "inputs": [],
      "name": "getTVL",
      "outputs": [
        {
          "internalType": "uint256",
          "name": "",
          "type": "uint256"
        }
      ],
      "stateMutability": "nonpayable",
      "type": "function"
    },
    {
      "inputs": [],
      "name": "hardcap",
      "outputs": [
        {
          "internalType": "uint256",
          "name": "",
          "type": "uint256"
        }
      ],
      "stateMutability": "view",
      "type": "function"
    },
    {
      "inputs": [
        {
          "internalType": "address",
          "name": "owner_",
          "type": "address"
        },
        {
          "internalType": "address",
          "name": "token_",
          "type": "address"
        },
        {
          "components": [
            {
              "internalType": "string",
              "name": "metadataURI",
              "type": "string"
            },
            {
              "internalType": "uint256",
              "name": "price",
              "type": "uint256"
            },
            {
              "internalType": "uint256",
              "name": "hardcap",
              "type": "uint256"
            },
            {
              "internalType": "uint256",
              "name": "softcap",
              "type": "uint256"
            },
            {
              "internalType": "uint256",
              "name": "minPurchase",
              "type": "uint256"
            },
            {
              "internalType": "uint256",
              "name": "maxPurchase",
              "type": "uint256"
            },
            {
              "internalType": "uint256",
              "name": "lockupPercent",
              "type": "uint256"
            },
            {
              "internalType": "uint256",
              "name": "lockupDuration",
              "type": "uint256"
            },
            {
              "internalType": "uint256",
              "name": "lockupTVL",
              "type": "uint256"
            },
            {
              "internalType": "uint256",
              "name": "duration",
              "type": "uint256"
            },
            {
              "internalType": "address[]",
              "name": "userWhitelist",
              "type": "address[]"
            },
            {
              "internalType": "address[]",
              "name": "tokenWhitelist",
              "type": "address[]"
            }
          ],
          "internalType": "struct ITGE.TGEInfo",
          "name": "info",
          "type": "tuple"
        }
      ],
      "name": "initialize",
      "outputs": [],
      "stateMutability": "nonpayable",
      "type": "function"
    },
    {
      "inputs": [
        {
          "internalType": "address",
          "name": "",
          "type": "address"
        }
      ],
      "name": "isTokenWhitelisted",
      "outputs": [
        {
          "internalType": "bool",
          "name": "",
          "type": "bool"
        }
      ],
      "stateMutability": "view",
      "type": "function"
    },
    {
      "inputs": [
        {
          "internalType": "address",
          "name": "",
          "type": "address"
        }
      ],
      "name": "isUserWhitelisted",
      "outputs": [
        {
          "internalType": "bool",
          "name": "",
          "type": "bool"
        }
      ],
      "stateMutability": "view",
      "type": "function"
    },
    {
      "inputs": [
        {
          "internalType": "address",
          "name": "",
          "type": "address"
        }
      ],
      "name": "lockedBalanceOf",
      "outputs": [
        {
          "internalType": "uint256",
          "name": "",
          "type": "uint256"
        }
      ],
      "stateMutability": "view",
      "type": "function"
    },
    {
      "inputs": [],
      "name": "lockupDuration",
      "outputs": [
        {
          "internalType": "uint256",
          "name": "",
          "type": "uint256"
        }
      ],
      "stateMutability": "view",
      "type": "function"
    },
    {
      "inputs": [],
      "name": "lockupPercent",
      "outputs": [
        {
          "internalType": "uint256",
          "name": "",
          "type": "uint256"
        }
      ],
      "stateMutability": "view",
      "type": "function"
    },
    {
      "inputs": [],
      "name": "lockupTVL",
      "outputs": [
        {
          "internalType": "uint256",
          "name": "",
          "type": "uint256"
        }
      ],
      "stateMutability": "view",
      "type": "function"
    },
    {
      "inputs": [],
      "name": "lockupTVLReached",
      "outputs": [
        {
          "internalType": "bool",
          "name": "",
          "type": "bool"
        }
      ],
      "stateMutability": "view",
      "type": "function"
    },
    {
      "inputs": [],
      "name": "maxPurchase",
      "outputs": [
        {
          "internalType": "uint256",
          "name": "",
          "type": "uint256"
        }
      ],
      "stateMutability": "view",
      "type": "function"
    },
    {
      "inputs": [
        {
          "internalType": "address",
          "name": "account",
          "type": "address"
        }
      ],
      "name": "maxPurchaseOf",
      "outputs": [
        {
          "internalType": "uint256",
          "name": "",
          "type": "uint256"
        }
      ],
      "stateMutability": "view",
      "type": "function"
    },
    {
      "inputs": [],
      "name": "metadataURI",
      "outputs": [
        {
          "internalType": "string",
          "name": "",
          "type": "string"
        }
      ],
      "stateMutability": "view",
      "type": "function"
    },
    {
      "inputs": [],
      "name": "minPurchase",
      "outputs": [
        {
          "internalType": "uint256",
          "name": "",
          "type": "uint256"
        }
      ],
      "stateMutability": "view",
      "type": "function"
    },
    {
      "inputs": [],
      "name": "owner",
      "outputs": [
        {
          "internalType": "address",
          "name": "",
          "type": "address"
        }
      ],
      "stateMutability": "view",
      "type": "function"
    },
    {
      "inputs": [],
      "name": "price",
      "outputs": [
        {
          "internalType": "uint256",
          "name": "",
          "type": "uint256"
        }
      ],
      "stateMutability": "view",
      "type": "function"
    },
    {
      "inputs": [
        {
          "internalType": "address",
          "name": "currency",
          "type": "address"
        },
        {
          "internalType": "uint256",
          "name": "amount",
          "type": "uint256"
        }
      ],
      "name": "purchase",
      "outputs": [],
      "stateMutability": "payable",
      "type": "function"
    },
    {
      "inputs": [
        {
          "internalType": "address",
          "name": "",
          "type": "address"
        }
      ],
      "name": "purchaseOf",
      "outputs": [
        {
          "internalType": "uint256",
          "name": "",
          "type": "uint256"
        }
      ],
      "stateMutability": "view",
      "type": "function"
    },
    {
      "inputs": [],
      "name": "renounceOwnership",
      "outputs": [],
      "stateMutability": "nonpayable",
      "type": "function"
    },
    {
      "inputs": [],
      "name": "setLockupTVLReached",
      "outputs": [],
      "stateMutability": "nonpayable",
      "type": "function"
    },
    {
      "inputs": [],
      "name": "softcap",
      "outputs": [
        {
          "internalType": "uint256",
          "name": "",
          "type": "uint256"
        }
      ],
      "stateMutability": "view",
      "type": "function"
    },
    {
      "inputs": [],
      "name": "state",
      "outputs": [
        {
          "internalType": "enum ITGE.State",
          "name": "",
          "type": "uint8"
        }
      ],
      "stateMutability": "view",
      "type": "function"
    },
    {
      "inputs": [],
      "name": "token",
      "outputs": [
        {
          "internalType": "contract IGovernanceToken",
          "name": "",
          "type": "address"
        }
      ],
      "stateMutability": "view",
      "type": "function"
    },
    {
      "inputs": [
        {
          "internalType": "uint256",
          "name": "",
          "type": "uint256"
        }
      ],
      "name": "tokenWhitelist",
      "outputs": [
        {
          "internalType": "address",
          "name": "",
          "type": "address"
        }
      ],
      "stateMutability": "view",
      "type": "function"
    },
    {
      "inputs": [],
      "name": "totalPurchases",
      "outputs": [
        {
          "internalType": "uint256",
          "name": "",
          "type": "uint256"
        }
      ],
      "stateMutability": "view",
      "type": "function"
    },
    {
      "inputs": [
        {
          "internalType": "address",
          "name": "currency",
          "type": "address"
        }
      ],
      "name": "transferFunds",
      "outputs": [],
      "stateMutability": "nonpayable",
      "type": "function"
    },
    {
      "inputs": [
        {
          "internalType": "address",
          "name": "newOwner",
          "type": "address"
        }
      ],
      "name": "transferOwnership",
      "outputs": [],
      "stateMutability": "nonpayable",
      "type": "function"
    },
    {
      "inputs": [],
      "name": "unlock",
      "outputs": [],
      "stateMutability": "nonpayable",
      "type": "function"
    },
    {
      "inputs": [],
      "name": "unlockAvailable",
      "outputs": [
        {
          "internalType": "bool",
          "name": "",
          "type": "bool"
        }
      ],
      "stateMutability": "view",
      "type": "function"
    },
    {
      "inputs": [
        {
          "internalType": "uint256",
          "name": "",
          "type": "uint256"
        }
      ],
      "name": "userWhitelist",
      "outputs": [
        {
          "internalType": "address",
          "name": "",
          "type": "address"
        }
      ],
      "stateMutability": "view",
      "type": "function"
    }
  ],
  "transactionHash": "0xda12c5eec19ca9cea2db18708c78548dfedc342dbeae63cec4151692d31c834b",
  "args": [],
  "numDeployments": 2,
  "solcInputHash": "a92f2d21a2e6b235a63ce6ec5f8104c5",
  "bytecode": "0x608060405234801561001057600080fd5b50612b0e806100206000396000f3fe6080604052600436106101ee5760003560e01c8063977b055b1161010d578063c19d93fb116100a0578063ec76d2151161006f578063ec76d21514610529578063f2fde38b14610543578063f89be59314610563578063fb237eb214610579578063fc0c546a146105a957600080fd5b8063c19d93fb146104bb578063cf09e0d0146104dd578063e15c38bd146104f3578063e39ff19f1461050957600080fd5b8063a69df4b5116100dc578063a69df4b514610433578063b071cbe614610448578063b5af090f1461045e578063bf7fec081461048e57600080fd5b8063977b055b146103dd57806397b3fcaa146103f35780639b8c3e2114610408578063a035b1fe1461041d57600080fd5b806346182d021161018557806362d492841161015457806362d4928414610377578063715018a6146103975780638da5cb5b146103ac5780638de93222146103ca57600080fd5b806346182d02146102dc5780635638b5e9146102fc57806359355736146103345780635962a9411461036157600080fd5b80631ada70a8116101c15780631ada70a814610279578063205decf41461028f57806333b5b62e146102a657806342ee5d84146102bc57600080fd5b8063028dcc4d146101f357806303ee438c1461021d5780630409f6f81461023f5780630fb5a6b414610263575b600080fd5b3480156101ff57600080fd5b506102086105c9565b60405190151581526020015b60405180910390f35b34801561022957600080fd5b506102326105f2565b604051610214919061244a565b34801561024b57600080fd5b50610255606d5481565b604051908152602001610214565b34801561026f57600080fd5b50610255606f5481565b34801561028557600080fd5b50610255606e5481565b34801561029b57600080fd5b506102a4610680565b005b3480156102b257600080fd5b50610255606a5481565b3480156102c857600080fd5b506102556102d7366004612472565b6106ed565b3480156102e857600080fd5b506102a46102f7366004612611565b610719565b34801561030857600080fd5b5061031c610317366004612750565b610c47565b6040516001600160a01b039091168152602001610214565b34801561034057600080fd5b5061025561034f366004612472565b60786020526000908152604090205481565b34801561036d57600080fd5b5061025560755481565b34801561038357600080fd5b5061031c610392366004612750565b610c71565b3480156103a357600080fd5b506102a4610c81565b3480156103b857600080fd5b506033546001600160a01b031661031c565b6102a46103d8366004612769565b610ce7565b3480156103e957600080fd5b50610255606b5481565b3480156103ff57600080fd5b506102556113ce565b34801561041457600080fd5b506102a46117a9565b34801561042957600080fd5b5061025560675481565b34801561043f57600080fd5b506102a4611a0e565b34801561045457600080fd5b5061025560685481565b34801561046a57600080fd5b50610208610479366004612472565b60736020526000908152604090205460ff1681565b34801561049a57600080fd5b506102556104a9366004612472565b60766020526000908152604090205481565b3480156104c757600080fd5b506104d0611b43565b60405161021491906127ab565b3480156104e957600080fd5b5061025560745481565b3480156104ff57600080fd5b50610255606c5481565b34801561051557600080fd5b506102a4610524366004612472565b611b79565b34801561053557600080fd5b506077546102089060ff1681565b34801561054f57600080fd5b506102a461055e366004612472565b611d90565b34801561056f57600080fd5b5061025560695481565b34801561058557600080fd5b50610208610594366004612472565b60726020526000908152604090205460ff1681565b3480156105b557600080fd5b5060655461031c906001600160a01b031681565b60775460009060ff1680156105ed5750606e546074546105e991906127e9565b4310155b905090565b606680546105ff90612801565b80601f016020809104026020016040519081016040528092919081815260200182805461062b90612801565b80156106785780601f1061064d57610100808354040283529160200191610678565b820191906000526020600020905b81548152906001019060200180831161065b57829003601f168201915b505050505081565b606d5461068b6113ce565b10156106de5760405162461bcd60e51b815260206004820152601a60248201527f4c6f636b75702054564c206e6f7420796574207265616368656400000000000060448201526064015b60405180910390fd5b6077805460ff19166001179055565b6001600160a01b038116600090815260766020526040812054606b54610713919061283b565b92915050565b60006107256001611e5b565b9050801561073d576000805461ff0019166101001790555b6000836001600160a01b03166318160ddd6040518163ffffffff1660e01b8152600401602060405180830381865afa15801561077d573d6000803e3d6000fd5b505050506040513d601f19601f820116820180604052508101906107a19190612852565b846001600160a01b031663355274ea6040518163ffffffff1660e01b8152600401602060405180830381865afa1580156107df573d6000803e3d6000fd5b505050506040513d601f19601f820116820180604052508101906108039190612852565b61080d919061283b565b9050808360400151111561086f5760405162461bcd60e51b8152602060048201526024808201527f4861726463617020686967686572207468616e2072656d61696e696e6720737560448201526370706c7960e01b60648201526084016106d5565b61087885611ee3565b606580546001600160a01b0319166001600160a01b038616179055825180516108a991606691602090910190612359565b506020830151606755604083015160685560608301516069556080830151606a5560a0830151606b5560c0830151606c55610100830151606d8190556077805460ff1916911591909117905560e0830151606e55610120830151606f5560005b836101400151518110156109cf57607084610140015182815181106109305761093061286b565b60209081029190910181015182546001808201855560009485529284200180546001600160a01b0319166001600160a01b03909216919091179055610140860151805191926072929091908590811061098b5761098b61286b565b6020908102919091018101516001600160a01b03168252810191909152604001600020805460ff1916911515919091179055806109c781612881565b915050610909565b5060005b83610160015151811015610bf557606560009054906101000a90046001600160a01b03166001600160a01b031663d598d4c96040518163ffffffff1660e01b8152600401602060405180830381865afa158015610a34573d6000803e3d6000fd5b505050506040513d601f19601f82011682018060405250810190610a58919061289a565b6001600160a01b031663b5af090f8561016001518381518110610a7d57610a7d61286b565b60200260200101516040518263ffffffff1660e01b8152600401610ab091906001600160a01b0391909116815260200190565b602060405180830381865afa158015610acd573d6000803e3d6000fd5b505050506040513d601f19601f82011682018060405250810190610af191906128b7565b610b3d5760405162461bcd60e51b815260206004820152601e60248201527f546f6b656e206e6f7420676c6f62616c6c792077686974656c6973746564000060448201526064016106d5565b60718461016001518281518110610b5657610b5661286b565b60209081029190910181015182546001808201855560009485529284200180546001600160a01b0319166001600160a01b039092169190911790556101608601518051919260739290919085908110610bb157610bb161286b565b6020908102919091018101516001600160a01b03168252810191909152604001600020805460ff191691151591909117905580610bed81612881565b9150506109d3565b5050436074558015610c41576000805461ff0019169055604051600181527f7f26b83ff96e1f2b6a682f133852f6798a09c465da95921460cefb38474024989060200160405180910390a15b50505050565b60708181548110610c5757600080fd5b6000918252602090912001546001600160a01b0316905081565b60718181548110610c5757600080fd5b6033546001600160a01b03163314610cdb5760405162461bcd60e51b815260206004820181905260248201527f4f776e61626c653a2063616c6c6572206973206e6f7420746865206f776e657260448201526064016106d5565b610ce56000611ee3565b565b6070541580610d0557503360009081526072602052604090205460ff165b610d435760405162461bcd60e51b815260206004820152600f60248201526e139bdd081dda1a5d195b1a5cdd1959608a1b60448201526064016106d5565b6071548290600003610e7b57606560009054906101000a90046001600160a01b03166001600160a01b031663d598d4c96040518163ffffffff1660e01b8152600401602060405180830381865afa158015610da2573d6000803e3d6000fd5b505050506040513d601f19601f82011682018060405250810190610dc6919061289a565b60405163b5af090f60e01b81526001600160a01b038381166004830152919091169063b5af090f90602401602060405180830381865afa158015610e0e573d6000803e3d6000fd5b505050506040513d601f19601f82011682018060405250810190610e3291906128b7565b610e765760405162461bcd60e51b8152602060048201526015602482015274151bdad95b881b9bdd081dda1a5d195b1a5cdd1959605a1b60448201526064016106d5565b610edb565b6001600160a01b03811660009081526073602052604090205460ff16610edb5760405162461bcd60e51b8152602060048201526015602482015274151bdad95b881b9bdd081dda1a5d195b1a5cdd1959605a1b60448201526064016106d5565b600080610ee6611b43565b6002811115610ef757610ef7612795565b14610f145760405162461bcd60e51b81526004016106d5906128d9565b6001600160a01b038416610f8257606754610f2f9084612905565b3414610f7d5760405162461bcd60e51b815260206004820152601860248201527f496e76616c6964204554482076616c756520706173736564000000000000000060448201526064016106d5565b611156565b6065546040805163d598d4c960e01b815290516000926001600160a01b03169163d598d4c99160048083019260209291908290030181865afa158015610fcc573d6000803e3d6000fd5b505050506040513d601f19601f82011682018060405250810190610ff0919061289a565b90506000816001600160a01b0316634db4a3526040518163ffffffff1660e01b8152600401602060405180830381865afa158015611032573d6000803e3d6000fd5b505050506040513d601f19601f82011682018060405250810190611056919061289a565b6040516363d08dff60e01b81526001600160a01b03888116600483015291821691632f80bb1d91908516906363d08dff90602401600060405180830381865afa1580156110a7573d6000803e3d6000fd5b505050506040513d6000823e601f3d908101601f191682016040526110cf9190810190612924565b6067546110dc9089612905565b6040518363ffffffff1660e01b81526004016110f992919061299b565b6020604051808303816000875af1158015611118573d6000803e3d6000fd5b505050506040513d601f19601f8201168201806040525081019061113c9190612852565b90506111536001600160a01b038716333084611f35565b50505b606a548310156111a85760405162461bcd60e51b815260206004820152601d60248201527f416d6f756e74206c657373207468616e206d696e20707572636861736500000060448201526064016106d5565b6111b1336106ed565b8311156111f95760405162461bcd60e51b81526020600482015260166024820152754f766572666c6f7773206d617820707572636861736560501b60448201526064016106d5565b6068548360755461120a91906127e9565b111561124c5760405162461bcd60e51b815260206004820152601160248201527004f766572666c6f7773206861726463617607c1b60448201526064016106d5565b826075600082825461125e91906127e9565b909155505033600090815260766020526040812080548592906112829084906127e9565b9091555050606c5460009060649061129a9086612905565b6112a59060636127e9565b6112af91906129bd565b905060006112bd828661283b565b111561133e576065546001600160a01b03166340c10f19336112df848861283b565b6040516001600160e01b031960e085901b1681526001600160a01b0390921660048301526024820152604401600060405180830381600087803b15801561132557600080fd5b505af1158015611339573d6000803e3d6000fd5b505050505b6065546040516340c10f1960e01b8152306004820152602481018390526001600160a01b03909116906340c10f1990604401600060405180830381600087803b15801561138a57600080fd5b505af115801561139e573d6000803e3d6000fd5b505033600090815260786020526040812080548594509092506113c29084906127e9565b90915550505050505050565b600080606560009054906101000a90046001600160a01b03166001600160a01b031663d598d4c96040518163ffffffff1660e01b8152600401602060405180830381865afa158015611424573d6000803e3d6000fd5b505050506040513d601f19601f82011682018060405250810190611448919061289a565b90506000816001600160a01b0316634db4a3526040518163ffffffff1660e01b8152600401602060405180830381865afa15801561148a573d6000803e3d6000fd5b505050506040513d601f19601f820116820180604052508101906114ae919061289a565b6071549091506000901561151c57607180548060200260200160405190810160405280929190818152602001828054801561151257602002820191906000526020600020905b81546001600160a01b031681526001909101906020018083116114f4575b5050505050611582565b826001600160a01b031663ca735cc16040518163ffffffff1660e01b8152600401600060405180830381865afa15801561155a573d6000803e3d6000fd5b505050506040513d6000823e601f3d908101601f1916820160405261158291908101906129df565b90506000805b825181101561178f5760006001600160a01b03168382815181106115ae576115ae61286b565b60200260200101516001600160a01b0316036115d5576115ce47836127e9565b915061177d565b60008382815181106115e9576115e961286b565b60209081029190910101516040516370a0823160e01b81523060048201526001600160a01b03909116906370a0823190602401602060405180830381865afa158015611639573d6000803e3d6000fd5b505050506040513d601f19601f8201168201806040525081019061165d9190612852565b9050801561177b57846001600160a01b031663cdca1753876001600160a01b03166350eb1c438786815181106116955761169561286b565b60200260200101516040518263ffffffff1660e01b81526004016116c891906001600160a01b0391909116815260200190565b600060405180830381865afa1580156116e5573d6000803e3d6000fd5b505050506040513d6000823e601f3d908101601f1916820160405261170d9190810190612924565b836040518363ffffffff1660e01b815260040161172b92919061299b565b6020604051808303816000875af115801561174a573d6000803e3d6000fd5b505050506040513d601f19601f8201168201806040525081019061176e9190612852565b61177890846127e9565b92505b505b8061178781612881565b915050611588565b506067546075546117a09190612905565b94505050505090565b6001806117b4611b43565b60028111156117c5576117c5612795565b146117e25760405162461bcd60e51b81526004016106d5906128d9565b6065546040516370a0823160e01b81523360048201526000916001600160a01b0316906370a0823190602401602060405180830381865afa15801561182b573d6000803e3d6000fd5b505050506040513d601f19601f8201168201806040525081019061184f9190612852565b33600090815260786020526040812054919250906118869061187190846127e9565b33600090815260766020526040902054611fa0565b336000908152607660205260408120805492935083929091906118aa90849061283b565b909155505081811115611963576118c1828261283b565b33600090815260786020526040812080549091906118e090849061283b565b90915550506065546001600160a01b0316639dc29fac30611901858561283b565b6040516001600160e01b031960e085901b1681526001600160a01b0390921660048301526024820152604401600060405180830381600087803b15801561194757600080fd5b505af115801561195b573d6000803e3d6000fd5b505050508190505b606554604051632770a7eb60e21b8152336004820152602481018390526001600160a01b0390911690639dc29fac90604401600060405180830381600087803b1580156119af57600080fd5b505af11580156119c3573d6000803e3d6000fd5b505050506000606754826119d79190612905565b604051909150339082156108fc029083906000818181858888f19350505050158015611a07573d6000803e3d6000fd5b5050505050565b611a166105c9565b611a625760405162461bcd60e51b815260206004820152601860248201527f556e6c6f636b206e6f742079657420617661696c61626c65000000000000000060448201526064016106d5565b33600090815260786020526040902054611ab25760405162461bcd60e51b81526020600482015260116024820152704e6f206c6f636b65642062616c616e636560781b60448201526064016106d5565b336000818152607860205260408082208054929055606554905163a9059cbb60e01b815260048101939093526024830182905290916001600160a01b039091169063a9059cbb906044016020604051808303816000875af1158015611b1b573d6000803e3d6000fd5b505050506040513d601f19601f82011682018060405250810190611b3f91906128b7565b5050565b6000606f54607454611b5591906127e9565b431015611b625750600090565b60695460755410611b735750600290565b50600190565b600280611b84611b43565b6002811115611b9557611b95612795565b14611bb25760405162461bcd60e51b81526004016106d5906128d9565b6001600160a01b038216611c4a57611b3f47606560009054906101000a90046001600160a01b03166001600160a01b03166316f0115b6040518163ffffffff1660e01b8152600401602060405180830381865afa158015611c17573d6000803e3d6000fd5b505050506040513d601f19601f82011682018060405250810190611c3b919061289a565b6001600160a01b031690611fb8565b6065546001600160a01b0390811690831603611ca85760405162461bcd60e51b815260206004820181905260248201527f496d706f737369626c6520746f207472616e736665722054474520746f6b656e60448201526064016106d5565b606554604080516316f0115b60e01b81529051611b3f926001600160a01b0316916316f0115b9160048083019260209291908290030181865afa158015611cf3573d6000803e3d6000fd5b505050506040513d601f19601f82011682018060405250810190611d17919061289a565b6040516370a0823160e01b81523060048201526001600160a01b038516906370a0823190602401602060405180830381865afa158015611d5b573d6000803e3d6000fd5b505050506040513d601f19601f82011682018060405250810190611d7f9190612852565b6001600160a01b03851691906120d6565b6033546001600160a01b03163314611dea5760405162461bcd60e51b815260206004820181905260248201527f4f776e61626c653a2063616c6c6572206973206e6f7420746865206f776e657260448201526064016106d5565b6001600160a01b038116611e4f5760405162461bcd60e51b815260206004820152602660248201527f4f776e61626c653a206e6577206f776e657220697320746865207a65726f206160448201526564647265737360d01b60648201526084016106d5565b611e5881611ee3565b50565b60008054610100900460ff1615611ea2578160ff166001148015611e7e5750303b155b611e9a5760405162461bcd60e51b81526004016106d590612a6e565b506000919050565b60005460ff808416911610611ec95760405162461bcd60e51b81526004016106d590612a6e565b506000805460ff191660ff92909216919091179055600190565b603380546001600160a01b038381166001600160a01b0319831681179093556040519116919082907f8be0079c531659141344cd1fd0a4f28419497f9722a3daafe3b4186f6b6457e090600090a35050565b6040516001600160a01b0380851660248301528316604482015260648101829052610c419085906323b872dd60e01b906084015b60408051601f198184030181529190526020810180516001600160e01b03166001600160e01b031990931692909217909152612106565b6000818310611faf5781611fb1565b825b9392505050565b804710156120085760405162461bcd60e51b815260206004820152601d60248201527f416464726573733a20696e73756666696369656e742062616c616e636500000060448201526064016106d5565b6000826001600160a01b03168260405160006040518083038185875af1925050503d8060008114612055576040519150601f19603f3d011682016040523d82523d6000602084013e61205a565b606091505b50509050806120d15760405162461bcd60e51b815260206004820152603a60248201527f416464726573733a20756e61626c6520746f2073656e642076616c75652c207260448201527f6563697069656e74206d6179206861766520726576657274656400000000000060648201526084016106d5565b505050565b6040516001600160a01b0383166024820152604481018290526120d190849063a9059cbb60e01b90606401611f69565b600061215b826040518060400160405280602081526020017f5361666545524332303a206c6f772d6c6576656c2063616c6c206661696c6564815250856001600160a01b03166121d89092919063ffffffff16565b8051909150156120d1578080602001905181019061217991906128b7565b6120d15760405162461bcd60e51b815260206004820152602a60248201527f5361666545524332303a204552433230206f7065726174696f6e20646964206e6044820152691bdd081cdd58d8d9595960b21b60648201526084016106d5565b60606121e784846000856121ef565b949350505050565b6060824710156122505760405162461bcd60e51b815260206004820152602660248201527f416464726573733a20696e73756666696369656e742062616c616e636520666f6044820152651c8818d85b1b60d21b60648201526084016106d5565b6001600160a01b0385163b6122a75760405162461bcd60e51b815260206004820152601d60248201527f416464726573733a2063616c6c20746f206e6f6e2d636f6e747261637400000060448201526064016106d5565b600080866001600160a01b031685876040516122c39190612abc565b60006040518083038185875af1925050503d8060008114612300576040519150601f19603f3d011682016040523d82523d6000602084013e612305565b606091505b5091509150612315828286612320565b979650505050505050565b6060831561232f575081611fb1565b82511561233f5782518084602001fd5b8160405162461bcd60e51b81526004016106d5919061244a565b82805461236590612801565b90600052602060002090601f01602090048101928261238757600085556123cd565b82601f106123a057805160ff19168380011785556123cd565b828001600101855582156123cd579182015b828111156123cd5782518255916020019190600101906123b2565b506123d99291506123dd565b5090565b5b808211156123d957600081556001016123de565b60005b8381101561240d5781810151838201526020016123f5565b83811115610c415750506000910152565b600081518084526124368160208601602086016123f2565b601f01601f19169290920160200192915050565b602081526000611fb1602083018461241e565b6001600160a01b0381168114611e5857600080fd5b60006020828403121561248457600080fd5b8135611fb18161245d565b634e487b7160e01b600052604160045260246000fd5b604051610180810167ffffffffffffffff811182821017156124c9576124c961248f565b60405290565b604051601f8201601f1916810167ffffffffffffffff811182821017156124f8576124f861248f565b604052919050565b600067ffffffffffffffff82111561251a5761251a61248f565b50601f01601f191660200190565b600082601f83011261253957600080fd5b813561254c61254782612500565b6124cf565b81815284602083860101111561256157600080fd5b816020850160208301376000918101602001919091529392505050565b600067ffffffffffffffff8211156125985761259861248f565b5060051b60200190565b600082601f8301126125b357600080fd5b813560206125c36125478361257e565b82815260059290921b840181019181810190868411156125e257600080fd5b8286015b848110156126065780356125f98161245d565b83529183019183016125e6565b509695505050505050565b60008060006060848603121561262657600080fd5b83356126318161245d565b925060208401356126418161245d565b9150604084013567ffffffffffffffff8082111561265e57600080fd5b90850190610180828803121561267357600080fd5b61267b6124a5565b82358281111561268a57600080fd5b61269689828601612528565b8252506020830135602082015260408301356040820152606083013560608201526080830135608082015260a083013560a082015260c083013560c082015260e083013560e0820152610100808401358183015250610120808401358183015250610140808401358381111561270b57600080fd5b6127178a8287016125a2565b828401525050610160808401358381111561273157600080fd5b61273d8a8287016125a2565b8284015250508093505050509250925092565b60006020828403121561276257600080fd5b5035919050565b6000806040838503121561277c57600080fd5b82356127878161245d565b946020939093013593505050565b634e487b7160e01b600052602160045260246000fd5b60208101600383106127cd57634e487b7160e01b600052602160045260246000fd5b91905290565b634e487b7160e01b600052601160045260246000fd5b600082198211156127fc576127fc6127d3565b500190565b600181811c9082168061281557607f821691505b60208210810361283557634e487b7160e01b600052602260045260246000fd5b50919050565b60008282101561284d5761284d6127d3565b500390565b60006020828403121561286457600080fd5b5051919050565b634e487b7160e01b600052603260045260246000fd5b600060018201612893576128936127d3565b5060010190565b6000602082840312156128ac57600080fd5b8151611fb18161245d565b6000602082840312156128c957600080fd5b81518015158114611fb157600080fd5b60208082526012908201527154474520696e2077726f6e6720737461746560701b604082015260600190565b600081600019048311821515161561291f5761291f6127d3565b500290565b60006020828403121561293657600080fd5b815167ffffffffffffffff81111561294d57600080fd5b8201601f8101841361295e57600080fd5b805161296c61254782612500565b81815285602083850101111561298157600080fd5b6129928260208301602086016123f2565b95945050505050565b6040815260006129ae604083018561241e565b90508260208301529392505050565b6000826129da57634e487b7160e01b600052601260045260246000fd5b500490565b600060208083850312156129f257600080fd5b825167ffffffffffffffff811115612a0957600080fd5b8301601f81018513612a1a57600080fd5b8051612a286125478261257e565b81815260059190911b82018301908381019087831115612a4757600080fd5b928401925b82841015612315578351612a5f8161245d565b82529284019290840190612a4c565b6020808252602e908201527f496e697469616c697a61626c653a20636f6e747261637420697320616c72656160408201526d191e481a5b9a5d1a585b1a5e995960921b606082015260800190565b60008251612ace8184602087016123f2565b919091019291505056fea26469706673582212204a203a5e04418b3ddc00003353c826c9a6105465fdca38c3a0440377eca19fa864736f6c634300080d0033",
  "devdoc": {
    "kind": "dev",
    "methods": {
      "owner()": {
        "details": "Returns the address of the current owner."
      },
      "renounceOwnership()": {
        "details": "Leaves the contract without owner. It will not be possible to call `onlyOwner` functions anymore. Can only be called by the current owner. NOTE: Renouncing ownership will leave the contract without an owner, thereby removing any functionality that is only available to the owner."
      },
      "transferOwnership(address)": {
        "details": "Transfers ownership of the contract to a new account (`newOwner`). Can only be called by the current owner."
      }
    },
    "version": 1
  },
  "userdoc": {
    "kind": "user",
    "methods": {},
    "version": 1
  },
  "storageLayout": {
    "storage": [
      {
        "astId": 208,
        "contract": "contracts/TGE.sol:TGE",
        "label": "_initialized",
        "offset": 0,
        "slot": "0",
        "type": "t_uint8"
      },
      {
        "astId": 211,
        "contract": "contracts/TGE.sol:TGE",
        "label": "_initializing",
        "offset": 1,
        "slot": "0",
        "type": "t_bool"
      },
      {
        "astId": 2536,
        "contract": "contracts/TGE.sol:TGE",
        "label": "__gap",
        "offset": 0,
        "slot": "1",
        "type": "t_array(t_uint256)50_storage"
      },
      {
        "astId": 10,
        "contract": "contracts/TGE.sol:TGE",
        "label": "_owner",
        "offset": 0,
        "slot": "51",
        "type": "t_address"
      },
      {
        "astId": 122,
        "contract": "contracts/TGE.sol:TGE",
        "label": "__gap",
        "offset": 0,
        "slot": "52",
        "type": "t_array(t_uint256)49_storage"
      },
      {
        "astId": 8533,
        "contract": "contracts/TGE.sol:TGE",
        "label": "token",
        "offset": 0,
        "slot": "101",
        "type": "t_contract(IGovernanceToken)9830"
      },
      {
        "astId": 8535,
        "contract": "contracts/TGE.sol:TGE",
        "label": "metadataURI",
        "offset": 0,
        "slot": "102",
        "type": "t_string_storage"
      },
      {
        "astId": 8537,
        "contract": "contracts/TGE.sol:TGE",
        "label": "price",
        "offset": 0,
        "slot": "103",
        "type": "t_uint256"
      },
      {
        "astId": 8539,
        "contract": "contracts/TGE.sol:TGE",
        "label": "hardcap",
        "offset": 0,
        "slot": "104",
        "type": "t_uint256"
      },
      {
        "astId": 8541,
        "contract": "contracts/TGE.sol:TGE",
        "label": "softcap",
        "offset": 0,
        "slot": "105",
        "type": "t_uint256"
      },
      {
        "astId": 8543,
        "contract": "contracts/TGE.sol:TGE",
        "label": "minPurchase",
        "offset": 0,
        "slot": "106",
        "type": "t_uint256"
      },
      {
        "astId": 8545,
        "contract": "contracts/TGE.sol:TGE",
        "label": "maxPurchase",
        "offset": 0,
        "slot": "107",
        "type": "t_uint256"
      },
      {
        "astId": 8547,
        "contract": "contracts/TGE.sol:TGE",
        "label": "lockupPercent",
        "offset": 0,
        "slot": "108",
        "type": "t_uint256"
      },
      {
        "astId": 8549,
        "contract": "contracts/TGE.sol:TGE",
        "label": "lockupTVL",
        "offset": 0,
        "slot": "109",
        "type": "t_uint256"
      },
      {
        "astId": 8551,
        "contract": "contracts/TGE.sol:TGE",
        "label": "lockupDuration",
        "offset": 0,
        "slot": "110",
        "type": "t_uint256"
      },
      {
        "astId": 8553,
        "contract": "contracts/TGE.sol:TGE",
        "label": "duration",
        "offset": 0,
        "slot": "111",
        "type": "t_uint256"
      },
      {
        "astId": 8556,
        "contract": "contracts/TGE.sol:TGE",
        "label": "userWhitelist",
        "offset": 0,
        "slot": "112",
        "type": "t_array(t_address)dyn_storage"
      },
      {
        "astId": 8559,
        "contract": "contracts/TGE.sol:TGE",
        "label": "tokenWhitelist",
        "offset": 0,
        "slot": "113",
        "type": "t_array(t_address)dyn_storage"
      },
      {
        "astId": 8563,
        "contract": "contracts/TGE.sol:TGE",
        "label": "isUserWhitelisted",
        "offset": 0,
        "slot": "114",
        "type": "t_mapping(t_address,t_bool)"
      },
      {
        "astId": 8567,
        "contract": "contracts/TGE.sol:TGE",
        "label": "isTokenWhitelisted",
        "offset": 0,
        "slot": "115",
        "type": "t_mapping(t_address,t_bool)"
      },
      {
        "astId": 8569,
        "contract": "contracts/TGE.sol:TGE",
        "label": "createdAt",
        "offset": 0,
        "slot": "116",
        "type": "t_uint256"
      },
      {
        "astId": 8571,
        "contract": "contracts/TGE.sol:TGE",
        "label": "totalPurchases",
        "offset": 0,
        "slot": "117",
        "type": "t_uint256"
      },
      {
        "astId": 8575,
        "contract": "contracts/TGE.sol:TGE",
        "label": "purchaseOf",
        "offset": 0,
        "slot": "118",
        "type": "t_mapping(t_address,t_uint256)"
      },
      {
        "astId": 8577,
        "contract": "contracts/TGE.sol:TGE",
        "label": "lockupTVLReached",
        "offset": 0,
        "slot": "119",
        "type": "t_bool"
      },
      {
        "astId": 8581,
        "contract": "contracts/TGE.sol:TGE",
        "label": "lockedBalanceOf",
        "offset": 0,
        "slot": "120",
        "type": "t_mapping(t_address,t_uint256)"
      }
    ],
    "types": {
      "t_address": {
        "encoding": "inplace",
        "label": "address",
        "numberOfBytes": "20"
      },
      "t_array(t_address)dyn_storage": {
        "base": "t_address",
        "encoding": "dynamic_array",
        "label": "address[]",
        "numberOfBytes": "32"
      },
      "t_array(t_uint256)49_storage": {
        "base": "t_uint256",
        "encoding": "inplace",
        "label": "uint256[49]",
        "numberOfBytes": "1568"
      },
      "t_array(t_uint256)50_storage": {
        "base": "t_uint256",
        "encoding": "inplace",
        "label": "uint256[50]",
        "numberOfBytes": "1600"
      },
      "t_bool": {
        "encoding": "inplace",
        "label": "bool",
        "numberOfBytes": "1"
      },
      "t_contract(IGovernanceToken)9830": {
        "encoding": "inplace",
        "label": "contract IGovernanceToken",
        "numberOfBytes": "20"
      },
      "t_mapping(t_address,t_bool)": {
        "encoding": "mapping",
        "key": "t_address",
        "label": "mapping(address => bool)",
        "numberOfBytes": "32",
        "value": "t_bool"
      },
      "t_mapping(t_address,t_uint256)": {
        "encoding": "mapping",
        "key": "t_address",
        "label": "mapping(address => uint256)",
        "numberOfBytes": "32",
        "value": "t_uint256"
      },
      "t_string_storage": {
        "encoding": "bytes",
        "label": "string",
        "numberOfBytes": "32"
      },
      "t_uint256": {
        "encoding": "inplace",
        "label": "uint256",
        "numberOfBytes": "32"
      },
      "t_uint8": {
        "encoding": "inplace",
        "label": "uint8",
        "numberOfBytes": "1"
      }
    }
  }
}