{
  "address": "0x3fd37C8Cc82b25E0a221F09Aa1f3957e7b7b715c",
  "abi": [
    {
      "anonymous": false,
      "inputs": [
        {
          "indexed": true,
          "internalType": "address",
          "name": "previousOwner",
          "type": "address"
        },
        {
          "indexed": true,
          "internalType": "address",
          "name": "newOwner",
          "type": "address"
        }
      ],
      "name": "OwnershipTransferred",
      "type": "event"
    },
    {
      "anonymous": false,
      "inputs": [
        {
          "indexed": false,
          "internalType": "address",
          "name": "token",
          "type": "address"
        },
        {
          "indexed": false,
          "internalType": "bool",
          "name": "whitelisted",
          "type": "bool"
        }
      ],
      "name": "TokenWhitelistedSet",
      "type": "event"
    },
    {
      "inputs": [
        {
          "internalType": "address[]",
          "name": "tokens",
          "type": "address[]"
        },
        {
          "internalType": "bytes[]",
          "name": "swapPaths",
          "type": "bytes[]"
        },
        {
          "internalType": "bytes[]",
          "name": "swapReversePaths",
          "type": "bytes[]"
        }
      ],
      "name": "addTokensToWhitelist",
      "outputs": [],
      "stateMutability": "nonpayable",
      "type": "function"
    },
    {
      "inputs": [
        {
          "internalType": "address",
          "name": "token",
          "type": "address"
        }
      ],
      "name": "isTokenWhitelisted",
      "outputs": [
        {
          "internalType": "bool",
          "name": "",
          "type": "bool"
        }
      ],
      "stateMutability": "view",
      "type": "function"
    },
    {
      "inputs": [],
      "name": "owner",
      "outputs": [
        {
          "internalType": "address",
          "name": "",
          "type": "address"
        }
      ],
      "stateMutability": "view",
      "type": "function"
    },
    {
      "inputs": [
        {
          "internalType": "address[]",
          "name": "tokens",
          "type": "address[]"
        }
      ],
      "name": "removeTokensFromWhitelist",
      "outputs": [],
      "stateMutability": "nonpayable",
      "type": "function"
    },
    {
      "inputs": [],
      "name": "renounceOwnership",
      "outputs": [],
      "stateMutability": "nonpayable",
      "type": "function"
    },
    {
      "inputs": [
        {
          "internalType": "address",
          "name": "",
          "type": "address"
        }
      ],
      "name": "tokenSwapPath",
      "outputs": [
        {
          "internalType": "bytes",
          "name": "",
          "type": "bytes"
        }
      ],
      "stateMutability": "view",
      "type": "function"
    },
    {
      "inputs": [
        {
          "internalType": "address",
          "name": "",
          "type": "address"
        }
      ],
      "name": "tokenSwapReversePath",
      "outputs": [
        {
          "internalType": "bytes",
          "name": "",
          "type": "bytes"
        }
      ],
      "stateMutability": "view",
      "type": "function"
    },
    {
      "inputs": [],
      "name": "tokenWhitelist",
      "outputs": [
        {
          "internalType": "address[]",
          "name": "",
          "type": "address[]"
        }
      ],
      "stateMutability": "view",
      "type": "function"
    },
    {
      "inputs": [
        {
          "internalType": "address",
          "name": "newOwner",
          "type": "address"
        }
      ],
      "name": "transferOwnership",
      "outputs": [],
      "stateMutability": "nonpayable",
      "type": "function"
    }
  ],
  "transactionHash": "0xa23d152323f5fedc772959aa3542dea94ac19dddddb1795df5f6b9e657194c70",
  "args": [],
  "numDeployments": 3,
  "solcInputHash": "b9998a23ca6039613f0dca759c066aa7",
  "bytecode": "0x608060405234801561001057600080fd5b5061001a3361001f565b61006f565b600080546001600160a01b038381166001600160a01b0319831681178455604051919092169283917f8be0079c531659141344cd1fd0a4f28419497f9722a3daafe3b4186f6b6457e09190a35050565b610da48061007e6000396000f3fe608060405234801561001057600080fd5b50600436106100935760003560e01c8063a7ca279f11610066578063a7ca279f146100f9578063b36bb0e31461010c578063b5af090f1461011f578063ca735cc114610142578063f2fde38b1461015757600080fd5b806350eb1c431461009857806363d08dff146100c1578063715018a6146100d45780638da5cb5b146100de575b600080fd5b6100ab6100a636600461094a565b61016a565b6040516100b89190610965565b60405180910390f35b6100ab6100cf36600461094a565b610204565b6100dc61021d565b005b6000546040516001600160a01b0390911681526020016100b8565b6100dc610107366004610b7b565b61025c565b6100dc61011a366004610c03565b61045a565b61013261012d36600461094a565b610588565b60405190151581526020016100b8565b61014a61059b565b6040516100b89190610c40565b6100dc61016536600461094a565b6105ac565b6003602052600090815260409020805461018390610c8d565b80601f01602080910402602001604051908101604052809291908181526020018280546101af90610c8d565b80156101fc5780601f106101d1576101008083540402835291602001916101fc565b820191906000526020600020905b8154815290600101906020018083116101df57829003601f168201915b505050505081565b6004602052600090815260409020805461018390610c8d565b6000546001600160a01b031633146102505760405162461bcd60e51b815260040161024790610cc7565b60405180910390fd5b61025a6000610647565b565b6000546001600160a01b031633146102865760405162461bcd60e51b815260040161024790610cc7565b60005b8351811015610454576102bf8482815181106102a7576102a7610cfc565b6020026020010151600161069790919063ffffffff16565b6103015760405162461bcd60e51b8152602060048201526013602482015272105b1c9958591e481dda1a5d195b1a5cdd1959606a1b6044820152606401610247565b82818151811061031357610313610cfc565b60200260200101516003600086848151811061033157610331610cfc565b60200260200101516001600160a01b03166001600160a01b03168152602001908152602001600020908051906020019061036c929190610895565b5081818151811061037f5761037f610cfc565b60200260200101516004600086848151811061039d5761039d610cfc565b60200260200101516001600160a01b03166001600160a01b0316815260200190815260200160002090805190602001906103d8929190610895565b507f56141cd46fa0d7cb29ad16da2ac6b833fb19832cf2c38b83fcc8333bf9165cc784828151811061040c5761040c610cfc565b6020026020010151600160405161043a9291906001600160a01b039290921682521515602082015260400190565b60405180910390a18061044c81610d28565b915050610289565b50505050565b6000546001600160a01b031633146104845760405162461bcd60e51b815260040161024790610cc7565b60005b8151811015610584576104bd8282815181106104a5576104a5610cfc565b602002602001015160016106b390919063ffffffff16565b6105095760405162461bcd60e51b815260206004820152601760248201527f416c7265616479206e6f742077686974656c69737465640000000000000000006044820152606401610247565b7f56141cd46fa0d7cb29ad16da2ac6b833fb19832cf2c38b83fcc8333bf9165cc782828151811061053c5761053c610cfc565b6020026020010151600060405161056a9291906001600160a01b039290921682521515602082015260400190565b60405180910390a18061057c81610d28565b915050610487565b5050565b60006105956001836106c8565b92915050565b60606105a760016106ea565b905090565b6000546001600160a01b031633146105d65760405162461bcd60e51b815260040161024790610cc7565b6001600160a01b03811661063b5760405162461bcd60e51b815260206004820152602660248201527f4f776e61626c653a206e6577206f776e657220697320746865207a65726f206160448201526564647265737360d01b6064820152608401610247565b61064481610647565b50565b600080546001600160a01b038381166001600160a01b0319831681178455604051919092169283917f8be0079c531659141344cd1fd0a4f28419497f9722a3daafe3b4186f6b6457e09190a35050565b60006106ac836001600160a01b0384166106f7565b9392505050565b60006106ac836001600160a01b038416610746565b6001600160a01b038116600090815260018301602052604081205415156106ac565b606060006106ac83610839565b600081815260018301602052604081205461073e57508154600181810184556000848152602080822090930184905584548482528286019093526040902091909155610595565b506000610595565b6000818152600183016020526040812054801561082f57600061076a600183610d41565b855490915060009061077e90600190610d41565b90508181146107e357600086600001828154811061079e5761079e610cfc565b90600052602060002001549050808760000184815481106107c1576107c1610cfc565b6000918252602080832090910192909255918252600188019052604090208390555b85548690806107f4576107f4610d58565b600190038181906000526020600020016000905590558560010160008681526020019081526020016000206000905560019350505050610595565b6000915050610595565b60608160000180548060200260200160405190810160405280929190818152602001828054801561088957602002820191906000526020600020905b815481526020019060010190808311610875575b50505050509050919050565b8280546108a190610c8d565b90600052602060002090601f0160209004810192826108c35760008555610909565b82601f106108dc57805160ff1916838001178555610909565b82800160010185558215610909579182015b828111156109095782518255916020019190600101906108ee565b50610915929150610919565b5090565b5b80821115610915576000815560010161091a565b80356001600160a01b038116811461094557600080fd5b919050565b60006020828403121561095c57600080fd5b6106ac8261092e565b600060208083528351808285015260005b8181101561099257858101830151858201604001528201610976565b818111156109a4576000604083870101525b50601f01601f1916929092016040019392505050565b634e487b7160e01b600052604160045260246000fd5b604051601f8201601f1916810167ffffffffffffffff811182821017156109f9576109f96109ba565b604052919050565b600067ffffffffffffffff821115610a1b57610a1b6109ba565b5060051b60200190565b600082601f830112610a3657600080fd5b81356020610a4b610a4683610a01565b6109d0565b82815260059290921b84018101918181019086841115610a6a57600080fd5b8286015b84811015610a8c57610a7f8161092e565b8352918301918301610a6e565b509695505050505050565b6000601f8381840112610aa957600080fd5b82356020610ab9610a4683610a01565b82815260059290921b85018101918181019087841115610ad857600080fd5b8287015b84811015610b6f57803567ffffffffffffffff80821115610afd5760008081fd5b818a0191508a603f830112610b125760008081fd5b85820135604082821115610b2857610b286109ba565b610b39828b01601f191689016109d0565b92508183528c81838601011115610b505760008081fd5b8181850189850137506000908201870152845250918301918301610adc565b50979650505050505050565b600080600060608486031215610b9057600080fd5b833567ffffffffffffffff80821115610ba857600080fd5b610bb487838801610a25565b94506020860135915080821115610bca57600080fd5b610bd687838801610a97565b93506040860135915080821115610bec57600080fd5b50610bf986828701610a97565b9150509250925092565b600060208284031215610c1557600080fd5b813567ffffffffffffffff811115610c2c57600080fd5b610c3884828501610a25565b949350505050565b6020808252825182820181905260009190848201906040850190845b81811015610c815783516001600160a01b031683529284019291840191600101610c5c565b50909695505050505050565b600181811c90821680610ca157607f821691505b602082108103610cc157634e487b7160e01b600052602260045260246000fd5b50919050565b6020808252818101527f4f776e61626c653a2063616c6c6572206973206e6f7420746865206f776e6572604082015260600190565b634e487b7160e01b600052603260045260246000fd5b634e487b7160e01b600052601160045260246000fd5b600060018201610d3a57610d3a610d12565b5060010190565b600082821015610d5357610d53610d12565b500390565b634e487b7160e01b600052603160045260246000fdfea2646970667358221220853978c4183ba897481fa40d1527606fc28f014af5fcb23c6dd99411d5e6723b64736f6c634300080d0033",
  "devdoc": {
    "kind": "dev",
    "methods": {
      "owner()": {
        "details": "Returns the address of the current owner."
      },
      "renounceOwnership()": {
        "details": "Leaves the contract without owner. It will not be possible to call `onlyOwner` functions anymore. Can only be called by the current owner. NOTE: Renouncing ownership will leave the contract without an owner, thereby removing any functionality that is only available to the owner."
      },
      "transferOwnership(address)": {
        "details": "Transfers ownership of the contract to a new account (`newOwner`). Can only be called by the current owner."
      }
    },
    "version": 1
  },
  "userdoc": {
    "kind": "user",
    "methods": {},
    "version": 1
  },
  "storageLayout": {
    "storage": [
      {
        "astId": 4403,
        "contract": "contracts/WhitelistedTokens.sol:WhitelistedTokens",
        "label": "_owner",
        "offset": 0,
        "slot": "0",
        "type": "t_address"
      },
      {
        "astId": 10916,
        "contract": "contracts/WhitelistedTokens.sol:WhitelistedTokens",
        "label": "_tokenWhitelist",
        "offset": 0,
        "slot": "1",
        "type": "t_struct(AddressSet)6898_storage"
      },
      {
        "astId": 10920,
        "contract": "contracts/WhitelistedTokens.sol:WhitelistedTokens",
        "label": "tokenSwapPath",
        "offset": 0,
        "slot": "3",
        "type": "t_mapping(t_address,t_bytes_storage)"
      },
      {
        "astId": 10924,
        "contract": "contracts/WhitelistedTokens.sol:WhitelistedTokens",
        "label": "tokenSwapReversePath",
        "offset": 0,
        "slot": "4",
        "type": "t_mapping(t_address,t_bytes_storage)"
      }
    ],
    "types": {
      "t_address": {
        "encoding": "inplace",
        "label": "address",
        "numberOfBytes": "20"
      },
      "t_array(t_bytes32)dyn_storage": {
        "base": "t_bytes32",
        "encoding": "dynamic_array",
        "label": "bytes32[]",
        "numberOfBytes": "32"
      },
      "t_bytes32": {
        "encoding": "inplace",
        "label": "bytes32",
        "numberOfBytes": "32"
      },
      "t_bytes_storage": {
        "encoding": "bytes",
        "label": "bytes",
        "numberOfBytes": "32"
      },
      "t_mapping(t_address,t_bytes_storage)": {
        "encoding": "mapping",
        "key": "t_address",
        "label": "mapping(address => bytes)",
        "numberOfBytes": "32",
        "value": "t_bytes_storage"
      },
      "t_mapping(t_bytes32,t_uint256)": {
        "encoding": "mapping",
        "key": "t_bytes32",
        "label": "mapping(bytes32 => uint256)",
        "numberOfBytes": "32",
        "value": "t_uint256"
      },
      "t_struct(AddressSet)6898_storage": {
        "encoding": "inplace",
        "label": "struct EnumerableSet.AddressSet",
        "members": [
          {
            "astId": 6897,
            "contract": "contracts/WhitelistedTokens.sol:WhitelistedTokens",
            "label": "_inner",
            "offset": 0,
            "slot": "0",
            "type": "t_struct(Set)6597_storage"
          }
        ],
        "numberOfBytes": "64"
      },
      "t_struct(Set)6597_storage": {
        "encoding": "inplace",
        "label": "struct EnumerableSet.Set",
        "members": [
          {
            "astId": 6592,
            "contract": "contracts/WhitelistedTokens.sol:WhitelistedTokens",
            "label": "_values",
            "offset": 0,
            "slot": "0",
            "type": "t_array(t_bytes32)dyn_storage"
          },
          {
            "astId": 6596,
            "contract": "contracts/WhitelistedTokens.sol:WhitelistedTokens",
            "label": "_indexes",
            "offset": 0,
            "slot": "1",
            "type": "t_mapping(t_bytes32,t_uint256)"
          }
        ],
        "numberOfBytes": "64"
      },
      "t_uint256": {
        "encoding": "inplace",
        "label": "uint256",
        "numberOfBytes": "32"
      }
    }
  }
}