{
  "_format": "hh-sol-artifact-1",
  "contractName": "Dispatcher",
  "sourceName": "contracts/Dispatcher.sol",
  "abi": [
    {
      "inputs": [],
      "stateMutability": "nonpayable",
      "type": "constructor"
    },
    {
      "anonymous": false,
      "inputs": [
        {
          "indexed": false,
          "internalType": "address",
          "name": "previousAdmin",
          "type": "address"
        },
        {
          "indexed": false,
          "internalType": "address",
          "name": "newAdmin",
          "type": "address"
        }
      ],
      "name": "AdminChanged",
      "type": "event"
    },
    {
      "anonymous": false,
      "inputs": [
        {
          "indexed": true,
          "internalType": "address",
          "name": "beacon",
          "type": "address"
        }
      ],
      "name": "BeaconUpgraded",
      "type": "event"
    },
    {
      "anonymous": false,
      "inputs": [
        {
          "indexed": false,
          "internalType": "uint256",
          "name": "index",
          "type": "uint256"
        },
        {
          "indexed": false,
          "internalType": "address",
          "name": "addr",
          "type": "address"
        },
        {
          "indexed": false,
          "internalType": "enum IDispatcher.ContractType",
          "name": "contractType",
          "type": "uint8"
        }
      ],
      "name": "ContractRecordAdded",
      "type": "event"
    },
    {
      "anonymous": false,
      "inputs": [
        {
          "indexed": false,
          "internalType": "enum IDispatcher.EventType",
          "name": "eventType",
          "type": "uint8"
        },
        {
          "indexed": false,
          "internalType": "address",
          "name": "pool",
          "type": "address"
        },
        {
          "indexed": false,
          "internalType": "uint256",
          "name": "proposalId",
          "type": "uint256"
        }
      ],
      "name": "EventRecordAdded",
      "type": "event"
    },
    {
      "anonymous": false,
      "inputs": [
        {
          "indexed": false,
          "internalType": "uint8",
          "name": "version",
          "type": "uint8"
        }
      ],
      "name": "Initialized",
      "type": "event"
    },
    {
      "anonymous": false,
      "inputs": [
        {
          "indexed": true,
          "internalType": "address",
          "name": "previousOwner",
          "type": "address"
        },
        {
          "indexed": true,
          "internalType": "address",
          "name": "newOwner",
          "type": "address"
        }
      ],
      "name": "OwnershipTransferred",
      "type": "event"
    },
    {
      "anonymous": false,
      "inputs": [
        {
          "indexed": false,
          "internalType": "uint256",
          "name": "index",
          "type": "uint256"
        },
        {
          "indexed": false,
          "internalType": "address",
          "name": "pool",
          "type": "address"
        },
        {
          "indexed": false,
          "internalType": "uint256",
          "name": "proposalId",
          "type": "uint256"
        }
      ],
      "name": "ProposalRecordAdded",
      "type": "event"
    },
    {
      "anonymous": false,
      "inputs": [
        {
          "indexed": true,
          "internalType": "address",
          "name": "implementation",
          "type": "address"
        }
      ],
      "name": "Upgraded",
      "type": "event"
    },
    {
      "inputs": [
        {
          "internalType": "address",
          "name": "addr",
          "type": "address"
        },
        {
          "internalType": "enum IDispatcher.ContractType",
          "name": "contractType",
          "type": "uint8"
        },
        {
          "internalType": "string",
          "name": "description",
          "type": "string"
        }
      ],
      "name": "addContractRecord",
      "outputs": [
        {
          "internalType": "uint256",
          "name": "index",
          "type": "uint256"
        }
      ],
      "stateMutability": "nonpayable",
      "type": "function"
    },
    {
      "inputs": [
        {
          "internalType": "address",
          "name": "pool",
          "type": "address"
        },
        {
          "internalType": "enum IDispatcher.EventType",
          "name": "eventType",
          "type": "uint8"
        },
        {
          "internalType": "uint256",
          "name": "proposalId",
          "type": "uint256"
        },
        {
          "internalType": "string",
          "name": "metaHash",
          "type": "string"
        }
      ],
      "name": "addEventRecord",
      "outputs": [
        {
          "internalType": "uint256",
          "name": "index",
          "type": "uint256"
        }
      ],
      "stateMutability": "nonpayable",
      "type": "function"
    },
    {
      "inputs": [
        {
          "internalType": "address",
          "name": "account",
          "type": "address"
        }
      ],
      "name": "addManagerToWhitelist",
      "outputs": [],
      "stateMutability": "nonpayable",
      "type": "function"
    },
    {
      "inputs": [
        {
          "internalType": "address",
          "name": "pool",
          "type": "address"
        },
        {
          "internalType": "uint256",
          "name": "proposalId",
          "type": "uint256"
        }
      ],
      "name": "addProposalRecord",
      "outputs": [
        {
          "internalType": "uint256",
          "name": "index",
          "type": "uint256"
        }
      ],
      "stateMutability": "nonpayable",
      "type": "function"
    },
    {
      "inputs": [
        {
          "internalType": "address[]",
          "name": "tokens",
          "type": "address[]"
        },
        {
          "internalType": "bytes[]",
          "name": "swapPaths",
          "type": "bytes[]"
        },
        {
          "internalType": "bytes[]",
          "name": "swapReversePaths",
          "type": "bytes[]"
        }
      ],
      "name": "addTokensToWhitelist",
      "outputs": [],
      "stateMutability": "nonpayable",
      "type": "function"
    },
    {
      "inputs": [],
      "name": "allJursdictions",
      "outputs": [
        {
          "internalType": "uint256[]",
          "name": "",
          "type": "uint256[]"
        }
      ],
      "stateMutability": "view",
      "type": "function"
    },
    {
      "inputs": [
        {
          "internalType": "uint256",
          "name": "jurisdiction",
          "type": "uint256"
        }
      ],
      "name": "availableCompaniesCount",
      "outputs": [
        {
          "internalType": "uint256",
          "name": "",
          "type": "uint256"
        }
      ],
      "stateMutability": "view",
      "type": "function"
    },
    {
      "inputs": [],
      "name": "availableJurisdictions",
      "outputs": [
        {
          "internalType": "uint256[]",
          "name": "",
          "type": "uint256[]"
        }
      ],
      "stateMutability": "view",
      "type": "function"
    },
    {
      "inputs": [
        {
          "internalType": "uint256",
          "name": "",
          "type": "uint256"
        }
      ],
      "name": "contractRecordAt",
      "outputs": [
        {
          "internalType": "address",
          "name": "addr",
          "type": "address"
        },
        {
          "internalType": "enum IDispatcher.ContractType",
          "name": "contractType",
          "type": "uint8"
        },
        {
          "internalType": "string",
          "name": "description",
          "type": "string"
        }
      ],
      "stateMutability": "view",
      "type": "function"
    },
    {
      "inputs": [
        {
          "internalType": "uint256",
          "name": "jurisdiction",
          "type": "uint256"
        },
        {
          "internalType": "string",
          "name": "EIN",
          "type": "string"
        },
        {
          "internalType": "string",
          "name": "dateOfIncorporation",
          "type": "string"
        },
        {
          "internalType": "uint256",
          "name": "entityType",
          "type": "uint256"
        },
        {
          "internalType": "uint256",
          "name": "fee",
          "type": "uint256"
        }
      ],
      "name": "createRecord",
      "outputs": [],
      "stateMutability": "nonpayable",
      "type": "function"
    },
    {
      "inputs": [],
      "name": "currentId",
      "outputs": [
        {
          "internalType": "uint256",
          "name": "",
          "type": "uint256"
        }
      ],
      "stateMutability": "view",
      "type": "function"
    },
    {
      "inputs": [
        {
          "internalType": "uint256",
          "name": "id",
          "type": "uint256"
        }
      ],
      "name": "deleteRecord",
      "outputs": [],
      "stateMutability": "nonpayable",
      "type": "function"
    },
    {
      "inputs": [
        {
          "internalType": "uint256",
          "name": "",
          "type": "uint256"
        }
      ],
      "name": "events",
      "outputs": [
        {
          "internalType": "enum IDispatcher.EventType",
          "name": "eventType",
          "type": "uint8"
        },
        {
          "internalType": "address",
          "name": "pool",
          "type": "address"
        },
        {
          "internalType": "uint256",
          "name": "proposalId",
          "type": "uint256"
        },
        {
          "internalType": "string",
          "name": "metaHash",
          "type": "string"
        }
      ],
      "stateMutability": "view",
      "type": "function"
    },
    {
      "inputs": [
        {
          "internalType": "uint256",
          "name": "jurisdiction",
          "type": "uint256"
        }
      ],
      "name": "existingCompanies",
      "outputs": [
        {
          "internalType": "uint256[]",
          "name": "",
          "type": "uint256[]"
        }
      ],
      "stateMutability": "view",
      "type": "function"
    },
    {
      "inputs": [
        {
          "internalType": "address",
          "name": "tge",
          "type": "address"
        }
      ],
      "name": "getContractDescription",
      "outputs": [
        {
          "internalType": "string",
          "name": "",
          "type": "string"
        }
      ],
      "stateMutability": "view",
      "type": "function"
    },
    {
      "inputs": [
        {
          "internalType": "address",
          "name": "pool",
          "type": "address"
        },
        {
          "internalType": "uint256",
          "name": "proposalId",
          "type": "uint256"
        }
      ],
      "name": "getGlobalProposalId",
      "outputs": [
        {
          "internalType": "uint256",
          "name": "",
          "type": "uint256"
        }
      ],
      "stateMutability": "view",
      "type": "function"
    },
    {
      "inputs": [
        {
          "internalType": "address",
          "name": "",
          "type": "address"
        }
      ],
      "name": "indexOfContract",
      "outputs": [
        {
          "internalType": "uint256",
          "name": "",
          "type": "uint256"
        }
      ],
      "stateMutability": "view",
      "type": "function"
    },
    {
      "inputs": [],
      "name": "initialize",
      "outputs": [],
      "stateMutability": "nonpayable",
      "type": "function"
    },
    {
      "inputs": [
        {
          "internalType": "address",
          "name": "account",
          "type": "address"
        }
      ],
      "name": "isManagerWhitelisted",
      "outputs": [
        {
          "internalType": "bool",
          "name": "",
          "type": "bool"
        }
      ],
      "stateMutability": "view",
      "type": "function"
    },
    {
      "inputs": [
        {
          "internalType": "address",
          "name": "token",
          "type": "address"
        }
      ],
      "name": "isTokenWhitelisted",
      "outputs": [
        {
          "internalType": "bool",
          "name": "",
          "type": "bool"
        }
      ],
      "stateMutability": "view",
      "type": "function"
    },
    {
      "inputs": [],
      "name": "lastContractRecordIndex",
      "outputs": [
        {
          "internalType": "uint256",
          "name": "",
          "type": "uint256"
        }
      ],
      "stateMutability": "view",
      "type": "function"
    },
    {
      "inputs": [],
      "name": "lastEventIndex",
      "outputs": [
        {
          "internalType": "uint256",
          "name": "",
          "type": "uint256"
        }
      ],
      "stateMutability": "view",
      "type": "function"
    },
    {
      "inputs": [],
      "name": "lastProposalRecordIndex",
      "outputs": [
        {
          "internalType": "uint256",
          "name": "",
          "type": "uint256"
        }
      ],
      "stateMutability": "view",
      "type": "function"
    },
    {
      "inputs": [
        {
          "internalType": "uint256",
          "name": "jurisdiction",
          "type": "uint256"
        },
        {
          "internalType": "uint256",
          "name": "entityType",
          "type": "uint256"
        }
      ],
      "name": "lockRecord",
      "outputs": [
        {
          "internalType": "address",
          "name": "",
          "type": "address"
        },
        {
          "internalType": "uint256",
          "name": "",
          "type": "uint256"
        }
      ],
      "stateMutability": "nonpayable",
      "type": "function"
    },
    {
      "inputs": [],
      "name": "owner",
      "outputs": [
        {
          "internalType": "address",
          "name": "",
          "type": "address"
        }
      ],
      "stateMutability": "view",
      "type": "function"
    },
    {
      "inputs": [
        {
          "internalType": "uint256",
          "name": "jurisdiction",
          "type": "uint256"
        },
        {
          "internalType": "uint256",
          "name": "entityType",
          "type": "uint256"
        }
      ],
      "name": "poolAvailable",
      "outputs": [
        {
          "internalType": "uint256",
          "name": "",
          "type": "uint256"
        },
        {
          "internalType": "uint256",
          "name": "",
          "type": "uint256"
        }
      ],
      "stateMutability": "view",
      "type": "function"
    },
    {
      "inputs": [
        {
          "internalType": "uint256",
          "name": "",
          "type": "uint256"
        }
      ],
      "name": "proposalRecordAt",
      "outputs": [
        {
          "internalType": "address",
          "name": "pool",
          "type": "address"
        },
        {
          "internalType": "uint256",
          "name": "proposalId",
          "type": "uint256"
        },
        {
          "internalType": "string",
          "name": "description",
          "type": "string"
        }
      ],
      "stateMutability": "view",
      "type": "function"
    },
    {
      "inputs": [],
      "name": "proxiableUUID",
      "outputs": [
        {
          "internalType": "bytes32",
          "name": "",
          "type": "bytes32"
        }
      ],
      "stateMutability": "view",
      "type": "function"
    },
    {
      "inputs": [
        {
          "internalType": "uint256",
          "name": "",
          "type": "uint256"
        }
      ],
      "name": "queueInfo",
      "outputs": [
        {
          "internalType": "uint256",
          "name": "jurisdiction",
          "type": "uint256"
        },
        {
          "internalType": "string",
          "name": "EIN",
          "type": "string"
        },
        {
          "internalType": "string",
          "name": "dateOfIncorporation",
          "type": "string"
        },
        {
          "internalType": "uint256",
          "name": "entityType",
          "type": "uint256"
        },
        {
          "internalType": "enum IDispatcher.Status",
          "name": "status",
          "type": "uint8"
        },
        {
          "internalType": "address",
          "name": "pool",
          "type": "address"
        },
        {
          "internalType": "uint256",
          "name": "fee",
          "type": "uint256"
        }
      ],
      "stateMutability": "view",
      "type": "function"
    },
    {
      "inputs": [
        {
          "internalType": "address",
          "name": "account",
          "type": "address"
        }
      ],
      "name": "removeManagerFromWhitelist",
      "outputs": [],
      "stateMutability": "nonpayable",
      "type": "function"
    },
    {
      "inputs": [
        {
          "internalType": "address[]",
          "name": "tokens",
          "type": "address[]"
        }
      ],
      "name": "removeTokensFromWhitelist",
      "outputs": [],
      "stateMutability": "nonpayable",
      "type": "function"
    },
    {
      "inputs": [],
      "name": "renounceOwnership",
      "outputs": [],
      "stateMutability": "nonpayable",
      "type": "function"
    },
    {
      "inputs": [],
      "name": "service",
      "outputs": [
        {
          "internalType": "address",
          "name": "",
          "type": "address"
        }
      ],
      "stateMutability": "view",
      "type": "function"
    },
    {
      "inputs": [
        {
          "internalType": "address",
          "name": "service_",
          "type": "address"
        }
      ],
      "name": "setService",
      "outputs": [],
      "stateMutability": "nonpayable",
      "type": "function"
    },
    {
      "inputs": [
        {
          "internalType": "address",
          "name": "",
          "type": "address"
        }
      ],
      "name": "tokenSwapPath",
      "outputs": [
        {
          "internalType": "bytes",
          "name": "",
          "type": "bytes"
        }
      ],
      "stateMutability": "view",
      "type": "function"
    },
    {
      "inputs": [
        {
          "internalType": "address",
          "name": "",
          "type": "address"
        }
      ],
      "name": "tokenSwapReversePath",
      "outputs": [
        {
          "internalType": "bytes",
          "name": "",
          "type": "bytes"
        }
      ],
      "stateMutability": "view",
      "type": "function"
    },
    {
      "inputs": [],
      "name": "tokenWhitelist",
      "outputs": [
        {
          "internalType": "address[]",
          "name": "",
          "type": "address[]"
        }
      ],
      "stateMutability": "view",
      "type": "function"
    },
    {
      "inputs": [
        {
          "internalType": "address",
          "name": "newOwner",
          "type": "address"
        }
      ],
      "name": "transferOwnership",
      "outputs": [],
      "stateMutability": "nonpayable",
      "type": "function"
    },
    {
      "inputs": [
        {
          "internalType": "address",
          "name": "addr",
          "type": "address"
        }
      ],
      "name": "typeOf",
      "outputs": [
        {
          "internalType": "enum IDispatcher.ContractType",
          "name": "",
          "type": "uint8"
        }
      ],
      "stateMutability": "view",
      "type": "function"
    },
    {
      "inputs": [
        {
          "internalType": "uint256",
          "name": "id",
          "type": "uint256"
        },
        {
          "internalType": "uint256",
          "name": "fee",
          "type": "uint256"
        }
      ],
      "name": "updateFeeByIndex",
      "outputs": [],
      "stateMutability": "nonpayable",
      "type": "function"
    },
    {
      "inputs": [
        {
          "internalType": "address",
          "name": "jurisdiction",
          "type": "address"
        },
        {
          "internalType": "string",
          "name": "EIN",
          "type": "string"
        },
        {
          "internalType": "uint256",
          "name": "fee",
          "type": "uint256"
        }
      ],
      "name": "updateFeeByJE",
      "outputs": [],
      "stateMutability": "nonpayable",
      "type": "function"
    },
    {
      "inputs": [
        {
          "internalType": "address",
          "name": "poolToUpdate",
          "type": "address"
        },
        {
          "internalType": "uint256",
          "name": "fee",
          "type": "uint256"
        }
      ],
      "name": "updateFeeByPool",
      "outputs": [],
      "stateMutability": "nonpayable",
      "type": "function"
    },
    {
      "inputs": [
        {
          "internalType": "address",
          "name": "newImplementation",
          "type": "address"
        }
      ],
      "name": "upgradeTo",
      "outputs": [],
      "stateMutability": "nonpayable",
      "type": "function"
    },
    {
      "inputs": [
        {
          "internalType": "address",
          "name": "newImplementation",
          "type": "address"
        },
        {
          "internalType": "bytes",
          "name": "data",
          "type": "bytes"
        }
      ],
      "name": "upgradeToAndCall",
      "outputs": [],
      "stateMutability": "payable",
      "type": "function"
    },
    {
      "inputs": [
        {
          "internalType": "uint256",
          "name": "ballotQuorumThreshold",
          "type": "uint256"
        },
        {
          "internalType": "uint256",
          "name": "ballotDecisionThreshold",
          "type": "uint256"
        },
        {
          "internalType": "uint256",
          "name": "ballotLifespan",
          "type": "uint256"
        },
        {
          "internalType": "uint256[10]",
          "name": "ballotExecDelay",
          "type": "uint256[10]"
        }
      ],
      "name": "validateBallotParams",
      "outputs": [
        {
          "internalType": "bool",
          "name": "",
          "type": "bool"
        }
      ],
      "stateMutability": "pure",
      "type": "function"
    },
    {
      "inputs": [
        {
          "components": [
            {
              "internalType": "uint256",
              "name": "price",
              "type": "uint256"
            },
            {
              "internalType": "uint256",
              "name": "hardcap",
              "type": "uint256"
            },
            {
              "internalType": "uint256",
              "name": "softcap",
              "type": "uint256"
            },
            {
              "internalType": "uint256",
              "name": "minPurchase",
              "type": "uint256"
            },
            {
              "internalType": "uint256",
              "name": "maxPurchase",
              "type": "uint256"
            },
            {
              "internalType": "uint256",
              "name": "vestingPercent",
              "type": "uint256"
            },
            {
              "internalType": "uint256",
              "name": "vestingDuration",
              "type": "uint256"
            },
            {
              "internalType": "uint256",
              "name": "vestingTVL",
              "type": "uint256"
            },
            {
              "internalType": "uint256",
              "name": "duration",
              "type": "uint256"
            },
            {
              "internalType": "address[]",
              "name": "userWhitelist",
              "type": "address[]"
            },
            {
              "internalType": "address",
              "name": "unitOfAccount",
              "type": "address"
            },
            {
              "internalType": "uint256",
              "name": "lockupDuration",
              "type": "uint256"
            },
            {
              "internalType": "uint256",
              "name": "lockupTVL",
              "type": "uint256"
            }
          ],
          "internalType": "struct ITGE.TGEInfo",
          "name": "info",
          "type": "tuple"
        },
        {
          "internalType": "enum IToken.TokenType",
          "name": "tokenType",
          "type": "uint8"
        },
        {
          "internalType": "uint256",
          "name": "cap",
          "type": "uint256"
        },
        {
          "internalType": "uint256",
          "name": "totalSupply",
          "type": "uint256"
        }
      ],
      "name": "validateTGEInfo",
      "outputs": [
        {
          "internalType": "bool",
          "name": "",
          "type": "bool"
        }
      ],
      "stateMutability": "view",
      "type": "function"
    }
  ],
  "bytecode": "0x60a0604052306080523480156200001557600080fd5b506200002062000026565b620000e8565b600054610100900460ff1615620000935760405162461bcd60e51b815260206004820152602760248201527f496e697469616c697a61626c653a20636f6e747261637420697320696e697469604482015266616c697a696e6760c81b606482015260840160405180910390fd5b60005460ff9081161015620000e6576000805460ff191660ff9081179091556040519081527f7f26b83ff96e1f2b6a682f133852f6798a09c465da95921460cefb38474024989060200160405180910390a15b565b608051614ecf620001206000396000818161104f015281816110920152818161189b015281816118de0152611b860152614ecf6000f3fe608060405260043610620002b35760003560e01c80637e89ed27116200016b578063c51eba6411620000d1578063e64b2afa1162000084578063e64b2afa1462000909578063e863325c146200092e578063eaa2e8891462000964578063ef086e6e1462000989578063f2fde38b14620009ae578063f4be936914620009d357600080fd5b8063c51eba641462000823578063ca735cc11462000848578063cbd2561d146200086f578063cc9bde0314620008aa578063d598d4c914620008cf578063e00dd16114620008f157600080fd5b8063986f557d116200012a578063986f557d1462000745578063a7ca279f146200076a578063b36bb0e3146200078f578063b5af090f14620007b4578063b8d57ada14620007d9578063bf8bdac114620007fe57600080fd5b80637e89ed2714620006665780638129fc1c14620006ab578063867c5ce414620006c35780638da5cb5b14620006db5780638f78131d146200070f57600080fd5b806341a453e1116200021d57806352211b4611620001d057806352211b46146200055257806352d1902d146200058c57806363d08dff14620005a45780636dcb0cf814620005c9578063715018a61462000629578063770fae42146200064157600080fd5b806341a453e1146200048f57806346179c5814620004b45780634c37d16714620004d95780634dcbe29c14620004fe5780634f1ef286146200051657806350eb1c43146200052d57600080fd5b80631f8b400511620002765780631f8b400514620003bc578063200b0ba314620003e157806324dbc7dc146200040657806327a035de146200041e5780633659cfe61462000436578063390bf99f146200045b57600080fd5b8063061f981114620002b85780630b79143014620002df578063121f661c146200031f5780631a84bcac146200035f5780631e101a3d1462000386575b600080fd5b348015620002c557600080fd5b50620002dd620002d73660046200372e565b620009f8565b005b348015620002ec57600080fd5b5062000304620002fe3660046200372e565b62000ad3565b604051620003169493929190620037c5565b60405180910390f35b3480156200032c57600080fd5b50620003506200033e3660046200381f565b60cc6020526000908152604090205481565b60405190815260200162000316565b3480156200036c57600080fd5b506200037762000b99565b6040516200031691906200383f565b3480156200039357600080fd5b50620003ab620003a53660046200381f565b62000cb1565b604051901515815260200162000316565b348015620003c957600080fd5b5062000350620003db36600462003948565b62000cc6565b348015620003ee57600080fd5b5062000377620004003660046200372e565b62000e42565b3480156200041357600080fd5b506200035060d05481565b3480156200042b57600080fd5b506200037762000f04565b3480156200044357600080fd5b50620002dd620004553660046200381f565b62001045565b3480156200046857600080fd5b50620004806200047a3660046200381f565b62001130565b604051620003169190620039b1565b3480156200049c57600080fd5b50620003ab620004ae366004620039c6565b6200123b565b348015620004c157600080fd5b5062000350620004d336600462003a53565b62001387565b348015620004e657600080fd5b50620003ab620004f836600462003acd565b6200152c565b3480156200050b57600080fd5b506200035060ce5481565b620002dd6200052736600462003b39565b62001891565b3480156200053a57600080fd5b50620004806200054c3660046200381f565b6200196d565b3480156200055f57600080fd5b5062000577620005713660046200372e565b62001a0f565b60405162000316979695949392919062003ba3565b3480156200059957600080fd5b506200035062001b79565b348015620005b157600080fd5b5062000480620005c33660046200381f565b62001c2f565b348015620005d657600080fd5b506200061a620005e83660046200381f565b6001600160a01b0316600090815260cc6020908152604080832054835260ca909152902054600160a01b900460ff1690565b60405162000316919062003c15565b3480156200063657600080fd5b50620002dd62001c4a565b3480156200064e57600080fd5b50620002dd6200066036600462003c2a565b62001c62565b3480156200067357600080fd5b506200068b6200068536600462003c2a565b62001cf3565b604080516001600160a01b03909316835260208301919091520162000316565b348015620006b857600080fd5b50620002dd62001e27565b348015620006d057600080fd5b506200035060cb5481565b348015620006e857600080fd5b506033546001600160a01b03165b6040516001600160a01b03909116815260200162000316565b3480156200071c57600080fd5b50620007346200072e3660046200372e565b62001f4f565b604051620003169392919062003c4d565b3480156200075257600080fd5b50620002dd6200076436600462003c76565b6200200c565b3480156200077757600080fd5b50620002dd6200078936600462003d1e565b62002173565b3480156200079c57600080fd5b50620002dd620007ae36600462003dc1565b62002387565b348015620007c157600080fd5b50620003ab620007d33660046200381f565b62002442565b348015620007e657600080fd5b50620002dd620007f83660046200381f565b62002451565b3480156200080b57600080fd5b50620002dd6200081d3660046200381f565b620024b5565b3480156200083057600080fd5b5062000350620008423660046200372e565b6200252f565b3480156200085557600080fd5b5062000860620025b5565b60405162000316919062003e06565b3480156200087c57600080fd5b50620008946200088e36600462003c2a565b620025c8565b6040805192835260208301919091520162000316565b348015620008b757600080fd5b50620002dd620008c936600462003e49565b620026bb565b348015620008dc57600080fd5b5060c954620006f6906001600160a01b031681565b348015620008fe57600080fd5b506200035060d15481565b3480156200091657600080fd5b50620002dd620009283660046200381f565b62002bc6565b3480156200093b57600080fd5b50620009536200094d3660046200372e565b62002c2e565b604051620003169392919062003ece565b3480156200097157600080fd5b50620003506200098336600462003f03565b62002c68565b3480156200099657600080fd5b50620002dd620009a836600462003f03565b62002ce1565b348015620009bb57600080fd5b50620002dd620009cd3660046200381f565b62002df2565b348015620009e057600080fd5b5062000350620009f236600462003f03565b62002e6e565b62000a0262002f9a565b600081815260d2602052604081206004015460ff16600181111562000a2b5762000a2b62003748565b146040518060400160405280600d81526020016c5245434f52445f494e5f55534560981b8152509062000a7c5760405162461bcd60e51b815260040162000a739190620039b1565b60405180910390fd5b50600081815260d2602052604081208181559062000a9e6001830182620036c6565b62000aae600283016000620036c6565b506000600382018190556004820180546001600160a81b031916905560059091015550565b60cf6020526000908152604090208054600182015460028301805460ff8416946101009094046001600160a01b031693919062000b109062003f32565b80601f016020809104026020016040519081016040528092919081815260200182805462000b3e9062003f32565b801562000b8f5780601f1062000b635761010080835404028352916020019162000b8f565b820191906000526020600020905b81548152906001019060200180831162000b7157829003601f168201915b5050505050905084565b6060600060d1546001600160401b0381111562000bba5762000bba62003893565b60405190808252806020026020018201604052801562000be4578160200160208202803683370190505b509050600060015b60d154811162000ca957600081815260d26020526040812054905b845181101562000c915784818151811062000c265762000c2662003f6e565b602002602001015182031562000c9157845162000c4582600162003f9a565b0362000c7c578185858151811062000c615762000c6162003f6e565b602090810291909101015262000c7960018562003f9a565b93505b8062000c888162003fb0565b91505062000c07565b5050808062000ca09062003fb0565b91505062000bec565b509092915050565b600062000cc060d78362002ff6565b92915050565b60c95460408051808201909152600b81526a4e4f545f5345525649434560a81b60208201526000916001600160a01b0316331462000d195760405162461bcd60e51b815260040162000a739190620039b1565b5060cb6000815462000d2b9062003fb0565b91905081905590506040518060600160405280856001600160a01b0316815260200184600481111562000d625762000d6262003748565b81526020908101849052600083815260ca825260409020825181546001600160a01b039091166001600160a01b031982168117835592840151919283916001600160a81b03191617600160a01b83600481111562000dc45762000dc462003748565b02179055506040820151600182019062000ddf90826200401e565b5050506001600160a01b038416600090815260cc602052604090819020829055517f30ae76c641f7b77628da0dd91b34591e5b1dc7422220e5eb1080af2adfa142ef9062000e3390839087908790620040ea565b60405180910390a19392505050565b6060600060d1546001600160401b0381111562000e635762000e6362003893565b60405190808252806020026020018201604052801562000e8d578160200160208202803683370190505b509050600060015b60d154811162000efb57600081815260d26020526040902054850362000ee6578083838151811062000ecb5762000ecb62003f6e565b602090810291909101015262000ee360018362003f9a565b91505b8062000ef28162003fb0565b91505062000e95565b50909392505050565b6060600060d1546001600160401b0381111562000f255762000f2562003893565b60405190808252806020026020018201604052801562000f4f578160200160208202803683370190505b509050600060015b60d154811162000ca9576001600082815260d2602052604090206004015460ff16600181111562000f8c5762000f8c62003748565b146200103057600081815260d26020526040812054905b84518110156200102d5784818151811062000fc25762000fc262003f6e565b60200260200101518203156200102d57845162000fe182600162003f9a565b0362001018578185858151811062000ffd5762000ffd62003f6e565b60209081029190910101526200101560018562003f9a565b93505b80620010248162003fb0565b91505062000fa3565b50505b806200103c8162003fb0565b91505062000f57565b6001600160a01b037f0000000000000000000000000000000000000000000000000000000000000000163003620010905760405162461bcd60e51b815260040162000a739062004119565b7f00000000000000000000000000000000000000000000000000000000000000006001600160a01b0316620010db60008051602062004e00833981519152546001600160a01b031690565b6001600160a01b031614620011045760405162461bcd60e51b815260040162000a739062004165565b6200110f816200301b565b604080516000808252602082019092526200112d9183919062003025565b50565b60cb5460609060015b8181116200122457600081815260ca60205260409020546001600160a01b03908116908516036200120f57600081815260ca602052604090206001018054620011829062003f32565b80601f0160208091040260200160405190810160405280929190818152602001828054620011b09062003f32565b8015620012015780601f10620011d55761010080835404028352916020019162001201565b820191906000526020600020905b815481529060010190602001808311620011e357829003601f168201915b505050505092505050919050565b806200121b8162003fb0565b91505062001139565b505060408051602081019091526000815292915050565b60006127108511156040518060400160405280600d81526020016c494e56414c49445f56414c554560981b815250906200128a5760405162461bcd60e51b815260040162000a739190620039b1565b5060408051808201909152600d81526c494e56414c49445f56414c554560981b6020820152612710851115620012d55760405162461bcd60e51b815260040162000a739190620039b1565b5060408051808201909152600d81526c494e56414c49445f56414c554560981b6020820152836200131b5760405162461bcd60e51b815260040162000a739190620039b1565b5060208201351580159062001334575060146020830135105b6040518060400160405280600d81526020016c494e56414c49445f56414c554560981b815250906200137b5760405162461bcd60e51b815260040162000a739190620039b1565b50600195945050505050565b60c95460408051808201909152600b81526a4e4f545f5345525649434560a81b60208201526000916001600160a01b03163314620013da5760405162461bcd60e51b815260040162000a739190620039b1565b5060d060008154620013ec9062003fb0565b9190508190559050604051806080016040528086600481111562001414576200141462003748565b8152602001876001600160a01b0316815260200185815260200184848080601f016020809104026020016040519081016040528093929190818152602001838380828437600092018290525093909452505083815260cf602052604090208251815491925090829060ff1916600183600481111562001497576200149762003748565b0217905550602082015181546001600160a01b0390911661010002610100600160a81b03199091161781556040820151600182015560608201516002820190620014e290826200401e565b509050507fbf77faf7ee014713665eccb0c0dfb80c62f931e839792d57c63844ea7c4ad7328587866040516200151b93929190620041b1565b60405180910390a195945050505050565b60008062001543610160870161014088016200381f565b6001600160a01b0316146200161657600062001568610160870161014088016200381f565b6001600160a01b03166318160ddd6040518163ffffffff1660e01b8152600401602060405180830381865afa158015620015a6573d6000803e3d6000fd5b505050506040513d601f19601f82011682018060405250810190620015cc9190620041dd565b116040518060400160405280600d81526020016c24a72b20a624a22faa27a5a2a760991b81525090620016145760405162461bcd60e51b815260040162000a739190620039b1565b505b60c960009054906101000a90046001600160a01b03166001600160a01b031663e76829286040518163ffffffff1660e01b8152600401602060405180830381865afa1580156200166a573d6000803e3d6000fd5b505050506040513d601f19601f82011682018060405250810190620016909190620041dd565b856020013510156040518060400160405280600f81526020016e0494e56414c49445f4841524443415608c1b81525090620016e05760405162461bcd60e51b815260040162000a739190620039b1565b506001846002811115620016f857620016f862003748565b03620018155760006200170c8385620041f7565b9050808660200135111560405180606001604052806021815260200162004e796021913990620017515760405162461bcd60e51b815260040162000a739190620039b1565b5060c954604051639d838ad360e01b81526020880135600482015282916001600160a01b031690639d838ad390602401602060405180830381865afa1580156200179f573d6000803e3d6000fd5b505050506040513d601f19601f82011682018060405250810190620017c59190620041dd565b620017d590602089013562003f9a565b111560405180606001604052806032815260200162004e476032913990620018125760405162461bcd60e51b815260040162000a739190620039b1565b50505b6103e8856060013510158015620013345750670de0b6b3a764000062001841606087013587356200420d565b10158062001334575060408051808201909152600d81526c494e56414c49445f56414c554560981b60208201528535156200137b5760405162461bcd60e51b815260040162000a739190620039b1565b6001600160a01b037f0000000000000000000000000000000000000000000000000000000000000000163003620018dc5760405162461bcd60e51b815260040162000a739062004119565b7f00000000000000000000000000000000000000000000000000000000000000006001600160a01b03166200192760008051602062004e00833981519152546001600160a01b031690565b6001600160a01b031614620019505760405162461bcd60e51b815260040162000a739062004165565b6200195b826200301b565b620019698282600162003025565b5050565b60d56020526000908152604090208054620019889062003f32565b80601f0160208091040260200160405190810160405280929190818152602001828054620019b69062003f32565b801562001a075780601f10620019db5761010080835404028352916020019162001a07565b820191906000526020600020905b815481529060010190602001808311620019e957829003601f168201915b505050505081565b60d2602052600090815260409020805460018201805491929162001a339062003f32565b80601f016020809104026020016040519081016040528092919081815260200182805462001a619062003f32565b801562001ab25780601f1062001a865761010080835404028352916020019162001ab2565b820191906000526020600020905b81548152906001019060200180831162001a9457829003601f168201915b50505050509080600201805462001ac99062003f32565b80601f016020809104026020016040519081016040528092919081815260200182805462001af79062003f32565b801562001b485780601f1062001b1c5761010080835404028352916020019162001b48565b820191906000526020600020905b81548152906001019060200180831162001b2a57829003601f168201915b50505050600383015460048401546005909401549293909260ff821692506101009091046001600160a01b03169087565b6000306001600160a01b037f0000000000000000000000000000000000000000000000000000000000000000161462001c1b5760405162461bcd60e51b815260206004820152603860248201527f555550535570677261646561626c653a206d757374206e6f742062652063616c60448201527f6c6564207468726f7567682064656c656761746563616c6c0000000000000000606482015260840162000a73565b5060008051602062004e0083398151915290565b60d66020526000908152604090208054620019889062003f32565b62001c5462002f9a565b62001c6060006200319d565b565b62001c6c62002f9a565b600082815260d2602052604081206004015460ff16600181111562001c955762001c9562003748565b146040518060400160405280600d81526020016c5245434f52445f494e5f55534560981b8152509062001cdd5760405162461bcd60e51b815260040162000a739190620039b1565b50600091825260d2602052604090912060050155565b60c95460408051808201909152600b81526a4e4f545f5345525649434560a81b60208201526000918291906001600160a01b0316331462001d495760405162461bcd60e51b815260040162000a739190620039b1565b5060d15460015b81811162001e1657600081815260d260205260409020548614801562001d865750600081815260d2602052604090206003015485145b801562001db95750600081815260d2602052604081206004015460ff16600181111562001db75762001db762003748565b145b1562001e0157600090815260d260205260409020600481018054600160ff1990911617908190556005909101546101009091046001600160a01b03169350915062001e209050565b8062001e0d8162003fb0565b91505062001d50565b5060008092509250505b9250929050565b600054610100900460ff161580801562001e485750600054600160ff909116105b8062001e645750303b15801562001e64575060005460ff166001145b62001ec95760405162461bcd60e51b815260206004820152602e60248201527f496e697469616c697a61626c653a20636f6e747261637420697320616c72656160448201526d191e481a5b9a5d1a585b1a5e995960921b606482015260840162000a73565b6000805460ff19166001179055801562001eed576000805461ff0019166101001790555b62001ef7620031ef565b62001f0162003223565b600060d15580156200112d576000805461ff0019169055604051600181527f7f26b83ff96e1f2b6a682f133852f6798a09c465da95921460cefb38474024989060200160405180910390a150565b60cd602052600090815260409020805460018201546002830180546001600160a01b0390931693919262001f839062003f32565b80601f016020809104026020016040519081016040528092919081815260200182805462001fb19062003f32565b8015620020025780601f1062001fd65761010080835404028352916020019162002002565b820191906000526020600020905b81548152906001019060200180831162001fe457829003601f168201915b5050505050905083565b6200201662002f9a565b600060d160008154620020299062003fb0565b91905081905590506000808686866040516020016200204b9392919062004227565b60408051601f198184030181529190528051602090910120905060015b838110156200211357600081815260d2602090815260408083208054915162002098936001909201910162004253565b60408051601f19818403018152919052805160209091012090506001600083815260d2602052604090206004015460ff166001811115620020dd57620020dd62003748565b03620020ea5750620020fe565b808303620020fc578193505062002113565b505b806200210a8162003fb0565b91505062002068565b5060408051808201909152600a8152694e4f5f434f4d50414e5960b01b602082015282620021565760405162461bcd60e51b815260040162000a739190620039b1565b5050600090815260d2602052604090206005019190915550505050565b6200217d62002f9a565b84831480156200218c57508481145b6040518060400160405280600d81526020016c494e56414c49445f56414c554560981b81525090620021d35760405162461bcd60e51b815260040162000a739190620039b1565b5060005b858110156200237e5762002219878783818110620021f957620021f962003f6e565b90506020020160208101906200221091906200381f565b60d3906200324d565b604051806040016040528060138152602001721053149150511657d5d2125511531254d51151606a1b81525090620022665760405162461bcd60e51b815260040162000a739190620039b1565b508484828181106200227c576200227c62003f6e565b9050602002810190620022909190620042de565b60d560008a8a86818110620022a957620022a962003f6e565b9050602002016020810190620022c091906200381f565b6001600160a01b03168152602081019190915260400160002091620022e791908362004327565b50828282818110620022fd57620022fd62003f6e565b9050602002810190620023119190620042de565b60d660008a8a868181106200232a576200232a62003f6e565b90506020020160208101906200234191906200381f565b6001600160a01b031681526020810191909152604001600020916200236891908362004327565b5080620023758162003fb0565b915050620021d7565b50505050505050565b6200239162002f9a565b60005b818110156200243d57620023d6838383818110620023b657620023b662003f6e565b9050602002016020810190620023cd91906200381f565b60d39062003264565b604051806040016040528060178152602001761053149150511657d393d517d5d2125511531254d51151604a1b81525090620024275760405162461bcd60e51b815260040162000a739190620039b1565b5080620024348162003fb0565b91505062002394565b505050565b600062000cc060d38362002ff6565b6200245b62002f9a565b6200246860d7826200324d565b604051806040016040528060138152602001721053149150511657d5d2125511531254d51151606a1b81525090620019695760405162461bcd60e51b815260040162000a739190620039b1565b620024bf62002f9a565b60408051808201909152600c81526b414444524553535f5a45524f60a01b60208201526001600160a01b0382166200250c5760405162461bcd60e51b815260040162000a739190620039b1565b5060c980546001600160a01b0319166001600160a01b0392909216919091179055565b60008060015b60d1548111620025ae57600081815260d2602052604090205484148015620025835750600081815260d2602052604081206004015460ff16600181111562002581576200258162003748565b145b1562002599576200259660018362003f9a565b91505b80620025a58162003fb0565b91505062002535565b5092915050565b6060620025c360d36200327b565b905090565b60d1546000908190819060015b818111620026ad57600081815260d2602052604090208054600382015460049092015490919060ff1689831415806200260e5750888214155b80156200262f575060008160018111156200262d576200262d62003748565b145b156200263a57600195505b89831480156200264957508882145b80156200266a5750600081600181111562002668576200266862003748565b145b156200269457505050600090815260d2602052604090206005015460029450925062001e20915050565b5050508080620026a49062003fb0565b915050620025d5565b509095600095509350505050565b620026c63362000cb1565b6040518060400160405280600f81526020016e1393d517d5d2125511531254d51151608a1b815250906200270f5760405162461bcd60e51b815260040162000a739190620039b1565b50600085118015620027215750835115155b80156200272e5750825115155b80156200273b5750600082115b6040518060400160405280600a81526020016956414c55455f5a45524f60b01b815250906200277f5760405162461bcd60e51b815260040162000a739190620039b1565b506000858560405160200162002797929190620043f4565b604051602081830303815290604052805190602001209050600060d160008154620027c29062003fb0565b9182905550905060015b818110156200287257600081815260d26020908152604091829020805492518693620027ff939092600101910162004253565b6040516020818303038152906040528051906020012014156040518060400160405280600b81526020016a24a72b20a624a22fa2a4a760a91b815250906200285c5760405162461bcd60e51b815260040162000a739190620039b1565b5080620028698162003fb0565b915050620027cc565b5060c954604080516362d3d97560e11b815290516000926001600160a01b03169163c5a7b2ea9160048083019260209291908290030181865afa158015620028be573d6000803e3d6000fd5b505050506040513d601f19601f82011682018060405250810190620028e491906200441c565b604051620028f29062003705565b6001600160a01b039091168152604060208201819052600090820152606001604051809103906000f0801580156200292e573d6000803e3d6000fd5b50604051632318e87160e11b81529091506001600160a01b03821690634631d0e29062002968908b908b908b908b9089906004016200443c565b600060405180830381600087803b1580156200298357600080fd5b505af115801562002998573d6000803e3d6000fd5b505050506040518060e0016040528089815260200188815260200187815260200186815260200160006001811115620029d557620029d562003748565b81526001600160a01b0383166020808301919091526040918201879052600085815260d28252919091208251815590820151600182019062002a1890826200401e565b506040820151600282019062002a2f90826200401e565b5060608201516003820155608082015160048201805460ff19166001838181111562002a5f5762002a5f62003748565b021790555060a08201518160040160016101000a8154816001600160a01b0302191690836001600160a01b0316021790555060c08201518160050155905050600060cb6000815462002ab19062003fb0565b918290555060408051606081019091526001600160a01b03841681529091506020810160018152604080516020818101835260008083529381019190915284835260ca81529120825181546001600160a01b039091166001600160a01b031982168117835592840151919283916001600160a81b03191617600160a01b83600481111562002b435762002b4362003748565b02179055506040820151600182019062002b5e90826200401e565b5050506001600160a01b038216600090815260cc602052604090819020829055517f30ae76c641f7b77628da0dd91b34591e5b1dc7422220e5eb1080af2adfa142ef9062002bb39083908590600190620040ea565b60405180910390a1505050505050505050565b62002bd062002f9a565b62002bdd60d78262003264565b604051806040016040528060178152602001761053149150511657d393d517d5d2125511531254d51151604a1b81525090620019695760405162461bcd60e51b815260040162000a739190620039b1565b60ca60205260009081526040902080546001820180546001600160a01b03831693600160a01b90930460ff1692919062001f839062003f32565b60ce5460009060015b81811162002cd657600081815260cd6020526040902080546001909101546001600160a01b039182169187168214801562002cab57508581145b1562002cbe578294505050505062000cc0565b5050808062002ccd9062003fb0565b91505062002c71565b506000949350505050565b62002ceb62002f9a565b600060d16000815462002cfe9062003fb0565b91829055509050600060015b8281101562002d9557600081815260d260205260409020600401546001600160a01b036101008204169060019060ff168181111562002d4d5762002d4d62003748565b0362002d5a575062002d80565b806001600160a01b0316866001600160a01b03160362002d7e578192505062002d95565b505b8062002d8c8162003fb0565b91505062002d0a565b5060408051808201909152600a8152694e4f5f434f4d50414e5960b01b60208201528162002dd85760405162461bcd60e51b815260040162000a739190620039b1565b50600090815260d260205260409020600501919091555050565b62002dfc62002f9a565b6001600160a01b03811662002e635760405162461bcd60e51b815260206004820152602660248201527f4f776e61626c653a206e6577206f776e657220697320746865207a65726f206160448201526564647265737360d01b606482015260840162000a73565b6200112d816200319d565b60c95460408051808201909152600b81526a4e4f545f5345525649434560a81b60208201526000916001600160a01b0316331462002ec15760405162461bcd60e51b815260040162000a739190620039b1565b5060ce6000815462002ed39062003fb0565b9182905550604080516060810182526001600160a01b038681168252602080830187815284518083018652600080825285870191825287815260cd90935294909120835181546001600160a01b0319169316929092178255516001820155915192935091600282019062002f4890826200401e565b5050604080518381526001600160a01b03861660208201529081018490527f275b6fbf6c9e793a28d01c614ff750fb316acacb6c25f06fdb8ac72d9dbabb08915060600160405180910390a192915050565b6033546001600160a01b0316331462001c605760405162461bcd60e51b815260206004820181905260248201527f4f776e61626c653a2063616c6c6572206973206e6f7420746865206f776e6572604482015260640162000a73565b6001600160a01b038116600090815260018301602052604081205415155b9392505050565b6200112d62002f9a565b7f4910fdfa16fed3260ed0e7147f7cc6da11a60208b5b9406d12a635614ffd91435460ff16156200305b576200243d836200328a565b826001600160a01b03166352d1902d6040518163ffffffff1660e01b8152600401602060405180830381865afa925050508015620030b8575060408051601f3d908101601f19168201909252620030b591810190620041dd565b60015b6200311d5760405162461bcd60e51b815260206004820152602e60248201527f45524331393637557067726164653a206e657720696d706c656d656e7461746960448201526d6f6e206973206e6f74205555505360901b606482015260840162000a73565b60008051602062004e0083398151915281146200318f5760405162461bcd60e51b815260206004820152602960248201527f45524331393637557067726164653a20756e737570706f727465642070726f786044820152681a58589b195555525160ba1b606482015260840162000a73565b506200243d83838362003329565b603380546001600160a01b038381166001600160a01b0319831681179093556040519116919082907f8be0079c531659141344cd1fd0a4f28419497f9722a3daafe3b4186f6b6457e090600090a35050565b600054610100900460ff16620032195760405162461bcd60e51b815260040162000a739062004480565b62001c606200335a565b600054610100900460ff1662001c605760405162461bcd60e51b815260040162000a739062004480565b600062003014836001600160a01b0384166200338f565b600062003014836001600160a01b038416620033e1565b606060006200301483620034e5565b6001600160a01b0381163b620032f95760405162461bcd60e51b815260206004820152602d60248201527f455243313936373a206e657720696d706c656d656e746174696f6e206973206e60448201526c1bdd08184818dbdb9d1c9858dd609a1b606482015260840162000a73565b60008051602062004e0083398151915280546001600160a01b0319166001600160a01b0392909216919091179055565b620033348362003543565b600082511180620033425750805b156200243d5762003354838362003585565b50505050565b600054610100900460ff16620033845760405162461bcd60e51b815260040162000a739062004480565b62001c60336200319d565b6000818152600183016020526040812054620033d85750815460018181018455600084815260208082209093018490558454848252828601909352604090209190915562000cc0565b50600062000cc0565b60008181526001830160205260408120548015620034da57600062003408600183620041f7565b85549091506000906200341e90600190620041f7565b90508181146200348a57600086600001828154811062003442576200344262003f6e565b906000526020600020015490508087600001848154811062003468576200346862003f6e565b6000918252602080832090910192909255918252600188019052604090208390555b85548690806200349e576200349e620044cb565b60019003818190600052602060002001600090559055856001016000868152602001908152602001600020600090556001935050505062000cc0565b600091505062000cc0565b6060816000018054806020026020016040519081016040528092919081815260200182805480156200353757602002820191906000526020600020905b81548152602001906001019080831162003522575b50505050509050919050565b6200354e816200328a565b6040516001600160a01b038216907fbc7cd75a20ee27fd9adebab32041f755214dbc6bffa90cc0225b39da2e5c2d3b90600090a250565b60606001600160a01b0383163b620035ef5760405162461bcd60e51b815260206004820152602660248201527f416464726573733a2064656c65676174652063616c6c20746f206e6f6e2d636f6044820152651b9d1c9858dd60d21b606482015260840162000a73565b600080846001600160a01b0316846040516200360c9190620044e1565b600060405180830381855af49150503d806000811462003649576040519150601f19603f3d011682016040523d82523d6000602084013e6200364e565b606091505b509150915062003679828260405180606001604052806027815260200162004e206027913962003682565b95945050505050565b606083156200369357508162003014565b620030148383815115620036aa5781518083602001fd5b8060405162461bcd60e51b815260040162000a739190620039b1565b508054620036d49062003f32565b6000825580601f10620036e5575050565b601f0160209004906000526020600020908101906200112d919062003713565b610900806200450083390190565b5b808211156200372a576000815560010162003714565b5090565b6000602082840312156200374157600080fd5b5035919050565b634e487b7160e01b600052602160045260246000fd5b600581106200112d576200112d62003748565b60005b838110156200378e57818101518382015260200162003774565b50506000910152565b60008151808452620037b181602086016020860162003771565b601f01601f19169290920160200192915050565b620037d0856200375e565b84815260018060a01b0384166020820152826040820152608060608201526000620037ff608083018462003797565b9695505050505050565b6001600160a01b03811681146200112d57600080fd5b6000602082840312156200383257600080fd5b8135620030148162003809565b6020808252825182820181905260009190848201906040850190845b8181101562003879578351835292840192918401916001016200385b565b50909695505050505050565b600581106200112d57600080fd5b634e487b7160e01b600052604160045260246000fd5b60006001600160401b0380841115620038c657620038c662003893565b604051601f8501601f19908116603f01168101908282118183101715620038f157620038f162003893565b816040528093508581528686860111156200390b57600080fd5b858560208301376000602087830101525050509392505050565b600082601f8301126200393757600080fd5b6200301483833560208501620038a9565b6000806000606084860312156200395e57600080fd5b83356200396b8162003809565b925060208401356200397d8162003885565b915060408401356001600160401b038111156200399957600080fd5b620039a78682870162003925565b9150509250925092565b60208152600062003014602083018462003797565b6000806000806101a0808688031215620039df57600080fd5b85359450602086013593506040860135925086818701111562003a0157600080fd5b509295919450926060019150565b60008083601f84011262003a2257600080fd5b5081356001600160401b0381111562003a3a57600080fd5b60208301915083602082850101111562001e2057600080fd5b60008060008060006080868803121562003a6c57600080fd5b853562003a798162003809565b9450602086013562003a8b8162003885565b93506040860135925060608601356001600160401b0381111562003aae57600080fd5b62003abc8882890162003a0f565b969995985093965092949392505050565b6000806000806080858703121562003ae457600080fd5b84356001600160401b0381111562003afb57600080fd5b85016101a0818803121562003b0f57600080fd5b935060208501356003811062003b2457600080fd5b93969395505050506040820135916060013590565b6000806040838503121562003b4d57600080fd5b823562003b5a8162003809565b915060208301356001600160401b0381111562003b7657600080fd5b8301601f8101851362003b8857600080fd5b62003b9985823560208401620038a9565b9150509250929050565b87815260e06020820152600062003bbe60e083018962003797565b828103604084015262003bd2818962003797565b9150508560608301526002851062003bee5762003bee62003748565b60808201949094526001600160a01b039290921660a083015260c090910152949350505050565b6020810162003c24836200375e565b91905290565b6000806040838503121562003c3e57600080fd5b50508035926020909101359150565b60018060a01b038416815282602082015260606040820152600062003679606083018462003797565b6000806000806060858703121562003c8d57600080fd5b843562003c9a8162003809565b935060208501356001600160401b0381111562003cb657600080fd5b62003cc48782880162003a0f565b9598909750949560400135949350505050565b60008083601f84011262003cea57600080fd5b5081356001600160401b0381111562003d0257600080fd5b6020830191508360208260051b850101111562001e2057600080fd5b6000806000806000806060878903121562003d3857600080fd5b86356001600160401b038082111562003d5057600080fd5b62003d5e8a838b0162003cd7565b9098509650602089013591508082111562003d7857600080fd5b62003d868a838b0162003cd7565b9096509450604089013591508082111562003da057600080fd5b5062003daf89828a0162003cd7565b979a9699509497509295939492505050565b6000806020838503121562003dd557600080fd5b82356001600160401b0381111562003dec57600080fd5b62003dfa8582860162003cd7565b90969095509350505050565b6020808252825182820181905260009190848201906040850190845b81811015620038795783516001600160a01b03168352928401929184019160010162003e22565b600080600080600060a0868803121562003e6257600080fd5b8535945060208601356001600160401b038082111562003e8157600080fd5b62003e8f89838a0162003925565b9550604088013591508082111562003ea657600080fd5b5062003eb58882890162003925565b9598949750949560608101359550608001359392505050565b6001600160a01b038416815262003ee5836200375e565b82602082015260606040820152600062003679606083018462003797565b6000806040838503121562003f1757600080fd5b823562003f248162003809565b946020939093013593505050565b600181811c9082168062003f4757607f821691505b60208210810362003f6857634e487b7160e01b600052602260045260246000fd5b50919050565b634e487b7160e01b600052603260045260246000fd5b634e487b7160e01b600052601160045260246000fd5b8082018082111562000cc05762000cc062003f84565b60006001820162003fc55762003fc562003f84565b5060010190565b601f8211156200243d57600081815260208120601f850160051c8101602086101562003ff55750805b601f850160051c820191505b81811015620040165782815560010162004001565b505050505050565b81516001600160401b038111156200403a576200403a62003893565b62004052816200404b845462003f32565b8462003fcc565b602080601f8311600181146200408a5760008415620040715750858301515b600019600386901b1c1916600185901b17855562004016565b600085815260208120601f198616915b82811015620040bb578886015182559484019460019091019084016200409a565b5085821015620040da5787850151600019600388901b60f8161c191681555b5050505050600190811b01905550565b8381526001600160a01b0383166020820152606081016200410b836200375e565b826040830152949350505050565b6020808252602c908201527f46756e6374696f6e206d7573742062652063616c6c6564207468726f7567682060408201526b19195b1959d85d1958d85b1b60a21b606082015260800190565b6020808252602c908201527f46756e6374696f6e206d7573742062652063616c6c6564207468726f7567682060408201526b6163746976652070726f787960a01b606082015260800190565b60608101620041c0856200375e565b9381526001600160a01b0392909216602083015260409091015290565b600060208284031215620041f057600080fd5b5051919050565b8181038181111562000cc05762000cc062003f84565b808202811582820484141762000cc05762000cc062003f84565b6bffffffffffffffffffffffff198460601b168152818360148301376000910160140190815292915050565b8281526000602060008454620042698162003f32565b600182811680156200428457600181146200429e57620042d0565b60ff198416888701528215158302880186019450620042d0565b886000528560002060005b84811015620042c65781548a8201890152908301908701620042a9565b5050858389010194505b509298975050505050505050565b6000808335601e19843603018112620042f657600080fd5b8301803591506001600160401b038211156200431157600080fd5b60200191503681900382131562001e2057600080fd5b6001600160401b0383111562004341576200434162003893565b620043598362004352835462003f32565b8362003fcc565b6000601f841160018114620043905760008515620043775750838201355b600019600387901b1c1916600186901b178355620043ed565b600083815260209020601f19861690835b82811015620043c35786850135825560209485019460019092019101620043a1565b5086821015620043e15760001960f88860031b161c19848701351681555b505060018560011b0183555b5050505050565b828152600082516200440e81602085016020870162003771565b919091016020019392505050565b6000602082840312156200442f57600080fd5b8151620030148162003809565b85815260a0602082015260006200445760a083018762003797565b82810360408401526200446b818762003797565b60608401959095525050608001529392505050565b6020808252602b908201527f496e697469616c697a61626c653a20636f6e7472616374206973206e6f74206960408201526a6e697469616c697a696e6760a81b606082015260800190565b634e487b7160e01b600052603160045260246000fd5b60008251620044f581846020870162003771565b919091019291505056fe60806040526040516109003803806109008339810160408190526100229161045b565b61002e82826000610035565b5050610585565b61003e83610100565b6040516001600160a01b038416907f1cf3b03a6cf19fa2baba4df148e9dcabedea7f8a5c07840e207e5c089be95d3e90600090a260008251118061007f5750805b156100fb576100f9836001600160a01b0316635c60da1b6040518163ffffffff1660e01b8152600401602060405180830381865afa1580156100c5573d6000803e3d6000fd5b505050506040513d601f19601f820116820180604052508101906100e9919061051b565b836102a360201b6100291760201c565b505b505050565b610113816102cf60201b6100551760201c565b6101725760405162461bcd60e51b815260206004820152602560248201527f455243313936373a206e657720626561636f6e206973206e6f74206120636f6e6044820152641d1c9858dd60da1b60648201526084015b60405180910390fd5b6101e6816001600160a01b0316635c60da1b6040518163ffffffff1660e01b8152600401602060405180830381865afa1580156101b3573d6000803e3d6000fd5b505050506040513d601f19601f820116820180604052508101906101d7919061051b565b6102cf60201b6100551760201c565b61024b5760405162461bcd60e51b815260206004820152603060248201527f455243313936373a20626561636f6e20696d706c656d656e746174696f6e206960448201526f1cc81b9bdd08184818dbdb9d1c9858dd60821b6064820152608401610169565b806102827fa3f0ad74e5423aebfd80d3ef4346578335a9a72aeaee59ff6cb3582b35133d5060001b6102de60201b6100641760201c565b80546001600160a01b0319166001600160a01b039290921691909117905550565b60606102c883836040518060600160405280602781526020016108d9602791396102e1565b9392505050565b6001600160a01b03163b151590565b90565b6060600080856001600160a01b0316856040516102fe9190610536565b600060405180830381855af49150503d8060008114610339576040519150601f19603f3d011682016040523d82523d6000602084013e61033e565b606091505b5090925090506103508683838761035a565b9695505050505050565b606083156103c95782516000036103c2576001600160a01b0385163b6103c25760405162461bcd60e51b815260206004820152601d60248201527f416464726573733a2063616c6c20746f206e6f6e2d636f6e74726163740000006044820152606401610169565b50816103d3565b6103d383836103db565b949350505050565b8151156103eb5781518083602001fd5b8060405162461bcd60e51b81526004016101699190610552565b80516001600160a01b038116811461041c57600080fd5b919050565b634e487b7160e01b600052604160045260246000fd5b60005b8381101561045257818101518382015260200161043a565b50506000910152565b6000806040838503121561046e57600080fd5b61047783610405565b60208401519092506001600160401b038082111561049457600080fd5b818501915085601f8301126104a857600080fd5b8151818111156104ba576104ba610421565b604051601f8201601f19908116603f011681019083821181831017156104e2576104e2610421565b816040528281528860208487010111156104fb57600080fd5b61050c836020830160208801610437565b80955050505050509250929050565b60006020828403121561052d57600080fd5b6102c882610405565b60008251610548818460208701610437565b9190910192915050565b6020815260008251806020840152610571816040850160208701610437565b601f01601f19169190910160400192915050565b610345806105946000396000f3fe60806040523661001357610011610017565b005b6100115b610027610022610067565b610100565b565b606061004e83836040518060600160405280602781526020016102e960279139610124565b9392505050565b6001600160a01b03163b151590565b90565b600061009a7fa3f0ad74e5423aebfd80d3ef4346578335a9a72aeaee59ff6cb3582b35133d50546001600160a01b031690565b6001600160a01b0316635c60da1b6040518163ffffffff1660e01b8152600401602060405180830381865afa1580156100d7573d6000803e3d6000fd5b505050506040513d601f19601f820116820180604052508101906100fb919061024c565b905090565b3660008037600080366000845af43d6000803e80801561011f573d6000f35b3d6000fd5b6060600080856001600160a01b0316856040516101419190610299565b600060405180830381855af49150503d806000811461017c576040519150601f19603f3d011682016040523d82523d6000602084013e610181565b606091505b50915091506101928683838761019c565b9695505050505050565b60608315610210578251600003610209576001600160a01b0385163b6102095760405162461bcd60e51b815260206004820152601d60248201527f416464726573733a2063616c6c20746f206e6f6e2d636f6e747261637400000060448201526064015b60405180910390fd5b508161021a565b61021a8383610222565b949350505050565b8151156102325781518083602001fd5b8060405162461bcd60e51b815260040161020091906102b5565b60006020828403121561025e57600080fd5b81516001600160a01b038116811461004e57600080fd5b60005b83811015610290578181015183820152602001610278565b50506000910152565b600082516102ab818460208701610275565b9190910192915050565b60208152600082518060208401526102d4816040850160208701610275565b601f01601f1916919091016040019291505056fe416464726573733a206c6f772d6c6576656c2064656c65676174652063616c6c206661696c6564a264697066735822122022a6bf5ebbb7518c40e703958b5c8e4d70ca6715c1e1ccf9e9591bfc86e066d164736f6c63430008110033416464726573733a206c6f772d6c6576656c2064656c65676174652063616c6c206661696c6564360894a13ba1a3210667c828492db98dca3e2076cc3735a920a3ca505d382bbc416464726573733a206c6f772d6c6576656c2064656c65676174652063616c6c206661696c6564484152444341505f414e445f50524f544f434f4c5f4645455f4f564552464c4f575f52454d41494e494e475f535550504c59484152444341505f4f564552464c4f575f52454d41494e494e475f535550504c59a26469706673582212209a50e1a25d49c38165407020b755f77dbf765fb94645484e54b1ccbf83bd028964736f6c63430008110033",
  "linkReferences": {},
  "deployedLinkReferences": {}
}