{
  "_format": "hh-sol-artifact-1",
  "contractName": "Dispatcher",
  "sourceName": "contracts/Dispatcher.sol",
  "abi": [
    {
      "inputs": [],
      "stateMutability": "nonpayable",
      "type": "constructor"
    },
    {
      "anonymous": false,
      "inputs": [
        {
          "indexed": false,
          "internalType": "address",
          "name": "previousAdmin",
          "type": "address"
        },
        {
          "indexed": false,
          "internalType": "address",
          "name": "newAdmin",
          "type": "address"
        }
      ],
      "name": "AdminChanged",
      "type": "event"
    },
    {
      "anonymous": false,
      "inputs": [
        {
          "indexed": true,
          "internalType": "address",
          "name": "beacon",
          "type": "address"
        }
      ],
      "name": "BeaconUpgraded",
      "type": "event"
    },
    {
      "anonymous": false,
      "inputs": [
        {
          "indexed": false,
          "internalType": "uint256",
          "name": "index",
          "type": "uint256"
        },
        {
          "indexed": false,
          "internalType": "address",
          "name": "addr",
          "type": "address"
        },
        {
          "indexed": false,
          "internalType": "enum IDispatcher.ContractType",
          "name": "contractType",
          "type": "uint8"
        }
      ],
      "name": "ContractRecordAdded",
      "type": "event"
    },
    {
      "anonymous": false,
      "inputs": [
        {
          "indexed": false,
          "internalType": "enum IDispatcher.EventType",
          "name": "eventType",
          "type": "uint8"
        },
        {
          "indexed": false,
          "internalType": "address",
          "name": "pool",
          "type": "address"
        },
        {
          "indexed": false,
          "internalType": "uint256",
          "name": "proposalId",
          "type": "uint256"
        }
      ],
      "name": "EventRecordAdded",
      "type": "event"
    },
    {
      "anonymous": false,
      "inputs": [
        {
          "indexed": false,
          "internalType": "uint8",
          "name": "version",
          "type": "uint8"
        }
      ],
      "name": "Initialized",
      "type": "event"
    },
    {
      "anonymous": false,
      "inputs": [
        {
          "indexed": true,
          "internalType": "address",
          "name": "previousOwner",
          "type": "address"
        },
        {
          "indexed": true,
          "internalType": "address",
          "name": "newOwner",
          "type": "address"
        }
      ],
      "name": "OwnershipTransferred",
      "type": "event"
    },
    {
      "anonymous": false,
      "inputs": [
        {
          "indexed": false,
          "internalType": "uint256",
          "name": "index",
          "type": "uint256"
        },
        {
          "indexed": false,
          "internalType": "address",
          "name": "pool",
          "type": "address"
        },
        {
          "indexed": false,
          "internalType": "uint256",
          "name": "proposalId",
          "type": "uint256"
        }
      ],
      "name": "ProposalRecordAdded",
      "type": "event"
    },
    {
      "anonymous": false,
      "inputs": [
        {
          "indexed": true,
          "internalType": "address",
          "name": "implementation",
          "type": "address"
        }
      ],
      "name": "Upgraded",
      "type": "event"
    },
    {
      "inputs": [
        {
          "internalType": "address",
          "name": "addr",
          "type": "address"
        },
        {
          "internalType": "enum IDispatcher.ContractType",
          "name": "contractType",
          "type": "uint8"
        },
        {
          "internalType": "string",
          "name": "description",
          "type": "string"
        }
      ],
      "name": "addContractRecord",
      "outputs": [
        {
          "internalType": "uint256",
          "name": "index",
          "type": "uint256"
        }
      ],
      "stateMutability": "nonpayable",
      "type": "function"
    },
    {
      "inputs": [
        {
          "internalType": "address",
          "name": "pool",
          "type": "address"
        },
        {
          "internalType": "enum IDispatcher.EventType",
          "name": "eventType",
          "type": "uint8"
        },
        {
          "internalType": "uint256",
          "name": "proposalId",
          "type": "uint256"
        },
        {
          "internalType": "string",
          "name": "metaHash",
          "type": "string"
        }
      ],
      "name": "addEventRecord",
      "outputs": [
        {
          "internalType": "uint256",
          "name": "index",
          "type": "uint256"
        }
      ],
      "stateMutability": "nonpayable",
      "type": "function"
    },
    {
      "inputs": [
        {
          "internalType": "address",
          "name": "account",
          "type": "address"
        }
      ],
      "name": "addManagerToWhitelist",
      "outputs": [],
      "stateMutability": "nonpayable",
      "type": "function"
    },
    {
      "inputs": [
        {
          "internalType": "address",
          "name": "pool",
          "type": "address"
        },
        {
          "internalType": "uint256",
          "name": "proposalId",
          "type": "uint256"
        }
      ],
      "name": "addProposalRecord",
      "outputs": [
        {
          "internalType": "uint256",
          "name": "index",
          "type": "uint256"
        }
      ],
      "stateMutability": "nonpayable",
      "type": "function"
    },
    {
      "inputs": [
        {
          "internalType": "address[]",
          "name": "tokens",
          "type": "address[]"
        },
        {
          "internalType": "bytes[]",
          "name": "swapPaths",
          "type": "bytes[]"
        },
        {
          "internalType": "bytes[]",
          "name": "swapReversePaths",
          "type": "bytes[]"
        }
      ],
      "name": "addTokensToWhitelist",
      "outputs": [],
      "stateMutability": "nonpayable",
      "type": "function"
    },
    {
      "inputs": [],
      "name": "allJursdictions",
      "outputs": [
        {
          "internalType": "uint256[]",
          "name": "",
          "type": "uint256[]"
        }
      ],
      "stateMutability": "view",
      "type": "function"
    },
    {
      "inputs": [
        {
          "internalType": "uint256",
          "name": "jurisdiction",
          "type": "uint256"
        }
      ],
      "name": "availableCompaniesCount",
      "outputs": [
        {
          "internalType": "uint256",
          "name": "",
          "type": "uint256"
        }
      ],
      "stateMutability": "view",
      "type": "function"
    },
    {
      "inputs": [],
      "name": "availableJurisdictions",
      "outputs": [
        {
          "internalType": "uint256[]",
          "name": "",
          "type": "uint256[]"
        }
      ],
      "stateMutability": "view",
      "type": "function"
    },
    {
      "inputs": [
        {
          "internalType": "uint256",
          "name": "",
          "type": "uint256"
        }
      ],
      "name": "contractRecordAt",
      "outputs": [
        {
          "internalType": "address",
          "name": "addr",
          "type": "address"
        },
        {
          "internalType": "enum IDispatcher.ContractType",
          "name": "contractType",
          "type": "uint8"
        },
        {
          "internalType": "string",
          "name": "description",
          "type": "string"
        }
      ],
      "stateMutability": "view",
      "type": "function"
    },
    {
      "inputs": [
        {
          "internalType": "uint256",
          "name": "jurisdiction",
          "type": "uint256"
        },
        {
          "internalType": "string",
          "name": "EIN",
          "type": "string"
        },
        {
          "internalType": "string",
          "name": "dateOfIncorporation",
          "type": "string"
        },
        {
          "internalType": "uint256",
          "name": "entityType",
          "type": "uint256"
        },
        {
          "internalType": "uint256",
          "name": "fee",
          "type": "uint256"
        }
      ],
      "name": "createRecord",
      "outputs": [],
      "stateMutability": "nonpayable",
      "type": "function"
    },
    {
      "inputs": [],
      "name": "currentId",
      "outputs": [
        {
          "internalType": "uint256",
          "name": "",
          "type": "uint256"
        }
      ],
      "stateMutability": "view",
      "type": "function"
    },
    {
      "inputs": [
        {
          "internalType": "uint256",
          "name": "id",
          "type": "uint256"
        }
      ],
      "name": "deleteRecord",
      "outputs": [],
      "stateMutability": "nonpayable",
      "type": "function"
    },
    {
      "inputs": [
        {
          "internalType": "uint256",
          "name": "",
          "type": "uint256"
        }
      ],
      "name": "events",
      "outputs": [
        {
          "internalType": "enum IDispatcher.EventType",
          "name": "eventType",
          "type": "uint8"
        },
        {
          "internalType": "address",
          "name": "pool",
          "type": "address"
        },
        {
          "internalType": "uint256",
          "name": "proposalId",
          "type": "uint256"
        },
        {
          "internalType": "string",
          "name": "metaHash",
          "type": "string"
        }
      ],
      "stateMutability": "view",
      "type": "function"
    },
    {
      "inputs": [
        {
          "internalType": "uint256",
          "name": "jurisdiction",
          "type": "uint256"
        }
      ],
      "name": "existingCompanies",
      "outputs": [
        {
          "internalType": "uint256[]",
          "name": "",
          "type": "uint256[]"
        }
      ],
      "stateMutability": "view",
      "type": "function"
    },
    {
      "inputs": [
        {
          "internalType": "address",
          "name": "tge",
          "type": "address"
        }
      ],
      "name": "getContractDescription",
      "outputs": [
        {
          "internalType": "string",
          "name": "",
          "type": "string"
        }
      ],
      "stateMutability": "view",
      "type": "function"
    },
    {
      "inputs": [
        {
          "internalType": "address",
          "name": "pool",
          "type": "address"
        },
        {
          "internalType": "uint256",
          "name": "proposalId",
          "type": "uint256"
        }
      ],
      "name": "getGlobalProposalId",
      "outputs": [
        {
          "internalType": "uint256",
          "name": "",
          "type": "uint256"
        }
      ],
      "stateMutability": "view",
      "type": "function"
    },
    {
      "inputs": [
        {
          "internalType": "address",
          "name": "",
          "type": "address"
        }
      ],
      "name": "indexOfContract",
      "outputs": [
        {
          "internalType": "uint256",
          "name": "",
          "type": "uint256"
        }
      ],
      "stateMutability": "view",
      "type": "function"
    },
    {
      "inputs": [],
      "name": "initialize",
      "outputs": [],
      "stateMutability": "nonpayable",
      "type": "function"
    },
    {
      "inputs": [
        {
          "internalType": "address",
          "name": "account",
          "type": "address"
        }
      ],
      "name": "isManagerWhitelisted",
      "outputs": [
        {
          "internalType": "bool",
          "name": "",
          "type": "bool"
        }
      ],
      "stateMutability": "view",
      "type": "function"
    },
    {
      "inputs": [
        {
          "internalType": "address",
          "name": "token",
          "type": "address"
        }
      ],
      "name": "isTokenWhitelisted",
      "outputs": [
        {
          "internalType": "bool",
          "name": "",
          "type": "bool"
        }
      ],
      "stateMutability": "view",
      "type": "function"
    },
    {
      "inputs": [],
      "name": "lastContractRecordIndex",
      "outputs": [
        {
          "internalType": "uint256",
          "name": "",
          "type": "uint256"
        }
      ],
      "stateMutability": "view",
      "type": "function"
    },
    {
      "inputs": [],
      "name": "lastEventIndex",
      "outputs": [
        {
          "internalType": "uint256",
          "name": "",
          "type": "uint256"
        }
      ],
      "stateMutability": "view",
      "type": "function"
    },
    {
      "inputs": [],
      "name": "lastProposalRecordIndex",
      "outputs": [
        {
          "internalType": "uint256",
          "name": "",
          "type": "uint256"
        }
      ],
      "stateMutability": "view",
      "type": "function"
    },
    {
      "inputs": [
        {
          "internalType": "uint256",
          "name": "jurisdiction",
          "type": "uint256"
        },
        {
          "internalType": "uint256",
          "name": "entityType",
          "type": "uint256"
        }
      ],
      "name": "lockRecord",
      "outputs": [
        {
          "internalType": "address",
          "name": "",
          "type": "address"
        },
        {
          "internalType": "uint256",
          "name": "",
          "type": "uint256"
        }
      ],
      "stateMutability": "nonpayable",
      "type": "function"
    },
    {
      "inputs": [],
      "name": "owner",
      "outputs": [
        {
          "internalType": "address",
          "name": "",
          "type": "address"
        }
      ],
      "stateMutability": "view",
      "type": "function"
    },
    {
      "inputs": [
        {
          "internalType": "uint256",
          "name": "jurisdiction",
          "type": "uint256"
        },
        {
          "internalType": "uint256",
          "name": "entityType",
          "type": "uint256"
        }
      ],
      "name": "poolAvailable",
      "outputs": [
        {
          "internalType": "uint256",
          "name": "",
          "type": "uint256"
        },
        {
          "internalType": "uint256",
          "name": "",
          "type": "uint256"
        }
      ],
      "stateMutability": "view",
      "type": "function"
    },
    {
      "inputs": [
        {
          "internalType": "uint256",
          "name": "",
          "type": "uint256"
        }
      ],
      "name": "proposalRecordAt",
      "outputs": [
        {
          "internalType": "address",
          "name": "pool",
          "type": "address"
        },
        {
          "internalType": "uint256",
          "name": "proposalId",
          "type": "uint256"
        },
        {
          "internalType": "string",
          "name": "description",
          "type": "string"
        }
      ],
      "stateMutability": "view",
      "type": "function"
    },
    {
      "inputs": [],
      "name": "proxiableUUID",
      "outputs": [
        {
          "internalType": "bytes32",
          "name": "",
          "type": "bytes32"
        }
      ],
      "stateMutability": "view",
      "type": "function"
    },
    {
      "inputs": [
        {
          "internalType": "uint256",
          "name": "",
          "type": "uint256"
        }
      ],
      "name": "queueInfo",
      "outputs": [
        {
          "internalType": "uint256",
          "name": "jurisdiction",
          "type": "uint256"
        },
        {
          "internalType": "string",
          "name": "EIN",
          "type": "string"
        },
        {
          "internalType": "string",
          "name": "dateOfIncorporation",
          "type": "string"
        },
        {
          "internalType": "uint256",
          "name": "entityType",
          "type": "uint256"
        },
        {
          "internalType": "enum IDispatcher.Status",
          "name": "status",
          "type": "uint8"
        },
        {
          "internalType": "address",
          "name": "pool",
          "type": "address"
        },
        {
          "internalType": "uint256",
          "name": "fee",
          "type": "uint256"
        }
      ],
      "stateMutability": "view",
      "type": "function"
    },
    {
      "inputs": [
        {
          "internalType": "address",
          "name": "account",
          "type": "address"
        }
      ],
      "name": "removeManagerFromWhitelist",
      "outputs": [],
      "stateMutability": "nonpayable",
      "type": "function"
    },
    {
      "inputs": [
        {
          "internalType": "address[]",
          "name": "tokens",
          "type": "address[]"
        }
      ],
      "name": "removeTokensFromWhitelist",
      "outputs": [],
      "stateMutability": "nonpayable",
      "type": "function"
    },
    {
      "inputs": [],
      "name": "renounceOwnership",
      "outputs": [],
      "stateMutability": "nonpayable",
      "type": "function"
    },
    {
      "inputs": [],
      "name": "service",
      "outputs": [
        {
          "internalType": "address",
          "name": "",
          "type": "address"
        }
      ],
      "stateMutability": "view",
      "type": "function"
    },
    {
      "inputs": [
        {
          "internalType": "address",
          "name": "service_",
          "type": "address"
        }
      ],
      "name": "setService",
      "outputs": [],
      "stateMutability": "nonpayable",
      "type": "function"
    },
    {
      "inputs": [
        {
          "internalType": "address",
          "name": "",
          "type": "address"
        }
      ],
      "name": "tokenSwapPath",
      "outputs": [
        {
          "internalType": "bytes",
          "name": "",
          "type": "bytes"
        }
      ],
      "stateMutability": "view",
      "type": "function"
    },
    {
      "inputs": [
        {
          "internalType": "address",
          "name": "",
          "type": "address"
        }
      ],
      "name": "tokenSwapReversePath",
      "outputs": [
        {
          "internalType": "bytes",
          "name": "",
          "type": "bytes"
        }
      ],
      "stateMutability": "view",
      "type": "function"
    },
    {
      "inputs": [],
      "name": "tokenWhitelist",
      "outputs": [
        {
          "internalType": "address[]",
          "name": "",
          "type": "address[]"
        }
      ],
      "stateMutability": "view",
      "type": "function"
    },
    {
      "inputs": [
        {
          "internalType": "address",
          "name": "newOwner",
          "type": "address"
        }
      ],
      "name": "transferOwnership",
      "outputs": [],
      "stateMutability": "nonpayable",
      "type": "function"
    },
    {
      "inputs": [
        {
          "internalType": "address",
          "name": "addr",
          "type": "address"
        }
      ],
      "name": "typeOf",
      "outputs": [
        {
          "internalType": "enum IDispatcher.ContractType",
          "name": "",
          "type": "uint8"
        }
      ],
      "stateMutability": "view",
      "type": "function"
    },
    {
      "inputs": [
        {
          "internalType": "uint256",
          "name": "id",
          "type": "uint256"
        },
        {
          "internalType": "uint256",
          "name": "fee",
          "type": "uint256"
        }
      ],
      "name": "updateFeeByIndex",
      "outputs": [],
      "stateMutability": "nonpayable",
      "type": "function"
    },
    {
      "inputs": [
        {
          "internalType": "address",
          "name": "jurisdiction",
          "type": "address"
        },
        {
          "internalType": "string",
          "name": "EIN",
          "type": "string"
        },
        {
          "internalType": "uint256",
          "name": "fee",
          "type": "uint256"
        }
      ],
      "name": "updateFeeByJE",
      "outputs": [],
      "stateMutability": "nonpayable",
      "type": "function"
    },
    {
      "inputs": [
        {
          "internalType": "address",
          "name": "poolToUpdate",
          "type": "address"
        },
        {
          "internalType": "uint256",
          "name": "fee",
          "type": "uint256"
        }
      ],
      "name": "updateFeeByPool",
      "outputs": [],
      "stateMutability": "nonpayable",
      "type": "function"
    },
    {
      "inputs": [
        {
          "internalType": "address",
          "name": "newImplementation",
          "type": "address"
        }
      ],
      "name": "upgradeTo",
      "outputs": [],
      "stateMutability": "nonpayable",
      "type": "function"
    },
    {
      "inputs": [
        {
          "internalType": "address",
          "name": "newImplementation",
          "type": "address"
        },
        {
          "internalType": "bytes",
          "name": "data",
          "type": "bytes"
        }
      ],
      "name": "upgradeToAndCall",
      "outputs": [],
      "stateMutability": "payable",
      "type": "function"
    },
    {
      "inputs": [
        {
          "internalType": "uint256",
          "name": "ballotQuorumThreshold",
          "type": "uint256"
        },
        {
          "internalType": "uint256",
          "name": "ballotDecisionThreshold",
          "type": "uint256"
        },
        {
          "internalType": "uint256",
          "name": "ballotLifespan",
          "type": "uint256"
        },
        {
          "internalType": "uint256[10]",
          "name": "ballotExecDelay",
          "type": "uint256[10]"
        }
      ],
      "name": "validateBallotParams",
      "outputs": [
        {
          "internalType": "bool",
          "name": "",
          "type": "bool"
        }
      ],
      "stateMutability": "pure",
      "type": "function"
    },
    {
      "inputs": [
        {
          "components": [
            {
              "internalType": "uint256",
              "name": "price",
              "type": "uint256"
            },
            {
              "internalType": "uint256",
              "name": "hardcap",
              "type": "uint256"
            },
            {
              "internalType": "uint256",
              "name": "softcap",
              "type": "uint256"
            },
            {
              "internalType": "uint256",
              "name": "minPurchase",
              "type": "uint256"
            },
            {
              "internalType": "uint256",
              "name": "maxPurchase",
              "type": "uint256"
            },
            {
              "internalType": "uint256",
              "name": "vestingPercent",
              "type": "uint256"
            },
            {
              "internalType": "uint256",
              "name": "vestingDuration",
              "type": "uint256"
            },
            {
              "internalType": "uint256",
              "name": "vestingTVL",
              "type": "uint256"
            },
            {
              "internalType": "uint256",
              "name": "duration",
              "type": "uint256"
            },
            {
              "internalType": "address[]",
              "name": "userWhitelist",
              "type": "address[]"
            },
            {
              "internalType": "address",
              "name": "unitOfAccount",
              "type": "address"
            },
            {
              "internalType": "uint256",
              "name": "lockupDuration",
              "type": "uint256"
            },
            {
              "internalType": "uint256",
              "name": "lockupTVL",
              "type": "uint256"
            }
          ],
          "internalType": "struct ITGE.TGEInfo",
          "name": "info",
          "type": "tuple"
        },
        {
          "internalType": "enum IToken.TokenType",
          "name": "tokenType",
          "type": "uint8"
        },
        {
          "internalType": "uint256",
          "name": "cap",
          "type": "uint256"
        },
        {
          "internalType": "uint256",
          "name": "totalSupply",
          "type": "uint256"
        }
      ],
      "name": "validateTGEInfo",
      "outputs": [
        {
          "internalType": "bool",
          "name": "",
          "type": "bool"
        }
      ],
      "stateMutability": "view",
      "type": "function"
    }
  ],
  "bytecode": "0x60a0604052306080523480156200001557600080fd5b506200002062000026565b620000e8565b600054610100900460ff1615620000935760405162461bcd60e51b815260206004820152602760248201527f496e697469616c697a61626c653a20636f6e747261637420697320696e697469604482015266616c697a696e6760c81b606482015260840160405180910390fd5b60005460ff9081161015620000e6576000805460ff191660ff9081179091556040519081527f7f26b83ff96e1f2b6a682f133852f6798a09c465da95921460cefb38474024989060200160405180910390a15b565b608051614f1a620001206000396000818161109a015281816110dd015281816118e6015281816119290152611bd10152614f1a6000f3fe608060405260043610620002b35760003560e01c80637e89ed27116200016b578063c51eba6411620000d1578063e64b2afa1162000084578063e64b2afa1462000909578063e863325c146200092e578063eaa2e8891462000964578063ef086e6e1462000989578063f2fde38b14620009ae578063f4be936914620009d357600080fd5b8063c51eba641462000823578063ca735cc11462000848578063cbd2561d146200086f578063cc9bde0314620008aa578063d598d4c914620008cf578063e00dd16114620008f157600080fd5b8063986f557d116200012a578063986f557d1462000745578063a7ca279f146200076a578063b36bb0e3146200078f578063b5af090f14620007b4578063b8d57ada14620007d9578063bf8bdac114620007fe57600080fd5b80637e89ed2714620006665780638129fc1c14620006ab578063867c5ce414620006c35780638da5cb5b14620006db5780638f78131d146200070f57600080fd5b806341a453e1116200021d57806352211b4611620001d057806352211b46146200055257806352d1902d146200058c57806363d08dff14620005a45780636dcb0cf814620005c9578063715018a61462000629578063770fae42146200064157600080fd5b806341a453e1146200048f57806346179c5814620004b45780634c37d16714620004d95780634dcbe29c14620004fe5780634f1ef286146200051657806350eb1c43146200052d57600080fd5b80631f8b400511620002765780631f8b400514620003bc578063200b0ba314620003e157806324dbc7dc146200040657806327a035de146200041e5780633659cfe61462000436578063390bf99f146200045b57600080fd5b8063061f981114620002b85780630b79143014620002df578063121f661c146200031f5780631a84bcac146200035f5780631e101a3d1462000386575b600080fd5b348015620002c557600080fd5b50620002dd620002d736600462003779565b620009f8565b005b348015620002ec57600080fd5b5062000304620002fe36600462003779565b62000b1e565b60405162000316949392919062003810565b60405180910390f35b3480156200032c57600080fd5b50620003506200033e3660046200386a565b60cc6020526000908152604090205481565b60405190815260200162000316565b3480156200036c57600080fd5b506200037762000be4565b6040516200031691906200388a565b3480156200039357600080fd5b50620003ab620003a53660046200386a565b62000cfc565b604051901515815260200162000316565b348015620003c957600080fd5b5062000350620003db36600462003993565b62000d11565b348015620003ee57600080fd5b50620003776200040036600462003779565b62000e8d565b3480156200041357600080fd5b506200035060d05481565b3480156200042b57600080fd5b506200037762000f4f565b3480156200044357600080fd5b50620002dd620004553660046200386a565b62001090565b3480156200046857600080fd5b50620004806200047a3660046200386a565b6200117b565b604051620003169190620039fc565b3480156200049c57600080fd5b50620003ab620004ae36600462003a11565b62001286565b348015620004c157600080fd5b5062000350620004d336600462003a9e565b620013d2565b348015620004e657600080fd5b50620003ab620004f836600462003b18565b62001577565b3480156200050b57600080fd5b506200035060ce5481565b620002dd6200052736600462003b84565b620018dc565b3480156200053a57600080fd5b50620004806200054c3660046200386a565b620019b8565b3480156200055f57600080fd5b50620005776200057136600462003779565b62001a5a565b60405162000316979695949392919062003bee565b3480156200059957600080fd5b506200035062001bc4565b348015620005b157600080fd5b5062000480620005c33660046200386a565b62001c7a565b348015620005d657600080fd5b506200061a620005e83660046200386a565b6001600160a01b0316600090815260cc6020908152604080832054835260ca909152902054600160a01b900460ff1690565b60405162000316919062003c60565b3480156200063657600080fd5b50620002dd62001c95565b3480156200064e57600080fd5b50620002dd6200066036600462003c75565b62001cad565b3480156200067357600080fd5b506200068b6200068536600462003c75565b62001d3e565b604080516001600160a01b03909316835260208301919091520162000316565b348015620006b857600080fd5b50620002dd62001e72565b348015620006d057600080fd5b506200035060cb5481565b348015620006e857600080fd5b506033546001600160a01b03165b6040516001600160a01b03909116815260200162000316565b3480156200071c57600080fd5b50620007346200072e36600462003779565b62001f9a565b604051620003169392919062003c98565b3480156200075257600080fd5b50620002dd6200076436600462003cc1565b62002057565b3480156200077757600080fd5b50620002dd6200078936600462003d69565b620021be565b3480156200079c57600080fd5b50620002dd620007ae36600462003e0c565b620023d2565b348015620007c157600080fd5b50620003ab620007d33660046200386a565b6200248d565b348015620007e657600080fd5b50620002dd620007f83660046200386a565b6200249c565b3480156200080b57600080fd5b50620002dd6200081d3660046200386a565b62002500565b3480156200083057600080fd5b50620003506200084236600462003779565b6200257a565b3480156200085557600080fd5b506200086062002600565b60405162000316919062003e51565b3480156200087c57600080fd5b50620008946200088e36600462003c75565b62002613565b6040805192835260208301919091520162000316565b348015620008b757600080fd5b50620002dd620008c936600462003e94565b62002706565b348015620008dc57600080fd5b5060c954620006f6906001600160a01b031681565b348015620008fe57600080fd5b506200035060d15481565b3480156200091657600080fd5b50620002dd620009283660046200386a565b62002c11565b3480156200093b57600080fd5b50620009536200094d36600462003779565b62002c79565b604051620003169392919062003f19565b3480156200097157600080fd5b50620003506200098336600462003f4e565b62002cb3565b3480156200099657600080fd5b50620002dd620009a836600462003f4e565b62002d2c565b348015620009bb57600080fd5b50620002dd620009cd3660046200386a565b62002e3d565b348015620009e057600080fd5b5062000350620009f236600462003f4e565b62002eb9565b62000a033362000cfc565b6040518060400160405280600f81526020016e1393d517d5d2125511531254d51151608a1b8152509062000a555760405162461bcd60e51b815260040162000a4c9190620039fc565b60405180910390fd5b50600081815260d2602052604081206004015460ff16600181111562000a7f5762000a7f62003793565b146040518060400160405280600d81526020016c5245434f52445f494e5f55534560981b8152509062000ac75760405162461bcd60e51b815260040162000a4c9190620039fc565b50600081815260d2602052604081208181559062000ae9600183018262003711565b62000af960028301600062003711565b506000600382018190556004820180546001600160a81b031916905560059091015550565b60cf6020526000908152604090208054600182015460028301805460ff8416946101009094046001600160a01b031693919062000b5b9062003f7d565b80601f016020809104026020016040519081016040528092919081815260200182805462000b899062003f7d565b801562000bda5780601f1062000bae5761010080835404028352916020019162000bda565b820191906000526020600020905b81548152906001019060200180831162000bbc57829003601f168201915b5050505050905084565b6060600060d1546001600160401b0381111562000c055762000c05620038de565b60405190808252806020026020018201604052801562000c2f578160200160208202803683370190505b509050600060015b60d154811162000cf457600081815260d26020526040812054905b845181101562000cdc5784818151811062000c715762000c7162003fb9565b602002602001015182031562000cdc57845162000c9082600162003fe5565b0362000cc7578185858151811062000cac5762000cac62003fb9565b602090810291909101015262000cc460018562003fe5565b93505b8062000cd38162003ffb565b91505062000c52565b5050808062000ceb9062003ffb565b91505062000c37565b509092915050565b600062000d0b60d78362002fe5565b92915050565b60c95460408051808201909152600b81526a4e4f545f5345525649434560a81b60208201526000916001600160a01b0316331462000d645760405162461bcd60e51b815260040162000a4c9190620039fc565b5060cb6000815462000d769062003ffb565b91905081905590506040518060600160405280856001600160a01b0316815260200184600481111562000dad5762000dad62003793565b81526020908101849052600083815260ca825260409020825181546001600160a01b039091166001600160a01b031982168117835592840151919283916001600160a81b03191617600160a01b83600481111562000e0f5762000e0f62003793565b02179055506040820151600182019062000e2a908262004069565b5050506001600160a01b038416600090815260cc602052604090819020829055517f30ae76c641f7b77628da0dd91b34591e5b1dc7422220e5eb1080af2adfa142ef9062000e7e9083908790879062004135565b60405180910390a19392505050565b6060600060d1546001600160401b0381111562000eae5762000eae620038de565b60405190808252806020026020018201604052801562000ed8578160200160208202803683370190505b509050600060015b60d154811162000f4657600081815260d26020526040902054850362000f31578083838151811062000f165762000f1662003fb9565b602090810291909101015262000f2e60018362003fe5565b91505b8062000f3d8162003ffb565b91505062000ee0565b50909392505050565b6060600060d1546001600160401b0381111562000f705762000f70620038de565b60405190808252806020026020018201604052801562000f9a578160200160208202803683370190505b509050600060015b60d154811162000cf4576001600082815260d2602052604090206004015460ff16600181111562000fd75762000fd762003793565b146200107b57600081815260d26020526040812054905b845181101562001078578481815181106200100d576200100d62003fb9565b6020026020010151820315620010785784516200102c82600162003fe5565b0362001063578185858151811062001048576200104862003fb9565b60209081029190910101526200106060018562003fe5565b93505b806200106f8162003ffb565b91505062000fee565b50505b80620010878162003ffb565b91505062000fa2565b6001600160a01b037f0000000000000000000000000000000000000000000000000000000000000000163003620010db5760405162461bcd60e51b815260040162000a4c9062004164565b7f00000000000000000000000000000000000000000000000000000000000000006001600160a01b03166200112660008051602062004e4b833981519152546001600160a01b031690565b6001600160a01b0316146200114f5760405162461bcd60e51b815260040162000a4c90620041b0565b6200115a816200300a565b60408051600080825260208201909252620011789183919062003014565b50565b60cb5460609060015b8181116200126f57600081815260ca60205260409020546001600160a01b03908116908516036200125a57600081815260ca602052604090206001018054620011cd9062003f7d565b80601f0160208091040260200160405190810160405280929190818152602001828054620011fb9062003f7d565b80156200124c5780601f1062001220576101008083540402835291602001916200124c565b820191906000526020600020905b8154815290600101906020018083116200122e57829003601f168201915b505050505092505050919050565b80620012668162003ffb565b91505062001184565b505060408051602081019091526000815292915050565b60006127108511156040518060400160405280600d81526020016c494e56414c49445f56414c554560981b81525090620012d55760405162461bcd60e51b815260040162000a4c9190620039fc565b5060408051808201909152600d81526c494e56414c49445f56414c554560981b6020820152612710851115620013205760405162461bcd60e51b815260040162000a4c9190620039fc565b5060408051808201909152600d81526c494e56414c49445f56414c554560981b602082015283620013665760405162461bcd60e51b815260040162000a4c9190620039fc565b506020820135158015906200137f575060146020830135105b6040518060400160405280600d81526020016c494e56414c49445f56414c554560981b81525090620013c65760405162461bcd60e51b815260040162000a4c9190620039fc565b50600195945050505050565b60c95460408051808201909152600b81526a4e4f545f5345525649434560a81b60208201526000916001600160a01b03163314620014255760405162461bcd60e51b815260040162000a4c9190620039fc565b5060d060008154620014379062003ffb565b919050819055905060405180608001604052808660048111156200145f576200145f62003793565b8152602001876001600160a01b0316815260200185815260200184848080601f016020809104026020016040519081016040528093929190818152602001838380828437600092018290525093909452505083815260cf602052604090208251815491925090829060ff19166001836004811115620014e257620014e262003793565b0217905550602082015181546001600160a01b0390911661010002610100600160a81b031990911617815560408201516001820155606082015160028201906200152d908262004069565b509050507fbf77faf7ee014713665eccb0c0dfb80c62f931e839792d57c63844ea7c4ad7328587866040516200156693929190620041fc565b60405180910390a195945050505050565b6000806200158e610160870161014088016200386a565b6001600160a01b03161462001661576000620015b3610160870161014088016200386a565b6001600160a01b03166318160ddd6040518163ffffffff1660e01b8152600401602060405180830381865afa158015620015f1573d6000803e3d6000fd5b505050506040513d601f19601f8201168201806040525081019062001617919062004228565b116040518060400160405280600d81526020016c24a72b20a624a22faa27a5a2a760991b815250906200165f5760405162461bcd60e51b815260040162000a4c9190620039fc565b505b60c960009054906101000a90046001600160a01b03166001600160a01b031663e76829286040518163ffffffff1660e01b8152600401602060405180830381865afa158015620016b5573d6000803e3d6000fd5b505050506040513d601f19601f82011682018060405250810190620016db919062004228565b856020013510156040518060400160405280600f81526020016e0494e56414c49445f4841524443415608c1b815250906200172b5760405162461bcd60e51b815260040162000a4c9190620039fc565b50600184600281111562001743576200174362003793565b036200186057600062001757838562004242565b9050808660200135111560405180606001604052806021815260200162004ec460219139906200179c5760405162461bcd60e51b815260040162000a4c9190620039fc565b5060c954604051639d838ad360e01b81526020880135600482015282916001600160a01b031690639d838ad390602401602060405180830381865afa158015620017ea573d6000803e3d6000fd5b505050506040513d601f19601f8201168201806040525081019062001810919062004228565b6200182090602089013562003fe5565b111560405180606001604052806032815260200162004e9260329139906200185d5760405162461bcd60e51b815260040162000a4c9190620039fc565b50505b6103e88560600135101580156200137f5750670de0b6b3a76400006200188c6060870135873562004258565b1015806200137f575060408051808201909152600d81526c494e56414c49445f56414c554560981b6020820152853515620013c65760405162461bcd60e51b815260040162000a4c9190620039fc565b6001600160a01b037f0000000000000000000000000000000000000000000000000000000000000000163003620019275760405162461bcd60e51b815260040162000a4c9062004164565b7f00000000000000000000000000000000000000000000000000000000000000006001600160a01b03166200197260008051602062004e4b833981519152546001600160a01b031690565b6001600160a01b0316146200199b5760405162461bcd60e51b815260040162000a4c90620041b0565b620019a6826200300a565b620019b48282600162003014565b5050565b60d56020526000908152604090208054620019d39062003f7d565b80601f016020809104026020016040519081016040528092919081815260200182805462001a019062003f7d565b801562001a525780601f1062001a265761010080835404028352916020019162001a52565b820191906000526020600020905b81548152906001019060200180831162001a3457829003601f168201915b505050505081565b60d2602052600090815260409020805460018201805491929162001a7e9062003f7d565b80601f016020809104026020016040519081016040528092919081815260200182805462001aac9062003f7d565b801562001afd5780601f1062001ad15761010080835404028352916020019162001afd565b820191906000526020600020905b81548152906001019060200180831162001adf57829003601f168201915b50505050509080600201805462001b149062003f7d565b80601f016020809104026020016040519081016040528092919081815260200182805462001b429062003f7d565b801562001b935780601f1062001b675761010080835404028352916020019162001b93565b820191906000526020600020905b81548152906001019060200180831162001b7557829003601f168201915b50505050600383015460048401546005909401549293909260ff821692506101009091046001600160a01b03169087565b6000306001600160a01b037f0000000000000000000000000000000000000000000000000000000000000000161462001c665760405162461bcd60e51b815260206004820152603860248201527f555550535570677261646561626c653a206d757374206e6f742062652063616c60448201527f6c6564207468726f7567682064656c656761746563616c6c0000000000000000606482015260840162000a4c565b5060008051602062004e4b83398151915290565b60d66020526000908152604090208054620019d39062003f7d565b62001c9f6200318c565b62001cab6000620031e8565b565b62001cb76200318c565b600082815260d2602052604081206004015460ff16600181111562001ce05762001ce062003793565b146040518060400160405280600d81526020016c5245434f52445f494e5f55534560981b8152509062001d285760405162461bcd60e51b815260040162000a4c9190620039fc565b50600091825260d2602052604090912060050155565b60c95460408051808201909152600b81526a4e4f545f5345525649434560a81b60208201526000918291906001600160a01b0316331462001d945760405162461bcd60e51b815260040162000a4c9190620039fc565b5060d15460015b81811162001e6157600081815260d260205260409020548614801562001dd15750600081815260d2602052604090206003015485145b801562001e045750600081815260d2602052604081206004015460ff16600181111562001e025762001e0262003793565b145b1562001e4c57600090815260d260205260409020600481018054600160ff1990911617908190556005909101546101009091046001600160a01b03169350915062001e6b9050565b8062001e588162003ffb565b91505062001d9b565b5060008092509250505b9250929050565b600054610100900460ff161580801562001e935750600054600160ff909116105b8062001eaf5750303b15801562001eaf575060005460ff166001145b62001f145760405162461bcd60e51b815260206004820152602e60248201527f496e697469616c697a61626c653a20636f6e747261637420697320616c72656160448201526d191e481a5b9a5d1a585b1a5e995960921b606482015260840162000a4c565b6000805460ff19166001179055801562001f38576000805461ff0019166101001790555b62001f426200323a565b62001f4c6200326e565b600060d155801562001178576000805461ff0019169055604051600181527f7f26b83ff96e1f2b6a682f133852f6798a09c465da95921460cefb38474024989060200160405180910390a150565b60cd602052600090815260409020805460018201546002830180546001600160a01b0390931693919262001fce9062003f7d565b80601f016020809104026020016040519081016040528092919081815260200182805462001ffc9062003f7d565b80156200204d5780601f1062002021576101008083540402835291602001916200204d565b820191906000526020600020905b8154815290600101906020018083116200202f57829003601f168201915b5050505050905083565b620020616200318c565b600060d160008154620020749062003ffb565b9190508190559050600080868686604051602001620020969392919062004272565b60408051601f198184030181529190528051602090910120905060015b838110156200215e57600081815260d26020908152604080832080549151620020e393600190920191016200429e565b60408051601f19818403018152919052805160209091012090506001600083815260d2602052604090206004015460ff16600181111562002128576200212862003793565b0362002135575062002149565b8083036200214757819350506200215e565b505b80620021558162003ffb565b915050620020b3565b5060408051808201909152600a8152694e4f5f434f4d50414e5960b01b602082015282620021a15760405162461bcd60e51b815260040162000a4c9190620039fc565b5050600090815260d2602052604090206005019190915550505050565b620021c86200318c565b8483148015620021d757508481145b6040518060400160405280600d81526020016c494e56414c49445f56414c554560981b815250906200221e5760405162461bcd60e51b815260040162000a4c9190620039fc565b5060005b85811015620023c9576200226487878381811062002244576200224462003fb9565b90506020020160208101906200225b91906200386a565b60d39062003298565b604051806040016040528060138152602001721053149150511657d5d2125511531254d51151606a1b81525090620022b15760405162461bcd60e51b815260040162000a4c9190620039fc565b50848482818110620022c757620022c762003fb9565b9050602002810190620022db919062004329565b60d560008a8a86818110620022f457620022f462003fb9565b90506020020160208101906200230b91906200386a565b6001600160a01b031681526020810191909152604001600020916200233291908362004372565b5082828281811062002348576200234862003fb9565b90506020028101906200235c919062004329565b60d660008a8a8681811062002375576200237562003fb9565b90506020020160208101906200238c91906200386a565b6001600160a01b03168152602081019190915260400160002091620023b391908362004372565b5080620023c08162003ffb565b91505062002222565b50505050505050565b620023dc6200318c565b60005b8181101562002488576200242183838381811062002401576200240162003fb9565b90506020020160208101906200241891906200386a565b60d390620032af565b604051806040016040528060178152602001761053149150511657d393d517d5d2125511531254d51151604a1b81525090620024725760405162461bcd60e51b815260040162000a4c9190620039fc565b50806200247f8162003ffb565b915050620023df565b505050565b600062000d0b60d38362002fe5565b620024a66200318c565b620024b360d78262003298565b604051806040016040528060138152602001721053149150511657d5d2125511531254d51151606a1b81525090620019b45760405162461bcd60e51b815260040162000a4c9190620039fc565b6200250a6200318c565b60408051808201909152600c81526b414444524553535f5a45524f60a01b60208201526001600160a01b038216620025575760405162461bcd60e51b815260040162000a4c9190620039fc565b5060c980546001600160a01b0319166001600160a01b0392909216919091179055565b60008060015b60d1548111620025f957600081815260d2602052604090205484148015620025ce5750600081815260d2602052604081206004015460ff166001811115620025cc57620025cc62003793565b145b15620025e457620025e160018362003fe5565b91505b80620025f08162003ffb565b91505062002580565b5092915050565b60606200260e60d3620032c6565b905090565b60d1546000908190819060015b818111620026f857600081815260d2602052604090208054600382015460049092015490919060ff168983141580620026595750888214155b80156200267a5750600081600181111562002678576200267862003793565b145b156200268557600195505b89831480156200269457508882145b8015620026b557506000816001811115620026b357620026b362003793565b145b15620026df57505050600090815260d2602052604090206005015460029450925062001e6b915050565b5050508080620026ef9062003ffb565b91505062002620565b509095600095509350505050565b620027113362000cfc565b6040518060400160405280600f81526020016e1393d517d5d2125511531254d51151608a1b815250906200275a5760405162461bcd60e51b815260040162000a4c9190620039fc565b506000851180156200276c5750835115155b8015620027795750825115155b8015620027865750600082115b6040518060400160405280600a81526020016956414c55455f5a45524f60b01b81525090620027ca5760405162461bcd60e51b815260040162000a4c9190620039fc565b5060008585604051602001620027e29291906200443f565b604051602081830303815290604052805190602001209050600060d1600081546200280d9062003ffb565b9182905550905060015b81811015620028bd57600081815260d260209081526040918290208054925186936200284a93909260010191016200429e565b6040516020818303038152906040528051906020012014156040518060400160405280600b81526020016a24a72b20a624a22fa2a4a760a91b81525090620028a75760405162461bcd60e51b815260040162000a4c9190620039fc565b5080620028b48162003ffb565b91505062002817565b5060c954604080516362d3d97560e11b815290516000926001600160a01b03169163c5a7b2ea9160048083019260209291908290030181865afa15801562002909573d6000803e3d6000fd5b505050506040513d601f19601f820116820180604052508101906200292f919062004467565b6040516200293d9062003750565b6001600160a01b039091168152604060208201819052600090820152606001604051809103906000f08015801562002979573d6000803e3d6000fd5b50604051632318e87160e11b81529091506001600160a01b03821690634631d0e290620029b3908b908b908b908b90899060040162004487565b600060405180830381600087803b158015620029ce57600080fd5b505af1158015620029e3573d6000803e3d6000fd5b505050506040518060e001604052808981526020018881526020018781526020018681526020016000600181111562002a205762002a2062003793565b81526001600160a01b0383166020808301919091526040918201879052600085815260d28252919091208251815590820151600182019062002a63908262004069565b506040820151600282019062002a7a908262004069565b5060608201516003820155608082015160048201805460ff19166001838181111562002aaa5762002aaa62003793565b021790555060a08201518160040160016101000a8154816001600160a01b0302191690836001600160a01b0316021790555060c08201518160050155905050600060cb6000815462002afc9062003ffb565b918290555060408051606081019091526001600160a01b03841681529091506020810160018152604080516020818101835260008083529381019190915284835260ca81529120825181546001600160a01b039091166001600160a01b031982168117835592840151919283916001600160a81b03191617600160a01b83600481111562002b8e5762002b8e62003793565b02179055506040820151600182019062002ba9908262004069565b5050506001600160a01b038216600090815260cc602052604090819020829055517f30ae76c641f7b77628da0dd91b34591e5b1dc7422220e5eb1080af2adfa142ef9062002bfe908390859060019062004135565b60405180910390a1505050505050505050565b62002c1b6200318c565b62002c2860d782620032af565b604051806040016040528060178152602001761053149150511657d393d517d5d2125511531254d51151604a1b81525090620019b45760405162461bcd60e51b815260040162000a4c9190620039fc565b60ca60205260009081526040902080546001820180546001600160a01b03831693600160a01b90930460ff1692919062001fce9062003f7d565b60ce5460009060015b81811162002d2157600081815260cd6020526040902080546001909101546001600160a01b039182169187168214801562002cf657508581145b1562002d09578294505050505062000d0b565b5050808062002d189062003ffb565b91505062002cbc565b506000949350505050565b62002d366200318c565b600060d16000815462002d499062003ffb565b91829055509050600060015b8281101562002de057600081815260d260205260409020600401546001600160a01b036101008204169060019060ff168181111562002d985762002d9862003793565b0362002da5575062002dcb565b806001600160a01b0316866001600160a01b03160362002dc9578192505062002de0565b505b8062002dd78162003ffb565b91505062002d55565b5060408051808201909152600a8152694e4f5f434f4d50414e5960b01b60208201528162002e235760405162461bcd60e51b815260040162000a4c9190620039fc565b50600090815260d260205260409020600501919091555050565b62002e476200318c565b6001600160a01b03811662002eae5760405162461bcd60e51b815260206004820152602660248201527f4f776e61626c653a206e6577206f776e657220697320746865207a65726f206160448201526564647265737360d01b606482015260840162000a4c565b6200117881620031e8565b60c95460408051808201909152600b81526a4e4f545f5345525649434560a81b60208201526000916001600160a01b0316331462002f0c5760405162461bcd60e51b815260040162000a4c9190620039fc565b5060ce6000815462002f1e9062003ffb565b9182905550604080516060810182526001600160a01b038681168252602080830187815284518083018652600080825285870191825287815260cd90935294909120835181546001600160a01b0319169316929092178255516001820155915192935091600282019062002f93908262004069565b5050604080518381526001600160a01b03861660208201529081018490527f275b6fbf6c9e793a28d01c614ff750fb316acacb6c25f06fdb8ac72d9dbabb08915060600160405180910390a192915050565b6001600160a01b038116600090815260018301602052604081205415155b9392505050565b620011786200318c565b7f4910fdfa16fed3260ed0e7147f7cc6da11a60208b5b9406d12a635614ffd91435460ff16156200304a576200248883620032d5565b826001600160a01b03166352d1902d6040518163ffffffff1660e01b8152600401602060405180830381865afa925050508015620030a7575060408051601f3d908101601f19168201909252620030a49181019062004228565b60015b6200310c5760405162461bcd60e51b815260206004820152602e60248201527f45524331393637557067726164653a206e657720696d706c656d656e7461746960448201526d6f6e206973206e6f74205555505360901b606482015260840162000a4c565b60008051602062004e4b83398151915281146200317e5760405162461bcd60e51b815260206004820152602960248201527f45524331393637557067726164653a20756e737570706f727465642070726f786044820152681a58589b195555525160ba1b606482015260840162000a4c565b506200248883838362003374565b6033546001600160a01b0316331462001cab5760405162461bcd60e51b815260206004820181905260248201527f4f776e61626c653a2063616c6c6572206973206e6f7420746865206f776e6572604482015260640162000a4c565b603380546001600160a01b038381166001600160a01b0319831681179093556040519116919082907f8be0079c531659141344cd1fd0a4f28419497f9722a3daafe3b4186f6b6457e090600090a35050565b600054610100900460ff16620032645760405162461bcd60e51b815260040162000a4c90620044cb565b62001cab620033a5565b600054610100900460ff1662001cab5760405162461bcd60e51b815260040162000a4c90620044cb565b600062003003836001600160a01b038416620033da565b600062003003836001600160a01b0384166200342c565b60606000620030038362003530565b6001600160a01b0381163b620033445760405162461bcd60e51b815260206004820152602d60248201527f455243313936373a206e657720696d706c656d656e746174696f6e206973206e60448201526c1bdd08184818dbdb9d1c9858dd609a1b606482015260840162000a4c565b60008051602062004e4b83398151915280546001600160a01b0319166001600160a01b0392909216919091179055565b6200337f836200358e565b6000825111806200338d5750805b1562002488576200339f8383620035d0565b50505050565b600054610100900460ff16620033cf5760405162461bcd60e51b815260040162000a4c90620044cb565b62001cab33620031e8565b6000818152600183016020526040812054620034235750815460018181018455600084815260208082209093018490558454848252828601909352604090209190915562000d0b565b50600062000d0b565b60008181526001830160205260408120548015620035255760006200345360018362004242565b8554909150600090620034699060019062004242565b9050818114620034d55760008660000182815481106200348d576200348d62003fb9565b9060005260206000200154905080876000018481548110620034b357620034b362003fb9565b6000918252602080832090910192909255918252600188019052604090208390555b8554869080620034e957620034e962004516565b60019003818190600052602060002001600090559055856001016000868152602001908152602001600020600090556001935050505062000d0b565b600091505062000d0b565b6060816000018054806020026020016040519081016040528092919081815260200182805480156200358257602002820191906000526020600020905b8154815260200190600101908083116200356d575b50505050509050919050565b6200359981620032d5565b6040516001600160a01b038216907fbc7cd75a20ee27fd9adebab32041f755214dbc6bffa90cc0225b39da2e5c2d3b90600090a250565b60606001600160a01b0383163b6200363a5760405162461bcd60e51b815260206004820152602660248201527f416464726573733a2064656c65676174652063616c6c20746f206e6f6e2d636f6044820152651b9d1c9858dd60d21b606482015260840162000a4c565b600080846001600160a01b0316846040516200365791906200452c565b600060405180830381855af49150503d806000811462003694576040519150601f19603f3d011682016040523d82523d6000602084013e62003699565b606091505b5091509150620036c4828260405180606001604052806027815260200162004e6b60279139620036cd565b95945050505050565b60608315620036de57508162003003565b620030038383815115620036f55781518083602001fd5b8060405162461bcd60e51b815260040162000a4c9190620039fc565b5080546200371f9062003f7d565b6000825580601f1062003730575050565b601f0160209004906000526020600020908101906200117891906200375e565b610900806200454b83390190565b5b808211156200377557600081556001016200375f565b5090565b6000602082840312156200378c57600080fd5b5035919050565b634e487b7160e01b600052602160045260246000fd5b6005811062001178576200117862003793565b60005b83811015620037d9578181015183820152602001620037bf565b50506000910152565b60008151808452620037fc816020860160208601620037bc565b601f01601f19169290920160200192915050565b6200381b85620037a9565b84815260018060a01b03841660208201528260408201526080606082015260006200384a6080830184620037e2565b9695505050505050565b6001600160a01b03811681146200117857600080fd5b6000602082840312156200387d57600080fd5b8135620030038162003854565b6020808252825182820181905260009190848201906040850190845b81811015620038c457835183529284019291840191600101620038a6565b50909695505050505050565b600581106200117857600080fd5b634e487b7160e01b600052604160045260246000fd5b60006001600160401b0380841115620039115762003911620038de565b604051601f8501601f19908116603f011681019082821181831017156200393c576200393c620038de565b816040528093508581528686860111156200395657600080fd5b858560208301376000602087830101525050509392505050565b600082601f8301126200398257600080fd5b6200300383833560208501620038f4565b600080600060608486031215620039a957600080fd5b8335620039b68162003854565b92506020840135620039c881620038d0565b915060408401356001600160401b03811115620039e457600080fd5b620039f28682870162003970565b9150509250925092565b602081526000620030036020830184620037e2565b6000806000806101a080868803121562003a2a57600080fd5b85359450602086013593506040860135925086818701111562003a4c57600080fd5b509295919450926060019150565b60008083601f84011262003a6d57600080fd5b5081356001600160401b0381111562003a8557600080fd5b60208301915083602082850101111562001e6b57600080fd5b60008060008060006080868803121562003ab757600080fd5b853562003ac48162003854565b9450602086013562003ad681620038d0565b93506040860135925060608601356001600160401b0381111562003af957600080fd5b62003b078882890162003a5a565b969995985093965092949392505050565b6000806000806080858703121562003b2f57600080fd5b84356001600160401b0381111562003b4657600080fd5b85016101a0818803121562003b5a57600080fd5b935060208501356003811062003b6f57600080fd5b93969395505050506040820135916060013590565b6000806040838503121562003b9857600080fd5b823562003ba58162003854565b915060208301356001600160401b0381111562003bc157600080fd5b8301601f8101851362003bd357600080fd5b62003be485823560208401620038f4565b9150509250929050565b87815260e06020820152600062003c0960e0830189620037e2565b828103604084015262003c1d8189620037e2565b9150508560608301526002851062003c395762003c3962003793565b60808201949094526001600160a01b039290921660a083015260c090910152949350505050565b6020810162003c6f83620037a9565b91905290565b6000806040838503121562003c8957600080fd5b50508035926020909101359150565b60018060a01b0384168152826020820152606060408201526000620036c46060830184620037e2565b6000806000806060858703121562003cd857600080fd5b843562003ce58162003854565b935060208501356001600160401b0381111562003d0157600080fd5b62003d0f8782880162003a5a565b9598909750949560400135949350505050565b60008083601f84011262003d3557600080fd5b5081356001600160401b0381111562003d4d57600080fd5b6020830191508360208260051b850101111562001e6b57600080fd5b6000806000806000806060878903121562003d8357600080fd5b86356001600160401b038082111562003d9b57600080fd5b62003da98a838b0162003d22565b9098509650602089013591508082111562003dc357600080fd5b62003dd18a838b0162003d22565b9096509450604089013591508082111562003deb57600080fd5b5062003dfa89828a0162003d22565b979a9699509497509295939492505050565b6000806020838503121562003e2057600080fd5b82356001600160401b0381111562003e3757600080fd5b62003e458582860162003d22565b90969095509350505050565b6020808252825182820181905260009190848201906040850190845b81811015620038c45783516001600160a01b03168352928401929184019160010162003e6d565b600080600080600060a0868803121562003ead57600080fd5b8535945060208601356001600160401b038082111562003ecc57600080fd5b62003eda89838a0162003970565b9550604088013591508082111562003ef157600080fd5b5062003f008882890162003970565b9598949750949560608101359550608001359392505050565b6001600160a01b038416815262003f3083620037a9565b826020820152606060408201526000620036c46060830184620037e2565b6000806040838503121562003f6257600080fd5b823562003f6f8162003854565b946020939093013593505050565b600181811c9082168062003f9257607f821691505b60208210810362003fb357634e487b7160e01b600052602260045260246000fd5b50919050565b634e487b7160e01b600052603260045260246000fd5b634e487b7160e01b600052601160045260246000fd5b8082018082111562000d0b5762000d0b62003fcf565b60006001820162004010576200401062003fcf565b5060010190565b601f8211156200248857600081815260208120601f850160051c81016020861015620040405750805b601f850160051c820191505b8181101562004061578281556001016200404c565b505050505050565b81516001600160401b03811115620040855762004085620038de565b6200409d8162004096845462003f7d565b8462004017565b602080601f831160018114620040d55760008415620040bc5750858301515b600019600386901b1c1916600185901b17855562004061565b600085815260208120601f198616915b828110156200410657888601518255948401946001909101908401620040e5565b5085821015620041255787850151600019600388901b60f8161c191681555b5050505050600190811b01905550565b8381526001600160a01b0383166020820152606081016200415683620037a9565b826040830152949350505050565b6020808252602c908201527f46756e6374696f6e206d7573742062652063616c6c6564207468726f7567682060408201526b19195b1959d85d1958d85b1b60a21b606082015260800190565b6020808252602c908201527f46756e6374696f6e206d7573742062652063616c6c6564207468726f7567682060408201526b6163746976652070726f787960a01b606082015260800190565b606081016200420b85620037a9565b9381526001600160a01b0392909216602083015260409091015290565b6000602082840312156200423b57600080fd5b5051919050565b8181038181111562000d0b5762000d0b62003fcf565b808202811582820484141762000d0b5762000d0b62003fcf565b6bffffffffffffffffffffffff198460601b168152818360148301376000910160140190815292915050565b8281526000602060008454620042b48162003f7d565b60018281168015620042cf5760018114620042e9576200431b565b60ff1984168887015282151583028801860194506200431b565b886000528560002060005b84811015620043115781548a8201890152908301908701620042f4565b5050858389010194505b509298975050505050505050565b6000808335601e198436030181126200434157600080fd5b8301803591506001600160401b038211156200435c57600080fd5b60200191503681900382131562001e6b57600080fd5b6001600160401b038311156200438c576200438c620038de565b620043a4836200439d835462003f7d565b8362004017565b6000601f841160018114620043db5760008515620043c25750838201355b600019600387901b1c1916600186901b17835562004438565b600083815260209020601f19861690835b828110156200440e5786850135825560209485019460019092019101620043ec565b50868210156200442c5760001960f88860031b161c19848701351681555b505060018560011b0183555b5050505050565b8281526000825162004459816020850160208701620037bc565b919091016020019392505050565b6000602082840312156200447a57600080fd5b8151620030038162003854565b85815260a060208201526000620044a260a0830187620037e2565b8281036040840152620044b68187620037e2565b60608401959095525050608001529392505050565b6020808252602b908201527f496e697469616c697a61626c653a20636f6e7472616374206973206e6f74206960408201526a6e697469616c697a696e6760a81b606082015260800190565b634e487b7160e01b600052603160045260246000fd5b6000825162004540818460208701620037bc565b919091019291505056fe60806040526040516109003803806109008339810160408190526100229161045b565b61002e82826000610035565b5050610585565b61003e83610100565b6040516001600160a01b038416907f1cf3b03a6cf19fa2baba4df148e9dcabedea7f8a5c07840e207e5c089be95d3e90600090a260008251118061007f5750805b156100fb576100f9836001600160a01b0316635c60da1b6040518163ffffffff1660e01b8152600401602060405180830381865afa1580156100c5573d6000803e3d6000fd5b505050506040513d601f19601f820116820180604052508101906100e9919061051b565b836102a360201b6100291760201c565b505b505050565b610113816102cf60201b6100551760201c565b6101725760405162461bcd60e51b815260206004820152602560248201527f455243313936373a206e657720626561636f6e206973206e6f74206120636f6e6044820152641d1c9858dd60da1b60648201526084015b60405180910390fd5b6101e6816001600160a01b0316635c60da1b6040518163ffffffff1660e01b8152600401602060405180830381865afa1580156101b3573d6000803e3d6000fd5b505050506040513d601f19601f820116820180604052508101906101d7919061051b565b6102cf60201b6100551760201c565b61024b5760405162461bcd60e51b815260206004820152603060248201527f455243313936373a20626561636f6e20696d706c656d656e746174696f6e206960448201526f1cc81b9bdd08184818dbdb9d1c9858dd60821b6064820152608401610169565b806102827fa3f0ad74e5423aebfd80d3ef4346578335a9a72aeaee59ff6cb3582b35133d5060001b6102de60201b6100641760201c565b80546001600160a01b0319166001600160a01b039290921691909117905550565b60606102c883836040518060600160405280602781526020016108d9602791396102e1565b9392505050565b6001600160a01b03163b151590565b90565b6060600080856001600160a01b0316856040516102fe9190610536565b600060405180830381855af49150503d8060008114610339576040519150601f19603f3d011682016040523d82523d6000602084013e61033e565b606091505b5090925090506103508683838761035a565b9695505050505050565b606083156103c95782516000036103c2576001600160a01b0385163b6103c25760405162461bcd60e51b815260206004820152601d60248201527f416464726573733a2063616c6c20746f206e6f6e2d636f6e74726163740000006044820152606401610169565b50816103d3565b6103d383836103db565b949350505050565b8151156103eb5781518083602001fd5b8060405162461bcd60e51b81526004016101699190610552565b80516001600160a01b038116811461041c57600080fd5b919050565b634e487b7160e01b600052604160045260246000fd5b60005b8381101561045257818101518382015260200161043a565b50506000910152565b6000806040838503121561046e57600080fd5b61047783610405565b60208401519092506001600160401b038082111561049457600080fd5b818501915085601f8301126104a857600080fd5b8151818111156104ba576104ba610421565b604051601f8201601f19908116603f011681019083821181831017156104e2576104e2610421565b816040528281528860208487010111156104fb57600080fd5b61050c836020830160208801610437565b80955050505050509250929050565b60006020828403121561052d57600080fd5b6102c882610405565b60008251610548818460208701610437565b9190910192915050565b6020815260008251806020840152610571816040850160208701610437565b601f01601f19169190910160400192915050565b610345806105946000396000f3fe60806040523661001357610011610017565b005b6100115b610027610022610067565b610100565b565b606061004e83836040518060600160405280602781526020016102e960279139610124565b9392505050565b6001600160a01b03163b151590565b90565b600061009a7fa3f0ad74e5423aebfd80d3ef4346578335a9a72aeaee59ff6cb3582b35133d50546001600160a01b031690565b6001600160a01b0316635c60da1b6040518163ffffffff1660e01b8152600401602060405180830381865afa1580156100d7573d6000803e3d6000fd5b505050506040513d601f19601f820116820180604052508101906100fb919061024c565b905090565b3660008037600080366000845af43d6000803e80801561011f573d6000f35b3d6000fd5b6060600080856001600160a01b0316856040516101419190610299565b600060405180830381855af49150503d806000811461017c576040519150601f19603f3d011682016040523d82523d6000602084013e610181565b606091505b50915091506101928683838761019c565b9695505050505050565b60608315610210578251600003610209576001600160a01b0385163b6102095760405162461bcd60e51b815260206004820152601d60248201527f416464726573733a2063616c6c20746f206e6f6e2d636f6e747261637400000060448201526064015b60405180910390fd5b508161021a565b61021a8383610222565b949350505050565b8151156102325781518083602001fd5b8060405162461bcd60e51b815260040161020091906102b5565b60006020828403121561025e57600080fd5b81516001600160a01b038116811461004e57600080fd5b60005b83811015610290578181015183820152602001610278565b50506000910152565b600082516102ab818460208701610275565b9190910192915050565b60208152600082518060208401526102d4816040850160208701610275565b601f01601f1916919091016040019291505056fe416464726573733a206c6f772d6c6576656c2064656c65676174652063616c6c206661696c6564a264697066735822122022a6bf5ebbb7518c40e703958b5c8e4d70ca6715c1e1ccf9e9591bfc86e066d164736f6c63430008110033416464726573733a206c6f772d6c6576656c2064656c65676174652063616c6c206661696c6564360894a13ba1a3210667c828492db98dca3e2076cc3735a920a3ca505d382bbc416464726573733a206c6f772d6c6576656c2064656c65676174652063616c6c206661696c6564484152444341505f414e445f50524f544f434f4c5f4645455f4f564552464c4f575f52454d41494e494e475f535550504c59484152444341505f4f564552464c4f575f52454d41494e494e475f535550504c59a26469706673582212200b6fe244914c5b5a3208f1eca63ade7b3819ab781b7e1b5baca581f50a42abf164736f6c63430008110033",
  "linkReferences": {},
  "deployedLinkReferences": {}
}