{
  "_format": "hh-sol-artifact-1",
  "contractName": "Dispatcher",
  "sourceName": "contracts/Dispatcher.sol",
  "abi": [
    {
      "inputs": [],
      "stateMutability": "nonpayable",
      "type": "constructor"
    },
    {
      "anonymous": false,
      "inputs": [
        {
          "indexed": false,
          "internalType": "address",
          "name": "previousAdmin",
          "type": "address"
        },
        {
          "indexed": false,
          "internalType": "address",
          "name": "newAdmin",
          "type": "address"
        }
      ],
      "name": "AdminChanged",
      "type": "event"
    },
    {
      "anonymous": false,
      "inputs": [
        {
          "indexed": true,
          "internalType": "address",
          "name": "beacon",
          "type": "address"
        }
      ],
      "name": "BeaconUpgraded",
      "type": "event"
    },
    {
      "anonymous": false,
      "inputs": [
        {
          "indexed": false,
          "internalType": "uint256",
          "name": "index",
          "type": "uint256"
        },
        {
          "indexed": false,
          "internalType": "address",
          "name": "addr",
          "type": "address"
        },
        {
          "indexed": false,
          "internalType": "enum IDispatcher.ContractType",
          "name": "contractType",
          "type": "uint8"
        }
      ],
      "name": "ContractRecordAdded",
      "type": "event"
    },
    {
      "anonymous": false,
      "inputs": [
        {
          "indexed": false,
          "internalType": "enum IDispatcher.EventType",
          "name": "eventType",
          "type": "uint8"
        },
        {
          "indexed": false,
          "internalType": "address",
          "name": "pool",
          "type": "address"
        },
        {
          "indexed": false,
          "internalType": "uint256",
          "name": "proposalId",
          "type": "uint256"
        }
      ],
      "name": "EventRecordAdded",
      "type": "event"
    },
    {
      "anonymous": false,
      "inputs": [
        {
          "indexed": false,
          "internalType": "uint8",
          "name": "version",
          "type": "uint8"
        }
      ],
      "name": "Initialized",
      "type": "event"
    },
    {
      "anonymous": false,
      "inputs": [
        {
          "indexed": true,
          "internalType": "address",
          "name": "previousOwner",
          "type": "address"
        },
        {
          "indexed": true,
          "internalType": "address",
          "name": "newOwner",
          "type": "address"
        }
      ],
      "name": "OwnershipTransferred",
      "type": "event"
    },
    {
      "anonymous": false,
      "inputs": [
        {
          "indexed": false,
          "internalType": "uint256",
          "name": "index",
          "type": "uint256"
        },
        {
          "indexed": false,
          "internalType": "address",
          "name": "pool",
          "type": "address"
        },
        {
          "indexed": false,
          "internalType": "uint256",
          "name": "proposalId",
          "type": "uint256"
        }
      ],
      "name": "ProposalRecordAdded",
      "type": "event"
    },
    {
      "anonymous": false,
      "inputs": [
        {
          "indexed": true,
          "internalType": "address",
          "name": "implementation",
          "type": "address"
        }
      ],
      "name": "Upgraded",
      "type": "event"
    },
    {
      "inputs": [
        {
          "internalType": "address",
          "name": "addr",
          "type": "address"
        },
        {
          "internalType": "enum IDispatcher.ContractType",
          "name": "contractType",
          "type": "uint8"
        },
        {
          "internalType": "string",
          "name": "description",
          "type": "string"
        }
      ],
      "name": "addContractRecord",
      "outputs": [
        {
          "internalType": "uint256",
          "name": "index",
          "type": "uint256"
        }
      ],
      "stateMutability": "nonpayable",
      "type": "function"
    },
    {
      "inputs": [
        {
          "internalType": "address",
          "name": "pool",
          "type": "address"
        },
        {
          "internalType": "enum IDispatcher.EventType",
          "name": "eventType",
          "type": "uint8"
        },
        {
          "internalType": "uint256",
          "name": "proposalId",
          "type": "uint256"
        },
        {
          "internalType": "string",
          "name": "metaHash",
          "type": "string"
        }
      ],
      "name": "addEventRecord",
      "outputs": [
        {
          "internalType": "uint256",
          "name": "index",
          "type": "uint256"
        }
      ],
      "stateMutability": "nonpayable",
      "type": "function"
    },
    {
      "inputs": [
        {
          "internalType": "address",
          "name": "pool",
          "type": "address"
        },
        {
          "internalType": "uint256",
          "name": "proposalId",
          "type": "uint256"
        }
      ],
      "name": "addProposalRecord",
      "outputs": [
        {
          "internalType": "uint256",
          "name": "index",
          "type": "uint256"
        }
      ],
      "stateMutability": "nonpayable",
      "type": "function"
    },
    {
      "inputs": [
        {
          "internalType": "address[]",
          "name": "tokens",
          "type": "address[]"
        },
        {
          "internalType": "bytes[]",
          "name": "swapPaths",
          "type": "bytes[]"
        },
        {
          "internalType": "bytes[]",
          "name": "swapReversePaths",
          "type": "bytes[]"
        }
      ],
      "name": "addTokensToWhitelist",
      "outputs": [],
      "stateMutability": "nonpayable",
      "type": "function"
    },
    {
      "inputs": [],
      "name": "allJursdictions",
      "outputs": [
        {
          "internalType": "uint256[]",
          "name": "",
          "type": "uint256[]"
        }
      ],
      "stateMutability": "view",
      "type": "function"
    },
    {
      "inputs": [
        {
          "internalType": "uint256",
          "name": "jurisdiction",
          "type": "uint256"
        }
      ],
      "name": "availableCompaniesCount",
      "outputs": [
        {
          "internalType": "uint256",
          "name": "",
          "type": "uint256"
        }
      ],
      "stateMutability": "view",
      "type": "function"
    },
    {
      "inputs": [],
      "name": "availableJurisdictions",
      "outputs": [
        {
          "internalType": "uint256[]",
          "name": "",
          "type": "uint256[]"
        }
      ],
      "stateMutability": "view",
      "type": "function"
    },
    {
      "inputs": [
        {
          "internalType": "uint256",
          "name": "",
          "type": "uint256"
        }
      ],
      "name": "contractRecordAt",
      "outputs": [
        {
          "internalType": "address",
          "name": "addr",
          "type": "address"
        },
        {
          "internalType": "enum IDispatcher.ContractType",
          "name": "contractType",
          "type": "uint8"
        },
        {
          "internalType": "string",
          "name": "description",
          "type": "string"
        }
      ],
      "stateMutability": "view",
      "type": "function"
    },
    {
      "inputs": [
        {
          "internalType": "uint256",
          "name": "jurisdiction",
          "type": "uint256"
        },
        {
          "internalType": "string",
          "name": "EIN",
          "type": "string"
        },
        {
          "internalType": "string",
          "name": "dateOfIncorporation",
          "type": "string"
        },
        {
          "internalType": "uint256",
          "name": "entityType",
          "type": "uint256"
        },
        {
          "internalType": "uint256",
          "name": "fee",
          "type": "uint256"
        }
      ],
      "name": "createRecord",
      "outputs": [],
      "stateMutability": "nonpayable",
      "type": "function"
    },
    {
      "inputs": [],
      "name": "currentId",
      "outputs": [
        {
          "internalType": "uint256",
          "name": "",
          "type": "uint256"
        }
      ],
      "stateMutability": "view",
      "type": "function"
    },
    {
      "inputs": [
        {
          "internalType": "uint256",
          "name": "id",
          "type": "uint256"
        }
      ],
      "name": "deleteRecord",
      "outputs": [],
      "stateMutability": "nonpayable",
      "type": "function"
    },
    {
      "inputs": [
        {
          "internalType": "uint256",
          "name": "",
          "type": "uint256"
        }
      ],
      "name": "events",
      "outputs": [
        {
          "internalType": "enum IDispatcher.EventType",
          "name": "eventType",
          "type": "uint8"
        },
        {
          "internalType": "address",
          "name": "pool",
          "type": "address"
        },
        {
          "internalType": "uint256",
          "name": "proposalId",
          "type": "uint256"
        },
        {
          "internalType": "string",
          "name": "metaHash",
          "type": "string"
        }
      ],
      "stateMutability": "view",
      "type": "function"
    },
    {
      "inputs": [
        {
          "internalType": "uint256",
          "name": "jurisdiction",
          "type": "uint256"
        }
      ],
      "name": "existingCompanies",
      "outputs": [
        {
          "internalType": "uint256[]",
          "name": "",
          "type": "uint256[]"
        }
      ],
      "stateMutability": "view",
      "type": "function"
    },
    {
      "inputs": [
        {
          "internalType": "address",
          "name": "tge",
          "type": "address"
        }
      ],
      "name": "getContractDescription",
      "outputs": [
        {
          "internalType": "string",
          "name": "",
          "type": "string"
        }
      ],
      "stateMutability": "view",
      "type": "function"
    },
    {
      "inputs": [
        {
          "internalType": "address",
          "name": "pool",
          "type": "address"
        },
        {
          "internalType": "uint256",
          "name": "proposalId",
          "type": "uint256"
        }
      ],
      "name": "getGlobalProposalId",
      "outputs": [
        {
          "internalType": "uint256",
          "name": "",
          "type": "uint256"
        }
      ],
      "stateMutability": "view",
      "type": "function"
    },
    {
      "inputs": [
        {
          "internalType": "address",
          "name": "",
          "type": "address"
        }
      ],
      "name": "indexOfContract",
      "outputs": [
        {
          "internalType": "uint256",
          "name": "",
          "type": "uint256"
        }
      ],
      "stateMutability": "view",
      "type": "function"
    },
    {
      "inputs": [],
      "name": "initialize",
      "outputs": [],
      "stateMutability": "nonpayable",
      "type": "function"
    },
    {
      "inputs": [
        {
          "internalType": "address",
          "name": "token",
          "type": "address"
        }
      ],
      "name": "isTokenWhitelisted",
      "outputs": [
        {
          "internalType": "bool",
          "name": "",
          "type": "bool"
        }
      ],
      "stateMutability": "view",
      "type": "function"
    },
    {
      "inputs": [],
      "name": "lastContractRecordIndex",
      "outputs": [
        {
          "internalType": "uint256",
          "name": "",
          "type": "uint256"
        }
      ],
      "stateMutability": "view",
      "type": "function"
    },
    {
      "inputs": [],
      "name": "lastEventIndex",
      "outputs": [
        {
          "internalType": "uint256",
          "name": "",
          "type": "uint256"
        }
      ],
      "stateMutability": "view",
      "type": "function"
    },
    {
      "inputs": [],
      "name": "lastProposalRecordIndex",
      "outputs": [
        {
          "internalType": "uint256",
          "name": "",
          "type": "uint256"
        }
      ],
      "stateMutability": "view",
      "type": "function"
    },
    {
      "inputs": [
        {
          "internalType": "uint256",
          "name": "jurisdiction",
          "type": "uint256"
        },
        {
          "internalType": "uint256",
          "name": "entityType",
          "type": "uint256"
        }
      ],
      "name": "lockRecord",
      "outputs": [
        {
          "internalType": "address",
          "name": "",
          "type": "address"
        },
        {
          "internalType": "uint256",
          "name": "",
          "type": "uint256"
        }
      ],
      "stateMutability": "nonpayable",
      "type": "function"
    },
    {
      "inputs": [],
      "name": "owner",
      "outputs": [
        {
          "internalType": "address",
          "name": "",
          "type": "address"
        }
      ],
      "stateMutability": "view",
      "type": "function"
    },
    {
      "inputs": [
        {
          "internalType": "uint256",
          "name": "jurisdiction",
          "type": "uint256"
        },
        {
          "internalType": "uint256",
          "name": "entityType",
          "type": "uint256"
        }
      ],
      "name": "poolAvailable",
      "outputs": [
        {
          "internalType": "uint256",
          "name": "",
          "type": "uint256"
        },
        {
          "internalType": "uint256",
          "name": "",
          "type": "uint256"
        }
      ],
      "stateMutability": "view",
      "type": "function"
    },
    {
      "inputs": [
        {
          "internalType": "uint256",
          "name": "",
          "type": "uint256"
        }
      ],
      "name": "proposalRecordAt",
      "outputs": [
        {
          "internalType": "address",
          "name": "pool",
          "type": "address"
        },
        {
          "internalType": "uint256",
          "name": "proposalId",
          "type": "uint256"
        },
        {
          "internalType": "string",
          "name": "description",
          "type": "string"
        }
      ],
      "stateMutability": "view",
      "type": "function"
    },
    {
      "inputs": [],
      "name": "proxiableUUID",
      "outputs": [
        {
          "internalType": "bytes32",
          "name": "",
          "type": "bytes32"
        }
      ],
      "stateMutability": "view",
      "type": "function"
    },
    {
      "inputs": [
        {
          "internalType": "uint256",
          "name": "",
          "type": "uint256"
        }
      ],
      "name": "queueInfo",
      "outputs": [
        {
          "internalType": "uint256",
          "name": "jurisdiction",
          "type": "uint256"
        },
        {
          "internalType": "string",
          "name": "EIN",
          "type": "string"
        },
        {
          "internalType": "string",
          "name": "dateOfIncorporation",
          "type": "string"
        },
        {
          "internalType": "uint256",
          "name": "entityType",
          "type": "uint256"
        },
        {
          "internalType": "enum IDispatcher.Status",
          "name": "status",
          "type": "uint8"
        },
        {
          "internalType": "address",
          "name": "pool",
          "type": "address"
        },
        {
          "internalType": "uint256",
          "name": "fee",
          "type": "uint256"
        }
      ],
      "stateMutability": "view",
      "type": "function"
    },
    {
      "inputs": [
        {
          "internalType": "address[]",
          "name": "tokens",
          "type": "address[]"
        }
      ],
      "name": "removeTokensFromWhitelist",
      "outputs": [],
      "stateMutability": "nonpayable",
      "type": "function"
    },
    {
      "inputs": [],
      "name": "renounceOwnership",
      "outputs": [],
      "stateMutability": "nonpayable",
      "type": "function"
    },
    {
      "inputs": [],
      "name": "service",
      "outputs": [
        {
          "internalType": "address",
          "name": "",
          "type": "address"
        }
      ],
      "stateMutability": "view",
      "type": "function"
    },
    {
      "inputs": [
        {
          "internalType": "address",
          "name": "service_",
          "type": "address"
        }
      ],
      "name": "setService",
      "outputs": [],
      "stateMutability": "nonpayable",
      "type": "function"
    },
    {
      "inputs": [
        {
          "internalType": "address",
          "name": "",
          "type": "address"
        }
      ],
      "name": "tokenSwapPath",
      "outputs": [
        {
          "internalType": "bytes",
          "name": "",
          "type": "bytes"
        }
      ],
      "stateMutability": "view",
      "type": "function"
    },
    {
      "inputs": [
        {
          "internalType": "address",
          "name": "",
          "type": "address"
        }
      ],
      "name": "tokenSwapReversePath",
      "outputs": [
        {
          "internalType": "bytes",
          "name": "",
          "type": "bytes"
        }
      ],
      "stateMutability": "view",
      "type": "function"
    },
    {
      "inputs": [],
      "name": "tokenWhitelist",
      "outputs": [
        {
          "internalType": "address[]",
          "name": "",
          "type": "address[]"
        }
      ],
      "stateMutability": "view",
      "type": "function"
    },
    {
      "inputs": [
        {
          "internalType": "address",
          "name": "newOwner",
          "type": "address"
        }
      ],
      "name": "transferOwnership",
      "outputs": [],
      "stateMutability": "nonpayable",
      "type": "function"
    },
    {
      "inputs": [
        {
          "internalType": "address",
          "name": "addr",
          "type": "address"
        }
      ],
      "name": "typeOf",
      "outputs": [
        {
          "internalType": "enum IDispatcher.ContractType",
          "name": "",
          "type": "uint8"
        }
      ],
      "stateMutability": "view",
      "type": "function"
    },
    {
      "inputs": [
        {
          "internalType": "uint256",
          "name": "id",
          "type": "uint256"
        },
        {
          "internalType": "uint256",
          "name": "fee",
          "type": "uint256"
        }
      ],
      "name": "updateFeeByIndex",
      "outputs": [],
      "stateMutability": "nonpayable",
      "type": "function"
    },
    {
      "inputs": [
        {
          "internalType": "address",
          "name": "jurisdiction",
          "type": "address"
        },
        {
          "internalType": "string",
          "name": "EIN",
          "type": "string"
        },
        {
          "internalType": "uint256",
          "name": "fee",
          "type": "uint256"
        }
      ],
      "name": "updateFeeByJE",
      "outputs": [],
      "stateMutability": "nonpayable",
      "type": "function"
    },
    {
      "inputs": [
        {
          "internalType": "address",
          "name": "poolToUpdate",
          "type": "address"
        },
        {
          "internalType": "uint256",
          "name": "fee",
          "type": "uint256"
        }
      ],
      "name": "updateFeeByPool",
      "outputs": [],
      "stateMutability": "nonpayable",
      "type": "function"
    },
    {
      "inputs": [
        {
          "internalType": "address",
          "name": "newImplementation",
          "type": "address"
        }
      ],
      "name": "upgradeTo",
      "outputs": [],
      "stateMutability": "nonpayable",
      "type": "function"
    },
    {
      "inputs": [
        {
          "internalType": "address",
          "name": "newImplementation",
          "type": "address"
        },
        {
          "internalType": "bytes",
          "name": "data",
          "type": "bytes"
        }
      ],
      "name": "upgradeToAndCall",
      "outputs": [],
      "stateMutability": "payable",
      "type": "function"
    },
    {
      "inputs": [
        {
          "internalType": "uint256",
          "name": "ballotQuorumThreshold",
          "type": "uint256"
        },
        {
          "internalType": "uint256",
          "name": "ballotDecisionThreshold",
          "type": "uint256"
        },
        {
          "internalType": "uint256",
          "name": "ballotLifespan",
          "type": "uint256"
        },
        {
          "internalType": "uint256[10]",
          "name": "ballotExecDelay",
          "type": "uint256[10]"
        }
      ],
      "name": "validateBallotParams",
      "outputs": [
        {
          "internalType": "bool",
          "name": "",
          "type": "bool"
        }
      ],
      "stateMutability": "pure",
      "type": "function"
    },
    {
      "inputs": [
        {
          "components": [
            {
              "internalType": "uint256",
              "name": "price",
              "type": "uint256"
            },
            {
              "internalType": "uint256",
              "name": "hardcap",
              "type": "uint256"
            },
            {
              "internalType": "uint256",
              "name": "softcap",
              "type": "uint256"
            },
            {
              "internalType": "uint256",
              "name": "minPurchase",
              "type": "uint256"
            },
            {
              "internalType": "uint256",
              "name": "maxPurchase",
              "type": "uint256"
            },
            {
              "internalType": "uint256",
              "name": "vestingPercent",
              "type": "uint256"
            },
            {
              "internalType": "uint256",
              "name": "vestingDuration",
              "type": "uint256"
            },
            {
              "internalType": "uint256",
              "name": "vestingTVL",
              "type": "uint256"
            },
            {
              "internalType": "uint256",
              "name": "duration",
              "type": "uint256"
            },
            {
              "internalType": "address[]",
              "name": "userWhitelist",
              "type": "address[]"
            },
            {
              "internalType": "address",
              "name": "unitOfAccount",
              "type": "address"
            },
            {
              "internalType": "uint256",
              "name": "lockupDuration",
              "type": "uint256"
            },
            {
              "internalType": "uint256",
              "name": "lockupTVL",
              "type": "uint256"
            }
          ],
          "internalType": "struct ITGE.TGEInfo",
          "name": "info",
          "type": "tuple"
        },
        {
          "internalType": "contract IToken",
          "name": "token_",
          "type": "address"
        }
      ],
      "name": "validateTGEInfo",
      "outputs": [
        {
          "internalType": "bool",
          "name": "",
          "type": "bool"
        }
      ],
      "stateMutability": "view",
      "type": "function"
    }
  ],
  "bytecode": "0x60a0604052306080523480156200001557600080fd5b506200002062000026565b620000e8565b600054610100900460ff1615620000935760405162461bcd60e51b815260206004820152602760248201527f496e697469616c697a61626c653a20636f6e747261637420697320696e697469604482015266616c697a696e6760c81b606482015260840160405180910390fd5b60005460ff9081161015620000e6576000805460ff191660ff9081179091556040519081527f7f26b83ff96e1f2b6a682f133852f6798a09c465da95921460cefb38474024989060200160405180910390a15b565b608051614feb6200012060003960008181610fa701528181610fea01528181611490015281816114d3015261177b0152614feb6000f3fe6080604052600436106200028f5760003560e01c80637c8478a1116200015f578063c51eba6411620000c5578063e00dd1611162000084578063e00dd1611462000883578063e863325c146200089b578063eaa2e88914620008d1578063ef086e6e14620008f6578063f2fde38b146200091b578063f4be9369146200094057600080fd5b8063c51eba6414620007b5578063ca735cc114620007da578063cbd2561d1462000801578063cc9bde03146200083c578063d598d4c9146200086157600080fd5b80638f78131d116200011e5780638f78131d14620006c6578063986f557d14620006fc578063a7ca279f1462000721578063b36bb0e31462000746578063b5af090f146200076b578063bf8bdac1146200079057600080fd5b80637c8478a114620005f85780637e89ed27146200061d5780638129fc1c1462000662578063867c5ce4146200067a5780638da5cb5b146200069257600080fd5b806341a453e1116200020557806352211b4611620001c457806352211b4614620004e457806352d1902d146200051e57806363d08dff14620005365780636dcb0cf8146200055b578063715018a614620005bb578063770fae4214620005d357600080fd5b806341a453e1146200043557806346179c58146200046b5780634dcbe29c14620004905780634f1ef28614620004a857806350eb1c4314620004bf57600080fd5b8063200b0ba31162000252578063200b0ba3146200038757806324dbc7dc14620003ac57806327a035de14620003c45780633659cfe614620003dc578063390bf99f146200040157600080fd5b8063061f981114620002945780630b79143014620002bb578063121f661c14620002fb5780631a84bcac146200033b5780631f8b40051462000362575b600080fd5b348015620002a157600080fd5b50620002b9620002b33660046200383d565b62000965565b005b348015620002c857600080fd5b50620002e0620002da3660046200383d565b62000a40565b604051620002f29493929190620038d8565b60405180910390f35b3480156200030857600080fd5b506200032c6200031a36600462003930565b60cc6020526000908152604090205481565b604051908152602001620002f2565b3480156200034857600080fd5b506200035362000b06565b604051620002f2919062003950565b3480156200036f57600080fd5b506200032c6200038136600462003a4b565b62000c1e565b3480156200039457600080fd5b5062000353620003a63660046200383d565b62000d9a565b348015620003b957600080fd5b506200032c60d05481565b348015620003d157600080fd5b506200035362000e5c565b348015620003e957600080fd5b50620002b9620003fb36600462003930565b62000f9d565b3480156200040e57600080fd5b50620004266200042036600462003930565b62001088565b604051620002f2919062003ab7565b3480156200044257600080fd5b506200045a6200045436600462003acc565b62001193565b6040519015158152602001620002f2565b3480156200047857600080fd5b506200032c6200048a36600462003b59565b620012e1565b3480156200049d57600080fd5b506200032c60ce5481565b620002b9620004b936600462003bd6565b62001486565b348015620004cc57600080fd5b5062000426620004de36600462003930565b62001562565b348015620004f157600080fd5b5062000509620005033660046200383d565b62001604565b604051620002f2979695949392919062003c40565b3480156200052b57600080fd5b506200032c6200176e565b3480156200054357600080fd5b50620004266200055536600462003930565b62001824565b3480156200056857600080fd5b50620005ac6200057a36600462003930565b6001600160a01b0316600090815260cc6020908152604080832054835260ca909152902054600160a01b900460ff1690565b604051620002f2919062003cc5565b348015620005c857600080fd5b50620002b96200183f565b348015620005e057600080fd5b50620002b9620005f236600462003cd5565b62001857565b3480156200060557600080fd5b506200045a6200061736600462003cf8565b620018e8565b3480156200062a57600080fd5b50620006426200063c36600462003cd5565b62001e3e565b604080516001600160a01b039093168352602083019190915201620002f2565b3480156200066f57600080fd5b50620002b962001f72565b3480156200068757600080fd5b506200032c60cb5481565b3480156200069f57600080fd5b506033546001600160a01b03165b6040516001600160a01b039091168152602001620002f2565b348015620006d357600080fd5b50620006eb620006e53660046200383d565b6200209a565b604051620002f29392919062003d54565b3480156200070957600080fd5b50620002b96200071b36600462003d7d565b62002157565b3480156200072e57600080fd5b50620002b96200074036600462003e25565b620022be565b3480156200075357600080fd5b50620002b96200076536600462003ec8565b620024d2565b3480156200077857600080fd5b506200045a6200078a36600462003930565b62002593565b3480156200079d57600080fd5b50620002b9620007af36600462003930565b620025a2565b348015620007c257600080fd5b506200032c620007d43660046200383d565b6200261c565b348015620007e757600080fd5b50620007f2620026a2565b604051620002f2919062003f0d565b3480156200080e57600080fd5b50620008266200082036600462003cd5565b620026b5565b60408051928352602083019190915201620002f2565b3480156200084957600080fd5b50620002b96200085b36600462003f50565b620027a8565b3480156200086e57600080fd5b5060c954620006ad906001600160a01b031681565b3480156200089057600080fd5b506200032c60d15481565b348015620008a857600080fd5b50620008c0620008ba3660046200383d565b62002d38565b604051620002f29392919062003fd5565b348015620008de57600080fd5b506200032c620008f036600462004008565b62002d72565b3480156200090357600080fd5b50620002b96200091536600462004008565b62002deb565b3480156200092857600080fd5b50620002b96200093a36600462003930565b62002efc565b3480156200094d57600080fd5b506200032c6200095f36600462004008565b62002f78565b6200096f620030a4565b600081815260d2602052604081206004015460ff16600181111562000998576200099862003857565b146040518060400160405280600d81526020016c5245434f52445f494e5f55534560981b81525090620009e95760405162461bcd60e51b8152600401620009e0919062003ab7565b60405180910390fd5b50600081815260d2602052604081208181559062000a0b6001830182620037d5565b62000a1b600283016000620037d5565b506000600382018190556004820180546001600160a81b031916905560059091015550565b60cf6020526000908152604090208054600182015460028301805460ff8416946101009094046001600160a01b031693919062000a7d9062004037565b80601f016020809104026020016040519081016040528092919081815260200182805462000aab9062004037565b801562000afc5780601f1062000ad05761010080835404028352916020019162000afc565b820191906000526020600020905b81548152906001019060200180831162000ade57829003601f168201915b5050505050905084565b6060600060d1546001600160401b0381111562000b275762000b2762003996565b60405190808252806020026020018201604052801562000b51578160200160208202803683370190505b509050600060015b60d154811162000c1657600081815260d26020526040812054905b845181101562000bfe5784818151811062000b935762000b9362004073565b602002602001015182031562000bfe57845162000bb28260016200409f565b0362000be9578185858151811062000bce5762000bce62004073565b602090810291909101015262000be66001856200409f565b93505b8062000bf581620040b5565b91505062000b74565b5050808062000c0d90620040b5565b91505062000b59565b509092915050565b60c95460408051808201909152600b81526a4e4f545f5345525649434560a81b60208201526000916001600160a01b0316331462000c715760405162461bcd60e51b8152600401620009e0919062003ab7565b5060cb6000815462000c8390620040b5565b91905081905590506040518060600160405280856001600160a01b0316815260200184600381111562000cba5762000cba62003857565b81526020908101849052600083815260ca825260409020825181546001600160a01b039091166001600160a01b031982168117835592840151919283916001600160a81b03191617600160a01b83600381111562000d1c5762000d1c62003857565b02179055506040820151600182019062000d37908262004123565b5050506001600160a01b038416600090815260cc602052604090819020829055517f30ae76c641f7b77628da0dd91b34591e5b1dc7422220e5eb1080af2adfa142ef9062000d8b90839087908790620041ef565b60405180910390a19392505050565b6060600060d1546001600160401b0381111562000dbb5762000dbb62003996565b60405190808252806020026020018201604052801562000de5578160200160208202803683370190505b509050600060015b60d154811162000e5357600081815260d26020526040902054850362000e3e578083838151811062000e235762000e2362004073565b602090810291909101015262000e3b6001836200409f565b91505b8062000e4a81620040b5565b91505062000ded565b50909392505050565b6060600060d1546001600160401b0381111562000e7d5762000e7d62003996565b60405190808252806020026020018201604052801562000ea7578160200160208202803683370190505b509050600060015b60d154811162000c16576001600082815260d2602052604090206004015460ff16600181111562000ee45762000ee462003857565b1462000f8857600081815260d26020526040812054905b845181101562000f855784818151811062000f1a5762000f1a62004073565b602002602001015182031562000f8557845162000f398260016200409f565b0362000f70578185858151811062000f555762000f5562004073565b602090810291909101015262000f6d6001856200409f565b93505b8062000f7c81620040b5565b91505062000efb565b50505b8062000f9481620040b5565b91505062000eaf565b6001600160a01b037f000000000000000000000000000000000000000000000000000000000000000016300362000fe85760405162461bcd60e51b8152600401620009e09062004214565b7f00000000000000000000000000000000000000000000000000000000000000006001600160a01b03166200103360008051602062004f1c833981519152546001600160a01b031690565b6001600160a01b0316146200105c5760405162461bcd60e51b8152600401620009e09062004260565b620010678162003100565b6040805160008082526020820190925262001085918391906200310a565b50565b60cb5460609060015b8181116200117c57600081815260ca60205260409020546001600160a01b03908116908516036200116757600081815260ca602052604090206001018054620010da9062004037565b80601f0160208091040260200160405190810160405280929190818152602001828054620011089062004037565b8015620011595780601f106200112d5761010080835404028352916020019162001159565b820191906000526020600020905b8154815290600101906020018083116200113b57829003601f168201915b505050505092505050919050565b806200117381620040b5565b91505062001091565b505060408051602081019091526000815292915050565b60006127108511156040518060400160405280600d81526020016c494e56414c49445f56414c554560981b81525090620011e25760405162461bcd60e51b8152600401620009e0919062003ab7565b5060408051808201909152600d81526c494e56414c49445f56414c554560981b60208201526127108511156200122d5760405162461bcd60e51b8152600401620009e0919062003ab7565b5060408051808201909152600d81526c494e56414c49445f56414c554560981b602082015283620012735760405162461bcd60e51b8152600401620009e0919062003ab7565b506020820135158015906200128c575060146020830135105b6040518060400160405280600d81526020016c494e56414c49445f56414c554560981b81525090620012d35760405162461bcd60e51b8152600401620009e0919062003ab7565b50600190505b949350505050565b60c95460408051808201909152600b81526a4e4f545f5345525649434560a81b60208201526000916001600160a01b03163314620013345760405162461bcd60e51b8152600401620009e0919062003ab7565b5060d0600081546200134690620040b5565b919050819055905060405180608001604052808660048111156200136e576200136e62003857565b8152602001876001600160a01b0316815260200185815260200184848080601f016020809104026020016040519081016040528093929190818152602001838380828437600092018290525093909452505083815260cf602052604090208251815491925090829060ff19166001836004811115620013f157620013f162003857565b0217905550602082015181546001600160a01b0390911661010002610100600160a81b031990911617815560408201516001820155606082015160028201906200143c908262004123565b509050507fbf77faf7ee014713665eccb0c0dfb80c62f931e839792d57c63844ea7c4ad7328587866040516200147593929190620042ac565b60405180910390a195945050505050565b6001600160a01b037f0000000000000000000000000000000000000000000000000000000000000000163003620014d15760405162461bcd60e51b8152600401620009e09062004214565b7f00000000000000000000000000000000000000000000000000000000000000006001600160a01b03166200151c60008051602062004f1c833981519152546001600160a01b031690565b6001600160a01b031614620015455760405162461bcd60e51b8152600401620009e09062004260565b620015508262003100565b6200155e828260016200310a565b5050565b60d560205260009081526040902080546200157d9062004037565b80601f0160208091040260200160405190810160405280929190818152602001828054620015ab9062004037565b8015620015fc5780601f10620015d057610100808354040283529160200191620015fc565b820191906000526020600020905b815481529060010190602001808311620015de57829003601f168201915b505050505081565b60d26020526000908152604090208054600182018054919291620016289062004037565b80601f0160208091040260200160405190810160405280929190818152602001828054620016569062004037565b8015620016a75780601f106200167b57610100808354040283529160200191620016a7565b820191906000526020600020905b8154815290600101906020018083116200168957829003601f168201915b505050505090806002018054620016be9062004037565b80601f0160208091040260200160405190810160405280929190818152602001828054620016ec9062004037565b80156200173d5780601f1062001711576101008083540402835291602001916200173d565b820191906000526020600020905b8154815290600101906020018083116200171f57829003601f168201915b50505050600383015460048401546005909401549293909260ff821692506101009091046001600160a01b03169087565b6000306001600160a01b037f00000000000000000000000000000000000000000000000000000000000000001614620018105760405162461bcd60e51b815260206004820152603860248201527f555550535570677261646561626c653a206d757374206e6f742062652063616c60448201527f6c6564207468726f7567682064656c656761746563616c6c00000000000000006064820152608401620009e0565b5060008051602062004f1c83398151915290565b60d660205260009081526040902080546200157d9062004037565b62001849620030a4565b62001855600062003282565b565b62001861620030a4565b600082815260d2602052604081206004015460ff1660018111156200188a576200188a62003857565b146040518060400160405280600d81526020016c5245434f52445f494e5f55534560981b81525090620018d25760405162461bcd60e51b8152600401620009e0919062003ab7565b50600091825260d2602052604090912060050155565b600080620018ff6101608501610140860162003930565b6001600160a01b031614620019d2576000620019246101608501610140860162003930565b6001600160a01b03166318160ddd6040518163ffffffff1660e01b8152600401602060405180830381865afa15801562001962573d6000803e3d6000fd5b505050506040513d601f19601f82011682018060405250810190620019889190620042d6565b116040518060400160405280600d81526020016c24a72b20a624a22faa27a5a2a760991b81525090620019d05760405162461bcd60e51b8152600401620009e0919062003ab7565b505b816001600160a01b031663d598d4c96040518163ffffffff1660e01b8152600401602060405180830381865afa15801562001a11573d6000803e3d6000fd5b505050506040513d601f19601f8201168201806040525081019062001a379190620042f0565b6001600160a01b031663e76829286040518163ffffffff1660e01b8152600401602060405180830381865afa15801562001a75573d6000803e3d6000fd5b505050506040513d601f19601f8201168201806040525081019062001a9b9190620042d6565b836020013510156040518060400160405280600f81526020016e0494e56414c49445f4841524443415608c1b8152509062001aeb5760405162461bcd60e51b8152600401620009e0919062003ab7565b506001826001600160a01b03166330fa738c6040518163ffffffff1660e01b8152600401602060405180830381865afa15801562001b2d573d6000803e3d6000fd5b505050506040513d601f19601f8201168201806040525081019062001b53919062004310565b600281111562001b675762001b6762003857565b0362001db2576000826001600160a01b03166318160ddd6040518163ffffffff1660e01b8152600401602060405180830381865afa15801562001bae573d6000803e3d6000fd5b505050506040513d601f19601f8201168201806040525081019062001bd49190620042d6565b836001600160a01b031663355274ea6040518163ffffffff1660e01b8152600401602060405180830381865afa15801562001c13573d6000803e3d6000fd5b505050506040513d601f19601f8201168201806040525081019062001c399190620042d6565b62001c45919062004333565b9050808460200135111560405180606001604052806021815260200162004f95602191399062001c8a5760405162461bcd60e51b8152600401620009e0919062003ab7565b5080836001600160a01b031663d598d4c96040518163ffffffff1660e01b8152600401602060405180830381865afa15801562001ccb573d6000803e3d6000fd5b505050506040513d601f19601f8201168201806040525081019062001cf19190620042f0565b604051639d838ad360e01b8152602087013560048201526001600160a01b039190911690639d838ad390602401602060405180830381865afa15801562001d3c573d6000803e3d6000fd5b505050506040513d601f19601f8201168201806040525081019062001d629190620042d6565b62001d729060208701356200409f565b111560405180606001604052806032815260200162004f63603291399062001daf5760405162461bcd60e51b8152600401620009e0919062003ab7565b50505b6103e883606001351015801562001deb5750670de0b6b3a764000062001dde6060850135853562004349565b10158062001deb57508235155b6040518060400160405280600d81526020016c494e56414c49445f56414c554560981b8152509062001e325760405162461bcd60e51b8152600401620009e0919062003ab7565b50600190505b92915050565b60c95460408051808201909152600b81526a4e4f545f5345525649434560a81b60208201526000918291906001600160a01b0316331462001e945760405162461bcd60e51b8152600401620009e0919062003ab7565b5060d15460015b81811162001f6157600081815260d260205260409020548614801562001ed15750600081815260d2602052604090206003015485145b801562001f045750600081815260d2602052604081206004015460ff16600181111562001f025762001f0262003857565b145b1562001f4c57600090815260d260205260409020600481018054600160ff1990911617908190556005909101546101009091046001600160a01b03169350915062001f6b9050565b8062001f5881620040b5565b91505062001e9b565b5060008092509250505b9250929050565b600054610100900460ff161580801562001f935750600054600160ff909116105b8062001faf5750303b15801562001faf575060005460ff166001145b620020145760405162461bcd60e51b815260206004820152602e60248201527f496e697469616c697a61626c653a20636f6e747261637420697320616c72656160448201526d191e481a5b9a5d1a585b1a5e995960921b6064820152608401620009e0565b6000805460ff19166001179055801562002038576000805461ff0019166101001790555b62002042620032d4565b6200204c62003308565b600060d155801562001085576000805461ff0019169055604051600181527f7f26b83ff96e1f2b6a682f133852f6798a09c465da95921460cefb38474024989060200160405180910390a150565b60cd602052600090815260409020805460018201546002830180546001600160a01b03909316939192620020ce9062004037565b80601f0160208091040260200160405190810160405280929190818152602001828054620020fc9062004037565b80156200214d5780601f1062002121576101008083540402835291602001916200214d565b820191906000526020600020905b8154815290600101906020018083116200212f57829003601f168201915b5050505050905083565b62002161620030a4565b600060d1600081546200217490620040b5565b9190508190559050600080868686604051602001620021969392919062004363565b60408051601f198184030181529190528051602090910120905060015b838110156200225e57600081815260d26020908152604080832080549151620021e393600190920191016200438f565b60408051601f19818403018152919052805160209091012090506001600083815260d2602052604090206004015460ff16600181111562002228576200222862003857565b0362002235575062002249565b8083036200224757819350506200225e565b505b806200225581620040b5565b915050620021b3565b5060408051808201909152600a8152694e4f5f434f4d50414e5960b01b602082015282620022a15760405162461bcd60e51b8152600401620009e0919062003ab7565b5050600090815260d2602052604090206005019190915550505050565b620022c8620030a4565b8483148015620022d757508481145b6040518060400160405280600d81526020016c494e56414c49445f56414c554560981b815250906200231e5760405162461bcd60e51b8152600401620009e0919062003ab7565b5060005b85811015620024c9576200236487878381811062002344576200234462004073565b90506020020160208101906200235b919062003930565b60d39062003332565b604051806040016040528060138152602001721053149150511657d5d2125511531254d51151606a1b81525090620023b15760405162461bcd60e51b8152600401620009e0919062003ab7565b50848482818110620023c757620023c762004073565b9050602002810190620023db91906200441a565b60d560008a8a86818110620023f457620023f462004073565b90506020020160208101906200240b919062003930565b6001600160a01b031681526020810191909152604001600020916200243291908362004463565b5082828281811062002448576200244862004073565b90506020028101906200245c91906200441a565b60d660008a8a8681811062002475576200247562004073565b90506020020160208101906200248c919062003930565b6001600160a01b03168152602081019190915260400160002091620024b391908362004463565b5080620024c081620040b5565b91505062002322565b50505050505050565b620024dc620030a4565b60005b818110156200258e576200252183838381811062002501576200250162004073565b905060200201602081019062002518919062003930565b60d39062003350565b6040518060400160405280601781526020017f414c52454144595f4e4f545f57484954454c495354454400000000000000000081525090620025785760405162461bcd60e51b8152600401620009e0919062003ab7565b50806200258581620040b5565b915050620024df565b505050565b600062001e3860d38362003367565b620025ac620030a4565b60408051808201909152600c81526b414444524553535f5a45524f60a01b60208201526001600160a01b038216620025f95760405162461bcd60e51b8152600401620009e0919062003ab7565b5060c980546001600160a01b0319166001600160a01b0392909216919091179055565b60008060015b60d15481116200269b57600081815260d2602052604090205484148015620026705750600081815260d2602052604081206004015460ff1660018111156200266e576200266e62003857565b145b156200268657620026836001836200409f565b91505b806200269281620040b5565b91505062002622565b5092915050565b6060620026b060d36200338a565b905090565b60d1546000908190819060015b8181116200279a57600081815260d2602052604090208054600382015460049092015490919060ff168983141580620026fb5750888214155b80156200271c575060008160018111156200271a576200271a62003857565b145b156200272757600195505b89831480156200273657508882145b8015620027575750600081600181111562002755576200275562003857565b145b156200278157505050600090815260d2602052604090206005015460029450925062001f6b915050565b50505080806200279190620040b5565b915050620026c2565b509095600095509350505050565b60c960009054906101000a90046001600160a01b03166001600160a01b0316638da5cb5b6040518163ffffffff1660e01b8152600401602060405180830381865afa158015620027fc573d6000803e3d6000fd5b505050506040513d601f19601f82011682018060405250810190620028229190620042f0565b6001600160a01b0316336001600160a01b031614604051806040016040528060118152602001702727aa2fa9a2a92b24a1a2afa7aba722a960791b81525090620028815760405162461bcd60e51b8152600401620009e0919062003ab7565b50600085118015620028935750835115155b8015620028a05750825115155b8015620028ad5750600082115b6040518060400160405280600a81526020016956414c55455f5a45524f60b01b81525090620028f15760405162461bcd60e51b8152600401620009e0919062003ab7565b50600085856040516020016200290992919062004530565b604051602081830303815290604052805190602001209050600060d1600081546200293490620040b5565b9182905550905060015b81811015620029e457600081815260d260209081526040918290208054925186936200297193909260010191016200438f565b6040516020818303038152906040528051906020012014156040518060400160405280600b81526020016a24a72b20a624a22fa2a4a760a91b81525090620029ce5760405162461bcd60e51b8152600401620009e0919062003ab7565b5080620029db81620040b5565b9150506200293e565b5060c954604080516362d3d97560e11b815290516000926001600160a01b03169163c5a7b2ea9160048083019260209291908290030181865afa15801562002a30573d6000803e3d6000fd5b505050506040513d601f19601f8201168201806040525081019062002a569190620042f0565b60405162002a649062003814565b6001600160a01b039091168152604060208201819052600090820152606001604051809103906000f08015801562002aa0573d6000803e3d6000fd5b50604051632318e87160e11b81529091506001600160a01b03821690634631d0e29062002ada908b908b908b908b90899060040162004558565b600060405180830381600087803b15801562002af557600080fd5b505af115801562002b0a573d6000803e3d6000fd5b505050506040518060e001604052808981526020018881526020018781526020018681526020016000600181111562002b475762002b4762003857565b81526001600160a01b0383166020808301919091526040918201879052600085815260d28252919091208251815590820151600182019062002b8a908262004123565b506040820151600282019062002ba1908262004123565b5060608201516003820155608082015160048201805460ff19166001838181111562002bd15762002bd162003857565b021790555060a08201518160040160016101000a8154816001600160a01b0302191690836001600160a01b0316021790555060c08201518160050155905050600060cb6000815462002c2390620040b5565b918290555060408051606081019091526001600160a01b03841681529091506020810160018152604080516020818101835260008083529381019190915284835260ca81529120825181546001600160a01b039091166001600160a01b031982168117835592840151919283916001600160a81b03191617600160a01b83600381111562002cb55762002cb562003857565b02179055506040820151600182019062002cd0908262004123565b5050506001600160a01b038216600090815260cc602052604090819020829055517f30ae76c641f7b77628da0dd91b34591e5b1dc7422220e5eb1080af2adfa142ef9062002d259083908590600190620041ef565b60405180910390a1505050505050505050565b60ca60205260009081526040902080546001820180546001600160a01b03831693600160a01b90930460ff16929190620020ce9062004037565b60ce5460009060015b81811162002de057600081815260cd6020526040902080546001909101546001600160a01b039182169187168214801562002db557508581145b1562002dc8578294505050505062001e38565b5050808062002dd790620040b5565b91505062002d7b565b506000949350505050565b62002df5620030a4565b600060d16000815462002e0890620040b5565b91829055509050600060015b8281101562002e9f57600081815260d260205260409020600401546001600160a01b036101008204169060019060ff168181111562002e575762002e5762003857565b0362002e64575062002e8a565b806001600160a01b0316866001600160a01b03160362002e88578192505062002e9f565b505b8062002e9681620040b5565b91505062002e14565b5060408051808201909152600a8152694e4f5f434f4d50414e5960b01b60208201528162002ee25760405162461bcd60e51b8152600401620009e0919062003ab7565b50600090815260d260205260409020600501919091555050565b62002f06620030a4565b6001600160a01b03811662002f6d5760405162461bcd60e51b815260206004820152602660248201527f4f776e61626c653a206e6577206f776e657220697320746865207a65726f206160448201526564647265737360d01b6064820152608401620009e0565b620010858162003282565b60c95460408051808201909152600b81526a4e4f545f5345525649434560a81b60208201526000916001600160a01b0316331462002fcb5760405162461bcd60e51b8152600401620009e0919062003ab7565b5060ce6000815462002fdd90620040b5565b9182905550604080516060810182526001600160a01b038681168252602080830187815284518083018652600080825285870191825287815260cd90935294909120835181546001600160a01b0319169316929092178255516001820155915192935091600282019062003052908262004123565b5050604080518381526001600160a01b03861660208201529081018490527f275b6fbf6c9e793a28d01c614ff750fb316acacb6c25f06fdb8ac72d9dbabb08915060600160405180910390a192915050565b6033546001600160a01b03163314620018555760405162461bcd60e51b815260206004820181905260248201527f4f776e61626c653a2063616c6c6572206973206e6f7420746865206f776e65726044820152606401620009e0565b62001085620030a4565b7f4910fdfa16fed3260ed0e7147f7cc6da11a60208b5b9406d12a635614ffd91435460ff161562003140576200258e8362003399565b826001600160a01b03166352d1902d6040518163ffffffff1660e01b8152600401602060405180830381865afa9250505080156200319d575060408051601f3d908101601f191682019092526200319a91810190620042d6565b60015b620032025760405162461bcd60e51b815260206004820152602e60248201527f45524331393637557067726164653a206e657720696d706c656d656e7461746960448201526d6f6e206973206e6f74205555505360901b6064820152608401620009e0565b60008051602062004f1c8339815191528114620032745760405162461bcd60e51b815260206004820152602960248201527f45524331393637557067726164653a20756e737570706f727465642070726f786044820152681a58589b195555525160ba1b6064820152608401620009e0565b506200258e83838362003438565b603380546001600160a01b038381166001600160a01b0319831681179093556040519116919082907f8be0079c531659141344cd1fd0a4f28419497f9722a3daafe3b4186f6b6457e090600090a35050565b600054610100900460ff16620032fe5760405162461bcd60e51b8152600401620009e0906200459c565b6200185562003469565b600054610100900460ff16620018555760405162461bcd60e51b8152600401620009e0906200459c565b600062003349836001600160a01b0384166200349e565b9392505050565b600062003349836001600160a01b038416620034f0565b6001600160a01b0381166000908152600183016020526040812054151562003349565b606060006200334983620035f4565b6001600160a01b0381163b620034085760405162461bcd60e51b815260206004820152602d60248201527f455243313936373a206e657720696d706c656d656e746174696f6e206973206e60448201526c1bdd08184818dbdb9d1c9858dd609a1b6064820152608401620009e0565b60008051602062004f1c83398151915280546001600160a01b0319166001600160a01b0392909216919091179055565b620034438362003652565b600082511180620034515750805b156200258e5762003463838362003694565b50505050565b600054610100900460ff16620034935760405162461bcd60e51b8152600401620009e0906200459c565b620018553362003282565b6000818152600183016020526040812054620034e75750815460018181018455600084815260208082209093018490558454848252828601909352604090209190915562001e38565b50600062001e38565b60008181526001830160205260408120548015620035e95760006200351760018362004333565b85549091506000906200352d9060019062004333565b90508181146200359957600086600001828154811062003551576200355162004073565b906000526020600020015490508087600001848154811062003577576200357762004073565b6000918252602080832090910192909255918252600188019052604090208390555b8554869080620035ad57620035ad620045e7565b60019003818190600052602060002001600090559055856001016000868152602001908152602001600020600090556001935050505062001e38565b600091505062001e38565b6060816000018054806020026020016040519081016040528092919081815260200182805480156200364657602002820191906000526020600020905b81548152602001906001019080831162003631575b50505050509050919050565b6200365d8162003399565b6040516001600160a01b038216907fbc7cd75a20ee27fd9adebab32041f755214dbc6bffa90cc0225b39da2e5c2d3b90600090a250565b60606001600160a01b0383163b620036fe5760405162461bcd60e51b815260206004820152602660248201527f416464726573733a2064656c65676174652063616c6c20746f206e6f6e2d636f6044820152651b9d1c9858dd60d21b6064820152608401620009e0565b600080846001600160a01b0316846040516200371b9190620045fd565b600060405180830381855af49150503d806000811462003758576040519150601f19603f3d011682016040523d82523d6000602084013e6200375d565b606091505b509150915062003788828260405180606001604052806027815260200162004f3c6027913962003791565b95945050505050565b60608315620037a257508162003349565b620033498383815115620037b95781518083602001fd5b8060405162461bcd60e51b8152600401620009e0919062003ab7565b508054620037e39062004037565b6000825580601f10620037f4575050565b601f01602090049060005260206000209081019062001085919062003822565b610900806200461c83390190565b5b8082111562003839576000815560010162003823565b5090565b6000602082840312156200385057600080fd5b5035919050565b634e487b7160e01b600052602160045260246000fd5b6005811062003880576200388062003857565b9052565b60005b83811015620038a157818101518382015260200162003887565b50506000910152565b60008151808452620038c481602086016020860162003884565b601f01601f19169290920160200192915050565b620038e481866200386d565b60018060a01b0384166020820152826040820152608060608201526000620039106080830184620038aa565b9695505050505050565b6001600160a01b03811681146200108557600080fd5b6000602082840312156200394357600080fd5b813562003349816200391a565b6020808252825182820181905260009190848201906040850190845b818110156200398a578351835292840192918401916001016200396c565b50909695505050505050565b634e487b7160e01b600052604160045260246000fd5b60006001600160401b0380841115620039c957620039c962003996565b604051601f8501601f19908116603f01168101908282118183101715620039f457620039f462003996565b8160405280935085815286868601111562003a0e57600080fd5b858560208301376000602087830101525050509392505050565b600082601f83011262003a3a57600080fd5b6200334983833560208501620039ac565b60008060006060848603121562003a6157600080fd5b833562003a6e816200391a565b925060208401356004811062003a8357600080fd5b915060408401356001600160401b0381111562003a9f57600080fd5b62003aad8682870162003a28565b9150509250925092565b602081526000620033496020830184620038aa565b6000806000806101a080868803121562003ae557600080fd5b85359450602086013593506040860135925086818701111562003b0757600080fd5b509295919450926060019150565b60008083601f84011262003b2857600080fd5b5081356001600160401b0381111562003b4057600080fd5b60208301915083602082850101111562001f6b57600080fd5b60008060008060006080868803121562003b7257600080fd5b853562003b7f816200391a565b945060208601356005811062003b9457600080fd5b93506040860135925060608601356001600160401b0381111562003bb757600080fd5b62003bc58882890162003b15565b969995985093965092949392505050565b6000806040838503121562003bea57600080fd5b823562003bf7816200391a565b915060208301356001600160401b0381111562003c1357600080fd5b8301601f8101851362003c2557600080fd5b62003c3685823560208401620039ac565b9150509250929050565b87815260e06020820152600062003c5b60e0830189620038aa565b828103604084015262003c6f8189620038aa565b9150508560608301526002851062003c8b5762003c8b62003857565b60808201949094526001600160a01b039290921660a083015260c090910152949350505050565b6004811062003880576200388062003857565b6020810162001e38828462003cb2565b6000806040838503121562003ce957600080fd5b50508035926020909101359150565b6000806040838503121562003d0c57600080fd5b82356001600160401b0381111562003d2357600080fd5b83016101a0818603121562003d3757600080fd5b9150602083013562003d49816200391a565b809150509250929050565b60018060a01b0384168152826020820152606060408201526000620037886060830184620038aa565b6000806000806060858703121562003d9457600080fd5b843562003da1816200391a565b935060208501356001600160401b0381111562003dbd57600080fd5b62003dcb8782880162003b15565b9598909750949560400135949350505050565b60008083601f84011262003df157600080fd5b5081356001600160401b0381111562003e0957600080fd5b6020830191508360208260051b850101111562001f6b57600080fd5b6000806000806000806060878903121562003e3f57600080fd5b86356001600160401b038082111562003e5757600080fd5b62003e658a838b0162003dde565b9098509650602089013591508082111562003e7f57600080fd5b62003e8d8a838b0162003dde565b9096509450604089013591508082111562003ea757600080fd5b5062003eb689828a0162003dde565b979a9699509497509295939492505050565b6000806020838503121562003edc57600080fd5b82356001600160401b0381111562003ef357600080fd5b62003f018582860162003dde565b90969095509350505050565b6020808252825182820181905260009190848201906040850190845b818110156200398a5783516001600160a01b03168352928401929184019160010162003f29565b600080600080600060a0868803121562003f6957600080fd5b8535945060208601356001600160401b038082111562003f8857600080fd5b62003f9689838a0162003a28565b9550604088013591508082111562003fad57600080fd5b5062003fbc8882890162003a28565b9598949750949560608101359550608001359392505050565b6001600160a01b038416815262003ff0602082018462003cb2565b606060408201526000620037886060830184620038aa565b600080604083850312156200401c57600080fd5b823562004029816200391a565b946020939093013593505050565b600181811c908216806200404c57607f821691505b6020821081036200406d57634e487b7160e01b600052602260045260246000fd5b50919050565b634e487b7160e01b600052603260045260246000fd5b634e487b7160e01b600052601160045260246000fd5b8082018082111562001e385762001e3862004089565b600060018201620040ca57620040ca62004089565b5060010190565b601f8211156200258e57600081815260208120601f850160051c81016020861015620040fa5750805b601f850160051c820191505b818110156200411b5782815560010162004106565b505050505050565b81516001600160401b038111156200413f576200413f62003996565b620041578162004150845462004037565b84620040d1565b602080601f8311600181146200418f5760008415620041765750858301515b600019600386901b1c1916600185901b1785556200411b565b600085815260208120601f198616915b82811015620041c0578886015182559484019460019091019084016200419f565b5085821015620041df5787850151600019600388901b60f8161c191681555b5050505050600190811b01905550565b8381526001600160a01b038316602082015260608101620012d9604083018462003cb2565b6020808252602c908201527f46756e6374696f6e206d7573742062652063616c6c6564207468726f7567682060408201526b19195b1959d85d1958d85b1b60a21b606082015260800190565b6020808252602c908201527f46756e6374696f6e206d7573742062652063616c6c6564207468726f7567682060408201526b6163746976652070726f787960a01b606082015260800190565b60608101620042bc82866200386d565b6001600160a01b0393909316602082015260400152919050565b600060208284031215620042e957600080fd5b5051919050565b6000602082840312156200430357600080fd5b815162003349816200391a565b6000602082840312156200432357600080fd5b8151600381106200334957600080fd5b8181038181111562001e385762001e3862004089565b808202811582820484141762001e385762001e3862004089565b6bffffffffffffffffffffffff198460601b168152818360148301376000910160140190815292915050565b8281526000602060008454620043a58162004037565b60018281168015620043c05760018114620043da576200440c565b60ff1984168887015282151583028801860194506200440c565b886000528560002060005b84811015620044025781548a8201890152908301908701620043e5565b5050858389010194505b509298975050505050505050565b6000808335601e198436030181126200443257600080fd5b8301803591506001600160401b038211156200444d57600080fd5b60200191503681900382131562001f6b57600080fd5b6001600160401b038311156200447d576200447d62003996565b62004495836200448e835462004037565b83620040d1565b6000601f841160018114620044cc5760008515620044b35750838201355b600019600387901b1c1916600186901b17835562004529565b600083815260209020601f19861690835b82811015620044ff5786850135825560209485019460019092019101620044dd565b50868210156200451d5760001960f88860031b161c19848701351681555b505060018560011b0183555b5050505050565b828152600082516200454a81602085016020870162003884565b919091016020019392505050565b85815260a0602082015260006200457360a0830187620038aa565b8281036040840152620045878187620038aa565b60608401959095525050608001529392505050565b6020808252602b908201527f496e697469616c697a61626c653a20636f6e7472616374206973206e6f74206960408201526a6e697469616c697a696e6760a81b606082015260800190565b634e487b7160e01b600052603160045260246000fd5b600082516200461181846020870162003884565b919091019291505056fe60806040526040516109003803806109008339810160408190526100229161045b565b61002e82826000610035565b5050610585565b61003e83610100565b6040516001600160a01b038416907f1cf3b03a6cf19fa2baba4df148e9dcabedea7f8a5c07840e207e5c089be95d3e90600090a260008251118061007f5750805b156100fb576100f9836001600160a01b0316635c60da1b6040518163ffffffff1660e01b8152600401602060405180830381865afa1580156100c5573d6000803e3d6000fd5b505050506040513d601f19601f820116820180604052508101906100e9919061051b565b836102a360201b6100291760201c565b505b505050565b610113816102cf60201b6100551760201c565b6101725760405162461bcd60e51b815260206004820152602560248201527f455243313936373a206e657720626561636f6e206973206e6f74206120636f6e6044820152641d1c9858dd60da1b60648201526084015b60405180910390fd5b6101e6816001600160a01b0316635c60da1b6040518163ffffffff1660e01b8152600401602060405180830381865afa1580156101b3573d6000803e3d6000fd5b505050506040513d601f19601f820116820180604052508101906101d7919061051b565b6102cf60201b6100551760201c565b61024b5760405162461bcd60e51b815260206004820152603060248201527f455243313936373a20626561636f6e20696d706c656d656e746174696f6e206960448201526f1cc81b9bdd08184818dbdb9d1c9858dd60821b6064820152608401610169565b806102827fa3f0ad74e5423aebfd80d3ef4346578335a9a72aeaee59ff6cb3582b35133d5060001b6102de60201b6100641760201c565b80546001600160a01b0319166001600160a01b039290921691909117905550565b60606102c883836040518060600160405280602781526020016108d9602791396102e1565b9392505050565b6001600160a01b03163b151590565b90565b6060600080856001600160a01b0316856040516102fe9190610536565b600060405180830381855af49150503d8060008114610339576040519150601f19603f3d011682016040523d82523d6000602084013e61033e565b606091505b5090925090506103508683838761035a565b9695505050505050565b606083156103c95782516000036103c2576001600160a01b0385163b6103c25760405162461bcd60e51b815260206004820152601d60248201527f416464726573733a2063616c6c20746f206e6f6e2d636f6e74726163740000006044820152606401610169565b50816103d3565b6103d383836103db565b949350505050565b8151156103eb5781518083602001fd5b8060405162461bcd60e51b81526004016101699190610552565b80516001600160a01b038116811461041c57600080fd5b919050565b634e487b7160e01b600052604160045260246000fd5b60005b8381101561045257818101518382015260200161043a565b50506000910152565b6000806040838503121561046e57600080fd5b61047783610405565b60208401519092506001600160401b038082111561049457600080fd5b818501915085601f8301126104a857600080fd5b8151818111156104ba576104ba610421565b604051601f8201601f19908116603f011681019083821181831017156104e2576104e2610421565b816040528281528860208487010111156104fb57600080fd5b61050c836020830160208801610437565b80955050505050509250929050565b60006020828403121561052d57600080fd5b6102c882610405565b60008251610548818460208701610437565b9190910192915050565b6020815260008251806020840152610571816040850160208701610437565b601f01601f19169190910160400192915050565b610345806105946000396000f3fe60806040523661001357610011610017565b005b6100115b610027610022610067565b610100565b565b606061004e83836040518060600160405280602781526020016102e960279139610124565b9392505050565b6001600160a01b03163b151590565b90565b600061009a7fa3f0ad74e5423aebfd80d3ef4346578335a9a72aeaee59ff6cb3582b35133d50546001600160a01b031690565b6001600160a01b0316635c60da1b6040518163ffffffff1660e01b8152600401602060405180830381865afa1580156100d7573d6000803e3d6000fd5b505050506040513d601f19601f820116820180604052508101906100fb919061024c565b905090565b3660008037600080366000845af43d6000803e80801561011f573d6000f35b3d6000fd5b6060600080856001600160a01b0316856040516101419190610299565b600060405180830381855af49150503d806000811461017c576040519150601f19603f3d011682016040523d82523d6000602084013e610181565b606091505b50915091506101928683838761019c565b9695505050505050565b60608315610210578251600003610209576001600160a01b0385163b6102095760405162461bcd60e51b815260206004820152601d60248201527f416464726573733a2063616c6c20746f206e6f6e2d636f6e747261637400000060448201526064015b60405180910390fd5b508161021a565b61021a8383610222565b949350505050565b8151156102325781518083602001fd5b8060405162461bcd60e51b815260040161020091906102b5565b60006020828403121561025e57600080fd5b81516001600160a01b038116811461004e57600080fd5b60005b83811015610290578181015183820152602001610278565b50506000910152565b600082516102ab818460208701610275565b9190910192915050565b60208152600082518060208401526102d4816040850160208701610275565b601f01601f1916919091016040019291505056fe416464726573733a206c6f772d6c6576656c2064656c65676174652063616c6c206661696c6564a264697066735822122022a6bf5ebbb7518c40e703958b5c8e4d70ca6715c1e1ccf9e9591bfc86e066d164736f6c63430008110033416464726573733a206c6f772d6c6576656c2064656c65676174652063616c6c206661696c6564360894a13ba1a3210667c828492db98dca3e2076cc3735a920a3ca505d382bbc416464726573733a206c6f772d6c6576656c2064656c65676174652063616c6c206661696c6564484152444341505f414e445f50524f544f434f4c5f4645455f4f564552464c4f575f52454d41494e494e475f535550504c59484152444341505f4f564552464c4f575f52454d41494e494e475f535550504c59a26469706673582212203b8611c66440a617c560671278fbe9222b0587c5dba82bcb7f526a4dfb2b611264736f6c63430008110033",
  "linkReferences": {},
  "deployedLinkReferences": {}
}