{
  "_format": "hh-sol-artifact-1",
  "contractName": "Pool",
  "sourceName": "contracts/Pool.sol",
  "abi": [
    {
      "inputs": [],
      "stateMutability": "nonpayable",
      "type": "constructor"
    },
    {
      "anonymous": false,
      "inputs": [
        {
          "indexed": false,
          "internalType": "bytes",
          "name": "data",
          "type": "bytes"
        }
      ],
      "name": "ErrorCaugth",
      "type": "event"
    },
    {
      "anonymous": false,
      "inputs": [
        {
          "indexed": false,
          "internalType": "uint8",
          "name": "version",
          "type": "uint8"
        }
      ],
      "name": "Initialized",
      "type": "event"
    },
    {
      "anonymous": false,
      "inputs": [
        {
          "indexed": true,
          "internalType": "address",
          "name": "previousOwner",
          "type": "address"
        },
        {
          "indexed": true,
          "internalType": "address",
          "name": "newOwner",
          "type": "address"
        }
      ],
      "name": "OwnershipTransferred",
      "type": "event"
    },
    {
      "anonymous": false,
      "inputs": [
        {
          "indexed": false,
          "internalType": "address",
          "name": "account",
          "type": "address"
        }
      ],
      "name": "Paused",
      "type": "event"
    },
    {
      "anonymous": false,
      "inputs": [
        {
          "indexed": false,
          "internalType": "uint256",
          "name": "proposalId",
          "type": "uint256"
        }
      ],
      "name": "ProposalCancelled",
      "type": "event"
    },
    {
      "anonymous": false,
      "inputs": [
        {
          "indexed": false,
          "internalType": "uint256",
          "name": "proposalId",
          "type": "uint256"
        },
        {
          "indexed": false,
          "internalType": "uint256",
          "name": "quorum",
          "type": "uint256"
        },
        {
          "indexed": false,
          "internalType": "address[]",
          "name": "targets",
          "type": "address[]"
        },
        {
          "indexed": false,
          "internalType": "uint256[]",
          "name": "values",
          "type": "uint256[]"
        },
        {
          "indexed": false,
          "internalType": "bytes",
          "name": "calldatas",
          "type": "bytes"
        },
        {
          "indexed": false,
          "internalType": "string",
          "name": "description",
          "type": "string"
        }
      ],
      "name": "ProposalCreated",
      "type": "event"
    },
    {
      "anonymous": false,
      "inputs": [
        {
          "indexed": false,
          "internalType": "uint256",
          "name": "proposalId",
          "type": "uint256"
        }
      ],
      "name": "ProposalExecuted",
      "type": "event"
    },
    {
      "anonymous": false,
      "inputs": [
        {
          "indexed": false,
          "internalType": "address",
          "name": "account",
          "type": "address"
        }
      ],
      "name": "Unpaused",
      "type": "event"
    },
    {
      "anonymous": false,
      "inputs": [
        {
          "indexed": false,
          "internalType": "address",
          "name": "voter",
          "type": "address"
        },
        {
          "indexed": false,
          "internalType": "uint256",
          "name": "proposalId",
          "type": "uint256"
        },
        {
          "indexed": false,
          "internalType": "uint256",
          "name": "votes",
          "type": "uint256"
        },
        {
          "indexed": false,
          "internalType": "bool",
          "name": "support",
          "type": "bool"
        }
      ],
      "name": "VoteCast",
      "type": "event"
    },
    {
      "inputs": [],
      "name": "EIN",
      "outputs": [
        {
          "internalType": "string",
          "name": "",
          "type": "string"
        }
      ],
      "stateMutability": "view",
      "type": "function"
    },
    {
      "inputs": [
        {
          "internalType": "uint256",
          "name": "totalCastVotes",
          "type": "uint256"
        },
        {
          "internalType": "uint256",
          "name": "quorumVotes",
          "type": "uint256"
        },
        {
          "components": [
            {
              "internalType": "uint256",
              "name": "ballotQuorumThreshold",
              "type": "uint256"
            },
            {
              "internalType": "uint256",
              "name": "ballotDecisionThreshold",
              "type": "uint256"
            },
            {
              "internalType": "address[]",
              "name": "targets",
              "type": "address[]"
            },
            {
              "internalType": "uint256[]",
              "name": "values",
              "type": "uint256[]"
            },
            {
              "internalType": "bytes",
              "name": "callData",
              "type": "bytes"
            },
            {
              "internalType": "uint256",
              "name": "startBlock",
              "type": "uint256"
            },
            {
              "internalType": "uint256",
              "name": "endBlock",
              "type": "uint256"
            },
            {
              "internalType": "uint256",
              "name": "forVotes",
              "type": "uint256"
            },
            {
              "internalType": "uint256",
              "name": "againstVotes",
              "type": "uint256"
            },
            {
              "internalType": "bool",
              "name": "executed",
              "type": "bool"
            },
            {
              "internalType": "enum Governor.ProposalExecutionState",
              "name": "state",
              "type": "uint8"
            },
            {
              "internalType": "string",
              "name": "description",
              "type": "string"
            },
            {
              "internalType": "uint256",
              "name": "totalSupply",
              "type": "uint256"
            },
            {
              "internalType": "uint256",
              "name": "lastVoteBlock",
              "type": "uint256"
            },
            {
              "internalType": "enum IDispatcher.ProposalType",
              "name": "proposalType",
              "type": "uint8"
            },
            {
              "internalType": "uint256",
              "name": "execDelay",
              "type": "uint256"
            },
            {
              "internalType": "string",
              "name": "metaHash",
              "type": "string"
            },
            {
              "internalType": "address",
              "name": "token",
              "type": "address"
            }
          ],
          "internalType": "struct Governor.Proposal",
          "name": "proposal",
          "type": "tuple"
        },
        {
          "internalType": "uint256",
          "name": "totalAvailableVotes",
          "type": "uint256"
        }
      ],
      "name": "aheadOfTimeBallot",
      "outputs": [
        {
          "internalType": "enum Governor.ProposalState",
          "name": "",
          "type": "uint8"
        }
      ],
      "stateMutability": "pure",
      "type": "function"
    },
    {
      "inputs": [],
      "name": "ballotDecisionThreshold",
      "outputs": [
        {
          "internalType": "uint256",
          "name": "",
          "type": "uint256"
        }
      ],
      "stateMutability": "view",
      "type": "function"
    },
    {
      "inputs": [
        {
          "internalType": "uint256",
          "name": "",
          "type": "uint256"
        }
      ],
      "name": "ballotExecDelay",
      "outputs": [
        {
          "internalType": "uint256",
          "name": "",
          "type": "uint256"
        }
      ],
      "stateMutability": "view",
      "type": "function"
    },
    {
      "inputs": [],
      "name": "ballotLifespan",
      "outputs": [
        {
          "internalType": "uint256",
          "name": "",
          "type": "uint256"
        }
      ],
      "stateMutability": "view",
      "type": "function"
    },
    {
      "inputs": [],
      "name": "ballotQuorumThreshold",
      "outputs": [
        {
          "internalType": "uint256",
          "name": "",
          "type": "uint256"
        }
      ],
      "stateMutability": "view",
      "type": "function"
    },
    {
      "inputs": [
        {
          "internalType": "uint256",
          "name": "proposalId",
          "type": "uint256"
        },
        {
          "internalType": "uint256",
          "name": "votes",
          "type": "uint256"
        },
        {
          "internalType": "bool",
          "name": "support",
          "type": "bool"
        }
      ],
      "name": "castVote",
      "outputs": [],
      "stateMutability": "nonpayable",
      "type": "function"
    },
    {
      "inputs": [],
      "name": "dateOfIncorporation",
      "outputs": [
        {
          "internalType": "string",
          "name": "",
          "type": "string"
        }
      ],
      "stateMutability": "view",
      "type": "function"
    },
    {
      "inputs": [],
      "name": "entityType",
      "outputs": [
        {
          "internalType": "uint256",
          "name": "",
          "type": "uint256"
        }
      ],
      "stateMutability": "view",
      "type": "function"
    },
    {
      "inputs": [
        {
          "internalType": "uint256",
          "name": "proposalId",
          "type": "uint256"
        }
      ],
      "name": "executeBallot",
      "outputs": [],
      "stateMutability": "nonpayable",
      "type": "function"
    },
    {
      "inputs": [
        {
          "internalType": "address",
          "name": "user",
          "type": "address"
        },
        {
          "internalType": "uint256",
          "name": "proposalId",
          "type": "uint256"
        }
      ],
      "name": "getAgainstVotes",
      "outputs": [
        {
          "internalType": "uint256",
          "name": "",
          "type": "uint256"
        }
      ],
      "stateMutability": "view",
      "type": "function"
    },
    {
      "inputs": [],
      "name": "getBallotExecDelay",
      "outputs": [
        {
          "internalType": "uint256[10]",
          "name": "",
          "type": "uint256[10]"
        }
      ],
      "stateMutability": "view",
      "type": "function"
    },
    {
      "inputs": [
        {
          "internalType": "address",
          "name": "user",
          "type": "address"
        },
        {
          "internalType": "uint256",
          "name": "proposalId",
          "type": "uint256"
        }
      ],
      "name": "getForVotes",
      "outputs": [
        {
          "internalType": "uint256",
          "name": "",
          "type": "uint256"
        }
      ],
      "stateMutability": "view",
      "type": "function"
    },
    {
      "inputs": [
        {
          "internalType": "uint256",
          "name": "proposalId",
          "type": "uint256"
        }
      ],
      "name": "getProposal",
      "outputs": [
        {
          "components": [
            {
              "internalType": "uint256",
              "name": "ballotQuorumThreshold",
              "type": "uint256"
            },
            {
              "internalType": "uint256",
              "name": "ballotDecisionThreshold",
              "type": "uint256"
            },
            {
              "internalType": "address[]",
              "name": "targets",
              "type": "address[]"
            },
            {
              "internalType": "uint256[]",
              "name": "values",
              "type": "uint256[]"
            },
            {
              "internalType": "bytes",
              "name": "callData",
              "type": "bytes"
            },
            {
              "internalType": "uint256",
              "name": "startBlock",
              "type": "uint256"
            },
            {
              "internalType": "uint256",
              "name": "endBlock",
              "type": "uint256"
            },
            {
              "internalType": "uint256",
              "name": "forVotes",
              "type": "uint256"
            },
            {
              "internalType": "uint256",
              "name": "againstVotes",
              "type": "uint256"
            },
            {
              "internalType": "bool",
              "name": "executed",
              "type": "bool"
            },
            {
              "internalType": "enum Governor.ProposalExecutionState",
              "name": "state",
              "type": "uint8"
            },
            {
              "internalType": "string",
              "name": "description",
              "type": "string"
            },
            {
              "internalType": "uint256",
              "name": "totalSupply",
              "type": "uint256"
            },
            {
              "internalType": "uint256",
              "name": "lastVoteBlock",
              "type": "uint256"
            },
            {
              "internalType": "enum IDispatcher.ProposalType",
              "name": "proposalType",
              "type": "uint8"
            },
            {
              "internalType": "uint256",
              "name": "execDelay",
              "type": "uint256"
            },
            {
              "internalType": "string",
              "name": "metaHash",
              "type": "string"
            },
            {
              "internalType": "address",
              "name": "token",
              "type": "address"
            }
          ],
          "internalType": "struct Governor.Proposal",
          "name": "",
          "type": "tuple"
        }
      ],
      "stateMutability": "view",
      "type": "function"
    },
    {
      "inputs": [],
      "name": "getTVL",
      "outputs": [
        {
          "internalType": "uint256",
          "name": "",
          "type": "uint256"
        }
      ],
      "stateMutability": "nonpayable",
      "type": "function"
    },
    {
      "inputs": [
        {
          "internalType": "uint256",
          "name": "jurisdiction_",
          "type": "uint256"
        },
        {
          "internalType": "string",
          "name": "EIN_",
          "type": "string"
        },
        {
          "internalType": "string",
          "name": "dateOfIncorporation_",
          "type": "string"
        },
        {
          "internalType": "uint256",
          "name": "entityType_",
          "type": "uint256"
        },
        {
          "internalType": "uint256",
          "name": "metadataIndex_",
          "type": "uint256"
        }
      ],
      "name": "initialize",
      "outputs": [],
      "stateMutability": "nonpayable",
      "type": "function"
    },
    {
      "inputs": [],
      "name": "isDAO",
      "outputs": [
        {
          "internalType": "bool",
          "name": "",
          "type": "bool"
        }
      ],
      "stateMutability": "view",
      "type": "function"
    },
    {
      "inputs": [
        {
          "internalType": "contract IPool",
          "name": "pool",
          "type": "address"
        },
        {
          "internalType": "uint256",
          "name": "proposalId",
          "type": "uint256"
        },
        {
          "internalType": "uint256",
          "name": "index",
          "type": "uint256"
        }
      ],
      "name": "isDelayCleared",
      "outputs": [
        {
          "internalType": "bool",
          "name": "",
          "type": "bool"
        }
      ],
      "stateMutability": "nonpayable",
      "type": "function"
    },
    {
      "inputs": [],
      "name": "jurisdiction",
      "outputs": [
        {
          "internalType": "uint256",
          "name": "",
          "type": "uint256"
        }
      ],
      "stateMutability": "view",
      "type": "function"
    },
    {
      "inputs": [],
      "name": "lastProposalId",
      "outputs": [
        {
          "internalType": "uint256",
          "name": "",
          "type": "uint256"
        }
      ],
      "stateMutability": "view",
      "type": "function"
    },
    {
      "inputs": [
        {
          "internalType": "address",
          "name": "",
          "type": "address"
        }
      ],
      "name": "lastProposalIdForAccount",
      "outputs": [
        {
          "internalType": "uint256",
          "name": "",
          "type": "uint256"
        }
      ],
      "stateMutability": "view",
      "type": "function"
    },
    {
      "inputs": [
        {
          "internalType": "address",
          "name": "owner_",
          "type": "address"
        },
        {
          "internalType": "uint256",
          "name": "ballotQuorumThreshold_",
          "type": "uint256"
        },
        {
          "internalType": "uint256",
          "name": "ballotDecisionThreshold_",
          "type": "uint256"
        },
        {
          "internalType": "uint256",
          "name": "ballotLifespan_",
          "type": "uint256"
        },
        {
          "internalType": "uint256[10]",
          "name": "ballotExecDelay_",
          "type": "uint256[10]"
        },
        {
          "internalType": "string",
          "name": "trademark_",
          "type": "string"
        }
      ],
      "name": "launch",
      "outputs": [],
      "stateMutability": "nonpayable",
      "type": "function"
    },
    {
      "inputs": [],
      "name": "maxProposalId",
      "outputs": [
        {
          "internalType": "uint256",
          "name": "",
          "type": "uint256"
        }
      ],
      "stateMutability": "view",
      "type": "function"
    },
    {
      "inputs": [],
      "name": "metadataIndex",
      "outputs": [
        {
          "internalType": "uint256",
          "name": "",
          "type": "uint256"
        }
      ],
      "stateMutability": "view",
      "type": "function"
    },
    {
      "inputs": [],
      "name": "owner",
      "outputs": [
        {
          "internalType": "address",
          "name": "",
          "type": "address"
        }
      ],
      "stateMutability": "view",
      "type": "function"
    },
    {
      "inputs": [],
      "name": "pause",
      "outputs": [],
      "stateMutability": "nonpayable",
      "type": "function"
    },
    {
      "inputs": [],
      "name": "paused",
      "outputs": [
        {
          "internalType": "bool",
          "name": "",
          "type": "bool"
        }
      ],
      "stateMutability": "view",
      "type": "function"
    },
    {
      "inputs": [],
      "name": "poolLaunched",
      "outputs": [
        {
          "internalType": "bool",
          "name": "",
          "type": "bool"
        }
      ],
      "stateMutability": "view",
      "type": "function"
    },
    {
      "inputs": [
        {
          "internalType": "uint256",
          "name": "proposalId",
          "type": "uint256"
        }
      ],
      "name": "proposalState",
      "outputs": [
        {
          "internalType": "enum Governor.ProposalState",
          "name": "",
          "type": "uint8"
        }
      ],
      "stateMutability": "view",
      "type": "function"
    },
    {
      "inputs": [
        {
          "internalType": "address",
          "name": "target",
          "type": "address"
        },
        {
          "internalType": "uint256",
          "name": "value",
          "type": "uint256"
        },
        {
          "internalType": "bytes",
          "name": "cd",
          "type": "bytes"
        },
        {
          "internalType": "string",
          "name": "description",
          "type": "string"
        },
        {
          "internalType": "enum IDispatcher.ProposalType",
          "name": "proposalType",
          "type": "uint8"
        },
        {
          "internalType": "string",
          "name": "metaHash",
          "type": "string"
        }
      ],
      "name": "proposeSingleAction",
      "outputs": [
        {
          "internalType": "uint256",
          "name": "proposalId",
          "type": "uint256"
        }
      ],
      "stateMutability": "nonpayable",
      "type": "function"
    },
    {
      "inputs": [
        {
          "internalType": "address[]",
          "name": "targets",
          "type": "address[]"
        },
        {
          "internalType": "uint256[]",
          "name": "values",
          "type": "uint256[]"
        },
        {
          "internalType": "string",
          "name": "description",
          "type": "string"
        },
        {
          "internalType": "enum IDispatcher.ProposalType",
          "name": "proposalType",
          "type": "uint8"
        },
        {
          "internalType": "string",
          "name": "metaHash",
          "type": "string"
        },
        {
          "internalType": "address",
          "name": "token_",
          "type": "address"
        }
      ],
      "name": "proposeTransfer",
      "outputs": [
        {
          "internalType": "uint256",
          "name": "proposalId",
          "type": "uint256"
        }
      ],
      "stateMutability": "nonpayable",
      "type": "function"
    },
    {
      "inputs": [],
      "name": "renounceOwnership",
      "outputs": [],
      "stateMutability": "nonpayable",
      "type": "function"
    },
    {
      "inputs": [],
      "name": "service",
      "outputs": [
        {
          "internalType": "contract IService",
          "name": "",
          "type": "address"
        }
      ],
      "stateMutability": "view",
      "type": "function"
    },
    {
      "inputs": [
        {
          "internalType": "uint256",
          "name": "proposalId",
          "type": "uint256"
        }
      ],
      "name": "serviceCancelBallot",
      "outputs": [],
      "stateMutability": "nonpayable",
      "type": "function"
    },
    {
      "inputs": [
        {
          "internalType": "uint256",
          "name": "ballotQuorumThreshold_",
          "type": "uint256"
        },
        {
          "internalType": "uint256",
          "name": "ballotDecisionThreshold_",
          "type": "uint256"
        },
        {
          "internalType": "uint256",
          "name": "ballotLifespan_",
          "type": "uint256"
        },
        {
          "internalType": "uint256[10]",
          "name": "ballotExecDelay_",
          "type": "uint256[10]"
        }
      ],
      "name": "setGovernanceSettings",
      "outputs": [],
      "stateMutability": "nonpayable",
      "type": "function"
    },
    {
      "inputs": [
        {
          "internalType": "address",
          "name": "creator",
          "type": "address"
        },
        {
          "internalType": "uint256",
          "name": "proposalId",
          "type": "uint256"
        }
      ],
      "name": "setLastProposalIdForAccount",
      "outputs": [],
      "stateMutability": "nonpayable",
      "type": "function"
    },
    {
      "inputs": [
        {
          "internalType": "address",
          "name": "token_",
          "type": "address"
        },
        {
          "internalType": "enum IToken.TokenType",
          "name": "tokenType_",
          "type": "uint8"
        }
      ],
      "name": "setToken",
      "outputs": [],
      "stateMutability": "nonpayable",
      "type": "function"
    },
    {
      "inputs": [],
      "name": "test83212",
      "outputs": [
        {
          "internalType": "uint256",
          "name": "",
          "type": "uint256"
        }
      ],
      "stateMutability": "pure",
      "type": "function"
    },
    {
      "inputs": [
        {
          "internalType": "enum IToken.TokenType",
          "name": "",
          "type": "uint8"
        }
      ],
      "name": "tokens",
      "outputs": [
        {
          "internalType": "contract IToken",
          "name": "",
          "type": "address"
        }
      ],
      "stateMutability": "view",
      "type": "function"
    },
    {
      "inputs": [],
      "name": "trademark",
      "outputs": [
        {
          "internalType": "string",
          "name": "",
          "type": "string"
        }
      ],
      "stateMutability": "view",
      "type": "function"
    },
    {
      "inputs": [
        {
          "internalType": "address",
          "name": "newOwner",
          "type": "address"
        }
      ],
      "name": "transferOwnership",
      "outputs": [],
      "stateMutability": "nonpayable",
      "type": "function"
    },
    {
      "inputs": [],
      "name": "unpause",
      "outputs": [],
      "stateMutability": "nonpayable",
      "type": "function"
    },
    {
      "stateMutability": "payable",
      "type": "receive"
    }
  ],
  "bytecode": "0x60806040523480156200001157600080fd5b506200001c62000022565b620000e4565b600054610100900460ff16156200008f5760405162461bcd60e51b815260206004820152602760248201527f496e697469616c697a61626c653a20636f6e747261637420697320696e697469604482015266616c697a696e6760c81b606482015260840160405180910390fd5b60005460ff9081161015620000e2576000805460ff191660ff9081179091556040519081527f7f26b83ff96e1f2b6a682f133852f6798a09c465da95921460cefb38474024989060200160405180910390a15b565b61595f80620000f46000396000f3fe6080604052600436106102555760003560e01c80638da5cb5b11610139578063c7f758a8116100b6578063dc1769411161007a578063dc176941146106d6578063e1503e05146106eb578063e47bfee81461070b578063f276038314610720578063f2fde38b14610740578063f9000ba81461076057600080fd5b8063c7f758a814610635578063cc20782e14610662578063d26331d414610682578063d598d4c9146106a2578063d9107ce5146106c257600080fd5b8063a92ab316116100fd578063a92ab316146105a3578063af041a34146105b8578063b22d31cc146105e5578063bc7a4ead146105ff578063c4767b951461061557600080fd5b80638da5cb5b146104ff578063958b138e1461051457806397b3fcaa146105295780639b6415511461053e578063a66e53c91461058157600080fd5b80635c975abb116101d257806374cb30411161019657806374cb3041146104445780637c905b771461045a578063826a5d5614610470578063838453fd146104865780638456cb591461049c5780638856c0d6146104b157600080fd5b80635c975abb1461039d5780635f76808f146103c25780636080484d146103e25780636efcd85b14610402578063715018a61461042f57600080fd5b80634631d0e2116102195780634631d0e214610307578063476aa1ea146103275780634dd7036714610347578063515f723c146103675780635b975d6b1461038757600080fd5b806303f27b8714610261578063165610761461028357806323681e3d146102ae578063359146e8146102ce5780633f4ba83a146102f257600080fd5b3661025c57005b600080fd5b34801561026d57600080fd5b5061028161027c3660046149a6565b610780565b005b34801561028f57600080fd5b506102986108be565b6040516102a59190614a22565b60405180910390f35b3480156102ba57600080fd5b506102816102c9366004614a35565b61094c565b3480156102da57600080fd5b506102e460d05481565b6040519081526020016102a5565b3480156102fe57600080fd5b506102816109ef565b34801561031357600080fd5b50610281610322366004614b5d565b610acd565b34801561033357600080fd5b506102e4610342366004614a35565b610c96565b34801561035357600080fd5b50610281610362366004614a35565b610cad565b34801561037357600080fd5b50610281610382366004614bdb565b610d14565b34801561039357600080fd5b506102e460d45481565b3480156103a957600080fd5b506103b2610eb1565b60405190151581526020016102a5565b3480156103ce57600080fd5b506102e46103dd3660046149a6565b610ec4565b3480156103ee57600080fd5b506102e46103fd366004614d1e565b610eef565b34801561040e57600080fd5b506102e461041d366004614dea565b60e16020526000908152604090205481565b34801561043b57600080fd5b506102816111e0565b34801561045057600080fd5b506102e460cc5481565b34801561046657600080fd5b506102e460cf5481565b34801561047c57600080fd5b506102e460d25481565b34801561049257600080fd5b506102e460d55481565b3480156104a857600080fd5b506102816111f2565b3480156104bd57600080fd5b506104e76104cc366004614e16565b60e3602052600090815260409020546001600160a01b031681565b6040516001600160a01b0390911681526020016102a5565b34801561050b57600080fd5b506104e76112ce565b34801561052057600080fd5b5060cc546102e4565b34801561053557600080fd5b506102e46112e2565b34801561054a57600080fd5b506102e46105593660046149a6565b6001600160a01b0391909116600090815260ca60209081526040808320938352929052205490565b34801561058d57600080fd5b50610596611657565b6040516102a59190614e5a565b3480156105af57600080fd5b50610298611693565b3480156105c457600080fd5b506105d86105d3366004614e91565b6116a0565b6040516102a59190615070565b3480156105f157600080fd5b5060e2546103b29060ff1681565b34801561060b57600080fd5b506102e460ce5481565b34801561062157600080fd5b5061028161063036600461508a565b61177c565b34801561064157600080fd5b50610655610650366004614a35565b6118bc565b6040516102a59190615160565b34801561066e57600080fd5b5061028161067d3660046152d0565b611c2f565b34801561068e57600080fd5b506105d861069d366004614a35565b611df5565b3480156106ae57600080fd5b5060cd546104e7906001600160a01b031681565b3480156106ce57600080fd5b5060036102e4565b3480156106e257600080fd5b50610298612291565b3480156106f757600080fd5b506103b2610706366004615388565b61229e565b34801561071757600080fd5b506103b2612c0f565b34801561072c57600080fd5b506102e461073b3660046153bd565b612c92565b34801561074c57600080fd5b5061028161075b366004614dea565b612fea565b34801561076c57600080fd5b5061028161077b366004615463565b613060565b60cd60009054906101000a90046001600160a01b03166001600160a01b03166304e31dfb6040518163ffffffff1660e01b8152600401602060405180830381865afa1580156107d3573d6000803e3d6000fd5b505050506040513d601f19601f820116820180604052508101906107f7919061549c565b6001600160a01b0316336001600160a01b0316146040518060400160405280600e81526020016d2727aa2fa224a9a820aa21a422a960911b815250906108595760405162461bcd60e51b81526004016108509190614a22565b60405180910390fd5b5060e25460408051808201909152600c81526b1393d517d310555390d2115160a21b60208201529060ff166108a15760405162461bcd60e51b81526004016108509190614a22565b506001600160a01b03909116600090815260e16020526040902055565b60d180546108cb906154b9565b80601f01602080910402602001604051908101604052809291908181526020018280546108f7906154b9565b80156109445780601f1061091957610100808354040283529160200191610944565b820191906000526020600020905b81548152906001019060200180831161092757829003601f168201915b505050505081565b60cd5460408051808201909152600b81526a4e4f545f5345525649434560a81b6020820152906001600160a01b0316331461099a5760405162461bcd60e51b81526004016108509190614a22565b5060e25460408051808201909152600c81526b1393d517d310555390d2115160a21b60208201529060ff166109e25760405162461bcd60e51b81526004016108509190614a22565b506109ec81613332565b50565b60cd60009054906101000a90046001600160a01b03166001600160a01b0316638da5cb5b6040518163ffffffff1660e01b8152600401602060405180830381865afa158015610a42573d6000803e3d6000fd5b505050506040513d601f19601f82011682018060405250810190610a66919061549c565b6001600160a01b0316336001600160a01b031614604051806040016040528060118152602001702727aa2fa9a2a92b24a1a2afa7aba722a960791b81525090610ac25760405162461bcd60e51b81526004016108509190614a22565b50610acb61340d565b565b600054610100900460ff1615808015610aed5750600054600160ff909116105b80610b075750303b158015610b07575060005460ff166001145b610b6a5760405162461bcd60e51b815260206004820152602e60248201527f496e697469616c697a61626c653a20636f6e747261637420697320616c72656160448201526d191e481a5b9a5d1a585b1a5e995960921b6064820152608401610850565b6000805460ff191660011790558015610b8d576000805461ff0019166101001790555b610b9561345f565b336001600160a01b031663d598d4c96040518163ffffffff1660e01b8152600401602060405180830381865afa158015610bd3573d6000803e3d6000fd5b505050506040513d601f19601f82011682018060405250810190610bf7919061549c565b60cd80546001600160a01b0319166001600160a01b03929092169182179055610c1f9061348e565b60d286905560d3610c308682615539565b5060d6610c3d8582615539565b5060d583905560d48290558015610c8e576000805461ff0019169055604051600181527f7f26b83ff96e1f2b6a682f133852f6798a09c465da95921460cefb38474024989060200160405180910390a15b505050505050565b60d781600a8110610ca657600080fd5b0154905081565b610cb56134e0565b60e25460408051808201909152600c81526b1393d517d310555390d2115160a21b60208201529060ff16610cfc5760405162461bcd60e51b81526004016108509190614a22565b5060cd546109ec9082906001600160a01b0316613528565b6040805180820190915260088152671393d517d413d3d360c21b6020820152333014610d535760405162461bcd60e51b81526004016108509190614a22565b50610d5c6134e0565b60e25460408051808201909152600c81526b1393d517d310555390d2115160a21b60208201529060ff16610da35760405162461bcd60e51b81526004016108509190614a22565b5060cd60009054906101000a90046001600160a01b03166001600160a01b031663cb7e90576040518163ffffffff1660e01b8152600401602060405180830381865afa158015610df7573d6000803e3d6000fd5b505050506040513d601f19601f82011682018060405250810190610e1b919061549c565b6001600160a01b03166341a453e1858585856040518563ffffffff1660e01b8152600401610e4c94939291906155f8565b602060405180830381865afa158015610e69573d6000803e3d6000fd5b505050506040513d601f19601f82011682018060405250810190610e8d9190615620565b5060ce84905560cf83905560d0829055610eaa60d782600a61479a565b5050505050565b6000610ebf60975460ff1690565b905090565b6001600160a01b038216600090815260cb602090815260408083208484529091529020545b92915050565b60cd54604080516304e31dfb60e01b815290516000926001600160a01b0316916304e31dfb9160048083019260209291908290030181865afa158015610f39573d6000803e3d6000fd5b505050506040513d601f19601f82011682018060405250810190610f5d919061549c565b6001600160a01b0316336001600160a01b0316146040518060400160405280600e81526020016d2727aa2fa224a9a820aa21a422a960911b81525090610fb65760405162461bcd60e51b81526004016108509190614a22565b50610fbf6134e0565b60e25460408051808201909152600c81526b1393d517d310555390d2115160a21b60208201529060ff166110065760405162461bcd60e51b81526004016108509190614a22565b506111d560d05460ce5460cf548a8a604051806020016040528060008152508b60e360006001600281111561103d5761103d61505a565b600281111561104e5761104e61505a565b815260208082019290925260409081016000205460cd54825163803db96d60e01b815292516001600160a01b03928316946370a0823194929093169263803db96d92600480820193918290030181865afa1580156110b0573d6000803e3d6000fd5b505050506040513d601f19601f820116820180604052508101906110d4919061549c565b6040516001600160e01b031960e084901b1681526001600160a01b039091166004820152602401602060405180830381865afa158015611118573d6000803e3d6000fd5b505050506040513d601f19601f8201168201806040525081019061113c919061563d565b611144613e6e565b61114c613ef1565b611156919061566c565b611160919061566c565b60cd546040516323b550f560e11b8152600160048201526001600160a01b039091169063476aa1ea90602401602060405180830381865afa1580156111a9573d6000803e3d6000fd5b505050506040513d601f19601f820116820180604052508101906111cd919061563d565b8d8d8d613f50565b979650505050505050565b6111e86141f0565b610acb600061348e565b60cd60009054906101000a90046001600160a01b03166001600160a01b0316638da5cb5b6040518163ffffffff1660e01b8152600401602060405180830381865afa158015611245573d6000803e3d6000fd5b505050506040513d601f19601f82011682018060405250810190611269919061549c565b6001600160a01b0316336001600160a01b031614604051806040016040528060118152602001702727aa2fa9a2a92b24a1a2afa7aba722a960791b815250906112c55760405162461bcd60e51b81526004016108509190614a22565b50610acb61424f565b6000610ebf6033546001600160a01b031690565b60008060cd60009054906101000a90046001600160a01b03166001600160a01b0316634db4a3526040518163ffffffff1660e01b8152600401602060405180830381865afa158015611338573d6000803e3d6000fd5b505050506040513d601f19601f8201168201806040525081019061135c919061549c565b9050600060cd60009054906101000a90046001600160a01b03166001600160a01b031663cb7e90576040518163ffffffff1660e01b8152600401602060405180830381865afa1580156113b3573d6000803e3d6000fd5b505050506040513d601f19601f820116820180604052508101906113d7919061549c565b90506000816001600160a01b031663ca735cc16040518163ffffffff1660e01b8152600401600060405180830381865afa158015611419573d6000803e3d6000fd5b505050506040513d6000823e601f3d908101601f19168201604052611441919081019061567f565b90506000805b825181101561164e5760006001600160a01b031683828151811061146d5761146d61570d565b60200260200101516001600160a01b0316036114945761148d4783615723565b915061163c565b60008382815181106114a8576114a861570d565b60209081029190910101516040516370a0823160e01b81523060048201526001600160a01b03909116906370a0823190602401602060405180830381865afa1580156114f8573d6000803e3d6000fd5b505050506040513d601f19601f8201168201806040525081019061151c919061563d565b9050801561163a57856001600160a01b031663cdca1753866001600160a01b03166350eb1c438786815181106115545761155461570d565b60200260200101516040518263ffffffff1660e01b815260040161158791906001600160a01b0391909116815260200190565b600060405180830381865afa1580156115a4573d6000803e3d6000fd5b505050506040513d6000823e601f3d908101601f191682016040526115cc9190810190615736565b836040518363ffffffff1660e01b81526004016115ea9291906157ac565b6020604051808303816000875af1158015611609573d6000803e3d6000fd5b505050506040513d601f19601f8201168201806040525081019061162d919061563d565b6116379084615723565b92505b505b80611646816157ce565b915050611447565b50949350505050565b61165f6147d8565b604080516101408101918290529060d790600a9082845b815481526020019060010190808311611676575050505050905090565b60d380546108cb906154b9565b6000808360200151866116b391906157e7565b905060008460200151846116c791906157e7565b9050856116d6886127106157e7565b101580156116f55750818560e001516127106116f291906157e7565b10155b80156117125750808560e0015161271061170f91906157e7565b10155b1561172257600392505050611774565b818560e0015161271061173591906157e7565b10801561175d5750808561010001518561174f919061566c565b61175b906127106157e7565b105b1561176d57600292505050611774565b6000925050505b949350505050565b60cd5460408051808201909152600b81526a4e4f545f5345525649434560a81b6020820152906001600160a01b031633146117ca5760405162461bcd60e51b81526004016108509190614a22565b5060e25460408051808201909152600c81526b1393d517d310555390d2115160a21b60208201529060ff166118125760405162461bcd60e51b81526004016108509190614a22565b5060408051808201909152600c81526b414444524553535f5a45524f60a01b60208201526001600160a01b03831661185d5760405162461bcd60e51b81526004016108509190614a22565b508160e360008360028111156118755761187561505a565b60028111156118865761188661505a565b815260200190815260200160002060006101000a8154816001600160a01b0302191690836001600160a01b031602179055505050565b6118c46147f7565b600082815260c96020908152604091829020825161024081018452815481526001820154818401526002820180548551818602810186018752818152929593949386019383018282801561194157602002820191906000526020600020905b81546001600160a01b03168152600190910190602001808311611923575b505050505081526020016003820180548060200260200160405190810160405280929190818152602001828054801561199957602002820191906000526020600020905b815481526020019060010190808311611985575b505050505081526020016004820180546119b2906154b9565b80601f01602080910402602001604051908101604052809291908181526020018280546119de906154b9565b8015611a2b5780601f10611a0057610100808354040283529160200191611a2b565b820191906000526020600020905b815481529060010190602001808311611a0e57829003601f168201915b505050918352505060058201546020820152600682015460408201526007820154606082015260088201546080820152600982015460ff808216151560a084015260c090920191610100909104166003811115611a8a57611a8a61505a565b6003811115611a9b57611a9b61505a565b8152602001600a82018054611aaf906154b9565b80601f0160208091040260200160405190810160405280929190818152602001828054611adb906154b9565b8015611b285780601f10611afd57610100808354040283529160200191611b28565b820191906000526020600020905b815481529060010190602001808311611b0b57829003601f168201915b5050509183525050600b8201546020820152600c8201546040820152600d82015460609091019060ff166004811115611b6357611b6361505a565b6004811115611b7457611b7461505a565b8152602001600e8201548152602001600f82018054611b92906154b9565b80601f0160208091040260200160405190810160405280929190818152602001828054611bbe906154b9565b8015611c0b5780601f10611be057610100808354040283529160200191611c0b565b820191906000526020600020905b815481529060010190602001808311611bee57829003601f168201915b5050509183525050601091909101546001600160a01b031660209091015292915050565b60cd5460408051808201909152600b81526a4e4f545f5345525649434560a81b6020820152906001600160a01b03163314611c7d5760405162461bcd60e51b81526004016108509190614a22565b5060e2546040805180820190915260088152671310555390d2115160c21b60208201529060ff1615611cc25760405162461bcd60e51b81526004016108509190614a22565b5060e2805460ff19166001179055611cd98661348e565b60cd60009054906101000a90046001600160a01b03166001600160a01b031663cb7e90576040518163ffffffff1660e01b8152600401602060405180830381865afa158015611d2c573d6000803e3d6000fd5b505050506040513d601f19601f82011682018060405250810190611d50919061549c565b6001600160a01b03166341a453e1868686866040518563ffffffff1660e01b8152600401611d8194939291906157fe565b602060405180830381865afa158015611d9e573d6000803e3d6000fd5b505050506040513d601f19601f82011682018060405250810190611dc29190615620565b5060d1611dcf8282615539565b5060ce85905560cf84905560d0839055611dec60d783600a6148af565b50505050505050565b600081815260c9602090815260408083208151610240810183528154815260018201548185015260028201805484518187028101870186528181528796939586019390929190830182828015611e7457602002820191906000526020600020905b81546001600160a01b03168152600190910190602001808311611e56575b5050505050815260200160038201805480602002602001604051908101604052809291908181526020018280548015611ecc57602002820191906000526020600020905b815481526020019060010190808311611eb8575b50505050508152602001600482018054611ee5906154b9565b80601f0160208091040260200160405190810160405280929190818152602001828054611f11906154b9565b8015611f5e5780601f10611f3357610100808354040283529160200191611f5e565b820191906000526020600020905b815481529060010190602001808311611f4157829003601f168201915b505050918352505060058201546020820152600682015460408201526007820154606082015260088201546080820152600982015460ff808216151560a084015260c090920191610100909104166003811115611fbd57611fbd61505a565b6003811115611fce57611fce61505a565b8152602001600a82018054611fe2906154b9565b80601f016020809104026020016040519081016040528092919081815260200182805461200e906154b9565b801561205b5780601f106120305761010080835404028352916020019161205b565b820191906000526020600020905b81548152906001019060200180831161203e57829003601f168201915b5050509183525050600b8201546020820152600c8201546040820152600d82015460609091019060ff1660048111156120965761209661505a565b60048111156120a7576120a761505a565b8152602001600e8201548152602001600f820180546120c5906154b9565b80601f01602080910402602001604051908101604052809291908181526020018280546120f1906154b9565b801561213e5780601f106121135761010080835404028352916020019161213e565b820191906000526020600020905b81548152906001019060200180831161212157829003601f168201915b5050509183525050601091909101546001600160a01b0316602090910152610120810151909150156121735750600492915050565b8060a001516000036121885750600092915050565b600381610140015160038111156121a1576121a161505a565b036121af5750600592915050565b60006121b9613e6e565b6121c1613ef1565b6121cb919061566c565b82519091506000906121dd90836157e7565b905060008361010001518460e001516121f69190615723565b90506000612206828487876116a0565b9050600081600581111561221c5761221c61505a565b1461222b579695505050505050565b8460c00151431115612284578282101580156122655750602085015161225190836157e7565b60e0860151612262906127106157e7565b10155b15612277575060039695505050505050565b5060029695505050505050565b5060019695505050505050565b60d680546108cb906154b9565b600082815260c960209081526040808320815161024081018352815481526001820154818501526002820180548451818702810187018652818152879693958601939092919083018282801561231d57602002820191906000526020600020905b81546001600160a01b031681526001909101906020018083116122ff575b505050505081526020016003820180548060200260200160405190810160405280929190818152602001828054801561237557602002820191906000526020600020905b815481526020019060010190808311612361575b5050505050815260200160048201805461238e906154b9565b80601f01602080910402602001604051908101604052809291908181526020018280546123ba906154b9565b80156124075780601f106123dc57610100808354040283529160200191612407565b820191906000526020600020905b8154815290600101906020018083116123ea57829003601f168201915b505050918352505060058201546020820152600682015460408201526007820154606082015260088201546080820152600982015460ff808216151560a084015260c0909201916101009091041660038111156124665761246661505a565b60038111156124775761247761505a565b8152602001600a8201805461248b906154b9565b80601f01602080910402602001604051908101604052809291908181526020018280546124b7906154b9565b80156125045780601f106124d957610100808354040283529160200191612504565b820191906000526020600020905b8154815290600101906020018083116124e757829003601f168201915b5050509183525050600b8201546020820152600c8201546040820152600d82015460609091019060ff16600481111561253f5761253f61505a565b60048111156125505761255061505a565b8152602001600e8201548152602001600f8201805461256e906154b9565b80601f016020809104026020016040519081016040528092919081815260200182805461259a906154b9565b80156125e75780601f106125bc576101008083540402835291602001916125e7565b820191906000526020600020905b8154815290600101906020018083116125ca57829003601f168201915b505050505081526020016010820160009054906101000a90046001600160a01b03166001600160a01b03166001600160a01b0316815250509050600080866001600160a01b031663476aa1ea846101c00151600481111561264a5761264a61505a565b612655906001615723565b6040518263ffffffff1660e01b815260040161267391815260200190565b602060405180830381865afa158015612690573d6000803e3d6000fd5b505050506040513d601f19601f820116820180604052508101906126b4919061563d565b90506001836101c0015160048111156126cf576126cf61505a565b14806126f157506002836101c0015160048111156126ef576126ef61505a565b145b15612b9e576000876001600160a01b031663d598d4c96040518163ffffffff1660e01b8152600401602060405180830381865afa158015612736573d6000803e3d6000fd5b505050506040513d601f19601f8201168201806040525081019061275a919061549c565b6001600160a01b0316633a6596bd6040518163ffffffff1660e01b8152600401602060405180830381865afa158015612797573d6000803e3d6000fd5b505050506040513d601f19601f820116820180604052508101906127bb919061549c565b90506000846060015187815181106127d5576127d561570d565b60200260200101519050600260048111156127f2576127f261505a565b856101c0015160048111156128095761280961505a565b0361284f57846040015187815181106128245761282461570d565b60200260200101519150846060015187815181106128445761284461570d565b602002602001015190505b886001600160a01b031663d598d4c96040518163ffffffff1660e01b8152600401602060405180830381865afa15801561288d573d6000803e3d6000fd5b505050506040513d601f19601f820116820180604052508101906128b1919061549c565b6001600160a01b0316634db4a3526040518163ffffffff1660e01b8152600401602060405180830381865afa1580156128ee573d6000803e3d6000fd5b505050506040513d601f19601f82011682018060405250810190612912919061549c565b6001600160a01b031663cdca175383610bb88c6001600160a01b031663d598d4c96040518163ffffffff1660e01b8152600401602060405180830381865afa158015612962573d6000803e3d6000fd5b505050506040513d601f19601f82011682018060405250810190612986919061549c565b6001600160a01b031663e58d777a6040518163ffffffff1660e01b8152600401602060405180830381865afa1580156129c3573d6000803e3d6000fd5b505050506040513d601f19601f820116820180604052508101906129e7919061549c565b604051606093841b6bffffffffffffffffffffffff19908116602083015260e89390931b6001600160e81b0319166034820152921b166037820152604b01604051602081830303815290604052836040518363ffffffff1660e01b8152600401612a529291906157ac565b6020604051808303816000875af1925050508015612a8d575060408051601f3d908101601f19168201909252612a8a9181019061563d565b60015b612afe573d808015612abb576040519150601f19603f3d011682016040523d82523d6000602084013e612ac0565b606091505b507fd563681fb91425dcf80355c43ba21b499735e439376274fa5ceadfc8ea9bbd9881604051612af09190614a22565b60405180910390a150612b01565b93505b6040516323b550f560e11b8152600060048201526001600160a01b038a169063476aa1ea90602401602060405180830381865afa158015612b46573d6000803e3d6000fd5b505050506040513d601f19601f82011682018060405250810190612b6a919061563d565b8410158015612b8857506101a0850151612b849084615723565b4311155b15612b9b57600095505050505050612c08565b50505b6003836101c001516004811115612bb757612bb761505a565b1480612bd957506004836101c001516004811115612bd757612bd761505a565b145b15612c00576101a0830151612bee9082615723565b4311612c005760009350505050612c08565b600193505050505b9392505050565b6001600090815260e3602090815260008051602061590a833981519152546040805163d04d79b560e01b815290516001600160a01b039092169263d04d79b5926004808401938290030181865afa158015612c6e573d6000803e3d6000fd5b505050506040513d601f19601f82011682018060405250810190610ebf9190615620565b60cd54604080516304e31dfb60e01b815290516000926001600160a01b0316916304e31dfb9160048083019260209291908290030181865afa158015612cdc573d6000803e3d6000fd5b505050506040513d601f19601f82011682018060405250810190612d00919061549c565b6001600160a01b0316336001600160a01b0316146040518060400160405280600e81526020016d2727aa2fa224a9a820aa21a422a960911b81525090612d595760405162461bcd60e51b81526004016108509190614a22565b50612d626134e0565b60e25460408051808201909152600c81526b1393d517d310555390d2115160a21b60208201529060ff16612da95760405162461bcd60e51b81526004016108509190614a22565b50604080516001808252818301909252600091602080830190803683370190505090508781600081518110612de057612de061570d565b6001600160a01b0392909216602092830291909101909101526040805160018082528183019092526000918160200160208202803683370190505090508781600081518110612e3157612e3161570d565b602090810291909101015260d05460ce5460cf54612fdd92919085858c8c60e360006001815260208082019290925260409081016000205460cd54825163803db96d60e01b815292516001600160a01b03928316946370a0823194929093169263803db96d92600480820193918290030181865afa158015612eb7573d6000803e3d6000fd5b505050506040513d601f19601f82011682018060405250810190612edb919061549c565b6040516001600160e01b031960e084901b1681526001600160a01b039091166004820152602401602060405180830381865afa158015612f1f573d6000803e3d6000fd5b505050506040513d601f19601f82011682018060405250810190612f43919061563d565b612f4b613e6e565b612f53613ef1565b612f5d919061566c565b612f67919061566c565b60cd546040516323b550f560e11b8152600160048201526001600160a01b039091169063476aa1ea90602401602060405180830381865afa158015612fb0573d6000803e3d6000fd5b505050506040513d601f19601f82011682018060405250810190612fd4919061563d565b8e8e6000613f50565b9998505050505050505050565b612ff26141f0565b6001600160a01b0381166130575760405162461bcd60e51b815260206004820152602660248201527f4f776e61626c653a206e6577206f776e657220697320746865207a65726f206160448201526564647265737360d01b6064820152608401610850565b6109ec8161348e565b61306861428c565b6130706134e0565b60e25460408051808201909152600c81526b1393d517d310555390d2115160a21b60208201529060ff166130b75760405162461bcd60e51b81526004016108509190614a22565b50600019820361315657600160005260e3602090815260008051602061590a833981519152546040805163468b3b3360e01b81523360048201526024810187905290516001600160a01b039092169263468b3b33926044808401938290030181865afa15801561312b573d6000803e3d6000fd5b505050506040513d601f19601f8201168201806040525081019061314f919061563d565b9150613234565b600160005260e3602090815260008051602061590a833981519152546040805163468b3b3360e01b81523360048201526024810187905290516001600160a01b039092169263468b3b33926044808401938290030181865afa1580156131c0573d6000803e3d6000fd5b505050506040513d601f19601f820116820180604052508101906131e4919061563d565b821115604051806040016040528060148152602001734c4f575f554e4c4f434b45445f42414c414e434560601b815250906132325760405162461bcd60e51b81526004016108509190614a22565b505b60408051808201909152600a81526956414c55455f5a45524f60b01b6020820152826132735760405162461bcd60e51b81526004016108509190614a22565b5061327f8383836142e5565b600160005260e360205260008051602061590a833981519152546001600160a01b031663c97be18033846132b2876118bc565b60c001516040516001600160e01b031960e086901b1681526001600160a01b0390931660048401526024830191909152604482015260648101869052608401600060405180830381600087803b15801561330b57600080fd5b505af115801561331f573d6000803e3d6000fd5b5050505061332d6001606555565b505050565b600161333d82611df5565b600581111561334e5761334e61505a565b14806133735750600361336082611df5565b60058111156133715761337161505a565b145b6040518060400160405280600b81526020016a57524f4e475f535441544560a81b815250906133b55760405162461bcd60e51b81526004016108509190614a22565b50600081815260c96020908152604091829020600901805461030061ff001990911617905590518281527f416e669c63d9a3a5e36ee7cc7e2104b8db28ccd286aa18966e98fa230c73b08c910160405180910390a150565b61341561448e565b6097805460ff191690557f5db9ee0a495bf2e6ff9c91a7834c1ba4fdd244a5e8aa4e537bd38aeae4b073aa335b6040516001600160a01b03909116815260200160405180910390a1565b600054610100900460ff166134865760405162461bcd60e51b815260040161085090615821565b610acb6144d9565b603380546001600160a01b038381166001600160a01b0319831681179093556040519116919082907f8be0079c531659141344cd1fd0a4f28419497f9722a3daafe3b4186f6b6457e090600090a35050565b6134e8610eb1565b15610acb5760405162461bcd60e51b815260206004820152601060248201526f14185d5cd8589b194e881c185d5cd95960821b6044820152606401610850565b600082815260c960209081526040808320815161024081018352815481526001820154818501526002820180548451818702810187018652818152929593948601938301828280156135a357602002820191906000526020600020905b81546001600160a01b03168152600190910190602001808311613585575b50505050508152602001600382018054806020026020016040519081016040528092919081815260200182805480156135fb57602002820191906000526020600020905b8154815260200190600101908083116135e7575b50505050508152602001600482018054613614906154b9565b80601f0160208091040260200160405190810160405280929190818152602001828054613640906154b9565b801561368d5780601f106136625761010080835404028352916020019161368d565b820191906000526020600020905b81548152906001019060200180831161367057829003601f168201915b505050918352505060058201546020820152600682015460408201526007820154606082015260088201546080820152600982015460ff808216151560a084015260c0909201916101009091041660038111156136ec576136ec61505a565b60038111156136fd576136fd61505a565b8152602001600a82018054613711906154b9565b80601f016020809104026020016040519081016040528092919081815260200182805461373d906154b9565b801561378a5780601f1061375f5761010080835404028352916020019161378a565b820191906000526020600020905b81548152906001019060200180831161376d57829003601f168201915b5050509183525050600b8201546020820152600c8201546040820152600d82015460609091019060ff1660048111156137c5576137c561505a565b60048111156137d6576137d661505a565b8152602001600e8201548152602001600f820180546137f4906154b9565b80601f0160208091040260200160405190810160405280929190818152602001828054613820906154b9565b801561386d5780601f106138425761010080835404028352916020019161386d565b820191906000526020600020905b81548152906001019060200180831161385057829003601f168201915b5050509183525050601091909101546001600160a01b03166020909101529050600361389884611df5565b60058111156138a9576138a961505a565b146040518060400160405280600b81526020016a57524f4e475f535441544560a81b815250906138ec5760405162461bcd60e51b81526004016108509190614a22565b5060008084815260c96020526040902060090154610100900460ff1660038111156139195761391961505a565b146040518060400160405280601081526020016f1053149150511657d1561150d555115160821b815250906139615760405162461bcd60e51b81526004016108509190614a22565b508060c0015143106139cd57806101e001518160c001516139829190615723565b4310156040518060400160405280600b81526020016a424c4f434b5f44454c415960a81b815250906139c75760405162461bcd60e51b81526004016108509190614a22565b50613a2a565b806101e00151816101a001516139e39190615723565b4310156040518060400160405280600b81526020016a424c4f434b5f44454c415960a81b81525090613a285760405162461bcd60e51b81526004016108509190614a22565b505b600083815260c960205260408120600901805460ff19166001179055805b826040015151811015613c1957613a6030868361229e565b6040518060400160405280600b81526020016a424c4f434b5f44454c415960a81b81525090613aa25760405162461bcd60e51b81526004016108509190614a22565b506002836101c001516004811115613abc57613abc61505a565b14613baa5782604001518181518110613ad757613ad761570d565b60200260200101516001600160a01b031683606001518281518110613afe57613afe61570d565b60200260200101518460800151604051613b18919061586c565b60006040518083038185875af1925050503d8060008114613b55576040519150601f19603f3d011682016040523d82523d6000602084013e613b5a565b606091505b505060408051808201909152601081526f11561150d5551253d397d1905253115160821b602082015290925082613ba45760405162461bcd60e51b81526004016108509190614a22565b50613c07565b613c0783604001518281518110613bc357613bc361570d565b602002602001015184606001518381518110613be157613be161570d565b60200260200101518561022001516001600160a01b03166145099092919063ffffffff16565b80613c11816157ce565b915050613a48565b506001826101c001516004811115613c3357613c3361505a565b03613ca15761020082015160405163b677bc6960e01b81526001600160a01b0385169163b677bc6991613c6e91600191899190600401615888565b600060405180830381600087803b158015613c8857600080fd5b505af1158015613c9c573d6000803e3d6000fd5b505050505b6002826101c001516004811115613cba57613cba61505a565b03613d285761020082015160405163b677bc6960e01b81526001600160a01b0385169163b677bc6991613cf591600291899190600401615888565b600060405180830381600087803b158015613d0f57600080fd5b505af1158015613d23573d6000803e3d6000fd5b505050505b6003826101c001516004811115613d4157613d4161505a565b03613daf5761020082015160405163b677bc6960e01b81526001600160a01b0385169163b677bc6991613d7c91600391899190600401615888565b600060405180830381600087803b158015613d9657600080fd5b505af1158015613daa573d6000803e3d6000fd5b505050505b6004826101c001516004811115613dc857613dc861505a565b03613e355761020082015160405163b677bc6960e01b81526001600160a01b0385169163b677bc6991613e02916004918991908301615888565b600060405180830381600087803b158015613e1c57600080fd5b505af1158015613e30573d6000803e3d6000fd5b505050505b6040518481527f712ae1383f79ac853f8d882153778e0260ef8f03b504e2866e0593e04d2b291f9060200160405180910390a150505050565b6001600090815260e3602090815260008051602061590a833981519152546040805163d554934b60e01b815290516001600160a01b039092169263d554934b926004808401938290030181865afa158015613ecd573d6000803e3d6000fd5b505050506040513d601f19601f82011682018060405250810190610ebf919061563d565b6001600090815260e3602090815260008051602061590a83398151915254604080516318160ddd60e01b815290516001600160a01b03909216926318160ddd926004808401938290030181865afa158015613ecd573d6000803e3d6000fd5b600060cc60008154613f61906157ce565b91905081905590506040518061024001604052808d81526020018c81526020018b81526020018a81526020018981526020014381526020018e43613fa59190615723565b8152602001600081526020016000815260200160001515815260200160006003811115613fd457613fd461505a565b815260200188815260200187815260200160008152602001856004811115613ffe57613ffe61505a565b8152602080820188905260408083018790526001600160a01b038616606090930192909252600084815260c982528290208351815583820151600182015591830151805161405292600285019201906148dd565b506060820151805161406e916003840191602090910190614932565b50608082015160048201906140839082615539565b5060a0820151600582015560c0820151600682015560e0820151600782015561010080830151600883015561012083015160098301805491151560ff1983168117825561014086015193919261ff001990911661ffff1990911617908360038111156140f1576140f161505a565b0217905550610160820151600a82019061410b9082615539565b50610180820151600b8201556101a0820151600c8201556101c0820151600d8201805460ff191660018360048111156141465761414661505a565b02179055506101e0820151600e820155610200820151600f82019061416b9082615539565b506102209190910151601090910180546001600160a01b0319166001600160a01b0390921691909117905561419f8161455b565b7fb65276295c8836e61205070fc79a77f98853929453c317f5d31389290b2acc3d818d8c8c8c8c6040516141d8969594939291906158b0565b60405180910390a19c9b505050505050505050505050565b336141f96112ce565b6001600160a01b031614610acb5760405162461bcd60e51b815260206004820181905260248201527f4f776e61626c653a2063616c6c6572206973206e6f7420746865206f776e65726044820152606401610850565b6142576134e0565b6097805460ff191660011790557f62e78cea01bee320cd4e420270b5ea74000d11b0c9f74754ebdbfc544b05a2586134423390565b6002606554036142de5760405162461bcd60e51b815260206004820152601f60248201527f5265656e7472616e637947756172643a207265656e7472616e742063616c6c006044820152606401610850565b6002606555565b4360c9600085815260200190815260200160002060060154116040518060400160405280600f81526020016e1593d5125391d7d192539254d21151608a1b815250906143445760405162461bcd60e51b81526004016108509190614a22565b5080156143a657600083815260c960205260408120600701805484929061436c908490615723565b909155505033600090815260ca602090815260408083208684529091528120805484929061439b908490615723565b909155506143fc9050565b600083815260c96020526040812060080180548492906143c7908490615723565b909155505033600090815260cb60209081526040808320868452909152812080548492906143f6908490615723565b90915550505b600083815260c96020526040902043600c90910155614419613e6e565b614421613ef1565b61442b919061566c565b600084815260c96020908152604091829020600b01929092558051338152918201859052810183905281151560608201527f2c48deccc79dbba942eeb2f991c4bfa0ac136723ddc0ea1b575dd85373408df89060800160405180910390a1505050565b614496610eb1565b610acb5760405162461bcd60e51b815260206004820152601460248201527314185d5cd8589b194e881b9bdd081c185d5cd95960621b6044820152606401610850565b600054610100900460ff166145005760405162461bcd60e51b815260040161085090615821565b610acb3361348e565b604080516001600160a01b038416602482015260448082018490528251808303909101815260649091019091526020810180516001600160e01b031663a9059cbb60e01b17905261332d9084906145b5565b60cd54604051630ffb246960e21b8152600481018390526001600160a01b0390911690633fec91a490602401600060405180830381600087803b1580156145a157600080fd5b505af1158015610eaa573d6000803e3d6000fd5b600061460a826040518060400160405280602081526020017f5361666545524332303a206c6f772d6c6576656c2063616c6c206661696c6564815250856001600160a01b03166146879092919063ffffffff16565b80519091501561332d57808060200190518101906146289190615620565b61332d5760405162461bcd60e51b815260206004820152602a60248201527f5361666545524332303a204552433230206f7065726174696f6e20646964206e6044820152691bdd081cdd58d8d9595960b21b6064820152608401610850565b6060611774848460008585600080866001600160a01b031685876040516146ae919061586c565b60006040518083038185875af1925050503d80600081146146eb576040519150601f19603f3d011682016040523d82523d6000602084013e6146f0565b606091505b50915091506111d5878383876060831561476b578251600003614764576001600160a01b0385163b6147645760405162461bcd60e51b815260206004820152601d60248201527f416464726573733a2063616c6c20746f206e6f6e2d636f6e74726163740000006044820152606401610850565b5081611774565b61177483838151156147805781518083602001fd5b8060405162461bcd60e51b81526004016108509190614a22565b82600a81019282156147c8579160200282015b828111156147c85782358255916020019190600101906147ad565b506147d492915061496c565b5090565b604051806101400160405280600a906020820280368337509192915050565b6040518061024001604052806000815260200160008152602001606081526020016060815260200160608152602001600081526020016000815260200160008152602001600081526020016000151581526020016000600381111561485e5761485e61505a565b81526020016060815260200160008152602001600081526020016000600481111561488b5761488b61505a565b8152602001600081526020016060815260200160006001600160a01b031681525090565b82600a81019282156147c8579160200282015b828111156147c85782518255916020019190600101906148c2565b8280548282559060005260206000209081019282156147c8579160200282015b828111156147c857825182546001600160a01b0319166001600160a01b039091161782556020909201916001909101906148fd565b8280548282559060005260206000209081019282156147c857916020028201828111156147c85782518255916020019190600101906148c2565b5b808211156147d4576000815560010161496d565b6001600160a01b03811681146109ec57600080fd5b80356149a181614981565b919050565b600080604083850312156149b957600080fd5b82356149c481614981565b946020939093013593505050565b60005b838110156149ed5781810151838201526020016149d5565b50506000910152565b60008151808452614a0e8160208601602086016149d2565b601f01601f19169290920160200192915050565b602081526000612c0860208301846149f6565b600060208284031215614a4757600080fd5b5035919050565b634e487b7160e01b600052604160045260246000fd5b60405161024081016001600160401b0381118282101715614a8757614a87614a4e565b60405290565b60405161014081016001600160401b0381118282101715614a8757614a87614a4e565b604051601f8201601f191681016001600160401b0381118282101715614ad857614ad8614a4e565b604052919050565b60006001600160401b03821115614af957614af9614a4e565b50601f01601f191660200190565b600082601f830112614b1857600080fd5b8135614b2b614b2682614ae0565b614ab0565b818152846020838601011115614b4057600080fd5b816020850160208301376000918101602001919091529392505050565b600080600080600060a08688031215614b7557600080fd5b8535945060208601356001600160401b0380821115614b9357600080fd5b614b9f89838a01614b07565b95506040880135915080821115614bb557600080fd5b50614bc288828901614b07565b9598949750949560608101359550608001359392505050565b6000806000806101a0808688031215614bf357600080fd5b853594506020860135935060408601359250868187011115614c1457600080fd5b509295919450926060019150565b60006001600160401b03821115614c3b57614c3b614a4e565b5060051b60200190565b600082601f830112614c5657600080fd5b81356020614c66614b2683614c22565b82815260059290921b84018101918181019086841115614c8557600080fd5b8286015b84811015614ca9578035614c9c81614981565b8352918301918301614c89565b509695505050505050565b600082601f830112614cc557600080fd5b81356020614cd5614b2683614c22565b82815260059290921b84018101918181019086841115614cf457600080fd5b8286015b84811015614ca95780358352918301918301614cf8565b8035600581106149a157600080fd5b60008060008060008060c08789031215614d3757600080fd5b86356001600160401b0380821115614d4e57600080fd5b614d5a8a838b01614c45565b97506020890135915080821115614d7057600080fd5b614d7c8a838b01614cb4565b96506040890135915080821115614d9257600080fd5b614d9e8a838b01614b07565b9550614dac60608a01614d0f565b94506080890135915080821115614dc257600080fd5b50614dcf89828a01614b07565b925050614dde60a08801614996565b90509295509295509295565b600060208284031215614dfc57600080fd5b8135612c0881614981565b8035600381106149a157600080fd5b600060208284031215614e2857600080fd5b612c0882614e07565b8060005b600a811015614e54578151845260209384019390910190600101614e35565b50505050565b6101408101610ee98284614e31565b80151581146109ec57600080fd5b80356149a181614e69565b8035600481106149a157600080fd5b60008060008060808587031215614ea757600080fd5b843593506020850135925060408501356001600160401b0380821115614ecc57600080fd5b908601906102408289031215614ee157600080fd5b614ee9614a64565b8235815260208301356020820152604083013582811115614f0957600080fd5b614f158a828601614c45565b604083015250606083013582811115614f2d57600080fd5b614f398a828601614cb4565b606083015250608083013582811115614f5157600080fd5b614f5d8a828601614b07565b60808301525060a083013560a082015260c083013560c082015260e083013560e0820152610100808401358183015250610120614f9b818501614e77565b90820152610140614fad848201614e82565b908201526101608381013583811115614fc557600080fd5b614fd18b828701614b07565b8284015250506101808084013581830152506101a08084013581830152506101c0614ffd818501614d0f565b908201526101e08381013590820152610200808401358381111561502057600080fd5b61502c8b828701614b07565b8284015250506102209150615042828401614996565b91810191909152949793965093946060013593505050565b634e487b7160e01b600052602160045260246000fd5b60208101600683106150845761508461505a565b91905290565b6000806040838503121561509d57600080fd5b82356150a881614981565b91506150b660208401614e07565b90509250929050565b600081518084526020808501945080840160005b838110156150f85781516001600160a01b0316875295820195908201906001016150d3565b509495945050505050565b600081518084526020808501945080840160005b838110156150f857815187529582019590820190600101615117565b600481106151435761514361505a565b9052565b600581106109ec576109ec61505a565b61514381615147565b602081528151602082015260208201516040820152600060408301516102408060608501526151936102608501836150bf565b91506060850151601f19808685030160808701526151b18483615103565b935060808701519150808685030160a08701526151ce84836149f6565b935060a087015160c087015260c087015160e087015260e087015191506101008281880152808801519250506101208281880152808801519250506101406152198188018415159052565b870151915061016061522d87820184615133565b8088015192505061018081878603018188015261524a85846149f6565b908801516101a0888101919091528801516101c08089019190915288015190945091506101e061527c81880184615157565b808801519250506102008281880152808801519250506102208187860301818801526152a885846149f6565b945080880151925050506152c6828601826001600160a01b03169052565b5090949350505050565b6000806000806000806101e087890312156152ea57600080fd5b86356152f581614981565b955060208781013595506040880135945060608801359350609f8801891361531c57600080fd5b615324614a8d565b806101c08a018b81111561533757600080fd5b60808b015b81811015615353578035845292840192840161533c565b50909450359150506001600160401b0381111561536f57600080fd5b61537b89828a01614b07565b9150509295509295509295565b60008060006060848603121561539d57600080fd5b83356153a881614981565b95602085013595506040909401359392505050565b60008060008060008060c087890312156153d657600080fd5b86356153e181614981565b95506020870135945060408701356001600160401b038082111561540457600080fd5b6154108a838b01614b07565b9550606089013591508082111561542657600080fd5b6154328a838b01614b07565b945061544060808a01614d0f565b935060a089013591508082111561545657600080fd5b5061537b89828a01614b07565b60008060006060848603121561547857600080fd5b8335925060208401359150604084013561549181614e69565b809150509250925092565b6000602082840312156154ae57600080fd5b8151612c0881614981565b600181811c908216806154cd57607f821691505b6020821081036154ed57634e487b7160e01b600052602260045260246000fd5b50919050565b601f82111561332d57600081815260208120601f850160051c8101602086101561551a5750805b601f850160051c820191505b81811015610c8e57828155600101615526565b81516001600160401b0381111561555257615552614a4e565b6155668161556084546154b9565b846154f3565b602080601f83116001811461559b57600084156155835750858301515b600019600386901b1c1916600185901b178555610c8e565b600085815260208120601f198616915b828110156155ca578886015182559484019460019091019084016155ab565b50858210156155e85787850151600019600388901b60f8161c191681555b5050505050600190811b01905550565b84815260208101849052604081018390526101a0810161014083606084013795945050505050565b60006020828403121561563257600080fd5b8151612c0881614e69565b60006020828403121561564f57600080fd5b5051919050565b634e487b7160e01b600052601160045260246000fd5b81810381811115610ee957610ee9615656565b6000602080838503121561569257600080fd5b82516001600160401b038111156156a857600080fd5b8301601f810185136156b957600080fd5b80516156c7614b2682614c22565b81815260059190911b820183019083810190878311156156e657600080fd5b928401925b828410156111d55783516156fe81614981565b825292840192908401906156eb565b634e487b7160e01b600052603260045260246000fd5b80820180821115610ee957610ee9615656565b60006020828403121561574857600080fd5b81516001600160401b0381111561575e57600080fd5b8201601f8101841361576f57600080fd5b805161577d614b2682614ae0565b81815285602083850101111561579257600080fd5b6157a38260208301602086016149d2565b95945050505050565b6040815260006157bf60408301856149f6565b90508260208301529392505050565b6000600182016157e0576157e0615656565b5060010190565b8082028115828204841417610ee957610ee9615656565b84815260208101849052604081018390526101a081016157a36060830184614e31565b6020808252602b908201527f496e697469616c697a61626c653a20636f6e7472616374206973206e6f74206960408201526a6e697469616c697a696e6760a81b606082015260800190565b6000825161587e8184602087016149d2565b9190910192915050565b61589184615147565b8381528260208201526060604082015260006157a360608301846149f6565b86815285602082015260c0604082015260006158cf60c08301876150bf565b82810360608401526158e18187615103565b905082810360808401526158f581866149f6565b905082810360a0840152612fdd81856149f656fea71a5dc6523a2d0bf383648e732f9cbd05fb5cd75a9c44758106b038b320de36a2646970667358221220a8549c7cdf7860ebae22a2cdda011c311f6d866e56fb091fc8196471238c00e164736f6c63430008110033",
  "linkReferences": {},
  "deployedLinkReferences": {}
}