{
  "_format": "hh-sol-artifact-1",
  "contractName": "Pool",
  "sourceName": "contracts/Pool.sol",
  "abi": [
    {
      "inputs": [],
      "stateMutability": "nonpayable",
      "type": "constructor"
    },
    {
      "anonymous": false,
      "inputs": [
        {
          "indexed": false,
          "internalType": "bytes",
          "name": "data",
          "type": "bytes"
        }
      ],
      "name": "ErrorCaugth",
      "type": "event"
    },
    {
      "anonymous": false,
      "inputs": [
        {
          "indexed": false,
          "internalType": "uint8",
          "name": "version",
          "type": "uint8"
        }
      ],
      "name": "Initialized",
      "type": "event"
    },
    {
      "anonymous": false,
      "inputs": [
        {
          "indexed": true,
          "internalType": "address",
          "name": "previousOwner",
          "type": "address"
        },
        {
          "indexed": true,
          "internalType": "address",
          "name": "newOwner",
          "type": "address"
        }
      ],
      "name": "OwnershipTransferred",
      "type": "event"
    },
    {
      "anonymous": false,
      "inputs": [
        {
          "indexed": false,
          "internalType": "address",
          "name": "account",
          "type": "address"
        }
      ],
      "name": "Paused",
      "type": "event"
    },
    {
      "anonymous": false,
      "inputs": [
        {
          "indexed": false,
          "internalType": "uint256",
          "name": "proposalId",
          "type": "uint256"
        }
      ],
      "name": "ProposalCancelled",
      "type": "event"
    },
    {
      "anonymous": false,
      "inputs": [
        {
          "indexed": false,
          "internalType": "uint256",
          "name": "proposalId",
          "type": "uint256"
        },
        {
          "indexed": false,
          "internalType": "uint256",
          "name": "quorum",
          "type": "uint256"
        },
        {
          "indexed": false,
          "internalType": "address[]",
          "name": "targets",
          "type": "address[]"
        },
        {
          "indexed": false,
          "internalType": "uint256[]",
          "name": "values",
          "type": "uint256[]"
        },
        {
          "indexed": false,
          "internalType": "bytes",
          "name": "calldatas",
          "type": "bytes"
        },
        {
          "indexed": false,
          "internalType": "string",
          "name": "description",
          "type": "string"
        }
      ],
      "name": "ProposalCreated",
      "type": "event"
    },
    {
      "anonymous": false,
      "inputs": [
        {
          "indexed": false,
          "internalType": "uint256",
          "name": "proposalId",
          "type": "uint256"
        }
      ],
      "name": "ProposalExecuted",
      "type": "event"
    },
    {
      "anonymous": false,
      "inputs": [
        {
          "indexed": false,
          "internalType": "address",
          "name": "account",
          "type": "address"
        }
      ],
      "name": "Unpaused",
      "type": "event"
    },
    {
      "anonymous": false,
      "inputs": [
        {
          "indexed": false,
          "internalType": "address",
          "name": "voter",
          "type": "address"
        },
        {
          "indexed": false,
          "internalType": "uint256",
          "name": "proposalId",
          "type": "uint256"
        },
        {
          "indexed": false,
          "internalType": "uint256",
          "name": "votes",
          "type": "uint256"
        },
        {
          "indexed": false,
          "internalType": "bool",
          "name": "support",
          "type": "bool"
        }
      ],
      "name": "VoteCast",
      "type": "event"
    },
    {
      "inputs": [],
      "name": "EIN",
      "outputs": [
        {
          "internalType": "string",
          "name": "",
          "type": "string"
        }
      ],
      "stateMutability": "view",
      "type": "function"
    },
    {
      "inputs": [
        {
          "internalType": "address",
          "name": "token_",
          "type": "address"
        }
      ],
      "name": "addPreferenceToken",
      "outputs": [],
      "stateMutability": "nonpayable",
      "type": "function"
    },
    {
      "inputs": [
        {
          "internalType": "address",
          "name": "tge_",
          "type": "address"
        }
      ],
      "name": "addTGE",
      "outputs": [],
      "stateMutability": "nonpayable",
      "type": "function"
    },
    {
      "inputs": [
        {
          "internalType": "uint256",
          "name": "totalCastVotes",
          "type": "uint256"
        },
        {
          "internalType": "uint256",
          "name": "quorumVotes",
          "type": "uint256"
        },
        {
          "components": [
            {
              "internalType": "uint256",
              "name": "ballotQuorumThreshold",
              "type": "uint256"
            },
            {
              "internalType": "uint256",
              "name": "ballotDecisionThreshold",
              "type": "uint256"
            },
            {
              "internalType": "address[]",
              "name": "targets",
              "type": "address[]"
            },
            {
              "internalType": "uint256[]",
              "name": "values",
              "type": "uint256[]"
            },
            {
              "internalType": "bytes",
              "name": "callData",
              "type": "bytes"
            },
            {
              "internalType": "uint256",
              "name": "startBlock",
              "type": "uint256"
            },
            {
              "internalType": "uint256",
              "name": "endBlock",
              "type": "uint256"
            },
            {
              "internalType": "uint256",
              "name": "forVotes",
              "type": "uint256"
            },
            {
              "internalType": "uint256",
              "name": "againstVotes",
              "type": "uint256"
            },
            {
              "internalType": "bool",
              "name": "executed",
              "type": "bool"
            },
            {
              "internalType": "enum Governor.ProposalExecutionState",
              "name": "state",
              "type": "uint8"
            },
            {
              "internalType": "string",
              "name": "description",
              "type": "string"
            },
            {
              "internalType": "uint256",
              "name": "totalSupply",
              "type": "uint256"
            },
            {
              "internalType": "uint256",
              "name": "lastVoteBlock",
              "type": "uint256"
            },
            {
              "internalType": "enum IDispatcher.ProposalType",
              "name": "proposalType",
              "type": "uint8"
            },
            {
              "internalType": "uint256",
              "name": "execDelay",
              "type": "uint256"
            },
            {
              "internalType": "string",
              "name": "metaHash",
              "type": "string"
            },
            {
              "internalType": "address",
              "name": "token",
              "type": "address"
            }
          ],
          "internalType": "struct Governor.Proposal",
          "name": "proposal",
          "type": "tuple"
        },
        {
          "internalType": "uint256",
          "name": "totalAvailableVotes",
          "type": "uint256"
        }
      ],
      "name": "aheadOfTimeBallot",
      "outputs": [
        {
          "internalType": "enum Governor.ProposalState",
          "name": "",
          "type": "uint8"
        }
      ],
      "stateMutability": "pure",
      "type": "function"
    },
    {
      "inputs": [],
      "name": "ballotDecisionThreshold",
      "outputs": [
        {
          "internalType": "uint256",
          "name": "",
          "type": "uint256"
        }
      ],
      "stateMutability": "view",
      "type": "function"
    },
    {
      "inputs": [
        {
          "internalType": "uint256",
          "name": "",
          "type": "uint256"
        }
      ],
      "name": "ballotExecDelay",
      "outputs": [
        {
          "internalType": "uint256",
          "name": "",
          "type": "uint256"
        }
      ],
      "stateMutability": "view",
      "type": "function"
    },
    {
      "inputs": [],
      "name": "ballotLifespan",
      "outputs": [
        {
          "internalType": "uint256",
          "name": "",
          "type": "uint256"
        }
      ],
      "stateMutability": "view",
      "type": "function"
    },
    {
      "inputs": [],
      "name": "ballotQuorumThreshold",
      "outputs": [
        {
          "internalType": "uint256",
          "name": "",
          "type": "uint256"
        }
      ],
      "stateMutability": "view",
      "type": "function"
    },
    {
      "inputs": [
        {
          "internalType": "uint256",
          "name": "proposalId",
          "type": "uint256"
        },
        {
          "internalType": "uint256",
          "name": "votes",
          "type": "uint256"
        },
        {
          "internalType": "bool",
          "name": "support",
          "type": "bool"
        }
      ],
      "name": "castVote",
      "outputs": [],
      "stateMutability": "nonpayable",
      "type": "function"
    },
    {
      "inputs": [],
      "name": "dateOfIncorporation",
      "outputs": [
        {
          "internalType": "string",
          "name": "",
          "type": "string"
        }
      ],
      "stateMutability": "view",
      "type": "function"
    },
    {
      "inputs": [],
      "name": "entityType",
      "outputs": [
        {
          "internalType": "uint256",
          "name": "",
          "type": "uint256"
        }
      ],
      "stateMutability": "view",
      "type": "function"
    },
    {
      "inputs": [
        {
          "internalType": "uint256",
          "name": "proposalId",
          "type": "uint256"
        }
      ],
      "name": "executeBallot",
      "outputs": [],
      "stateMutability": "nonpayable",
      "type": "function"
    },
    {
      "inputs": [
        {
          "internalType": "address",
          "name": "user",
          "type": "address"
        },
        {
          "internalType": "uint256",
          "name": "proposalId",
          "type": "uint256"
        }
      ],
      "name": "getAgainstVotes",
      "outputs": [
        {
          "internalType": "uint256",
          "name": "",
          "type": "uint256"
        }
      ],
      "stateMutability": "view",
      "type": "function"
    },
    {
      "inputs": [],
      "name": "getBallotExecDelay",
      "outputs": [
        {
          "internalType": "uint256[10]",
          "name": "",
          "type": "uint256[10]"
        }
      ],
      "stateMutability": "view",
      "type": "function"
    },
    {
      "inputs": [
        {
          "internalType": "address",
          "name": "user",
          "type": "address"
        },
        {
          "internalType": "uint256",
          "name": "proposalId",
          "type": "uint256"
        }
      ],
      "name": "getForVotes",
      "outputs": [
        {
          "internalType": "uint256",
          "name": "",
          "type": "uint256"
        }
      ],
      "stateMutability": "view",
      "type": "function"
    },
    {
      "inputs": [],
      "name": "getGovernanceTGEList",
      "outputs": [
        {
          "internalType": "address[]",
          "name": "",
          "type": "address[]"
        }
      ],
      "stateMutability": "view",
      "type": "function"
    },
    {
      "inputs": [],
      "name": "getPreferenceTokenList",
      "outputs": [
        {
          "internalType": "address[]",
          "name": "",
          "type": "address[]"
        }
      ],
      "stateMutability": "view",
      "type": "function"
    },
    {
      "inputs": [
        {
          "internalType": "uint256",
          "name": "proposalId",
          "type": "uint256"
        }
      ],
      "name": "getProposal",
      "outputs": [
        {
          "components": [
            {
              "internalType": "uint256",
              "name": "ballotQuorumThreshold",
              "type": "uint256"
            },
            {
              "internalType": "uint256",
              "name": "ballotDecisionThreshold",
              "type": "uint256"
            },
            {
              "internalType": "address[]",
              "name": "targets",
              "type": "address[]"
            },
            {
              "internalType": "uint256[]",
              "name": "values",
              "type": "uint256[]"
            },
            {
              "internalType": "bytes",
              "name": "callData",
              "type": "bytes"
            },
            {
              "internalType": "uint256",
              "name": "startBlock",
              "type": "uint256"
            },
            {
              "internalType": "uint256",
              "name": "endBlock",
              "type": "uint256"
            },
            {
              "internalType": "uint256",
              "name": "forVotes",
              "type": "uint256"
            },
            {
              "internalType": "uint256",
              "name": "againstVotes",
              "type": "uint256"
            },
            {
              "internalType": "bool",
              "name": "executed",
              "type": "bool"
            },
            {
              "internalType": "enum Governor.ProposalExecutionState",
              "name": "state",
              "type": "uint8"
            },
            {
              "internalType": "string",
              "name": "description",
              "type": "string"
            },
            {
              "internalType": "uint256",
              "name": "totalSupply",
              "type": "uint256"
            },
            {
              "internalType": "uint256",
              "name": "lastVoteBlock",
              "type": "uint256"
            },
            {
              "internalType": "enum IDispatcher.ProposalType",
              "name": "proposalType",
              "type": "uint8"
            },
            {
              "internalType": "uint256",
              "name": "execDelay",
              "type": "uint256"
            },
            {
              "internalType": "string",
              "name": "metaHash",
              "type": "string"
            },
            {
              "internalType": "address",
              "name": "token",
              "type": "address"
            }
          ],
          "internalType": "struct Governor.Proposal",
          "name": "",
          "type": "tuple"
        }
      ],
      "stateMutability": "view",
      "type": "function"
    },
    {
      "inputs": [],
      "name": "getTVL",
      "outputs": [
        {
          "internalType": "uint256",
          "name": "",
          "type": "uint256"
        }
      ],
      "stateMutability": "nonpayable",
      "type": "function"
    },
    {
      "inputs": [],
      "name": "getTotalTGEVestedTokens",
      "outputs": [
        {
          "internalType": "uint256",
          "name": "",
          "type": "uint256"
        }
      ],
      "stateMutability": "view",
      "type": "function"
    },
    {
      "inputs": [
        {
          "internalType": "uint256",
          "name": "jurisdiction_",
          "type": "uint256"
        },
        {
          "internalType": "string",
          "name": "EIN_",
          "type": "string"
        },
        {
          "internalType": "string",
          "name": "dateOfIncorporation_",
          "type": "string"
        },
        {
          "internalType": "uint256",
          "name": "entityType_",
          "type": "uint256"
        },
        {
          "internalType": "uint256",
          "name": "metadataIndex_",
          "type": "uint256"
        }
      ],
      "name": "initialize",
      "outputs": [],
      "stateMutability": "nonpayable",
      "type": "function"
    },
    {
      "inputs": [],
      "name": "isDAO",
      "outputs": [
        {
          "internalType": "bool",
          "name": "",
          "type": "bool"
        }
      ],
      "stateMutability": "view",
      "type": "function"
    },
    {
      "inputs": [
        {
          "internalType": "contract IPool",
          "name": "pool",
          "type": "address"
        },
        {
          "internalType": "uint256",
          "name": "proposalId",
          "type": "uint256"
        },
        {
          "internalType": "uint256",
          "name": "index",
          "type": "uint256"
        }
      ],
      "name": "isDelayCleared",
      "outputs": [
        {
          "internalType": "bool",
          "name": "",
          "type": "bool"
        }
      ],
      "stateMutability": "nonpayable",
      "type": "function"
    },
    {
      "inputs": [],
      "name": "jurisdiction",
      "outputs": [
        {
          "internalType": "uint256",
          "name": "",
          "type": "uint256"
        }
      ],
      "stateMutability": "view",
      "type": "function"
    },
    {
      "inputs": [],
      "name": "lastProposalId",
      "outputs": [
        {
          "internalType": "uint256",
          "name": "",
          "type": "uint256"
        }
      ],
      "stateMutability": "view",
      "type": "function"
    },
    {
      "inputs": [
        {
          "internalType": "address",
          "name": "",
          "type": "address"
        }
      ],
      "name": "lastProposalIdForAccount",
      "outputs": [
        {
          "internalType": "uint256",
          "name": "",
          "type": "uint256"
        }
      ],
      "stateMutability": "view",
      "type": "function"
    },
    {
      "inputs": [],
      "name": "lastTGE",
      "outputs": [
        {
          "internalType": "address",
          "name": "",
          "type": "address"
        }
      ],
      "stateMutability": "view",
      "type": "function"
    },
    {
      "inputs": [
        {
          "internalType": "address",
          "name": "owner_",
          "type": "address"
        },
        {
          "internalType": "uint256",
          "name": "ballotQuorumThreshold_",
          "type": "uint256"
        },
        {
          "internalType": "uint256",
          "name": "ballotDecisionThreshold_",
          "type": "uint256"
        },
        {
          "internalType": "uint256",
          "name": "ballotLifespan_",
          "type": "uint256"
        },
        {
          "internalType": "uint256[10]",
          "name": "ballotExecDelay_",
          "type": "uint256[10]"
        },
        {
          "internalType": "string",
          "name": "trademark_",
          "type": "string"
        }
      ],
      "name": "launch",
      "outputs": [],
      "stateMutability": "nonpayable",
      "type": "function"
    },
    {
      "inputs": [],
      "name": "maxProposalId",
      "outputs": [
        {
          "internalType": "uint256",
          "name": "",
          "type": "uint256"
        }
      ],
      "stateMutability": "view",
      "type": "function"
    },
    {
      "inputs": [],
      "name": "metadataIndex",
      "outputs": [
        {
          "internalType": "uint256",
          "name": "",
          "type": "uint256"
        }
      ],
      "stateMutability": "view",
      "type": "function"
    },
    {
      "inputs": [],
      "name": "owner",
      "outputs": [
        {
          "internalType": "address",
          "name": "",
          "type": "address"
        }
      ],
      "stateMutability": "view",
      "type": "function"
    },
    {
      "inputs": [],
      "name": "pause",
      "outputs": [],
      "stateMutability": "nonpayable",
      "type": "function"
    },
    {
      "inputs": [],
      "name": "paused",
      "outputs": [
        {
          "internalType": "bool",
          "name": "",
          "type": "bool"
        }
      ],
      "stateMutability": "view",
      "type": "function"
    },
    {
      "inputs": [],
      "name": "poolLaunched",
      "outputs": [
        {
          "internalType": "bool",
          "name": "",
          "type": "bool"
        }
      ],
      "stateMutability": "view",
      "type": "function"
    },
    {
      "inputs": [],
      "name": "primaryTGE",
      "outputs": [
        {
          "internalType": "address",
          "name": "",
          "type": "address"
        }
      ],
      "stateMutability": "view",
      "type": "function"
    },
    {
      "inputs": [
        {
          "internalType": "uint256",
          "name": "proposalId",
          "type": "uint256"
        }
      ],
      "name": "proposalState",
      "outputs": [
        {
          "internalType": "enum Governor.ProposalState",
          "name": "",
          "type": "uint8"
        }
      ],
      "stateMutability": "view",
      "type": "function"
    },
    {
      "inputs": [
        {
          "internalType": "address",
          "name": "target",
          "type": "address"
        },
        {
          "internalType": "uint256",
          "name": "value",
          "type": "uint256"
        },
        {
          "internalType": "bytes",
          "name": "cd",
          "type": "bytes"
        },
        {
          "internalType": "string",
          "name": "description",
          "type": "string"
        },
        {
          "internalType": "enum IDispatcher.ProposalType",
          "name": "proposalType",
          "type": "uint8"
        },
        {
          "internalType": "string",
          "name": "metaHash",
          "type": "string"
        }
      ],
      "name": "proposeSingleAction",
      "outputs": [
        {
          "internalType": "uint256",
          "name": "proposalId",
          "type": "uint256"
        }
      ],
      "stateMutability": "nonpayable",
      "type": "function"
    },
    {
      "inputs": [
        {
          "internalType": "address[]",
          "name": "targets",
          "type": "address[]"
        },
        {
          "internalType": "uint256[]",
          "name": "values",
          "type": "uint256[]"
        },
        {
          "internalType": "string",
          "name": "description",
          "type": "string"
        },
        {
          "internalType": "enum IDispatcher.ProposalType",
          "name": "proposalType",
          "type": "uint8"
        },
        {
          "internalType": "string",
          "name": "metaHash",
          "type": "string"
        },
        {
          "internalType": "address",
          "name": "token_",
          "type": "address"
        }
      ],
      "name": "proposeTransfer",
      "outputs": [
        {
          "internalType": "uint256",
          "name": "proposalId",
          "type": "uint256"
        }
      ],
      "stateMutability": "nonpayable",
      "type": "function"
    },
    {
      "inputs": [],
      "name": "renounceOwnership",
      "outputs": [],
      "stateMutability": "nonpayable",
      "type": "function"
    },
    {
      "inputs": [],
      "name": "service",
      "outputs": [
        {
          "internalType": "contract IService",
          "name": "",
          "type": "address"
        }
      ],
      "stateMutability": "view",
      "type": "function"
    },
    {
      "inputs": [
        {
          "internalType": "uint256",
          "name": "proposalId",
          "type": "uint256"
        }
      ],
      "name": "serviceCancelBallot",
      "outputs": [],
      "stateMutability": "nonpayable",
      "type": "function"
    },
    {
      "inputs": [
        {
          "internalType": "uint256",
          "name": "ballotQuorumThreshold_",
          "type": "uint256"
        },
        {
          "internalType": "uint256",
          "name": "ballotDecisionThreshold_",
          "type": "uint256"
        },
        {
          "internalType": "uint256",
          "name": "ballotLifespan_",
          "type": "uint256"
        },
        {
          "internalType": "uint256[10]",
          "name": "ballotExecDelay_",
          "type": "uint256[10]"
        }
      ],
      "name": "setGovernanceSettings",
      "outputs": [],
      "stateMutability": "nonpayable",
      "type": "function"
    },
    {
      "inputs": [
        {
          "internalType": "address",
          "name": "creator",
          "type": "address"
        },
        {
          "internalType": "uint256",
          "name": "proposalId",
          "type": "uint256"
        }
      ],
      "name": "setLastProposalIdForAccount",
      "outputs": [],
      "stateMutability": "nonpayable",
      "type": "function"
    },
    {
      "inputs": [
        {
          "internalType": "address",
          "name": "tge_",
          "type": "address"
        }
      ],
      "name": "setPrimaryTGE",
      "outputs": [],
      "stateMutability": "nonpayable",
      "type": "function"
    },
    {
      "inputs": [
        {
          "internalType": "address",
          "name": "token_",
          "type": "address"
        }
      ],
      "name": "setToken",
      "outputs": [],
      "stateMutability": "nonpayable",
      "type": "function"
    },
    {
      "inputs": [],
      "name": "test83212",
      "outputs": [
        {
          "internalType": "uint256",
          "name": "",
          "type": "uint256"
        }
      ],
      "stateMutability": "pure",
      "type": "function"
    },
    {
      "inputs": [],
      "name": "token",
      "outputs": [
        {
          "internalType": "contract IToken",
          "name": "",
          "type": "address"
        }
      ],
      "stateMutability": "view",
      "type": "function"
    },
    {
      "inputs": [],
      "name": "trademark",
      "outputs": [
        {
          "internalType": "string",
          "name": "",
          "type": "string"
        }
      ],
      "stateMutability": "view",
      "type": "function"
    },
    {
      "inputs": [
        {
          "internalType": "address",
          "name": "newOwner",
          "type": "address"
        }
      ],
      "name": "transferOwnership",
      "outputs": [],
      "stateMutability": "nonpayable",
      "type": "function"
    },
    {
      "inputs": [],
      "name": "unpause",
      "outputs": [],
      "stateMutability": "nonpayable",
      "type": "function"
    },
    {
      "stateMutability": "payable",
      "type": "receive"
    }
  ],
  "bytecode": "0x60806040523480156200001157600080fd5b506200001c62000022565b620000e4565b600054610100900460ff16156200008f5760405162461bcd60e51b815260206004820152602760248201527f496e697469616c697a61626c653a20636f6e747261637420697320696e697469604482015266616c697a696e6760c81b606482015260840160405180910390fd5b60005460ff9081161015620000e2576000805460ff191660ff9081179091556040519081527f7f26b83ff96e1f2b6a682f133852f6798a09c465da95921460cefb38474024989060200160405180910390a15b565b615efb80620000f46000396000f3fe6080604052600436106102cd5760003560e01c80638da5cb5b11610175578063d26331d4116100dc578063decba56811610095578063f27603831161006f578063f276038314610843578063f2fde38b14610863578063f9000ba814610883578063fc0c546a146108a357600080fd5b8063decba568146107ee578063e1503e051461080e578063e47bfee81461082e57600080fd5b8063d26331d41461075b578063d27b3d0b1461077b578063d554934b14610790578063d598d4c9146107a5578063d9107ce5146107c5578063dc176941146107d957600080fd5b8063af041a341161012e578063af041a341461068f578063b22d31cc146106bc578063bc7a4ead146106d6578063c7f758a8146106ec578063cc20782e14610719578063ce3b5aa81461073957600080fd5b80638da5cb5b146105d6578063958b138e146105eb57806397b3fcaa146106005780639b64155114610615578063a66e53c914610658578063a92ab3161461067a57600080fd5b8063515f723c116102345780636efcd85b116101ed5780637c905b77116101c75780637c905b771461057f578063826a5d5614610595578063838453fd146105ab5780638456cb59146105c157600080fd5b80636efcd85b14610527578063715018a61461055457806374cb30411461056957600080fd5b8063515f723c1461046c5780635b975d6b1461048c5780635c975abb146104a25780635f76808f146104c75780636080484d146104e75780636685a7781461050757600080fd5b80633f4ba83a116102865780633f4ba83a146103b75780634631d0e2146103cc578063476aa1ea146103ec5780634b4560bd1461040c5780634dd703671461042c5780635046f8b81461044c57600080fd5b806303f27b87146102d9578063144fa6d7146102fb578063165610761461031b57806323681e3d14610346578063359146e8146103665780633eac99981461038a57600080fd5b366102d457005b600080fd5b3480156102e557600080fd5b506102f96102f4366004614f8d565b6108c3565b005b34801561030757600080fd5b506102f9610316366004614fb9565b610a01565b34801561032757600080fd5b50610330610b05565b60405161033d9190615026565b60405180910390f35b34801561035257600080fd5b506102f9610361366004615039565b610b93565b34801561037257600080fd5b5061037c60d15481565b60405190815260200161033d565b34801561039657600080fd5b5061039f610c36565b6040516001600160a01b03909116815260200161033d565b3480156103c357600080fd5b506102f9610c74565b3480156103d857600080fd5b506102f96103e7366004615161565b610d52565b3480156103f857600080fd5b5061037c610407366004615039565b610f1b565b34801561041857600080fd5b506102f9610427366004614fb9565b610f32565b34801561043857600080fd5b506102f9610447366004615039565b61101b565b34801561045857600080fd5b506102f9610467366004614fb9565b611082565b34801561047857600080fd5b506102f96104873660046151df565b61116b565b34801561049857600080fd5b5061037c60d55481565b3480156104ae57600080fd5b506104b7611308565b604051901515815260200161033d565b3480156104d357600080fd5b5061037c6104e2366004614f8d565b61131b565b3480156104f357600080fd5b5061037c610502366004615322565b611346565b34801561051357600080fd5b5060d85461039f906001600160a01b031681565b34801561053357600080fd5b5061037c610542366004614fb9565b60e46020526000908152604090205481565b34801561056057600080fd5b506102f9611624565b34801561057557600080fd5b5061037c60cc5481565b34801561058b57600080fd5b5061037c60d05481565b3480156105a157600080fd5b5061037c60d35481565b3480156105b757600080fd5b5061037c60d65481565b3480156105cd57600080fd5b506102f9611636565b3480156105e257600080fd5b5061039f611712565b3480156105f757600080fd5b5060cc5461037c565b34801561060c57600080fd5b5061037c611726565b34801561062157600080fd5b5061037c610630366004614f8d565b6001600160a01b0391909116600090815260ca60209081526040808320938352929052205490565b34801561066457600080fd5b5061066d611a9b565b60405161033d9190615417565b34801561068657600080fd5b50610330611ad8565b34801561069b57600080fd5b506106af6106aa36600461544e565b611ae5565b60405161033d919061562d565b3480156106c857600080fd5b5060e5546104b79060ff1681565b3480156106e257600080fd5b5061037c60cf5481565b3480156106f857600080fd5b5061070c610707366004615039565b611bd8565b60405161033d91906156e8565b34801561072557600080fd5b506102f9610734366004615858565b611f4b565b34801561074557600080fd5b5061074e612111565b60405161033d9190615910565b34801561076757600080fd5b506106af610776366004615039565b612172565b34801561078757600080fd5b5061074e61260e565b34801561079c57600080fd5b5061037c61266e565b3480156107b157600080fd5b5060cd5461039f906001600160a01b031681565b3480156107d157600080fd5b50600361037c565b3480156107e557600080fd5b5061033061280f565b3480156107fa57600080fd5b506102f9610809366004614fb9565b61281c565b34801561081a57600080fd5b506104b7610829366004615923565b612920565b34801561083a57600080fd5b506104b7613291565b34801561084f57600080fd5b5061037c61085e366004615958565b613323565b34801561086f57600080fd5b506102f961087e366004614fb9565b613688565b34801561088f57600080fd5b506102f961089e3660046159fe565b6136fe565b3480156108af57600080fd5b5060ce5461039f906001600160a01b031681565b60cd60009054906101000a90046001600160a01b03166001600160a01b03166304e31dfb6040518163ffffffff1660e01b8152600401602060405180830381865afa158015610916573d6000803e3d6000fd5b505050506040513d601f19601f8201168201806040525081019061093a9190615a37565b6001600160a01b0316336001600160a01b0316146040518060400160405280600e81526020016d2727aa2fa224a9a820aa21a422a960911b8152509061099c5760405162461bcd60e51b81526004016109939190615026565b60405180910390fd5b5060e55460408051808201909152600c81526b1393d517d310555390d2115160a21b60208201529060ff166109e45760405162461bcd60e51b81526004016109939190615026565b506001600160a01b03909116600090815260e46020526040902055565b60cd5460408051808201909152600b81526a4e4f545f5345525649434560a81b6020820152906001600160a01b03163314610a4f5760405162461bcd60e51b81526004016109939190615026565b5060e55460408051808201909152600c81526b1393d517d310555390d2115160a21b60208201529060ff16610a975760405162461bcd60e51b81526004016109939190615026565b5060408051808201909152600c81526b414444524553535f5a45524f60a01b60208201526001600160a01b038216610ae25760405162461bcd60e51b81526004016109939190615026565b5060ce80546001600160a01b0319166001600160a01b0392909216919091179055565b60d28054610b1290615a54565b80601f0160208091040260200160405190810160405280929190818152602001828054610b3e90615a54565b8015610b8b5780601f10610b6057610100808354040283529160200191610b8b565b820191906000526020600020905b815481529060010190602001808311610b6e57829003601f168201915b505050505081565b60cd5460408051808201909152600b81526a4e4f545f5345525649434560a81b6020820152906001600160a01b03163314610be15760405162461bcd60e51b81526004016109939190615026565b5060e55460408051808201909152600c81526b1393d517d310555390d2115160a21b60208201529060ff16610c295760405162461bcd60e51b81526004016109939190615026565b50610c3381613983565b50565b60d9805460009190610c4a90600190615aa4565b81548110610c5a57610c5a615ab7565b6000918252602090912001546001600160a01b0316919050565b60cd60009054906101000a90046001600160a01b03166001600160a01b0316638da5cb5b6040518163ffffffff1660e01b8152600401602060405180830381865afa158015610cc7573d6000803e3d6000fd5b505050506040513d601f19601f82011682018060405250810190610ceb9190615a37565b6001600160a01b0316336001600160a01b031614604051806040016040528060118152602001702727aa2fa9a2a92b24a1a2afa7aba722a960791b81525090610d475760405162461bcd60e51b81526004016109939190615026565b50610d50613a5e565b565b600054610100900460ff1615808015610d725750600054600160ff909116105b80610d8c5750303b158015610d8c575060005460ff166001145b610def5760405162461bcd60e51b815260206004820152602e60248201527f496e697469616c697a61626c653a20636f6e747261637420697320616c72656160448201526d191e481a5b9a5d1a585b1a5e995960921b6064820152608401610993565b6000805460ff191660011790558015610e12576000805461ff0019166101001790555b610e1a613ab0565b336001600160a01b031663d598d4c96040518163ffffffff1660e01b8152600401602060405180830381865afa158015610e58573d6000803e3d6000fd5b505050506040513d601f19601f82011682018060405250810190610e7c9190615a37565b60cd80546001600160a01b0319166001600160a01b03929092169182179055610ea490613adf565b60d386905560d4610eb58682615b13565b5060d7610ec28582615b13565b5060d683905560d58290558015610f13576000805461ff0019169055604051600181527f7f26b83ff96e1f2b6a682f133852f6798a09c465da95921460cefb38474024989060200160405180910390a15b505050505050565b60da81600a8110610f2b57600080fd5b0154905081565b60cd5460408051808201909152600b81526a4e4f545f5345525649434560a81b6020820152906001600160a01b03163314610f805760405162461bcd60e51b81526004016109939190615026565b5060e55460408051808201909152600c81526b1393d517d310555390d2115160a21b60208201529060ff16610fc85760405162461bcd60e51b81526004016109939190615026565b5060e680546001810182556000919091527fd31ddb47b5e8664717d3718acbd132396ff496fe337159c99410be8658408a270180546001600160a01b0319166001600160a01b0392909216919091179055565b611023613b31565b60e55460408051808201909152600c81526b1393d517d310555390d2115160a21b60208201529060ff1661106a5760405162461bcd60e51b81526004016109939190615026565b5060cd54610c339082906001600160a01b0316613b79565b60cd5460408051808201909152600b81526a4e4f545f5345525649434560a81b6020820152906001600160a01b031633146110d05760405162461bcd60e51b81526004016109939190615026565b5060e55460408051808201909152600c81526b1393d517d310555390d2115160a21b60208201529060ff166111185760405162461bcd60e51b81526004016109939190615026565b5060d980546001810182556000919091527fcc6782fd46dd71c5f512301ab049782450b4eaf79fdac5443d93d274d39167860180546001600160a01b0319166001600160a01b0392909216919091179055565b6040805180820190915260088152671393d517d413d3d360c21b60208201523330146111aa5760405162461bcd60e51b81526004016109939190615026565b506111b3613b31565b60e55460408051808201909152600c81526b1393d517d310555390d2115160a21b60208201529060ff166111fa5760405162461bcd60e51b81526004016109939190615026565b5060cd60009054906101000a90046001600160a01b03166001600160a01b031663cb7e90576040518163ffffffff1660e01b8152600401602060405180830381865afa15801561124e573d6000803e3d6000fd5b505050506040513d601f19601f820116820180604052508101906112729190615a37565b6001600160a01b03166341a453e1858585856040518563ffffffff1660e01b81526004016112a39493929190615bd2565b602060405180830381865afa1580156112c0573d6000803e3d6000fd5b505050506040513d601f19601f820116820180604052508101906112e49190615bfa565b5060cf84905560d083905560d182905561130160da82600a614d81565b5050505050565b600061131660975460ff1690565b905090565b6001600160a01b038216600090815260cb602090815260408083208484529091529020545b92915050565b60cd54604080516304e31dfb60e01b815290516000926001600160a01b0316916304e31dfb9160048083019260209291908290030181865afa158015611390573d6000803e3d6000fd5b505050506040513d601f19601f820116820180604052508101906113b49190615a37565b6001600160a01b0316336001600160a01b0316146040518060400160405280600e81526020016d2727aa2fa224a9a820aa21a422a960911b8152509061140d5760405162461bcd60e51b81526004016109939190615026565b50611416613b31565b60e55460408051808201909152600c81526b1393d517d310555390d2115160a21b60208201529060ff1661145d5760405162461bcd60e51b81526004016109939190615026565b5061161960d15460cf5460d0548a8a604051806020016040528060008152508b60ce60009054906101000a90046001600160a01b03166001600160a01b03166370a0823160cd60009054906101000a90046001600160a01b03166001600160a01b031663803db96d6040518163ffffffff1660e01b8152600401602060405180830381865afa1580156114f4573d6000803e3d6000fd5b505050506040513d601f19601f820116820180604052508101906115189190615a37565b6040516001600160e01b031960e084901b1681526001600160a01b039091166004820152602401602060405180830381865afa15801561155c573d6000803e3d6000fd5b505050506040513d601f19601f820116820180604052508101906115809190615c17565b6115886144bf565b6115906144c9565b61159a9190615aa4565b6115a49190615aa4565b60cd546040516323b550f560e11b8152600160048201526001600160a01b039091169063476aa1ea90602401602060405180830381865afa1580156115ed573d6000803e3d6000fd5b505050506040513d601f19601f820116820180604052508101906116119190615c17565b8d8d8d614537565b979650505050505050565b61162c6147d7565b610d506000613adf565b60cd60009054906101000a90046001600160a01b03166001600160a01b0316638da5cb5b6040518163ffffffff1660e01b8152600401602060405180830381865afa158015611689573d6000803e3d6000fd5b505050506040513d601f19601f820116820180604052508101906116ad9190615a37565b6001600160a01b0316336001600160a01b031614604051806040016040528060118152602001702727aa2fa9a2a92b24a1a2afa7aba722a960791b815250906117095760405162461bcd60e51b81526004016109939190615026565b50610d50614836565b60006113166033546001600160a01b031690565b60008060cd60009054906101000a90046001600160a01b03166001600160a01b0316634db4a3526040518163ffffffff1660e01b8152600401602060405180830381865afa15801561177c573d6000803e3d6000fd5b505050506040513d601f19601f820116820180604052508101906117a09190615a37565b9050600060cd60009054906101000a90046001600160a01b03166001600160a01b031663cb7e90576040518163ffffffff1660e01b8152600401602060405180830381865afa1580156117f7573d6000803e3d6000fd5b505050506040513d601f19601f8201168201806040525081019061181b9190615a37565b90506000816001600160a01b031663ca735cc16040518163ffffffff1660e01b8152600401600060405180830381865afa15801561185d573d6000803e3d6000fd5b505050506040513d6000823e601f3d908101601f191682016040526118859190810190615c30565b90506000805b8251811015611a925760006001600160a01b03168382815181106118b1576118b1615ab7565b60200260200101516001600160a01b0316036118d8576118d14783615cbe565b9150611a80565b60008382815181106118ec576118ec615ab7565b60209081029190910101516040516370a0823160e01b81523060048201526001600160a01b03909116906370a0823190602401602060405180830381865afa15801561193c573d6000803e3d6000fd5b505050506040513d601f19601f820116820180604052508101906119609190615c17565b90508015611a7e57856001600160a01b031663cdca1753866001600160a01b03166350eb1c4387868151811061199857611998615ab7565b60200260200101516040518263ffffffff1660e01b81526004016119cb91906001600160a01b0391909116815260200190565b600060405180830381865afa1580156119e8573d6000803e3d6000fd5b505050506040513d6000823e601f3d908101601f19168201604052611a109190810190615cd1565b836040518363ffffffff1660e01b8152600401611a2e929190615d47565b6020604051808303816000875af1158015611a4d573d6000803e3d6000fd5b505050506040513d601f19601f82011682018060405250810190611a719190615c17565b611a7b9084615cbe565b92505b505b80611a8a81615d69565b91505061188b565b50949350505050565b611aa3614dbf565b604080516101408101918290529060da90600a9082845b815481526020019060010190808311611aba575b5050505050905090565b60d48054610b1290615a54565b600080836020015186611af89190615d82565b90506000846020015184611b0c9190615d82565b905085611b1b88612710615d82565b10158015611b3a5750818560e00151612710611b379190615d82565b10155b8015611b575750808560e00151612710611b549190615d82565b10155b15611b6757600392505050611bd0565b85611b7488612710615d82565b10158015611b925750818560e00151612710611b909190615d82565b105b8015611bb957508085610100015185611bab9190615aa4565b611bb790612710615d82565b105b15611bc957600292505050611bd0565b6000925050505b949350505050565b611be0614dde565b600082815260c960209081526040918290208251610240810184528154815260018201548184015260028201805485518186028101860187528181529295939493860193830182828015611c5d57602002820191906000526020600020905b81546001600160a01b03168152600190910190602001808311611c3f575b5050505050815260200160038201805480602002602001604051908101604052809291908181526020018280548015611cb557602002820191906000526020600020905b815481526020019060010190808311611ca1575b50505050508152602001600482018054611cce90615a54565b80601f0160208091040260200160405190810160405280929190818152602001828054611cfa90615a54565b8015611d475780601f10611d1c57610100808354040283529160200191611d47565b820191906000526020600020905b815481529060010190602001808311611d2a57829003601f168201915b505050918352505060058201546020820152600682015460408201526007820154606082015260088201546080820152600982015460ff808216151560a084015260c090920191610100909104166003811115611da657611da6615617565b6003811115611db757611db7615617565b8152602001600a82018054611dcb90615a54565b80601f0160208091040260200160405190810160405280929190818152602001828054611df790615a54565b8015611e445780601f10611e1957610100808354040283529160200191611e44565b820191906000526020600020905b815481529060010190602001808311611e2757829003601f168201915b5050509183525050600b8201546020820152600c8201546040820152600d82015460609091019060ff166004811115611e7f57611e7f615617565b6004811115611e9057611e90615617565b8152602001600e8201548152602001600f82018054611eae90615a54565b80601f0160208091040260200160405190810160405280929190818152602001828054611eda90615a54565b8015611f275780601f10611efc57610100808354040283529160200191611f27565b820191906000526020600020905b815481529060010190602001808311611f0a57829003601f168201915b5050509183525050601091909101546001600160a01b031660209091015292915050565b60cd5460408051808201909152600b81526a4e4f545f5345525649434560a81b6020820152906001600160a01b03163314611f995760405162461bcd60e51b81526004016109939190615026565b5060e5546040805180820190915260088152671310555390d2115160c21b60208201529060ff1615611fde5760405162461bcd60e51b81526004016109939190615026565b5060e5805460ff19166001179055611ff586613adf565b60cd60009054906101000a90046001600160a01b03166001600160a01b031663cb7e90576040518163ffffffff1660e01b8152600401602060405180830381865afa158015612048573d6000803e3d6000fd5b505050506040513d601f19601f8201168201806040525081019061206c9190615a37565b6001600160a01b03166341a453e1868686866040518563ffffffff1660e01b815260040161209d9493929190615d99565b602060405180830381865afa1580156120ba573d6000803e3d6000fd5b505050506040513d601f19601f820116820180604052508101906120de9190615bfa565b5060d26120eb8282615b13565b5060cf85905560d084905560d183905561210860da83600a614e96565b50505050505050565b606060e6805480602002602001604051908101604052809291908181526020018280548015611ace57602002820191906000526020600020905b81546001600160a01b0316815260019091019060200180831161214b575050505050905090565b600081815260c96020908152604080832081516102408101835281548152600182015481850152600282018054845181870281018701865281815287969395860193909291908301828280156121f157602002820191906000526020600020905b81546001600160a01b031681526001909101906020018083116121d3575b505050505081526020016003820180548060200260200160405190810160405280929190818152602001828054801561224957602002820191906000526020600020905b815481526020019060010190808311612235575b5050505050815260200160048201805461226290615a54565b80601f016020809104026020016040519081016040528092919081815260200182805461228e90615a54565b80156122db5780601f106122b0576101008083540402835291602001916122db565b820191906000526020600020905b8154815290600101906020018083116122be57829003601f168201915b505050918352505060058201546020820152600682015460408201526007820154606082015260088201546080820152600982015460ff808216151560a084015260c09092019161010090910416600381111561233a5761233a615617565b600381111561234b5761234b615617565b8152602001600a8201805461235f90615a54565b80601f016020809104026020016040519081016040528092919081815260200182805461238b90615a54565b80156123d85780601f106123ad576101008083540402835291602001916123d8565b820191906000526020600020905b8154815290600101906020018083116123bb57829003601f168201915b5050509183525050600b8201546020820152600c8201546040820152600d82015460609091019060ff16600481111561241357612413615617565b600481111561242457612424615617565b8152602001600e8201548152602001600f8201805461244290615a54565b80601f016020809104026020016040519081016040528092919081815260200182805461246e90615a54565b80156124bb5780601f10612490576101008083540402835291602001916124bb565b820191906000526020600020905b81548152906001019060200180831161249e57829003601f168201915b5050509183525050601091909101546001600160a01b0316602090910152610120810151909150156124f05750600492915050565b8060a001516000036125055750600092915050565b6003816101400151600381111561251e5761251e615617565b0361252c5750600592915050565b60006125366144bf565b61253e6144c9565b6125489190615aa4565b825190915060009061255a9083615d82565b905060008361010001518460e001516125739190615cbe565b9050600061258382848787611ae5565b9050600081600581111561259957612599615617565b146125a8579695505050505050565b8460c00151431115612601578282101580156125e2575060208501516125ce9083615d82565b60e08601516125df90612710615d82565b10155b156125f4575060039695505050505050565b5060029695505050505050565b5060019695505050505050565b606060d9805480602002602001604051908101604052809291908181526020018280548015611ace576020028201919060005260206000209081546001600160a01b0316815260019091019060200180831161214b575050505050905090565b60008060d98054806020026020016040519081016040528092919081815260200182805480156126c757602002820191906000526020600020905b81546001600160a01b031681526001909101906020018083116126a9575b505050505090506000805b82518110156128085760018382815181106126ef576126ef615ab7565b60200260200101516001600160a01b031663c19d93fb6040518163ffffffff1660e01b8152600401602060405180830381865afa158015612734573d6000803e3d6000fd5b505050506040513d601f19601f820116820180604052508101906127589190615dbc565b600281111561276957612769615617565b146127f65782818151811061278057612780615ab7565b60200260200101516001600160a01b031663c243ce746040518163ffffffff1660e01b8152600401602060405180830381865afa1580156127c5573d6000803e3d6000fd5b505050506040513d601f19601f820116820180604052508101906127e99190615c17565b6127f39083615cbe565b91505b8061280081615d69565b9150506126d2565b5092915050565b60d78054610b1290615a54565b60cd5460408051808201909152600b81526a4e4f545f5345525649434560a81b6020820152906001600160a01b0316331461286a5760405162461bcd60e51b81526004016109939190615026565b5060e55460408051808201909152600c81526b1393d517d310555390d2115160a21b60208201529060ff166128b25760405162461bcd60e51b81526004016109939190615026565b5060408051808201909152600c81526b414444524553535f5a45524f60a01b60208201526001600160a01b0382166128fd5760405162461bcd60e51b81526004016109939190615026565b5060d880546001600160a01b0319166001600160a01b0392909216919091179055565b600082815260c960209081526040808320815161024081018352815481526001820154818501526002820180548451818702810187018652818152879693958601939092919083018282801561299f57602002820191906000526020600020905b81546001600160a01b03168152600190910190602001808311612981575b50505050508152602001600382018054806020026020016040519081016040528092919081815260200182805480156129f757602002820191906000526020600020905b8154815260200190600101908083116129e3575b50505050508152602001600482018054612a1090615a54565b80601f0160208091040260200160405190810160405280929190818152602001828054612a3c90615a54565b8015612a895780601f10612a5e57610100808354040283529160200191612a89565b820191906000526020600020905b815481529060010190602001808311612a6c57829003601f168201915b505050918352505060058201546020820152600682015460408201526007820154606082015260088201546080820152600982015460ff808216151560a084015260c090920191610100909104166003811115612ae857612ae8615617565b6003811115612af957612af9615617565b8152602001600a82018054612b0d90615a54565b80601f0160208091040260200160405190810160405280929190818152602001828054612b3990615a54565b8015612b865780601f10612b5b57610100808354040283529160200191612b86565b820191906000526020600020905b815481529060010190602001808311612b6957829003601f168201915b5050509183525050600b8201546020820152600c8201546040820152600d82015460609091019060ff166004811115612bc157612bc1615617565b6004811115612bd257612bd2615617565b8152602001600e8201548152602001600f82018054612bf090615a54565b80601f0160208091040260200160405190810160405280929190818152602001828054612c1c90615a54565b8015612c695780601f10612c3e57610100808354040283529160200191612c69565b820191906000526020600020905b815481529060010190602001808311612c4c57829003601f168201915b505050505081526020016010820160009054906101000a90046001600160a01b03166001600160a01b03166001600160a01b0316815250509050600080866001600160a01b031663476aa1ea846101c001516004811115612ccc57612ccc615617565b612cd7906001615cbe565b6040518263ffffffff1660e01b8152600401612cf591815260200190565b602060405180830381865afa158015612d12573d6000803e3d6000fd5b505050506040513d601f19601f82011682018060405250810190612d369190615c17565b90506001836101c001516004811115612d5157612d51615617565b1480612d7357506002836101c001516004811115612d7157612d71615617565b145b15613220576000876001600160a01b031663d598d4c96040518163ffffffff1660e01b8152600401602060405180830381865afa158015612db8573d6000803e3d6000fd5b505050506040513d601f19601f82011682018060405250810190612ddc9190615a37565b6001600160a01b0316633a6596bd6040518163ffffffff1660e01b8152600401602060405180830381865afa158015612e19573d6000803e3d6000fd5b505050506040513d601f19601f82011682018060405250810190612e3d9190615a37565b9050600084606001518781518110612e5757612e57615ab7565b6020026020010151905060026004811115612e7457612e74615617565b856101c001516004811115612e8b57612e8b615617565b03612ed15784604001518781518110612ea657612ea6615ab7565b6020026020010151915084606001518781518110612ec657612ec6615ab7565b602002602001015190505b886001600160a01b031663d598d4c96040518163ffffffff1660e01b8152600401602060405180830381865afa158015612f0f573d6000803e3d6000fd5b505050506040513d601f19601f82011682018060405250810190612f339190615a37565b6001600160a01b0316634db4a3526040518163ffffffff1660e01b8152600401602060405180830381865afa158015612f70573d6000803e3d6000fd5b505050506040513d601f19601f82011682018060405250810190612f949190615a37565b6001600160a01b031663cdca175383610bb88c6001600160a01b031663d598d4c96040518163ffffffff1660e01b8152600401602060405180830381865afa158015612fe4573d6000803e3d6000fd5b505050506040513d601f19601f820116820180604052508101906130089190615a37565b6001600160a01b031663e58d777a6040518163ffffffff1660e01b8152600401602060405180830381865afa158015613045573d6000803e3d6000fd5b505050506040513d601f19601f820116820180604052508101906130699190615a37565b604051606093841b6bffffffffffffffffffffffff19908116602083015260e89390931b6001600160e81b0319166034820152921b166037820152604b01604051602081830303815290604052836040518363ffffffff1660e01b81526004016130d4929190615d47565b6020604051808303816000875af192505050801561310f575060408051601f3d908101601f1916820190925261310c91810190615c17565b60015b613180573d80801561313d576040519150601f19603f3d011682016040523d82523d6000602084013e613142565b606091505b507fd563681fb91425dcf80355c43ba21b499735e439376274fa5ceadfc8ea9bbd98816040516131729190615026565b60405180910390a150613183565b93505b6040516323b550f560e11b8152600060048201526001600160a01b038a169063476aa1ea90602401602060405180830381865afa1580156131c8573d6000803e3d6000fd5b505050506040513d601f19601f820116820180604052508101906131ec9190615c17565b841015801561320a57506101a08501516132069084615cbe565b4311155b1561321d5760009550505050505061328a565b50505b6003836101c00151600481111561323957613239615617565b148061325b57506004836101c00151600481111561325957613259615617565b145b15613282576101a08301516132709082615cbe565b4311613282576000935050505061328a565b600193505050505b9392505050565b6000600260d860009054906101000a90046001600160a01b03166001600160a01b031663c19d93fb6040518163ffffffff1660e01b8152600401602060405180830381865afa1580156132e8573d6000803e3d6000fd5b505050506040513d601f19601f8201168201806040525081019061330c9190615dbc565b600281111561331d5761331d615617565b14905090565b60cd54604080516304e31dfb60e01b815290516000926001600160a01b0316916304e31dfb9160048083019260209291908290030181865afa15801561336d573d6000803e3d6000fd5b505050506040513d601f19601f820116820180604052508101906133919190615a37565b6001600160a01b0316336001600160a01b0316146040518060400160405280600e81526020016d2727aa2fa224a9a820aa21a422a960911b815250906133ea5760405162461bcd60e51b81526004016109939190615026565b506133f3613b31565b60e55460408051808201909152600c81526b1393d517d310555390d2115160a21b60208201529060ff1661343a5760405162461bcd60e51b81526004016109939190615026565b5060408051600180825281830190925260009160208083019080368337019050509050878160008151811061347157613471615ab7565b6001600160a01b03929092166020928302919091019091015260408051600180825281830190925260009181602001602082028036833701905050905087816000815181106134c2576134c2615ab7565b60200260200101818152505061367b60d15460cf5460d05485858c8c60ce60009054906101000a90046001600160a01b03166001600160a01b03166370a0823160cd60009054906101000a90046001600160a01b03166001600160a01b031663803db96d6040518163ffffffff1660e01b8152600401602060405180830381865afa158015613555573d6000803e3d6000fd5b505050506040513d601f19601f820116820180604052508101906135799190615a37565b6040516001600160e01b031960e084901b1681526001600160a01b039091166004820152602401602060405180830381865afa1580156135bd573d6000803e3d6000fd5b505050506040513d601f19601f820116820180604052508101906135e19190615c17565b6135e96144bf565b6135f16144c9565b6135fb9190615aa4565b6136059190615aa4565b60cd546040516323b550f560e11b8152600160048201526001600160a01b039091169063476aa1ea90602401602060405180830381865afa15801561364e573d6000803e3d6000fd5b505050506040513d601f19601f820116820180604052508101906136729190615c17565b8e8e6000614537565b9998505050505050505050565b6136906147d7565b6001600160a01b0381166136f55760405162461bcd60e51b815260206004820152602660248201527f4f776e61626c653a206e6577206f776e657220697320746865207a65726f206160448201526564647265737360d01b6064820152608401610993565b610c3381613adf565b613706614873565b61370e613b31565b60e55460408051808201909152600c81526b1393d517d310555390d2115160a21b60208201529060ff166137555760405162461bcd60e51b81526004016109939190615026565b5060001982036137d95760ce5460405163468b3b3360e01b8152336004820152602481018590526001600160a01b039091169063468b3b3390604401602060405180830381865afa1580156137ae573d6000803e3d6000fd5b505050506040513d601f19601f820116820180604052508101906137d29190615c17565b915061389c565b60ce5460405163468b3b3360e01b8152336004820152602481018590526001600160a01b039091169063468b3b3390604401602060405180830381865afa158015613828573d6000803e3d6000fd5b505050506040513d601f19601f8201168201806040525081019061384c9190615c17565b821115604051806040016040528060148152602001734c4f575f554e4c4f434b45445f42414c414e434560601b8152509061389a5760405162461bcd60e51b81526004016109939190615026565b505b60408051808201909152600a81526956414c55455f5a45524f60b01b6020820152826138db5760405162461bcd60e51b81526004016109939190615026565b506138e78383836148cc565b60ce546001600160a01b031663c97be180338461390387611bd8565b60c001516040516001600160e01b031960e086901b1681526001600160a01b0390931660048401526024830191909152604482015260648101869052608401600060405180830381600087803b15801561395c57600080fd5b505af1158015613970573d6000803e3d6000fd5b5050505061397e6001606555565b505050565b600161398e82612172565b600581111561399f5761399f615617565b14806139c4575060036139b182612172565b60058111156139c2576139c2615617565b145b6040518060400160405280600b81526020016a57524f4e475f535441544560a81b81525090613a065760405162461bcd60e51b81526004016109939190615026565b50600081815260c96020908152604091829020600901805461030061ff001990911617905590518281527f416e669c63d9a3a5e36ee7cc7e2104b8db28ccd286aa18966e98fa230c73b08c910160405180910390a150565b613a66614a75565b6097805460ff191690557f5db9ee0a495bf2e6ff9c91a7834c1ba4fdd244a5e8aa4e537bd38aeae4b073aa335b6040516001600160a01b03909116815260200160405180910390a1565b600054610100900460ff16613ad75760405162461bcd60e51b815260040161099390615ddd565b610d50614ac0565b603380546001600160a01b038381166001600160a01b0319831681179093556040519116919082907f8be0079c531659141344cd1fd0a4f28419497f9722a3daafe3b4186f6b6457e090600090a35050565b613b39611308565b15610d505760405162461bcd60e51b815260206004820152601060248201526f14185d5cd8589b194e881c185d5cd95960821b6044820152606401610993565b600082815260c96020908152604080832081516102408101835281548152600182015481850152600282018054845181870281018701865281815292959394860193830182828015613bf457602002820191906000526020600020905b81546001600160a01b03168152600190910190602001808311613bd6575b5050505050815260200160038201805480602002602001604051908101604052809291908181526020018280548015613c4c57602002820191906000526020600020905b815481526020019060010190808311613c38575b50505050508152602001600482018054613c6590615a54565b80601f0160208091040260200160405190810160405280929190818152602001828054613c9190615a54565b8015613cde5780601f10613cb357610100808354040283529160200191613cde565b820191906000526020600020905b815481529060010190602001808311613cc157829003601f168201915b505050918352505060058201546020820152600682015460408201526007820154606082015260088201546080820152600982015460ff808216151560a084015260c090920191610100909104166003811115613d3d57613d3d615617565b6003811115613d4e57613d4e615617565b8152602001600a82018054613d6290615a54565b80601f0160208091040260200160405190810160405280929190818152602001828054613d8e90615a54565b8015613ddb5780601f10613db057610100808354040283529160200191613ddb565b820191906000526020600020905b815481529060010190602001808311613dbe57829003601f168201915b5050509183525050600b8201546020820152600c8201546040820152600d82015460609091019060ff166004811115613e1657613e16615617565b6004811115613e2757613e27615617565b8152602001600e8201548152602001600f82018054613e4590615a54565b80601f0160208091040260200160405190810160405280929190818152602001828054613e7190615a54565b8015613ebe5780601f10613e9357610100808354040283529160200191613ebe565b820191906000526020600020905b815481529060010190602001808311613ea157829003601f168201915b5050509183525050601091909101546001600160a01b031660209091015290506003613ee984612172565b6005811115613efa57613efa615617565b146040518060400160405280600b81526020016a57524f4e475f535441544560a81b81525090613f3d5760405162461bcd60e51b81526004016109939190615026565b5060008084815260c96020526040902060090154610100900460ff166003811115613f6a57613f6a615617565b146040518060400160405280601081526020016f1053149150511657d1561150d555115160821b81525090613fb25760405162461bcd60e51b81526004016109939190615026565b508060c00151431061401e57806101e001518160c00151613fd39190615cbe565b4310156040518060400160405280600b81526020016a424c4f434b5f44454c415960a81b815250906140185760405162461bcd60e51b81526004016109939190615026565b5061407b565b806101e00151816101a001516140349190615cbe565b4310156040518060400160405280600b81526020016a424c4f434b5f44454c415960a81b815250906140795760405162461bcd60e51b81526004016109939190615026565b505b600083815260c960205260408120600901805460ff19166001179055805b82604001515181101561426a576140b1308683612920565b6040518060400160405280600b81526020016a424c4f434b5f44454c415960a81b815250906140f35760405162461bcd60e51b81526004016109939190615026565b506002836101c00151600481111561410d5761410d615617565b146141fb578260400151818151811061412857614128615ab7565b60200260200101516001600160a01b03168360600151828151811061414f5761414f615ab7565b602002602001015184608001516040516141699190615e28565b60006040518083038185875af1925050503d80600081146141a6576040519150601f19603f3d011682016040523d82523d6000602084013e6141ab565b606091505b505060408051808201909152601081526f11561150d5551253d397d1905253115160821b6020820152909250826141f55760405162461bcd60e51b81526004016109939190615026565b50614258565b6142588360400151828151811061421457614214615ab7565b60200260200101518460600151838151811061423257614232615ab7565b60200260200101518561022001516001600160a01b0316614af09092919063ffffffff16565b8061426281615d69565b915050614099565b506001826101c00151600481111561428457614284615617565b036142f25761020082015160405163b677bc6960e01b81526001600160a01b0385169163b677bc69916142bf91600191899190600401615e44565b600060405180830381600087803b1580156142d957600080fd5b505af11580156142ed573d6000803e3d6000fd5b505050505b6002826101c00151600481111561430b5761430b615617565b036143795761020082015160405163b677bc6960e01b81526001600160a01b0385169163b677bc699161434691600291899190600401615e44565b600060405180830381600087803b15801561436057600080fd5b505af1158015614374573d6000803e3d6000fd5b505050505b6003826101c00151600481111561439257614392615617565b036144005761020082015160405163b677bc6960e01b81526001600160a01b0385169163b677bc69916143cd91600391899190600401615e44565b600060405180830381600087803b1580156143e757600080fd5b505af11580156143fb573d6000803e3d6000fd5b505050505b6004826101c00151600481111561441957614419615617565b036144865761020082015160405163b677bc6960e01b81526001600160a01b0385169163b677bc6991614453916004918991908301615e44565b600060405180830381600087803b15801561446d57600080fd5b505af1158015614481573d6000803e3d6000fd5b505050505b6040518481527f712ae1383f79ac853f8d882153778e0260ef8f03b504e2866e0593e04d2b291f9060200160405180910390a150505050565b600061131661266e565b60ce54604080516318160ddd60e01b815290516000926001600160a01b0316916318160ddd9160048083019260209291908290030181865afa158015614513573d6000803e3d6000fd5b505050506040513d601f19601f820116820180604052508101906113169190615c17565b600060cc6000815461454890615d69565b91905081905590506040518061024001604052808d81526020018c81526020018b81526020018a81526020018981526020014381526020018e4361458c9190615cbe565b81526020016000815260200160008152602001600015158152602001600060038111156145bb576145bb615617565b8152602001888152602001878152602001600081526020018560048111156145e5576145e5615617565b8152602080820188905260408083018790526001600160a01b038616606090930192909252600084815260c98252829020835181558382015160018201559183015180516146399260028501920190614ec4565b5060608201518051614655916003840191602090910190614f19565b506080820151600482019061466a9082615b13565b5060a0820151600582015560c0820151600682015560e0820151600782015561010080830151600883015561012083015160098301805491151560ff1983168117825561014086015193919261ff001990911661ffff1990911617908360038111156146d8576146d8615617565b0217905550610160820151600a8201906146f29082615b13565b50610180820151600b8201556101a0820151600c8201556101c0820151600d8201805460ff1916600183600481111561472d5761472d615617565b02179055506101e0820151600e820155610200820151600f8201906147529082615b13565b506102209190910151601090910180546001600160a01b0319166001600160a01b0390921691909117905561478681614b42565b7fb65276295c8836e61205070fc79a77f98853929453c317f5d31389290b2acc3d818d8c8c8c8c6040516147bf96959493929190615e6c565b60405180910390a19c9b505050505050505050505050565b336147e0611712565b6001600160a01b031614610d505760405162461bcd60e51b815260206004820181905260248201527f4f776e61626c653a2063616c6c6572206973206e6f7420746865206f776e65726044820152606401610993565b61483e613b31565b6097805460ff191660011790557f62e78cea01bee320cd4e420270b5ea74000d11b0c9f74754ebdbfc544b05a258613a933390565b6002606554036148c55760405162461bcd60e51b815260206004820152601f60248201527f5265656e7472616e637947756172643a207265656e7472616e742063616c6c006044820152606401610993565b6002606555565b4360c9600085815260200190815260200160002060060154116040518060400160405280600f81526020016e1593d5125391d7d192539254d21151608a1b8152509061492b5760405162461bcd60e51b81526004016109939190615026565b50801561498d57600083815260c9602052604081206007018054849290614953908490615cbe565b909155505033600090815260ca6020908152604080832086845290915281208054849290614982908490615cbe565b909155506149e39050565b600083815260c96020526040812060080180548492906149ae908490615cbe565b909155505033600090815260cb60209081526040808320868452909152812080548492906149dd908490615cbe565b90915550505b600083815260c96020526040902043600c90910155614a006144bf565b614a086144c9565b614a129190615aa4565b600084815260c96020908152604091829020600b01929092558051338152918201859052810183905281151560608201527f2c48deccc79dbba942eeb2f991c4bfa0ac136723ddc0ea1b575dd85373408df89060800160405180910390a1505050565b614a7d611308565b610d505760405162461bcd60e51b815260206004820152601460248201527314185d5cd8589b194e881b9bdd081c185d5cd95960621b6044820152606401610993565b600054610100900460ff16614ae75760405162461bcd60e51b815260040161099390615ddd565b610d5033613adf565b604080516001600160a01b038416602482015260448082018490528251808303909101815260649091019091526020810180516001600160e01b031663a9059cbb60e01b17905261397e908490614b9c565b60cd54604051630ffb246960e21b8152600481018390526001600160a01b0390911690633fec91a490602401600060405180830381600087803b158015614b8857600080fd5b505af1158015611301573d6000803e3d6000fd5b6000614bf1826040518060400160405280602081526020017f5361666545524332303a206c6f772d6c6576656c2063616c6c206661696c6564815250856001600160a01b0316614c6e9092919063ffffffff16565b80519091501561397e5780806020019051810190614c0f9190615bfa565b61397e5760405162461bcd60e51b815260206004820152602a60248201527f5361666545524332303a204552433230206f7065726174696f6e20646964206e6044820152691bdd081cdd58d8d9595960b21b6064820152608401610993565b6060611bd0848460008585600080866001600160a01b03168587604051614c959190615e28565b60006040518083038185875af1925050503d8060008114614cd2576040519150601f19603f3d011682016040523d82523d6000602084013e614cd7565b606091505b50915091506116198783838760608315614d52578251600003614d4b576001600160a01b0385163b614d4b5760405162461bcd60e51b815260206004820152601d60248201527f416464726573733a2063616c6c20746f206e6f6e2d636f6e74726163740000006044820152606401610993565b5081611bd0565b611bd08383815115614d675781518083602001fd5b8060405162461bcd60e51b81526004016109939190615026565b82600a8101928215614daf579160200282015b82811115614daf578235825591602001919060010190614d94565b50614dbb929150614f53565b5090565b604051806101400160405280600a906020820280368337509192915050565b60405180610240016040528060008152602001600081526020016060815260200160608152602001606081526020016000815260200160008152602001600081526020016000815260200160001515815260200160006003811115614e4557614e45615617565b815260200160608152602001600081526020016000815260200160006004811115614e7257614e72615617565b8152602001600081526020016060815260200160006001600160a01b031681525090565b82600a8101928215614daf579160200282015b82811115614daf578251825591602001919060010190614ea9565b828054828255906000526020600020908101928215614daf579160200282015b82811115614daf57825182546001600160a01b0319166001600160a01b03909116178255602090920191600190910190614ee4565b828054828255906000526020600020908101928215614daf5791602002820182811115614daf578251825591602001919060010190614ea9565b5b80821115614dbb5760008155600101614f54565b6001600160a01b0381168114610c3357600080fd5b8035614f8881614f68565b919050565b60008060408385031215614fa057600080fd5b8235614fab81614f68565b946020939093013593505050565b600060208284031215614fcb57600080fd5b813561328a81614f68565b60005b83811015614ff1578181015183820152602001614fd9565b50506000910152565b60008151808452615012816020860160208601614fd6565b601f01601f19169290920160200192915050565b60208152600061328a6020830184614ffa565b60006020828403121561504b57600080fd5b5035919050565b634e487b7160e01b600052604160045260246000fd5b60405161024081016001600160401b038111828210171561508b5761508b615052565b60405290565b60405161014081016001600160401b038111828210171561508b5761508b615052565b604051601f8201601f191681016001600160401b03811182821017156150dc576150dc615052565b604052919050565b60006001600160401b038211156150fd576150fd615052565b50601f01601f191660200190565b600082601f83011261511c57600080fd5b813561512f61512a826150e4565b6150b4565b81815284602083860101111561514457600080fd5b816020850160208301376000918101602001919091529392505050565b600080600080600060a0868803121561517957600080fd5b8535945060208601356001600160401b038082111561519757600080fd5b6151a389838a0161510b565b955060408801359150808211156151b957600080fd5b506151c68882890161510b565b9598949750949560608101359550608001359392505050565b6000806000806101a08086880312156151f757600080fd5b85359450602086013593506040860135925086818701111561521857600080fd5b509295919450926060019150565b60006001600160401b0382111561523f5761523f615052565b5060051b60200190565b600082601f83011261525a57600080fd5b8135602061526a61512a83615226565b82815260059290921b8401810191818101908684111561528957600080fd5b8286015b848110156152ad5780356152a081614f68565b835291830191830161528d565b509695505050505050565b600082601f8301126152c957600080fd5b813560206152d961512a83615226565b82815260059290921b840181019181810190868411156152f857600080fd5b8286015b848110156152ad57803583529183019183016152fc565b803560058110614f8857600080fd5b60008060008060008060c0878903121561533b57600080fd5b86356001600160401b038082111561535257600080fd5b61535e8a838b01615249565b9750602089013591508082111561537457600080fd5b6153808a838b016152b8565b9650604089013591508082111561539657600080fd5b6153a28a838b0161510b565b95506153b060608a01615313565b945060808901359150808211156153c657600080fd5b506153d389828a0161510b565b9250506153e260a08801614f7d565b90509295509295509295565b8060005b600a8110156154115781518452602093840193909101906001016153f2565b50505050565b610140810161134082846153ee565b8015158114610c3357600080fd5b8035614f8881615426565b803560048110614f8857600080fd5b6000806000806080858703121561546457600080fd5b843593506020850135925060408501356001600160401b038082111561548957600080fd5b90860190610240828903121561549e57600080fd5b6154a6615068565b82358152602083013560208201526040830135828111156154c657600080fd5b6154d28a828601615249565b6040830152506060830135828111156154ea57600080fd5b6154f68a8286016152b8565b60608301525060808301358281111561550e57600080fd5b61551a8a82860161510b565b60808301525060a083013560a082015260c083013560c082015260e083013560e0820152610100808401358183015250610120615558818501615434565b9082015261014061556a84820161543f565b90820152610160838101358381111561558257600080fd5b61558e8b82870161510b565b8284015250506101808084013581830152506101a08084013581830152506101c06155ba818501615313565b908201526101e0838101359082015261020080840135838111156155dd57600080fd5b6155e98b82870161510b565b82840152505061022091506155ff828401614f7d565b91810191909152949793965093946060013593505050565b634e487b7160e01b600052602160045260246000fd5b602081016006831061564157615641615617565b91905290565b600081518084526020808501945080840160005b838110156156805781516001600160a01b03168752958201959082019060010161565b565b509495945050505050565b600081518084526020808501945080840160005b838110156156805781518752958201959082019060010161569f565b600481106156cb576156cb615617565b9052565b60058110610c3357610c33615617565b6156cb816156cf565b6020815281516020820152602082015160408201526000604083015161024080606085015261571b610260850183615647565b91506060850151601f1980868503016080870152615739848361568b565b935060808701519150808685030160a08701526157568483614ffa565b935060a087015160c087015260c087015160e087015260e087015191506101008281880152808801519250506101208281880152808801519250506101406157a18188018415159052565b87015191506101606157b5878201846156bb565b808801519250506101808187860301818801526157d28584614ffa565b908801516101a0888101919091528801516101c08089019190915288015190945091506101e0615804818801846156df565b808801519250506102008281880152808801519250506102208187860301818801526158308584614ffa565b9450808801519250505061584e828601826001600160a01b03169052565b5090949350505050565b6000806000806000806101e0878903121561587257600080fd5b863561587d81614f68565b955060208781013595506040880135945060608801359350609f880189136158a457600080fd5b6158ac615091565b806101c08a018b8111156158bf57600080fd5b60808b015b818110156158db57803584529284019284016158c4565b50909450359150506001600160401b038111156158f757600080fd5b61590389828a0161510b565b9150509295509295509295565b60208152600061328a6020830184615647565b60008060006060848603121561593857600080fd5b833561594381614f68565b95602085013595506040909401359392505050565b60008060008060008060c0878903121561597157600080fd5b863561597c81614f68565b95506020870135945060408701356001600160401b038082111561599f57600080fd5b6159ab8a838b0161510b565b955060608901359150808211156159c157600080fd5b6159cd8a838b0161510b565b94506159db60808a01615313565b935060a08901359150808211156159f157600080fd5b5061590389828a0161510b565b600080600060608486031215615a1357600080fd5b83359250602084013591506040840135615a2c81615426565b809150509250925092565b600060208284031215615a4957600080fd5b815161328a81614f68565b600181811c90821680615a6857607f821691505b602082108103615a8857634e487b7160e01b600052602260045260246000fd5b50919050565b634e487b7160e01b600052601160045260246000fd5b8181038181111561134057611340615a8e565b634e487b7160e01b600052603260045260246000fd5b601f82111561397e57600081815260208120601f850160051c81016020861015615af45750805b601f850160051c820191505b81811015610f1357828155600101615b00565b81516001600160401b03811115615b2c57615b2c615052565b615b4081615b3a8454615a54565b84615acd565b602080601f831160018114615b755760008415615b5d5750858301515b600019600386901b1c1916600185901b178555610f13565b600085815260208120601f198616915b82811015615ba457888601518255948401946001909101908401615b85565b5085821015615bc25787850151600019600388901b60f8161c191681555b5050505050600190811b01905550565b84815260208101849052604081018390526101a0810161014083606084013795945050505050565b600060208284031215615c0c57600080fd5b815161328a81615426565b600060208284031215615c2957600080fd5b5051919050565b60006020808385031215615c4357600080fd5b82516001600160401b03811115615c5957600080fd5b8301601f81018513615c6a57600080fd5b8051615c7861512a82615226565b81815260059190911b82018301908381019087831115615c9757600080fd5b928401925b82841015611619578351615caf81614f68565b82529284019290840190615c9c565b8082018082111561134057611340615a8e565b600060208284031215615ce357600080fd5b81516001600160401b03811115615cf957600080fd5b8201601f81018413615d0a57600080fd5b8051615d1861512a826150e4565b818152856020838501011115615d2d57600080fd5b615d3e826020830160208601614fd6565b95945050505050565b604081526000615d5a6040830185614ffa565b90508260208301529392505050565b600060018201615d7b57615d7b615a8e565b5060010190565b808202811582820484141761134057611340615a8e565b84815260208101849052604081018390526101a08101615d3e60608301846153ee565b600060208284031215615dce57600080fd5b81516003811061328a57600080fd5b6020808252602b908201527f496e697469616c697a61626c653a20636f6e7472616374206973206e6f74206960408201526a6e697469616c697a696e6760a81b606082015260800190565b60008251615e3a818460208701614fd6565b9190910192915050565b615e4d846156cf565b838152826020820152606060408201526000615d3e6060830184614ffa565b86815285602082015260c060408201526000615e8b60c0830187615647565b8281036060840152615e9d818761568b565b90508281036080840152615eb18186614ffa565b905082810360a084015261367b8185614ffa56fea26469706673582212201aeb059119d19f13d8bee9d27d5ddac4fd3e39efe9d77081efbb9c76dea2731964736f6c63430008110033",
  "linkReferences": {},
  "deployedLinkReferences": {}
}