{
  "_format": "hh-sol-artifact-1",
  "contractName": "Pool",
  "sourceName": "contracts/Pool.sol",
  "abi": [
    {
      "inputs": [],
      "stateMutability": "nonpayable",
      "type": "constructor"
    },
    {
      "anonymous": false,
      "inputs": [
        {
          "indexed": false,
          "internalType": "bytes",
          "name": "data",
          "type": "bytes"
        }
      ],
      "name": "ErrorCaugth",
      "type": "event"
    },
    {
      "anonymous": false,
      "inputs": [
        {
          "indexed": false,
          "internalType": "uint8",
          "name": "version",
          "type": "uint8"
        }
      ],
      "name": "Initialized",
      "type": "event"
    },
    {
      "anonymous": false,
      "inputs": [
        {
          "indexed": true,
          "internalType": "address",
          "name": "previousOwner",
          "type": "address"
        },
        {
          "indexed": true,
          "internalType": "address",
          "name": "newOwner",
          "type": "address"
        }
      ],
      "name": "OwnershipTransferred",
      "type": "event"
    },
    {
      "anonymous": false,
      "inputs": [
        {
          "indexed": false,
          "internalType": "address",
          "name": "account",
          "type": "address"
        }
      ],
      "name": "Paused",
      "type": "event"
    },
    {
      "anonymous": false,
      "inputs": [
        {
          "indexed": false,
          "internalType": "uint256",
          "name": "proposalId",
          "type": "uint256"
        }
      ],
      "name": "ProposalCancelled",
      "type": "event"
    },
    {
      "anonymous": false,
      "inputs": [
        {
          "indexed": false,
          "internalType": "uint256",
          "name": "proposalId",
          "type": "uint256"
        },
        {
          "indexed": false,
          "internalType": "uint256",
          "name": "quorum",
          "type": "uint256"
        },
        {
          "indexed": false,
          "internalType": "address[]",
          "name": "targets",
          "type": "address[]"
        },
        {
          "indexed": false,
          "internalType": "uint256[]",
          "name": "values",
          "type": "uint256[]"
        },
        {
          "indexed": false,
          "internalType": "bytes",
          "name": "calldatas",
          "type": "bytes"
        },
        {
          "indexed": false,
          "internalType": "string",
          "name": "description",
          "type": "string"
        }
      ],
      "name": "ProposalCreated",
      "type": "event"
    },
    {
      "anonymous": false,
      "inputs": [
        {
          "indexed": false,
          "internalType": "uint256",
          "name": "proposalId",
          "type": "uint256"
        }
      ],
      "name": "ProposalExecuted",
      "type": "event"
    },
    {
      "anonymous": false,
      "inputs": [
        {
          "indexed": false,
          "internalType": "address",
          "name": "account",
          "type": "address"
        }
      ],
      "name": "Unpaused",
      "type": "event"
    },
    {
      "anonymous": false,
      "inputs": [
        {
          "indexed": false,
          "internalType": "address",
          "name": "voter",
          "type": "address"
        },
        {
          "indexed": false,
          "internalType": "uint256",
          "name": "proposalId",
          "type": "uint256"
        },
        {
          "indexed": false,
          "internalType": "uint256",
          "name": "votes",
          "type": "uint256"
        },
        {
          "indexed": false,
          "internalType": "bool",
          "name": "support",
          "type": "bool"
        }
      ],
      "name": "VoteCast",
      "type": "event"
    },
    {
      "inputs": [],
      "name": "EIN",
      "outputs": [
        {
          "internalType": "string",
          "name": "",
          "type": "string"
        }
      ],
      "stateMutability": "view",
      "type": "function"
    },
    {
      "inputs": [
        {
          "internalType": "uint256",
          "name": "totalCastVotes",
          "type": "uint256"
        },
        {
          "internalType": "uint256",
          "name": "quorumVotes",
          "type": "uint256"
        },
        {
          "components": [
            {
              "internalType": "uint256",
              "name": "ballotQuorumThreshold",
              "type": "uint256"
            },
            {
              "internalType": "uint256",
              "name": "ballotDecisionThreshold",
              "type": "uint256"
            },
            {
              "internalType": "address[]",
              "name": "targets",
              "type": "address[]"
            },
            {
              "internalType": "uint256[]",
              "name": "values",
              "type": "uint256[]"
            },
            {
              "internalType": "bytes",
              "name": "callData",
              "type": "bytes"
            },
            {
              "internalType": "uint256",
              "name": "startBlock",
              "type": "uint256"
            },
            {
              "internalType": "uint256",
              "name": "endBlock",
              "type": "uint256"
            },
            {
              "internalType": "uint256",
              "name": "forVotes",
              "type": "uint256"
            },
            {
              "internalType": "uint256",
              "name": "againstVotes",
              "type": "uint256"
            },
            {
              "internalType": "bool",
              "name": "executed",
              "type": "bool"
            },
            {
              "internalType": "enum Governor.ProposalExecutionState",
              "name": "state",
              "type": "uint8"
            },
            {
              "internalType": "string",
              "name": "description",
              "type": "string"
            },
            {
              "internalType": "uint256",
              "name": "totalSupply",
              "type": "uint256"
            },
            {
              "internalType": "uint256",
              "name": "lastVoteBlock",
              "type": "uint256"
            },
            {
              "internalType": "enum IDispatcher.ProposalType",
              "name": "proposalType",
              "type": "uint8"
            },
            {
              "internalType": "uint256",
              "name": "execDelay",
              "type": "uint256"
            },
            {
              "internalType": "string",
              "name": "metaHash",
              "type": "string"
            },
            {
              "internalType": "address",
              "name": "token",
              "type": "address"
            }
          ],
          "internalType": "struct Governor.Proposal",
          "name": "proposal",
          "type": "tuple"
        },
        {
          "internalType": "uint256",
          "name": "totalAvailableVotes",
          "type": "uint256"
        }
      ],
      "name": "aheadOfTimeBallot",
      "outputs": [
        {
          "internalType": "enum Governor.ProposalState",
          "name": "",
          "type": "uint8"
        }
      ],
      "stateMutability": "pure",
      "type": "function"
    },
    {
      "inputs": [],
      "name": "ballotDecisionThreshold",
      "outputs": [
        {
          "internalType": "uint256",
          "name": "",
          "type": "uint256"
        }
      ],
      "stateMutability": "view",
      "type": "function"
    },
    {
      "inputs": [
        {
          "internalType": "uint256",
          "name": "",
          "type": "uint256"
        }
      ],
      "name": "ballotExecDelay",
      "outputs": [
        {
          "internalType": "uint256",
          "name": "",
          "type": "uint256"
        }
      ],
      "stateMutability": "view",
      "type": "function"
    },
    {
      "inputs": [],
      "name": "ballotLifespan",
      "outputs": [
        {
          "internalType": "uint256",
          "name": "",
          "type": "uint256"
        }
      ],
      "stateMutability": "view",
      "type": "function"
    },
    {
      "inputs": [],
      "name": "ballotQuorumThreshold",
      "outputs": [
        {
          "internalType": "uint256",
          "name": "",
          "type": "uint256"
        }
      ],
      "stateMutability": "view",
      "type": "function"
    },
    {
      "inputs": [
        {
          "internalType": "uint256",
          "name": "proposalId",
          "type": "uint256"
        },
        {
          "internalType": "uint256",
          "name": "votes",
          "type": "uint256"
        },
        {
          "internalType": "bool",
          "name": "support",
          "type": "bool"
        }
      ],
      "name": "castVote",
      "outputs": [],
      "stateMutability": "nonpayable",
      "type": "function"
    },
    {
      "inputs": [],
      "name": "dateOfIncorporation",
      "outputs": [
        {
          "internalType": "string",
          "name": "",
          "type": "string"
        }
      ],
      "stateMutability": "view",
      "type": "function"
    },
    {
      "inputs": [],
      "name": "entityType",
      "outputs": [
        {
          "internalType": "uint256",
          "name": "",
          "type": "uint256"
        }
      ],
      "stateMutability": "view",
      "type": "function"
    },
    {
      "inputs": [
        {
          "internalType": "uint256",
          "name": "proposalId",
          "type": "uint256"
        }
      ],
      "name": "executeBallot",
      "outputs": [],
      "stateMutability": "nonpayable",
      "type": "function"
    },
    {
      "inputs": [
        {
          "internalType": "address",
          "name": "user",
          "type": "address"
        },
        {
          "internalType": "uint256",
          "name": "proposalId",
          "type": "uint256"
        }
      ],
      "name": "getAgainstVotes",
      "outputs": [
        {
          "internalType": "uint256",
          "name": "",
          "type": "uint256"
        }
      ],
      "stateMutability": "view",
      "type": "function"
    },
    {
      "inputs": [],
      "name": "getBallotExecDelay",
      "outputs": [
        {
          "internalType": "uint256[10]",
          "name": "",
          "type": "uint256[10]"
        }
      ],
      "stateMutability": "view",
      "type": "function"
    },
    {
      "inputs": [
        {
          "internalType": "address",
          "name": "user",
          "type": "address"
        },
        {
          "internalType": "uint256",
          "name": "proposalId",
          "type": "uint256"
        }
      ],
      "name": "getForVotes",
      "outputs": [
        {
          "internalType": "uint256",
          "name": "",
          "type": "uint256"
        }
      ],
      "stateMutability": "view",
      "type": "function"
    },
    {
      "inputs": [
        {
          "internalType": "uint256",
          "name": "proposalId",
          "type": "uint256"
        }
      ],
      "name": "getProposal",
      "outputs": [
        {
          "components": [
            {
              "internalType": "uint256",
              "name": "ballotQuorumThreshold",
              "type": "uint256"
            },
            {
              "internalType": "uint256",
              "name": "ballotDecisionThreshold",
              "type": "uint256"
            },
            {
              "internalType": "address[]",
              "name": "targets",
              "type": "address[]"
            },
            {
              "internalType": "uint256[]",
              "name": "values",
              "type": "uint256[]"
            },
            {
              "internalType": "bytes",
              "name": "callData",
              "type": "bytes"
            },
            {
              "internalType": "uint256",
              "name": "startBlock",
              "type": "uint256"
            },
            {
              "internalType": "uint256",
              "name": "endBlock",
              "type": "uint256"
            },
            {
              "internalType": "uint256",
              "name": "forVotes",
              "type": "uint256"
            },
            {
              "internalType": "uint256",
              "name": "againstVotes",
              "type": "uint256"
            },
            {
              "internalType": "bool",
              "name": "executed",
              "type": "bool"
            },
            {
              "internalType": "enum Governor.ProposalExecutionState",
              "name": "state",
              "type": "uint8"
            },
            {
              "internalType": "string",
              "name": "description",
              "type": "string"
            },
            {
              "internalType": "uint256",
              "name": "totalSupply",
              "type": "uint256"
            },
            {
              "internalType": "uint256",
              "name": "lastVoteBlock",
              "type": "uint256"
            },
            {
              "internalType": "enum IDispatcher.ProposalType",
              "name": "proposalType",
              "type": "uint8"
            },
            {
              "internalType": "uint256",
              "name": "execDelay",
              "type": "uint256"
            },
            {
              "internalType": "string",
              "name": "metaHash",
              "type": "string"
            },
            {
              "internalType": "address",
              "name": "token",
              "type": "address"
            }
          ],
          "internalType": "struct Governor.Proposal",
          "name": "",
          "type": "tuple"
        }
      ],
      "stateMutability": "view",
      "type": "function"
    },
    {
      "inputs": [],
      "name": "getTVL",
      "outputs": [
        {
          "internalType": "uint256",
          "name": "",
          "type": "uint256"
        }
      ],
      "stateMutability": "nonpayable",
      "type": "function"
    },
    {
      "inputs": [
        {
          "internalType": "uint256",
          "name": "jurisdiction_",
          "type": "uint256"
        },
        {
          "internalType": "string",
          "name": "EIN_",
          "type": "string"
        },
        {
          "internalType": "string",
          "name": "dateOfIncorporation_",
          "type": "string"
        },
        {
          "internalType": "uint256",
          "name": "entityType_",
          "type": "uint256"
        },
        {
          "internalType": "uint256",
          "name": "metadataIndex_",
          "type": "uint256"
        }
      ],
      "name": "initialize",
      "outputs": [],
      "stateMutability": "nonpayable",
      "type": "function"
    },
    {
      "inputs": [],
      "name": "isDAO",
      "outputs": [
        {
          "internalType": "bool",
          "name": "",
          "type": "bool"
        }
      ],
      "stateMutability": "view",
      "type": "function"
    },
    {
      "inputs": [
        {
          "internalType": "contract IPool",
          "name": "pool",
          "type": "address"
        },
        {
          "internalType": "uint256",
          "name": "proposalId",
          "type": "uint256"
        },
        {
          "internalType": "uint256",
          "name": "index",
          "type": "uint256"
        }
      ],
      "name": "isDelayCleared",
      "outputs": [
        {
          "internalType": "bool",
          "name": "",
          "type": "bool"
        }
      ],
      "stateMutability": "nonpayable",
      "type": "function"
    },
    {
      "inputs": [],
      "name": "jurisdiction",
      "outputs": [
        {
          "internalType": "uint256",
          "name": "",
          "type": "uint256"
        }
      ],
      "stateMutability": "view",
      "type": "function"
    },
    {
      "inputs": [],
      "name": "lastProposalId",
      "outputs": [
        {
          "internalType": "uint256",
          "name": "",
          "type": "uint256"
        }
      ],
      "stateMutability": "view",
      "type": "function"
    },
    {
      "inputs": [
        {
          "internalType": "address",
          "name": "",
          "type": "address"
        }
      ],
      "name": "lastProposalIdForAccount",
      "outputs": [
        {
          "internalType": "uint256",
          "name": "",
          "type": "uint256"
        }
      ],
      "stateMutability": "view",
      "type": "function"
    },
    {
      "inputs": [
        {
          "internalType": "address",
          "name": "owner_",
          "type": "address"
        },
        {
          "internalType": "uint256",
          "name": "ballotQuorumThreshold_",
          "type": "uint256"
        },
        {
          "internalType": "uint256",
          "name": "ballotDecisionThreshold_",
          "type": "uint256"
        },
        {
          "internalType": "uint256",
          "name": "ballotLifespan_",
          "type": "uint256"
        },
        {
          "internalType": "uint256[10]",
          "name": "ballotExecDelay_",
          "type": "uint256[10]"
        },
        {
          "internalType": "string",
          "name": "trademark_",
          "type": "string"
        }
      ],
      "name": "launch",
      "outputs": [],
      "stateMutability": "nonpayable",
      "type": "function"
    },
    {
      "inputs": [],
      "name": "maxProposalId",
      "outputs": [
        {
          "internalType": "uint256",
          "name": "",
          "type": "uint256"
        }
      ],
      "stateMutability": "view",
      "type": "function"
    },
    {
      "inputs": [],
      "name": "metadataIndex",
      "outputs": [
        {
          "internalType": "uint256",
          "name": "",
          "type": "uint256"
        }
      ],
      "stateMutability": "view",
      "type": "function"
    },
    {
      "inputs": [],
      "name": "owner",
      "outputs": [
        {
          "internalType": "address",
          "name": "",
          "type": "address"
        }
      ],
      "stateMutability": "view",
      "type": "function"
    },
    {
      "inputs": [],
      "name": "pause",
      "outputs": [],
      "stateMutability": "nonpayable",
      "type": "function"
    },
    {
      "inputs": [],
      "name": "paused",
      "outputs": [
        {
          "internalType": "bool",
          "name": "",
          "type": "bool"
        }
      ],
      "stateMutability": "view",
      "type": "function"
    },
    {
      "inputs": [],
      "name": "poolLaunched",
      "outputs": [
        {
          "internalType": "bool",
          "name": "",
          "type": "bool"
        }
      ],
      "stateMutability": "view",
      "type": "function"
    },
    {
      "inputs": [
        {
          "internalType": "uint256",
          "name": "proposalId",
          "type": "uint256"
        }
      ],
      "name": "proposalState",
      "outputs": [
        {
          "internalType": "enum Governor.ProposalState",
          "name": "",
          "type": "uint8"
        }
      ],
      "stateMutability": "view",
      "type": "function"
    },
    {
      "inputs": [
        {
          "internalType": "address",
          "name": "target",
          "type": "address"
        },
        {
          "internalType": "uint256",
          "name": "value",
          "type": "uint256"
        },
        {
          "internalType": "bytes",
          "name": "cd",
          "type": "bytes"
        },
        {
          "internalType": "string",
          "name": "description",
          "type": "string"
        },
        {
          "internalType": "enum IDispatcher.ProposalType",
          "name": "proposalType",
          "type": "uint8"
        },
        {
          "internalType": "string",
          "name": "metaHash",
          "type": "string"
        }
      ],
      "name": "proposeSingleAction",
      "outputs": [
        {
          "internalType": "uint256",
          "name": "proposalId",
          "type": "uint256"
        }
      ],
      "stateMutability": "nonpayable",
      "type": "function"
    },
    {
      "inputs": [
        {
          "internalType": "address[]",
          "name": "targets",
          "type": "address[]"
        },
        {
          "internalType": "uint256[]",
          "name": "values",
          "type": "uint256[]"
        },
        {
          "internalType": "string",
          "name": "description",
          "type": "string"
        },
        {
          "internalType": "enum IDispatcher.ProposalType",
          "name": "proposalType",
          "type": "uint8"
        },
        {
          "internalType": "string",
          "name": "metaHash",
          "type": "string"
        },
        {
          "internalType": "address",
          "name": "token_",
          "type": "address"
        }
      ],
      "name": "proposeTransfer",
      "outputs": [
        {
          "internalType": "uint256",
          "name": "proposalId",
          "type": "uint256"
        }
      ],
      "stateMutability": "nonpayable",
      "type": "function"
    },
    {
      "inputs": [],
      "name": "renounceOwnership",
      "outputs": [],
      "stateMutability": "nonpayable",
      "type": "function"
    },
    {
      "inputs": [],
      "name": "service",
      "outputs": [
        {
          "internalType": "contract IService",
          "name": "",
          "type": "address"
        }
      ],
      "stateMutability": "view",
      "type": "function"
    },
    {
      "inputs": [
        {
          "internalType": "uint256",
          "name": "proposalId",
          "type": "uint256"
        }
      ],
      "name": "serviceCancelBallot",
      "outputs": [],
      "stateMutability": "nonpayable",
      "type": "function"
    },
    {
      "inputs": [
        {
          "internalType": "uint256",
          "name": "ballotQuorumThreshold_",
          "type": "uint256"
        },
        {
          "internalType": "uint256",
          "name": "ballotDecisionThreshold_",
          "type": "uint256"
        },
        {
          "internalType": "uint256",
          "name": "ballotLifespan_",
          "type": "uint256"
        },
        {
          "internalType": "uint256[10]",
          "name": "ballotExecDelay_",
          "type": "uint256[10]"
        }
      ],
      "name": "setGovernanceSettings",
      "outputs": [],
      "stateMutability": "nonpayable",
      "type": "function"
    },
    {
      "inputs": [
        {
          "internalType": "address",
          "name": "creator",
          "type": "address"
        },
        {
          "internalType": "uint256",
          "name": "proposalId",
          "type": "uint256"
        }
      ],
      "name": "setLastProposalIdForAccount",
      "outputs": [],
      "stateMutability": "nonpayable",
      "type": "function"
    },
    {
      "inputs": [
        {
          "internalType": "address",
          "name": "token_",
          "type": "address"
        },
        {
          "internalType": "enum IToken.TokenType",
          "name": "tokenType_",
          "type": "uint8"
        }
      ],
      "name": "setToken",
      "outputs": [],
      "stateMutability": "nonpayable",
      "type": "function"
    },
    {
      "inputs": [],
      "name": "test83212",
      "outputs": [
        {
          "internalType": "uint256",
          "name": "",
          "type": "uint256"
        }
      ],
      "stateMutability": "pure",
      "type": "function"
    },
    {
      "inputs": [
        {
          "internalType": "enum IToken.TokenType",
          "name": "",
          "type": "uint8"
        }
      ],
      "name": "tokens",
      "outputs": [
        {
          "internalType": "contract IToken",
          "name": "",
          "type": "address"
        }
      ],
      "stateMutability": "view",
      "type": "function"
    },
    {
      "inputs": [],
      "name": "trademark",
      "outputs": [
        {
          "internalType": "string",
          "name": "",
          "type": "string"
        }
      ],
      "stateMutability": "view",
      "type": "function"
    },
    {
      "inputs": [
        {
          "internalType": "address",
          "name": "newOwner",
          "type": "address"
        }
      ],
      "name": "transferOwnership",
      "outputs": [],
      "stateMutability": "nonpayable",
      "type": "function"
    },
    {
      "inputs": [],
      "name": "unpause",
      "outputs": [],
      "stateMutability": "nonpayable",
      "type": "function"
    },
    {
      "stateMutability": "payable",
      "type": "receive"
    }
  ],
  "bytecode": "0x60806040523480156200001157600080fd5b506200001c62000022565b620000e4565b600054610100900460ff16156200008f5760405162461bcd60e51b815260206004820152602760248201527f496e697469616c697a61626c653a20636f6e747261637420697320696e697469604482015266616c697a696e6760c81b606482015260840160405180910390fd5b60005460ff9081161015620000e2576000805460ff191660ff9081179091556040519081527f7f26b83ff96e1f2b6a682f133852f6798a09c465da95921460cefb38474024989060200160405180910390a15b565b61597680620000f46000396000f3fe6080604052600436106102555760003560e01c80638da5cb5b11610139578063c7f758a8116100b6578063dc1769411161007a578063dc176941146106d6578063e1503e05146106eb578063e47bfee81461070b578063f276038314610720578063f2fde38b14610740578063f9000ba81461076057600080fd5b8063c7f758a814610635578063cc20782e14610662578063d26331d414610682578063d598d4c9146106a2578063d9107ce5146106c257600080fd5b8063a92ab316116100fd578063a92ab316146105a3578063af041a34146105b8578063b22d31cc146105e5578063bc7a4ead146105ff578063c4767b951461061557600080fd5b80638da5cb5b146104ff578063958b138e1461051457806397b3fcaa146105295780639b6415511461053e578063a66e53c91461058157600080fd5b80635c975abb116101d257806374cb30411161019657806374cb3041146104445780637c905b771461045a578063826a5d5614610470578063838453fd146104865780638456cb591461049c5780638856c0d6146104b157600080fd5b80635c975abb1461039d5780635f76808f146103c25780636080484d146103e25780636efcd85b14610402578063715018a61461042f57600080fd5b80634631d0e2116102195780634631d0e214610307578063476aa1ea146103275780634dd7036714610347578063515f723c146103675780635b975d6b1461038757600080fd5b806303f27b8714610261578063165610761461028357806323681e3d146102ae578063359146e8146102ce5780633f4ba83a146102f257600080fd5b3661025c57005b600080fd5b34801561026d57600080fd5b5061028161027c3660046149bd565b610780565b005b34801561028f57600080fd5b506102986108be565b6040516102a59190614a39565b60405180910390f35b3480156102ba57600080fd5b506102816102c9366004614a4c565b61094c565b3480156102da57600080fd5b506102e460d05481565b6040519081526020016102a5565b3480156102fe57600080fd5b506102816109ef565b34801561031357600080fd5b50610281610322366004614b74565b610acd565b34801561033357600080fd5b506102e4610342366004614a4c565b610c96565b34801561035357600080fd5b50610281610362366004614a4c565b610cad565b34801561037357600080fd5b50610281610382366004614bf2565b610d14565b34801561039357600080fd5b506102e460d45481565b3480156103a957600080fd5b506103b2610eb1565b60405190151581526020016102a5565b3480156103ce57600080fd5b506102e46103dd3660046149bd565b610ec4565b3480156103ee57600080fd5b506102e46103fd366004614d35565b610eef565b34801561040e57600080fd5b506102e461041d366004614e01565b60e16020526000908152604090205481565b34801561043b57600080fd5b506102816111e0565b34801561045057600080fd5b506102e460cc5481565b34801561046657600080fd5b506102e460cf5481565b34801561047c57600080fd5b506102e460d25481565b34801561049257600080fd5b506102e460d55481565b3480156104a857600080fd5b506102816111f2565b3480156104bd57600080fd5b506104e76104cc366004614e2d565b60e3602052600090815260409020546001600160a01b031681565b6040516001600160a01b0390911681526020016102a5565b34801561050b57600080fd5b506104e76112ce565b34801561052057600080fd5b5060cc546102e4565b34801561053557600080fd5b506102e46112e2565b34801561054a57600080fd5b506102e46105593660046149bd565b6001600160a01b0391909116600090815260ca60209081526040808320938352929052205490565b34801561058d57600080fd5b50610596611657565b6040516102a59190614e71565b3480156105af57600080fd5b50610298611693565b3480156105c457600080fd5b506105d86105d3366004614ea8565b6116a0565b6040516102a59190615087565b3480156105f157600080fd5b5060e2546103b29060ff1681565b34801561060b57600080fd5b506102e460ce5481565b34801561062157600080fd5b506102816106303660046150a1565b611793565b34801561064157600080fd5b50610655610650366004614a4c565b6118d3565b6040516102a59190615177565b34801561066e57600080fd5b5061028161067d3660046152e7565b611c46565b34801561068e57600080fd5b506105d861069d366004614a4c565b611e0c565b3480156106ae57600080fd5b5060cd546104e7906001600160a01b031681565b3480156106ce57600080fd5b5060036102e4565b3480156106e257600080fd5b506102986122a8565b3480156106f757600080fd5b506103b261070636600461539f565b6122b5565b34801561071757600080fd5b506103b2612c26565b34801561072c57600080fd5b506102e461073b3660046153d4565b612ca9565b34801561074c57600080fd5b5061028161075b366004614e01565b613001565b34801561076c57600080fd5b5061028161077b36600461547a565b613077565b60cd60009054906101000a90046001600160a01b03166001600160a01b03166304e31dfb6040518163ffffffff1660e01b8152600401602060405180830381865afa1580156107d3573d6000803e3d6000fd5b505050506040513d601f19601f820116820180604052508101906107f791906154b3565b6001600160a01b0316336001600160a01b0316146040518060400160405280600e81526020016d2727aa2fa224a9a820aa21a422a960911b815250906108595760405162461bcd60e51b81526004016108509190614a39565b60405180910390fd5b5060e25460408051808201909152600c81526b1393d517d310555390d2115160a21b60208201529060ff166108a15760405162461bcd60e51b81526004016108509190614a39565b506001600160a01b03909116600090815260e16020526040902055565b60d180546108cb906154d0565b80601f01602080910402602001604051908101604052809291908181526020018280546108f7906154d0565b80156109445780601f1061091957610100808354040283529160200191610944565b820191906000526020600020905b81548152906001019060200180831161092757829003601f168201915b505050505081565b60cd5460408051808201909152600b81526a4e4f545f5345525649434560a81b6020820152906001600160a01b0316331461099a5760405162461bcd60e51b81526004016108509190614a39565b5060e25460408051808201909152600c81526b1393d517d310555390d2115160a21b60208201529060ff166109e25760405162461bcd60e51b81526004016108509190614a39565b506109ec81613349565b50565b60cd60009054906101000a90046001600160a01b03166001600160a01b0316638da5cb5b6040518163ffffffff1660e01b8152600401602060405180830381865afa158015610a42573d6000803e3d6000fd5b505050506040513d601f19601f82011682018060405250810190610a6691906154b3565b6001600160a01b0316336001600160a01b031614604051806040016040528060118152602001702727aa2fa9a2a92b24a1a2afa7aba722a960791b81525090610ac25760405162461bcd60e51b81526004016108509190614a39565b50610acb613424565b565b600054610100900460ff1615808015610aed5750600054600160ff909116105b80610b075750303b158015610b07575060005460ff166001145b610b6a5760405162461bcd60e51b815260206004820152602e60248201527f496e697469616c697a61626c653a20636f6e747261637420697320616c72656160448201526d191e481a5b9a5d1a585b1a5e995960921b6064820152608401610850565b6000805460ff191660011790558015610b8d576000805461ff0019166101001790555b610b95613476565b336001600160a01b031663d598d4c96040518163ffffffff1660e01b8152600401602060405180830381865afa158015610bd3573d6000803e3d6000fd5b505050506040513d601f19601f82011682018060405250810190610bf791906154b3565b60cd80546001600160a01b0319166001600160a01b03929092169182179055610c1f906134a5565b60d286905560d3610c308682615550565b5060d6610c3d8582615550565b5060d583905560d48290558015610c8e576000805461ff0019169055604051600181527f7f26b83ff96e1f2b6a682f133852f6798a09c465da95921460cefb38474024989060200160405180910390a15b505050505050565b60d781600a8110610ca657600080fd5b0154905081565b610cb56134f7565b60e25460408051808201909152600c81526b1393d517d310555390d2115160a21b60208201529060ff16610cfc5760405162461bcd60e51b81526004016108509190614a39565b5060cd546109ec9082906001600160a01b031661353f565b6040805180820190915260088152671393d517d413d3d360c21b6020820152333014610d535760405162461bcd60e51b81526004016108509190614a39565b50610d5c6134f7565b60e25460408051808201909152600c81526b1393d517d310555390d2115160a21b60208201529060ff16610da35760405162461bcd60e51b81526004016108509190614a39565b5060cd60009054906101000a90046001600160a01b03166001600160a01b031663cb7e90576040518163ffffffff1660e01b8152600401602060405180830381865afa158015610df7573d6000803e3d6000fd5b505050506040513d601f19601f82011682018060405250810190610e1b91906154b3565b6001600160a01b03166341a453e1858585856040518563ffffffff1660e01b8152600401610e4c949392919061560f565b602060405180830381865afa158015610e69573d6000803e3d6000fd5b505050506040513d601f19601f82011682018060405250810190610e8d9190615637565b5060ce84905560cf83905560d0829055610eaa60d782600a6147b1565b5050505050565b6000610ebf60975460ff1690565b905090565b6001600160a01b038216600090815260cb602090815260408083208484529091529020545b92915050565b60cd54604080516304e31dfb60e01b815290516000926001600160a01b0316916304e31dfb9160048083019260209291908290030181865afa158015610f39573d6000803e3d6000fd5b505050506040513d601f19601f82011682018060405250810190610f5d91906154b3565b6001600160a01b0316336001600160a01b0316146040518060400160405280600e81526020016d2727aa2fa224a9a820aa21a422a960911b81525090610fb65760405162461bcd60e51b81526004016108509190614a39565b50610fbf6134f7565b60e25460408051808201909152600c81526b1393d517d310555390d2115160a21b60208201529060ff166110065760405162461bcd60e51b81526004016108509190614a39565b506111d560d05460ce5460cf548a8a604051806020016040528060008152508b60e360006001600281111561103d5761103d615071565b600281111561104e5761104e615071565b815260208082019290925260409081016000205460cd54825163803db96d60e01b815292516001600160a01b03928316946370a0823194929093169263803db96d92600480820193918290030181865afa1580156110b0573d6000803e3d6000fd5b505050506040513d601f19601f820116820180604052508101906110d491906154b3565b6040516001600160e01b031960e084901b1681526001600160a01b039091166004820152602401602060405180830381865afa158015611118573d6000803e3d6000fd5b505050506040513d601f19601f8201168201806040525081019061113c9190615654565b611144613e85565b61114c613f08565b6111569190615683565b6111609190615683565b60cd546040516323b550f560e11b8152600160048201526001600160a01b039091169063476aa1ea90602401602060405180830381865afa1580156111a9573d6000803e3d6000fd5b505050506040513d601f19601f820116820180604052508101906111cd9190615654565b8d8d8d613f67565b979650505050505050565b6111e8614207565b610acb60006134a5565b60cd60009054906101000a90046001600160a01b03166001600160a01b0316638da5cb5b6040518163ffffffff1660e01b8152600401602060405180830381865afa158015611245573d6000803e3d6000fd5b505050506040513d601f19601f8201168201806040525081019061126991906154b3565b6001600160a01b0316336001600160a01b031614604051806040016040528060118152602001702727aa2fa9a2a92b24a1a2afa7aba722a960791b815250906112c55760405162461bcd60e51b81526004016108509190614a39565b50610acb614266565b6000610ebf6033546001600160a01b031690565b60008060cd60009054906101000a90046001600160a01b03166001600160a01b0316634db4a3526040518163ffffffff1660e01b8152600401602060405180830381865afa158015611338573d6000803e3d6000fd5b505050506040513d601f19601f8201168201806040525081019061135c91906154b3565b9050600060cd60009054906101000a90046001600160a01b03166001600160a01b031663cb7e90576040518163ffffffff1660e01b8152600401602060405180830381865afa1580156113b3573d6000803e3d6000fd5b505050506040513d601f19601f820116820180604052508101906113d791906154b3565b90506000816001600160a01b031663ca735cc16040518163ffffffff1660e01b8152600401600060405180830381865afa158015611419573d6000803e3d6000fd5b505050506040513d6000823e601f3d908101601f191682016040526114419190810190615696565b90506000805b825181101561164e5760006001600160a01b031683828151811061146d5761146d615724565b60200260200101516001600160a01b0316036114945761148d478361573a565b915061163c565b60008382815181106114a8576114a8615724565b60209081029190910101516040516370a0823160e01b81523060048201526001600160a01b03909116906370a0823190602401602060405180830381865afa1580156114f8573d6000803e3d6000fd5b505050506040513d601f19601f8201168201806040525081019061151c9190615654565b9050801561163a57856001600160a01b031663cdca1753866001600160a01b03166350eb1c4387868151811061155457611554615724565b60200260200101516040518263ffffffff1660e01b815260040161158791906001600160a01b0391909116815260200190565b600060405180830381865afa1580156115a4573d6000803e3d6000fd5b505050506040513d6000823e601f3d908101601f191682016040526115cc919081019061574d565b836040518363ffffffff1660e01b81526004016115ea9291906157c3565b6020604051808303816000875af1158015611609573d6000803e3d6000fd5b505050506040513d601f19601f8201168201806040525081019061162d9190615654565b611637908461573a565b92505b505b80611646816157e5565b915050611447565b50949350505050565b61165f6147ef565b604080516101408101918290529060d790600a9082845b815481526020019060010190808311611676575050505050905090565b60d380546108cb906154d0565b6000808360200151866116b391906157fe565b905060008460200151846116c791906157fe565b9050856116d6886127106157fe565b101580156116f55750818560e001516127106116f291906157fe565b10155b80156117125750808560e0015161271061170f91906157fe565b10155b156117225760039250505061178b565b8561172f886127106157fe565b1015801561174d5750818560e0015161271061174b91906157fe565b105b8015611774575080856101000151856117669190615683565b611772906127106157fe565b105b156117845760029250505061178b565b6000925050505b949350505050565b60cd5460408051808201909152600b81526a4e4f545f5345525649434560a81b6020820152906001600160a01b031633146117e15760405162461bcd60e51b81526004016108509190614a39565b5060e25460408051808201909152600c81526b1393d517d310555390d2115160a21b60208201529060ff166118295760405162461bcd60e51b81526004016108509190614a39565b5060408051808201909152600c81526b414444524553535f5a45524f60a01b60208201526001600160a01b0383166118745760405162461bcd60e51b81526004016108509190614a39565b508160e3600083600281111561188c5761188c615071565b600281111561189d5761189d615071565b815260200190815260200160002060006101000a8154816001600160a01b0302191690836001600160a01b031602179055505050565b6118db61480e565b600082815260c96020908152604091829020825161024081018452815481526001820154818401526002820180548551818602810186018752818152929593949386019383018282801561195857602002820191906000526020600020905b81546001600160a01b0316815260019091019060200180831161193a575b50505050508152602001600382018054806020026020016040519081016040528092919081815260200182805480156119b057602002820191906000526020600020905b81548152602001906001019080831161199c575b505050505081526020016004820180546119c9906154d0565b80601f01602080910402602001604051908101604052809291908181526020018280546119f5906154d0565b8015611a425780601f10611a1757610100808354040283529160200191611a42565b820191906000526020600020905b815481529060010190602001808311611a2557829003601f168201915b505050918352505060058201546020820152600682015460408201526007820154606082015260088201546080820152600982015460ff808216151560a084015260c090920191610100909104166003811115611aa157611aa1615071565b6003811115611ab257611ab2615071565b8152602001600a82018054611ac6906154d0565b80601f0160208091040260200160405190810160405280929190818152602001828054611af2906154d0565b8015611b3f5780601f10611b1457610100808354040283529160200191611b3f565b820191906000526020600020905b815481529060010190602001808311611b2257829003601f168201915b5050509183525050600b8201546020820152600c8201546040820152600d82015460609091019060ff166004811115611b7a57611b7a615071565b6004811115611b8b57611b8b615071565b8152602001600e8201548152602001600f82018054611ba9906154d0565b80601f0160208091040260200160405190810160405280929190818152602001828054611bd5906154d0565b8015611c225780601f10611bf757610100808354040283529160200191611c22565b820191906000526020600020905b815481529060010190602001808311611c0557829003601f168201915b5050509183525050601091909101546001600160a01b031660209091015292915050565b60cd5460408051808201909152600b81526a4e4f545f5345525649434560a81b6020820152906001600160a01b03163314611c945760405162461bcd60e51b81526004016108509190614a39565b5060e2546040805180820190915260088152671310555390d2115160c21b60208201529060ff1615611cd95760405162461bcd60e51b81526004016108509190614a39565b5060e2805460ff19166001179055611cf0866134a5565b60cd60009054906101000a90046001600160a01b03166001600160a01b031663cb7e90576040518163ffffffff1660e01b8152600401602060405180830381865afa158015611d43573d6000803e3d6000fd5b505050506040513d601f19601f82011682018060405250810190611d6791906154b3565b6001600160a01b03166341a453e1868686866040518563ffffffff1660e01b8152600401611d989493929190615815565b602060405180830381865afa158015611db5573d6000803e3d6000fd5b505050506040513d601f19601f82011682018060405250810190611dd99190615637565b5060d1611de68282615550565b5060ce85905560cf84905560d0839055611e0360d783600a6148c6565b50505050505050565b600081815260c9602090815260408083208151610240810183528154815260018201548185015260028201805484518187028101870186528181528796939586019390929190830182828015611e8b57602002820191906000526020600020905b81546001600160a01b03168152600190910190602001808311611e6d575b5050505050815260200160038201805480602002602001604051908101604052809291908181526020018280548015611ee357602002820191906000526020600020905b815481526020019060010190808311611ecf575b50505050508152602001600482018054611efc906154d0565b80601f0160208091040260200160405190810160405280929190818152602001828054611f28906154d0565b8015611f755780601f10611f4a57610100808354040283529160200191611f75565b820191906000526020600020905b815481529060010190602001808311611f5857829003601f168201915b505050918352505060058201546020820152600682015460408201526007820154606082015260088201546080820152600982015460ff808216151560a084015260c090920191610100909104166003811115611fd457611fd4615071565b6003811115611fe557611fe5615071565b8152602001600a82018054611ff9906154d0565b80601f0160208091040260200160405190810160405280929190818152602001828054612025906154d0565b80156120725780601f1061204757610100808354040283529160200191612072565b820191906000526020600020905b81548152906001019060200180831161205557829003601f168201915b5050509183525050600b8201546020820152600c8201546040820152600d82015460609091019060ff1660048111156120ad576120ad615071565b60048111156120be576120be615071565b8152602001600e8201548152602001600f820180546120dc906154d0565b80601f0160208091040260200160405190810160405280929190818152602001828054612108906154d0565b80156121555780601f1061212a57610100808354040283529160200191612155565b820191906000526020600020905b81548152906001019060200180831161213857829003601f168201915b5050509183525050601091909101546001600160a01b03166020909101526101208101519091501561218a5750600492915050565b8060a0015160000361219f5750600092915050565b600381610140015160038111156121b8576121b8615071565b036121c65750600592915050565b60006121d0613e85565b6121d8613f08565b6121e29190615683565b82519091506000906121f490836157fe565b905060008361010001518460e0015161220d919061573a565b9050600061221d828487876116a0565b9050600081600581111561223357612233615071565b14612242579695505050505050565b8460c0015143111561229b5782821015801561227c5750602085015161226890836157fe565b60e0860151612279906127106157fe565b10155b1561228e575060039695505050505050565b5060029695505050505050565b5060019695505050505050565b60d680546108cb906154d0565b600082815260c960209081526040808320815161024081018352815481526001820154818501526002820180548451818702810187018652818152879693958601939092919083018282801561233457602002820191906000526020600020905b81546001600160a01b03168152600190910190602001808311612316575b505050505081526020016003820180548060200260200160405190810160405280929190818152602001828054801561238c57602002820191906000526020600020905b815481526020019060010190808311612378575b505050505081526020016004820180546123a5906154d0565b80601f01602080910402602001604051908101604052809291908181526020018280546123d1906154d0565b801561241e5780601f106123f35761010080835404028352916020019161241e565b820191906000526020600020905b81548152906001019060200180831161240157829003601f168201915b505050918352505060058201546020820152600682015460408201526007820154606082015260088201546080820152600982015460ff808216151560a084015260c09092019161010090910416600381111561247d5761247d615071565b600381111561248e5761248e615071565b8152602001600a820180546124a2906154d0565b80601f01602080910402602001604051908101604052809291908181526020018280546124ce906154d0565b801561251b5780601f106124f05761010080835404028352916020019161251b565b820191906000526020600020905b8154815290600101906020018083116124fe57829003601f168201915b5050509183525050600b8201546020820152600c8201546040820152600d82015460609091019060ff16600481111561255657612556615071565b600481111561256757612567615071565b8152602001600e8201548152602001600f82018054612585906154d0565b80601f01602080910402602001604051908101604052809291908181526020018280546125b1906154d0565b80156125fe5780601f106125d3576101008083540402835291602001916125fe565b820191906000526020600020905b8154815290600101906020018083116125e157829003601f168201915b505050505081526020016010820160009054906101000a90046001600160a01b03166001600160a01b03166001600160a01b0316815250509050600080866001600160a01b031663476aa1ea846101c00151600481111561266157612661615071565b61266c90600161573a565b6040518263ffffffff1660e01b815260040161268a91815260200190565b602060405180830381865afa1580156126a7573d6000803e3d6000fd5b505050506040513d601f19601f820116820180604052508101906126cb9190615654565b90506001836101c0015160048111156126e6576126e6615071565b148061270857506002836101c00151600481111561270657612706615071565b145b15612bb5576000876001600160a01b031663d598d4c96040518163ffffffff1660e01b8152600401602060405180830381865afa15801561274d573d6000803e3d6000fd5b505050506040513d601f19601f8201168201806040525081019061277191906154b3565b6001600160a01b0316633a6596bd6040518163ffffffff1660e01b8152600401602060405180830381865afa1580156127ae573d6000803e3d6000fd5b505050506040513d601f19601f820116820180604052508101906127d291906154b3565b90506000846060015187815181106127ec576127ec615724565b602002602001015190506002600481111561280957612809615071565b856101c00151600481111561282057612820615071565b03612866578460400151878151811061283b5761283b615724565b602002602001015191508460600151878151811061285b5761285b615724565b602002602001015190505b886001600160a01b031663d598d4c96040518163ffffffff1660e01b8152600401602060405180830381865afa1580156128a4573d6000803e3d6000fd5b505050506040513d601f19601f820116820180604052508101906128c891906154b3565b6001600160a01b0316634db4a3526040518163ffffffff1660e01b8152600401602060405180830381865afa158015612905573d6000803e3d6000fd5b505050506040513d601f19601f8201168201806040525081019061292991906154b3565b6001600160a01b031663cdca175383610bb88c6001600160a01b031663d598d4c96040518163ffffffff1660e01b8152600401602060405180830381865afa158015612979573d6000803e3d6000fd5b505050506040513d601f19601f8201168201806040525081019061299d91906154b3565b6001600160a01b031663e58d777a6040518163ffffffff1660e01b8152600401602060405180830381865afa1580156129da573d6000803e3d6000fd5b505050506040513d601f19601f820116820180604052508101906129fe91906154b3565b604051606093841b6bffffffffffffffffffffffff19908116602083015260e89390931b6001600160e81b0319166034820152921b166037820152604b01604051602081830303815290604052836040518363ffffffff1660e01b8152600401612a699291906157c3565b6020604051808303816000875af1925050508015612aa4575060408051601f3d908101601f19168201909252612aa191810190615654565b60015b612b15573d808015612ad2576040519150601f19603f3d011682016040523d82523d6000602084013e612ad7565b606091505b507fd563681fb91425dcf80355c43ba21b499735e439376274fa5ceadfc8ea9bbd9881604051612b079190614a39565b60405180910390a150612b18565b93505b6040516323b550f560e11b8152600060048201526001600160a01b038a169063476aa1ea90602401602060405180830381865afa158015612b5d573d6000803e3d6000fd5b505050506040513d601f19601f82011682018060405250810190612b819190615654565b8410158015612b9f57506101a0850151612b9b908461573a565b4311155b15612bb257600095505050505050612c1f565b50505b6003836101c001516004811115612bce57612bce615071565b1480612bf057506004836101c001516004811115612bee57612bee615071565b145b15612c17576101a0830151612c05908261573a565b4311612c175760009350505050612c1f565b600193505050505b9392505050565b6001600090815260e36020908152600080516020615921833981519152546040805163d04d79b560e01b815290516001600160a01b039092169263d04d79b5926004808401938290030181865afa158015612c85573d6000803e3d6000fd5b505050506040513d601f19601f82011682018060405250810190610ebf9190615637565b60cd54604080516304e31dfb60e01b815290516000926001600160a01b0316916304e31dfb9160048083019260209291908290030181865afa158015612cf3573d6000803e3d6000fd5b505050506040513d601f19601f82011682018060405250810190612d1791906154b3565b6001600160a01b0316336001600160a01b0316146040518060400160405280600e81526020016d2727aa2fa224a9a820aa21a422a960911b81525090612d705760405162461bcd60e51b81526004016108509190614a39565b50612d796134f7565b60e25460408051808201909152600c81526b1393d517d310555390d2115160a21b60208201529060ff16612dc05760405162461bcd60e51b81526004016108509190614a39565b50604080516001808252818301909252600091602080830190803683370190505090508781600081518110612df757612df7615724565b6001600160a01b0392909216602092830291909101909101526040805160018082528183019092526000918160200160208202803683370190505090508781600081518110612e4857612e48615724565b602090810291909101015260d05460ce5460cf54612ff492919085858c8c60e360006001815260208082019290925260409081016000205460cd54825163803db96d60e01b815292516001600160a01b03928316946370a0823194929093169263803db96d92600480820193918290030181865afa158015612ece573d6000803e3d6000fd5b505050506040513d601f19601f82011682018060405250810190612ef291906154b3565b6040516001600160e01b031960e084901b1681526001600160a01b039091166004820152602401602060405180830381865afa158015612f36573d6000803e3d6000fd5b505050506040513d601f19601f82011682018060405250810190612f5a9190615654565b612f62613e85565b612f6a613f08565b612f749190615683565b612f7e9190615683565b60cd546040516323b550f560e11b8152600160048201526001600160a01b039091169063476aa1ea90602401602060405180830381865afa158015612fc7573d6000803e3d6000fd5b505050506040513d601f19601f82011682018060405250810190612feb9190615654565b8e8e6000613f67565b9998505050505050505050565b613009614207565b6001600160a01b03811661306e5760405162461bcd60e51b815260206004820152602660248201527f4f776e61626c653a206e6577206f776e657220697320746865207a65726f206160448201526564647265737360d01b6064820152608401610850565b6109ec816134a5565b61307f6142a3565b6130876134f7565b60e25460408051808201909152600c81526b1393d517d310555390d2115160a21b60208201529060ff166130ce5760405162461bcd60e51b81526004016108509190614a39565b50600019820361316d57600160005260e36020908152600080516020615921833981519152546040805163468b3b3360e01b81523360048201526024810187905290516001600160a01b039092169263468b3b33926044808401938290030181865afa158015613142573d6000803e3d6000fd5b505050506040513d601f19601f820116820180604052508101906131669190615654565b915061324b565b600160005260e36020908152600080516020615921833981519152546040805163468b3b3360e01b81523360048201526024810187905290516001600160a01b039092169263468b3b33926044808401938290030181865afa1580156131d7573d6000803e3d6000fd5b505050506040513d601f19601f820116820180604052508101906131fb9190615654565b821115604051806040016040528060148152602001734c4f575f554e4c4f434b45445f42414c414e434560601b815250906132495760405162461bcd60e51b81526004016108509190614a39565b505b60408051808201909152600a81526956414c55455f5a45524f60b01b60208201528261328a5760405162461bcd60e51b81526004016108509190614a39565b506132968383836142fc565b600160005260e3602052600080516020615921833981519152546001600160a01b031663c97be18033846132c9876118d3565b60c001516040516001600160e01b031960e086901b1681526001600160a01b0390931660048401526024830191909152604482015260648101869052608401600060405180830381600087803b15801561332257600080fd5b505af1158015613336573d6000803e3d6000fd5b505050506133446001606555565b505050565b600161335482611e0c565b600581111561336557613365615071565b148061338a5750600361337782611e0c565b600581111561338857613388615071565b145b6040518060400160405280600b81526020016a57524f4e475f535441544560a81b815250906133cc5760405162461bcd60e51b81526004016108509190614a39565b50600081815260c96020908152604091829020600901805461030061ff001990911617905590518281527f416e669c63d9a3a5e36ee7cc7e2104b8db28ccd286aa18966e98fa230c73b08c910160405180910390a150565b61342c6144a5565b6097805460ff191690557f5db9ee0a495bf2e6ff9c91a7834c1ba4fdd244a5e8aa4e537bd38aeae4b073aa335b6040516001600160a01b03909116815260200160405180910390a1565b600054610100900460ff1661349d5760405162461bcd60e51b815260040161085090615838565b610acb6144f0565b603380546001600160a01b038381166001600160a01b0319831681179093556040519116919082907f8be0079c531659141344cd1fd0a4f28419497f9722a3daafe3b4186f6b6457e090600090a35050565b6134ff610eb1565b15610acb5760405162461bcd60e51b815260206004820152601060248201526f14185d5cd8589b194e881c185d5cd95960821b6044820152606401610850565b600082815260c960209081526040808320815161024081018352815481526001820154818501526002820180548451818702810187018652818152929593948601938301828280156135ba57602002820191906000526020600020905b81546001600160a01b0316815260019091019060200180831161359c575b505050505081526020016003820180548060200260200160405190810160405280929190818152602001828054801561361257602002820191906000526020600020905b8154815260200190600101908083116135fe575b5050505050815260200160048201805461362b906154d0565b80601f0160208091040260200160405190810160405280929190818152602001828054613657906154d0565b80156136a45780601f10613679576101008083540402835291602001916136a4565b820191906000526020600020905b81548152906001019060200180831161368757829003601f168201915b505050918352505060058201546020820152600682015460408201526007820154606082015260088201546080820152600982015460ff808216151560a084015260c09092019161010090910416600381111561370357613703615071565b600381111561371457613714615071565b8152602001600a82018054613728906154d0565b80601f0160208091040260200160405190810160405280929190818152602001828054613754906154d0565b80156137a15780601f10613776576101008083540402835291602001916137a1565b820191906000526020600020905b81548152906001019060200180831161378457829003601f168201915b5050509183525050600b8201546020820152600c8201546040820152600d82015460609091019060ff1660048111156137dc576137dc615071565b60048111156137ed576137ed615071565b8152602001600e8201548152602001600f8201805461380b906154d0565b80601f0160208091040260200160405190810160405280929190818152602001828054613837906154d0565b80156138845780601f1061385957610100808354040283529160200191613884565b820191906000526020600020905b81548152906001019060200180831161386757829003601f168201915b5050509183525050601091909101546001600160a01b0316602090910152905060036138af84611e0c565b60058111156138c0576138c0615071565b146040518060400160405280600b81526020016a57524f4e475f535441544560a81b815250906139035760405162461bcd60e51b81526004016108509190614a39565b5060008084815260c96020526040902060090154610100900460ff16600381111561393057613930615071565b146040518060400160405280601081526020016f1053149150511657d1561150d555115160821b815250906139785760405162461bcd60e51b81526004016108509190614a39565b508060c0015143106139e457806101e001518160c00151613999919061573a565b4310156040518060400160405280600b81526020016a424c4f434b5f44454c415960a81b815250906139de5760405162461bcd60e51b81526004016108509190614a39565b50613a41565b806101e00151816101a001516139fa919061573a565b4310156040518060400160405280600b81526020016a424c4f434b5f44454c415960a81b81525090613a3f5760405162461bcd60e51b81526004016108509190614a39565b505b600083815260c960205260408120600901805460ff19166001179055805b826040015151811015613c3057613a773086836122b5565b6040518060400160405280600b81526020016a424c4f434b5f44454c415960a81b81525090613ab95760405162461bcd60e51b81526004016108509190614a39565b506002836101c001516004811115613ad357613ad3615071565b14613bc15782604001518181518110613aee57613aee615724565b60200260200101516001600160a01b031683606001518281518110613b1557613b15615724565b60200260200101518460800151604051613b2f9190615883565b60006040518083038185875af1925050503d8060008114613b6c576040519150601f19603f3d011682016040523d82523d6000602084013e613b71565b606091505b505060408051808201909152601081526f11561150d5551253d397d1905253115160821b602082015290925082613bbb5760405162461bcd60e51b81526004016108509190614a39565b50613c1e565b613c1e83604001518281518110613bda57613bda615724565b602002602001015184606001518381518110613bf857613bf8615724565b60200260200101518561022001516001600160a01b03166145209092919063ffffffff16565b80613c28816157e5565b915050613a5f565b506001826101c001516004811115613c4a57613c4a615071565b03613cb85761020082015160405163b677bc6960e01b81526001600160a01b0385169163b677bc6991613c859160019189919060040161589f565b600060405180830381600087803b158015613c9f57600080fd5b505af1158015613cb3573d6000803e3d6000fd5b505050505b6002826101c001516004811115613cd157613cd1615071565b03613d3f5761020082015160405163b677bc6960e01b81526001600160a01b0385169163b677bc6991613d0c9160029189919060040161589f565b600060405180830381600087803b158015613d2657600080fd5b505af1158015613d3a573d6000803e3d6000fd5b505050505b6003826101c001516004811115613d5857613d58615071565b03613dc65761020082015160405163b677bc6960e01b81526001600160a01b0385169163b677bc6991613d939160039189919060040161589f565b600060405180830381600087803b158015613dad57600080fd5b505af1158015613dc1573d6000803e3d6000fd5b505050505b6004826101c001516004811115613ddf57613ddf615071565b03613e4c5761020082015160405163b677bc6960e01b81526001600160a01b0385169163b677bc6991613e1991600491899190830161589f565b600060405180830381600087803b158015613e3357600080fd5b505af1158015613e47573d6000803e3d6000fd5b505050505b6040518481527f712ae1383f79ac853f8d882153778e0260ef8f03b504e2866e0593e04d2b291f9060200160405180910390a150505050565b6001600090815260e36020908152600080516020615921833981519152546040805163d554934b60e01b815290516001600160a01b039092169263d554934b926004808401938290030181865afa158015613ee4573d6000803e3d6000fd5b505050506040513d601f19601f82011682018060405250810190610ebf9190615654565b6001600090815260e3602090815260008051602061592183398151915254604080516318160ddd60e01b815290516001600160a01b03909216926318160ddd926004808401938290030181865afa158015613ee4573d6000803e3d6000fd5b600060cc60008154613f78906157e5565b91905081905590506040518061024001604052808d81526020018c81526020018b81526020018a81526020018981526020014381526020018e43613fbc919061573a565b8152602001600081526020016000815260200160001515815260200160006003811115613feb57613feb615071565b81526020018881526020018781526020016000815260200185600481111561401557614015615071565b8152602080820188905260408083018790526001600160a01b038616606090930192909252600084815260c982528290208351815583820151600182015591830151805161406992600285019201906148f4565b5060608201518051614085916003840191602090910190614949565b506080820151600482019061409a9082615550565b5060a0820151600582015560c0820151600682015560e0820151600782015561010080830151600883015561012083015160098301805491151560ff1983168117825561014086015193919261ff001990911661ffff19909116179083600381111561410857614108615071565b0217905550610160820151600a8201906141229082615550565b50610180820151600b8201556101a0820151600c8201556101c0820151600d8201805460ff1916600183600481111561415d5761415d615071565b02179055506101e0820151600e820155610200820151600f8201906141829082615550565b506102209190910151601090910180546001600160a01b0319166001600160a01b039092169190911790556141b681614572565b7fb65276295c8836e61205070fc79a77f98853929453c317f5d31389290b2acc3d818d8c8c8c8c6040516141ef969594939291906158c7565b60405180910390a19c9b505050505050505050505050565b336142106112ce565b6001600160a01b031614610acb5760405162461bcd60e51b815260206004820181905260248201527f4f776e61626c653a2063616c6c6572206973206e6f7420746865206f776e65726044820152606401610850565b61426e6134f7565b6097805460ff191660011790557f62e78cea01bee320cd4e420270b5ea74000d11b0c9f74754ebdbfc544b05a2586134593390565b6002606554036142f55760405162461bcd60e51b815260206004820152601f60248201527f5265656e7472616e637947756172643a207265656e7472616e742063616c6c006044820152606401610850565b6002606555565b4360c9600085815260200190815260200160002060060154116040518060400160405280600f81526020016e1593d5125391d7d192539254d21151608a1b8152509061435b5760405162461bcd60e51b81526004016108509190614a39565b5080156143bd57600083815260c960205260408120600701805484929061438390849061573a565b909155505033600090815260ca60209081526040808320868452909152812080548492906143b290849061573a565b909155506144139050565b600083815260c96020526040812060080180548492906143de90849061573a565b909155505033600090815260cb602090815260408083208684529091528120805484929061440d90849061573a565b90915550505b600083815260c96020526040902043600c90910155614430613e85565b614438613f08565b6144429190615683565b600084815260c96020908152604091829020600b01929092558051338152918201859052810183905281151560608201527f2c48deccc79dbba942eeb2f991c4bfa0ac136723ddc0ea1b575dd85373408df89060800160405180910390a1505050565b6144ad610eb1565b610acb5760405162461bcd60e51b815260206004820152601460248201527314185d5cd8589b194e881b9bdd081c185d5cd95960621b6044820152606401610850565b600054610100900460ff166145175760405162461bcd60e51b815260040161085090615838565b610acb336134a5565b604080516001600160a01b038416602482015260448082018490528251808303909101815260649091019091526020810180516001600160e01b031663a9059cbb60e01b1790526133449084906145cc565b60cd54604051630ffb246960e21b8152600481018390526001600160a01b0390911690633fec91a490602401600060405180830381600087803b1580156145b857600080fd5b505af1158015610eaa573d6000803e3d6000fd5b6000614621826040518060400160405280602081526020017f5361666545524332303a206c6f772d6c6576656c2063616c6c206661696c6564815250856001600160a01b031661469e9092919063ffffffff16565b805190915015613344578080602001905181019061463f9190615637565b6133445760405162461bcd60e51b815260206004820152602a60248201527f5361666545524332303a204552433230206f7065726174696f6e20646964206e6044820152691bdd081cdd58d8d9595960b21b6064820152608401610850565b606061178b848460008585600080866001600160a01b031685876040516146c59190615883565b60006040518083038185875af1925050503d8060008114614702576040519150601f19603f3d011682016040523d82523d6000602084013e614707565b606091505b50915091506111d5878383876060831561478257825160000361477b576001600160a01b0385163b61477b5760405162461bcd60e51b815260206004820152601d60248201527f416464726573733a2063616c6c20746f206e6f6e2d636f6e74726163740000006044820152606401610850565b508161178b565b61178b83838151156147975781518083602001fd5b8060405162461bcd60e51b81526004016108509190614a39565b82600a81019282156147df579160200282015b828111156147df5782358255916020019190600101906147c4565b506147eb929150614983565b5090565b604051806101400160405280600a906020820280368337509192915050565b6040518061024001604052806000815260200160008152602001606081526020016060815260200160608152602001600081526020016000815260200160008152602001600081526020016000151581526020016000600381111561487557614875615071565b8152602001606081526020016000815260200160008152602001600060048111156148a2576148a2615071565b8152602001600081526020016060815260200160006001600160a01b031681525090565b82600a81019282156147df579160200282015b828111156147df5782518255916020019190600101906148d9565b8280548282559060005260206000209081019282156147df579160200282015b828111156147df57825182546001600160a01b0319166001600160a01b03909116178255602090920191600190910190614914565b8280548282559060005260206000209081019282156147df57916020028201828111156147df5782518255916020019190600101906148d9565b5b808211156147eb5760008155600101614984565b6001600160a01b03811681146109ec57600080fd5b80356149b881614998565b919050565b600080604083850312156149d057600080fd5b82356149db81614998565b946020939093013593505050565b60005b83811015614a045781810151838201526020016149ec565b50506000910152565b60008151808452614a258160208601602086016149e9565b601f01601f19169290920160200192915050565b602081526000612c1f6020830184614a0d565b600060208284031215614a5e57600080fd5b5035919050565b634e487b7160e01b600052604160045260246000fd5b60405161024081016001600160401b0381118282101715614a9e57614a9e614a65565b60405290565b60405161014081016001600160401b0381118282101715614a9e57614a9e614a65565b604051601f8201601f191681016001600160401b0381118282101715614aef57614aef614a65565b604052919050565b60006001600160401b03821115614b1057614b10614a65565b50601f01601f191660200190565b600082601f830112614b2f57600080fd5b8135614b42614b3d82614af7565b614ac7565b818152846020838601011115614b5757600080fd5b816020850160208301376000918101602001919091529392505050565b600080600080600060a08688031215614b8c57600080fd5b8535945060208601356001600160401b0380821115614baa57600080fd5b614bb689838a01614b1e565b95506040880135915080821115614bcc57600080fd5b50614bd988828901614b1e565b9598949750949560608101359550608001359392505050565b6000806000806101a0808688031215614c0a57600080fd5b853594506020860135935060408601359250868187011115614c2b57600080fd5b509295919450926060019150565b60006001600160401b03821115614c5257614c52614a65565b5060051b60200190565b600082601f830112614c6d57600080fd5b81356020614c7d614b3d83614c39565b82815260059290921b84018101918181019086841115614c9c57600080fd5b8286015b84811015614cc0578035614cb381614998565b8352918301918301614ca0565b509695505050505050565b600082601f830112614cdc57600080fd5b81356020614cec614b3d83614c39565b82815260059290921b84018101918181019086841115614d0b57600080fd5b8286015b84811015614cc05780358352918301918301614d0f565b8035600581106149b857600080fd5b60008060008060008060c08789031215614d4e57600080fd5b86356001600160401b0380821115614d6557600080fd5b614d718a838b01614c5c565b97506020890135915080821115614d8757600080fd5b614d938a838b01614ccb565b96506040890135915080821115614da957600080fd5b614db58a838b01614b1e565b9550614dc360608a01614d26565b94506080890135915080821115614dd957600080fd5b50614de689828a01614b1e565b925050614df560a088016149ad565b90509295509295509295565b600060208284031215614e1357600080fd5b8135612c1f81614998565b8035600381106149b857600080fd5b600060208284031215614e3f57600080fd5b612c1f82614e1e565b8060005b600a811015614e6b578151845260209384019390910190600101614e4c565b50505050565b6101408101610ee98284614e48565b80151581146109ec57600080fd5b80356149b881614e80565b8035600481106149b857600080fd5b60008060008060808587031215614ebe57600080fd5b843593506020850135925060408501356001600160401b0380821115614ee357600080fd5b908601906102408289031215614ef857600080fd5b614f00614a7b565b8235815260208301356020820152604083013582811115614f2057600080fd5b614f2c8a828601614c5c565b604083015250606083013582811115614f4457600080fd5b614f508a828601614ccb565b606083015250608083013582811115614f6857600080fd5b614f748a828601614b1e565b60808301525060a083013560a082015260c083013560c082015260e083013560e0820152610100808401358183015250610120614fb2818501614e8e565b90820152610140614fc4848201614e99565b908201526101608381013583811115614fdc57600080fd5b614fe88b828701614b1e565b8284015250506101808084013581830152506101a08084013581830152506101c0615014818501614d26565b908201526101e08381013590820152610200808401358381111561503757600080fd5b6150438b828701614b1e565b82840152505061022091506150598284016149ad565b91810191909152949793965093946060013593505050565b634e487b7160e01b600052602160045260246000fd5b602081016006831061509b5761509b615071565b91905290565b600080604083850312156150b457600080fd5b82356150bf81614998565b91506150cd60208401614e1e565b90509250929050565b600081518084526020808501945080840160005b8381101561510f5781516001600160a01b0316875295820195908201906001016150ea565b509495945050505050565b600081518084526020808501945080840160005b8381101561510f5781518752958201959082019060010161512e565b6004811061515a5761515a615071565b9052565b600581106109ec576109ec615071565b61515a8161515e565b602081528151602082015260208201516040820152600060408301516102408060608501526151aa6102608501836150d6565b91506060850151601f19808685030160808701526151c8848361511a565b935060808701519150808685030160a08701526151e58483614a0d565b935060a087015160c087015260c087015160e087015260e087015191506101008281880152808801519250506101208281880152808801519250506101406152308188018415159052565b87015191506101606152448782018461514a565b808801519250506101808187860301818801526152618584614a0d565b908801516101a0888101919091528801516101c08089019190915288015190945091506101e06152938188018461516e565b808801519250506102008281880152808801519250506102208187860301818801526152bf8584614a0d565b945080880151925050506152dd828601826001600160a01b03169052565b5090949350505050565b6000806000806000806101e0878903121561530157600080fd5b863561530c81614998565b955060208781013595506040880135945060608801359350609f8801891361533357600080fd5b61533b614aa4565b806101c08a018b81111561534e57600080fd5b60808b015b8181101561536a5780358452928401928401615353565b50909450359150506001600160401b0381111561538657600080fd5b61539289828a01614b1e565b9150509295509295509295565b6000806000606084860312156153b457600080fd5b83356153bf81614998565b95602085013595506040909401359392505050565b60008060008060008060c087890312156153ed57600080fd5b86356153f881614998565b95506020870135945060408701356001600160401b038082111561541b57600080fd5b6154278a838b01614b1e565b9550606089013591508082111561543d57600080fd5b6154498a838b01614b1e565b945061545760808a01614d26565b935060a089013591508082111561546d57600080fd5b5061539289828a01614b1e565b60008060006060848603121561548f57600080fd5b833592506020840135915060408401356154a881614e80565b809150509250925092565b6000602082840312156154c557600080fd5b8151612c1f81614998565b600181811c908216806154e457607f821691505b60208210810361550457634e487b7160e01b600052602260045260246000fd5b50919050565b601f82111561334457600081815260208120601f850160051c810160208610156155315750805b601f850160051c820191505b81811015610c8e5782815560010161553d565b81516001600160401b0381111561556957615569614a65565b61557d8161557784546154d0565b8461550a565b602080601f8311600181146155b2576000841561559a5750858301515b600019600386901b1c1916600185901b178555610c8e565b600085815260208120601f198616915b828110156155e1578886015182559484019460019091019084016155c2565b50858210156155ff5787850151600019600388901b60f8161c191681555b5050505050600190811b01905550565b84815260208101849052604081018390526101a0810161014083606084013795945050505050565b60006020828403121561564957600080fd5b8151612c1f81614e80565b60006020828403121561566657600080fd5b5051919050565b634e487b7160e01b600052601160045260246000fd5b81810381811115610ee957610ee961566d565b600060208083850312156156a957600080fd5b82516001600160401b038111156156bf57600080fd5b8301601f810185136156d057600080fd5b80516156de614b3d82614c39565b81815260059190911b820183019083810190878311156156fd57600080fd5b928401925b828410156111d557835161571581614998565b82529284019290840190615702565b634e487b7160e01b600052603260045260246000fd5b80820180821115610ee957610ee961566d565b60006020828403121561575f57600080fd5b81516001600160401b0381111561577557600080fd5b8201601f8101841361578657600080fd5b8051615794614b3d82614af7565b8181528560208385010111156157a957600080fd5b6157ba8260208301602086016149e9565b95945050505050565b6040815260006157d66040830185614a0d565b90508260208301529392505050565b6000600182016157f7576157f761566d565b5060010190565b8082028115828204841417610ee957610ee961566d565b84815260208101849052604081018390526101a081016157ba6060830184614e48565b6020808252602b908201527f496e697469616c697a61626c653a20636f6e7472616374206973206e6f74206960408201526a6e697469616c697a696e6760a81b606082015260800190565b600082516158958184602087016149e9565b9190910192915050565b6158a88461515e565b8381528260208201526060604082015260006157ba6060830184614a0d565b86815285602082015260c0604082015260006158e660c08301876150d6565b82810360608401526158f8818761511a565b9050828103608084015261590c8186614a0d565b905082810360a0840152612ff48185614a0d56fea71a5dc6523a2d0bf383648e732f9cbd05fb5cd75a9c44758106b038b320de36a264697066735822122022d3057730ee4e5df0191c7ac46e0813b87b76ded7a08da6859e8b0f0c2a480164736f6c63430008110033",
  "linkReferences": {},
  "deployedLinkReferences": {}
}