{
  "_format": "hh-sol-artifact-1",
  "contractName": "Pool",
  "sourceName": "contracts/Pool.sol",
  "abi": [
    {
      "inputs": [],
      "stateMutability": "nonpayable",
      "type": "constructor"
    },
    {
      "anonymous": false,
      "inputs": [
        {
          "indexed": false,
          "internalType": "bytes",
          "name": "data",
          "type": "bytes"
        }
      ],
      "name": "ErrorCaugth",
      "type": "event"
    },
    {
      "anonymous": false,
      "inputs": [
        {
          "indexed": false,
          "internalType": "uint256",
          "name": "ballotQuorumThreshold",
          "type": "uint256"
        },
        {
          "indexed": false,
          "internalType": "uint256",
          "name": "ballotDecisionThreshold",
          "type": "uint256"
        },
        {
          "indexed": false,
          "internalType": "uint256",
          "name": "ballotLifespan",
          "type": "uint256"
        },
        {
          "indexed": false,
          "internalType": "uint256[10]",
          "name": "ballotExecDelay",
          "type": "uint256[10]"
        }
      ],
      "name": "GovernanceSettingsSet",
      "type": "event"
    },
    {
      "anonymous": false,
      "inputs": [
        {
          "indexed": false,
          "internalType": "uint8",
          "name": "version",
          "type": "uint8"
        }
      ],
      "name": "Initialized",
      "type": "event"
    },
    {
      "anonymous": false,
      "inputs": [
        {
          "indexed": true,
          "internalType": "address",
          "name": "previousOwner",
          "type": "address"
        },
        {
          "indexed": true,
          "internalType": "address",
          "name": "newOwner",
          "type": "address"
        }
      ],
      "name": "OwnershipTransferred",
      "type": "event"
    },
    {
      "anonymous": false,
      "inputs": [
        {
          "indexed": false,
          "internalType": "address",
          "name": "account",
          "type": "address"
        }
      ],
      "name": "Paused",
      "type": "event"
    },
    {
      "anonymous": false,
      "inputs": [
        {
          "indexed": false,
          "internalType": "uint256",
          "name": "proposalId",
          "type": "uint256"
        }
      ],
      "name": "ProposalCancelled",
      "type": "event"
    },
    {
      "anonymous": false,
      "inputs": [
        {
          "indexed": false,
          "internalType": "uint256",
          "name": "proposalId",
          "type": "uint256"
        },
        {
          "indexed": false,
          "internalType": "uint256",
          "name": "quorum",
          "type": "uint256"
        },
        {
          "indexed": false,
          "internalType": "address[]",
          "name": "targets",
          "type": "address[]"
        },
        {
          "indexed": false,
          "internalType": "uint256[]",
          "name": "values",
          "type": "uint256[]"
        },
        {
          "indexed": false,
          "internalType": "bytes",
          "name": "calldatas",
          "type": "bytes"
        },
        {
          "indexed": false,
          "internalType": "string",
          "name": "description",
          "type": "string"
        }
      ],
      "name": "ProposalCreated",
      "type": "event"
    },
    {
      "anonymous": false,
      "inputs": [
        {
          "indexed": false,
          "internalType": "uint256",
          "name": "proposalId",
          "type": "uint256"
        }
      ],
      "name": "ProposalExecuted",
      "type": "event"
    },
    {
      "anonymous": false,
      "inputs": [
        {
          "indexed": false,
          "internalType": "uint256",
          "name": "amount",
          "type": "uint256"
        }
      ],
      "name": "Received",
      "type": "event"
    },
    {
      "anonymous": false,
      "inputs": [
        {
          "indexed": false,
          "internalType": "address",
          "name": "account",
          "type": "address"
        }
      ],
      "name": "Unpaused",
      "type": "event"
    },
    {
      "anonymous": false,
      "inputs": [
        {
          "indexed": false,
          "internalType": "address",
          "name": "voter",
          "type": "address"
        },
        {
          "indexed": false,
          "internalType": "uint256",
          "name": "proposalId",
          "type": "uint256"
        },
        {
          "indexed": false,
          "internalType": "uint256",
          "name": "votes",
          "type": "uint256"
        },
        {
          "indexed": false,
          "internalType": "bool",
          "name": "support",
          "type": "bool"
        }
      ],
      "name": "VoteCast",
      "type": "event"
    },
    {
      "inputs": [],
      "name": "EIN",
      "outputs": [
        {
          "internalType": "string",
          "name": "",
          "type": "string"
        }
      ],
      "stateMutability": "view",
      "type": "function"
    },
    {
      "inputs": [
        {
          "internalType": "uint256",
          "name": "totalCastVotes",
          "type": "uint256"
        },
        {
          "internalType": "uint256",
          "name": "quorumVotes",
          "type": "uint256"
        },
        {
          "components": [
            {
              "internalType": "uint256",
              "name": "ballotQuorumThreshold",
              "type": "uint256"
            },
            {
              "internalType": "uint256",
              "name": "ballotDecisionThreshold",
              "type": "uint256"
            },
            {
              "internalType": "address[]",
              "name": "targets",
              "type": "address[]"
            },
            {
              "internalType": "uint256[]",
              "name": "values",
              "type": "uint256[]"
            },
            {
              "internalType": "bytes",
              "name": "callData",
              "type": "bytes"
            },
            {
              "internalType": "uint256",
              "name": "startBlock",
              "type": "uint256"
            },
            {
              "internalType": "uint256",
              "name": "endBlock",
              "type": "uint256"
            },
            {
              "internalType": "uint256",
              "name": "forVotes",
              "type": "uint256"
            },
            {
              "internalType": "uint256",
              "name": "againstVotes",
              "type": "uint256"
            },
            {
              "internalType": "bool",
              "name": "executed",
              "type": "bool"
            },
            {
              "internalType": "enum Governor.ProposalExecutionState",
              "name": "state",
              "type": "uint8"
            },
            {
              "internalType": "string",
              "name": "description",
              "type": "string"
            },
            {
              "internalType": "uint256",
              "name": "totalSupply",
              "type": "uint256"
            },
            {
              "internalType": "uint256",
              "name": "lastVoteBlock",
              "type": "uint256"
            },
            {
              "internalType": "enum IDispatcher.ProposalType",
              "name": "proposalType",
              "type": "uint8"
            },
            {
              "internalType": "uint256",
              "name": "execDelay",
              "type": "uint256"
            },
            {
              "internalType": "string",
              "name": "metaHash",
              "type": "string"
            },
            {
              "internalType": "address",
              "name": "token",
              "type": "address"
            }
          ],
          "internalType": "struct Governor.Proposal",
          "name": "proposal",
          "type": "tuple"
        },
        {
          "internalType": "uint256",
          "name": "totalAvailableVotes",
          "type": "uint256"
        }
      ],
      "name": "aheadOfTimeBallot",
      "outputs": [
        {
          "internalType": "enum Governor.ProposalState",
          "name": "",
          "type": "uint8"
        }
      ],
      "stateMutability": "pure",
      "type": "function"
    },
    {
      "inputs": [],
      "name": "ballotDecisionThreshold",
      "outputs": [
        {
          "internalType": "uint256",
          "name": "",
          "type": "uint256"
        }
      ],
      "stateMutability": "view",
      "type": "function"
    },
    {
      "inputs": [
        {
          "internalType": "uint256",
          "name": "",
          "type": "uint256"
        }
      ],
      "name": "ballotExecDelay",
      "outputs": [
        {
          "internalType": "uint256",
          "name": "",
          "type": "uint256"
        }
      ],
      "stateMutability": "view",
      "type": "function"
    },
    {
      "inputs": [],
      "name": "ballotLifespan",
      "outputs": [
        {
          "internalType": "uint256",
          "name": "",
          "type": "uint256"
        }
      ],
      "stateMutability": "view",
      "type": "function"
    },
    {
      "inputs": [],
      "name": "ballotQuorumThreshold",
      "outputs": [
        {
          "internalType": "uint256",
          "name": "",
          "type": "uint256"
        }
      ],
      "stateMutability": "view",
      "type": "function"
    },
    {
      "inputs": [
        {
          "internalType": "uint256",
          "name": "proposalId",
          "type": "uint256"
        },
        {
          "internalType": "uint256",
          "name": "votes",
          "type": "uint256"
        },
        {
          "internalType": "bool",
          "name": "support",
          "type": "bool"
        }
      ],
      "name": "castVote",
      "outputs": [],
      "stateMutability": "nonpayable",
      "type": "function"
    },
    {
      "inputs": [],
      "name": "dateOfIncorporation",
      "outputs": [
        {
          "internalType": "string",
          "name": "",
          "type": "string"
        }
      ],
      "stateMutability": "view",
      "type": "function"
    },
    {
      "inputs": [],
      "name": "entityType",
      "outputs": [
        {
          "internalType": "uint256",
          "name": "",
          "type": "uint256"
        }
      ],
      "stateMutability": "view",
      "type": "function"
    },
    {
      "inputs": [
        {
          "internalType": "uint256",
          "name": "proposalId",
          "type": "uint256"
        }
      ],
      "name": "executeBallot",
      "outputs": [],
      "stateMutability": "nonpayable",
      "type": "function"
    },
    {
      "inputs": [
        {
          "internalType": "address",
          "name": "user",
          "type": "address"
        },
        {
          "internalType": "uint256",
          "name": "proposalId",
          "type": "uint256"
        }
      ],
      "name": "getAgainstVotes",
      "outputs": [
        {
          "internalType": "uint256",
          "name": "",
          "type": "uint256"
        }
      ],
      "stateMutability": "view",
      "type": "function"
    },
    {
      "inputs": [],
      "name": "getBallotExecDelay",
      "outputs": [
        {
          "internalType": "uint256[10]",
          "name": "",
          "type": "uint256[10]"
        }
      ],
      "stateMutability": "view",
      "type": "function"
    },
    {
      "inputs": [
        {
          "internalType": "address",
          "name": "user",
          "type": "address"
        },
        {
          "internalType": "uint256",
          "name": "proposalId",
          "type": "uint256"
        }
      ],
      "name": "getForVotes",
      "outputs": [
        {
          "internalType": "uint256",
          "name": "",
          "type": "uint256"
        }
      ],
      "stateMutability": "view",
      "type": "function"
    },
    {
      "inputs": [
        {
          "internalType": "uint256",
          "name": "proposalId",
          "type": "uint256"
        }
      ],
      "name": "getProposal",
      "outputs": [
        {
          "components": [
            {
              "internalType": "uint256",
              "name": "ballotQuorumThreshold",
              "type": "uint256"
            },
            {
              "internalType": "uint256",
              "name": "ballotDecisionThreshold",
              "type": "uint256"
            },
            {
              "internalType": "address[]",
              "name": "targets",
              "type": "address[]"
            },
            {
              "internalType": "uint256[]",
              "name": "values",
              "type": "uint256[]"
            },
            {
              "internalType": "bytes",
              "name": "callData",
              "type": "bytes"
            },
            {
              "internalType": "uint256",
              "name": "startBlock",
              "type": "uint256"
            },
            {
              "internalType": "uint256",
              "name": "endBlock",
              "type": "uint256"
            },
            {
              "internalType": "uint256",
              "name": "forVotes",
              "type": "uint256"
            },
            {
              "internalType": "uint256",
              "name": "againstVotes",
              "type": "uint256"
            },
            {
              "internalType": "bool",
              "name": "executed",
              "type": "bool"
            },
            {
              "internalType": "enum Governor.ProposalExecutionState",
              "name": "state",
              "type": "uint8"
            },
            {
              "internalType": "string",
              "name": "description",
              "type": "string"
            },
            {
              "internalType": "uint256",
              "name": "totalSupply",
              "type": "uint256"
            },
            {
              "internalType": "uint256",
              "name": "lastVoteBlock",
              "type": "uint256"
            },
            {
              "internalType": "enum IDispatcher.ProposalType",
              "name": "proposalType",
              "type": "uint8"
            },
            {
              "internalType": "uint256",
              "name": "execDelay",
              "type": "uint256"
            },
            {
              "internalType": "string",
              "name": "metaHash",
              "type": "string"
            },
            {
              "internalType": "address",
              "name": "token",
              "type": "address"
            }
          ],
          "internalType": "struct Governor.Proposal",
          "name": "",
          "type": "tuple"
        }
      ],
      "stateMutability": "view",
      "type": "function"
    },
    {
      "inputs": [],
      "name": "getTVL",
      "outputs": [
        {
          "internalType": "uint256",
          "name": "",
          "type": "uint256"
        }
      ],
      "stateMutability": "nonpayable",
      "type": "function"
    },
    {
      "inputs": [
        {
          "internalType": "uint256",
          "name": "jurisdiction_",
          "type": "uint256"
        },
        {
          "internalType": "string",
          "name": "EIN_",
          "type": "string"
        },
        {
          "internalType": "string",
          "name": "dateOfIncorporation_",
          "type": "string"
        },
        {
          "internalType": "uint256",
          "name": "entityType_",
          "type": "uint256"
        },
        {
          "internalType": "uint256",
          "name": "metadataIndex_",
          "type": "uint256"
        }
      ],
      "name": "initialize",
      "outputs": [],
      "stateMutability": "nonpayable",
      "type": "function"
    },
    {
      "inputs": [],
      "name": "isDAO",
      "outputs": [
        {
          "internalType": "bool",
          "name": "",
          "type": "bool"
        }
      ],
      "stateMutability": "view",
      "type": "function"
    },
    {
      "inputs": [
        {
          "internalType": "contract IPool",
          "name": "pool",
          "type": "address"
        },
        {
          "internalType": "uint256",
          "name": "proposalId",
          "type": "uint256"
        },
        {
          "internalType": "uint256",
          "name": "index",
          "type": "uint256"
        }
      ],
      "name": "isDelayCleared",
      "outputs": [
        {
          "internalType": "bool",
          "name": "",
          "type": "bool"
        }
      ],
      "stateMutability": "nonpayable",
      "type": "function"
    },
    {
      "inputs": [],
      "name": "jurisdiction",
      "outputs": [
        {
          "internalType": "uint256",
          "name": "",
          "type": "uint256"
        }
      ],
      "stateMutability": "view",
      "type": "function"
    },
    {
      "inputs": [],
      "name": "lastProposalId",
      "outputs": [
        {
          "internalType": "uint256",
          "name": "",
          "type": "uint256"
        }
      ],
      "stateMutability": "view",
      "type": "function"
    },
    {
      "inputs": [
        {
          "internalType": "address",
          "name": "",
          "type": "address"
        }
      ],
      "name": "lastProposalIdForAccount",
      "outputs": [
        {
          "internalType": "uint256",
          "name": "",
          "type": "uint256"
        }
      ],
      "stateMutability": "view",
      "type": "function"
    },
    {
      "inputs": [
        {
          "internalType": "address",
          "name": "owner_",
          "type": "address"
        },
        {
          "internalType": "uint256",
          "name": "ballotQuorumThreshold_",
          "type": "uint256"
        },
        {
          "internalType": "uint256",
          "name": "ballotDecisionThreshold_",
          "type": "uint256"
        },
        {
          "internalType": "uint256",
          "name": "ballotLifespan_",
          "type": "uint256"
        },
        {
          "internalType": "uint256[10]",
          "name": "ballotExecDelay_",
          "type": "uint256[10]"
        },
        {
          "internalType": "string",
          "name": "trademark_",
          "type": "string"
        }
      ],
      "name": "launch",
      "outputs": [],
      "stateMutability": "nonpayable",
      "type": "function"
    },
    {
      "inputs": [],
      "name": "maxProposalId",
      "outputs": [
        {
          "internalType": "uint256",
          "name": "",
          "type": "uint256"
        }
      ],
      "stateMutability": "view",
      "type": "function"
    },
    {
      "inputs": [],
      "name": "metadataIndex",
      "outputs": [
        {
          "internalType": "uint256",
          "name": "",
          "type": "uint256"
        }
      ],
      "stateMutability": "view",
      "type": "function"
    },
    {
      "inputs": [],
      "name": "owner",
      "outputs": [
        {
          "internalType": "address",
          "name": "",
          "type": "address"
        }
      ],
      "stateMutability": "view",
      "type": "function"
    },
    {
      "inputs": [],
      "name": "pause",
      "outputs": [],
      "stateMutability": "nonpayable",
      "type": "function"
    },
    {
      "inputs": [],
      "name": "paused",
      "outputs": [
        {
          "internalType": "bool",
          "name": "",
          "type": "bool"
        }
      ],
      "stateMutability": "view",
      "type": "function"
    },
    {
      "inputs": [],
      "name": "poolLaunched",
      "outputs": [
        {
          "internalType": "bool",
          "name": "",
          "type": "bool"
        }
      ],
      "stateMutability": "view",
      "type": "function"
    },
    {
      "inputs": [
        {
          "internalType": "uint256",
          "name": "proposalId",
          "type": "uint256"
        }
      ],
      "name": "proposalState",
      "outputs": [
        {
          "internalType": "enum Governor.ProposalState",
          "name": "",
          "type": "uint8"
        }
      ],
      "stateMutability": "view",
      "type": "function"
    },
    {
      "inputs": [
        {
          "internalType": "address",
          "name": "target",
          "type": "address"
        },
        {
          "internalType": "uint256",
          "name": "value",
          "type": "uint256"
        },
        {
          "internalType": "bytes",
          "name": "cd",
          "type": "bytes"
        },
        {
          "internalType": "string",
          "name": "description",
          "type": "string"
        },
        {
          "internalType": "enum IDispatcher.ProposalType",
          "name": "proposalType",
          "type": "uint8"
        },
        {
          "internalType": "string",
          "name": "metaHash",
          "type": "string"
        }
      ],
      "name": "proposeSingleAction",
      "outputs": [
        {
          "internalType": "uint256",
          "name": "proposalId",
          "type": "uint256"
        }
      ],
      "stateMutability": "nonpayable",
      "type": "function"
    },
    {
      "inputs": [
        {
          "internalType": "address[]",
          "name": "targets",
          "type": "address[]"
        },
        {
          "internalType": "uint256[]",
          "name": "values",
          "type": "uint256[]"
        },
        {
          "internalType": "string",
          "name": "description",
          "type": "string"
        },
        {
          "internalType": "enum IDispatcher.ProposalType",
          "name": "proposalType",
          "type": "uint8"
        },
        {
          "internalType": "string",
          "name": "metaHash",
          "type": "string"
        },
        {
          "internalType": "address",
          "name": "token_",
          "type": "address"
        }
      ],
      "name": "proposeTransfer",
      "outputs": [
        {
          "internalType": "uint256",
          "name": "proposalId",
          "type": "uint256"
        }
      ],
      "stateMutability": "nonpayable",
      "type": "function"
    },
    {
      "inputs": [],
      "name": "renounceOwnership",
      "outputs": [],
      "stateMutability": "nonpayable",
      "type": "function"
    },
    {
      "inputs": [],
      "name": "service",
      "outputs": [
        {
          "internalType": "contract IService",
          "name": "",
          "type": "address"
        }
      ],
      "stateMutability": "view",
      "type": "function"
    },
    {
      "inputs": [
        {
          "internalType": "uint256",
          "name": "proposalId",
          "type": "uint256"
        }
      ],
      "name": "serviceCancelBallot",
      "outputs": [],
      "stateMutability": "nonpayable",
      "type": "function"
    },
    {
      "inputs": [
        {
          "internalType": "uint256",
          "name": "ballotQuorumThreshold_",
          "type": "uint256"
        },
        {
          "internalType": "uint256",
          "name": "ballotDecisionThreshold_",
          "type": "uint256"
        },
        {
          "internalType": "uint256",
          "name": "ballotLifespan_",
          "type": "uint256"
        },
        {
          "internalType": "uint256[10]",
          "name": "ballotExecDelay_",
          "type": "uint256[10]"
        }
      ],
      "name": "setGovernanceSettings",
      "outputs": [],
      "stateMutability": "nonpayable",
      "type": "function"
    },
    {
      "inputs": [
        {
          "internalType": "address",
          "name": "creator",
          "type": "address"
        },
        {
          "internalType": "uint256",
          "name": "proposalId",
          "type": "uint256"
        }
      ],
      "name": "setLastProposalIdForAccount",
      "outputs": [],
      "stateMutability": "nonpayable",
      "type": "function"
    },
    {
      "inputs": [
        {
          "internalType": "address",
          "name": "token_",
          "type": "address"
        },
        {
          "internalType": "enum IToken.TokenType",
          "name": "tokenType_",
          "type": "uint8"
        }
      ],
      "name": "setToken",
      "outputs": [],
      "stateMutability": "nonpayable",
      "type": "function"
    },
    {
      "inputs": [
        {
          "internalType": "enum IToken.TokenType",
          "name": "",
          "type": "uint8"
        }
      ],
      "name": "tokens",
      "outputs": [
        {
          "internalType": "contract IToken",
          "name": "",
          "type": "address"
        }
      ],
      "stateMutability": "view",
      "type": "function"
    },
    {
      "inputs": [],
      "name": "trademark",
      "outputs": [
        {
          "internalType": "string",
          "name": "",
          "type": "string"
        }
      ],
      "stateMutability": "view",
      "type": "function"
    },
    {
      "inputs": [
        {
          "internalType": "address",
          "name": "newOwner",
          "type": "address"
        }
      ],
      "name": "transferOwnership",
      "outputs": [],
      "stateMutability": "nonpayable",
      "type": "function"
    },
    {
      "inputs": [],
      "name": "unpause",
      "outputs": [],
      "stateMutability": "nonpayable",
      "type": "function"
    },
    {
      "stateMutability": "payable",
      "type": "receive"
    }
  ],
  "bytecode": "0x60806040523480156200001157600080fd5b506200001c62000022565b620000e4565b600054610100900460ff16156200008f5760405162461bcd60e51b815260206004820152602760248201527f496e697469616c697a61626c653a20636f6e747261637420697320696e697469604482015266616c697a696e6760c81b606482015260840160405180910390fd5b60005460ff9081161015620000e2576000805460ff191660ff9081179091556040519081527f7f26b83ff96e1f2b6a682f133852f6798a09c465da95921460cefb38474024989060200160405180910390a15b565b615a7c80620000f46000396000f3fe60806040526004361061024a5760003560e01c80638856c0d611610139578063c4767b95116100b6578063dc1769411161007a578063dc176941146106ea578063e1503e05146106ff578063e47bfee81461071f578063f276038314610734578063f2fde38b14610754578063f9000ba81461077457600080fd5b8063c4767b951461063d578063c7f758a81461065d578063cc20782e1461068a578063d26331d4146106aa578063d598d4c9146106ca57600080fd5b8063a66e53c9116100fd578063a66e53c9146105a9578063a92ab316146105cb578063af041a34146105e0578063b22d31cc1461060d578063bc7a4ead1461062757600080fd5b80638856c0d6146104d95780638da5cb5b14610527578063958b138e1461053c57806397b3fcaa146105515780639b6415511461056657600080fd5b80635c975abb116101c757806374cb30411161018b57806374cb30411461046c5780637c905b7714610482578063826a5d5614610498578063838453fd146104ae5780638456cb59146104c457600080fd5b80635c975abb146103c55780635f76808f146103ea5780636080484d1461040a5780636efcd85b1461042a578063715018a61461045757600080fd5b80634631d0e21161020e5780634631d0e21461032f578063476aa1ea1461034f5780634dd703671461036f578063515f723c1461038f5780635b975d6b146103af57600080fd5b806303f27b871461028957806316561076146102ab57806323681e3d146102d6578063359146e8146102f65780633f4ba83a1461031a57600080fd5b36610284576040513481527fa8142743f8f70a4c26f3691cf4ed59718381fb2f18070ec52be1f1022d8555579060200160405180910390a1005b600080fd5b34801561029557600080fd5b506102a96102a4366004614ac3565b610794565b005b3480156102b757600080fd5b506102c06108d2565b6040516102cd9190614b3f565b60405180910390f35b3480156102e257600080fd5b506102a96102f1366004614b52565b610960565b34801561030257600080fd5b5061030c60d05481565b6040519081526020016102cd565b34801561032657600080fd5b506102a9610a03565b34801561033b57600080fd5b506102a961034a366004614c7a565b610ae1565b34801561035b57600080fd5b5061030c61036a366004614b52565b610caa565b34801561037b57600080fd5b506102a961038a366004614b52565b610cc1565b34801561039b57600080fd5b506102a96103aa366004614cf8565b610e2e565b3480156103bb57600080fd5b5061030c60d45481565b3480156103d157600080fd5b506103da611008565b60405190151581526020016102cd565b3480156103f657600080fd5b5061030c610405366004614ac3565b61101b565b34801561041657600080fd5b5061030c610425366004614e3b565b611046565b34801561043657600080fd5b5061030c610445366004614f07565b60e16020526000908152604090205481565b34801561046357600080fd5b506102a9611337565b34801561047857600080fd5b5061030c60cc5481565b34801561048e57600080fd5b5061030c60cf5481565b3480156104a457600080fd5b5061030c60d25481565b3480156104ba57600080fd5b5061030c60d55481565b3480156104d057600080fd5b506102a9611349565b3480156104e557600080fd5b5061050f6104f4366004614f33565b60e3602052600090815260409020546001600160a01b031681565b6040516001600160a01b0390911681526020016102cd565b34801561053357600080fd5b5061050f611425565b34801561054857600080fd5b5060cc5461030c565b34801561055d57600080fd5b5061030c611439565b34801561057257600080fd5b5061030c610581366004614ac3565b6001600160a01b0391909116600090815260ca60209081526040808320938352929052205490565b3480156105b557600080fd5b506105be6117ae565b6040516102cd9190614f77565b3480156105d757600080fd5b506102c06117ea565b3480156105ec57600080fd5b506106006105fb366004614fae565b6117f7565b6040516102cd919061518d565b34801561061957600080fd5b5060e2546103da9060ff1681565b34801561063357600080fd5b5061030c60ce5481565b34801561064957600080fd5b506102a96106583660046151a7565b6118d3565b34801561066957600080fd5b5061067d610678366004614b52565b611a13565b6040516102cd919061527d565b34801561069657600080fd5b506102a96106a53660046153ed565b611d86565b3480156106b657600080fd5b506106006106c5366004614b52565b611f4c565b3480156106d657600080fd5b5060cd5461050f906001600160a01b031681565b3480156106f657600080fd5b506102c06123e8565b34801561070b57600080fd5b506103da61071a3660046154a5565b6123f5565b34801561072b57600080fd5b506103da612d2e565b34801561074057600080fd5b5061030c61074f3660046154da565b612db1565b34801561076057600080fd5b506102a961076f366004614f07565b613109565b34801561078057600080fd5b506102a961078f366004615580565b61317f565b60cd60009054906101000a90046001600160a01b03166001600160a01b03166304e31dfb6040518163ffffffff1660e01b8152600401602060405180830381865afa1580156107e7573d6000803e3d6000fd5b505050506040513d601f19601f8201168201806040525081019061080b91906155b9565b6001600160a01b0316336001600160a01b0316146040518060400160405280600e81526020016d2727aa2fa224a9a820aa21a422a960911b8152509061086d5760405162461bcd60e51b81526004016108649190614b3f565b60405180910390fd5b5060e25460408051808201909152600c81526b1393d517d310555390d2115160a21b60208201529060ff166108b55760405162461bcd60e51b81526004016108649190614b3f565b506001600160a01b03909116600090815260e16020526040902055565b60d180546108df906155d6565b80601f016020809104026020016040519081016040528092919081815260200182805461090b906155d6565b80156109585780601f1061092d57610100808354040283529160200191610958565b820191906000526020600020905b81548152906001019060200180831161093b57829003601f168201915b505050505081565b60cd5460408051808201909152600b81526a4e4f545f5345525649434560a81b6020820152906001600160a01b031633146109ae5760405162461bcd60e51b81526004016108649190614b3f565b5060e25460408051808201909152600c81526b1393d517d310555390d2115160a21b60208201529060ff166109f65760405162461bcd60e51b81526004016108649190614b3f565b50610a0081613451565b50565b60cd60009054906101000a90046001600160a01b03166001600160a01b0316638da5cb5b6040518163ffffffff1660e01b8152600401602060405180830381865afa158015610a56573d6000803e3d6000fd5b505050506040513d601f19601f82011682018060405250810190610a7a91906155b9565b6001600160a01b0316336001600160a01b031614604051806040016040528060118152602001702727aa2fa9a2a92b24a1a2afa7aba722a960791b81525090610ad65760405162461bcd60e51b81526004016108649190614b3f565b50610adf61352c565b565b600054610100900460ff1615808015610b015750600054600160ff909116105b80610b1b5750303b158015610b1b575060005460ff166001145b610b7e5760405162461bcd60e51b815260206004820152602e60248201527f496e697469616c697a61626c653a20636f6e747261637420697320616c72656160448201526d191e481a5b9a5d1a585b1a5e995960921b6064820152608401610864565b6000805460ff191660011790558015610ba1576000805461ff0019166101001790555b610ba961357e565b336001600160a01b031663d598d4c96040518163ffffffff1660e01b8152600401602060405180830381865afa158015610be7573d6000803e3d6000fd5b505050506040513d601f19601f82011682018060405250810190610c0b91906155b9565b60cd80546001600160a01b0319166001600160a01b03929092169182179055610c33906135ad565b60d286905560d3610c448682615656565b5060d6610c518582615656565b5060d583905560d48290558015610ca2576000805461ff0019169055604051600181527f7f26b83ff96e1f2b6a682f133852f6798a09c465da95921460cefb38474024989060200160405180910390a15b505050505050565b60d781600a8110610cba57600080fd5b0154905081565b610cc96135ff565b806001610cd582611a13565b6101c001516004811115610ceb57610ceb615177565b1480610d1557506002610cfd82611a13565b6101c001516004811115610d1357610d13615177565b145b15610dcb5760cd54604051630abaeddd60e01b81523360048201526001600160a01b0390911690630abaeddd90602401602060405180830381865afa158015610d62573d6000803e3d6000fd5b505050506040513d601f19601f82011682018060405250810190610d869190615715565b6040518060400160405280600c81526020016b24a72b20a624a22faaa9a2a960a11b81525090610dc95760405162461bcd60e51b81526004016108649190614b3f565b505b60e25460408051808201909152600c81526b1393d517d310555390d2115160a21b60208201529060ff16610e125760405162461bcd60e51b81526004016108649190614b3f565b5060cd54610e2a9083906001600160a01b0316613647565b5050565b6040805180820190915260088152671393d517d413d3d360c21b6020820152333014610e6d5760405162461bcd60e51b81526004016108649190614b3f565b50610e766135ff565b60e25460408051808201909152600c81526b1393d517d310555390d2115160a21b60208201529060ff16610ebd5760405162461bcd60e51b81526004016108649190614b3f565b5060cd60009054906101000a90046001600160a01b03166001600160a01b031663cb7e90576040518163ffffffff1660e01b8152600401602060405180830381865afa158015610f11573d6000803e3d6000fd5b505050506040513d601f19601f82011682018060405250810190610f3591906155b9565b6001600160a01b03166341a453e1858585856040518563ffffffff1660e01b8152600401610f669493929190615732565b602060405180830381865afa158015610f83573d6000803e3d6000fd5b505050506040513d601f19601f82011682018060405250810190610fa79190615715565b5060ce84905560cf83905560d0829055610fc460d782600a6148b7565b507fbb9ef068c024171e5652a9a8446b33265c42ce6735ae3f75c5c3a7b323d97c1784848484604051610ffa9493929190615732565b60405180910390a150505050565b600061101660975460ff1690565b905090565b6001600160a01b038216600090815260cb602090815260408083208484529091529020545b92915050565b60cd54604080516304e31dfb60e01b815290516000926001600160a01b0316916304e31dfb9160048083019260209291908290030181865afa158015611090573d6000803e3d6000fd5b505050506040513d601f19601f820116820180604052508101906110b491906155b9565b6001600160a01b0316336001600160a01b0316146040518060400160405280600e81526020016d2727aa2fa224a9a820aa21a422a960911b8152509061110d5760405162461bcd60e51b81526004016108649190614b3f565b506111166135ff565b60e25460408051808201909152600c81526b1393d517d310555390d2115160a21b60208201529060ff1661115d5760405162461bcd60e51b81526004016108649190614b3f565b5061132c60d05460ce5460cf548a8a604051806020016040528060008152508b60e360006001600281111561119457611194615177565b60028111156111a5576111a5615177565b815260208082019290925260409081016000205460cd54825163803db96d60e01b815292516001600160a01b03928316946370a0823194929093169263803db96d92600480820193918290030181865afa158015611207573d6000803e3d6000fd5b505050506040513d601f19601f8201168201806040525081019061122b91906155b9565b6040516001600160e01b031960e084901b1681526001600160a01b039091166004820152602401602060405180830381865afa15801561126f573d6000803e3d6000fd5b505050506040513d601f19601f82011682018060405250810190611293919061575a565b61129b613f84565b6112a3614007565b6112ad9190615789565b6112b79190615789565b60cd546040516323b550f560e11b8152600160048201526001600160a01b039091169063476aa1ea90602401602060405180830381865afa158015611300573d6000803e3d6000fd5b505050506040513d601f19601f82011682018060405250810190611324919061575a565b8d8d8d614066565b979650505050505050565b61133f614306565b610adf60006135ad565b60cd60009054906101000a90046001600160a01b03166001600160a01b0316638da5cb5b6040518163ffffffff1660e01b8152600401602060405180830381865afa15801561139c573d6000803e3d6000fd5b505050506040513d601f19601f820116820180604052508101906113c091906155b9565b6001600160a01b0316336001600160a01b031614604051806040016040528060118152602001702727aa2fa9a2a92b24a1a2afa7aba722a960791b8152509061141c5760405162461bcd60e51b81526004016108649190614b3f565b50610adf614365565b60006110166033546001600160a01b031690565b60008060cd60009054906101000a90046001600160a01b03166001600160a01b0316634db4a3526040518163ffffffff1660e01b8152600401602060405180830381865afa15801561148f573d6000803e3d6000fd5b505050506040513d601f19601f820116820180604052508101906114b391906155b9565b9050600060cd60009054906101000a90046001600160a01b03166001600160a01b031663cb7e90576040518163ffffffff1660e01b8152600401602060405180830381865afa15801561150a573d6000803e3d6000fd5b505050506040513d601f19601f8201168201806040525081019061152e91906155b9565b90506000816001600160a01b031663ca735cc16040518163ffffffff1660e01b8152600401600060405180830381865afa158015611570573d6000803e3d6000fd5b505050506040513d6000823e601f3d908101601f19168201604052611598919081019061579c565b90506000805b82518110156117a55760006001600160a01b03168382815181106115c4576115c461582a565b60200260200101516001600160a01b0316036115eb576115e44783615840565b9150611793565b60008382815181106115ff576115ff61582a565b60209081029190910101516040516370a0823160e01b81523060048201526001600160a01b03909116906370a0823190602401602060405180830381865afa15801561164f573d6000803e3d6000fd5b505050506040513d601f19601f82011682018060405250810190611673919061575a565b9050801561179157856001600160a01b031663cdca1753866001600160a01b03166350eb1c438786815181106116ab576116ab61582a565b60200260200101516040518263ffffffff1660e01b81526004016116de91906001600160a01b0391909116815260200190565b600060405180830381865afa1580156116fb573d6000803e3d6000fd5b505050506040513d6000823e601f3d908101601f191682016040526117239190810190615853565b836040518363ffffffff1660e01b81526004016117419291906158c9565b6020604051808303816000875af1158015611760573d6000803e3d6000fd5b505050506040513d601f19601f82011682018060405250810190611784919061575a565b61178e9084615840565b92505b505b8061179d816158eb565b91505061159e565b50949350505050565b6117b66148f5565b604080516101408101918290529060d790600a9082845b8154815260200190600101908083116117cd575050505050905090565b60d380546108df906155d6565b60008083602001518661180a9190615904565b9050600084602001518461181e9190615904565b90508561182d88612710615904565b1015801561184c5750818560e001516127106118499190615904565b10155b80156118695750808560e001516127106118669190615904565b10155b15611879576003925050506118cb565b818560e0015161271061188c9190615904565b1080156118b4575080856101000151856118a69190615789565b6118b290612710615904565b105b156118c4576002925050506118cb565b6000925050505b949350505050565b60cd5460408051808201909152600b81526a4e4f545f5345525649434560a81b6020820152906001600160a01b031633146119215760405162461bcd60e51b81526004016108649190614b3f565b5060e25460408051808201909152600c81526b1393d517d310555390d2115160a21b60208201529060ff166119695760405162461bcd60e51b81526004016108649190614b3f565b5060408051808201909152600c81526b414444524553535f5a45524f60a01b60208201526001600160a01b0383166119b45760405162461bcd60e51b81526004016108649190614b3f565b508160e360008360028111156119cc576119cc615177565b60028111156119dd576119dd615177565b815260200190815260200160002060006101000a8154816001600160a01b0302191690836001600160a01b031602179055505050565b611a1b614914565b600082815260c960209081526040918290208251610240810184528154815260018201548184015260028201805485518186028101860187528181529295939493860193830182828015611a9857602002820191906000526020600020905b81546001600160a01b03168152600190910190602001808311611a7a575b5050505050815260200160038201805480602002602001604051908101604052809291908181526020018280548015611af057602002820191906000526020600020905b815481526020019060010190808311611adc575b50505050508152602001600482018054611b09906155d6565b80601f0160208091040260200160405190810160405280929190818152602001828054611b35906155d6565b8015611b825780601f10611b5757610100808354040283529160200191611b82565b820191906000526020600020905b815481529060010190602001808311611b6557829003601f168201915b505050918352505060058201546020820152600682015460408201526007820154606082015260088201546080820152600982015460ff808216151560a084015260c090920191610100909104166003811115611be157611be1615177565b6003811115611bf257611bf2615177565b8152602001600a82018054611c06906155d6565b80601f0160208091040260200160405190810160405280929190818152602001828054611c32906155d6565b8015611c7f5780601f10611c5457610100808354040283529160200191611c7f565b820191906000526020600020905b815481529060010190602001808311611c6257829003601f168201915b5050509183525050600b8201546020820152600c8201546040820152600d82015460609091019060ff166004811115611cba57611cba615177565b6004811115611ccb57611ccb615177565b8152602001600e8201548152602001600f82018054611ce9906155d6565b80601f0160208091040260200160405190810160405280929190818152602001828054611d15906155d6565b8015611d625780601f10611d3757610100808354040283529160200191611d62565b820191906000526020600020905b815481529060010190602001808311611d4557829003601f168201915b5050509183525050601091909101546001600160a01b031660209091015292915050565b60cd5460408051808201909152600b81526a4e4f545f5345525649434560a81b6020820152906001600160a01b03163314611dd45760405162461bcd60e51b81526004016108649190614b3f565b5060e2546040805180820190915260088152671310555390d2115160c21b60208201529060ff1615611e195760405162461bcd60e51b81526004016108649190614b3f565b5060e2805460ff19166001179055611e30866135ad565b60cd60009054906101000a90046001600160a01b03166001600160a01b031663cb7e90576040518163ffffffff1660e01b8152600401602060405180830381865afa158015611e83573d6000803e3d6000fd5b505050506040513d601f19601f82011682018060405250810190611ea791906155b9565b6001600160a01b03166341a453e1868686866040518563ffffffff1660e01b8152600401611ed8949392919061591b565b602060405180830381865afa158015611ef5573d6000803e3d6000fd5b505050506040513d601f19601f82011682018060405250810190611f199190615715565b5060d1611f268282615656565b5060ce85905560cf84905560d0839055611f4360d783600a6149cc565b50505050505050565b600081815260c9602090815260408083208151610240810183528154815260018201548185015260028201805484518187028101870186528181528796939586019390929190830182828015611fcb57602002820191906000526020600020905b81546001600160a01b03168152600190910190602001808311611fad575b505050505081526020016003820180548060200260200160405190810160405280929190818152602001828054801561202357602002820191906000526020600020905b81548152602001906001019080831161200f575b5050505050815260200160048201805461203c906155d6565b80601f0160208091040260200160405190810160405280929190818152602001828054612068906155d6565b80156120b55780601f1061208a576101008083540402835291602001916120b5565b820191906000526020600020905b81548152906001019060200180831161209857829003601f168201915b505050918352505060058201546020820152600682015460408201526007820154606082015260088201546080820152600982015460ff808216151560a084015260c09092019161010090910416600381111561211457612114615177565b600381111561212557612125615177565b8152602001600a82018054612139906155d6565b80601f0160208091040260200160405190810160405280929190818152602001828054612165906155d6565b80156121b25780601f10612187576101008083540402835291602001916121b2565b820191906000526020600020905b81548152906001019060200180831161219557829003601f168201915b5050509183525050600b8201546020820152600c8201546040820152600d82015460609091019060ff1660048111156121ed576121ed615177565b60048111156121fe576121fe615177565b8152602001600e8201548152602001600f8201805461221c906155d6565b80601f0160208091040260200160405190810160405280929190818152602001828054612248906155d6565b80156122955780601f1061226a57610100808354040283529160200191612295565b820191906000526020600020905b81548152906001019060200180831161227857829003601f168201915b5050509183525050601091909101546001600160a01b0316602090910152610120810151909150156122ca5750600492915050565b8060a001516000036122df5750600092915050565b600381610140015160038111156122f8576122f8615177565b036123065750600592915050565b6000612310613f84565b612318614007565b6123229190615789565b82519091506000906123349083615904565b905060008361010001518460e0015161234d9190615840565b9050600061235d828487876117f7565b9050600081600581111561237357612373615177565b14612382579695505050505050565b8460c001514311156123db578282101580156123bc575060208501516123a89083615904565b60e08601516123b990612710615904565b10155b156123ce575060039695505050505050565b5060029695505050505050565b5060019695505050505050565b60d680546108df906155d6565b600082815260c960209081526040808320815161024081018352815481526001820154818501526002820180548451818702810187018652818152879693958601939092919083018282801561247457602002820191906000526020600020905b81546001600160a01b03168152600190910190602001808311612456575b50505050508152602001600382018054806020026020016040519081016040528092919081815260200182805480156124cc57602002820191906000526020600020905b8154815260200190600101908083116124b8575b505050505081526020016004820180546124e5906155d6565b80601f0160208091040260200160405190810160405280929190818152602001828054612511906155d6565b801561255e5780601f106125335761010080835404028352916020019161255e565b820191906000526020600020905b81548152906001019060200180831161254157829003601f168201915b505050918352505060058201546020820152600682015460408201526007820154606082015260088201546080820152600982015460ff808216151560a084015260c0909201916101009091041660038111156125bd576125bd615177565b60038111156125ce576125ce615177565b8152602001600a820180546125e2906155d6565b80601f016020809104026020016040519081016040528092919081815260200182805461260e906155d6565b801561265b5780601f106126305761010080835404028352916020019161265b565b820191906000526020600020905b81548152906001019060200180831161263e57829003601f168201915b5050509183525050600b8201546020820152600c8201546040820152600d82015460609091019060ff16600481111561269657612696615177565b60048111156126a7576126a7615177565b8152602001600e8201548152602001600f820180546126c5906155d6565b80601f01602080910402602001604051908101604052809291908181526020018280546126f1906155d6565b801561273e5780601f106127135761010080835404028352916020019161273e565b820191906000526020600020905b81548152906001019060200180831161272157829003601f168201915b505050505081526020016010820160009054906101000a90046001600160a01b03166001600160a01b03166001600160a01b0316815250509050600080866001600160a01b031663476aa1ea846101c0015160048111156127a1576127a1615177565b6127ac906001615840565b6040518263ffffffff1660e01b81526004016127ca91815260200190565b602060405180830381865afa1580156127e7573d6000803e3d6000fd5b505050506040513d601f19601f8201168201806040525081019061280b919061575a565b90506001836101c00151600481111561282657612826615177565b148061284857506002836101c00151600481111561284657612846615177565b145b15612cbd576000876001600160a01b031663d598d4c96040518163ffffffff1660e01b8152600401602060405180830381865afa15801561288d573d6000803e3d6000fd5b505050506040513d601f19601f820116820180604052508101906128b191906155b9565b6001600160a01b0316633a6596bd6040518163ffffffff1660e01b8152600401602060405180830381865afa1580156128ee573d6000803e3d6000fd5b505050506040513d601f19601f8201168201806040525081019061291291906155b9565b905060008460600151878151811061292c5761292c61582a565b602002602001015190506002600481111561294957612949615177565b856101c00151600481111561296057612960615177565b0361296e5784610220015191505b886001600160a01b031663d598d4c96040518163ffffffff1660e01b8152600401602060405180830381865afa1580156129ac573d6000803e3d6000fd5b505050506040513d601f19601f820116820180604052508101906129d091906155b9565b6001600160a01b0316634db4a3526040518163ffffffff1660e01b8152600401602060405180830381865afa158015612a0d573d6000803e3d6000fd5b505050506040513d601f19601f82011682018060405250810190612a3191906155b9565b6001600160a01b031663cdca175383610bb88c6001600160a01b031663d598d4c96040518163ffffffff1660e01b8152600401602060405180830381865afa158015612a81573d6000803e3d6000fd5b505050506040513d601f19601f82011682018060405250810190612aa591906155b9565b6001600160a01b031663e58d777a6040518163ffffffff1660e01b8152600401602060405180830381865afa158015612ae2573d6000803e3d6000fd5b505050506040513d601f19601f82011682018060405250810190612b0691906155b9565b604051606093841b6bffffffffffffffffffffffff19908116602083015260e89390931b6001600160e81b0319166034820152921b166037820152604b01604051602081830303815290604052836040518363ffffffff1660e01b8152600401612b719291906158c9565b6020604051808303816000875af1925050508015612bac575060408051601f3d908101601f19168201909252612ba99181019061575a565b60015b612c1d573d808015612bda576040519150601f19603f3d011682016040523d82523d6000602084013e612bdf565b606091505b507fd563681fb91425dcf80355c43ba21b499735e439376274fa5ceadfc8ea9bbd9881604051612c0f9190614b3f565b60405180910390a150612c20565b93505b6040516323b550f560e11b8152600060048201526001600160a01b038a169063476aa1ea90602401602060405180830381865afa158015612c65573d6000803e3d6000fd5b505050506040513d601f19601f82011682018060405250810190612c89919061575a565b8410158015612ca757506101a0850151612ca39084615840565b4311155b15612cba57600095505050505050612d27565b50505b6003836101c001516004811115612cd657612cd6615177565b1480612cf857506004836101c001516004811115612cf657612cf6615177565b145b15612d1f576101a0830151612d0d9082615840565b4311612d1f5760009350505050612d27565b600193505050505b9392505050565b6001600090815260e36020908152600080516020615a27833981519152546040805163d04d79b560e01b815290516001600160a01b039092169263d04d79b5926004808401938290030181865afa158015612d8d573d6000803e3d6000fd5b505050506040513d601f19601f820116820180604052508101906110169190615715565b60cd54604080516304e31dfb60e01b815290516000926001600160a01b0316916304e31dfb9160048083019260209291908290030181865afa158015612dfb573d6000803e3d6000fd5b505050506040513d601f19601f82011682018060405250810190612e1f91906155b9565b6001600160a01b0316336001600160a01b0316146040518060400160405280600e81526020016d2727aa2fa224a9a820aa21a422a960911b81525090612e785760405162461bcd60e51b81526004016108649190614b3f565b50612e816135ff565b60e25460408051808201909152600c81526b1393d517d310555390d2115160a21b60208201529060ff16612ec85760405162461bcd60e51b81526004016108649190614b3f565b50604080516001808252818301909252600091602080830190803683370190505090508781600081518110612eff57612eff61582a565b6001600160a01b0392909216602092830291909101909101526040805160018082528183019092526000918160200160208202803683370190505090508781600081518110612f5057612f5061582a565b602090810291909101015260d05460ce5460cf546130fc92919085858c8c60e360006001815260208082019290925260409081016000205460cd54825163803db96d60e01b815292516001600160a01b03928316946370a0823194929093169263803db96d92600480820193918290030181865afa158015612fd6573d6000803e3d6000fd5b505050506040513d601f19601f82011682018060405250810190612ffa91906155b9565b6040516001600160e01b031960e084901b1681526001600160a01b039091166004820152602401602060405180830381865afa15801561303e573d6000803e3d6000fd5b505050506040513d601f19601f82011682018060405250810190613062919061575a565b61306a613f84565b613072614007565b61307c9190615789565b6130869190615789565b60cd546040516323b550f560e11b8152600160048201526001600160a01b039091169063476aa1ea90602401602060405180830381865afa1580156130cf573d6000803e3d6000fd5b505050506040513d601f19601f820116820180604052508101906130f3919061575a565b8e8e6000614066565b9998505050505050505050565b613111614306565b6001600160a01b0381166131765760405162461bcd60e51b815260206004820152602660248201527f4f776e61626c653a206e6577206f776e657220697320746865207a65726f206160448201526564647265737360d01b6064820152608401610864565b610a00816135ad565b6131876143a2565b61318f6135ff565b60e25460408051808201909152600c81526b1393d517d310555390d2115160a21b60208201529060ff166131d65760405162461bcd60e51b81526004016108649190614b3f565b50600019820361327557600160005260e36020908152600080516020615a27833981519152546040805163468b3b3360e01b81523360048201526024810187905290516001600160a01b039092169263468b3b33926044808401938290030181865afa15801561324a573d6000803e3d6000fd5b505050506040513d601f19601f8201168201806040525081019061326e919061575a565b9150613353565b600160005260e36020908152600080516020615a27833981519152546040805163468b3b3360e01b81523360048201526024810187905290516001600160a01b039092169263468b3b33926044808401938290030181865afa1580156132df573d6000803e3d6000fd5b505050506040513d601f19601f82011682018060405250810190613303919061575a565b821115604051806040016040528060148152602001734c4f575f554e4c4f434b45445f42414c414e434560601b815250906133515760405162461bcd60e51b81526004016108649190614b3f565b505b60408051808201909152600a81526956414c55455f5a45524f60b01b6020820152826133925760405162461bcd60e51b81526004016108649190614b3f565b5061339e8383836143fb565b600160005260e3602052600080516020615a27833981519152546001600160a01b031663c97be18033846133d187611a13565b60c001516040516001600160e01b031960e086901b1681526001600160a01b0390931660048401526024830191909152604482015260648101869052608401600060405180830381600087803b15801561342a57600080fd5b505af115801561343e573d6000803e3d6000fd5b5050505061344c6001606555565b505050565b600161345c82611f4c565b600581111561346d5761346d615177565b14806134925750600361347f82611f4c565b600581111561349057613490615177565b145b6040518060400160405280600b81526020016a57524f4e475f535441544560a81b815250906134d45760405162461bcd60e51b81526004016108649190614b3f565b50600081815260c96020908152604091829020600901805461030061ff001990911617905590518281527f416e669c63d9a3a5e36ee7cc7e2104b8db28ccd286aa18966e98fa230c73b08c910160405180910390a150565b6135346145a4565b6097805460ff191690557f5db9ee0a495bf2e6ff9c91a7834c1ba4fdd244a5e8aa4e537bd38aeae4b073aa335b6040516001600160a01b03909116815260200160405180910390a1565b600054610100900460ff166135a55760405162461bcd60e51b81526004016108649061593e565b610adf6145ef565b603380546001600160a01b038381166001600160a01b0319831681179093556040519116919082907f8be0079c531659141344cd1fd0a4f28419497f9722a3daafe3b4186f6b6457e090600090a35050565b613607611008565b15610adf5760405162461bcd60e51b815260206004820152601060248201526f14185d5cd8589b194e881c185d5cd95960821b6044820152606401610864565b600082815260c960209081526040808320815161024081018352815481526001820154818501526002820180548451818702810187018652818152929593948601938301828280156136c257602002820191906000526020600020905b81546001600160a01b031681526001909101906020018083116136a4575b505050505081526020016003820180548060200260200160405190810160405280929190818152602001828054801561371a57602002820191906000526020600020905b815481526020019060010190808311613706575b50505050508152602001600482018054613733906155d6565b80601f016020809104026020016040519081016040528092919081815260200182805461375f906155d6565b80156137ac5780601f10613781576101008083540402835291602001916137ac565b820191906000526020600020905b81548152906001019060200180831161378f57829003601f168201915b505050918352505060058201546020820152600682015460408201526007820154606082015260088201546080820152600982015460ff808216151560a084015260c09092019161010090910416600381111561380b5761380b615177565b600381111561381c5761381c615177565b8152602001600a82018054613830906155d6565b80601f016020809104026020016040519081016040528092919081815260200182805461385c906155d6565b80156138a95780601f1061387e576101008083540402835291602001916138a9565b820191906000526020600020905b81548152906001019060200180831161388c57829003601f168201915b5050509183525050600b8201546020820152600c8201546040820152600d82015460609091019060ff1660048111156138e4576138e4615177565b60048111156138f5576138f5615177565b8152602001600e8201548152602001600f82018054613913906155d6565b80601f016020809104026020016040519081016040528092919081815260200182805461393f906155d6565b801561398c5780601f106139615761010080835404028352916020019161398c565b820191906000526020600020905b81548152906001019060200180831161396f57829003601f168201915b5050509183525050601091909101546001600160a01b0316602090910152905060036139b784611f4c565b60058111156139c8576139c8615177565b146040518060400160405280600b81526020016a57524f4e475f535441544560a81b81525090613a0b5760405162461bcd60e51b81526004016108649190614b3f565b5060008084815260c96020526040902060090154610100900460ff166003811115613a3857613a38615177565b146040518060400160405280601081526020016f1053149150511657d1561150d555115160821b81525090613a805760405162461bcd60e51b81526004016108649190614b3f565b508060c001514310613aec57806101e001518160c00151613aa19190615840565b4310156040518060400160405280600b81526020016a424c4f434b5f44454c415960a81b81525090613ae65760405162461bcd60e51b81526004016108649190614b3f565b50613b49565b806101e00151816101a00151613b029190615840565b4310156040518060400160405280600b81526020016a424c4f434b5f44454c415960a81b81525090613b475760405162461bcd60e51b81526004016108649190614b3f565b505b600083815260c960205260408120600901805460ff19166001179055805b826040015151811015613d3857613b7f3086836123f5565b6040518060400160405280600b81526020016a424c4f434b5f44454c415960a81b81525090613bc15760405162461bcd60e51b81526004016108649190614b3f565b506002836101c001516004811115613bdb57613bdb615177565b14613cc95782604001518181518110613bf657613bf661582a565b60200260200101516001600160a01b031683606001518281518110613c1d57613c1d61582a565b60200260200101518460800151604051613c379190615989565b60006040518083038185875af1925050503d8060008114613c74576040519150601f19603f3d011682016040523d82523d6000602084013e613c79565b606091505b505060408051808201909152601081526f11561150d5551253d397d1905253115160821b602082015290925082613cc35760405162461bcd60e51b81526004016108649190614b3f565b50613d26565b613d2683604001518281518110613ce257613ce261582a565b602002602001015184606001518381518110613d0057613d0061582a565b60200260200101518561022001516001600160a01b031661461f9092919063ffffffff16565b80613d30816158eb565b915050613b67565b506001826101c001516004811115613d5257613d52615177565b03613dc05761020082015160405163b677bc6960e01b81526001600160a01b0385169163b677bc6991613d8d916001918991906004016159a5565b600060405180830381600087803b158015613da757600080fd5b505af1158015613dbb573d6000803e3d6000fd5b505050505b6002826101c001516004811115613dd957613dd9615177565b03613e475761020082015160405163b677bc6960e01b81526001600160a01b0385169163b677bc6991613e14916002918991906004016159a5565b600060405180830381600087803b158015613e2e57600080fd5b505af1158015613e42573d6000803e3d6000fd5b505050505b6003826101c001516004811115613e6057613e60615177565b03613ece5761020082015160405163b677bc6960e01b81526001600160a01b0385169163b677bc6991613e9b916003918991906004016159a5565b600060405180830381600087803b158015613eb557600080fd5b505af1158015613ec9573d6000803e3d6000fd5b505050505b6004826101c001516004811115613ee757613ee7615177565b03613f545761020082015160405163b677bc6960e01b81526001600160a01b0385169163b677bc6991613f219160049189919083016159a5565b600060405180830381600087803b158015613f3b57600080fd5b505af1158015613f4f573d6000803e3d6000fd5b505050505b6040518481527f712ae1383f79ac853f8d882153778e0260ef8f03b504e2866e0593e04d2b291f90602001610ffa565b6001600090815260e36020908152600080516020615a27833981519152546040805163d554934b60e01b815290516001600160a01b039092169263d554934b926004808401938290030181865afa158015613fe3573d6000803e3d6000fd5b505050506040513d601f19601f82011682018060405250810190611016919061575a565b6001600090815260e36020908152600080516020615a2783398151915254604080516318160ddd60e01b815290516001600160a01b03909216926318160ddd926004808401938290030181865afa158015613fe3573d6000803e3d6000fd5b600060cc60008154614077906158eb565b91905081905590506040518061024001604052808d81526020018c81526020018b81526020018a81526020018981526020014381526020018e436140bb9190615840565b81526020016000815260200160008152602001600015158152602001600060038111156140ea576140ea615177565b81526020018881526020018781526020016000815260200185600481111561411457614114615177565b8152602080820188905260408083018790526001600160a01b038616606090930192909252600084815260c982528290208351815583820151600182015591830151805161416892600285019201906149fa565b5060608201518051614184916003840191602090910190614a4f565b50608082015160048201906141999082615656565b5060a0820151600582015560c0820151600682015560e0820151600782015561010080830151600883015561012083015160098301805491151560ff1983168117825561014086015193919261ff001990911661ffff19909116179083600381111561420757614207615177565b0217905550610160820151600a8201906142219082615656565b50610180820151600b8201556101a0820151600c8201556101c0820151600d8201805460ff1916600183600481111561425c5761425c615177565b02179055506101e0820151600e820155610200820151600f8201906142819082615656565b506102209190910151601090910180546001600160a01b0319166001600160a01b039092169190911790556142b581614671565b7fb65276295c8836e61205070fc79a77f98853929453c317f5d31389290b2acc3d818d8c8c8c8c6040516142ee969594939291906159cd565b60405180910390a19c9b505050505050505050505050565b3361430f611425565b6001600160a01b031614610adf5760405162461bcd60e51b815260206004820181905260248201527f4f776e61626c653a2063616c6c6572206973206e6f7420746865206f776e65726044820152606401610864565b61436d6135ff565b6097805460ff191660011790557f62e78cea01bee320cd4e420270b5ea74000d11b0c9f74754ebdbfc544b05a2586135613390565b6002606554036143f45760405162461bcd60e51b815260206004820152601f60248201527f5265656e7472616e637947756172643a207265656e7472616e742063616c6c006044820152606401610864565b6002606555565b4360c9600085815260200190815260200160002060060154116040518060400160405280600f81526020016e1593d5125391d7d192539254d21151608a1b8152509061445a5760405162461bcd60e51b81526004016108649190614b3f565b5080156144bc57600083815260c9602052604081206007018054849290614482908490615840565b909155505033600090815260ca60209081526040808320868452909152812080548492906144b1908490615840565b909155506145129050565b600083815260c96020526040812060080180548492906144dd908490615840565b909155505033600090815260cb602090815260408083208684529091528120805484929061450c908490615840565b90915550505b600083815260c96020526040902043600c9091015561452f613f84565b614537614007565b6145419190615789565b600084815260c96020908152604091829020600b01929092558051338152918201859052810183905281151560608201527f2c48deccc79dbba942eeb2f991c4bfa0ac136723ddc0ea1b575dd85373408df89060800160405180910390a1505050565b6145ac611008565b610adf5760405162461bcd60e51b815260206004820152601460248201527314185d5cd8589b194e881b9bdd081c185d5cd95960621b6044820152606401610864565b600054610100900460ff166146165760405162461bcd60e51b81526004016108649061593e565b610adf336135ad565b604080516001600160a01b038416602482015260448082018490528251808303909101815260649091019091526020810180516001600160e01b031663a9059cbb60e01b17905261344c9084906146d2565b60cd54604051630ffb246960e21b8152600481018390526001600160a01b0390911690633fec91a490602401600060405180830381600087803b1580156146b757600080fd5b505af11580156146cb573d6000803e3d6000fd5b5050505050565b6000614727826040518060400160405280602081526020017f5361666545524332303a206c6f772d6c6576656c2063616c6c206661696c6564815250856001600160a01b03166147a49092919063ffffffff16565b80519091501561344c57808060200190518101906147459190615715565b61344c5760405162461bcd60e51b815260206004820152602a60248201527f5361666545524332303a204552433230206f7065726174696f6e20646964206e6044820152691bdd081cdd58d8d9595960b21b6064820152608401610864565b60606118cb848460008585600080866001600160a01b031685876040516147cb9190615989565b60006040518083038185875af1925050503d8060008114614808576040519150601f19603f3d011682016040523d82523d6000602084013e61480d565b606091505b509150915061132c8783838760608315614888578251600003614881576001600160a01b0385163b6148815760405162461bcd60e51b815260206004820152601d60248201527f416464726573733a2063616c6c20746f206e6f6e2d636f6e74726163740000006044820152606401610864565b50816118cb565b6118cb838381511561489d5781518083602001fd5b8060405162461bcd60e51b81526004016108649190614b3f565b82600a81019282156148e5579160200282015b828111156148e55782358255916020019190600101906148ca565b506148f1929150614a89565b5090565b604051806101400160405280600a906020820280368337509192915050565b6040518061024001604052806000815260200160008152602001606081526020016060815260200160608152602001600081526020016000815260200160008152602001600081526020016000151581526020016000600381111561497b5761497b615177565b8152602001606081526020016000815260200160008152602001600060048111156149a8576149a8615177565b8152602001600081526020016060815260200160006001600160a01b031681525090565b82600a81019282156148e5579160200282015b828111156148e55782518255916020019190600101906149df565b8280548282559060005260206000209081019282156148e5579160200282015b828111156148e557825182546001600160a01b0319166001600160a01b03909116178255602090920191600190910190614a1a565b8280548282559060005260206000209081019282156148e557916020028201828111156148e55782518255916020019190600101906149df565b5b808211156148f15760008155600101614a8a565b6001600160a01b0381168114610a0057600080fd5b8035614abe81614a9e565b919050565b60008060408385031215614ad657600080fd5b8235614ae181614a9e565b946020939093013593505050565b60005b83811015614b0a578181015183820152602001614af2565b50506000910152565b60008151808452614b2b816020860160208601614aef565b601f01601f19169290920160200192915050565b602081526000612d276020830184614b13565b600060208284031215614b6457600080fd5b5035919050565b634e487b7160e01b600052604160045260246000fd5b60405161024081016001600160401b0381118282101715614ba457614ba4614b6b565b60405290565b60405161014081016001600160401b0381118282101715614ba457614ba4614b6b565b604051601f8201601f191681016001600160401b0381118282101715614bf557614bf5614b6b565b604052919050565b60006001600160401b03821115614c1657614c16614b6b565b50601f01601f191660200190565b600082601f830112614c3557600080fd5b8135614c48614c4382614bfd565b614bcd565b818152846020838601011115614c5d57600080fd5b816020850160208301376000918101602001919091529392505050565b600080600080600060a08688031215614c9257600080fd5b8535945060208601356001600160401b0380821115614cb057600080fd5b614cbc89838a01614c24565b95506040880135915080821115614cd257600080fd5b50614cdf88828901614c24565b9598949750949560608101359550608001359392505050565b6000806000806101a0808688031215614d1057600080fd5b853594506020860135935060408601359250868187011115614d3157600080fd5b509295919450926060019150565b60006001600160401b03821115614d5857614d58614b6b565b5060051b60200190565b600082601f830112614d7357600080fd5b81356020614d83614c4383614d3f565b82815260059290921b84018101918181019086841115614da257600080fd5b8286015b84811015614dc6578035614db981614a9e565b8352918301918301614da6565b509695505050505050565b600082601f830112614de257600080fd5b81356020614df2614c4383614d3f565b82815260059290921b84018101918181019086841115614e1157600080fd5b8286015b84811015614dc65780358352918301918301614e15565b803560058110614abe57600080fd5b60008060008060008060c08789031215614e5457600080fd5b86356001600160401b0380821115614e6b57600080fd5b614e778a838b01614d62565b97506020890135915080821115614e8d57600080fd5b614e998a838b01614dd1565b96506040890135915080821115614eaf57600080fd5b614ebb8a838b01614c24565b9550614ec960608a01614e2c565b94506080890135915080821115614edf57600080fd5b50614eec89828a01614c24565b925050614efb60a08801614ab3565b90509295509295509295565b600060208284031215614f1957600080fd5b8135612d2781614a9e565b803560038110614abe57600080fd5b600060208284031215614f4557600080fd5b612d2782614f24565b8060005b600a811015614f71578151845260209384019390910190600101614f52565b50505050565b61014081016110408284614f4e565b8015158114610a0057600080fd5b8035614abe81614f86565b803560048110614abe57600080fd5b60008060008060808587031215614fc457600080fd5b843593506020850135925060408501356001600160401b0380821115614fe957600080fd5b908601906102408289031215614ffe57600080fd5b615006614b81565b823581526020830135602082015260408301358281111561502657600080fd5b6150328a828601614d62565b60408301525060608301358281111561504a57600080fd5b6150568a828601614dd1565b60608301525060808301358281111561506e57600080fd5b61507a8a828601614c24565b60808301525060a083013560a082015260c083013560c082015260e083013560e08201526101008084013581830152506101206150b8818501614f94565b908201526101406150ca848201614f9f565b9082015261016083810135838111156150e257600080fd5b6150ee8b828701614c24565b8284015250506101808084013581830152506101a08084013581830152506101c061511a818501614e2c565b908201526101e08381013590820152610200808401358381111561513d57600080fd5b6151498b828701614c24565b828401525050610220915061515f828401614ab3565b91810191909152949793965093946060013593505050565b634e487b7160e01b600052602160045260246000fd5b60208101600683106151a1576151a1615177565b91905290565b600080604083850312156151ba57600080fd5b82356151c581614a9e565b91506151d360208401614f24565b90509250929050565b600081518084526020808501945080840160005b838110156152155781516001600160a01b0316875295820195908201906001016151f0565b509495945050505050565b600081518084526020808501945080840160005b8381101561521557815187529582019590820190600101615234565b6004811061526057615260615177565b9052565b60058110610a0057610a00615177565b61526081615264565b602081528151602082015260208201516040820152600060408301516102408060608501526152b06102608501836151dc565b91506060850151601f19808685030160808701526152ce8483615220565b935060808701519150808685030160a08701526152eb8483614b13565b935060a087015160c087015260c087015160e087015260e087015191506101008281880152808801519250506101208281880152808801519250506101406153368188018415159052565b870151915061016061534a87820184615250565b808801519250506101808187860301818801526153678584614b13565b908801516101a0888101919091528801516101c08089019190915288015190945091506101e061539981880184615274565b808801519250506102008281880152808801519250506102208187860301818801526153c58584614b13565b945080880151925050506153e3828601826001600160a01b03169052565b5090949350505050565b6000806000806000806101e0878903121561540757600080fd5b863561541281614a9e565b955060208781013595506040880135945060608801359350609f8801891361543957600080fd5b615441614baa565b806101c08a018b81111561545457600080fd5b60808b015b818110156154705780358452928401928401615459565b50909450359150506001600160401b0381111561548c57600080fd5b61549889828a01614c24565b9150509295509295509295565b6000806000606084860312156154ba57600080fd5b83356154c581614a9e565b95602085013595506040909401359392505050565b60008060008060008060c087890312156154f357600080fd5b86356154fe81614a9e565b95506020870135945060408701356001600160401b038082111561552157600080fd5b61552d8a838b01614c24565b9550606089013591508082111561554357600080fd5b61554f8a838b01614c24565b945061555d60808a01614e2c565b935060a089013591508082111561557357600080fd5b5061549889828a01614c24565b60008060006060848603121561559557600080fd5b833592506020840135915060408401356155ae81614f86565b809150509250925092565b6000602082840312156155cb57600080fd5b8151612d2781614a9e565b600181811c908216806155ea57607f821691505b60208210810361560a57634e487b7160e01b600052602260045260246000fd5b50919050565b601f82111561344c57600081815260208120601f850160051c810160208610156156375750805b601f850160051c820191505b81811015610ca257828155600101615643565b81516001600160401b0381111561566f5761566f614b6b565b6156838161567d84546155d6565b84615610565b602080601f8311600181146156b857600084156156a05750858301515b600019600386901b1c1916600185901b178555610ca2565b600085815260208120601f198616915b828110156156e7578886015182559484019460019091019084016156c8565b50858210156157055787850151600019600388901b60f8161c191681555b5050505050600190811b01905550565b60006020828403121561572757600080fd5b8151612d2781614f86565b84815260208101849052604081018390526101a0810161014083606084013795945050505050565b60006020828403121561576c57600080fd5b5051919050565b634e487b7160e01b600052601160045260246000fd5b8181038181111561104057611040615773565b600060208083850312156157af57600080fd5b82516001600160401b038111156157c557600080fd5b8301601f810185136157d657600080fd5b80516157e4614c4382614d3f565b81815260059190911b8201830190838101908783111561580357600080fd5b928401925b8284101561132c57835161581b81614a9e565b82529284019290840190615808565b634e487b7160e01b600052603260045260246000fd5b8082018082111561104057611040615773565b60006020828403121561586557600080fd5b81516001600160401b0381111561587b57600080fd5b8201601f8101841361588c57600080fd5b805161589a614c4382614bfd565b8181528560208385010111156158af57600080fd5b6158c0826020830160208601614aef565b95945050505050565b6040815260006158dc6040830185614b13565b90508260208301529392505050565b6000600182016158fd576158fd615773565b5060010190565b808202811582820484141761104057611040615773565b84815260208101849052604081018390526101a081016158c06060830184614f4e565b6020808252602b908201527f496e697469616c697a61626c653a20636f6e7472616374206973206e6f74206960408201526a6e697469616c697a696e6760a81b606082015260800190565b6000825161599b818460208701614aef565b9190910192915050565b6159ae84615264565b8381528260208201526060604082015260006158c06060830184614b13565b86815285602082015260c0604082015260006159ec60c08301876151dc565b82810360608401526159fe8187615220565b90508281036080840152615a128186614b13565b905082810360a08401526130fc8185614b1356fea71a5dc6523a2d0bf383648e732f9cbd05fb5cd75a9c44758106b038b320de36a26469706673582212205b59a3503b5c8705f4234ce5f7ba26b7ab74b76c4abbe5c350e0aa6aa5f2af2a64736f6c63430008110033",
  "linkReferences": {},
  "deployedLinkReferences": {}
}