{
  "_format": "hh-sol-artifact-1",
  "contractName": "ProposalGateway",
  "sourceName": "contracts/ProposalGateway.sol",
  "abi": [
    {
      "inputs": [],
      "stateMutability": "nonpayable",
      "type": "constructor"
    },
    {
      "anonymous": false,
      "inputs": [
        {
          "indexed": false,
          "internalType": "address",
          "name": "previousAdmin",
          "type": "address"
        },
        {
          "indexed": false,
          "internalType": "address",
          "name": "newAdmin",
          "type": "address"
        }
      ],
      "name": "AdminChanged",
      "type": "event"
    },
    {
      "anonymous": false,
      "inputs": [
        {
          "indexed": true,
          "internalType": "address",
          "name": "beacon",
          "type": "address"
        }
      ],
      "name": "BeaconUpgraded",
      "type": "event"
    },
    {
      "anonymous": false,
      "inputs": [
        {
          "indexed": false,
          "internalType": "uint8",
          "name": "version",
          "type": "uint8"
        }
      ],
      "name": "Initialized",
      "type": "event"
    },
    {
      "anonymous": false,
      "inputs": [
        {
          "indexed": true,
          "internalType": "address",
          "name": "previousOwner",
          "type": "address"
        },
        {
          "indexed": true,
          "internalType": "address",
          "name": "newOwner",
          "type": "address"
        }
      ],
      "name": "OwnershipTransferred",
      "type": "event"
    },
    {
      "anonymous": false,
      "inputs": [
        {
          "indexed": true,
          "internalType": "address",
          "name": "implementation",
          "type": "address"
        }
      ],
      "name": "Upgraded",
      "type": "event"
    },
    {
      "inputs": [
        {
          "internalType": "contract IPool",
          "name": "pool",
          "type": "address"
        },
        {
          "internalType": "uint256",
          "name": "ballotQuorumThreshold",
          "type": "uint256"
        },
        {
          "internalType": "uint256",
          "name": "ballotDecisionThreshold",
          "type": "uint256"
        },
        {
          "internalType": "uint256",
          "name": "ballotLifespan",
          "type": "uint256"
        },
        {
          "internalType": "uint256[10]",
          "name": "ballotExecDelay",
          "type": "uint256[10]"
        },
        {
          "internalType": "string",
          "name": "description",
          "type": "string"
        },
        {
          "internalType": "string",
          "name": "metaHash",
          "type": "string"
        }
      ],
      "name": "createGovernanceSettingsProposal",
      "outputs": [
        {
          "internalType": "uint256",
          "name": "proposalId",
          "type": "uint256"
        }
      ],
      "stateMutability": "nonpayable",
      "type": "function"
    },
    {
      "inputs": [
        {
          "internalType": "contract IPool",
          "name": "pool",
          "type": "address"
        },
        {
          "components": [
            {
              "internalType": "uint256",
              "name": "price",
              "type": "uint256"
            },
            {
              "internalType": "uint256",
              "name": "hardcap",
              "type": "uint256"
            },
            {
              "internalType": "uint256",
              "name": "softcap",
              "type": "uint256"
            },
            {
              "internalType": "uint256",
              "name": "minPurchase",
              "type": "uint256"
            },
            {
              "internalType": "uint256",
              "name": "maxPurchase",
              "type": "uint256"
            },
            {
              "internalType": "uint256",
              "name": "vestingPercent",
              "type": "uint256"
            },
            {
              "internalType": "uint256",
              "name": "vestingDuration",
              "type": "uint256"
            },
            {
              "internalType": "uint256",
              "name": "vestingTVL",
              "type": "uint256"
            },
            {
              "internalType": "uint256",
              "name": "duration",
              "type": "uint256"
            },
            {
              "internalType": "address[]",
              "name": "userWhitelist",
              "type": "address[]"
            },
            {
              "internalType": "address",
              "name": "unitOfAccount",
              "type": "address"
            },
            {
              "internalType": "uint256",
              "name": "lockupDuration",
              "type": "uint256"
            },
            {
              "internalType": "uint256",
              "name": "lockupTVL",
              "type": "uint256"
            }
          ],
          "internalType": "struct ITGE.TGEInfo",
          "name": "info",
          "type": "tuple"
        },
        {
          "internalType": "string",
          "name": "description",
          "type": "string"
        },
        {
          "internalType": "string",
          "name": "metaHash",
          "type": "string"
        },
        {
          "internalType": "string",
          "name": "metadataURI",
          "type": "string"
        },
        {
          "internalType": "enum IToken.TokenType",
          "name": "tokenType",
          "type": "uint8"
        },
        {
          "internalType": "string",
          "name": "tokenDescription",
          "type": "string"
        }
      ],
      "name": "createTGEProposal",
      "outputs": [
        {
          "internalType": "uint256",
          "name": "proposalId",
          "type": "uint256"
        }
      ],
      "stateMutability": "nonpayable",
      "type": "function"
    },
    {
      "inputs": [
        {
          "internalType": "contract IPool",
          "name": "pool",
          "type": "address"
        },
        {
          "internalType": "address",
          "name": "token",
          "type": "address"
        },
        {
          "internalType": "address[]",
          "name": "recipients",
          "type": "address[]"
        },
        {
          "internalType": "uint256[]",
          "name": "values",
          "type": "uint256[]"
        },
        {
          "internalType": "string",
          "name": "description",
          "type": "string"
        },
        {
          "internalType": "string",
          "name": "metaHash",
          "type": "string"
        }
      ],
      "name": "createTransferERC20Proposal",
      "outputs": [
        {
          "internalType": "uint256",
          "name": "proposalId",
          "type": "uint256"
        }
      ],
      "stateMutability": "nonpayable",
      "type": "function"
    },
    {
      "inputs": [
        {
          "internalType": "contract IPool",
          "name": "pool",
          "type": "address"
        },
        {
          "internalType": "address[]",
          "name": "recipients",
          "type": "address[]"
        },
        {
          "internalType": "uint256[]",
          "name": "values",
          "type": "uint256[]"
        },
        {
          "internalType": "string",
          "name": "description",
          "type": "string"
        },
        {
          "internalType": "string",
          "name": "metaHash",
          "type": "string"
        }
      ],
      "name": "createTransferETHProposal",
      "outputs": [
        {
          "internalType": "uint256",
          "name": "proposalId",
          "type": "uint256"
        }
      ],
      "stateMutability": "nonpayable",
      "type": "function"
    },
    {
      "inputs": [],
      "name": "dispatcher",
      "outputs": [
        {
          "internalType": "address",
          "name": "",
          "type": "address"
        }
      ],
      "stateMutability": "view",
      "type": "function"
    },
    {
      "inputs": [
        {
          "internalType": "address",
          "name": "dispatcher_",
          "type": "address"
        }
      ],
      "name": "initialize",
      "outputs": [],
      "stateMutability": "nonpayable",
      "type": "function"
    },
    {
      "inputs": [],
      "name": "owner",
      "outputs": [
        {
          "internalType": "address",
          "name": "",
          "type": "address"
        }
      ],
      "stateMutability": "view",
      "type": "function"
    },
    {
      "inputs": [],
      "name": "proxiableUUID",
      "outputs": [
        {
          "internalType": "bytes32",
          "name": "",
          "type": "bytes32"
        }
      ],
      "stateMutability": "view",
      "type": "function"
    },
    {
      "inputs": [],
      "name": "renounceOwnership",
      "outputs": [],
      "stateMutability": "nonpayable",
      "type": "function"
    },
    {
      "inputs": [
        {
          "internalType": "address",
          "name": "newOwner",
          "type": "address"
        }
      ],
      "name": "transferOwnership",
      "outputs": [],
      "stateMutability": "nonpayable",
      "type": "function"
    },
    {
      "inputs": [
        {
          "internalType": "address",
          "name": "newImplementation",
          "type": "address"
        }
      ],
      "name": "upgradeTo",
      "outputs": [],
      "stateMutability": "nonpayable",
      "type": "function"
    },
    {
      "inputs": [
        {
          "internalType": "address",
          "name": "newImplementation",
          "type": "address"
        },
        {
          "internalType": "bytes",
          "name": "data",
          "type": "bytes"
        }
      ],
      "name": "upgradeToAndCall",
      "outputs": [],
      "stateMutability": "payable",
      "type": "function"
    }
  ],
  "bytecode": "0x60a06040523060805234801561001457600080fd5b5061001d610022565b6100e2565b600054610100900460ff161561008e5760405162461bcd60e51b815260206004820152602760248201527f496e697469616c697a61626c653a20636f6e747261637420697320696e697469604482015266616c697a696e6760c81b606482015260840160405180910390fd5b60005460ff90811610156100e0576000805460ff191660ff9081179091556040519081527f7f26b83ff96e1f2b6a682f133852f6798a09c465da95921460cefb38474024989060200160405180910390a15b565b60805161242f6200011a600039600081816109390152818161097901528181610a1801528181610a580152610aeb015261242f6000f3fe6080604052600436106100a75760003560e01c8063715018a611610064578063715018a6146101695780638da5cb5b1461017e578063a5f0d2d2146101b0578063c4d66de8146101d0578063cb7e9057146101f0578063f2fde38b1461021057600080fd5b806315a8c737146100ac5780632cfa3b90146100df5780633659cfe6146100ff5780634f1ef2861461012157806352d1902d146101345780635fa846c514610149575b600080fd5b3480156100b857600080fd5b506100cc6100c73660046119b6565b610230565b6040519081526020015b60405180910390f35b3480156100eb57600080fd5b506100cc6100fa366004611ab3565b61067b565b34801561010b57600080fd5b5061011f61011a366004611b6d565b61092f565b005b61011f61012f366004611b8a565b610a0e565b34801561014057600080fd5b506100cc610ade565b34801561015557600080fd5b506100cc610164366004611ce1565b610b91565b34801561017557600080fd5b5061011f610e7d565b34801561018a57600080fd5b506033546001600160a01b03165b6040516001600160a01b0390911681526020016100d6565b3480156101bc57600080fd5b506100cc6101cb366004611dae565b610e91565b3480156101dc57600080fd5b5061011f6101eb366004611b6d565b61117d565b3480156101fc57600080fd5b5060c954610198906001600160a01b031681565b34801561021c57600080fd5b5061011f61022b366004611b6d565b6112fc565b6000896000816001600160a01b031663fc0c546a6040518163ffffffff1660e01b8152600401602060405180830381865afa158015610273573d6000803e3d6000fd5b505050506040513d601f19601f820116820180604052508101906102979190611e6e565b6040516370a0823160e01b81523360048201526001600160a01b0391909116906370a0823190602401602060405180830381865afa1580156102dd573d6000803e3d6000fd5b505050506040513d601f19601f820116820180604052508101906103019190611e8b565b116040518060400160405280600f81526020016e2727aa2fa9a420a922a427a62222a960891b815250906103515760405162461bcd60e51b81526004016103489190611ef4565b60405180910390fd5b50806001600160a01b031663e47bfee86040518163ffffffff1660e01b8152600401602060405180830381865afa158015610390573d6000803e3d6000fd5b505050506040513d601f19601f820116820180604052508101906103b49190611f07565b604051806040016040528060078152602001664e4f545f44414f60c81b815250906103f25760405162461bcd60e51b81526004016103489190611ef4565b5060c960009054906101000a90046001600160a01b03166001600160a01b0316637c8478a18b8d6001600160a01b031663fc0c546a6040518163ffffffff1660e01b8152600401602060405180830381865afa158015610456573d6000803e3d6000fd5b505050506040513d601f19601f8201168201806040525081019061047a9190611e6e565b6040518363ffffffff1660e01b8152600401610497929190612075565b602060405180830381865afa1580156104b4573d6000803e3d6000fd5b505050506040513d601f19601f820116820180604052508101906104d89190611f07565b508a6001600160a01b031663f27603838c6001600160a01b031663d598d4c96040518163ffffffff1660e01b8152600401602060405180830381865afa158015610526573d6000803e3d6000fd5b505050506040513d601f19601f8201168201806040525081019061054a9190611e6e565b600063223ecade60e01b8e8a8a8a60405160240161056b94939291906120b5565b604051602081830303815290604052906001600160e01b0319166020820180516001600160e01b0383818316178352505050508d8d60038e8e6040518963ffffffff1660e01b81526004016105c798979695949392919061214c565b6020604051808303816000875af11580156105e6573d6000803e3d6000fd5b505050506040513d601f19601f8201168201806040525081019061060a9190611e8b565b6040516303f27b8760e01b8152336004820152602481018290529092506001600160a01b038c16906303f27b8790604401600060405180830381600087803b15801561065557600080fd5b505af1158015610669573d6000803e3d6000fd5b50505050509998505050505050505050565b6000896000816001600160a01b031663fc0c546a6040518163ffffffff1660e01b8152600401602060405180830381865afa1580156106be573d6000803e3d6000fd5b505050506040513d601f19601f820116820180604052508101906106e29190611e6e565b6040516370a0823160e01b81523360048201526001600160a01b0391909116906370a0823190602401602060405180830381865afa158015610728573d6000803e3d6000fd5b505050506040513d601f19601f8201168201806040525081019061074c9190611e8b565b116040518060400160405280600f81526020016e2727aa2fa9a420a922a427a62222a960891b815250906107935760405162461bcd60e51b81526004016103489190611ef4565b50806001600160a01b031663e47bfee86040518163ffffffff1660e01b8152600401602060405180830381865afa1580156107d2573d6000803e3d6000fd5b505050506040513d601f19601f820116820180604052508101906107f69190611f07565b604051806040016040528060078152602001664e4f545f44414f60c81b815250906108345760405162461bcd60e51b81526004016103489190611ef4565b5060c9546040516341a453e160e01b81526001600160a01b03909116906341a453e19061086b908d908d908d908d906004016121b7565b602060405180830381865afa158015610888573d6000803e3d6000fd5b505050506040513d601f19601f820116820180604052508101906108ac9190611f07565b508a6001600160a01b031663f27603838c600063515f723c60e01b8e8e8e8e6040516024016108de94939291906121b7565b60408051601f198184030181529181526020820180516001600160e01b03166001600160e01b03199485161790525160e086901b90921682526105c79392918c908c906004908d908d90830161214c565b6001600160a01b037f00000000000000000000000000000000000000000000000000000000000000001630036109775760405162461bcd60e51b8152600401610348906121df565b7f00000000000000000000000000000000000000000000000000000000000000006001600160a01b03166109c06000805160206123b3833981519152546001600160a01b031690565b6001600160a01b0316146109e65760405162461bcd60e51b81526004016103489061222b565b6109ef81611372565b60408051600080825260208201909252610a0b9183919061137a565b50565b6001600160a01b037f0000000000000000000000000000000000000000000000000000000000000000163003610a565760405162461bcd60e51b8152600401610348906121df565b7f00000000000000000000000000000000000000000000000000000000000000006001600160a01b0316610a9f6000805160206123b3833981519152546001600160a01b031690565b6001600160a01b031614610ac55760405162461bcd60e51b81526004016103489061222b565b610ace82611372565b610ada8282600161137a565b5050565b6000306001600160a01b037f00000000000000000000000000000000000000000000000000000000000000001614610b7e5760405162461bcd60e51b815260206004820152603860248201527f555550535570677261646561626c653a206d757374206e6f742062652063616c60448201527f6c6564207468726f7567682064656c656761746563616c6c00000000000000006064820152608401610348565b506000805160206123b383398151915290565b6000866000816001600160a01b031663fc0c546a6040518163ffffffff1660e01b8152600401602060405180830381865afa158015610bd4573d6000803e3d6000fd5b505050506040513d601f19601f82011682018060405250810190610bf89190611e6e565b6040516370a0823160e01b81523360048201526001600160a01b0391909116906370a0823190602401602060405180830381865afa158015610c3e573d6000803e3d6000fd5b505050506040513d601f19601f82011682018060405250810190610c629190611e8b565b116040518060400160405280600f81526020016e2727aa2fa9a420a922a427a62222a960891b81525090610ca95760405162461bcd60e51b81526004016103489190611ef4565b50806001600160a01b031663e47bfee86040518163ffffffff1660e01b8152600401602060405180830381865afa158015610ce8573d6000803e3d6000fd5b505050506040513d601f19601f82011682018060405250810190610d0c9190611f07565b604051806040016040528060078152602001664e4f545f44414f60c81b81525090610d4a5760405162461bcd60e51b81526004016103489190611ef4565b5084518651146040518060400160405280600d81526020016c494e56414c49445f56414c554560981b81525090610d945760405162461bcd60e51b81526004016103489190611ef4565b50604051636080484d60e01b81526001600160a01b03891690636080484d90610dcc908990899089906002908a908f906004016122a7565b6020604051808303816000875af1158015610deb573d6000803e3d6000fd5b505050506040513d601f19601f82011682018060405250810190610e0f9190611e8b565b6040516303f27b8760e01b8152336004820152602481018290529092506001600160a01b038916906303f27b8790604401600060405180830381600087803b158015610e5a57600080fd5b505af1158015610e6e573d6000803e3d6000fd5b50505050509695505050505050565b610e856114ea565b610e8f6000611544565b565b6000856000816001600160a01b031663fc0c546a6040518163ffffffff1660e01b8152600401602060405180830381865afa158015610ed4573d6000803e3d6000fd5b505050506040513d601f19601f82011682018060405250810190610ef89190611e6e565b6040516370a0823160e01b81523360048201526001600160a01b0391909116906370a0823190602401602060405180830381865afa158015610f3e573d6000803e3d6000fd5b505050506040513d601f19601f82011682018060405250810190610f629190611e8b565b116040518060400160405280600f81526020016e2727aa2fa9a420a922a427a62222a960891b81525090610fa95760405162461bcd60e51b81526004016103489190611ef4565b50806001600160a01b031663e47bfee86040518163ffffffff1660e01b8152600401602060405180830381865afa158015610fe8573d6000803e3d6000fd5b505050506040513d601f19601f8201168201806040525081019061100c9190611f07565b604051806040016040528060078152602001664e4f545f44414f60c81b8152509061104a5760405162461bcd60e51b81526004016103489190611ef4565b5084518651146040518060400160405280600d81526020016c494e56414c49445f56414c554560981b815250906110945760405162461bcd60e51b81526004016103489190611ef4565b50604051636080484d60e01b81526001600160a01b03881690636080484d906110cd908990899089906001908a906000906004016122a7565b6020604051808303816000875af11580156110ec573d6000803e3d6000fd5b505050506040513d601f19601f820116820180604052508101906111109190611e8b565b6040516303f27b8760e01b8152336004820152602481018290529092506001600160a01b038816906303f27b8790604401600060405180830381600087803b15801561115b57600080fd5b505af115801561116f573d6000803e3d6000fd5b505050505095945050505050565b600054610100900460ff161580801561119d5750600054600160ff909116105b806111b75750303b1580156111b7575060005460ff166001145b61121a5760405162461bcd60e51b815260206004820152602e60248201527f496e697469616c697a61626c653a20636f6e747261637420697320616c72656160448201526d191e481a5b9a5d1a585b1a5e995960921b6064820152608401610348565b6000805460ff19166001179055801561123d576000805461ff0019166101001790555b611245611596565b61124d6115c5565b60408051808201909152600c81526b414444524553535f5a45524f60a01b60208201526001600160a01b0383166112975760405162461bcd60e51b81526004016103489190611ef4565b5060c980546001600160a01b0319166001600160a01b0384161790558015610ada576000805461ff0019169055604051600181527f7f26b83ff96e1f2b6a682f133852f6798a09c465da95921460cefb38474024989060200160405180910390a15050565b6113046114ea565b6001600160a01b0381166113695760405162461bcd60e51b815260206004820152602660248201527f4f776e61626c653a206e6577206f776e657220697320746865207a65726f206160448201526564647265737360d01b6064820152608401610348565b610a0b81611544565b610a0b6114ea565b7f4910fdfa16fed3260ed0e7147f7cc6da11a60208b5b9406d12a635614ffd91435460ff16156113b2576113ad836115ec565b505050565b826001600160a01b03166352d1902d6040518163ffffffff1660e01b8152600401602060405180830381865afa92505050801561140c575060408051601f3d908101601f1916820190925261140991810190611e8b565b60015b61146f5760405162461bcd60e51b815260206004820152602e60248201527f45524331393637557067726164653a206e657720696d706c656d656e7461746960448201526d6f6e206973206e6f74205555505360901b6064820152608401610348565b6000805160206123b383398151915281146114de5760405162461bcd60e51b815260206004820152602960248201527f45524331393637557067726164653a20756e737570706f727465642070726f786044820152681a58589b195555525160ba1b6064820152608401610348565b506113ad838383611688565b6033546001600160a01b03163314610e8f5760405162461bcd60e51b815260206004820181905260248201527f4f776e61626c653a2063616c6c6572206973206e6f7420746865206f776e65726044820152606401610348565b603380546001600160a01b038381166001600160a01b0319831681179093556040519116919082907f8be0079c531659141344cd1fd0a4f28419497f9722a3daafe3b4186f6b6457e090600090a35050565b600054610100900460ff166115bd5760405162461bcd60e51b81526004016103489061234b565b610e8f6116b3565b600054610100900460ff16610e8f5760405162461bcd60e51b81526004016103489061234b565b6001600160a01b0381163b6116595760405162461bcd60e51b815260206004820152602d60248201527f455243313936373a206e657720696d706c656d656e746174696f6e206973206e60448201526c1bdd08184818dbdb9d1c9858dd609a1b6064820152608401610348565b6000805160206123b383398151915280546001600160a01b0319166001600160a01b0392909216919091179055565b611691836116e3565b60008251118061169e5750805b156113ad576116ad8383611723565b50505050565b600054610100900460ff166116da5760405162461bcd60e51b81526004016103489061234b565b610e8f33611544565b6116ec816115ec565b6040516001600160a01b038216907fbc7cd75a20ee27fd9adebab32041f755214dbc6bffa90cc0225b39da2e5c2d3b90600090a250565b60606001600160a01b0383163b61178b5760405162461bcd60e51b815260206004820152602660248201527f416464726573733a2064656c65676174652063616c6c20746f206e6f6e2d636f6044820152651b9d1c9858dd60d21b6064820152608401610348565b600080846001600160a01b0316846040516117a69190612396565b600060405180830381855af49150503d80600081146117e1576040519150601f19603f3d011682016040523d82523d6000602084013e6117e6565b606091505b509150915061180e82826040518060600160405280602781526020016123d360279139611817565b95945050505050565b60608315611826575081611830565b6118308383611837565b9392505050565b8151156118475781518083602001fd5b8060405162461bcd60e51b81526004016103489190611ef4565b6001600160a01b0381168114610a0b57600080fd5b803561188181611861565b919050565b60006101a0828403121561189957600080fd5b50919050565b60008083601f8401126118b157600080fd5b50813567ffffffffffffffff8111156118c957600080fd5b6020830191508360208285010111156118e157600080fd5b9250929050565b634e487b7160e01b600052604160045260246000fd5b604051601f8201601f1916810167ffffffffffffffff81118282101715611927576119276118e8565b604052919050565b600067ffffffffffffffff831115611949576119496118e8565b61195c601f8401601f19166020016118fe565b905082815283838301111561197057600080fd5b828260208301376000602084830101529392505050565b600082601f83011261199857600080fd5b6118308383356020850161192f565b80356003811061188157600080fd5b600080600080600080600080600060e08a8c0312156119d457600080fd5b6119dd8a611876565b985060208a013567ffffffffffffffff808211156119fa57600080fd5b611a068d838e01611886565b995060408c0135915080821115611a1c57600080fd5b611a288d838e0161189f565b909950975060608c0135915080821115611a4157600080fd5b611a4d8d838e0161189f565b909750955060808c0135915080821115611a6657600080fd5b611a728d838e01611987565b9450611a8060a08d016119a7565b935060c08c0135915080821115611a9657600080fd5b50611aa38c828d01611987565b9150509295985092959850929598565b60008060008060008060008060006102008a8c031215611ad257600080fd5b8935611add81611861565b985060208a0135975060408a0135965060608a013595506101c08a018b811115611b0657600080fd5b60808b0195503567ffffffffffffffff80821115611b2357600080fd5b611b2f8d838e0161189f565b90965094506101e08c0135915080821115611b4957600080fd5b50611b568c828d0161189f565b915080935050809150509295985092959850929598565b600060208284031215611b7f57600080fd5b813561183081611861565b60008060408385031215611b9d57600080fd5b8235611ba881611861565b9150602083013567ffffffffffffffff811115611bc457600080fd5b8301601f81018513611bd557600080fd5b611be48582356020840161192f565b9150509250929050565b600067ffffffffffffffff821115611c0857611c086118e8565b5060051b60200190565b600082601f830112611c2357600080fd5b81356020611c38611c3383611bee565b6118fe565b82815260059290921b84018101918181019086841115611c5757600080fd5b8286015b84811015611c7b578035611c6e81611861565b8352918301918301611c5b565b509695505050505050565b600082601f830112611c9757600080fd5b81356020611ca7611c3383611bee565b82815260059290921b84018101918181019086841115611cc657600080fd5b8286015b84811015611c7b5780358352918301918301611cca565b60008060008060008060c08789031215611cfa57600080fd5b611d0387611876565b9550611d1160208801611876565b9450604087013567ffffffffffffffff80821115611d2e57600080fd5b611d3a8a838b01611c12565b95506060890135915080821115611d5057600080fd5b611d5c8a838b01611c86565b94506080890135915080821115611d7257600080fd5b611d7e8a838b01611987565b935060a0890135915080821115611d9457600080fd5b50611da189828a01611987565b9150509295509295509295565b600080600080600060a08688031215611dc657600080fd5b8535611dd181611861565b9450602086013567ffffffffffffffff80821115611dee57600080fd5b611dfa89838a01611c12565b95506040880135915080821115611e1057600080fd5b611e1c89838a01611c86565b94506060880135915080821115611e3257600080fd5b611e3e89838a01611987565b93506080880135915080821115611e5457600080fd5b50611e6188828901611987565b9150509295509295909350565b600060208284031215611e8057600080fd5b815161183081611861565b600060208284031215611e9d57600080fd5b5051919050565b60005b83811015611ebf578181015183820152602001611ea7565b50506000910152565b60008151808452611ee0816020860160208601611ea4565b601f01601f19169290920160200192915050565b6020815260006118306020830184611ec8565b600060208284031215611f1957600080fd5b8151801515811461183057600080fd5b6000808335601e19843603018112611f4057600080fd5b830160208101925035905067ffffffffffffffff811115611f6057600080fd5b8060051b36038213156118e157600080fd5b8183526000602080850194508260005b85811015611fb0578135611f9581611861565b6001600160a01b031687529582019590820190600101611f82565b509495945050505050565b60006101a0823584526020830135602085015260408301356040850152606083013560608501526080830135608085015260a083013560a085015260c083013560c085015260e083013560e085015261010080840135818601525061012061202581850185611f29565b83838801526120378488018284611f72565b935050505061014061204a818501611876565b6001600160a01b03169085015261016083810135908501526101809283013592909301919091525090565b6040815260006120886040830185611fbb565b905060018060a01b03831660208301529392505050565b634e487b7160e01b600052602160045260246000fd5b6080815260006120c86080830187611fbb565b82810360208401526120da8187611ec8565b9050600385106120ec576120ec61209f565b84604084015282810360608401526121048185611ec8565b979650505050505050565b81835281816020850137506000828201602090810191909152601f909101601f19169091010190565b600581106121485761214861209f565b9052565b60018060a01b038916815287602082015260c06040820152600061217360c0830189611ec8565b828103606084015261218681888a61210f565b90506121956080840187612138565b82810360a08401526121a881858761210f565b9b9a5050505050505050505050565b84815260208101849052604081018390526101a0810161014083606084013795945050505050565b6020808252602c908201527f46756e6374696f6e206d7573742062652063616c6c6564207468726f7567682060408201526b19195b1959d85d1958d85b1b60a21b606082015260800190565b6020808252602c908201527f46756e6374696f6e206d7573742062652063616c6c6564207468726f7567682060408201526b6163746976652070726f787960a01b606082015260800190565b600081518084526020808501945080840160005b83811015611fb05781518752958201959082019060010161228b565b60c0808252875190820181905260009060209060e0840190828b01845b828110156122e95781516001600160a01b0316845292840192908401906001016122c4565b505050838103828501526122fd818a612277565b91505082810360408401526123128188611ec8565b90506123216060840187612138565b82810360808401526123338186611ec8565b91505061210460a08301846001600160a01b03169052565b6020808252602b908201527f496e697469616c697a61626c653a20636f6e7472616374206973206e6f74206960408201526a6e697469616c697a696e6760a81b606082015260800190565b600082516123a8818460208701611ea4565b919091019291505056fe360894a13ba1a3210667c828492db98dca3e2076cc3735a920a3ca505d382bbc416464726573733a206c6f772d6c6576656c2064656c65676174652063616c6c206661696c6564a26469706673582212206e96ccdae2f85ab51cdfae71b08792af83977f0f90f4548c74ea08a450e91e0064736f6c63430008110033",
  "linkReferences": {},
  "deployedLinkReferences": {}
}