{
  "_format": "hh-sol-artifact-1",
  "contractName": "ProposalGateway",
  "sourceName": "contracts/ProposalGateway.sol",
  "abi": [
    {
      "inputs": [],
      "stateMutability": "nonpayable",
      "type": "constructor"
    },
    {
      "anonymous": false,
      "inputs": [
        {
          "indexed": false,
          "internalType": "address",
          "name": "previousAdmin",
          "type": "address"
        },
        {
          "indexed": false,
          "internalType": "address",
          "name": "newAdmin",
          "type": "address"
        }
      ],
      "name": "AdminChanged",
      "type": "event"
    },
    {
      "anonymous": false,
      "inputs": [
        {
          "indexed": true,
          "internalType": "address",
          "name": "beacon",
          "type": "address"
        }
      ],
      "name": "BeaconUpgraded",
      "type": "event"
    },
    {
      "anonymous": false,
      "inputs": [
        {
          "indexed": false,
          "internalType": "uint8",
          "name": "version",
          "type": "uint8"
        }
      ],
      "name": "Initialized",
      "type": "event"
    },
    {
      "anonymous": false,
      "inputs": [
        {
          "indexed": true,
          "internalType": "address",
          "name": "previousOwner",
          "type": "address"
        },
        {
          "indexed": true,
          "internalType": "address",
          "name": "newOwner",
          "type": "address"
        }
      ],
      "name": "OwnershipTransferred",
      "type": "event"
    },
    {
      "anonymous": false,
      "inputs": [
        {
          "indexed": true,
          "internalType": "address",
          "name": "implementation",
          "type": "address"
        }
      ],
      "name": "Upgraded",
      "type": "event"
    },
    {
      "inputs": [
        {
          "internalType": "contract IPool",
          "name": "pool",
          "type": "address"
        },
        {
          "internalType": "uint256",
          "name": "ballotQuorumThreshold",
          "type": "uint256"
        },
        {
          "internalType": "uint256",
          "name": "ballotDecisionThreshold",
          "type": "uint256"
        },
        {
          "internalType": "uint256",
          "name": "ballotLifespan",
          "type": "uint256"
        },
        {
          "internalType": "uint256[10]",
          "name": "ballotExecDelay",
          "type": "uint256[10]"
        },
        {
          "internalType": "string",
          "name": "description",
          "type": "string"
        },
        {
          "internalType": "string",
          "name": "metaHash",
          "type": "string"
        }
      ],
      "name": "createGovernanceSettingsProposal",
      "outputs": [
        {
          "internalType": "uint256",
          "name": "proposalId",
          "type": "uint256"
        }
      ],
      "stateMutability": "nonpayable",
      "type": "function"
    },
    {
      "inputs": [
        {
          "internalType": "contract IPool",
          "name": "pool",
          "type": "address"
        },
        {
          "components": [
            {
              "internalType": "uint256",
              "name": "price",
              "type": "uint256"
            },
            {
              "internalType": "uint256",
              "name": "hardcap",
              "type": "uint256"
            },
            {
              "internalType": "uint256",
              "name": "softcap",
              "type": "uint256"
            },
            {
              "internalType": "uint256",
              "name": "minPurchase",
              "type": "uint256"
            },
            {
              "internalType": "uint256",
              "name": "maxPurchase",
              "type": "uint256"
            },
            {
              "internalType": "uint256",
              "name": "vestingPercent",
              "type": "uint256"
            },
            {
              "internalType": "uint256",
              "name": "vestingDuration",
              "type": "uint256"
            },
            {
              "internalType": "uint256",
              "name": "vestingTVL",
              "type": "uint256"
            },
            {
              "internalType": "uint256",
              "name": "duration",
              "type": "uint256"
            },
            {
              "internalType": "address[]",
              "name": "userWhitelist",
              "type": "address[]"
            },
            {
              "internalType": "address",
              "name": "unitOfAccount",
              "type": "address"
            },
            {
              "internalType": "uint256",
              "name": "lockupDuration",
              "type": "uint256"
            },
            {
              "internalType": "uint256",
              "name": "lockupTVL",
              "type": "uint256"
            }
          ],
          "internalType": "struct ITGE.TGEInfo",
          "name": "info",
          "type": "tuple"
        },
        {
          "internalType": "string",
          "name": "description",
          "type": "string"
        },
        {
          "internalType": "string",
          "name": "metaHash",
          "type": "string"
        },
        {
          "internalType": "string",
          "name": "metadataURI",
          "type": "string"
        },
        {
          "internalType": "enum IToken.TokenType",
          "name": "tokenType",
          "type": "uint8"
        },
        {
          "internalType": "string",
          "name": "tokenDescription",
          "type": "string"
        },
        {
          "internalType": "uint256",
          "name": "tokenCap",
          "type": "uint256"
        }
      ],
      "name": "createTGEProposal",
      "outputs": [
        {
          "internalType": "uint256",
          "name": "proposalId",
          "type": "uint256"
        }
      ],
      "stateMutability": "nonpayable",
      "type": "function"
    },
    {
      "inputs": [
        {
          "internalType": "contract IPool",
          "name": "pool",
          "type": "address"
        },
        {
          "internalType": "address",
          "name": "token",
          "type": "address"
        },
        {
          "internalType": "address[]",
          "name": "recipients",
          "type": "address[]"
        },
        {
          "internalType": "uint256[]",
          "name": "values",
          "type": "uint256[]"
        },
        {
          "internalType": "string",
          "name": "description",
          "type": "string"
        },
        {
          "internalType": "string",
          "name": "metaHash",
          "type": "string"
        }
      ],
      "name": "createTransferERC20Proposal",
      "outputs": [
        {
          "internalType": "uint256",
          "name": "proposalId",
          "type": "uint256"
        }
      ],
      "stateMutability": "nonpayable",
      "type": "function"
    },
    {
      "inputs": [
        {
          "internalType": "contract IPool",
          "name": "pool",
          "type": "address"
        },
        {
          "internalType": "address[]",
          "name": "recipients",
          "type": "address[]"
        },
        {
          "internalType": "uint256[]",
          "name": "values",
          "type": "uint256[]"
        },
        {
          "internalType": "string",
          "name": "description",
          "type": "string"
        },
        {
          "internalType": "string",
          "name": "metaHash",
          "type": "string"
        }
      ],
      "name": "createTransferETHProposal",
      "outputs": [
        {
          "internalType": "uint256",
          "name": "proposalId",
          "type": "uint256"
        }
      ],
      "stateMutability": "nonpayable",
      "type": "function"
    },
    {
      "inputs": [],
      "name": "dispatcher",
      "outputs": [
        {
          "internalType": "address",
          "name": "",
          "type": "address"
        }
      ],
      "stateMutability": "view",
      "type": "function"
    },
    {
      "inputs": [
        {
          "internalType": "address",
          "name": "dispatcher_",
          "type": "address"
        }
      ],
      "name": "initialize",
      "outputs": [],
      "stateMutability": "nonpayable",
      "type": "function"
    },
    {
      "inputs": [],
      "name": "owner",
      "outputs": [
        {
          "internalType": "address",
          "name": "",
          "type": "address"
        }
      ],
      "stateMutability": "view",
      "type": "function"
    },
    {
      "inputs": [],
      "name": "proxiableUUID",
      "outputs": [
        {
          "internalType": "bytes32",
          "name": "",
          "type": "bytes32"
        }
      ],
      "stateMutability": "view",
      "type": "function"
    },
    {
      "inputs": [],
      "name": "renounceOwnership",
      "outputs": [],
      "stateMutability": "nonpayable",
      "type": "function"
    },
    {
      "inputs": [
        {
          "internalType": "address",
          "name": "newOwner",
          "type": "address"
        }
      ],
      "name": "transferOwnership",
      "outputs": [],
      "stateMutability": "nonpayable",
      "type": "function"
    },
    {
      "inputs": [
        {
          "internalType": "address",
          "name": "newImplementation",
          "type": "address"
        }
      ],
      "name": "upgradeTo",
      "outputs": [],
      "stateMutability": "nonpayable",
      "type": "function"
    },
    {
      "inputs": [
        {
          "internalType": "address",
          "name": "newImplementation",
          "type": "address"
        },
        {
          "internalType": "bytes",
          "name": "data",
          "type": "bytes"
        }
      ],
      "name": "upgradeToAndCall",
      "outputs": [],
      "stateMutability": "payable",
      "type": "function"
    }
  ],
  "bytecode": "0x60a0604052306080523480156200001557600080fd5b506200002062000026565b620000e8565b600054610100900460ff1615620000935760405162461bcd60e51b815260206004820152602760248201527f496e697469616c697a61626c653a20636f6e747261637420697320696e697469604482015266616c697a696e6760c81b606482015260840160405180910390fd5b60005460ff9081161015620000e6576000805460ff191660ff9081179091556040519081527f7f26b83ff96e1f2b6a682f133852f6798a09c465da95921460cefb38474024989060200160405180910390a15b565b60805161283562000120600039600081816105b7015281816105f701528181610696015281816106d6015261076901526128356000f3fe6080604052600436106100a75760003560e01c80638da5cb5b116100645780638da5cb5b1461015e578063a5f0d2d214610190578063b5a4e65d146101b0578063c4d66de8146101d0578063cb7e9057146101f0578063f2fde38b1461021057600080fd5b80632cfa3b90146100ac5780633659cfe6146100df5780634f1ef2861461010157806352d1902d146101145780635fa846c514610129578063715018a614610149575b600080fd5b3480156100b857600080fd5b506100cc6100c7366004611bf2565b610230565b6040519081526020015b60405180910390f35b3480156100eb57600080fd5b506100ff6100fa366004611cac565b6105ad565b005b6100ff61010f366004611d92565b61068c565b34801561012057600080fd5b506100cc61075c565b34801561013557600080fd5b506100cc610144366004611f09565b61080f565b34801561015557600080fd5b506100ff610b07565b34801561016a57600080fd5b506033546001600160a01b03165b6040516001600160a01b0390911681526020016100d6565b34801561019c57600080fd5b506100cc6101ab366004611fd6565b610b1b565b3480156101bc57600080fd5b506100cc6101cb366004612176565b610e13565b3480156101dc57600080fd5b506100ff6101eb366004611cac565b61149e565b3480156101fc57600080fd5b5060c954610178906001600160a01b031681565b34801561021c57600080fd5b506100ff61022b366004611cac565b61161d565b6000896000816001600160a01b0316638856c0d660016040518263ffffffff1660e01b8152600401610262919061229d565b602060405180830381865afa15801561027f573d6000803e3d6000fd5b505050506040513d601f19601f820116820180604052508101906102a391906122ab565b6040516370a0823160e01b81523360048201526001600160a01b0391909116906370a0823190602401602060405180830381865afa1580156102e9573d6000803e3d6000fd5b505050506040513d601f19601f8201168201806040525081019061030d91906122c8565b116040518060400160405280600f81526020016e2727aa2fa9a420a922a427a62222a960891b8152509061035d5760405162461bcd60e51b81526004016103549190612331565b60405180910390fd5b50806001600160a01b031663e47bfee86040518163ffffffff1660e01b8152600401602060405180830381865afa15801561039c573d6000803e3d6000fd5b505050506040513d601f19601f820116820180604052508101906103c09190612344565b604051806040016040528060078152602001664e4f545f44414f60c81b815250906103fe5760405162461bcd60e51b81526004016103549190612331565b5060c9546040516341a453e160e01b81526001600160a01b03909116906341a453e190610435908d908d908d908d90600401612366565b602060405180830381865afa158015610452573d6000803e3d6000fd5b505050506040513d601f19601f820116820180604052508101906104769190612344565b508a6001600160a01b031663f27603838c600063515f723c60e01b8e8e8e8e6040516024016104a89493929190612366565b60408051601f198184030181529181526020820180516001600160e01b03166001600160e01b03199485161790525160e086901b90921682526104f99392918c908c906004908d908d9083016123c7565b6020604051808303816000875af1158015610518573d6000803e3d6000fd5b505050506040513d601f19601f8201168201806040525081019061053c91906122c8565b6040516303f27b8760e01b8152336004820152602481018290529092506001600160a01b038c16906303f27b8790604401600060405180830381600087803b15801561058757600080fd5b505af115801561059b573d6000803e3d6000fd5b50505050509998505050505050505050565b6001600160a01b037f00000000000000000000000000000000000000000000000000000000000000001630036105f55760405162461bcd60e51b815260040161035490612432565b7f00000000000000000000000000000000000000000000000000000000000000006001600160a01b031661063e6000805160206127b9833981519152546001600160a01b031690565b6001600160a01b0316146106645760405162461bcd60e51b81526004016103549061247e565b61066d81611693565b604080516000808252602082019092526106899183919061169b565b50565b6001600160a01b037f00000000000000000000000000000000000000000000000000000000000000001630036106d45760405162461bcd60e51b815260040161035490612432565b7f00000000000000000000000000000000000000000000000000000000000000006001600160a01b031661071d6000805160206127b9833981519152546001600160a01b031690565b6001600160a01b0316146107435760405162461bcd60e51b81526004016103549061247e565b61074c82611693565b6107588282600161169b565b5050565b6000306001600160a01b037f000000000000000000000000000000000000000000000000000000000000000016146107fc5760405162461bcd60e51b815260206004820152603860248201527f555550535570677261646561626c653a206d757374206e6f742062652063616c60448201527f6c6564207468726f7567682064656c656761746563616c6c00000000000000006064820152608401610354565b506000805160206127b983398151915290565b6000866000816001600160a01b0316638856c0d660016040518263ffffffff1660e01b8152600401610841919061229d565b602060405180830381865afa15801561085e573d6000803e3d6000fd5b505050506040513d601f19601f8201168201806040525081019061088291906122ab565b6040516370a0823160e01b81523360048201526001600160a01b0391909116906370a0823190602401602060405180830381865afa1580156108c8573d6000803e3d6000fd5b505050506040513d601f19601f820116820180604052508101906108ec91906122c8565b116040518060400160405280600f81526020016e2727aa2fa9a420a922a427a62222a960891b815250906109335760405162461bcd60e51b81526004016103549190612331565b50806001600160a01b031663e47bfee86040518163ffffffff1660e01b8152600401602060405180830381865afa158015610972573d6000803e3d6000fd5b505050506040513d601f19601f820116820180604052508101906109969190612344565b604051806040016040528060078152602001664e4f545f44414f60c81b815250906109d45760405162461bcd60e51b81526004016103549190612331565b5084518651146040518060400160405280600d81526020016c494e56414c49445f56414c554560981b81525090610a1e5760405162461bcd60e51b81526004016103549190612331565b50604051636080484d60e01b81526001600160a01b03891690636080484d90610a56908990899089906002908a908f9060040161250e565b6020604051808303816000875af1158015610a75573d6000803e3d6000fd5b505050506040513d601f19601f82011682018060405250810190610a9991906122c8565b6040516303f27b8760e01b8152336004820152602481018290529092506001600160a01b038916906303f27b8790604401600060405180830381600087803b158015610ae457600080fd5b505af1158015610af8573d6000803e3d6000fd5b50505050509695505050505050565b610b0f61180b565b610b196000611865565b565b6000856000816001600160a01b0316638856c0d660016040518263ffffffff1660e01b8152600401610b4d919061229d565b602060405180830381865afa158015610b6a573d6000803e3d6000fd5b505050506040513d601f19601f82011682018060405250810190610b8e91906122ab565b6040516370a0823160e01b81523360048201526001600160a01b0391909116906370a0823190602401602060405180830381865afa158015610bd4573d6000803e3d6000fd5b505050506040513d601f19601f82011682018060405250810190610bf891906122c8565b116040518060400160405280600f81526020016e2727aa2fa9a420a922a427a62222a960891b81525090610c3f5760405162461bcd60e51b81526004016103549190612331565b50806001600160a01b031663e47bfee86040518163ffffffff1660e01b8152600401602060405180830381865afa158015610c7e573d6000803e3d6000fd5b505050506040513d601f19601f82011682018060405250810190610ca29190612344565b604051806040016040528060078152602001664e4f545f44414f60c81b81525090610ce05760405162461bcd60e51b81526004016103549190612331565b5084518651146040518060400160405280600d81526020016c494e56414c49445f56414c554560981b81525090610d2a5760405162461bcd60e51b81526004016103549190612331565b50604051636080484d60e01b81526001600160a01b03881690636080484d90610d63908990899089906001908a9060009060040161250e565b6020604051808303816000875af1158015610d82573d6000803e3d6000fd5b505050506040513d601f19601f82011682018060405250810190610da691906122c8565b6040516303f27b8760e01b8152336004820152602481018290529092506001600160a01b038816906303f27b8790604401600060405180830381600087803b158015610df157600080fd5b505af1158015610e05573d6000803e3d6000fd5b505050505095945050505050565b6000886000816001600160a01b0316638856c0d660016040518263ffffffff1660e01b8152600401610e45919061229d565b602060405180830381865afa158015610e62573d6000803e3d6000fd5b505050506040513d601f19601f82011682018060405250810190610e8691906122ab565b6040516370a0823160e01b81523360048201526001600160a01b0391909116906370a0823190602401602060405180830381865afa158015610ecc573d6000803e3d6000fd5b505050506040513d601f19601f82011682018060405250810190610ef091906122c8565b116040518060400160405280600f81526020016e2727aa2fa9a420a922a427a62222a960891b81525090610f375760405162461bcd60e51b81526004016103549190612331565b50806001600160a01b031663e47bfee86040518163ffffffff1660e01b8152600401602060405180830381865afa158015610f76573d6000803e3d6000fd5b505050506040513d601f19601f82011682018060405250810190610f9a9190612344565b604051806040016040528060078152602001664e4f545f44414f60c81b81525090610fd85760405162461bcd60e51b81526004016103549190612331565b506000808b6001600160a01b0316638856c0d6886040518263ffffffff1660e01b8152600401611008919061229d565b602060405180830381865afa158015611025573d6000803e3d6000fd5b505050506040513d601f19601f8201168201806040525081019061104991906122ab565b9050600187600281111561105f5761105f612273565b0361112d57806001600160a01b031663355274ea6040518163ffffffff1660e01b8152600401602060405180830381865afa1580156110a2573d6000803e3d6000fd5b505050506040513d601f19601f820116820180604052508101906110c691906122c8565b9450806001600160a01b03166318160ddd6040518163ffffffff1660e01b8152600401602060405180830381865afa158015611106573d6000803e3d6000fd5b505050506040513d601f19601f8201168201806040525081019061112a91906122c8565b91505b600287600281111561114157611141612273565b03611285576001600160a01b0381161561128557806001600160a01b031663d04d79b56040518163ffffffff1660e01b8152600401602060405180830381865afa158015611193573d6000803e3d6000fd5b505050506040513d601f19601f820116820180604052508101906111b79190612344565b1561128557806001600160a01b031663355274ea6040518163ffffffff1660e01b8152600401602060405180830381865afa1580156111fa573d6000803e3d6000fd5b505050506040513d601f19601f8201168201806040525081019061121e91906122c8565b9450806001600160a01b03166318160ddd6040518163ffffffff1660e01b8152600401602060405180830381865afa15801561125e573d6000803e3d6000fd5b505050506040513d601f19601f8201168201806040525081019061128291906122c8565b91505b60c954604051634c37d16760e01b81526001600160a01b0390911690634c37d167906112bb908e908b908a90889060040161265d565b602060405180830381865afa1580156112d8573d6000803e3d6000fd5b505050506040513d601f19601f820116820180604052508101906112fc9190612344565b508b6001600160a01b031663f27603838d6001600160a01b031663d598d4c96040518163ffffffff1660e01b8152600401602060405180830381865afa15801561134a573d6000803e3d6000fd5b505050506040513d601f19601f8201168201806040525081019061136e91906122ab565b600063bfe130af60e01b8f8d8d8d8d604051602401611391959493929190612691565b604051602081830303815290604052906001600160e01b0319166020820180516001600160e01b0383818316178352505050508e60038f6040518763ffffffff1660e01b81526004016113e9969594939291906126ea565b6020604051808303816000875af1158015611408573d6000803e3d6000fd5b505050506040513d601f19601f8201168201806040525081019061142c91906122c8565b6040516303f27b8760e01b8152336004820152602481018290529094506001600160a01b038d16906303f27b8790604401600060405180830381600087803b15801561147757600080fd5b505af115801561148b573d6000803e3d6000fd5b5050505050505098975050505050505050565b600054610100900460ff16158080156114be5750600054600160ff909116105b806114d85750303b1580156114d8575060005460ff166001145b61153b5760405162461bcd60e51b815260206004820152602e60248201527f496e697469616c697a61626c653a20636f6e747261637420697320616c72656160448201526d191e481a5b9a5d1a585b1a5e995960921b6064820152608401610354565b6000805460ff19166001179055801561155e576000805461ff0019166101001790555b6115666118b7565b61156e6118e6565b60408051808201909152600c81526b414444524553535f5a45524f60a01b60208201526001600160a01b0383166115b85760405162461bcd60e51b81526004016103549190612331565b5060c980546001600160a01b0319166001600160a01b0384161790558015610758576000805461ff0019169055604051600181527f7f26b83ff96e1f2b6a682f133852f6798a09c465da95921460cefb38474024989060200160405180910390a15050565b61162561180b565b6001600160a01b03811661168a5760405162461bcd60e51b815260206004820152602660248201527f4f776e61626c653a206e6577206f776e657220697320746865207a65726f206160448201526564647265737360d01b6064820152608401610354565b61068981611865565b61068961180b565b7f4910fdfa16fed3260ed0e7147f7cc6da11a60208b5b9406d12a635614ffd91435460ff16156116d3576116ce8361190d565b505050565b826001600160a01b03166352d1902d6040518163ffffffff1660e01b8152600401602060405180830381865afa92505050801561172d575060408051601f3d908101601f1916820190925261172a918101906122c8565b60015b6117905760405162461bcd60e51b815260206004820152602e60248201527f45524331393637557067726164653a206e657720696d706c656d656e7461746960448201526d6f6e206973206e6f74205555505360901b6064820152608401610354565b6000805160206127b983398151915281146117ff5760405162461bcd60e51b815260206004820152602960248201527f45524331393637557067726164653a20756e737570706f727465642070726f786044820152681a58589b195555525160ba1b6064820152608401610354565b506116ce8383836119a9565b6033546001600160a01b03163314610b195760405162461bcd60e51b815260206004820181905260248201527f4f776e61626c653a2063616c6c6572206973206e6f7420746865206f776e65726044820152606401610354565b603380546001600160a01b038381166001600160a01b0319831681179093556040519116919082907f8be0079c531659141344cd1fd0a4f28419497f9722a3daafe3b4186f6b6457e090600090a35050565b600054610100900460ff166118de5760405162461bcd60e51b815260040161035490612751565b610b196119d4565b600054610100900460ff16610b195760405162461bcd60e51b815260040161035490612751565b6001600160a01b0381163b61197a5760405162461bcd60e51b815260206004820152602d60248201527f455243313936373a206e657720696d706c656d656e746174696f6e206973206e60448201526c1bdd08184818dbdb9d1c9858dd609a1b6064820152608401610354565b6000805160206127b983398151915280546001600160a01b0319166001600160a01b0392909216919091179055565b6119b283611a04565b6000825111806119bf5750805b156116ce576119ce8383611a44565b50505050565b600054610100900460ff166119fb5760405162461bcd60e51b815260040161035490612751565b610b1933611865565b611a0d8161190d565b6040516001600160a01b038216907fbc7cd75a20ee27fd9adebab32041f755214dbc6bffa90cc0225b39da2e5c2d3b90600090a250565b60606001600160a01b0383163b611aac5760405162461bcd60e51b815260206004820152602660248201527f416464726573733a2064656c65676174652063616c6c20746f206e6f6e2d636f6044820152651b9d1c9858dd60d21b6064820152608401610354565b600080846001600160a01b031684604051611ac7919061279c565b600060405180830381855af49150503d8060008114611b02576040519150601f19603f3d011682016040523d82523d6000602084013e611b07565b606091505b5091509150611b2f82826040518060600160405280602781526020016127d960279139611b3a565b925050505b92915050565b60608315611b49575081611b53565b611b538383611b5a565b9392505050565b815115611b6a5781518083602001fd5b8060405162461bcd60e51b81526004016103549190612331565b6001600160a01b038116811461068957600080fd5b8035611ba481611b84565b919050565b60008083601f840112611bbb57600080fd5b50813567ffffffffffffffff811115611bd357600080fd5b602083019150836020828501011115611beb57600080fd5b9250929050565b60008060008060008060008060006102008a8c031215611c1157600080fd5b8935611c1c81611b84565b985060208a0135975060408a0135965060608a013595506101c08a018b811115611c4557600080fd5b60808b0195503567ffffffffffffffff80821115611c6257600080fd5b611c6e8d838e01611ba9565b90965094506101e08c0135915080821115611c8857600080fd5b50611c958c828d01611ba9565b915080935050809150509295985092959850929598565b600060208284031215611cbe57600080fd5b8135611b5381611b84565b634e487b7160e01b600052604160045260246000fd5b6040516101a0810167ffffffffffffffff81118282101715611d0357611d03611cc9565b60405290565b604051601f8201601f1916810167ffffffffffffffff81118282101715611d3257611d32611cc9565b604052919050565b600067ffffffffffffffff831115611d5457611d54611cc9565b611d67601f8401601f1916602001611d09565b9050828152838383011115611d7b57600080fd5b828260208301376000602084830101529392505050565b60008060408385031215611da557600080fd5b8235611db081611b84565b9150602083013567ffffffffffffffff811115611dcc57600080fd5b8301601f81018513611ddd57600080fd5b611dec85823560208401611d3a565b9150509250929050565b600067ffffffffffffffff821115611e1057611e10611cc9565b5060051b60200190565b600082601f830112611e2b57600080fd5b81356020611e40611e3b83611df6565b611d09565b82815260059290921b84018101918181019086841115611e5f57600080fd5b8286015b84811015611e83578035611e7681611b84565b8352918301918301611e63565b509695505050505050565b600082601f830112611e9f57600080fd5b81356020611eaf611e3b83611df6565b82815260059290921b84018101918181019086841115611ece57600080fd5b8286015b84811015611e835780358352918301918301611ed2565b600082601f830112611efa57600080fd5b611b5383833560208501611d3a565b60008060008060008060c08789031215611f2257600080fd5b611f2b87611b99565b9550611f3960208801611b99565b9450604087013567ffffffffffffffff80821115611f5657600080fd5b611f628a838b01611e1a565b95506060890135915080821115611f7857600080fd5b611f848a838b01611e8e565b94506080890135915080821115611f9a57600080fd5b611fa68a838b01611ee9565b935060a0890135915080821115611fbc57600080fd5b50611fc989828a01611ee9565b9150509295509295509295565b600080600080600060a08688031215611fee57600080fd5b8535611ff981611b84565b9450602086013567ffffffffffffffff8082111561201657600080fd5b61202289838a01611e1a565b9550604088013591508082111561203857600080fd5b61204489838a01611e8e565b9450606088013591508082111561205a57600080fd5b61206689838a01611ee9565b9350608088013591508082111561207c57600080fd5b5061208988828901611ee9565b9150509295509295909350565b60006101a082840312156120a957600080fd5b6120b1611cdf565b9050813581526020820135602082015260408201356040820152606082013560608201526080820135608082015260a082013560a082015260c082013560c082015260e082013560e08201526101008083013581830152506101208083013567ffffffffffffffff81111561212557600080fd5b61213185828601611e1a565b828401525050610140612145818401611b99565b9082015261016082810135908201526101809182013591810191909152919050565b803560038110611ba457600080fd5b600080600080600080600080610100898b03121561219357600080fd5b61219c89611b99565b9750602089013567ffffffffffffffff808211156121b957600080fd5b6121c58c838d01612096565b985060408b01359150808211156121db57600080fd5b6121e78c838d01611ee9565b975060608b01359150808211156121fd57600080fd5b6122098c838d01611ee9565b965060808b013591508082111561221f57600080fd5b61222b8c838d01611ee9565b955061223960a08c01612167565b945060c08b013591508082111561224f57600080fd5b5061225c8b828c01611ee9565b92505060e089013590509295985092959890939650565b634e487b7160e01b600052602160045260246000fd5b6003811061229957612299612273565b9052565b60208101611b348284612289565b6000602082840312156122bd57600080fd5b8151611b5381611b84565b6000602082840312156122da57600080fd5b5051919050565b60005b838110156122fc5781810151838201526020016122e4565b50506000910152565b6000815180845261231d8160208601602086016122e1565b601f01601f19169290920160200192915050565b602081526000611b536020830184612305565b60006020828403121561235657600080fd5b81518015158114611b5357600080fd5b84815260208101849052604081018390526101a0810161014083606084013795945050505050565b81835281816020850137506000828201602090810191909152601f909101601f19169091010190565b6005811061229957612299612273565b60018060a01b038916815287602082015260c0604082015260006123ee60c0830189612305565b828103606084015261240181888a61238e565b905061241060808401876123b7565b82810360a084015261242381858761238e565b9b9a5050505050505050505050565b6020808252602c908201527f46756e6374696f6e206d7573742062652063616c6c6564207468726f7567682060408201526b19195b1959d85d1958d85b1b60a21b606082015260800190565b6020808252602c908201527f46756e6374696f6e206d7573742062652063616c6c6564207468726f7567682060408201526b6163746976652070726f787960a01b606082015260800190565b600081518084526020808501945080840160005b838110156125035781516001600160a01b0316875295820195908201906001016124de565b509495945050505050565b60c08152600061252160c08301896124ca565b82810360208481019190915288518083528982019282019060005b818110156125585784518352938301939183019160010161253c565b5050848103604086015261256c818a612305565b9250505061257d60608401876123b7565b828103608084015261258f8186612305565b91505060018060a01b03831660a0830152979650505050505050565b60006101a0825184526020830151602085015260408301516040850152606083015160608501526080830151608085015260a083015160a085015260c083015160c085015260e083015160e085015261010080840151818601525061012080840151828287015261261e838701826124ca565b925050506101408084015161263d828701826001600160a01b03169052565b505061016083810151908501526101809283015192909301919091525090565b60808152600061267060808301876125ab565b905061267f6020830186612289565b60408201939093526060015292915050565b60a0815260006126a460a08301886125ab565b82810360208401526126b68188612305565b90506126c56040840187612289565b82810360608401526126d78186612305565b9150508260808301529695505050505050565b60018060a01b038716815285602082015260c06040820152600061271160c0830187612305565b82810360608401526127238187612305565b905061273260808401866123b7565b82810360a08401526127448185612305565b9998505050505050505050565b6020808252602b908201527f496e697469616c697a61626c653a20636f6e7472616374206973206e6f74206960408201526a6e697469616c697a696e6760a81b606082015260800190565b600082516127ae8184602087016122e1565b919091019291505056fe360894a13ba1a3210667c828492db98dca3e2076cc3735a920a3ca505d382bbc416464726573733a206c6f772d6c6576656c2064656c65676174652063616c6c206661696c6564a26469706673582212205f34bd89815f89395d04ef2fec3f7da9bbe6946e7bbe64d935e3fb799815734b64736f6c63430008110033",
  "linkReferences": {},
  "deployedLinkReferences": {}
}