{
  "_format": "hh-sol-artifact-1",
  "contractName": "Service",
  "sourceName": "contracts/Service.sol",
  "abi": [
    {
      "inputs": [],
      "stateMutability": "nonpayable",
      "type": "constructor"
    },
    {
      "anonymous": false,
      "inputs": [
        {
          "indexed": false,
          "internalType": "address",
          "name": "previousAdmin",
          "type": "address"
        },
        {
          "indexed": false,
          "internalType": "address",
          "name": "newAdmin",
          "type": "address"
        }
      ],
      "name": "AdminChanged",
      "type": "event"
    },
    {
      "anonymous": false,
      "inputs": [
        {
          "indexed": false,
          "internalType": "address",
          "name": "pool",
          "type": "address"
        },
        {
          "indexed": false,
          "internalType": "uint256",
          "name": "proposalId",
          "type": "uint256"
        }
      ],
      "name": "BallotCancelled",
      "type": "event"
    },
    {
      "anonymous": false,
      "inputs": [
        {
          "indexed": true,
          "internalType": "address",
          "name": "beacon",
          "type": "address"
        }
      ],
      "name": "BeaconUpgraded",
      "type": "event"
    },
    {
      "anonymous": false,
      "inputs": [
        {
          "indexed": false,
          "internalType": "address",
          "name": "account",
          "type": "address"
        },
        {
          "indexed": false,
          "internalType": "bool",
          "name": "whitelisted",
          "type": "bool"
        }
      ],
      "name": "ExecutorWhitelistedSet",
      "type": "event"
    },
    {
      "anonymous": false,
      "inputs": [
        {
          "indexed": false,
          "internalType": "address",
          "name": "to",
          "type": "address"
        },
        {
          "indexed": false,
          "internalType": "uint256",
          "name": "amount",
          "type": "uint256"
        }
      ],
      "name": "FeesTransferred",
      "type": "event"
    },
    {
      "anonymous": false,
      "inputs": [
        {
          "indexed": false,
          "internalType": "uint256",
          "name": "ballotQuorumThreshold",
          "type": "uint256"
        },
        {
          "indexed": false,
          "internalType": "uint256",
          "name": "ballotDecisionThreshold",
          "type": "uint256"
        },
        {
          "indexed": false,
          "internalType": "uint256",
          "name": "ballotLifespan",
          "type": "uint256"
        },
        {
          "indexed": false,
          "internalType": "uint256[10]",
          "name": "ballotExecDelay",
          "type": "uint256[10]"
        }
      ],
      "name": "GovernanceSettingsSet",
      "type": "event"
    },
    {
      "anonymous": false,
      "inputs": [
        {
          "indexed": false,
          "internalType": "uint8",
          "name": "version",
          "type": "uint8"
        }
      ],
      "name": "Initialized",
      "type": "event"
    },
    {
      "anonymous": false,
      "inputs": [
        {
          "indexed": false,
          "internalType": "address",
          "name": "account",
          "type": "address"
        },
        {
          "indexed": false,
          "internalType": "bool",
          "name": "whitelisted",
          "type": "bool"
        }
      ],
      "name": "ManagerWhitelistedSet",
      "type": "event"
    },
    {
      "anonymous": false,
      "inputs": [
        {
          "indexed": true,
          "internalType": "address",
          "name": "previousOwner",
          "type": "address"
        },
        {
          "indexed": true,
          "internalType": "address",
          "name": "newOwner",
          "type": "address"
        }
      ],
      "name": "OwnershipTransferred",
      "type": "event"
    },
    {
      "anonymous": false,
      "inputs": [
        {
          "indexed": false,
          "internalType": "address",
          "name": "account",
          "type": "address"
        }
      ],
      "name": "Paused",
      "type": "event"
    },
    {
      "anonymous": false,
      "inputs": [
        {
          "indexed": false,
          "internalType": "address",
          "name": "pool",
          "type": "address"
        },
        {
          "indexed": false,
          "internalType": "address",
          "name": "token",
          "type": "address"
        },
        {
          "indexed": false,
          "internalType": "address",
          "name": "tge",
          "type": "address"
        }
      ],
      "name": "PoolCreated",
      "type": "event"
    },
    {
      "anonymous": false,
      "inputs": [
        {
          "indexed": false,
          "internalType": "address",
          "name": "asset",
          "type": "address"
        }
      ],
      "name": "PrimaryAssetSet",
      "type": "event"
    },
    {
      "anonymous": false,
      "inputs": [
        {
          "indexed": false,
          "internalType": "uint256",
          "name": "protocolTokenFee",
          "type": "uint256"
        }
      ],
      "name": "ProtocolTokenFeeChanged",
      "type": "event"
    },
    {
      "anonymous": false,
      "inputs": [
        {
          "indexed": false,
          "internalType": "address",
          "name": "protocolTreasury",
          "type": "address"
        }
      ],
      "name": "ProtocolTreasuryChanged",
      "type": "event"
    },
    {
      "anonymous": false,
      "inputs": [
        {
          "indexed": false,
          "internalType": "address",
          "name": "asset",
          "type": "address"
        }
      ],
      "name": "SecondaryAssetSet",
      "type": "event"
    },
    {
      "anonymous": false,
      "inputs": [
        {
          "indexed": false,
          "internalType": "address",
          "name": "pool",
          "type": "address"
        },
        {
          "indexed": false,
          "internalType": "address",
          "name": "tge",
          "type": "address"
        },
        {
          "indexed": false,
          "internalType": "address",
          "name": "token",
          "type": "address"
        }
      ],
      "name": "SecondaryTGECreated",
      "type": "event"
    },
    {
      "anonymous": false,
      "inputs": [
        {
          "indexed": false,
          "internalType": "address",
          "name": "account",
          "type": "address"
        }
      ],
      "name": "Unpaused",
      "type": "event"
    },
    {
      "anonymous": false,
      "inputs": [
        {
          "indexed": true,
          "internalType": "address",
          "name": "implementation",
          "type": "address"
        }
      ],
      "name": "Upgraded",
      "type": "event"
    },
    {
      "anonymous": false,
      "inputs": [
        {
          "indexed": false,
          "internalType": "address",
          "name": "account",
          "type": "address"
        },
        {
          "indexed": false,
          "internalType": "bool",
          "name": "whitelisted",
          "type": "bool"
        }
      ],
      "name": "UserWhitelistedSet",
      "type": "event"
    },
    {
      "inputs": [
        {
          "internalType": "enum IDispatcher.EventType",
          "name": "eventType",
          "type": "uint8"
        },
        {
          "internalType": "uint256",
          "name": "proposalId",
          "type": "uint256"
        },
        {
          "internalType": "string",
          "name": "metaHash",
          "type": "string"
        }
      ],
      "name": "addEvent",
      "outputs": [],
      "stateMutability": "nonpayable",
      "type": "function"
    },
    {
      "inputs": [
        {
          "internalType": "address",
          "name": "account",
          "type": "address"
        }
      ],
      "name": "addExecutorToWhitelist",
      "outputs": [],
      "stateMutability": "nonpayable",
      "type": "function"
    },
    {
      "inputs": [
        {
          "internalType": "address",
          "name": "account",
          "type": "address"
        }
      ],
      "name": "addManagerToWhitelist",
      "outputs": [],
      "stateMutability": "nonpayable",
      "type": "function"
    },
    {
      "inputs": [
        {
          "internalType": "uint256",
          "name": "proposalId",
          "type": "uint256"
        }
      ],
      "name": "addProposal",
      "outputs": [],
      "stateMutability": "nonpayable",
      "type": "function"
    },
    {
      "inputs": [
        {
          "internalType": "address",
          "name": "account",
          "type": "address"
        }
      ],
      "name": "addUserToWhitelist",
      "outputs": [],
      "stateMutability": "nonpayable",
      "type": "function"
    },
    {
      "inputs": [],
      "name": "ballotDecisionThreshold",
      "outputs": [
        {
          "internalType": "uint256",
          "name": "",
          "type": "uint256"
        }
      ],
      "stateMutability": "view",
      "type": "function"
    },
    {
      "inputs": [
        {
          "internalType": "uint256",
          "name": "",
          "type": "uint256"
        }
      ],
      "name": "ballotExecDelay",
      "outputs": [
        {
          "internalType": "uint256",
          "name": "",
          "type": "uint256"
        }
      ],
      "stateMutability": "view",
      "type": "function"
    },
    {
      "inputs": [],
      "name": "ballotLifespan",
      "outputs": [
        {
          "internalType": "uint256",
          "name": "",
          "type": "uint256"
        }
      ],
      "stateMutability": "view",
      "type": "function"
    },
    {
      "inputs": [],
      "name": "ballotQuorumThreshold",
      "outputs": [
        {
          "internalType": "uint256",
          "name": "",
          "type": "uint256"
        }
      ],
      "stateMutability": "view",
      "type": "function"
    },
    {
      "inputs": [
        {
          "internalType": "address",
          "name": "_pool",
          "type": "address"
        },
        {
          "internalType": "uint256",
          "name": "proposalId",
          "type": "uint256"
        }
      ],
      "name": "cancelBallot",
      "outputs": [],
      "stateMutability": "nonpayable",
      "type": "function"
    },
    {
      "inputs": [
        {
          "internalType": "contract IPool",
          "name": "pool",
          "type": "address"
        },
        {
          "components": [
            {
              "internalType": "string",
              "name": "symbol",
              "type": "string"
            },
            {
              "internalType": "uint256",
              "name": "cap",
              "type": "uint256"
            }
          ],
          "internalType": "struct IToken.TokenInfo",
          "name": "tokenInfo",
          "type": "tuple"
        },
        {
          "components": [
            {
              "internalType": "uint256",
              "name": "price",
              "type": "uint256"
            },
            {
              "internalType": "uint256",
              "name": "hardcap",
              "type": "uint256"
            },
            {
              "internalType": "uint256",
              "name": "softcap",
              "type": "uint256"
            },
            {
              "internalType": "uint256",
              "name": "minPurchase",
              "type": "uint256"
            },
            {
              "internalType": "uint256",
              "name": "maxPurchase",
              "type": "uint256"
            },
            {
              "internalType": "uint256",
              "name": "vestingPercent",
              "type": "uint256"
            },
            {
              "internalType": "uint256",
              "name": "vestingDuration",
              "type": "uint256"
            },
            {
              "internalType": "uint256",
              "name": "vestingTVL",
              "type": "uint256"
            },
            {
              "internalType": "uint256",
              "name": "duration",
              "type": "uint256"
            },
            {
              "internalType": "address[]",
              "name": "userWhitelist",
              "type": "address[]"
            },
            {
              "internalType": "address",
              "name": "unitOfAccount",
              "type": "address"
            },
            {
              "internalType": "uint256",
              "name": "lockupDuration",
              "type": "uint256"
            },
            {
              "internalType": "uint256",
              "name": "lockupTVL",
              "type": "uint256"
            }
          ],
          "internalType": "struct ITGE.TGEInfo",
          "name": "tgeInfo",
          "type": "tuple"
        },
        {
          "internalType": "uint256[3]",
          "name": "ballotSettings",
          "type": "uint256[3]"
        },
        {
          "internalType": "uint256",
          "name": "jurisdiction",
          "type": "uint256"
        },
        {
          "internalType": "uint256[10]",
          "name": "ballotExecDelay_",
          "type": "uint256[10]"
        },
        {
          "internalType": "string",
          "name": "trademark",
          "type": "string"
        },
        {
          "internalType": "uint256",
          "name": "entityType",
          "type": "uint256"
        },
        {
          "internalType": "string",
          "name": "metadataURI",
          "type": "string"
        }
      ],
      "name": "createPool",
      "outputs": [],
      "stateMutability": "payable",
      "type": "function"
    },
    {
      "inputs": [
        {
          "components": [
            {
              "internalType": "uint256",
              "name": "price",
              "type": "uint256"
            },
            {
              "internalType": "uint256",
              "name": "hardcap",
              "type": "uint256"
            },
            {
              "internalType": "uint256",
              "name": "softcap",
              "type": "uint256"
            },
            {
              "internalType": "uint256",
              "name": "minPurchase",
              "type": "uint256"
            },
            {
              "internalType": "uint256",
              "name": "maxPurchase",
              "type": "uint256"
            },
            {
              "internalType": "uint256",
              "name": "vestingPercent",
              "type": "uint256"
            },
            {
              "internalType": "uint256",
              "name": "vestingDuration",
              "type": "uint256"
            },
            {
              "internalType": "uint256",
              "name": "vestingTVL",
              "type": "uint256"
            },
            {
              "internalType": "uint256",
              "name": "duration",
              "type": "uint256"
            },
            {
              "internalType": "address[]",
              "name": "userWhitelist",
              "type": "address[]"
            },
            {
              "internalType": "address",
              "name": "unitOfAccount",
              "type": "address"
            },
            {
              "internalType": "uint256",
              "name": "lockupDuration",
              "type": "uint256"
            },
            {
              "internalType": "uint256",
              "name": "lockupTVL",
              "type": "uint256"
            }
          ],
          "internalType": "struct ITGE.TGEInfo",
          "name": "tgeInfo",
          "type": "tuple"
        },
        {
          "internalType": "string",
          "name": "metadataURI",
          "type": "string"
        },
        {
          "internalType": "enum IToken.TokenType",
          "name": "tokenType",
          "type": "uint8"
        },
        {
          "internalType": "string",
          "name": "tokenDescription",
          "type": "string"
        },
        {
          "internalType": "uint256",
          "name": "preferenceTokenCap",
          "type": "uint256"
        }
      ],
      "name": "createSecondaryTGE",
      "outputs": [],
      "stateMutability": "nonpayable",
      "type": "function"
    },
    {
      "inputs": [],
      "name": "dispatcher",
      "outputs": [
        {
          "internalType": "contract IDispatcher",
          "name": "",
          "type": "address"
        }
      ],
      "stateMutability": "view",
      "type": "function"
    },
    {
      "inputs": [],
      "name": "getBallotExecDelay",
      "outputs": [
        {
          "internalType": "uint256[10]",
          "name": "",
          "type": "uint256[10]"
        }
      ],
      "stateMutability": "view",
      "type": "function"
    },
    {
      "inputs": [
        {
          "internalType": "address",
          "name": "_pool",
          "type": "address"
        }
      ],
      "name": "getMaxHardCap",
      "outputs": [
        {
          "internalType": "uint256",
          "name": "",
          "type": "uint256"
        }
      ],
      "stateMutability": "view",
      "type": "function"
    },
    {
      "inputs": [],
      "name": "getMinSoftCap",
      "outputs": [
        {
          "internalType": "uint256",
          "name": "",
          "type": "uint256"
        }
      ],
      "stateMutability": "view",
      "type": "function"
    },
    {
      "inputs": [
        {
          "internalType": "uint256",
          "name": "amount",
          "type": "uint256"
        }
      ],
      "name": "getProtocolTokenFee",
      "outputs": [
        {
          "internalType": "uint256",
          "name": "",
          "type": "uint256"
        }
      ],
      "stateMutability": "view",
      "type": "function"
    },
    {
      "inputs": [
        {
          "internalType": "contract IDispatcher",
          "name": "dispatcher_",
          "type": "address"
        },
        {
          "internalType": "address",
          "name": "poolBeacon_",
          "type": "address"
        },
        {
          "internalType": "address",
          "name": "tokenBeacon_",
          "type": "address"
        },
        {
          "internalType": "address",
          "name": "tgeBeacon_",
          "type": "address"
        },
        {
          "internalType": "address",
          "name": "proposalGateway_",
          "type": "address"
        },
        {
          "internalType": "uint256[13]",
          "name": "ballotParams",
          "type": "uint256[13]"
        },
        {
          "internalType": "contract ISwapRouter",
          "name": "uniswapRouter_",
          "type": "address"
        },
        {
          "internalType": "contract IQuoter",
          "name": "uniswapQuoter_",
          "type": "address"
        },
        {
          "internalType": "uint256",
          "name": "protocolTokenFee_",
          "type": "uint256"
        }
      ],
      "name": "initialize",
      "outputs": [],
      "stateMutability": "nonpayable",
      "type": "function"
    },
    {
      "inputs": [
        {
          "internalType": "address",
          "name": "account",
          "type": "address"
        }
      ],
      "name": "isExecutorWhitelisted",
      "outputs": [
        {
          "internalType": "bool",
          "name": "",
          "type": "bool"
        }
      ],
      "stateMutability": "view",
      "type": "function"
    },
    {
      "inputs": [
        {
          "internalType": "address",
          "name": "account",
          "type": "address"
        }
      ],
      "name": "isManagerWhitelisted",
      "outputs": [
        {
          "internalType": "bool",
          "name": "",
          "type": "bool"
        }
      ],
      "stateMutability": "view",
      "type": "function"
    },
    {
      "inputs": [
        {
          "internalType": "address",
          "name": "account",
          "type": "address"
        }
      ],
      "name": "isUserWhitelisted",
      "outputs": [
        {
          "internalType": "bool",
          "name": "",
          "type": "bool"
        }
      ],
      "stateMutability": "view",
      "type": "function"
    },
    {
      "inputs": [],
      "name": "owner",
      "outputs": [
        {
          "internalType": "address",
          "name": "",
          "type": "address"
        }
      ],
      "stateMutability": "view",
      "type": "function"
    },
    {
      "inputs": [],
      "name": "pause",
      "outputs": [],
      "stateMutability": "nonpayable",
      "type": "function"
    },
    {
      "inputs": [],
      "name": "paused",
      "outputs": [
        {
          "internalType": "bool",
          "name": "",
          "type": "bool"
        }
      ],
      "stateMutability": "view",
      "type": "function"
    },
    {
      "inputs": [],
      "name": "poolBeacon",
      "outputs": [
        {
          "internalType": "address",
          "name": "",
          "type": "address"
        }
      ],
      "stateMutability": "view",
      "type": "function"
    },
    {
      "inputs": [],
      "name": "primaryAsset",
      "outputs": [
        {
          "internalType": "address",
          "name": "",
          "type": "address"
        }
      ],
      "stateMutability": "view",
      "type": "function"
    },
    {
      "inputs": [],
      "name": "proposalGateway",
      "outputs": [
        {
          "internalType": "address",
          "name": "",
          "type": "address"
        }
      ],
      "stateMutability": "view",
      "type": "function"
    },
    {
      "inputs": [],
      "name": "protocolTokenFee",
      "outputs": [
        {
          "internalType": "uint256",
          "name": "",
          "type": "uint256"
        }
      ],
      "stateMutability": "view",
      "type": "function"
    },
    {
      "inputs": [],
      "name": "protocolTreasury",
      "outputs": [
        {
          "internalType": "address",
          "name": "",
          "type": "address"
        }
      ],
      "stateMutability": "view",
      "type": "function"
    },
    {
      "inputs": [],
      "name": "proxiableUUID",
      "outputs": [
        {
          "internalType": "bytes32",
          "name": "",
          "type": "bytes32"
        }
      ],
      "stateMutability": "view",
      "type": "function"
    },
    {
      "inputs": [
        {
          "internalType": "address",
          "name": "account",
          "type": "address"
        }
      ],
      "name": "removeExecutorFromWhitelist",
      "outputs": [],
      "stateMutability": "nonpayable",
      "type": "function"
    },
    {
      "inputs": [
        {
          "internalType": "address",
          "name": "account",
          "type": "address"
        }
      ],
      "name": "removeManagerFromWhitelist",
      "outputs": [],
      "stateMutability": "nonpayable",
      "type": "function"
    },
    {
      "inputs": [
        {
          "internalType": "address",
          "name": "account",
          "type": "address"
        }
      ],
      "name": "removeUserFromWhitelist",
      "outputs": [],
      "stateMutability": "nonpayable",
      "type": "function"
    },
    {
      "inputs": [],
      "name": "renounceOwnership",
      "outputs": [],
      "stateMutability": "nonpayable",
      "type": "function"
    },
    {
      "inputs": [],
      "name": "secondaryAsset",
      "outputs": [
        {
          "internalType": "address",
          "name": "",
          "type": "address"
        }
      ],
      "stateMutability": "view",
      "type": "function"
    },
    {
      "inputs": [
        {
          "internalType": "uint256",
          "name": "ballotQuorumThreshold_",
          "type": "uint256"
        },
        {
          "internalType": "uint256",
          "name": "ballotDecisionThreshold_",
          "type": "uint256"
        },
        {
          "internalType": "uint256",
          "name": "ballotLifespan_",
          "type": "uint256"
        },
        {
          "internalType": "uint256[10]",
          "name": "ballotExecDelay_",
          "type": "uint256[10]"
        }
      ],
      "name": "setGovernanceSettings",
      "outputs": [],
      "stateMutability": "nonpayable",
      "type": "function"
    },
    {
      "inputs": [
        {
          "internalType": "address",
          "name": "primaryAsset_",
          "type": "address"
        }
      ],
      "name": "setPrimaryAsset",
      "outputs": [],
      "stateMutability": "nonpayable",
      "type": "function"
    },
    {
      "inputs": [
        {
          "internalType": "uint256",
          "name": "_protocolTokenFee",
          "type": "uint256"
        }
      ],
      "name": "setProtocolTokenFee",
      "outputs": [],
      "stateMutability": "nonpayable",
      "type": "function"
    },
    {
      "inputs": [
        {
          "internalType": "address",
          "name": "_protocolTreasury",
          "type": "address"
        }
      ],
      "name": "setProtocolTreasury",
      "outputs": [],
      "stateMutability": "nonpayable",
      "type": "function"
    },
    {
      "inputs": [
        {
          "internalType": "address",
          "name": "secondaryAsset_",
          "type": "address"
        }
      ],
      "name": "setSecondaryAsset",
      "outputs": [],
      "stateMutability": "nonpayable",
      "type": "function"
    },
    {
      "inputs": [],
      "name": "tgeBeacon",
      "outputs": [
        {
          "internalType": "address",
          "name": "",
          "type": "address"
        }
      ],
      "stateMutability": "view",
      "type": "function"
    },
    {
      "inputs": [],
      "name": "tokenBeacon",
      "outputs": [
        {
          "internalType": "address",
          "name": "",
          "type": "address"
        }
      ],
      "stateMutability": "view",
      "type": "function"
    },
    {
      "inputs": [],
      "name": "tokenWhitelist",
      "outputs": [
        {
          "internalType": "address[]",
          "name": "",
          "type": "address[]"
        }
      ],
      "stateMutability": "view",
      "type": "function"
    },
    {
      "inputs": [
        {
          "internalType": "address",
          "name": "to",
          "type": "address"
        }
      ],
      "name": "transferCollectedFees",
      "outputs": [],
      "stateMutability": "nonpayable",
      "type": "function"
    },
    {
      "inputs": [
        {
          "internalType": "address",
          "name": "newOwner",
          "type": "address"
        }
      ],
      "name": "transferOwnership",
      "outputs": [],
      "stateMutability": "nonpayable",
      "type": "function"
    },
    {
      "inputs": [],
      "name": "uniswapQuoter",
      "outputs": [
        {
          "internalType": "contract IQuoter",
          "name": "",
          "type": "address"
        }
      ],
      "stateMutability": "view",
      "type": "function"
    },
    {
      "inputs": [],
      "name": "uniswapRouter",
      "outputs": [
        {
          "internalType": "contract ISwapRouter",
          "name": "",
          "type": "address"
        }
      ],
      "stateMutability": "view",
      "type": "function"
    },
    {
      "inputs": [],
      "name": "unpause",
      "outputs": [],
      "stateMutability": "nonpayable",
      "type": "function"
    },
    {
      "inputs": [
        {
          "internalType": "address",
          "name": "newImplementation",
          "type": "address"
        }
      ],
      "name": "upgradeTo",
      "outputs": [],
      "stateMutability": "nonpayable",
      "type": "function"
    },
    {
      "inputs": [
        {
          "internalType": "address",
          "name": "newImplementation",
          "type": "address"
        },
        {
          "internalType": "bytes",
          "name": "data",
          "type": "bytes"
        }
      ],
      "name": "upgradeToAndCall",
      "outputs": [],
      "stateMutability": "payable",
      "type": "function"
    },
    {
      "inputs": [],
      "name": "userWhitelist",
      "outputs": [
        {
          "internalType": "address[]",
          "name": "",
          "type": "address[]"
        }
      ],
      "stateMutability": "view",
      "type": "function"
    },
    {
      "inputs": [
        {
          "internalType": "uint256",
          "name": "index",
          "type": "uint256"
        }
      ],
      "name": "userWhitelistAt",
      "outputs": [
        {
          "internalType": "address",
          "name": "",
          "type": "address"
        }
      ],
      "stateMutability": "view",
      "type": "function"
    },
    {
      "inputs": [],
      "name": "userWhitelistLength",
      "outputs": [
        {
          "internalType": "uint256",
          "name": "",
          "type": "uint256"
        }
      ],
      "stateMutability": "view",
      "type": "function"
    }
  ],
  "bytecode": "0x60a0604052306080523480156200001557600080fd5b506200002062000026565b620000e8565b600054610100900460ff1615620000935760405162461bcd60e51b815260206004820152602760248201527f496e697469616c697a61626c653a20636f6e747261637420697320696e697469604482015266616c697a696e6760c81b606482015260840160405180910390fd5b60005460ff9081161015620000e6576000805460ff191660ff9081179091556040519081527f7f26b83ff96e1f2b6a682f133852f6798a09c465da95921460cefb38474024989060200160405180910390a15b565b608051615b3762000120600039600081816110c20152818161110501528181611bc801528181611c0b0152611e400152615b376000f3fe6080604052600436106200035c5760003560e01c8063803db96d11620001ce578063c5a7b2ea116200010b578063dedcd30711620000a1578063e76829281162000078578063e768292814620009f3578063f2fde38b1462000a0b578063f9902bb11462000a30578063fb237eb21462000a5557600080fd5b8063dedcd3071462000986578063e58d777a14620009ab578063e64b2afa14620009ce57600080fd5b8063ccf5a77c11620000e2578063ccf5a77c1462000901578063ce254a351462000924578063d3d406171462000949578063dad01e5b146200096e57600080fd5b8063c5a7b2ea14620008a3578063ca735cc114620008c6578063cb7e905714620008de57600080fd5b80639d838ad31162000181578063b677bc691162000158578063b677bc69146200081b578063b8d57ada1462000840578063bc7a4ead1462000865578063bfe130af146200087e57600080fd5b80639d838ad314620007aa578063a368947114620007cf578063a66e53c914620007f457600080fd5b8063803db96d14620006e65780638456cb591462000709578063879010f414620007215780638da5cb5b146200074657806394218737146200075e5780639459c173146200078557600080fd5b80634db4a352116200029d5780635a1ef51b1162000250578063715018a61162000227578063715018a6146200066d578063735de9f71462000685578063747b805014620006a85780637c905b7714620006cd57600080fd5b80635a1ef51b14620006095780635c975abb146200062e5780636410bb80146200064857600080fd5b80634db4a35214620005565780634e95c1b714620005795780634f1ef28614620005905780635063774414620005a7578063515f723c14620005cc57806352d1902d14620005f157600080fd5b80631e101a3d11620003135780633a6596bd11620002ea5780633a6596bd14620004d15780633f4ba83a14620004f45780633fec91a4146200050c578063476aa1ea146200053157600080fd5b80631e101a3d146200046e578063359146e814620004935780633659cfe614620004ac57600080fd5b806301569ab0146200036157806303700be814620003a157806304e31dfb14620003c95780630abaeddd14620003ec5780630c5a61f81462000422578063143a862a1462000449575b600080fd5b3480156200036e57600080fd5b506101305462000384906001600160a01b031681565b6040516001600160a01b0390911681526020015b60405180910390f35b348015620003ae57600080fd5b50620003ba61013a5481565b60405190815260200162000398565b348015620003d657600080fd5b506101315462000384906001600160a01b031681565b348015620003f957600080fd5b50620004116200040b36600462004049565b62000a96565b604051901515815260200162000398565b3480156200042f57600080fd5b50620004476200044136600462004049565b62000ab9565b005b3480156200045657600080fd5b50620004476200046836600462004069565b62000b70565b3480156200047b57600080fd5b50620004116200048d36600462004049565b62001096565b348015620004a057600080fd5b50620003ba6101345481565b348015620004b957600080fd5b5062000447620004cb36600462004049565b620010b8565b348015620004de57600080fd5b506101465462000384906001600160a01b031681565b3480156200050157600080fd5b5062000447620011a3565b3480156200051957600080fd5b50620004476200052b36600462004131565b620011b9565b3480156200053e57600080fd5b50620003ba6200055036600462004131565b62001309565b3480156200056357600080fd5b506101365462000384906001600160a01b031681565b620004476200058a3660046200450e565b62001322565b62000447620005a136600462004617565b62001bbe565b348015620005b457600080fd5b5062000447620005c636600462004681565b62001c96565b348015620005d957600080fd5b5062000447620005eb366004620046b0565b62001d43565b348015620005fe57600080fd5b50620003ba62001e33565b3480156200061657600080fd5b50620004476200062836600462004049565b62001ee9565b3480156200063b57600080fd5b5060fb5460ff1662000411565b3480156200065557600080fd5b50620004476200066736600462004049565b62001f43565b3480156200067a57600080fd5b506200044762001fe9565b3480156200069257600080fd5b506101355462000384906001600160a01b031681565b348015620006b557600080fd5b5062000447620006c736600462004049565b62001fff565b348015620006da57600080fd5b50620003ba6101335481565b348015620006f357600080fd5b506101395462000384906001600160a01b031681565b3480156200071657600080fd5b506200044762002115565b3480156200072e57600080fd5b50620004476200074036600462004049565b62002129565b3480156200075357600080fd5b50620003846200226d565b3480156200076b57600080fd5b506200077662002287565b604051620003989190620046f9565b3480156200079257600080fd5b5062000384620007a436600462004131565b62002296565b348015620007b757600080fd5b50620003ba620007c936600462004131565b620022a6565b348015620007dc57600080fd5b50620003ba620007ee36600462004049565b6200235c565b3480156200080157600080fd5b506200080c62002634565b6040516200039891906200476d565b3480156200082857600080fd5b50620004476200083a3660046200478c565b62002674565b3480156200084d57600080fd5b50620004476200085f36600462004049565b620027cf565b3480156200087257600080fd5b50620003ba6101325481565b3480156200088b57600080fd5b50620004476200089d36600462004829565b62002875565b348015620008b057600080fd5b5061012e5462000384906001600160a01b031681565b348015620008d357600080fd5b506200077662003222565b348015620008eb57600080fd5b5061012d5462000384906001600160a01b031681565b3480156200090e57600080fd5b5061012f5462000384906001600160a01b031681565b3480156200093157600080fd5b50620004476200094336600462004049565b62003298565b3480156200095657600080fd5b50620004476200096836600462004049565b620032f2565b3480156200097b57600080fd5b50620003ba6200339c565b3480156200099357600080fd5b5062000447620009a536600462004131565b620033ab565b348015620009b857600080fd5b506101455462000384906001600160a01b031681565b348015620009db57600080fd5b5062000447620009ed36600462004049565b62003438565b34801562000a0057600080fd5b50620003ba620034e2565b34801562000a1857600080fd5b506200044762000a2a36600462004049565b620034f8565b34801562000a3d57600080fd5b506200044762000a4f36600462004049565b62003574565b34801562000a6257600080fd5b506200041162000a7436600462004049565b6001600160a01b03811660009081526101386020526040812054151562000ab3565b6001600160a01b038116600090815261014a602052604081205415155b92915050565b62000ac36200368e565b60408051808201909152600c81526b414444524553535f5a45524f60a01b60208201526001600160a01b03821662000b195760405162461bcd60e51b815260040162000b10919062004935565b60405180910390fd5b5061013980546001600160a01b0319166001600160a01b0383169081179091556040519081527f48919a8bb9d5ad92fa352adb62046eaabb006b67ba2fcf7566ed0879ab5a27c3906020015b60405180910390a150565b600054610100900460ff161580801562000b915750600054600160ff909116105b8062000bad5750303b15801562000bad575060005460ff166001145b62000c125760405162461bcd60e51b815260206004820152602e60248201527f496e697469616c697a61626c653a20636f6e747261637420697320616c72656160448201526d191e481a5b9a5d1a585b1a5e995960921b606482015260840162000b10565b6000805460ff19166001179055801562000c36576000805461ff0019166101001790555b60408051808201909152600c81526b414444524553535f5a45524f60a01b60208201526001600160a01b038b1662000c835760405162461bcd60e51b815260040162000b10919062004935565b5060408051808201909152600c81526b414444524553535f5a45524f60a01b60208201526001600160a01b038a1662000cd15760405162461bcd60e51b815260040162000b10919062004935565b5060408051808201909152600c81526b414444524553535f5a45524f60a01b60208201526001600160a01b03891662000d1f5760405162461bcd60e51b815260040162000b10919062004935565b5060408051808201909152600c81526b414444524553535f5a45524f60a01b60208201526001600160a01b03881662000d6d5760405162461bcd60e51b815260040162000b10919062004935565b5060408051808201909152600c81526b414444524553535f5a45524f60a01b60208201526001600160a01b03871662000dbb5760405162461bcd60e51b815260040162000b10919062004935565b5060408051808201909152600c81526b414444524553535f5a45524f60a01b60208201526001600160a01b03851662000e095760405162461bcd60e51b815260040162000b10919062004935565b5060408051808201909152600c81526b414444524553535f5a45524f60a01b60208201526001600160a01b03841662000e575760405162461bcd60e51b815260040162000b10919062004935565b5062000e62620036f1565b62000e6c62003725565b61012d80546001600160a01b03199081166001600160a01b038d81169190911790925561012e805482168c841617905561012f805482168b8416179055610130805482168a84161790556101318054909116918816919091179055843561013255602080860135610133556040808701356101345580516101408101825260608801358152608088013592810192909252810186600560200201358152602001866006600d811062000f225762000f226200494a565b60200201358152602001866007600d811062000f425762000f426200494a565b60200201358152602001866008600d811062000f625762000f626200494a565b60200201358152602001866009600d811062000f825762000f826200494a565b6020020135815260200186600a600d811062000fa25762000fa26200494a565b6020020135815260200186600b600d811062000fc25762000fc26200494a565b6020020135815260200186600c600d811062000fe25762000fe26200494a565b6020020135905262000ffa9061013b90600a62003f69565b5061013580546001600160a01b038087166001600160a01b031992831617909255610136805492861692909116919091179055620010383062000ab9565b6200104382620033ab565b80156200108a576000805461ff0019169055604051600181527f7f26b83ff96e1f2b6a682f133852f6798a09c465da95921460cefb38474024989060200160405180910390a15b50505050505050505050565b6001600160a01b03811660009081526101486020526040812054151562000ab3565b6001600160a01b037f0000000000000000000000000000000000000000000000000000000000000000163003620011035760405162461bcd60e51b815260040162000b109062004960565b7f00000000000000000000000000000000000000000000000000000000000000006001600160a01b03166200114e60008051602062005abb833981519152546001600160a01b031690565b6001600160a01b031614620011775760405162461bcd60e51b815260040162000b1090620049ac565b62001182816200374f565b60408051600080825260208201909252620011a09183919062003759565b50565b620011ad6200368e565b620011b7620038d6565b565b61012d54604051630db9619f60e31b81523360048201526001916001600160a01b031690636dcb0cf890602401602060405180830381865afa15801562001204573d6000803e3d6000fd5b505050506040513d601f19601f820116820180604052508101906200122a919062004a0e565b60048111156200123e576200123e620049f8565b14604051806040016040528060088152602001671393d517d413d3d360c21b81525090620012815760405162461bcd60e51b815260040162000b10919062004935565b506200128c6200392a565b61012d5460405163f4be936960e01b8152336004820152602481018390526001600160a01b039091169063f4be9369906044016020604051808303816000875af1158015620012df573d6000803e3d6000fd5b505050506040513d601f19601f8201168201806040525081019062001305919062004a2e565b5050565b61013b81600a81106200131b57600080fd5b0154905081565b6200132c62003972565b620013366200392a565b670de0b6b3a7640000886020015110156040518060400160405280600b81526020016a0494e56414c49445f4341560ac1b815250906200138b5760405162461bcd60e51b815260040162000b10919062004935565b506200139b8860200151620022a6565b88602001818151620013ae919062004a5e565b90525061012d546001600160a01b03908116908a16620015d157620013ef336001600160a01b03811660009081526101386020526040812054151562000ab3565b6040518060400160405280600f81526020016e1393d517d5d2125511531254d51151608a1b81525090620014385760405162461bcd60e51b815260040162000b10919062004935565b50604051637e89ed2760e01b8152600481018790526024810184905260009081906001600160a01b03841690637e89ed279060440160408051808303816000875af11580156200148c573d6000803e3d6000fd5b505050506040513d601f19601f82011682018060405250810190620014b2919062004a74565b60408051808201909152600a8152694e4f5f434f4d50414e5960b01b602082015291935091506001600160a01b038316620015025760405162461bcd60e51b815260040162000b10919062004935565b50604080518082019091526014815273125390d3d4949150d517d1551217d41054d4d15160621b6020820152348214620015515760405162461bcd60e51b815260040162000b10919062004935565b50885160208a01516040808c015190516366103c1760e11b8152949e508e946001600160a01b0386169363cc20782e93620015959333938e908e9060040162004aa5565b600060405180830381600087803b158015620015b057600080fd5b505af1158015620015c5573d6000803e3d6000fd5b50505050505062001802565b6001604051630db9619f60e31b81526001600160a01b038c81166004830152831690636dcb0cf890602401602060405180830381865afa1580156200161a573d6000803e3d6000fd5b505050506040513d601f19601f8201168201806040525081019062001640919062004a0e565b6004811115620016545762001654620049f8565b14604051806040016040528060088152602001671393d517d413d3d360c21b81525090620016975760405162461bcd60e51b815260040162000b10919062004935565b50896001600160a01b0316638da5cb5b6040518163ffffffff1660e01b8152600401602060405180830381865afa158015620016d7573d6000803e3d6000fd5b505050506040513d601f19601f82011682018060405250810190620016fd919062004afc565b6001600160a01b0316336001600160a01b0316146040518060400160405280600e81526020016d2727aa2fa827a7a62fa7aba722a960911b81525090620017595760405162461bcd60e51b815260040162000b10919062004935565b50896001600160a01b031663e47bfee86040518163ffffffff1660e01b8152600401602060405180830381865afa15801562001799573d6000803e3d6000fd5b505050506040513d601f19601f82011682018060405250810190620017bf919062004b1c565b156040518060400160405280600681526020016549535f44414f60d01b81525090620018005760405162461bcd60e51b815260040162000b10919062004935565b505b61012f546040516000916001600160a01b031690620018219062003fac565b6200182d919062004b40565b604051809103906000f0801580156200184a573d6000803e3d6000fd5b50604051631f8b400560e01b81529091506001600160a01b03831690631f8b4005906200187f90849060029060040162004b76565b6020604051808303816000875af11580156200189f573d6000803e3d6000fd5b505050506040513d601f19601f82011682018060405250810190620018c5919062004a2e565b50610130546040516000916001600160a01b031690620018e59062003fac565b620018f1919062004b40565b604051809103906000f0801580156200190e573d6000803e3d6000fd5b50604051631f8b400560e01b81529091506001600160a01b03841690631f8b400590620019449084906004908990820162004bac565b6020604051808303816000875af115801562001964573d6000803e3d6000fd5b505050506040513d601f19601f820116820180604052508101906200198a919062004a2e565b506040516308c2f38b60e31b81526001600160a01b038416906346179c5890620019bf908f9060039060009060040162004be1565b6020604051808303816000875af1158015620019df573d6000803e3d6000fd5b505050506040513d601f19601f8201168201806040525081019062001a05919062004a2e565b50816001600160a01b031663c63ee3158d8d600001518e602001516001866040518663ffffffff1660e01b815260040162001a4595949392919062004c33565b600060405180830381600087803b15801562001a6057600080fd5b505af115801562001a75573d6000803e3d6000fd5b505060405163c4767b9560e01b81526001600160a01b038f16925063c4767b95915062001aaa90859060019060040162004c8c565b600060405180830381600087803b15801562001ac557600080fd5b505af115801562001ada573d6000803e3d6000fd5b5050604051632c4e8d5560e01b81526001600160a01b0384169250632c4e8d55915062001b0e9085908e9060040162004cf1565b600060405180830381600087803b15801562001b2957600080fd5b505af115801562001b3e573d6000803e3d6000fd5b5050505062001b5933610137620039cd90919063ffffffff16565b50604080516001600160a01b038e81168252848116602083015283168183015290517f9c5d829b9b23efc461f9aeef91979ec04bb903feb3bee4f26d22114abfc7335b9181900360600190a150505062001bb3600160c955565b505050505050505050565b6001600160a01b037f000000000000000000000000000000000000000000000000000000000000000016300362001c095760405162461bcd60e51b815260040162000b109062004960565b7f00000000000000000000000000000000000000000000000000000000000000006001600160a01b031662001c5460008051602062005abb833981519152546001600160a01b031690565b6001600160a01b03161462001c7d5760405162461bcd60e51b815260040162000b1090620049ac565b62001c88826200374f565b620013058282600162003759565b62001ca06200368e565b6040516323681e3d60e01b8152600481018290526001600160a01b038316906323681e3d90602401600060405180830381600087803b15801562001ce357600080fd5b505af115801562001cf8573d6000803e3d6000fd5b5050604080516001600160a01b0386168152602081018590527fde9bff10d975f36f37bd74e0737edc2136e2a13e2896da1077b8b0804e5a7d91935001905060405180910390a15050565b62001d4d6200368e565b61012d546040516341a453e160e01b81526001600160a01b03909116906341a453e19062001d8690879087908790879060040162004dcb565b602060405180830381865afa15801562001da4573d6000803e3d6000fd5b505050506040513d601f19601f8201168201806040525081019062001dca919062004b1c565b5061013284905561013383905561013482905562001ded61013b82600a62003fba565b507fbb9ef068c024171e5652a9a8446b33265c42ce6735ae3f75c5c3a7b323d97c178484848460405162001e25949392919062004dcb565b60405180910390a150505050565b6000306001600160a01b037f0000000000000000000000000000000000000000000000000000000000000000161462001ed55760405162461bcd60e51b815260206004820152603860248201527f555550535570677261646561626c653a206d757374206e6f742062652063616c60448201527f6c6564207468726f7567682064656c656761746563616c6c0000000000000000606482015260840162000b10565b5060008051602062005abb83398151915290565b62001ef36200368e565b61014580546001600160a01b0319166001600160a01b0383169081179091556040519081527f9c8d11d4f3de472f91a0acda2b0dc57d128170373abfde3e08bb0ab7e28e4bab9060200162000b65565b62001f4d6200368e565b62001f5b61014982620039e4565b604051806040016040528060138152602001721053149150511657d5d2125511531254d51151606a1b8152509062001fa85760405162461bcd60e51b815260040162000b10919062004935565b50604080516001600160a01b0383168152600160208201527f15f6d0b673e901c73e128db3edc1e29dedcfc6f12c40b37beb689ae240829d76910162000b65565b62001ff36200368e565b620011b76000620039fb565b620020096200226d565b6001600160a01b0316336001600160a01b031614806200202f57506200202f3362001096565b6040518060400160405280600f81526020016e1393d517d5d2125511531254d51151608a1b81525090620020785760405162461bcd60e51b815260040162000b10919062004935565b506200208761013782620039e4565b604051806040016040528060138152602001721053149150511657d5d2125511531254d51151606a1b81525090620020d45760405162461bcd60e51b815260040162000b10919062004935565b50604080516001600160a01b0383168152600160208201527fdf3714d6f88cdae2b889250b70116def7fb5083073c65cce38b56d2b0b0ef64e910162000b65565b6200211f6200368e565b620011b762003a4d565b620021336200368e565b60408051808201909152600c81526b414444524553535f5a45524f60a01b60208201526001600160a01b038216620021805760405162461bcd60e51b815260040162000b10919062004935565b506040513031906000906001600160a01b0384169083908381818185875af1925050503d8060008114620021d1576040519150601f19603f3d011682016040523d82523d6000602084013e620021d6565b606091505b50509050806040518060400160405280601081526020016f11561150d5551253d397d1905253115160821b81525090620022255760405162461bcd60e51b815260040162000b10919062004935565b50604080516001600160a01b0385168152602081018490527fc812aa15be10cc23ff245a12080e7de523f13b7fd4a16277a703c4f8e3113709910160405180910390a1505050565b6000620022826033546001600160a01b031690565b905090565b60606200228261013762003a8d565b600062000ab36101378362003a9c565b6000620022b2620034e2565b8210156040518060400160405280600d81526020016c494e56414c49445f56414c554560981b81525090620022fc5760405162461bcd60e51b815260040162000b10919062004935565b50600168056bc75e2d6310000083111562002327575064e8d4a5100062002324818462004df3565b92505b80620f42408461013a546200233d919062004e16565b62002349919062004df3565b62002355919062004e16565b9392505050565b6000600161012d54604051630db9619f60e31b81526001600160a01b03858116600483015290911690636dcb0cf890602401602060405180830381865afa158015620023ac573d6000803e3d6000fd5b505050506040513d601f19601f82011682018060405250810190620023d2919062004a0e565b6004811115620023e657620023e6620049f8565b148015620024545750816001600160a01b031663e47bfee86040518163ffffffff1660e01b8152600401602060405180830381865afa1580156200242e573d6000803e3d6000fd5b505050506040513d601f19601f8201168201806040525081019062002454919062004b1c565b15620026195760405163442b606b60e11b815262002536906001600160a01b03841690638856c0d6906200248e9060019060040162004e30565b602060405180830381865afa158015620024ac573d6000803e3d6000fd5b505050506040513d601f19601f82011682018060405250810190620024d2919062004afc565b6001600160a01b031663355274ea6040518163ffffffff1660e01b8152600401602060405180830381865afa15801562002510573d6000803e3d6000fd5b505050506040513d601f19601f82011682018060405250810190620007c9919062004a2e565b60405163442b606b60e11b81526001600160a01b03841690638856c0d690620025659060019060040162004e30565b602060405180830381865afa15801562002583573d6000803e3d6000fd5b505050506040513d601f19601f82011682018060405250810190620025a9919062004afc565b6001600160a01b031663355274ea6040518163ffffffff1660e01b8152600401602060405180830381865afa158015620025e7573d6000803e3d6000fd5b505050506040513d601f19601f820116820180604052508101906200260d919062004a2e565b62000ab3919062004e40565b62002626600019620022a6565b62000ab39060001962004e40565b6200263e62003feb565b604080516101408101918290529061013b90600a9082845b81548152602001906001019080831162002656575050505050905090565b61012d54604051630db9619f60e31b81523360048201526001916001600160a01b031690636dcb0cf890602401602060405180830381865afa158015620026bf573d6000803e3d6000fd5b505050506040513d601f19601f82011682018060405250810190620026e5919062004a0e565b6004811115620026f957620026f9620049f8565b14604051806040016040528060088152602001671393d517d413d3d360c21b815250906200273c5760405162461bcd60e51b815260040162000b10919062004935565b50620027476200392a565b61012d546040516308c2f38b60e31b81526001600160a01b03909116906346179c589062002782903390889088908890889060040162004e56565b6020604051808303816000875af1158015620027a2573d6000803e3d6000fd5b505050506040513d601f19601f82011682018060405250810190620027c8919062004a2e565b5050505050565b620027d96200368e565b620027e761014782620039e4565b604051806040016040528060138152602001721053149150511657d5d2125511531254d51151606a1b81525090620028345760405162461bcd60e51b815260040162000b10919062004935565b50604080516001600160a01b0383168152600160208201527f4ed4d4aa9c15574a5b4f202f0078a066754fa68ec53b587db2360c814bfa1b97910162000b65565b61012d54604051630db9619f60e31b81523360048201526001916001600160a01b031690636dcb0cf890602401602060405180830381865afa158015620028c0573d6000803e3d6000fd5b505050506040513d601f19601f82011682018060405250810190620028e6919062004a0e565b6004811115620028fa57620028fa620049f8565b14604051806040016040528060088152602001671393d517d413d3d360c21b815250906200293d5760405162461bcd60e51b815260040162000b10919062004935565b506200294862003972565b620029526200392a565b610130546040516000916001600160a01b031690620029719062003fac565b6200297d919062004b40565b604051809103906000f0801580156200299a573d6000803e3d6000fd5b5060405163442b606b60e11b81529091506000903390638856c0d690620029c690889060040162004e30565b602060405180830381865afa158015620029e4573d6000803e3d6000fd5b505050506040513d601f19601f8201168201806040525081019062002a0a919062004afc565b9050600185600281111562002a235762002a23620049f8565b0362002c18576000816001600160a01b0316633eac99986040518163ffffffff1660e01b8152600401602060405180830381865afa15801562002a6a573d6000803e3d6000fd5b505050506040513d601f19601f8201168201806040525081019062002a90919062004afc565b6001600160a01b031663c19d93fb6040518163ffffffff1660e01b8152600401602060405180830381865afa15801562002ace573d6000803e3d6000fd5b505050506040513d601f19601f8201168201806040525081019062002af4919062004eae565b600281111562002b085762002b08620049f8565b1415604051806040016040528060118152602001704143544956455f5447455f45584953545360781b8152509062002b555760405162461bcd60e51b815260040162000b10919062004935565b50604051632c4e8d5560e01b81526001600160a01b03831690632c4e8d559062002b869084908b9060040162004f62565b600060405180830381600087803b15801562002ba157600080fd5b505af115801562002bb6573d6000803e3d6000fd5b5050604051630a08df1760e31b81526001600160a01b03858116600483015284169250635046f8b89150602401600060405180830381600087803b15801562002bfe57600080fd5b505af115801562002c13573d6000803e3d6000fd5b505050505b600285600281111562002c2f5762002c2f620049f8565b036200314e576001600160a01b03811662002e3c5761012f546040516001600160a01b039091169062002c629062003fac565b62002c6e919062004b40565b604051809103906000f08015801562002c8b573d6000803e3d6000fd5b5060405163c63ee31560e01b81529091506001600160a01b0382169063c63ee3159062002cc590339087908a9088908b9060040162005047565b600060405180830381600087803b15801562002ce057600080fd5b505af115801562002cf5573d6000803e3d6000fd5b5050604051632c4e8d5560e01b81526001600160a01b0385169250632c4e8d55915062002d299084908b9060040162004f62565b600060405180830381600087803b15801562002d4457600080fd5b505af115801562002d59573d6000803e3d6000fd5b505060405163c4767b9560e01b815233925063c4767b95915062002d8590849060029060040162004c8c565b600060405180830381600087803b15801562002da057600080fd5b505af115801562002db5573d6000803e3d6000fd5b505061012d54604051631f8b400560e01b81526001600160a01b039091169250631f8b4005915062002def90849060039060040162004b76565b6020604051808303816000875af115801562002e0f573d6000803e3d6000fd5b505050506040513d601f19601f8201168201806040525081019062002e35919062004a2e565b506200314e565b6001816001600160a01b0316620a04ae6040518163ffffffff1660e01b8152600401600060405180830381865afa15801562002e7c573d6000803e3d6000fd5b505050506040513d6000823e601f3d908101601f1916820160405262002ea69190810190620050a2565b60008151811062002ebb5762002ebb6200494a565b60200260200101516001600160a01b031663c19d93fb6040518163ffffffff1660e01b8152600401602060405180830381865afa15801562002f01573d6000803e3d6000fd5b505050506040513d601f19601f8201168201806040525081019062002f27919062004eae565b600281111562002f3b5762002f3b620049f8565b0362002f5f5761012f546040516001600160a01b039091169062002c629062003fac565b6000816001600160a01b0316633eac99986040518163ffffffff1660e01b8152600401602060405180830381865afa15801562002fa0573d6000803e3d6000fd5b505050506040513d601f19601f8201168201806040525081019062002fc6919062004afc565b6001600160a01b031663c19d93fb6040518163ffffffff1660e01b8152600401602060405180830381865afa15801562003004573d6000803e3d6000fd5b505050506040513d601f19601f820116820180604052508101906200302a919062004eae565b60028111156200303e576200303e620049f8565b1415604051806040016040528060118152602001704143544956455f5447455f45584953545360781b815250906200308b5760405162461bcd60e51b815260040162000b10919062004935565b50604051632c4e8d5560e01b81526001600160a01b03831690632c4e8d5590620030bc9084908b9060040162004f62565b600060405180830381600087803b158015620030d757600080fd5b505af1158015620030ec573d6000803e3d6000fd5b5050604051630a08df1760e31b81526001600160a01b03858116600483015284169250635046f8b89150602401600060405180830381600087803b1580156200313457600080fd5b505af115801562003149573d6000803e3d6000fd5b505050505b61012d54604051631f8b400560e01b81526001600160a01b0390911690631f8b400590620031859085906004908b90820162004bac565b6020604051808303816000875af1158015620031a5573d6000803e3d6000fd5b505050506040513d601f19601f82011682018060405250810190620031cb919062004a2e565b50604080513381526001600160a01b03848116602083015283168183015290517ff74d32d2119bcaf2616d37895d32adafbee1dceb25a98646ca514098f422fd899181900360600190a15050620027c8600160c955565b61012d546040805163ca735cc160e01b815290516060926001600160a01b03169163ca735cc19160048083019260009291908290030181865afa1580156200326e573d6000803e3d6000fd5b505050506040513d6000823e601f3d908101601f19168201604052620022829190810190620050a2565b620032a26200368e565b61014680546001600160a01b0319166001600160a01b0383169081179091556040519081527f2bea41c69cc049090c4c620e05e046570fd88a82934da29cf33005cb034565799060200162000b65565b620032fc6200368e565b6200330a61014982620039cd565b604051806040016040528060178152602001761053149150511657d393d517d5d2125511531254d51151604a1b815250906200335b5760405162461bcd60e51b815260040162000b10919062004935565b50604080516001600160a01b0383168152600060208201527f15f6d0b673e901c73e128db3edc1e29dedcfc6f12c40b37beb689ae240829d76910162000b65565b60006200228261013762003aaa565b620033b56200368e565b60408051808201909152600d81526c494e56414c49445f56414c554560981b6020820152620f4240821115620034005760405162461bcd60e51b815260040162000b10919062004935565b5061013a8190556040518181527f3356e979ac6b186521938f589b0f14ab4bac888ba2f12703da660b1f4ed1119f9060200162000b65565b620034426200368e565b6200345061014782620039cd565b604051806040016040528060178152602001761053149150511657d393d517d5d2125511531254d51151604a1b81525090620034a15760405162461bcd60e51b815260040162000b10919062004935565b50604080516001600160a01b0383168152600060208201527f4ed4d4aa9c15574a5b4f202f0078a066754fa68ec53b587db2360c814bfa1b97910162000b65565b600061013a54620f424062002282919062004df3565b620035026200368e565b6001600160a01b038116620035695760405162461bcd60e51b815260206004820152602660248201527f4f776e61626c653a206e6577206f776e657220697320746865207a65726f206160448201526564647265737360d01b606482015260840162000b10565b620011a081620039fb565b6200357e6200226d565b6001600160a01b0316336001600160a01b03161480620035a45750620035a43362001096565b6040518060400160405280600f81526020016e1393d517d5d2125511531254d51151608a1b81525090620035ed5760405162461bcd60e51b815260040162000b10919062004935565b50620035fc61013782620039cd565b604051806040016040528060178152602001761053149150511657d393d517d5d2125511531254d51151604a1b815250906200364d5760405162461bcd60e51b815260040162000b10919062004935565b50604080516001600160a01b0383168152600060208201527fdf3714d6f88cdae2b889250b70116def7fb5083073c65cce38b56d2b0b0ef64e910162000b65565b33620036996200226d565b6001600160a01b031614620011b75760405162461bcd60e51b815260206004820181905260248201527f4f776e61626c653a2063616c6c6572206973206e6f7420746865206f776e6572604482015260640162000b10565b600054610100900460ff166200371b5760405162461bcd60e51b815260040162000b10906200513b565b620011b762003ab5565b600054610100900460ff16620011b75760405162461bcd60e51b815260040162000b10906200513b565b620011a06200368e565b7f4910fdfa16fed3260ed0e7147f7cc6da11a60208b5b9406d12a635614ffd91435460ff161562003794576200378f8362003aea565b505050565b826001600160a01b03166352d1902d6040518163ffffffff1660e01b8152600401602060405180830381865afa925050508015620037f1575060408051601f3d908101601f19168201909252620037ee9181019062004a2e565b60015b620038565760405162461bcd60e51b815260206004820152602e60248201527f45524331393637557067726164653a206e657720696d706c656d656e7461746960448201526d6f6e206973206e6f74205555505360901b606482015260840162000b10565b60008051602062005abb8339815191528114620038c85760405162461bcd60e51b815260206004820152602960248201527f45524331393637557067726164653a20756e737570706f727465642070726f786044820152681a58589b195555525160ba1b606482015260840162000b10565b506200378f83838362003b89565b620038e062003bba565b60fb805460ff191690557f5db9ee0a495bf2e6ff9c91a7834c1ba4fdd244a5e8aa4e537bd38aeae4b073aa335b6040516001600160a01b03909116815260200160405180910390a1565b60fb5460ff1615620011b75760405162461bcd60e51b815260206004820152601060248201526f14185d5cd8589b194e881c185d5cd95960821b604482015260640162000b10565b600260c95403620039c65760405162461bcd60e51b815260206004820152601f60248201527f5265656e7472616e637947756172643a207265656e7472616e742063616c6c00604482015260640162000b10565b600260c955565b600062002355836001600160a01b03841662003c05565b600062002355836001600160a01b03841662003d09565b603380546001600160a01b038381166001600160a01b0319831681179093556040519116919082907f8be0079c531659141344cd1fd0a4f28419497f9722a3daafe3b4186f6b6457e090600090a35050565b62003a576200392a565b60fb805460ff191660011790557f62e78cea01bee320cd4e420270b5ea74000d11b0c9f74754ebdbfc544b05a2586200390d3390565b60606000620023558362003d5b565b600062002355838362003db9565b600062000ab3825490565b600054610100900460ff1662003adf5760405162461bcd60e51b815260040162000b10906200513b565b620011b733620039fb565b6001600160a01b0381163b62003b595760405162461bcd60e51b815260206004820152602d60248201527f455243313936373a206e657720696d706c656d656e746174696f6e206973206e60448201526c1bdd08184818dbdb9d1c9858dd609a1b606482015260840162000b10565b60008051602062005abb83398151915280546001600160a01b0319166001600160a01b0392909216919091179055565b62003b948362003de6565b60008251118062003ba25750805b156200378f5762003bb4838362003e28565b50505050565b60fb5460ff16620011b75760405162461bcd60e51b815260206004820152601460248201527314185d5cd8589b194e881b9bdd081c185d5cd95960621b604482015260640162000b10565b6000818152600183016020526040812054801562003cfe57600062003c2c60018362004e40565b855490915060009062003c429060019062004e40565b905081811462003cae57600086600001828154811062003c665762003c666200494a565b906000526020600020015490508087600001848154811062003c8c5762003c8c6200494a565b6000918252602080832090910192909255918252600188019052604090208390555b855486908062003cc25762003cc262005186565b60019003818190600052602060002001600090559055856001016000868152602001908152602001600020600090556001935050505062000ab3565b600091505062000ab3565b600081815260018301602052604081205462003d525750815460018181018455600084815260208082209093018490558454848252828601909352604090209190915562000ab3565b50600062000ab3565b60608160000180548060200260200160405190810160405280929190818152602001828054801562003dad57602002820191906000526020600020905b81548152602001906001019080831162003d98575b50505050509050919050565b600082600001828154811062003dd35762003dd36200494a565b9060005260206000200154905092915050565b62003df18162003aea565b6040516001600160a01b038216907fbc7cd75a20ee27fd9adebab32041f755214dbc6bffa90cc0225b39da2e5c2d3b90600090a250565b60606001600160a01b0383163b62003e925760405162461bcd60e51b815260206004820152602660248201527f416464726573733a2064656c65676174652063616c6c20746f206e6f6e2d636f6044820152651b9d1c9858dd60d21b606482015260840162000b10565b600080846001600160a01b03168460405162003eaf91906200519c565b600060405180830381855af49150503d806000811462003eec576040519150601f19603f3d011682016040523d82523d6000602084013e62003ef1565b606091505b509150915062003f1c828260405180606001604052806027815260200162005adb6027913962003f25565b95945050505050565b6060831562003f3657508162002355565b62002355838381511562003f4d5781518083602001fd5b8060405162461bcd60e51b815260040162000b10919062004935565b82600a810192821562003f9a579160200282015b8281111562003f9a57825182559160200191906001019062003f7d565b5062003fa89291506200400a565b5090565b61090080620051bb83390190565b82600a810192821562003f9a579160200282015b8281111562003f9a57823582559160200191906001019062003fce565b604051806101400160405280600a906020820280368337509192915050565b5b8082111562003fa857600081556001016200400b565b6001600160a01b0381168114620011a057600080fd5b8035620040448162004021565b919050565b6000602082840312156200405c57600080fd5b8135620023558162004021565b60008060008060008060008060006102a08a8c0312156200408957600080fd5b8935620040968162004021565b985060208a0135620040a88162004021565b975060408a0135620040ba8162004021565b965060608a0135620040cc8162004021565b955060808a0135620040de8162004021565b94506102408a018b811115620040f357600080fd5b60a08b01945035620041058162004021565b92506102608a0135620041188162004021565b809250506102808a013590509295985092959850929598565b6000602082840312156200414457600080fd5b5035919050565b634e487b7160e01b600052604160045260246000fd5b6040516101a081016001600160401b03811182821017156200418757620041876200414b565b60405290565b604051601f8201601f191681016001600160401b0381118282101715620041b857620041b86200414b565b604052919050565b60006001600160401b03831115620041dc57620041dc6200414b565b620041f1601f8401601f19166020016200418d565b90508281528383830111156200420657600080fd5b828260208301376000602084830101529392505050565b600082601f8301126200422f57600080fd5b6200235583833560208501620041c0565b6000604082840312156200425357600080fd5b604051604081016001600160401b0382821081831117156200427957620042796200414b565b8160405282935084359150808211156200429257600080fd5b50620042a1858286016200421d565b825250602083013560208201525092915050565b60006001600160401b03821115620042d157620042d16200414b565b5060051b60200190565b600082601f830112620042ed57600080fd5b81356020620043066200430083620042b5565b6200418d565b82815260059290921b840181019181810190868411156200432657600080fd5b8286015b848110156200434e578035620043408162004021565b83529183019183016200432a565b509695505050505050565b60006101a082840312156200436d57600080fd5b6200437762004161565b9050813581526020820135602082015260408201356040820152606082013560608201526080820135608082015260a082013560a082015260c082013560c082015260e082013560e0820152610100808301358183015250610120808301356001600160401b03811115620043eb57600080fd5b620043f985828601620042db565b8284015250506101406200440f81840162004037565b9082015261016082810135908201526101809182013591810191909152919050565b600082601f8301126200444357600080fd5b604051606081018181106001600160401b03821117156200446857620044686200414b565b6040528060608401858111156200447e57600080fd5b845b818110156200449a57803583526020928301920162004480565b509195945050505050565b600082601f830112620044b757600080fd5b6040516101408082018281106001600160401b0382111715620044de57620044de6200414b565b60405283018185821115620044f257600080fd5b845b828110156200449a578035825260209182019101620044f4565b60008060008060008060008060006102808a8c0312156200452e57600080fd5b620045398a62004037565b985060208a01356001600160401b03808211156200455657600080fd5b620045648d838e0162004240565b995060408c01359150808211156200457b57600080fd5b620045898d838e0162004359565b98506200459a8d60608e0162004431565b975060c08c01359650620045b28d60e08e01620044a5565b95506102208c0135915080821115620045ca57600080fd5b620045d88d838e016200421d565b94506102408c013593506102608c0135915080821115620045f857600080fd5b50620046078c828d016200421d565b9150509295985092959850929598565b600080604083850312156200462b57600080fd5b8235620046388162004021565b915060208301356001600160401b038111156200465457600080fd5b8301601f810185136200466657600080fd5b6200467785823560208401620041c0565b9150509250929050565b600080604083850312156200469557600080fd5b8235620046a28162004021565b946020939093013593505050565b6000806000806101a0808688031215620046c957600080fd5b853594506020860135935060408601359250868187011115620046eb57600080fd5b509295919450926060019150565b6020808252825182820181905260009190848201906040850190845b818110156200473c5783516001600160a01b03168352928401929184019160010162004715565b50909695505050505050565b8060005b600a81101562003bb45781518452602093840193909101906001016200474c565b610140810162000ab3828462004748565b60058110620011a057600080fd5b60008060008060608587031215620047a357600080fd5b8435620047b0816200477e565b93506020850135925060408501356001600160401b0380821115620047d457600080fd5b818701915087601f830112620047e957600080fd5b813581811115620047f957600080fd5b8860208285010111156200480c57600080fd5b95989497505060200194505050565b60038110620011a057600080fd5b600080600080600060a086880312156200484257600080fd5b85356001600160401b03808211156200485a57600080fd5b908701906101a0828a0312156200487057600080fd5b909550602087013590808211156200488757600080fd5b6200489589838a016200421d565b955060408801359150620048a9826200481b565b90935060608701359080821115620048c057600080fd5b50620048cf888289016200421d565b95989497509295608001359392505050565b60005b83811015620048fe578181015183820152602001620048e4565b50506000910152565b6000815180845262004921816020860160208601620048e1565b601f01601f19169290920160200192915050565b60208152600062002355602083018462004907565b634e487b7160e01b600052603260045260246000fd5b6020808252602c908201527f46756e6374696f6e206d7573742062652063616c6c6564207468726f7567682060408201526b19195b1959d85d1958d85b1b60a21b606082015260800190565b6020808252602c908201527f46756e6374696f6e206d7573742062652063616c6c6564207468726f7567682060408201526b6163746976652070726f787960a01b606082015260800190565b634e487b7160e01b600052602160045260246000fd5b60006020828403121562004a2157600080fd5b815162002355816200477e565b60006020828403121562004a4157600080fd5b5051919050565b634e487b7160e01b600052601160045260246000fd5b8082018082111562000ab35762000ab362004a48565b6000806040838503121562004a8857600080fd5b825162004a958162004021565b6020939093015192949293505050565b6001600160a01b038716815260208101869052604081018590526060810184905260006101e062004ada608084018662004748565b806101c084015262004aef8184018562004907565b9998505050505050505050565b60006020828403121562004b0f57600080fd5b8151620023558162004021565b60006020828403121562004b2f57600080fd5b815180151581146200235557600080fd5b6001600160a01b0391909116815260406020820181905260009082015260600190565b60058110620011a057620011a0620049f8565b6001600160a01b038316815262004b8d8262004b63565b6020810191909152606060408201819052600090820152608001919050565b6001600160a01b038416815262004bc38362004b63565b82602082015260606040820152600062003f1c606083018462004907565b6001600160a01b038416815262004bf88362004b63565b6020810192909252604082015260806060820181905260009082015260a001919050565b6003811062004c2f5762004c2f620049f8565b9052565b600060018060a01b03808816835260c0602084015262004c5760c084018862004907565b86604085015262004c6c606085018762004c1c565b931660808301525080820360a09091015260008152602001949350505050565b6001600160a01b03831681526040810162002355602083018462004c1c565b600081518084526020808501945080840160005b8381101562004ce65781516001600160a01b03168752958201959082019060010162004cbf565b509495945050505050565b60018060a01b038316815260406020820152815160408201526020820151606082015260408201516080820152606082015160a0820152608082015160c082015260a082015160e0820152600060c0830151610100818185015260e08501519150610120828186015281860151925061014091508282860152808601519250506101a0610160818187015262004d8c6101e087018562004cab565b9287015192935061018062004dab878201856001600160a01b03169052565b9087015191860191909152909401516101c0909301929092525092915050565b84815260208101849052604081018390526101a0810161014083606084013795945050505050565b60008262004e1157634e487b7160e01b600052601260045260246000fd5b500490565b808202811582820484141762000ab35762000ab362004a48565b6020810162000ab3828462004c1c565b8181038181111562000ab35762000ab362004a48565b6001600160a01b038616815262004e6d8562004b63565b84602082015283604082015260806060820152816080820152818360a0830137600081830160a090810191909152601f909201601f19160101949350505050565b60006020828403121562004ec157600080fd5b815162002355816200481b565b6000808335601e1984360301811262004ee657600080fd5b83016020810192503590506001600160401b0381111562004f0657600080fd5b8060051b360382131562004f1957600080fd5b9250929050565b8183526000602080850194508260005b8581101562004ce657813562004f468162004021565b6001600160a01b03168752958201959082019060010162004f30565b60018060a01b038316815260406020820152813560408201526020820135606082015260408201356080820152606082013560a0820152608082013560c082015260a082013560e0820152600061010060c08401358184015261012060e085013581850152610140828601358186015262004fe08287018762004ece565b935091506101a06101608181880152620050006101e08801868662004f20565b94506200500f83890162004037565b935061018092506200502b838801856001600160a01b03169052565b87013590860152909401356101c0909301929092525092915050565b600060018060a01b03808816835260c06020840152600060c084015286604084015262005078606084018762004c1c565b80851660808401525060e060a08301526200509760e083018462004907565b979650505050505050565b60006020808385031215620050b657600080fd5b82516001600160401b03811115620050cd57600080fd5b8301601f81018513620050df57600080fd5b8051620050f06200430082620042b5565b81815260059190911b820183019083810190878311156200511057600080fd5b928401925b82841015620050975783516200512b8162004021565b8252928401929084019062005115565b6020808252602b908201527f496e697469616c697a61626c653a20636f6e7472616374206973206e6f74206960408201526a6e697469616c697a696e6760a81b606082015260800190565b634e487b7160e01b600052603160045260246000fd5b60008251620051b0818460208701620048e1565b919091019291505056fe60806040526040516109003803806109008339810160408190526100229161045b565b61002e82826000610035565b5050610585565b61003e83610100565b6040516001600160a01b038416907f1cf3b03a6cf19fa2baba4df148e9dcabedea7f8a5c07840e207e5c089be95d3e90600090a260008251118061007f5750805b156100fb576100f9836001600160a01b0316635c60da1b6040518163ffffffff1660e01b8152600401602060405180830381865afa1580156100c5573d6000803e3d6000fd5b505050506040513d601f19601f820116820180604052508101906100e9919061051b565b836102a360201b6100291760201c565b505b505050565b610113816102cf60201b6100551760201c565b6101725760405162461bcd60e51b815260206004820152602560248201527f455243313936373a206e657720626561636f6e206973206e6f74206120636f6e6044820152641d1c9858dd60da1b60648201526084015b60405180910390fd5b6101e6816001600160a01b0316635c60da1b6040518163ffffffff1660e01b8152600401602060405180830381865afa1580156101b3573d6000803e3d6000fd5b505050506040513d601f19601f820116820180604052508101906101d7919061051b565b6102cf60201b6100551760201c565b61024b5760405162461bcd60e51b815260206004820152603060248201527f455243313936373a20626561636f6e20696d706c656d656e746174696f6e206960448201526f1cc81b9bdd08184818dbdb9d1c9858dd60821b6064820152608401610169565b806102827fa3f0ad74e5423aebfd80d3ef4346578335a9a72aeaee59ff6cb3582b35133d5060001b6102de60201b6100641760201c565b80546001600160a01b0319166001600160a01b039290921691909117905550565b60606102c883836040518060600160405280602781526020016108d9602791396102e1565b9392505050565b6001600160a01b03163b151590565b90565b6060600080856001600160a01b0316856040516102fe9190610536565b600060405180830381855af49150503d8060008114610339576040519150601f19603f3d011682016040523d82523d6000602084013e61033e565b606091505b5090925090506103508683838761035a565b9695505050505050565b606083156103c95782516000036103c2576001600160a01b0385163b6103c25760405162461bcd60e51b815260206004820152601d60248201527f416464726573733a2063616c6c20746f206e6f6e2d636f6e74726163740000006044820152606401610169565b50816103d3565b6103d383836103db565b949350505050565b8151156103eb5781518083602001fd5b8060405162461bcd60e51b81526004016101699190610552565b80516001600160a01b038116811461041c57600080fd5b919050565b634e487b7160e01b600052604160045260246000fd5b60005b8381101561045257818101518382015260200161043a565b50506000910152565b6000806040838503121561046e57600080fd5b61047783610405565b60208401519092506001600160401b038082111561049457600080fd5b818501915085601f8301126104a857600080fd5b8151818111156104ba576104ba610421565b604051601f8201601f19908116603f011681019083821181831017156104e2576104e2610421565b816040528281528860208487010111156104fb57600080fd5b61050c836020830160208801610437565b80955050505050509250929050565b60006020828403121561052d57600080fd5b6102c882610405565b60008251610548818460208701610437565b9190910192915050565b6020815260008251806020840152610571816040850160208701610437565b601f01601f19169190910160400192915050565b610345806105946000396000f3fe60806040523661001357610011610017565b005b6100115b610027610022610067565b610100565b565b606061004e83836040518060600160405280602781526020016102e960279139610124565b9392505050565b6001600160a01b03163b151590565b90565b600061009a7fa3f0ad74e5423aebfd80d3ef4346578335a9a72aeaee59ff6cb3582b35133d50546001600160a01b031690565b6001600160a01b0316635c60da1b6040518163ffffffff1660e01b8152600401602060405180830381865afa1580156100d7573d6000803e3d6000fd5b505050506040513d601f19601f820116820180604052508101906100fb919061024c565b905090565b3660008037600080366000845af43d6000803e80801561011f573d6000f35b3d6000fd5b6060600080856001600160a01b0316856040516101419190610299565b600060405180830381855af49150503d806000811461017c576040519150601f19603f3d011682016040523d82523d6000602084013e610181565b606091505b50915091506101928683838761019c565b9695505050505050565b60608315610210578251600003610209576001600160a01b0385163b6102095760405162461bcd60e51b815260206004820152601d60248201527f416464726573733a2063616c6c20746f206e6f6e2d636f6e747261637400000060448201526064015b60405180910390fd5b508161021a565b61021a8383610222565b949350505050565b8151156102325781518083602001fd5b8060405162461bcd60e51b815260040161020091906102b5565b60006020828403121561025e57600080fd5b81516001600160a01b038116811461004e57600080fd5b60005b83811015610290578181015183820152602001610278565b50506000910152565b600082516102ab818460208701610275565b9190910192915050565b60208152600082518060208401526102d4816040850160208701610275565b601f01601f1916919091016040019291505056fe416464726573733a206c6f772d6c6576656c2064656c65676174652063616c6c206661696c6564a264697066735822122022a6bf5ebbb7518c40e703958b5c8e4d70ca6715c1e1ccf9e9591bfc86e066d164736f6c63430008110033416464726573733a206c6f772d6c6576656c2064656c65676174652063616c6c206661696c6564360894a13ba1a3210667c828492db98dca3e2076cc3735a920a3ca505d382bbc416464726573733a206c6f772d6c6576656c2064656c65676174652063616c6c206661696c6564a26469706673582212205e772aa87d90b7231acf5a553c43f604e56df94f45ec66c0304d625199769bd564736f6c63430008110033",
  "linkReferences": {},
  "deployedLinkReferences": {}
}