{
  "_format": "hh-sol-artifact-1",
  "contractName": "Service",
  "sourceName": "contracts/Service.sol",
  "abi": [
    {
      "inputs": [],
      "stateMutability": "nonpayable",
      "type": "constructor"
    },
    {
      "anonymous": false,
      "inputs": [
        {
          "indexed": false,
          "internalType": "address",
          "name": "previousAdmin",
          "type": "address"
        },
        {
          "indexed": false,
          "internalType": "address",
          "name": "newAdmin",
          "type": "address"
        }
      ],
      "name": "AdminChanged",
      "type": "event"
    },
    {
      "anonymous": false,
      "inputs": [
        {
          "indexed": true,
          "internalType": "address",
          "name": "beacon",
          "type": "address"
        }
      ],
      "name": "BeaconUpgraded",
      "type": "event"
    },
    {
      "anonymous": false,
      "inputs": [
        {
          "indexed": false,
          "internalType": "uint8",
          "name": "version",
          "type": "uint8"
        }
      ],
      "name": "Initialized",
      "type": "event"
    },
    {
      "anonymous": false,
      "inputs": [
        {
          "indexed": true,
          "internalType": "address",
          "name": "previousOwner",
          "type": "address"
        },
        {
          "indexed": true,
          "internalType": "address",
          "name": "newOwner",
          "type": "address"
        }
      ],
      "name": "OwnershipTransferred",
      "type": "event"
    },
    {
      "anonymous": false,
      "inputs": [
        {
          "indexed": false,
          "internalType": "address",
          "name": "account",
          "type": "address"
        }
      ],
      "name": "Paused",
      "type": "event"
    },
    {
      "anonymous": false,
      "inputs": [
        {
          "indexed": false,
          "internalType": "address",
          "name": "pool",
          "type": "address"
        },
        {
          "indexed": false,
          "internalType": "address",
          "name": "token",
          "type": "address"
        },
        {
          "indexed": false,
          "internalType": "address",
          "name": "tge",
          "type": "address"
        }
      ],
      "name": "PoolCreated",
      "type": "event"
    },
    {
      "anonymous": false,
      "inputs": [
        {
          "indexed": false,
          "internalType": "uint256",
          "name": "protocolTokenFee",
          "type": "uint256"
        }
      ],
      "name": "ProtocolTokenFeeChanged",
      "type": "event"
    },
    {
      "anonymous": false,
      "inputs": [
        {
          "indexed": false,
          "internalType": "address",
          "name": "protocolTreasury",
          "type": "address"
        }
      ],
      "name": "ProtocolTreasuryChanged",
      "type": "event"
    },
    {
      "anonymous": false,
      "inputs": [
        {
          "indexed": false,
          "internalType": "address",
          "name": "pool",
          "type": "address"
        },
        {
          "indexed": false,
          "internalType": "address",
          "name": "tge",
          "type": "address"
        },
        {
          "indexed": false,
          "internalType": "address",
          "name": "token",
          "type": "address"
        }
      ],
      "name": "SecondaryTGECreated",
      "type": "event"
    },
    {
      "anonymous": false,
      "inputs": [
        {
          "indexed": false,
          "internalType": "address",
          "name": "account",
          "type": "address"
        }
      ],
      "name": "Unpaused",
      "type": "event"
    },
    {
      "anonymous": false,
      "inputs": [
        {
          "indexed": true,
          "internalType": "address",
          "name": "implementation",
          "type": "address"
        }
      ],
      "name": "Upgraded",
      "type": "event"
    },
    {
      "anonymous": false,
      "inputs": [
        {
          "indexed": false,
          "internalType": "address",
          "name": "account",
          "type": "address"
        },
        {
          "indexed": false,
          "internalType": "bool",
          "name": "whitelisted",
          "type": "bool"
        }
      ],
      "name": "UserWhitelistedSet",
      "type": "event"
    },
    {
      "inputs": [
        {
          "internalType": "enum IDispatcher.EventType",
          "name": "eventType",
          "type": "uint8"
        },
        {
          "internalType": "uint256",
          "name": "proposalId",
          "type": "uint256"
        },
        {
          "internalType": "string",
          "name": "metaHash",
          "type": "string"
        }
      ],
      "name": "addEvent",
      "outputs": [],
      "stateMutability": "nonpayable",
      "type": "function"
    },
    {
      "inputs": [
        {
          "internalType": "address",
          "name": "account",
          "type": "address"
        }
      ],
      "name": "addManagerToWhitelist",
      "outputs": [],
      "stateMutability": "nonpayable",
      "type": "function"
    },
    {
      "inputs": [
        {
          "internalType": "uint256",
          "name": "proposalId",
          "type": "uint256"
        }
      ],
      "name": "addProposal",
      "outputs": [],
      "stateMutability": "nonpayable",
      "type": "function"
    },
    {
      "inputs": [
        {
          "internalType": "address",
          "name": "account",
          "type": "address"
        }
      ],
      "name": "addUserToWhitelist",
      "outputs": [],
      "stateMutability": "nonpayable",
      "type": "function"
    },
    {
      "inputs": [],
      "name": "ballotDecisionThreshold",
      "outputs": [
        {
          "internalType": "uint256",
          "name": "",
          "type": "uint256"
        }
      ],
      "stateMutability": "view",
      "type": "function"
    },
    {
      "inputs": [
        {
          "internalType": "uint256",
          "name": "",
          "type": "uint256"
        }
      ],
      "name": "ballotExecDelay",
      "outputs": [
        {
          "internalType": "uint256",
          "name": "",
          "type": "uint256"
        }
      ],
      "stateMutability": "view",
      "type": "function"
    },
    {
      "inputs": [],
      "name": "ballotLifespan",
      "outputs": [
        {
          "internalType": "uint256",
          "name": "",
          "type": "uint256"
        }
      ],
      "stateMutability": "view",
      "type": "function"
    },
    {
      "inputs": [],
      "name": "ballotQuorumThreshold",
      "outputs": [
        {
          "internalType": "uint256",
          "name": "",
          "type": "uint256"
        }
      ],
      "stateMutability": "view",
      "type": "function"
    },
    {
      "inputs": [
        {
          "internalType": "address",
          "name": "_pool",
          "type": "address"
        },
        {
          "internalType": "uint256",
          "name": "proposalId",
          "type": "uint256"
        }
      ],
      "name": "cancelBallot",
      "outputs": [],
      "stateMutability": "nonpayable",
      "type": "function"
    },
    {
      "inputs": [
        {
          "internalType": "contract IPool",
          "name": "pool",
          "type": "address"
        },
        {
          "components": [
            {
              "internalType": "string",
              "name": "symbol",
              "type": "string"
            },
            {
              "internalType": "uint256",
              "name": "cap",
              "type": "uint256"
            }
          ],
          "internalType": "struct IToken.TokenInfo",
          "name": "tokenInfo",
          "type": "tuple"
        },
        {
          "components": [
            {
              "internalType": "uint256",
              "name": "price",
              "type": "uint256"
            },
            {
              "internalType": "uint256",
              "name": "hardcap",
              "type": "uint256"
            },
            {
              "internalType": "uint256",
              "name": "softcap",
              "type": "uint256"
            },
            {
              "internalType": "uint256",
              "name": "minPurchase",
              "type": "uint256"
            },
            {
              "internalType": "uint256",
              "name": "maxPurchase",
              "type": "uint256"
            },
            {
              "internalType": "uint256",
              "name": "vestingPercent",
              "type": "uint256"
            },
            {
              "internalType": "uint256",
              "name": "vestingDuration",
              "type": "uint256"
            },
            {
              "internalType": "uint256",
              "name": "vestingTVL",
              "type": "uint256"
            },
            {
              "internalType": "uint256",
              "name": "duration",
              "type": "uint256"
            },
            {
              "internalType": "address[]",
              "name": "userWhitelist",
              "type": "address[]"
            },
            {
              "internalType": "address",
              "name": "unitOfAccount",
              "type": "address"
            },
            {
              "internalType": "uint256",
              "name": "lockupDuration",
              "type": "uint256"
            },
            {
              "internalType": "uint256",
              "name": "lockupTVL",
              "type": "uint256"
            }
          ],
          "internalType": "struct ITGE.TGEInfo",
          "name": "tgeInfo",
          "type": "tuple"
        },
        {
          "internalType": "uint256[3]",
          "name": "ballotSettings",
          "type": "uint256[3]"
        },
        {
          "internalType": "uint256",
          "name": "jurisdiction",
          "type": "uint256"
        },
        {
          "internalType": "uint256[10]",
          "name": "ballotExecDelay_",
          "type": "uint256[10]"
        },
        {
          "internalType": "string",
          "name": "trademark",
          "type": "string"
        },
        {
          "internalType": "uint256",
          "name": "entityType",
          "type": "uint256"
        },
        {
          "internalType": "string",
          "name": "metadataURI",
          "type": "string"
        }
      ],
      "name": "createPool",
      "outputs": [],
      "stateMutability": "payable",
      "type": "function"
    },
    {
      "inputs": [
        {
          "components": [
            {
              "internalType": "uint256",
              "name": "price",
              "type": "uint256"
            },
            {
              "internalType": "uint256",
              "name": "hardcap",
              "type": "uint256"
            },
            {
              "internalType": "uint256",
              "name": "softcap",
              "type": "uint256"
            },
            {
              "internalType": "uint256",
              "name": "minPurchase",
              "type": "uint256"
            },
            {
              "internalType": "uint256",
              "name": "maxPurchase",
              "type": "uint256"
            },
            {
              "internalType": "uint256",
              "name": "vestingPercent",
              "type": "uint256"
            },
            {
              "internalType": "uint256",
              "name": "vestingDuration",
              "type": "uint256"
            },
            {
              "internalType": "uint256",
              "name": "vestingTVL",
              "type": "uint256"
            },
            {
              "internalType": "uint256",
              "name": "duration",
              "type": "uint256"
            },
            {
              "internalType": "address[]",
              "name": "userWhitelist",
              "type": "address[]"
            },
            {
              "internalType": "address",
              "name": "unitOfAccount",
              "type": "address"
            },
            {
              "internalType": "uint256",
              "name": "lockupDuration",
              "type": "uint256"
            },
            {
              "internalType": "uint256",
              "name": "lockupTVL",
              "type": "uint256"
            }
          ],
          "internalType": "struct ITGE.TGEInfo",
          "name": "tgeInfo",
          "type": "tuple"
        },
        {
          "internalType": "string",
          "name": "metadataURI",
          "type": "string"
        },
        {
          "internalType": "enum IToken.TokenType",
          "name": "tokenType",
          "type": "uint8"
        },
        {
          "internalType": "string",
          "name": "tokenDescription",
          "type": "string"
        }
      ],
      "name": "createSecondaryTGE",
      "outputs": [],
      "stateMutability": "nonpayable",
      "type": "function"
    },
    {
      "inputs": [],
      "name": "dispatcher",
      "outputs": [
        {
          "internalType": "contract IDispatcher",
          "name": "",
          "type": "address"
        }
      ],
      "stateMutability": "view",
      "type": "function"
    },
    {
      "inputs": [],
      "name": "getBallotExecDelay",
      "outputs": [
        {
          "internalType": "uint256[10]",
          "name": "",
          "type": "uint256[10]"
        }
      ],
      "stateMutability": "view",
      "type": "function"
    },
    {
      "inputs": [
        {
          "internalType": "address",
          "name": "_pool",
          "type": "address"
        }
      ],
      "name": "getMaxHardCap",
      "outputs": [
        {
          "internalType": "uint256",
          "name": "",
          "type": "uint256"
        }
      ],
      "stateMutability": "view",
      "type": "function"
    },
    {
      "inputs": [],
      "name": "getMinSoftCap",
      "outputs": [
        {
          "internalType": "uint256",
          "name": "",
          "type": "uint256"
        }
      ],
      "stateMutability": "view",
      "type": "function"
    },
    {
      "inputs": [
        {
          "internalType": "uint256",
          "name": "amount",
          "type": "uint256"
        }
      ],
      "name": "getProtocolTokenFee",
      "outputs": [
        {
          "internalType": "uint256",
          "name": "",
          "type": "uint256"
        }
      ],
      "stateMutability": "view",
      "type": "function"
    },
    {
      "inputs": [
        {
          "internalType": "contract IDispatcher",
          "name": "dispatcher_",
          "type": "address"
        },
        {
          "internalType": "address",
          "name": "poolBeacon_",
          "type": "address"
        },
        {
          "internalType": "address",
          "name": "tokenBeacon_",
          "type": "address"
        },
        {
          "internalType": "address",
          "name": "tgeBeacon_",
          "type": "address"
        },
        {
          "internalType": "address",
          "name": "proposalGateway_",
          "type": "address"
        },
        {
          "internalType": "uint256[13]",
          "name": "ballotParams",
          "type": "uint256[13]"
        },
        {
          "internalType": "contract ISwapRouter",
          "name": "uniswapRouter_",
          "type": "address"
        },
        {
          "internalType": "contract IQuoter",
          "name": "uniswapQuoter_",
          "type": "address"
        },
        {
          "internalType": "uint256",
          "name": "protocolTokenFee_",
          "type": "uint256"
        }
      ],
      "name": "initialize",
      "outputs": [],
      "stateMutability": "nonpayable",
      "type": "function"
    },
    {
      "inputs": [
        {
          "internalType": "address",
          "name": "account",
          "type": "address"
        }
      ],
      "name": "isManagerWhitelisted",
      "outputs": [
        {
          "internalType": "bool",
          "name": "",
          "type": "bool"
        }
      ],
      "stateMutability": "view",
      "type": "function"
    },
    {
      "inputs": [
        {
          "internalType": "address",
          "name": "account",
          "type": "address"
        }
      ],
      "name": "isUserWhitelisted",
      "outputs": [
        {
          "internalType": "bool",
          "name": "",
          "type": "bool"
        }
      ],
      "stateMutability": "view",
      "type": "function"
    },
    {
      "inputs": [],
      "name": "owner",
      "outputs": [
        {
          "internalType": "address",
          "name": "",
          "type": "address"
        }
      ],
      "stateMutability": "view",
      "type": "function"
    },
    {
      "inputs": [],
      "name": "pause",
      "outputs": [],
      "stateMutability": "nonpayable",
      "type": "function"
    },
    {
      "inputs": [],
      "name": "paused",
      "outputs": [
        {
          "internalType": "bool",
          "name": "",
          "type": "bool"
        }
      ],
      "stateMutability": "view",
      "type": "function"
    },
    {
      "inputs": [],
      "name": "poolBeacon",
      "outputs": [
        {
          "internalType": "address",
          "name": "",
          "type": "address"
        }
      ],
      "stateMutability": "view",
      "type": "function"
    },
    {
      "inputs": [],
      "name": "primaryAsset",
      "outputs": [
        {
          "internalType": "address",
          "name": "",
          "type": "address"
        }
      ],
      "stateMutability": "view",
      "type": "function"
    },
    {
      "inputs": [],
      "name": "proposalGateway",
      "outputs": [
        {
          "internalType": "address",
          "name": "",
          "type": "address"
        }
      ],
      "stateMutability": "view",
      "type": "function"
    },
    {
      "inputs": [],
      "name": "protocolTokenFee",
      "outputs": [
        {
          "internalType": "uint256",
          "name": "",
          "type": "uint256"
        }
      ],
      "stateMutability": "view",
      "type": "function"
    },
    {
      "inputs": [],
      "name": "protocolTreasury",
      "outputs": [
        {
          "internalType": "address",
          "name": "",
          "type": "address"
        }
      ],
      "stateMutability": "view",
      "type": "function"
    },
    {
      "inputs": [],
      "name": "proxiableUUID",
      "outputs": [
        {
          "internalType": "bytes32",
          "name": "",
          "type": "bytes32"
        }
      ],
      "stateMutability": "view",
      "type": "function"
    },
    {
      "inputs": [
        {
          "internalType": "address",
          "name": "account",
          "type": "address"
        }
      ],
      "name": "removeManagerFromWhitelist",
      "outputs": [],
      "stateMutability": "nonpayable",
      "type": "function"
    },
    {
      "inputs": [
        {
          "internalType": "address",
          "name": "account",
          "type": "address"
        }
      ],
      "name": "removeUserFromWhitelist",
      "outputs": [],
      "stateMutability": "nonpayable",
      "type": "function"
    },
    {
      "inputs": [],
      "name": "renounceOwnership",
      "outputs": [],
      "stateMutability": "nonpayable",
      "type": "function"
    },
    {
      "inputs": [],
      "name": "secondaryAsset",
      "outputs": [
        {
          "internalType": "address",
          "name": "",
          "type": "address"
        }
      ],
      "stateMutability": "view",
      "type": "function"
    },
    {
      "inputs": [
        {
          "internalType": "uint256",
          "name": "ballotQuorumThreshold_",
          "type": "uint256"
        },
        {
          "internalType": "uint256",
          "name": "ballotDecisionThreshold_",
          "type": "uint256"
        },
        {
          "internalType": "uint256",
          "name": "ballotLifespan_",
          "type": "uint256"
        },
        {
          "internalType": "uint256[10]",
          "name": "ballotExecDelay_",
          "type": "uint256[10]"
        }
      ],
      "name": "setGovernanceSettings",
      "outputs": [],
      "stateMutability": "nonpayable",
      "type": "function"
    },
    {
      "inputs": [
        {
          "internalType": "address",
          "name": "primaryAsset_",
          "type": "address"
        }
      ],
      "name": "setPrimaryAsset",
      "outputs": [],
      "stateMutability": "nonpayable",
      "type": "function"
    },
    {
      "inputs": [
        {
          "internalType": "uint256",
          "name": "_protocolTokenFee",
          "type": "uint256"
        }
      ],
      "name": "setProtocolTokenFee",
      "outputs": [],
      "stateMutability": "nonpayable",
      "type": "function"
    },
    {
      "inputs": [
        {
          "internalType": "address",
          "name": "_protocolTreasury",
          "type": "address"
        }
      ],
      "name": "setProtocolTreasury",
      "outputs": [],
      "stateMutability": "nonpayable",
      "type": "function"
    },
    {
      "inputs": [
        {
          "internalType": "address",
          "name": "secondaryAsset_",
          "type": "address"
        }
      ],
      "name": "setSecondaryAsset",
      "outputs": [],
      "stateMutability": "nonpayable",
      "type": "function"
    },
    {
      "inputs": [],
      "name": "test83122",
      "outputs": [
        {
          "internalType": "uint256",
          "name": "",
          "type": "uint256"
        }
      ],
      "stateMutability": "pure",
      "type": "function"
    },
    {
      "inputs": [],
      "name": "tgeBeacon",
      "outputs": [
        {
          "internalType": "address",
          "name": "",
          "type": "address"
        }
      ],
      "stateMutability": "view",
      "type": "function"
    },
    {
      "inputs": [],
      "name": "tokenBeacon",
      "outputs": [
        {
          "internalType": "address",
          "name": "",
          "type": "address"
        }
      ],
      "stateMutability": "view",
      "type": "function"
    },
    {
      "inputs": [],
      "name": "tokenWhitelist",
      "outputs": [
        {
          "internalType": "address[]",
          "name": "",
          "type": "address[]"
        }
      ],
      "stateMutability": "view",
      "type": "function"
    },
    {
      "inputs": [
        {
          "internalType": "address",
          "name": "to",
          "type": "address"
        }
      ],
      "name": "transferCollectedFees",
      "outputs": [],
      "stateMutability": "nonpayable",
      "type": "function"
    },
    {
      "inputs": [
        {
          "internalType": "address",
          "name": "newOwner",
          "type": "address"
        }
      ],
      "name": "transferOwnership",
      "outputs": [],
      "stateMutability": "nonpayable",
      "type": "function"
    },
    {
      "inputs": [],
      "name": "uniswapQuoter",
      "outputs": [
        {
          "internalType": "contract IQuoter",
          "name": "",
          "type": "address"
        }
      ],
      "stateMutability": "view",
      "type": "function"
    },
    {
      "inputs": [],
      "name": "uniswapRouter",
      "outputs": [
        {
          "internalType": "contract ISwapRouter",
          "name": "",
          "type": "address"
        }
      ],
      "stateMutability": "view",
      "type": "function"
    },
    {
      "inputs": [],
      "name": "unpause",
      "outputs": [],
      "stateMutability": "nonpayable",
      "type": "function"
    },
    {
      "inputs": [
        {
          "internalType": "address",
          "name": "newImplementation",
          "type": "address"
        }
      ],
      "name": "upgradeTo",
      "outputs": [],
      "stateMutability": "nonpayable",
      "type": "function"
    },
    {
      "inputs": [
        {
          "internalType": "address",
          "name": "newImplementation",
          "type": "address"
        },
        {
          "internalType": "bytes",
          "name": "data",
          "type": "bytes"
        }
      ],
      "name": "upgradeToAndCall",
      "outputs": [],
      "stateMutability": "payable",
      "type": "function"
    },
    {
      "inputs": [],
      "name": "userWhitelist",
      "outputs": [
        {
          "internalType": "address[]",
          "name": "",
          "type": "address[]"
        }
      ],
      "stateMutability": "view",
      "type": "function"
    },
    {
      "inputs": [
        {
          "internalType": "uint256",
          "name": "index",
          "type": "uint256"
        }
      ],
      "name": "userWhitelistAt",
      "outputs": [
        {
          "internalType": "address",
          "name": "",
          "type": "address"
        }
      ],
      "stateMutability": "view",
      "type": "function"
    },
    {
      "inputs": [],
      "name": "userWhitelistLength",
      "outputs": [
        {
          "internalType": "uint256",
          "name": "",
          "type": "uint256"
        }
      ],
      "stateMutability": "view",
      "type": "function"
    }
  ],
  "bytecode": "0x60a0604052306080523480156200001557600080fd5b506200002062000026565b620000e8565b600054610100900460ff1615620000935760405162461bcd60e51b815260206004820152602760248201527f496e697469616c697a61626c653a20636f6e747261637420697320696e697469604482015266616c697a696e6760c81b606482015260840160405180910390fd5b60005460ff9081161015620000e6576000805460ff191660ff9081179091556040519081527f7f26b83ff96e1f2b6a682f133852f6798a09c465da95921460cefb38474024989060200160405180910390a15b565b608051615470620001206000396000818161164301528181611686015281816121e10152818161222401526123d701526154706000f3fe608060405260043610620003225760003560e01c8063803db96d11620001b1578063c5a7b2ea11620000ee578063dedcd30711620000a1578063e76829281162000078578063e76829281462000960578063f2fde38b1462000978578063f9902bb1146200099d578063fb237eb214620009c257600080fd5b8063dedcd30714620008f3578063e58d777a1462000918578063e64b2afa146200093b57600080fd5b8063c5a7b2ea1462000835578063ca735cc11462000858578063cb7e90571462000870578063ccf5a77c1462000893578063ce254a3514620008b6578063dad01e5b14620008db57600080fd5b806398e05aa61162000164578063a66e53c9116200013b578063a66e53c914620007ab578063b677bc6914620007d2578063b8d57ada14620007f7578063bc7a4ead146200081c57600080fd5b806398e05aa6146200074b5780639d838ad31462000761578063a3689471146200078657600080fd5b8063803db96d14620006875780638456cb5914620006aa578063879010f414620006c25780638da5cb5b14620006e75780639421873714620006ff5780639459c173146200072657600080fd5b8063476aa1ea116200028057806352d1902d1162000233578063715018a6116200020a578063715018a6146200060e578063735de9f71462000626578063747b805014620006495780637c905b77146200066e57600080fd5b806352d1902d14620005b75780635a1ef51b14620005cf5780635c975abb14620005f457600080fd5b8063476aa1ea14620004f75780634db4a352146200051c5780634e95c1b7146200053f5780634f1ef286146200055657806350637744146200056d578063515f723c146200059257600080fd5b8063223ecade11620002d9578063223ecade1462000434578063359146e814620004595780633659cfe614620004725780633a6596bd14620004975780633f4ba83a14620004ba5780633fec91a414620004d257600080fd5b806301569ab0146200032757806303700be8146200036757806304e31dfb146200038f5780630c5a61f814620003b2578063143a862a14620003d95780631e101a3d14620003fe575b600080fd5b3480156200033457600080fd5b50610130546200034a906001600160a01b031681565b6040516001600160a01b0390911681526020015b60405180910390f35b3480156200037457600080fd5b506200038061013a5481565b6040519081526020016200035e565b3480156200039c57600080fd5b50610131546200034a906001600160a01b031681565b348015620003bf57600080fd5b50620003d7620003d1366004620039b5565b620009e7565b005b348015620003e657600080fd5b50620003d7620003f8366004620039d5565b62000a9e565b3480156200040b57600080fd5b50620004236200041d366004620039b5565b62000fc4565b60405190151581526020016200035e565b3480156200044157600080fd5b50620003d76200045336600462003ba0565b62000fe7565b3480156200046657600080fd5b50620003806101345481565b3480156200047f57600080fd5b50620003d762000491366004620039b5565b62001639565b348015620004a457600080fd5b50610146546200034a906001600160a01b031681565b348015620004c757600080fd5b50620003d762001724565b348015620004df57600080fd5b50620003d7620004f136600462003c50565b6200173a565b3480156200050457600080fd5b50620003806200051636600462003c50565b6200188a565b3480156200052957600080fd5b50610136546200034a906001600160a01b031681565b620003d76200055036600462003f38565b620018a3565b620003d76200056736600462004041565b620021d7565b3480156200057a57600080fd5b50620003d76200058c366004620040ab565b620022af565b3480156200059f57600080fd5b50620003d7620005b1366004620040da565b62002319565b348015620005c457600080fd5b5062000380620023ca565b348015620005dc57600080fd5b50620003d7620005ee366004620039b5565b62002480565b3480156200060157600080fd5b5060fb5460ff1662000423565b3480156200061b57600080fd5b50620003d7620024ad565b3480156200063357600080fd5b50610135546200034a906001600160a01b031681565b3480156200065657600080fd5b50620003d762000668366004620039b5565b620024c3565b3480156200067b57600080fd5b50620003806101335481565b3480156200069457600080fd5b50610139546200034a906001600160a01b031681565b348015620006b757600080fd5b50620003d7620025d9565b348015620006cf57600080fd5b50620003d7620006e1366004620039b5565b620025ed565b348015620006f457600080fd5b506200034a620026ec565b3480156200070c57600080fd5b506200071762002706565b6040516200035e919062004123565b3480156200073357600080fd5b506200034a6200074536600462003c50565b62002715565b3480156200075857600080fd5b50600362000380565b3480156200076e57600080fd5b50620003806200078036600462003c50565b62002725565b3480156200079357600080fd5b5062000380620007a5366004620039b5565b620027db565b348015620007b857600080fd5b50620007c362002a96565b6040516200035e919062004197565b348015620007df57600080fd5b50620003d7620007f1366004620041a8565b62002ad6565b3480156200080457600080fd5b50620003d762000816366004620039b5565b62002c2a565b3480156200082957600080fd5b50620003806101325481565b3480156200084257600080fd5b5061012e546200034a906001600160a01b031681565b3480156200086557600080fd5b506200071762002c8f565b3480156200087d57600080fd5b5061012d546200034a906001600160a01b031681565b348015620008a057600080fd5b5061012f546200034a906001600160a01b031681565b348015620008c357600080fd5b50620003d7620008d5366004620039b5565b62002d05565b348015620008e857600080fd5b506200038062002d32565b3480156200090057600080fd5b50620003d76200091236600462003c50565b62002d41565b3480156200092557600080fd5b50610145546200034a906001600160a01b031681565b3480156200094857600080fd5b50620003d76200095a366004620039b5565b62002dce565b3480156200096d57600080fd5b506200038062002e37565b3480156200098557600080fd5b50620003d762000997366004620039b5565b62002e4d565b348015620009aa57600080fd5b50620003d7620009bc366004620039b5565b62002ec9565b348015620009cf57600080fd5b5062000423620009e1366004620039b5565b62002fe3565b620009f162003005565b60408051808201909152600c81526b414444524553535f5a45524f60a01b60208201526001600160a01b03821662000a475760405162461bcd60e51b815260040162000a3e91906200428e565b60405180910390fd5b5061013980546001600160a01b0319166001600160a01b0383169081179091556040519081527f48919a8bb9d5ad92fa352adb62046eaabb006b67ba2fcf7566ed0879ab5a27c3906020015b60405180910390a150565b600054610100900460ff161580801562000abf5750600054600160ff909116105b8062000adb5750303b15801562000adb575060005460ff166001145b62000b405760405162461bcd60e51b815260206004820152602e60248201527f496e697469616c697a61626c653a20636f6e747261637420697320616c72656160448201526d191e481a5b9a5d1a585b1a5e995960921b606482015260840162000a3e565b6000805460ff19166001179055801562000b64576000805461ff0019166101001790555b60408051808201909152600c81526b414444524553535f5a45524f60a01b60208201526001600160a01b038b1662000bb15760405162461bcd60e51b815260040162000a3e91906200428e565b5060408051808201909152600c81526b414444524553535f5a45524f60a01b60208201526001600160a01b038a1662000bff5760405162461bcd60e51b815260040162000a3e91906200428e565b5060408051808201909152600c81526b414444524553535f5a45524f60a01b60208201526001600160a01b03891662000c4d5760405162461bcd60e51b815260040162000a3e91906200428e565b5060408051808201909152600c81526b414444524553535f5a45524f60a01b60208201526001600160a01b03881662000c9b5760405162461bcd60e51b815260040162000a3e91906200428e565b5060408051808201909152600c81526b414444524553535f5a45524f60a01b60208201526001600160a01b03871662000ce95760405162461bcd60e51b815260040162000a3e91906200428e565b5060408051808201909152600c81526b414444524553535f5a45524f60a01b60208201526001600160a01b03851662000d375760405162461bcd60e51b815260040162000a3e91906200428e565b5060408051808201909152600c81526b414444524553535f5a45524f60a01b60208201526001600160a01b03841662000d855760405162461bcd60e51b815260040162000a3e91906200428e565b5062000d9062003068565b62000d9a6200309c565b61012d80546001600160a01b03199081166001600160a01b038d81169190911790925561012e805482168c841617905561012f805482168b8416179055610130805482168a84161790556101318054909116918816919091179055843561013255602080860135610133556040808701356101345580516101408101825260608801358152608088013592810192909252810186600560200201358152602001866006600d811062000e505762000e50620042a3565b60200201358152602001866007600d811062000e705762000e70620042a3565b60200201358152602001866008600d811062000e905762000e90620042a3565b60200201358152602001866009600d811062000eb05762000eb0620042a3565b6020020135815260200186600a600d811062000ed05762000ed0620042a3565b6020020135815260200186600b600d811062000ef05762000ef0620042a3565b6020020135815260200186600c600d811062000f105762000f10620042a3565b6020020135905262000f289061013b90600a620038d5565b5061013580546001600160a01b038087166001600160a01b03199283161790925561013680549286169290911691909117905562000f6630620009e7565b62000f718262002d41565b801562000fb8576000805461ff0019169055604051600181527f7f26b83ff96e1f2b6a682f133852f6798a09c465da95921460cefb38474024989060200160405180910390a15b50505050505050505050565b6001600160a01b0381166000908152610148602052604081205415155b92915050565b61012d54604051630db9619f60e31b81523360048201526001916001600160a01b031690636dcb0cf890602401602060405180830381865afa15801562001032573d6000803e3d6000fd5b505050506040513d601f19601f82011682018060405250810190620010589190620042cf565b60038111156200106c576200106c620042b9565b14604051806040016040528060088152602001671393d517d413d3d360c21b81525090620010af5760405162461bcd60e51b815260040162000a3e91906200428e565b50620010ba620030c6565b620010c462003121565b6000806001846002811115620010de57620010de620042b9565b036200137f576000336001600160a01b0316633eac99986040518163ffffffff1660e01b8152600401602060405180830381865afa15801562001125573d6000803e3d6000fd5b505050506040513d601f19601f820116820180604052508101906200114b9190620042f2565b6001600160a01b031663c19d93fb6040518163ffffffff1660e01b8152600401602060405180830381865afa15801562001189573d6000803e3d6000fd5b505050506040513d601f19601f82011682018060405250810190620011af919062004312565b6002811115620011c357620011c3620042b9565b1415604051806040016040528060118152602001704143544956455f5447455f45584953545360781b81525090620012105760405162461bcd60e51b815260040162000a3e91906200428e565b50610130546040516001600160a01b03909116906200122f9062003918565b6200123b919062004332565b604051809103906000f08015801562001258573d6000803e3d6000fd5b509150816001600160a01b0316632c4e8d55336001600160a01b031663fc0c546a6040518163ffffffff1660e01b8152600401602060405180830381865afa158015620012a9573d6000803e3d6000fd5b505050506040513d601f19601f82011682018060405250810190620012cf9190620042f2565b886040518363ffffffff1660e01b8152600401620012ef929190620043f4565b600060405180830381600087803b1580156200130a57600080fd5b505af11580156200131f573d6000803e3d6000fd5b5050604051630a08df1760e31b81526001600160a01b0385166004820152339250635046f8b89150602401600060405180830381600087803b1580156200136557600080fd5b505af11580156200137a573d6000803e3d6000fd5b505050505b6002846002811115620013965762001396620042b9565b036200155e57610130546040516001600160a01b0390911690620013ba9062003918565b620013c6919062004332565b604051809103906000f080158015620013e3573d6000803e3d6000fd5b5061012f546040519193506001600160a01b031690620014039062003918565b6200140f919062004332565b604051809103906000f0801580156200142c573d6000803e3d6000fd5b5060405163c63ee31560e01b81529091506001600160a01b0382169063c63ee315906200146a90339060208b013590899088908a90600401620044f0565b600060405180830381600087803b1580156200148557600080fd5b505af11580156200149a573d6000803e3d6000fd5b5050604051632c4e8d5560e01b81526001600160a01b0385169250632c4e8d559150620014ce9084908a90600401620043f4565b600060405180830381600087803b158015620014e957600080fd5b505af1158015620014fe573d6000803e3d6000fd5b5050604051634b4560bd60e01b81526001600160a01b0384166004820152339250634b4560bd9150602401600060405180830381600087803b1580156200154457600080fd5b505af115801562001559573d6000803e3d6000fd5b505050505b61012d54604051631f8b400560e01b81526001600160a01b0390911690631f8b400590620015969085906003908a906004016200455e565b6020604051808303816000875af1158015620015b6573d6000803e3d6000fd5b505050506040513d601f19601f82011682018060405250810190620015dc919062004591565b50604080513381526001600160a01b03848116602083015283168183015290517ff74d32d2119bcaf2616d37895d32adafbee1dceb25a98646ca514098f422fd899181900360600190a1505062001633600160c955565b50505050565b6001600160a01b037f0000000000000000000000000000000000000000000000000000000000000000163003620016845760405162461bcd60e51b815260040162000a3e90620045ab565b7f00000000000000000000000000000000000000000000000000000000000000006001600160a01b0316620016cf600080516020620053f4833981519152546001600160a01b031690565b6001600160a01b031614620016f85760405162461bcd60e51b815260040162000a3e90620045f7565b620017038162003169565b60408051600080825260208201909252620017219183919062003173565b50565b6200172e62003005565b62001738620032eb565b565b61012d54604051630db9619f60e31b81523360048201526001916001600160a01b031690636dcb0cf890602401602060405180830381865afa15801562001785573d6000803e3d6000fd5b505050506040513d601f19601f82011682018060405250810190620017ab9190620042cf565b6003811115620017bf57620017bf620042b9565b14604051806040016040528060088152602001671393d517d413d3d360c21b81525090620018025760405162461bcd60e51b815260040162000a3e91906200428e565b506200180d62003121565b61012d5460405163f4be936960e01b8152336004820152602481018390526001600160a01b039091169063f4be9369906044016020604051808303816000875af115801562001860573d6000803e3d6000fd5b505050506040513d601f19601f8201168201806040525081019062001886919062004591565b5050565b61013b81600a81106200189c57600080fd5b0154905081565b620018ae3362002fe3565b6040518060400160405280600f81526020016e1393d517d5d2125511531254d51151608a1b81525090620018f75760405162461bcd60e51b815260040162000a3e91906200428e565b5062001902620030c6565b6200190c62003121565b670de0b6b3a7640000886020015110156040518060400160405280600b81526020016a0494e56414c49445f4341560ac1b81525090620019615760405162461bcd60e51b815260040162000a3e91906200428e565b5062001971886020015162002725565b8860200181815162001984919062004659565b90525061012d546001600160a01b03908116908a1662001b3657604051637e89ed2760e01b8152600481018790526024810184905260009081906001600160a01b03841690637e89ed279060440160408051808303816000875af1158015620019f1573d6000803e3d6000fd5b505050506040513d601f19601f8201168201806040525081019062001a1791906200466f565b60408051808201909152600a8152694e4f5f434f4d50414e5960b01b602082015291935091506001600160a01b03831662001a675760405162461bcd60e51b815260040162000a3e91906200428e565b50604080518082019091526014815273125390d3d4949150d517d1551217d41054d4d15160621b602082015234821462001ab65760405162461bcd60e51b815260040162000a3e91906200428e565b50885160208a01516040808c015190516366103c1760e11b8152949e508e946001600160a01b0386169363cc20782e9362001afa9333938e908e90600401620046a0565b600060405180830381600087803b15801562001b1557600080fd5b505af115801562001b2a573d6000803e3d6000fd5b50505050505062001d67565b6001604051630db9619f60e31b81526001600160a01b038c81166004830152831690636dcb0cf890602401602060405180830381865afa15801562001b7f573d6000803e3d6000fd5b505050506040513d601f19601f8201168201806040525081019062001ba59190620042cf565b600381111562001bb95762001bb9620042b9565b14604051806040016040528060088152602001671393d517d413d3d360c21b8152509062001bfc5760405162461bcd60e51b815260040162000a3e91906200428e565b50896001600160a01b0316638da5cb5b6040518163ffffffff1660e01b8152600401602060405180830381865afa15801562001c3c573d6000803e3d6000fd5b505050506040513d601f19601f8201168201806040525081019062001c629190620042f2565b6001600160a01b0316336001600160a01b0316146040518060400160405280600e81526020016d2727aa2fa827a7a62fa7aba722a960911b8152509062001cbe5760405162461bcd60e51b815260040162000a3e91906200428e565b50896001600160a01b031663e47bfee86040518163ffffffff1660e01b8152600401602060405180830381865afa15801562001cfe573d6000803e3d6000fd5b505050506040513d601f19601f8201168201806040525081019062001d249190620046f7565b156040518060400160405280600681526020016549535f44414f60d01b8152509062001d655760405162461bcd60e51b815260040162000a3e91906200428e565b505b61012f546040516000916001600160a01b03169062001d869062003918565b62001d92919062004332565b604051809103906000f08015801562001daf573d6000803e3d6000fd5b50604051631f8b400560e01b81529091506001600160a01b03831690631f8b40059062001de49084906002906004016200471b565b6020604051808303816000875af115801562001e04573d6000803e3d6000fd5b505050506040513d601f19601f8201168201806040525081019062001e2a919062004591565b50610130546040516000916001600160a01b03169062001e4a9062003918565b62001e56919062004332565b604051809103906000f08015801562001e73573d6000803e3d6000fd5b50604051631f8b400560e01b81529091506001600160a01b03841690631f8b40059062001eaa90849060039089906004016200455e565b6020604051808303816000875af115801562001eca573d6000803e3d6000fd5b505050506040513d601f19601f8201168201806040525081019062001ef0919062004591565b506040516308c2f38b60e31b81526001600160a01b038416906346179c589062001f25908f9060039060009060040162004761565b6020604051808303816000875af115801562001f45573d6000803e3d6000fd5b505050506040513d601f19601f8201168201806040525081019062001f6b919062004591565b50816001600160a01b031663c63ee3158d8d600001518e60200151600160006040518663ffffffff1660e01b815260040162001fac9594939291906200479c565b600060405180830381600087803b15801562001fc757600080fd5b505af115801562001fdc573d6000803e3d6000fd5b505060405163144fa6d760e01b81526001600160a01b0385811660048301528f16925063144fa6d79150602401600060405180830381600087803b1580156200202457600080fd5b505af115801562002039573d6000803e3d6000fd5b5050604051632c4e8d5560e01b81526001600160a01b0384169250632c4e8d5591506200206d9085908e9060040162004830565b600060405180830381600087803b1580156200208857600080fd5b505af11580156200209d573d6000803e3d6000fd5b5050604051631bd974ad60e31b81526001600160a01b0384811660048301528f16925063decba5689150602401600060405180830381600087803b158015620020e557600080fd5b505af1158015620020fa573d6000803e3d6000fd5b5050604051630a08df1760e31b81526001600160a01b0384811660048301528f169250635046f8b89150602401600060405180830381600087803b1580156200214257600080fd5b505af115801562002157573d6000803e3d6000fd5b5050505062002172336101376200333f90919063ffffffff16565b50604080516001600160a01b038e81168252848116602083015283168183015290517f9c5d829b9b23efc461f9aeef91979ec04bb903feb3bee4f26d22114abfc7335b9181900360600190a1505050620021cc600160c955565b505050505050505050565b6001600160a01b037f0000000000000000000000000000000000000000000000000000000000000000163003620022225760405162461bcd60e51b815260040162000a3e90620045ab565b7f00000000000000000000000000000000000000000000000000000000000000006001600160a01b03166200226d600080516020620053f4833981519152546001600160a01b031690565b6001600160a01b031614620022965760405162461bcd60e51b815260040162000a3e90620045f7565b620022a18262003169565b620018868282600162003173565b620022b962003005565b6040516323681e3d60e01b8152600481018290526001600160a01b038316906323681e3d90602401600060405180830381600087803b158015620022fc57600080fd5b505af115801562002311573d6000803e3d6000fd5b505050505050565b6200232362003005565b61012d546040516341a453e160e01b81526001600160a01b03909116906341a453e1906200235c9087908790879087906004016200490a565b602060405180830381865afa1580156200237a573d6000803e3d6000fd5b505050506040513d601f19601f82011682018060405250810190620023a09190620046f7565b50610132849055610133839055610134829055620023c361013b82600a62003926565b5050505050565b6000306001600160a01b037f000000000000000000000000000000000000000000000000000000000000000016146200246c5760405162461bcd60e51b815260206004820152603860248201527f555550535570677261646561626c653a206d757374206e6f742062652063616c60448201527f6c6564207468726f7567682064656c656761746563616c6c0000000000000000606482015260840162000a3e565b50600080516020620053f483398151915290565b6200248a62003005565b61014580546001600160a01b0319166001600160a01b0392909216919091179055565b620024b762003005565b62001738600062003356565b620024cd620026ec565b6001600160a01b0316336001600160a01b03161480620024f35750620024f33362000fc4565b6040518060400160405280600f81526020016e1393d517d5d2125511531254d51151608a1b815250906200253c5760405162461bcd60e51b815260040162000a3e91906200428e565b506200254b61013782620033a8565b604051806040016040528060138152602001721053149150511657d5d2125511531254d51151606a1b81525090620025985760405162461bcd60e51b815260040162000a3e91906200428e565b50604080516001600160a01b0383168152600160208201527fdf3714d6f88cdae2b889250b70116def7fb5083073c65cce38b56d2b0b0ef64e910162000a93565b620025e362003005565b62001738620033bf565b620025f762003005565b60408051808201909152600c81526b414444524553535f5a45524f60a01b60208201526001600160a01b038216620026445760405162461bcd60e51b815260040162000a3e91906200428e565b506040516000906001600160a01b038316903031908381818185875af1925050503d806000811462002693576040519150601f19603f3d011682016040523d82523d6000602084013e62002698565b606091505b50509050806040518060400160405280601081526020016f11561150d5551253d397d1905253115160821b81525090620026e75760405162461bcd60e51b815260040162000a3e91906200428e565b505050565b6000620027016033546001600160a01b031690565b905090565b606062002701610137620033ff565b600062000fe1610137836200340e565b60006200273162002e37565b8210156040518060400160405280600d81526020016c494e56414c49445f56414c554560981b815250906200277b5760405162461bcd60e51b815260040162000a3e91906200428e565b50600168056bc75e2d63100000831115620027a6575064e8d4a51000620027a3818462004932565b92505b80620f42408461013a54620027bc919062004955565b620027c8919062004932565b620027d4919062004955565b9392505050565b6000600161012d54604051630db9619f60e31b81526001600160a01b03858116600483015290911690636dcb0cf890602401602060405180830381865afa1580156200282b573d6000803e3d6000fd5b505050506040513d601f19601f82011682018060405250810190620028519190620042cf565b6003811115620028655762002865620042b9565b148015620028d35750816001600160a01b031663e47bfee86040518163ffffffff1660e01b8152600401602060405180830381865afa158015620028ad573d6000803e3d6000fd5b505050506040513d601f19601f82011682018060405250810190620028d39190620046f7565b1562002a7b57620029a6826001600160a01b031663fc0c546a6040518163ffffffff1660e01b8152600401602060405180830381865afa1580156200291c573d6000803e3d6000fd5b505050506040513d601f19601f82011682018060405250810190620029429190620042f2565b6001600160a01b031663355274ea6040518163ffffffff1660e01b8152600401602060405180830381865afa15801562002980573d6000803e3d6000fd5b505050506040513d601f19601f8201168201806040525081019062000780919062004591565b826001600160a01b031663fc0c546a6040518163ffffffff1660e01b8152600401602060405180830381865afa158015620029e5573d6000803e3d6000fd5b505050506040513d601f19601f8201168201806040525081019062002a0b9190620042f2565b6001600160a01b031663355274ea6040518163ffffffff1660e01b8152600401602060405180830381865afa15801562002a49573d6000803e3d6000fd5b505050506040513d601f19601f8201168201806040525081019062002a6f919062004591565b62000fe191906200496f565b62002a8860001962002725565b62000fe1906000196200496f565b62002aa062003957565b604080516101408101918290529061013b90600a9082845b81548152602001906001019080831162002ab8575050505050905090565b61012d54604051630db9619f60e31b81523360048201526001916001600160a01b031690636dcb0cf890602401602060405180830381865afa15801562002b21573d6000803e3d6000fd5b505050506040513d601f19601f8201168201806040525081019062002b479190620042cf565b600381111562002b5b5762002b5b620042b9565b14604051806040016040528060088152602001671393d517d413d3d360c21b8152509062002b9e5760405162461bcd60e51b815260040162000a3e91906200428e565b5062002ba962003121565b61012d546040516308c2f38b60e31b81526001600160a01b03909116906346179c589062002be4903390889088908890889060040162004985565b6020604051808303816000875af115801562002c04573d6000803e3d6000fd5b505050506040513d601f19601f82011682018060405250810190620023c3919062004591565b62002c3462003005565b62002c4261014782620033a8565b604051806040016040528060138152602001721053149150511657d5d2125511531254d51151606a1b81525090620018865760405162461bcd60e51b815260040162000a3e91906200428e565b61012d546040805163ca735cc160e01b815290516060926001600160a01b03169163ca735cc19160048083019260009291908290030181865afa15801562002cdb573d6000803e3d6000fd5b505050506040513d6000823e601f3d908101601f19168201604052620027019190810190620049db565b62002d0f62003005565b61014680546001600160a01b0319166001600160a01b0392909216919091179055565b6000620027016101376200341c565b62002d4b62003005565b60408051808201909152600d81526c494e56414c49445f56414c554560981b6020820152620f424082111562002d965760405162461bcd60e51b815260040162000a3e91906200428e565b5061013a8190556040518181527f3356e979ac6b186521938f589b0f14ab4bac888ba2f12703da660b1f4ed1119f9060200162000a93565b62002dd862003005565b62002de6610147826200333f565b604051806040016040528060178152602001761053149150511657d393d517d5d2125511531254d51151604a1b81525090620018865760405162461bcd60e51b815260040162000a3e91906200428e565b600061013a54620f424062002701919062004932565b62002e5762003005565b6001600160a01b03811662002ebe5760405162461bcd60e51b815260206004820152602660248201527f4f776e61626c653a206e6577206f776e657220697320746865207a65726f206160448201526564647265737360d01b606482015260840162000a3e565b620017218162003356565b62002ed3620026ec565b6001600160a01b0316336001600160a01b0316148062002ef9575062002ef93362000fc4565b6040518060400160405280600f81526020016e1393d517d5d2125511531254d51151608a1b8152509062002f425760405162461bcd60e51b815260040162000a3e91906200428e565b5062002f51610137826200333f565b604051806040016040528060178152602001761053149150511657d393d517d5d2125511531254d51151604a1b8152509062002fa25760405162461bcd60e51b815260040162000a3e91906200428e565b50604080516001600160a01b0383168152600060208201527fdf3714d6f88cdae2b889250b70116def7fb5083073c65cce38b56d2b0b0ef64e910162000a93565b6001600160a01b03811660009081526101386020526040812054151562000fe1565b3362003010620026ec565b6001600160a01b031614620017385760405162461bcd60e51b815260206004820181905260248201527f4f776e61626c653a2063616c6c6572206973206e6f7420746865206f776e6572604482015260640162000a3e565b600054610100900460ff16620030925760405162461bcd60e51b815260040162000a3e9062004a74565b6200173862003427565b600054610100900460ff16620017385760405162461bcd60e51b815260040162000a3e9062004a74565b600260c954036200311a5760405162461bcd60e51b815260206004820152601f60248201527f5265656e7472616e637947756172643a207265656e7472616e742063616c6c00604482015260640162000a3e565b600260c955565b60fb5460ff1615620017385760405162461bcd60e51b815260206004820152601060248201526f14185d5cd8589b194e881c185d5cd95960821b604482015260640162000a3e565b6200172162003005565b7f4910fdfa16fed3260ed0e7147f7cc6da11a60208b5b9406d12a635614ffd91435460ff1615620031a957620026e7836200345c565b826001600160a01b03166352d1902d6040518163ffffffff1660e01b8152600401602060405180830381865afa92505050801562003206575060408051601f3d908101601f19168201909252620032039181019062004591565b60015b6200326b5760405162461bcd60e51b815260206004820152602e60248201527f45524331393637557067726164653a206e657720696d706c656d656e7461746960448201526d6f6e206973206e6f74205555505360901b606482015260840162000a3e565b600080516020620053f48339815191528114620032dd5760405162461bcd60e51b815260206004820152602960248201527f45524331393637557067726164653a20756e737570706f727465642070726f786044820152681a58589b195555525160ba1b606482015260840162000a3e565b50620026e7838383620034fb565b620032f562003526565b60fb805460ff191690557f5db9ee0a495bf2e6ff9c91a7834c1ba4fdd244a5e8aa4e537bd38aeae4b073aa335b6040516001600160a01b03909116815260200160405180910390a1565b6000620027d4836001600160a01b03841662003571565b603380546001600160a01b038381166001600160a01b0319831681179093556040519116919082907f8be0079c531659141344cd1fd0a4f28419497f9722a3daafe3b4186f6b6457e090600090a35050565b6000620027d4836001600160a01b03841662003675565b620033c962003121565b60fb805460ff191660011790557f62e78cea01bee320cd4e420270b5ea74000d11b0c9f74754ebdbfc544b05a258620033223390565b60606000620027d483620036c7565b6000620027d4838362003725565b600062000fe1825490565b600054610100900460ff16620034515760405162461bcd60e51b815260040162000a3e9062004a74565b620017383362003356565b6001600160a01b0381163b620034cb5760405162461bcd60e51b815260206004820152602d60248201527f455243313936373a206e657720696d706c656d656e746174696f6e206973206e60448201526c1bdd08184818dbdb9d1c9858dd609a1b606482015260840162000a3e565b600080516020620053f483398151915280546001600160a01b0319166001600160a01b0392909216919091179055565b620035068362003752565b600082511180620035145750805b15620026e75762001633838362003794565b60fb5460ff16620017385760405162461bcd60e51b815260206004820152601460248201527314185d5cd8589b194e881b9bdd081c185d5cd95960621b604482015260640162000a3e565b600081815260018301602052604081205480156200366a576000620035986001836200496f565b8554909150600090620035ae906001906200496f565b90508181146200361a576000866000018281548110620035d257620035d2620042a3565b9060005260206000200154905080876000018481548110620035f857620035f8620042a3565b6000918252602080832090910192909255918252600188019052604090208390555b85548690806200362e576200362e62004abf565b60019003818190600052602060002001600090559055856001016000868152602001908152602001600020600090556001935050505062000fe1565b600091505062000fe1565b6000818152600183016020526040812054620036be5750815460018181018455600084815260208082209093018490558454848252828601909352604090209190915562000fe1565b50600062000fe1565b6060816000018054806020026020016040519081016040528092919081815260200182805480156200371957602002820191906000526020600020905b81548152602001906001019080831162003704575b50505050509050919050565b60008260000182815481106200373f576200373f620042a3565b9060005260206000200154905092915050565b6200375d816200345c565b6040516001600160a01b038216907fbc7cd75a20ee27fd9adebab32041f755214dbc6bffa90cc0225b39da2e5c2d3b90600090a250565b60606001600160a01b0383163b620037fe5760405162461bcd60e51b815260206004820152602660248201527f416464726573733a2064656c65676174652063616c6c20746f206e6f6e2d636f6044820152651b9d1c9858dd60d21b606482015260840162000a3e565b600080846001600160a01b0316846040516200381b919062004ad5565b600060405180830381855af49150503d806000811462003858576040519150601f19603f3d011682016040523d82523d6000602084013e6200385d565b606091505b5091509150620038888282604051806060016040528060278152602001620054146027913962003891565b95945050505050565b60608315620038a2575081620027d4565b620027d48383815115620038b95781518083602001fd5b8060405162461bcd60e51b815260040162000a3e91906200428e565b82600a810192821562003906579160200282015b8281111562003906578251825591602001919060010190620038e9565b506200391492915062003976565b5090565b6109008062004af483390190565b82600a810192821562003906579160200282015b82811115620039065782358255916020019190600101906200393a565b604051806101400160405280600a906020820280368337509192915050565b5b8082111562003914576000815560010162003977565b6001600160a01b03811681146200172157600080fd5b8035620039b0816200398d565b919050565b600060208284031215620039c857600080fd5b8135620027d4816200398d565b60008060008060008060008060006102a08a8c031215620039f557600080fd5b893562003a02816200398d565b985060208a013562003a14816200398d565b975060408a013562003a26816200398d565b965060608a013562003a38816200398d565b955060808a013562003a4a816200398d565b94506102408a018b81111562003a5f57600080fd5b60a08b0194503562003a71816200398d565b92506102608a013562003a84816200398d565b809250506102808a013590509295985092959850929598565b634e487b7160e01b600052604160045260246000fd5b6040516101a081016001600160401b038111828210171562003ad95762003ad962003a9d565b60405290565b604051601f8201601f191681016001600160401b038111828210171562003b0a5762003b0a62003a9d565b604052919050565b60006001600160401b0383111562003b2e5762003b2e62003a9d565b62003b43601f8401601f191660200162003adf565b905082815283838301111562003b5857600080fd5b828260208301376000602084830101529392505050565b600082601f83011262003b8157600080fd5b620027d48383356020850162003b12565b600381106200172157600080fd5b6000806000806080858703121562003bb757600080fd5b84356001600160401b038082111562003bcf57600080fd5b908601906101a0828903121562003be557600080fd5b9094506020860135908082111562003bfc57600080fd5b62003c0a8883890162003b6f565b94506040870135915062003c1e8262003b92565b9092506060860135908082111562003c3557600080fd5b5062003c448782880162003b6f565b91505092959194509250565b60006020828403121562003c6357600080fd5b5035919050565b60006040828403121562003c7d57600080fd5b604051604081016001600160401b03828210818311171562003ca35762003ca362003a9d565b81604052829350843591508082111562003cbc57600080fd5b5062003ccb8582860162003b6f565b825250602083013560208201525092915050565b60006001600160401b0382111562003cfb5762003cfb62003a9d565b5060051b60200190565b600082601f83011262003d1757600080fd5b8135602062003d3062003d2a8362003cdf565b62003adf565b82815260059290921b8401810191818101908684111562003d5057600080fd5b8286015b8481101562003d7857803562003d6a816200398d565b835291830191830162003d54565b509695505050505050565b60006101a0828403121562003d9757600080fd5b62003da162003ab3565b9050813581526020820135602082015260408201356040820152606082013560608201526080820135608082015260a082013560a082015260c082013560c082015260e082013560e0820152610100808301358183015250610120808301356001600160401b0381111562003e1557600080fd5b62003e238582860162003d05565b82840152505061014062003e39818401620039a3565b9082015261016082810135908201526101809182013591810191909152919050565b600082601f83011262003e6d57600080fd5b604051606081018181106001600160401b038211171562003e925762003e9262003a9d565b60405280606084018581111562003ea857600080fd5b845b8181101562003ec457803583526020928301920162003eaa565b509195945050505050565b600082601f83011262003ee157600080fd5b6040516101408082018281106001600160401b038211171562003f085762003f0862003a9d565b6040528301818582111562003f1c57600080fd5b845b8281101562003ec457803582526020918201910162003f1e565b60008060008060008060008060006102808a8c03121562003f5857600080fd5b62003f638a620039a3565b985060208a01356001600160401b038082111562003f8057600080fd5b62003f8e8d838e0162003c6a565b995060408c013591508082111562003fa557600080fd5b62003fb38d838e0162003d83565b985062003fc48d60608e0162003e5b565b975060c08c0135965062003fdc8d60e08e0162003ecf565b95506102208c013591508082111562003ff457600080fd5b620040028d838e0162003b6f565b94506102408c013593506102608c01359150808211156200402257600080fd5b50620040318c828d0162003b6f565b9150509295985092959850929598565b600080604083850312156200405557600080fd5b823562004062816200398d565b915060208301356001600160401b038111156200407e57600080fd5b8301601f810185136200409057600080fd5b620040a18582356020840162003b12565b9150509250929050565b60008060408385031215620040bf57600080fd5b8235620040cc816200398d565b946020939093013593505050565b6000806000806101a0808688031215620040f357600080fd5b8535945060208601359350604086013592508681870111156200411557600080fd5b509295919450926060019150565b6020808252825182820181905260009190848201906040850190845b81811015620041665783516001600160a01b0316835292840192918401916001016200413f565b50909695505050505050565b8060005b600a8110156200163357815184526020938401939091019060010162004176565b610140810162000fe1828462004172565b60008060008060608587031215620041bf57600080fd5b843560058110620041cf57600080fd5b93506020850135925060408501356001600160401b0380821115620041f357600080fd5b818701915087601f8301126200420857600080fd5b8135818111156200421857600080fd5b8860208285010111156200422b57600080fd5b95989497505060200194505050565b60005b83811015620042575781810151838201526020016200423d565b50506000910152565b600081518084526200427a8160208601602086016200423a565b601f01601f19169290920160200192915050565b602081526000620027d4602083018462004260565b634e487b7160e01b600052603260045260246000fd5b634e487b7160e01b600052602160045260246000fd5b600060208284031215620042e257600080fd5b815160048110620027d457600080fd5b6000602082840312156200430557600080fd5b8151620027d4816200398d565b6000602082840312156200432557600080fd5b8151620027d48162003b92565b6001600160a01b0391909116815260406020820181905260009082015260600190565b6000808335601e198436030181126200436d57600080fd5b83016020810192503590506001600160401b038111156200438d57600080fd5b8060051b3603821315620043a057600080fd5b9250929050565b8183526000602080850194508260005b85811015620043e9578135620043cd816200398d565b6001600160a01b031687529582019590820190600101620043b7565b509495945050505050565b60018060a01b038316815260406020820152813560408201526020820135606082015260408201356080820152606082013560a0820152608082013560c082015260a082013560e0820152600061010060c08401358184015261012060e0850135818501526101408286013581860152620044728287018762004355565b935091506101a06101608181880152620044926101e088018686620043a7565b9450620044a1838901620039a3565b93506101809250620044bd838801856001600160a01b03169052565b87013590860152909401356101c0909301929092525092915050565b60038110620044ec57620044ec620042b9565b9052565b600060018060a01b03808816835260c06020840152600060c0840152866040840152620045216060840187620044d9565b80851660808401525060e060a08301526200454060e083018462004260565b979650505050505050565b60048110620044ec57620044ec620042b9565b6001600160a01b03841681526200457960208201846200454b565b60606040820152600062003888606083018462004260565b600060208284031215620045a457600080fd5b5051919050565b6020808252602c908201527f46756e6374696f6e206d7573742062652063616c6c6564207468726f7567682060408201526b19195b1959d85d1958d85b1b60a21b606082015260800190565b6020808252602c908201527f46756e6374696f6e206d7573742062652063616c6c6564207468726f7567682060408201526b6163746976652070726f787960a01b606082015260800190565b634e487b7160e01b600052601160045260246000fd5b8082018082111562000fe15762000fe162004643565b600080604083850312156200468357600080fd5b825162004690816200398d565b6020939093015192949293505050565b6001600160a01b038716815260208101869052604081018590526060810184905260006101e0620046d5608084018662004172565b806101c0840152620046ea8184018562004260565b9998505050505050505050565b6000602082840312156200470a57600080fd5b81518015158114620027d457600080fd5b6001600160a01b03831681526200473660208201836200454b565b60606040820181905260009082015260800192915050565b60058110620044ec57620044ec620042b9565b6001600160a01b03841681526200477c60208201846200474e565b604081019190915260806060820181905260009082015260a00192915050565b600060018060a01b03808816835260c06020840152620047c060c084018862004260565b866040850152620047d56060850187620044d9565b931660808301525080820360a09091015260008152602001949350505050565b600081518084526020808501945080840160005b83811015620043e95781516001600160a01b03168752958201959082019060010162004809565b60018060a01b038316815260406020820152815160408201526020820151606082015260408201516080820152606082015160a0820152608082015160c082015260a082015160e0820152600060c0830151610100818185015260e08501519150610120828186015281860151925061014091508282860152808601519250506101a06101608181870152620048cb6101e0870185620047f5565b92870151929350610180620048ea878201856001600160a01b03169052565b9087015191860191909152909401516101c0909301929092525092915050565b84815260208101849052604081018390526101a0810161014083606084013795945050505050565b6000826200495057634e487b7160e01b600052601260045260246000fd5b500490565b808202811582820484141762000fe15762000fe162004643565b8181038181111562000fe15762000fe162004643565b6001600160a01b0386168152620049a060208201866200474e565b83604082015260806060820152816080820152818360a0830137600081830160a090810191909152601f909201601f19160101949350505050565b60006020808385031215620049ef57600080fd5b82516001600160401b0381111562004a0657600080fd5b8301601f8101851362004a1857600080fd5b805162004a2962003d2a8262003cdf565b81815260059190911b8201830190838101908783111562004a4957600080fd5b928401925b828410156200454057835162004a64816200398d565b8252928401929084019062004a4e565b6020808252602b908201527f496e697469616c697a61626c653a20636f6e7472616374206973206e6f74206960408201526a6e697469616c697a696e6760a81b606082015260800190565b634e487b7160e01b600052603160045260246000fd5b6000825162004ae98184602087016200423a565b919091019291505056fe60806040526040516109003803806109008339810160408190526100229161045b565b61002e82826000610035565b5050610585565b61003e83610100565b6040516001600160a01b038416907f1cf3b03a6cf19fa2baba4df148e9dcabedea7f8a5c07840e207e5c089be95d3e90600090a260008251118061007f5750805b156100fb576100f9836001600160a01b0316635c60da1b6040518163ffffffff1660e01b8152600401602060405180830381865afa1580156100c5573d6000803e3d6000fd5b505050506040513d601f19601f820116820180604052508101906100e9919061051b565b836102a360201b6100291760201c565b505b505050565b610113816102cf60201b6100551760201c565b6101725760405162461bcd60e51b815260206004820152602560248201527f455243313936373a206e657720626561636f6e206973206e6f74206120636f6e6044820152641d1c9858dd60da1b60648201526084015b60405180910390fd5b6101e6816001600160a01b0316635c60da1b6040518163ffffffff1660e01b8152600401602060405180830381865afa1580156101b3573d6000803e3d6000fd5b505050506040513d601f19601f820116820180604052508101906101d7919061051b565b6102cf60201b6100551760201c565b61024b5760405162461bcd60e51b815260206004820152603060248201527f455243313936373a20626561636f6e20696d706c656d656e746174696f6e206960448201526f1cc81b9bdd08184818dbdb9d1c9858dd60821b6064820152608401610169565b806102827fa3f0ad74e5423aebfd80d3ef4346578335a9a72aeaee59ff6cb3582b35133d5060001b6102de60201b6100641760201c565b80546001600160a01b0319166001600160a01b039290921691909117905550565b60606102c883836040518060600160405280602781526020016108d9602791396102e1565b9392505050565b6001600160a01b03163b151590565b90565b6060600080856001600160a01b0316856040516102fe9190610536565b600060405180830381855af49150503d8060008114610339576040519150601f19603f3d011682016040523d82523d6000602084013e61033e565b606091505b5090925090506103508683838761035a565b9695505050505050565b606083156103c95782516000036103c2576001600160a01b0385163b6103c25760405162461bcd60e51b815260206004820152601d60248201527f416464726573733a2063616c6c20746f206e6f6e2d636f6e74726163740000006044820152606401610169565b50816103d3565b6103d383836103db565b949350505050565b8151156103eb5781518083602001fd5b8060405162461bcd60e51b81526004016101699190610552565b80516001600160a01b038116811461041c57600080fd5b919050565b634e487b7160e01b600052604160045260246000fd5b60005b8381101561045257818101518382015260200161043a565b50506000910152565b6000806040838503121561046e57600080fd5b61047783610405565b60208401519092506001600160401b038082111561049457600080fd5b818501915085601f8301126104a857600080fd5b8151818111156104ba576104ba610421565b604051601f8201601f19908116603f011681019083821181831017156104e2576104e2610421565b816040528281528860208487010111156104fb57600080fd5b61050c836020830160208801610437565b80955050505050509250929050565b60006020828403121561052d57600080fd5b6102c882610405565b60008251610548818460208701610437565b9190910192915050565b6020815260008251806020840152610571816040850160208701610437565b601f01601f19169190910160400192915050565b610345806105946000396000f3fe60806040523661001357610011610017565b005b6100115b610027610022610067565b610100565b565b606061004e83836040518060600160405280602781526020016102e960279139610124565b9392505050565b6001600160a01b03163b151590565b90565b600061009a7fa3f0ad74e5423aebfd80d3ef4346578335a9a72aeaee59ff6cb3582b35133d50546001600160a01b031690565b6001600160a01b0316635c60da1b6040518163ffffffff1660e01b8152600401602060405180830381865afa1580156100d7573d6000803e3d6000fd5b505050506040513d601f19601f820116820180604052508101906100fb919061024c565b905090565b3660008037600080366000845af43d6000803e80801561011f573d6000f35b3d6000fd5b6060600080856001600160a01b0316856040516101419190610299565b600060405180830381855af49150503d806000811461017c576040519150601f19603f3d011682016040523d82523d6000602084013e610181565b606091505b50915091506101928683838761019c565b9695505050505050565b60608315610210578251600003610209576001600160a01b0385163b6102095760405162461bcd60e51b815260206004820152601d60248201527f416464726573733a2063616c6c20746f206e6f6e2d636f6e747261637400000060448201526064015b60405180910390fd5b508161021a565b61021a8383610222565b949350505050565b8151156102325781518083602001fd5b8060405162461bcd60e51b815260040161020091906102b5565b60006020828403121561025e57600080fd5b81516001600160a01b038116811461004e57600080fd5b60005b83811015610290578181015183820152602001610278565b50506000910152565b600082516102ab818460208701610275565b9190910192915050565b60208152600082518060208401526102d4816040850160208701610275565b601f01601f1916919091016040019291505056fe416464726573733a206c6f772d6c6576656c2064656c65676174652063616c6c206661696c6564a264697066735822122022a6bf5ebbb7518c40e703958b5c8e4d70ca6715c1e1ccf9e9591bfc86e066d164736f6c63430008110033416464726573733a206c6f772d6c6576656c2064656c65676174652063616c6c206661696c6564360894a13ba1a3210667c828492db98dca3e2076cc3735a920a3ca505d382bbc416464726573733a206c6f772d6c6576656c2064656c65676174652063616c6c206661696c6564a2646970667358221220ce145d004241d54c81530a93c39435eb36d39f509c5c457853c5e7e048dc3c5b64736f6c63430008110033",
  "linkReferences": {},
  "deployedLinkReferences": {}
}