{
  "_format": "hh-sol-artifact-1",
  "contractName": "Service",
  "sourceName": "contracts/Service.sol",
  "abi": [
    {
      "inputs": [],
      "stateMutability": "nonpayable",
      "type": "constructor"
    },
    {
      "anonymous": false,
      "inputs": [
        {
          "indexed": false,
          "internalType": "address",
          "name": "previousAdmin",
          "type": "address"
        },
        {
          "indexed": false,
          "internalType": "address",
          "name": "newAdmin",
          "type": "address"
        }
      ],
      "name": "AdminChanged",
      "type": "event"
    },
    {
      "anonymous": false,
      "inputs": [
        {
          "indexed": true,
          "internalType": "address",
          "name": "beacon",
          "type": "address"
        }
      ],
      "name": "BeaconUpgraded",
      "type": "event"
    },
    {
      "anonymous": false,
      "inputs": [
        {
          "indexed": false,
          "internalType": "uint8",
          "name": "version",
          "type": "uint8"
        }
      ],
      "name": "Initialized",
      "type": "event"
    },
    {
      "anonymous": false,
      "inputs": [
        {
          "indexed": true,
          "internalType": "address",
          "name": "previousOwner",
          "type": "address"
        },
        {
          "indexed": true,
          "internalType": "address",
          "name": "newOwner",
          "type": "address"
        }
      ],
      "name": "OwnershipTransferred",
      "type": "event"
    },
    {
      "anonymous": false,
      "inputs": [
        {
          "indexed": false,
          "internalType": "address",
          "name": "account",
          "type": "address"
        }
      ],
      "name": "Paused",
      "type": "event"
    },
    {
      "anonymous": false,
      "inputs": [
        {
          "indexed": false,
          "internalType": "address",
          "name": "pool",
          "type": "address"
        },
        {
          "indexed": false,
          "internalType": "address",
          "name": "token",
          "type": "address"
        },
        {
          "indexed": false,
          "internalType": "address",
          "name": "tge",
          "type": "address"
        }
      ],
      "name": "PoolCreated",
      "type": "event"
    },
    {
      "anonymous": false,
      "inputs": [
        {
          "indexed": false,
          "internalType": "uint256",
          "name": "protocolTokenFee",
          "type": "uint256"
        }
      ],
      "name": "ProtocolTokenFeeChanged",
      "type": "event"
    },
    {
      "anonymous": false,
      "inputs": [
        {
          "indexed": false,
          "internalType": "address",
          "name": "protocolTreasury",
          "type": "address"
        }
      ],
      "name": "ProtocolTreasuryChanged",
      "type": "event"
    },
    {
      "anonymous": false,
      "inputs": [
        {
          "indexed": false,
          "internalType": "address",
          "name": "pool",
          "type": "address"
        },
        {
          "indexed": false,
          "internalType": "address",
          "name": "tge",
          "type": "address"
        },
        {
          "indexed": false,
          "internalType": "address",
          "name": "token",
          "type": "address"
        }
      ],
      "name": "SecondaryTGECreated",
      "type": "event"
    },
    {
      "anonymous": false,
      "inputs": [
        {
          "indexed": false,
          "internalType": "address",
          "name": "account",
          "type": "address"
        }
      ],
      "name": "Unpaused",
      "type": "event"
    },
    {
      "anonymous": false,
      "inputs": [
        {
          "indexed": true,
          "internalType": "address",
          "name": "implementation",
          "type": "address"
        }
      ],
      "name": "Upgraded",
      "type": "event"
    },
    {
      "anonymous": false,
      "inputs": [
        {
          "indexed": false,
          "internalType": "address",
          "name": "account",
          "type": "address"
        },
        {
          "indexed": false,
          "internalType": "bool",
          "name": "whitelisted",
          "type": "bool"
        }
      ],
      "name": "UserWhitelistedSet",
      "type": "event"
    },
    {
      "inputs": [
        {
          "internalType": "enum IDispatcher.EventType",
          "name": "eventType",
          "type": "uint8"
        },
        {
          "internalType": "uint256",
          "name": "proposalId",
          "type": "uint256"
        },
        {
          "internalType": "string",
          "name": "metaHash",
          "type": "string"
        }
      ],
      "name": "addEvent",
      "outputs": [],
      "stateMutability": "nonpayable",
      "type": "function"
    },
    {
      "inputs": [
        {
          "internalType": "address",
          "name": "account",
          "type": "address"
        }
      ],
      "name": "addManagerToWhitelist",
      "outputs": [],
      "stateMutability": "nonpayable",
      "type": "function"
    },
    {
      "inputs": [
        {
          "internalType": "uint256",
          "name": "proposalId",
          "type": "uint256"
        }
      ],
      "name": "addProposal",
      "outputs": [],
      "stateMutability": "nonpayable",
      "type": "function"
    },
    {
      "inputs": [
        {
          "internalType": "address",
          "name": "account",
          "type": "address"
        }
      ],
      "name": "addUserToWhitelist",
      "outputs": [],
      "stateMutability": "nonpayable",
      "type": "function"
    },
    {
      "inputs": [],
      "name": "ballotDecisionThreshold",
      "outputs": [
        {
          "internalType": "uint256",
          "name": "",
          "type": "uint256"
        }
      ],
      "stateMutability": "view",
      "type": "function"
    },
    {
      "inputs": [
        {
          "internalType": "uint256",
          "name": "",
          "type": "uint256"
        }
      ],
      "name": "ballotExecDelay",
      "outputs": [
        {
          "internalType": "uint256",
          "name": "",
          "type": "uint256"
        }
      ],
      "stateMutability": "view",
      "type": "function"
    },
    {
      "inputs": [],
      "name": "ballotLifespan",
      "outputs": [
        {
          "internalType": "uint256",
          "name": "",
          "type": "uint256"
        }
      ],
      "stateMutability": "view",
      "type": "function"
    },
    {
      "inputs": [],
      "name": "ballotQuorumThreshold",
      "outputs": [
        {
          "internalType": "uint256",
          "name": "",
          "type": "uint256"
        }
      ],
      "stateMutability": "view",
      "type": "function"
    },
    {
      "inputs": [
        {
          "internalType": "address",
          "name": "_pool",
          "type": "address"
        },
        {
          "internalType": "uint256",
          "name": "proposalId",
          "type": "uint256"
        }
      ],
      "name": "cancelBallot",
      "outputs": [],
      "stateMutability": "nonpayable",
      "type": "function"
    },
    {
      "inputs": [
        {
          "internalType": "contract IPool",
          "name": "pool",
          "type": "address"
        },
        {
          "components": [
            {
              "internalType": "string",
              "name": "symbol",
              "type": "string"
            },
            {
              "internalType": "uint256",
              "name": "cap",
              "type": "uint256"
            }
          ],
          "internalType": "struct IToken.TokenInfo",
          "name": "tokenInfo",
          "type": "tuple"
        },
        {
          "components": [
            {
              "internalType": "uint256",
              "name": "price",
              "type": "uint256"
            },
            {
              "internalType": "uint256",
              "name": "hardcap",
              "type": "uint256"
            },
            {
              "internalType": "uint256",
              "name": "softcap",
              "type": "uint256"
            },
            {
              "internalType": "uint256",
              "name": "minPurchase",
              "type": "uint256"
            },
            {
              "internalType": "uint256",
              "name": "maxPurchase",
              "type": "uint256"
            },
            {
              "internalType": "uint256",
              "name": "vestingPercent",
              "type": "uint256"
            },
            {
              "internalType": "uint256",
              "name": "vestingDuration",
              "type": "uint256"
            },
            {
              "internalType": "uint256",
              "name": "vestingTVL",
              "type": "uint256"
            },
            {
              "internalType": "uint256",
              "name": "duration",
              "type": "uint256"
            },
            {
              "internalType": "address[]",
              "name": "userWhitelist",
              "type": "address[]"
            },
            {
              "internalType": "address",
              "name": "unitOfAccount",
              "type": "address"
            },
            {
              "internalType": "uint256",
              "name": "lockupDuration",
              "type": "uint256"
            },
            {
              "internalType": "uint256",
              "name": "lockupTVL",
              "type": "uint256"
            }
          ],
          "internalType": "struct ITGE.TGEInfo",
          "name": "tgeInfo",
          "type": "tuple"
        },
        {
          "internalType": "uint256[3]",
          "name": "ballotSettings",
          "type": "uint256[3]"
        },
        {
          "internalType": "uint256",
          "name": "jurisdiction",
          "type": "uint256"
        },
        {
          "internalType": "uint256[10]",
          "name": "ballotExecDelay_",
          "type": "uint256[10]"
        },
        {
          "internalType": "string",
          "name": "trademark",
          "type": "string"
        },
        {
          "internalType": "uint256",
          "name": "entityType",
          "type": "uint256"
        },
        {
          "internalType": "string",
          "name": "metadataURI",
          "type": "string"
        }
      ],
      "name": "createPool",
      "outputs": [],
      "stateMutability": "payable",
      "type": "function"
    },
    {
      "inputs": [
        {
          "components": [
            {
              "internalType": "uint256",
              "name": "price",
              "type": "uint256"
            },
            {
              "internalType": "uint256",
              "name": "hardcap",
              "type": "uint256"
            },
            {
              "internalType": "uint256",
              "name": "softcap",
              "type": "uint256"
            },
            {
              "internalType": "uint256",
              "name": "minPurchase",
              "type": "uint256"
            },
            {
              "internalType": "uint256",
              "name": "maxPurchase",
              "type": "uint256"
            },
            {
              "internalType": "uint256",
              "name": "vestingPercent",
              "type": "uint256"
            },
            {
              "internalType": "uint256",
              "name": "vestingDuration",
              "type": "uint256"
            },
            {
              "internalType": "uint256",
              "name": "vestingTVL",
              "type": "uint256"
            },
            {
              "internalType": "uint256",
              "name": "duration",
              "type": "uint256"
            },
            {
              "internalType": "address[]",
              "name": "userWhitelist",
              "type": "address[]"
            },
            {
              "internalType": "address",
              "name": "unitOfAccount",
              "type": "address"
            },
            {
              "internalType": "uint256",
              "name": "lockupDuration",
              "type": "uint256"
            },
            {
              "internalType": "uint256",
              "name": "lockupTVL",
              "type": "uint256"
            }
          ],
          "internalType": "struct ITGE.TGEInfo",
          "name": "tgeInfo",
          "type": "tuple"
        },
        {
          "internalType": "string",
          "name": "metadataURI",
          "type": "string"
        },
        {
          "internalType": "enum IToken.TokenType",
          "name": "tokenType",
          "type": "uint8"
        },
        {
          "internalType": "string",
          "name": "tokenDescription",
          "type": "string"
        },
        {
          "internalType": "uint256",
          "name": "preferenceTokenCap",
          "type": "uint256"
        }
      ],
      "name": "createSecondaryTGE",
      "outputs": [],
      "stateMutability": "nonpayable",
      "type": "function"
    },
    {
      "inputs": [],
      "name": "dispatcher",
      "outputs": [
        {
          "internalType": "contract IDispatcher",
          "name": "",
          "type": "address"
        }
      ],
      "stateMutability": "view",
      "type": "function"
    },
    {
      "inputs": [],
      "name": "getBallotExecDelay",
      "outputs": [
        {
          "internalType": "uint256[10]",
          "name": "",
          "type": "uint256[10]"
        }
      ],
      "stateMutability": "view",
      "type": "function"
    },
    {
      "inputs": [
        {
          "internalType": "address",
          "name": "_pool",
          "type": "address"
        }
      ],
      "name": "getMaxHardCap",
      "outputs": [
        {
          "internalType": "uint256",
          "name": "",
          "type": "uint256"
        }
      ],
      "stateMutability": "view",
      "type": "function"
    },
    {
      "inputs": [],
      "name": "getMinSoftCap",
      "outputs": [
        {
          "internalType": "uint256",
          "name": "",
          "type": "uint256"
        }
      ],
      "stateMutability": "view",
      "type": "function"
    },
    {
      "inputs": [
        {
          "internalType": "uint256",
          "name": "amount",
          "type": "uint256"
        }
      ],
      "name": "getProtocolTokenFee",
      "outputs": [
        {
          "internalType": "uint256",
          "name": "",
          "type": "uint256"
        }
      ],
      "stateMutability": "view",
      "type": "function"
    },
    {
      "inputs": [
        {
          "internalType": "contract IDispatcher",
          "name": "dispatcher_",
          "type": "address"
        },
        {
          "internalType": "address",
          "name": "poolBeacon_",
          "type": "address"
        },
        {
          "internalType": "address",
          "name": "tokenBeacon_",
          "type": "address"
        },
        {
          "internalType": "address",
          "name": "tgeBeacon_",
          "type": "address"
        },
        {
          "internalType": "address",
          "name": "proposalGateway_",
          "type": "address"
        },
        {
          "internalType": "uint256[13]",
          "name": "ballotParams",
          "type": "uint256[13]"
        },
        {
          "internalType": "contract ISwapRouter",
          "name": "uniswapRouter_",
          "type": "address"
        },
        {
          "internalType": "contract IQuoter",
          "name": "uniswapQuoter_",
          "type": "address"
        },
        {
          "internalType": "uint256",
          "name": "protocolTokenFee_",
          "type": "uint256"
        }
      ],
      "name": "initialize",
      "outputs": [],
      "stateMutability": "nonpayable",
      "type": "function"
    },
    {
      "inputs": [
        {
          "internalType": "address",
          "name": "account",
          "type": "address"
        }
      ],
      "name": "isManagerWhitelisted",
      "outputs": [
        {
          "internalType": "bool",
          "name": "",
          "type": "bool"
        }
      ],
      "stateMutability": "view",
      "type": "function"
    },
    {
      "inputs": [
        {
          "internalType": "address",
          "name": "account",
          "type": "address"
        }
      ],
      "name": "isUserWhitelisted",
      "outputs": [
        {
          "internalType": "bool",
          "name": "",
          "type": "bool"
        }
      ],
      "stateMutability": "view",
      "type": "function"
    },
    {
      "inputs": [],
      "name": "owner",
      "outputs": [
        {
          "internalType": "address",
          "name": "",
          "type": "address"
        }
      ],
      "stateMutability": "view",
      "type": "function"
    },
    {
      "inputs": [],
      "name": "pause",
      "outputs": [],
      "stateMutability": "nonpayable",
      "type": "function"
    },
    {
      "inputs": [],
      "name": "paused",
      "outputs": [
        {
          "internalType": "bool",
          "name": "",
          "type": "bool"
        }
      ],
      "stateMutability": "view",
      "type": "function"
    },
    {
      "inputs": [],
      "name": "poolBeacon",
      "outputs": [
        {
          "internalType": "address",
          "name": "",
          "type": "address"
        }
      ],
      "stateMutability": "view",
      "type": "function"
    },
    {
      "inputs": [],
      "name": "primaryAsset",
      "outputs": [
        {
          "internalType": "address",
          "name": "",
          "type": "address"
        }
      ],
      "stateMutability": "view",
      "type": "function"
    },
    {
      "inputs": [],
      "name": "proposalGateway",
      "outputs": [
        {
          "internalType": "address",
          "name": "",
          "type": "address"
        }
      ],
      "stateMutability": "view",
      "type": "function"
    },
    {
      "inputs": [],
      "name": "protocolTokenFee",
      "outputs": [
        {
          "internalType": "uint256",
          "name": "",
          "type": "uint256"
        }
      ],
      "stateMutability": "view",
      "type": "function"
    },
    {
      "inputs": [],
      "name": "protocolTreasury",
      "outputs": [
        {
          "internalType": "address",
          "name": "",
          "type": "address"
        }
      ],
      "stateMutability": "view",
      "type": "function"
    },
    {
      "inputs": [],
      "name": "proxiableUUID",
      "outputs": [
        {
          "internalType": "bytes32",
          "name": "",
          "type": "bytes32"
        }
      ],
      "stateMutability": "view",
      "type": "function"
    },
    {
      "inputs": [
        {
          "internalType": "address",
          "name": "account",
          "type": "address"
        }
      ],
      "name": "removeManagerFromWhitelist",
      "outputs": [],
      "stateMutability": "nonpayable",
      "type": "function"
    },
    {
      "inputs": [
        {
          "internalType": "address",
          "name": "account",
          "type": "address"
        }
      ],
      "name": "removeUserFromWhitelist",
      "outputs": [],
      "stateMutability": "nonpayable",
      "type": "function"
    },
    {
      "inputs": [],
      "name": "renounceOwnership",
      "outputs": [],
      "stateMutability": "nonpayable",
      "type": "function"
    },
    {
      "inputs": [],
      "name": "secondaryAsset",
      "outputs": [
        {
          "internalType": "address",
          "name": "",
          "type": "address"
        }
      ],
      "stateMutability": "view",
      "type": "function"
    },
    {
      "inputs": [
        {
          "internalType": "uint256",
          "name": "ballotQuorumThreshold_",
          "type": "uint256"
        },
        {
          "internalType": "uint256",
          "name": "ballotDecisionThreshold_",
          "type": "uint256"
        },
        {
          "internalType": "uint256",
          "name": "ballotLifespan_",
          "type": "uint256"
        },
        {
          "internalType": "uint256[10]",
          "name": "ballotExecDelay_",
          "type": "uint256[10]"
        }
      ],
      "name": "setGovernanceSettings",
      "outputs": [],
      "stateMutability": "nonpayable",
      "type": "function"
    },
    {
      "inputs": [
        {
          "internalType": "address",
          "name": "primaryAsset_",
          "type": "address"
        }
      ],
      "name": "setPrimaryAsset",
      "outputs": [],
      "stateMutability": "nonpayable",
      "type": "function"
    },
    {
      "inputs": [
        {
          "internalType": "uint256",
          "name": "_protocolTokenFee",
          "type": "uint256"
        }
      ],
      "name": "setProtocolTokenFee",
      "outputs": [],
      "stateMutability": "nonpayable",
      "type": "function"
    },
    {
      "inputs": [
        {
          "internalType": "address",
          "name": "_protocolTreasury",
          "type": "address"
        }
      ],
      "name": "setProtocolTreasury",
      "outputs": [],
      "stateMutability": "nonpayable",
      "type": "function"
    },
    {
      "inputs": [
        {
          "internalType": "address",
          "name": "secondaryAsset_",
          "type": "address"
        }
      ],
      "name": "setSecondaryAsset",
      "outputs": [],
      "stateMutability": "nonpayable",
      "type": "function"
    },
    {
      "inputs": [],
      "name": "test83122",
      "outputs": [
        {
          "internalType": "uint256",
          "name": "",
          "type": "uint256"
        }
      ],
      "stateMutability": "pure",
      "type": "function"
    },
    {
      "inputs": [],
      "name": "tgeBeacon",
      "outputs": [
        {
          "internalType": "address",
          "name": "",
          "type": "address"
        }
      ],
      "stateMutability": "view",
      "type": "function"
    },
    {
      "inputs": [],
      "name": "tokenBeacon",
      "outputs": [
        {
          "internalType": "address",
          "name": "",
          "type": "address"
        }
      ],
      "stateMutability": "view",
      "type": "function"
    },
    {
      "inputs": [],
      "name": "tokenWhitelist",
      "outputs": [
        {
          "internalType": "address[]",
          "name": "",
          "type": "address[]"
        }
      ],
      "stateMutability": "view",
      "type": "function"
    },
    {
      "inputs": [
        {
          "internalType": "address",
          "name": "to",
          "type": "address"
        }
      ],
      "name": "transferCollectedFees",
      "outputs": [],
      "stateMutability": "nonpayable",
      "type": "function"
    },
    {
      "inputs": [
        {
          "internalType": "address",
          "name": "newOwner",
          "type": "address"
        }
      ],
      "name": "transferOwnership",
      "outputs": [],
      "stateMutability": "nonpayable",
      "type": "function"
    },
    {
      "inputs": [],
      "name": "uniswapQuoter",
      "outputs": [
        {
          "internalType": "contract IQuoter",
          "name": "",
          "type": "address"
        }
      ],
      "stateMutability": "view",
      "type": "function"
    },
    {
      "inputs": [],
      "name": "uniswapRouter",
      "outputs": [
        {
          "internalType": "contract ISwapRouter",
          "name": "",
          "type": "address"
        }
      ],
      "stateMutability": "view",
      "type": "function"
    },
    {
      "inputs": [],
      "name": "unpause",
      "outputs": [],
      "stateMutability": "nonpayable",
      "type": "function"
    },
    {
      "inputs": [
        {
          "internalType": "address",
          "name": "newImplementation",
          "type": "address"
        }
      ],
      "name": "upgradeTo",
      "outputs": [],
      "stateMutability": "nonpayable",
      "type": "function"
    },
    {
      "inputs": [
        {
          "internalType": "address",
          "name": "newImplementation",
          "type": "address"
        },
        {
          "internalType": "bytes",
          "name": "data",
          "type": "bytes"
        }
      ],
      "name": "upgradeToAndCall",
      "outputs": [],
      "stateMutability": "payable",
      "type": "function"
    },
    {
      "inputs": [],
      "name": "userWhitelist",
      "outputs": [
        {
          "internalType": "address[]",
          "name": "",
          "type": "address[]"
        }
      ],
      "stateMutability": "view",
      "type": "function"
    },
    {
      "inputs": [
        {
          "internalType": "uint256",
          "name": "index",
          "type": "uint256"
        }
      ],
      "name": "userWhitelistAt",
      "outputs": [
        {
          "internalType": "address",
          "name": "",
          "type": "address"
        }
      ],
      "stateMutability": "view",
      "type": "function"
    },
    {
      "inputs": [],
      "name": "userWhitelistLength",
      "outputs": [
        {
          "internalType": "uint256",
          "name": "",
          "type": "uint256"
        }
      ],
      "stateMutability": "view",
      "type": "function"
    }
  ],
  "bytecode": "0x60a0604052306080523480156200001557600080fd5b506200002062000026565b620000e8565b600054610100900460ff1615620000935760405162461bcd60e51b815260206004820152602760248201527f496e697469616c697a61626c653a20636f6e747261637420697320696e697469604482015266616c697a696e6760c81b606482015260840160405180910390fd5b60005460ff9081161015620000e6576000805460ff191660ff9081179091556040519081527f7f26b83ff96e1f2b6a682f133852f6798a09c465da95921460cefb38474024989060200160405180910390a15b565b60805161576d6200012060003960008181610ff10152818161103401528181611adb01528181611b1e0152611cd1015261576d6000f3fe608060405260043610620003225760003560e01c80638456cb5911620001b1578063c5a7b2ea11620000ee578063dedcd30711620000a1578063e76829281162000078578063e76829281462000960578063f2fde38b1462000978578063f9902bb1146200099d578063fb237eb214620009c257600080fd5b8063dedcd30714620008f3578063e58d777a1462000918578063e64b2afa146200093b57600080fd5b8063c5a7b2ea1462000835578063ca735cc11462000858578063cb7e90571462000870578063ccf5a77c1462000893578063ce254a3514620008b6578063dad01e5b14620008db57600080fd5b80639d838ad31162000164578063b677bc69116200013b578063b677bc6914620007ad578063b8d57ada14620007d2578063bc7a4ead14620007f7578063bfe130af146200081057600080fd5b80639d838ad3146200073c578063a36894711462000761578063a66e53c9146200078657600080fd5b80638456cb591462000685578063879010f4146200069d5780638da5cb5b14620006c25780639421873714620006da5780639459c173146200070157806398e05aa6146200072657600080fd5b80634db4a35211620002805780635a1ef51b1162000233578063735de9f7116200020a578063735de9f71462000601578063747b805014620006245780637c905b771462000649578063803db96d146200066257600080fd5b80635a1ef51b14620005aa5780635c975abb14620005cf578063715018a614620005e957600080fd5b80634db4a35214620004f75780634e95c1b7146200051a5780634f1ef2861462000531578063506377441462000548578063515f723c146200056d57806352d1902d146200059257600080fd5b8063359146e811620002d9578063359146e814620004345780633659cfe6146200044d5780633a6596bd14620004725780633f4ba83a14620004955780633fec91a414620004ad578063476aa1ea14620004d257600080fd5b806301569ab0146200032757806303700be8146200036757806304e31dfb146200038f5780630c5a61f814620003b2578063143a862a14620003d95780631e101a3d14620003fe575b600080fd5b3480156200033457600080fd5b50610130546200034a906001600160a01b031681565b6040516001600160a01b0390911681526020015b60405180910390f35b3480156200037457600080fd5b506200038061013a5481565b6040519081526020016200035e565b3480156200039c57600080fd5b50610131546200034a906001600160a01b031681565b348015620003bf57600080fd5b50620003d7620003d136600462003c7f565b620009e7565b005b348015620003e657600080fd5b50620003d7620003f836600462003c9f565b62000a9e565b3480156200040b57600080fd5b50620004236200041d36600462003c7f565b62000fc4565b60405190151581526020016200035e565b3480156200044157600080fd5b50620003806101345481565b3480156200045a57600080fd5b50620003d76200046c36600462003c7f565b62000fe7565b3480156200047f57600080fd5b50610146546200034a906001600160a01b031681565b348015620004a257600080fd5b50620003d7620010d2565b348015620004ba57600080fd5b50620003d7620004cc36600462003d67565b620010e8565b348015620004df57600080fd5b5062000380620004f136600462003d67565b62001238565b3480156200050457600080fd5b50610136546200034a906001600160a01b031681565b620003d76200052b36600462004144565b62001251565b620003d7620005423660046200424d565b62001ad1565b3480156200055557600080fd5b50620003d762000567366004620042b7565b62001ba9565b3480156200057a57600080fd5b50620003d76200058c366004620042e6565b62001c13565b3480156200059f57600080fd5b506200038062001cc4565b348015620005b757600080fd5b50620003d7620005c936600462003c7f565b62001d7a565b348015620005dc57600080fd5b5060fb5460ff1662000423565b348015620005f657600080fd5b50620003d762001da7565b3480156200060e57600080fd5b50610135546200034a906001600160a01b031681565b3480156200063157600080fd5b50620003d76200064336600462003c7f565b62001dbd565b3480156200065657600080fd5b50620003806101335481565b3480156200066f57600080fd5b50610139546200034a906001600160a01b031681565b3480156200069257600080fd5b50620003d762001ed3565b348015620006aa57600080fd5b50620003d7620006bc36600462003c7f565b62001ee7565b348015620006cf57600080fd5b506200034a62001fe6565b348015620006e757600080fd5b50620006f262002000565b6040516200035e91906200432f565b3480156200070e57600080fd5b506200034a6200072036600462003d67565b6200200f565b3480156200073357600080fd5b50600362000380565b3480156200074957600080fd5b50620003806200075b36600462003d67565b6200201f565b3480156200076e57600080fd5b50620003806200078036600462003c7f565b620020d5565b3480156200079357600080fd5b506200079e620023ad565b6040516200035e9190620043a3565b348015620007ba57600080fd5b50620003d7620007cc366004620043c2565b620023ed565b348015620007df57600080fd5b50620003d7620007f136600462003c7f565b62002541565b3480156200080457600080fd5b50620003806101325481565b3480156200081d57600080fd5b50620003d76200082f3660046200445f565b620025a6565b3480156200084257600080fd5b5061012e546200034a906001600160a01b031681565b3480156200086557600080fd5b50620006f262002f53565b3480156200087d57600080fd5b5061012d546200034a906001600160a01b031681565b348015620008a057600080fd5b5061012f546200034a906001600160a01b031681565b348015620008c357600080fd5b50620003d7620008d536600462003c7f565b62002fc9565b348015620008e857600080fd5b506200038062002ff6565b3480156200090057600080fd5b50620003d76200091236600462003d67565b62003005565b3480156200092557600080fd5b50610145546200034a906001600160a01b031681565b3480156200094857600080fd5b50620003d76200095a36600462003c7f565b62003092565b3480156200096d57600080fd5b5062000380620030fb565b3480156200098557600080fd5b50620003d76200099736600462003c7f565b62003111565b348015620009aa57600080fd5b50620003d7620009bc36600462003c7f565b6200318d565b348015620009cf57600080fd5b5062000423620009e136600462003c7f565b620032a7565b620009f1620032c9565b60408051808201909152600c81526b414444524553535f5a45524f60a01b60208201526001600160a01b03821662000a475760405162461bcd60e51b815260040162000a3e91906200456b565b60405180910390fd5b5061013980546001600160a01b0319166001600160a01b0383169081179091556040519081527f48919a8bb9d5ad92fa352adb62046eaabb006b67ba2fcf7566ed0879ab5a27c3906020015b60405180910390a150565b600054610100900460ff161580801562000abf5750600054600160ff909116105b8062000adb5750303b15801562000adb575060005460ff166001145b62000b405760405162461bcd60e51b815260206004820152602e60248201527f496e697469616c697a61626c653a20636f6e747261637420697320616c72656160448201526d191e481a5b9a5d1a585b1a5e995960921b606482015260840162000a3e565b6000805460ff19166001179055801562000b64576000805461ff0019166101001790555b60408051808201909152600c81526b414444524553535f5a45524f60a01b60208201526001600160a01b038b1662000bb15760405162461bcd60e51b815260040162000a3e91906200456b565b5060408051808201909152600c81526b414444524553535f5a45524f60a01b60208201526001600160a01b038a1662000bff5760405162461bcd60e51b815260040162000a3e91906200456b565b5060408051808201909152600c81526b414444524553535f5a45524f60a01b60208201526001600160a01b03891662000c4d5760405162461bcd60e51b815260040162000a3e91906200456b565b5060408051808201909152600c81526b414444524553535f5a45524f60a01b60208201526001600160a01b03881662000c9b5760405162461bcd60e51b815260040162000a3e91906200456b565b5060408051808201909152600c81526b414444524553535f5a45524f60a01b60208201526001600160a01b03871662000ce95760405162461bcd60e51b815260040162000a3e91906200456b565b5060408051808201909152600c81526b414444524553535f5a45524f60a01b60208201526001600160a01b03851662000d375760405162461bcd60e51b815260040162000a3e91906200456b565b5060408051808201909152600c81526b414444524553535f5a45524f60a01b60208201526001600160a01b03841662000d855760405162461bcd60e51b815260040162000a3e91906200456b565b5062000d906200332c565b62000d9a62003360565b61012d80546001600160a01b03199081166001600160a01b038d81169190911790925561012e805482168c841617905561012f805482168b8416179055610130805482168a84161790556101318054909116918816919091179055843561013255602080860135610133556040808701356101345580516101408101825260608801358152608088013592810192909252810186600560200201358152602001866006600d811062000e505762000e5062004580565b60200201358152602001866007600d811062000e705762000e7062004580565b60200201358152602001866008600d811062000e905762000e9062004580565b60200201358152602001866009600d811062000eb05762000eb062004580565b6020020135815260200186600a600d811062000ed05762000ed062004580565b6020020135815260200186600b600d811062000ef05762000ef062004580565b6020020135815260200186600c600d811062000f105762000f1062004580565b6020020135905262000f289061013b90600a62003b9f565b5061013580546001600160a01b038087166001600160a01b03199283161790925561013680549286169290911691909117905562000f6630620009e7565b62000f718262003005565b801562000fb8576000805461ff0019169055604051600181527f7f26b83ff96e1f2b6a682f133852f6798a09c465da95921460cefb38474024989060200160405180910390a15b50505050505050505050565b6001600160a01b0381166000908152610148602052604081205415155b92915050565b6001600160a01b037f0000000000000000000000000000000000000000000000000000000000000000163003620010325760405162461bcd60e51b815260040162000a3e9062004596565b7f00000000000000000000000000000000000000000000000000000000000000006001600160a01b03166200107d600080516020620056f1833981519152546001600160a01b031690565b6001600160a01b031614620010a65760405162461bcd60e51b815260040162000a3e90620045e2565b620010b1816200338a565b60408051600080825260208201909252620010cf9183919062003394565b50565b620010dc620032c9565b620010e66200350c565b565b61012d54604051630db9619f60e31b81523360048201526001916001600160a01b031690636dcb0cf890602401602060405180830381865afa15801562001133573d6000803e3d6000fd5b505050506040513d601f19601f8201168201806040525081019062001159919062004644565b60048111156200116d576200116d6200462e565b14604051806040016040528060088152602001671393d517d413d3d360c21b81525090620011b05760405162461bcd60e51b815260040162000a3e91906200456b565b50620011bb62003560565b61012d5460405163f4be936960e01b8152336004820152602481018390526001600160a01b039091169063f4be9369906044016020604051808303816000875af11580156200120e573d6000803e3d6000fd5b505050506040513d601f19601f8201168201806040525081019062001234919062004664565b5050565b61013b81600a81106200124a57600080fd5b0154905081565b6200125c33620032a7565b6040518060400160405280600f81526020016e1393d517d5d2125511531254d51151608a1b81525090620012a55760405162461bcd60e51b815260040162000a3e91906200456b565b50620012b0620035a8565b620012ba62003560565b670de0b6b3a7640000886020015110156040518060400160405280600b81526020016a0494e56414c49445f4341560ac1b815250906200130f5760405162461bcd60e51b815260040162000a3e91906200456b565b506200131f88602001516200201f565b8860200181815162001332919062004694565b90525061012d546001600160a01b03908116908a16620014e457604051637e89ed2760e01b8152600481018790526024810184905260009081906001600160a01b03841690637e89ed279060440160408051808303816000875af11580156200139f573d6000803e3d6000fd5b505050506040513d601f19601f82011682018060405250810190620013c59190620046aa565b60408051808201909152600a8152694e4f5f434f4d50414e5960b01b602082015291935091506001600160a01b038316620014155760405162461bcd60e51b815260040162000a3e91906200456b565b50604080518082019091526014815273125390d3d4949150d517d1551217d41054d4d15160621b6020820152348214620014645760405162461bcd60e51b815260040162000a3e91906200456b565b50885160208a01516040808c015190516366103c1760e11b8152949e508e946001600160a01b0386169363cc20782e93620014a89333938e908e90600401620046db565b600060405180830381600087803b158015620014c357600080fd5b505af1158015620014d8573d6000803e3d6000fd5b50505050505062001715565b6001604051630db9619f60e31b81526001600160a01b038c81166004830152831690636dcb0cf890602401602060405180830381865afa1580156200152d573d6000803e3d6000fd5b505050506040513d601f19601f8201168201806040525081019062001553919062004644565b60048111156200156757620015676200462e565b14604051806040016040528060088152602001671393d517d413d3d360c21b81525090620015aa5760405162461bcd60e51b815260040162000a3e91906200456b565b50896001600160a01b0316638da5cb5b6040518163ffffffff1660e01b8152600401602060405180830381865afa158015620015ea573d6000803e3d6000fd5b505050506040513d601f19601f8201168201806040525081019062001610919062004732565b6001600160a01b0316336001600160a01b0316146040518060400160405280600e81526020016d2727aa2fa827a7a62fa7aba722a960911b815250906200166c5760405162461bcd60e51b815260040162000a3e91906200456b565b50896001600160a01b031663e47bfee86040518163ffffffff1660e01b8152600401602060405180830381865afa158015620016ac573d6000803e3d6000fd5b505050506040513d601f19601f82011682018060405250810190620016d2919062004752565b156040518060400160405280600681526020016549535f44414f60d01b81525090620017135760405162461bcd60e51b815260040162000a3e91906200456b565b505b61012f546040516000916001600160a01b031690620017349062003be2565b62001740919062004776565b604051809103906000f0801580156200175d573d6000803e3d6000fd5b50604051631f8b400560e01b81529091506001600160a01b03831690631f8b40059062001792908490600290600401620047ac565b6020604051808303816000875af1158015620017b2573d6000803e3d6000fd5b505050506040513d601f19601f82011682018060405250810190620017d8919062004664565b50610130546040516000916001600160a01b031690620017f89062003be2565b62001804919062004776565b604051809103906000f08015801562001821573d6000803e3d6000fd5b50604051631f8b400560e01b81529091506001600160a01b03841690631f8b4005906200185790849060049089908201620047e2565b6020604051808303816000875af115801562001877573d6000803e3d6000fd5b505050506040513d601f19601f820116820180604052508101906200189d919062004664565b506040516308c2f38b60e31b81526001600160a01b038416906346179c5890620018d2908f9060039060009060040162004817565b6020604051808303816000875af1158015620018f2573d6000803e3d6000fd5b505050506040513d601f19601f8201168201806040525081019062001918919062004664565b50816001600160a01b031663c63ee3158d8d600001518e602001516001866040518663ffffffff1660e01b81526004016200195895949392919062004869565b600060405180830381600087803b1580156200197357600080fd5b505af115801562001988573d6000803e3d6000fd5b505060405163c4767b9560e01b81526001600160a01b038f16925063c4767b959150620019bd908590600190600401620048c2565b600060405180830381600087803b158015620019d857600080fd5b505af1158015620019ed573d6000803e3d6000fd5b5050604051632c4e8d5560e01b81526001600160a01b0384169250632c4e8d55915062001a219085908e9060040162004927565b600060405180830381600087803b15801562001a3c57600080fd5b505af115801562001a51573d6000803e3d6000fd5b5050505062001a6c336101376200360390919063ffffffff16565b50604080516001600160a01b038e81168252848116602083015283168183015290517f9c5d829b9b23efc461f9aeef91979ec04bb903feb3bee4f26d22114abfc7335b9181900360600190a150505062001ac6600160c955565b505050505050505050565b6001600160a01b037f000000000000000000000000000000000000000000000000000000000000000016300362001b1c5760405162461bcd60e51b815260040162000a3e9062004596565b7f00000000000000000000000000000000000000000000000000000000000000006001600160a01b031662001b67600080516020620056f1833981519152546001600160a01b031690565b6001600160a01b03161462001b905760405162461bcd60e51b815260040162000a3e90620045e2565b62001b9b826200338a565b620012348282600162003394565b62001bb3620032c9565b6040516323681e3d60e01b8152600481018290526001600160a01b038316906323681e3d90602401600060405180830381600087803b15801562001bf657600080fd5b505af115801562001c0b573d6000803e3d6000fd5b505050505050565b62001c1d620032c9565b61012d546040516341a453e160e01b81526001600160a01b03909116906341a453e19062001c5690879087908790879060040162004a01565b602060405180830381865afa15801562001c74573d6000803e3d6000fd5b505050506040513d601f19601f8201168201806040525081019062001c9a919062004752565b5061013284905561013383905561013482905562001cbd61013b82600a62003bf0565b5050505050565b6000306001600160a01b037f0000000000000000000000000000000000000000000000000000000000000000161462001d665760405162461bcd60e51b815260206004820152603860248201527f555550535570677261646561626c653a206d757374206e6f742062652063616c60448201527f6c6564207468726f7567682064656c656761746563616c6c0000000000000000606482015260840162000a3e565b50600080516020620056f183398151915290565b62001d84620032c9565b61014580546001600160a01b0319166001600160a01b0392909216919091179055565b62001db1620032c9565b620010e660006200361a565b62001dc762001fe6565b6001600160a01b0316336001600160a01b0316148062001ded575062001ded3362000fc4565b6040518060400160405280600f81526020016e1393d517d5d2125511531254d51151608a1b8152509062001e365760405162461bcd60e51b815260040162000a3e91906200456b565b5062001e45610137826200366c565b604051806040016040528060138152602001721053149150511657d5d2125511531254d51151606a1b8152509062001e925760405162461bcd60e51b815260040162000a3e91906200456b565b50604080516001600160a01b0383168152600160208201527fdf3714d6f88cdae2b889250b70116def7fb5083073c65cce38b56d2b0b0ef64e910162000a93565b62001edd620032c9565b620010e662003683565b62001ef1620032c9565b60408051808201909152600c81526b414444524553535f5a45524f60a01b60208201526001600160a01b03821662001f3e5760405162461bcd60e51b815260040162000a3e91906200456b565b506040516000906001600160a01b038316903031908381818185875af1925050503d806000811462001f8d576040519150601f19603f3d011682016040523d82523d6000602084013e62001f92565b606091505b50509050806040518060400160405280601081526020016f11561150d5551253d397d1905253115160821b8152509062001fe15760405162461bcd60e51b815260040162000a3e91906200456b565b505050565b600062001ffb6033546001600160a01b031690565b905090565b606062001ffb610137620036c3565b600062000fe161013783620036d2565b60006200202b620030fb565b8210156040518060400160405280600d81526020016c494e56414c49445f56414c554560981b81525090620020755760405162461bcd60e51b815260040162000a3e91906200456b565b50600168056bc75e2d63100000831115620020a0575064e8d4a510006200209d818462004a29565b92505b80620f42408461013a54620020b6919062004a4c565b620020c2919062004a29565b620020ce919062004a4c565b9392505050565b6000600161012d54604051630db9619f60e31b81526001600160a01b03858116600483015290911690636dcb0cf890602401602060405180830381865afa15801562002125573d6000803e3d6000fd5b505050506040513d601f19601f820116820180604052508101906200214b919062004644565b60048111156200215f576200215f6200462e565b148015620021cd5750816001600160a01b031663e47bfee86040518163ffffffff1660e01b8152600401602060405180830381865afa158015620021a7573d6000803e3d6000fd5b505050506040513d601f19601f82011682018060405250810190620021cd919062004752565b15620023925760405163442b606b60e11b8152620022af906001600160a01b03841690638856c0d690620022079060019060040162004a66565b602060405180830381865afa15801562002225573d6000803e3d6000fd5b505050506040513d601f19601f820116820180604052508101906200224b919062004732565b6001600160a01b031663355274ea6040518163ffffffff1660e01b8152600401602060405180830381865afa15801562002289573d6000803e3d6000fd5b505050506040513d601f19601f820116820180604052508101906200075b919062004664565b60405163442b606b60e11b81526001600160a01b03841690638856c0d690620022de9060019060040162004a66565b602060405180830381865afa158015620022fc573d6000803e3d6000fd5b505050506040513d601f19601f8201168201806040525081019062002322919062004732565b6001600160a01b031663355274ea6040518163ffffffff1660e01b8152600401602060405180830381865afa15801562002360573d6000803e3d6000fd5b505050506040513d601f19601f8201168201806040525081019062002386919062004664565b62000fe1919062004a76565b6200239f6000196200201f565b62000fe19060001962004a76565b620023b762003c21565b604080516101408101918290529061013b90600a9082845b815481526020019060010190808311620023cf575050505050905090565b61012d54604051630db9619f60e31b81523360048201526001916001600160a01b031690636dcb0cf890602401602060405180830381865afa15801562002438573d6000803e3d6000fd5b505050506040513d601f19601f820116820180604052508101906200245e919062004644565b60048111156200247257620024726200462e565b14604051806040016040528060088152602001671393d517d413d3d360c21b81525090620024b55760405162461bcd60e51b815260040162000a3e91906200456b565b50620024c062003560565b61012d546040516308c2f38b60e31b81526001600160a01b03909116906346179c5890620024fb903390889088908890889060040162004a8c565b6020604051808303816000875af11580156200251b573d6000803e3d6000fd5b505050506040513d601f19601f8201168201806040525081019062001cbd919062004664565b6200254b620032c9565b62002559610147826200366c565b604051806040016040528060138152602001721053149150511657d5d2125511531254d51151606a1b81525090620012345760405162461bcd60e51b815260040162000a3e91906200456b565b61012d54604051630db9619f60e31b81523360048201526001916001600160a01b031690636dcb0cf890602401602060405180830381865afa158015620025f1573d6000803e3d6000fd5b505050506040513d601f19601f8201168201806040525081019062002617919062004644565b60048111156200262b576200262b6200462e565b14604051806040016040528060088152602001671393d517d413d3d360c21b815250906200266e5760405162461bcd60e51b815260040162000a3e91906200456b565b5062002679620035a8565b6200268362003560565b610130546040516000916001600160a01b031690620026a29062003be2565b620026ae919062004776565b604051809103906000f080158015620026cb573d6000803e3d6000fd5b5060405163442b606b60e11b81529091506000903390638856c0d690620026f790889060040162004a66565b602060405180830381865afa15801562002715573d6000803e3d6000fd5b505050506040513d601f19601f820116820180604052508101906200273b919062004732565b905060018560028111156200275457620027546200462e565b0362002949576000816001600160a01b0316633eac99986040518163ffffffff1660e01b8152600401602060405180830381865afa1580156200279b573d6000803e3d6000fd5b505050506040513d601f19601f82011682018060405250810190620027c1919062004732565b6001600160a01b031663c19d93fb6040518163ffffffff1660e01b8152600401602060405180830381865afa158015620027ff573d6000803e3d6000fd5b505050506040513d601f19601f8201168201806040525081019062002825919062004ae4565b60028111156200283957620028396200462e565b1415604051806040016040528060118152602001704143544956455f5447455f45584953545360781b81525090620028865760405162461bcd60e51b815260040162000a3e91906200456b565b50604051632c4e8d5560e01b81526001600160a01b03831690632c4e8d5590620028b79084908b9060040162004b98565b600060405180830381600087803b158015620028d257600080fd5b505af1158015620028e7573d6000803e3d6000fd5b5050604051630a08df1760e31b81526001600160a01b03858116600483015284169250635046f8b89150602401600060405180830381600087803b1580156200292f57600080fd5b505af115801562002944573d6000803e3d6000fd5b505050505b60028560028111156200296057620029606200462e565b0362002e7f576001600160a01b03811662002b6d5761012f546040516001600160a01b0390911690620029939062003be2565b6200299f919062004776565b604051809103906000f080158015620029bc573d6000803e3d6000fd5b5060405163c63ee31560e01b81529091506001600160a01b0382169063c63ee31590620029f690339087908a9088908b9060040162004c7d565b600060405180830381600087803b15801562002a1157600080fd5b505af115801562002a26573d6000803e3d6000fd5b5050604051632c4e8d5560e01b81526001600160a01b0385169250632c4e8d55915062002a5a9084908b9060040162004b98565b600060405180830381600087803b15801562002a7557600080fd5b505af115801562002a8a573d6000803e3d6000fd5b505060405163c4767b9560e01b815233925063c4767b95915062002ab6908490600290600401620048c2565b600060405180830381600087803b15801562002ad157600080fd5b505af115801562002ae6573d6000803e3d6000fd5b505061012d54604051631f8b400560e01b81526001600160a01b039091169250631f8b4005915062002b20908490600390600401620047ac565b6020604051808303816000875af115801562002b40573d6000803e3d6000fd5b505050506040513d601f19601f8201168201806040525081019062002b66919062004664565b5062002e7f565b6001816001600160a01b0316620a04ae6040518163ffffffff1660e01b8152600401600060405180830381865afa15801562002bad573d6000803e3d6000fd5b505050506040513d6000823e601f3d908101601f1916820160405262002bd7919081019062004cd8565b60008151811062002bec5762002bec62004580565b60200260200101516001600160a01b031663c19d93fb6040518163ffffffff1660e01b8152600401602060405180830381865afa15801562002c32573d6000803e3d6000fd5b505050506040513d601f19601f8201168201806040525081019062002c58919062004ae4565b600281111562002c6c5762002c6c6200462e565b0362002c905761012f546040516001600160a01b0390911690620029939062003be2565b6000816001600160a01b0316633eac99986040518163ffffffff1660e01b8152600401602060405180830381865afa15801562002cd1573d6000803e3d6000fd5b505050506040513d601f19601f8201168201806040525081019062002cf7919062004732565b6001600160a01b031663c19d93fb6040518163ffffffff1660e01b8152600401602060405180830381865afa15801562002d35573d6000803e3d6000fd5b505050506040513d601f19601f8201168201806040525081019062002d5b919062004ae4565b600281111562002d6f5762002d6f6200462e565b1415604051806040016040528060118152602001704143544956455f5447455f45584953545360781b8152509062002dbc5760405162461bcd60e51b815260040162000a3e91906200456b565b50604051632c4e8d5560e01b81526001600160a01b03831690632c4e8d559062002ded9084908b9060040162004b98565b600060405180830381600087803b15801562002e0857600080fd5b505af115801562002e1d573d6000803e3d6000fd5b5050604051630a08df1760e31b81526001600160a01b03858116600483015284169250635046f8b89150602401600060405180830381600087803b15801562002e6557600080fd5b505af115801562002e7a573d6000803e3d6000fd5b505050505b61012d54604051631f8b400560e01b81526001600160a01b0390911690631f8b40059062002eb69085906004908b908201620047e2565b6020604051808303816000875af115801562002ed6573d6000803e3d6000fd5b505050506040513d601f19601f8201168201806040525081019062002efc919062004664565b50604080513381526001600160a01b03848116602083015283168183015290517ff74d32d2119bcaf2616d37895d32adafbee1dceb25a98646ca514098f422fd899181900360600190a1505062001cbd600160c955565b61012d546040805163ca735cc160e01b815290516060926001600160a01b03169163ca735cc19160048083019260009291908290030181865afa15801562002f9f573d6000803e3d6000fd5b505050506040513d6000823e601f3d908101601f1916820160405262001ffb919081019062004cd8565b62002fd3620032c9565b61014680546001600160a01b0319166001600160a01b0392909216919091179055565b600062001ffb610137620036e0565b6200300f620032c9565b60408051808201909152600d81526c494e56414c49445f56414c554560981b6020820152620f42408211156200305a5760405162461bcd60e51b815260040162000a3e91906200456b565b5061013a8190556040518181527f3356e979ac6b186521938f589b0f14ab4bac888ba2f12703da660b1f4ed1119f9060200162000a93565b6200309c620032c9565b620030aa6101478262003603565b604051806040016040528060178152602001761053149150511657d393d517d5d2125511531254d51151604a1b81525090620012345760405162461bcd60e51b815260040162000a3e91906200456b565b600061013a54620f424062001ffb919062004a29565b6200311b620032c9565b6001600160a01b038116620031825760405162461bcd60e51b815260206004820152602660248201527f4f776e61626c653a206e6577206f776e657220697320746865207a65726f206160448201526564647265737360d01b606482015260840162000a3e565b620010cf816200361a565b6200319762001fe6565b6001600160a01b0316336001600160a01b03161480620031bd5750620031bd3362000fc4565b6040518060400160405280600f81526020016e1393d517d5d2125511531254d51151608a1b81525090620032065760405162461bcd60e51b815260040162000a3e91906200456b565b50620032156101378262003603565b604051806040016040528060178152602001761053149150511657d393d517d5d2125511531254d51151604a1b81525090620032665760405162461bcd60e51b815260040162000a3e91906200456b565b50604080516001600160a01b0383168152600060208201527fdf3714d6f88cdae2b889250b70116def7fb5083073c65cce38b56d2b0b0ef64e910162000a93565b6001600160a01b03811660009081526101386020526040812054151562000fe1565b33620032d462001fe6565b6001600160a01b031614620010e65760405162461bcd60e51b815260206004820181905260248201527f4f776e61626c653a2063616c6c6572206973206e6f7420746865206f776e6572604482015260640162000a3e565b600054610100900460ff16620033565760405162461bcd60e51b815260040162000a3e9062004d71565b620010e6620036eb565b600054610100900460ff16620010e65760405162461bcd60e51b815260040162000a3e9062004d71565b620010cf620032c9565b7f4910fdfa16fed3260ed0e7147f7cc6da11a60208b5b9406d12a635614ffd91435460ff1615620033ca5762001fe18362003720565b826001600160a01b03166352d1902d6040518163ffffffff1660e01b8152600401602060405180830381865afa92505050801562003427575060408051601f3d908101601f19168201909252620034249181019062004664565b60015b6200348c5760405162461bcd60e51b815260206004820152602e60248201527f45524331393637557067726164653a206e657720696d706c656d656e7461746960448201526d6f6e206973206e6f74205555505360901b606482015260840162000a3e565b600080516020620056f18339815191528114620034fe5760405162461bcd60e51b815260206004820152602960248201527f45524331393637557067726164653a20756e737570706f727465642070726f786044820152681a58589b195555525160ba1b606482015260840162000a3e565b5062001fe1838383620037bf565b62003516620037f0565b60fb805460ff191690557f5db9ee0a495bf2e6ff9c91a7834c1ba4fdd244a5e8aa4e537bd38aeae4b073aa335b6040516001600160a01b03909116815260200160405180910390a1565b60fb5460ff1615620010e65760405162461bcd60e51b815260206004820152601060248201526f14185d5cd8589b194e881c185d5cd95960821b604482015260640162000a3e565b600260c95403620035fc5760405162461bcd60e51b815260206004820152601f60248201527f5265656e7472616e637947756172643a207265656e7472616e742063616c6c00604482015260640162000a3e565b600260c955565b6000620020ce836001600160a01b0384166200383b565b603380546001600160a01b038381166001600160a01b0319831681179093556040519116919082907f8be0079c531659141344cd1fd0a4f28419497f9722a3daafe3b4186f6b6457e090600090a35050565b6000620020ce836001600160a01b0384166200393f565b6200368d62003560565b60fb805460ff191660011790557f62e78cea01bee320cd4e420270b5ea74000d11b0c9f74754ebdbfc544b05a258620035433390565b60606000620020ce8362003991565b6000620020ce8383620039ef565b600062000fe1825490565b600054610100900460ff16620037155760405162461bcd60e51b815260040162000a3e9062004d71565b620010e6336200361a565b6001600160a01b0381163b6200378f5760405162461bcd60e51b815260206004820152602d60248201527f455243313936373a206e657720696d706c656d656e746174696f6e206973206e60448201526c1bdd08184818dbdb9d1c9858dd609a1b606482015260840162000a3e565b600080516020620056f183398151915280546001600160a01b0319166001600160a01b0392909216919091179055565b620037ca8362003a1c565b600082511180620037d85750805b1562001fe157620037ea838362003a5e565b50505050565b60fb5460ff16620010e65760405162461bcd60e51b815260206004820152601460248201527314185d5cd8589b194e881b9bdd081c185d5cd95960621b604482015260640162000a3e565b60008181526001830160205260408120548015620039345760006200386260018362004a76565b8554909150600090620038789060019062004a76565b9050818114620038e45760008660000182815481106200389c576200389c62004580565b9060005260206000200154905080876000018481548110620038c257620038c262004580565b6000918252602080832090910192909255918252600188019052604090208390555b8554869080620038f857620038f862004dbc565b60019003818190600052602060002001600090559055856001016000868152602001908152602001600020600090556001935050505062000fe1565b600091505062000fe1565b6000818152600183016020526040812054620039885750815460018181018455600084815260208082209093018490558454848252828601909352604090209190915562000fe1565b50600062000fe1565b606081600001805480602002602001604051908101604052809291908181526020018280548015620039e357602002820191906000526020600020905b815481526020019060010190808311620039ce575b50505050509050919050565b600082600001828154811062003a095762003a0962004580565b9060005260206000200154905092915050565b62003a278162003720565b6040516001600160a01b038216907fbc7cd75a20ee27fd9adebab32041f755214dbc6bffa90cc0225b39da2e5c2d3b90600090a250565b60606001600160a01b0383163b62003ac85760405162461bcd60e51b815260206004820152602660248201527f416464726573733a2064656c65676174652063616c6c20746f206e6f6e2d636f6044820152651b9d1c9858dd60d21b606482015260840162000a3e565b600080846001600160a01b03168460405162003ae5919062004dd2565b600060405180830381855af49150503d806000811462003b22576040519150601f19603f3d011682016040523d82523d6000602084013e62003b27565b606091505b509150915062003b528282604051806060016040528060278152602001620057116027913962003b5b565b95945050505050565b6060831562003b6c575081620020ce565b620020ce838381511562003b835781518083602001fd5b8060405162461bcd60e51b815260040162000a3e91906200456b565b82600a810192821562003bd0579160200282015b8281111562003bd057825182559160200191906001019062003bb3565b5062003bde92915062003c40565b5090565b6109008062004df183390190565b82600a810192821562003bd0579160200282015b8281111562003bd057823582559160200191906001019062003c04565b604051806101400160405280600a906020820280368337509192915050565b5b8082111562003bde576000815560010162003c41565b6001600160a01b0381168114620010cf57600080fd5b803562003c7a8162003c57565b919050565b60006020828403121562003c9257600080fd5b8135620020ce8162003c57565b60008060008060008060008060006102a08a8c03121562003cbf57600080fd5b893562003ccc8162003c57565b985060208a013562003cde8162003c57565b975060408a013562003cf08162003c57565b965060608a013562003d028162003c57565b955060808a013562003d148162003c57565b94506102408a018b81111562003d2957600080fd5b60a08b0194503562003d3b8162003c57565b92506102608a013562003d4e8162003c57565b809250506102808a013590509295985092959850929598565b60006020828403121562003d7a57600080fd5b5035919050565b634e487b7160e01b600052604160045260246000fd5b6040516101a081016001600160401b038111828210171562003dbd5762003dbd62003d81565b60405290565b604051601f8201601f191681016001600160401b038111828210171562003dee5762003dee62003d81565b604052919050565b60006001600160401b0383111562003e125762003e1262003d81565b62003e27601f8401601f191660200162003dc3565b905082815283838301111562003e3c57600080fd5b828260208301376000602084830101529392505050565b600082601f83011262003e6557600080fd5b620020ce8383356020850162003df6565b60006040828403121562003e8957600080fd5b604051604081016001600160401b03828210818311171562003eaf5762003eaf62003d81565b81604052829350843591508082111562003ec857600080fd5b5062003ed78582860162003e53565b825250602083013560208201525092915050565b60006001600160401b0382111562003f075762003f0762003d81565b5060051b60200190565b600082601f83011262003f2357600080fd5b8135602062003f3c62003f368362003eeb565b62003dc3565b82815260059290921b8401810191818101908684111562003f5c57600080fd5b8286015b8481101562003f8457803562003f768162003c57565b835291830191830162003f60565b509695505050505050565b60006101a0828403121562003fa357600080fd5b62003fad62003d97565b9050813581526020820135602082015260408201356040820152606082013560608201526080820135608082015260a082013560a082015260c082013560c082015260e082013560e0820152610100808301358183015250610120808301356001600160401b038111156200402157600080fd5b6200402f8582860162003f11565b8284015250506101406200404581840162003c6d565b9082015261016082810135908201526101809182013591810191909152919050565b600082601f8301126200407957600080fd5b604051606081018181106001600160401b03821117156200409e576200409e62003d81565b604052806060840185811115620040b457600080fd5b845b81811015620040d0578035835260209283019201620040b6565b509195945050505050565b600082601f830112620040ed57600080fd5b6040516101408082018281106001600160401b038211171562004114576200411462003d81565b604052830181858211156200412857600080fd5b845b82811015620040d05780358252602091820191016200412a565b60008060008060008060008060006102808a8c0312156200416457600080fd5b6200416f8a62003c6d565b985060208a01356001600160401b03808211156200418c57600080fd5b6200419a8d838e0162003e76565b995060408c0135915080821115620041b157600080fd5b620041bf8d838e0162003f8f565b9850620041d08d60608e0162004067565b975060c08c01359650620041e88d60e08e01620040db565b95506102208c01359150808211156200420057600080fd5b6200420e8d838e0162003e53565b94506102408c013593506102608c01359150808211156200422e57600080fd5b506200423d8c828d0162003e53565b9150509295985092959850929598565b600080604083850312156200426157600080fd5b82356200426e8162003c57565b915060208301356001600160401b038111156200428a57600080fd5b8301601f810185136200429c57600080fd5b620042ad8582356020840162003df6565b9150509250929050565b60008060408385031215620042cb57600080fd5b8235620042d88162003c57565b946020939093013593505050565b6000806000806101a0808688031215620042ff57600080fd5b8535945060208601359350604086013592508681870111156200432157600080fd5b509295919450926060019150565b6020808252825182820181905260009190848201906040850190845b81811015620043725783516001600160a01b0316835292840192918401916001016200434b565b50909695505050505050565b8060005b600a811015620037ea57815184526020938401939091019060010162004382565b610140810162000fe182846200437e565b60058110620010cf57600080fd5b60008060008060608587031215620043d957600080fd5b8435620043e681620043b4565b93506020850135925060408501356001600160401b03808211156200440a57600080fd5b818701915087601f8301126200441f57600080fd5b8135818111156200442f57600080fd5b8860208285010111156200444257600080fd5b95989497505060200194505050565b60038110620010cf57600080fd5b600080600080600060a086880312156200447857600080fd5b85356001600160401b03808211156200449057600080fd5b908701906101a0828a031215620044a657600080fd5b90955060208701359080821115620044bd57600080fd5b620044cb89838a0162003e53565b955060408801359150620044df8262004451565b90935060608701359080821115620044f657600080fd5b50620045058882890162003e53565b95989497509295608001359392505050565b60005b83811015620045345781810151838201526020016200451a565b50506000910152565b600081518084526200455781602086016020860162004517565b601f01601f19169290920160200192915050565b602081526000620020ce60208301846200453d565b634e487b7160e01b600052603260045260246000fd5b6020808252602c908201527f46756e6374696f6e206d7573742062652063616c6c6564207468726f7567682060408201526b19195b1959d85d1958d85b1b60a21b606082015260800190565b6020808252602c908201527f46756e6374696f6e206d7573742062652063616c6c6564207468726f7567682060408201526b6163746976652070726f787960a01b606082015260800190565b634e487b7160e01b600052602160045260246000fd5b6000602082840312156200465757600080fd5b8151620020ce81620043b4565b6000602082840312156200467757600080fd5b5051919050565b634e487b7160e01b600052601160045260246000fd5b8082018082111562000fe15762000fe16200467e565b60008060408385031215620046be57600080fd5b8251620046cb8162003c57565b6020939093015192949293505050565b6001600160a01b038716815260208101869052604081018590526060810184905260006101e06200471060808401866200437e565b806101c084015262004725818401856200453d565b9998505050505050505050565b6000602082840312156200474557600080fd5b8151620020ce8162003c57565b6000602082840312156200476557600080fd5b81518015158114620020ce57600080fd5b6001600160a01b0391909116815260406020820181905260009082015260600190565b60058110620010cf57620010cf6200462e565b6001600160a01b0383168152620047c38262004799565b6020810191909152606060408201819052600090820152608001919050565b6001600160a01b0384168152620047f98362004799565b82602082015260606040820152600062003b5260608301846200453d565b6001600160a01b03841681526200482e8362004799565b6020810192909252604082015260806060820181905260009082015260a001919050565b600381106200486557620048656200462e565b9052565b600060018060a01b03808816835260c060208401526200488d60c08401886200453d565b866040850152620048a2606085018762004852565b931660808301525080820360a09091015260008152602001949350505050565b6001600160a01b038316815260408101620020ce602083018462004852565b600081518084526020808501945080840160005b838110156200491c5781516001600160a01b031687529582019590820190600101620048f5565b509495945050505050565b60018060a01b038316815260406020820152815160408201526020820151606082015260408201516080820152606082015160a0820152608082015160c082015260a082015160e0820152600060c0830151610100818185015260e08501519150610120828186015281860151925061014091508282860152808601519250506101a06101608181870152620049c26101e0870185620048e1565b92870151929350610180620049e1878201856001600160a01b03169052565b9087015191860191909152909401516101c0909301929092525092915050565b84815260208101849052604081018390526101a0810161014083606084013795945050505050565b60008262004a4757634e487b7160e01b600052601260045260246000fd5b500490565b808202811582820484141762000fe15762000fe16200467e565b6020810162000fe1828462004852565b8181038181111562000fe15762000fe16200467e565b6001600160a01b038616815262004aa38562004799565b84602082015283604082015260806060820152816080820152818360a0830137600081830160a090810191909152601f909201601f19160101949350505050565b60006020828403121562004af757600080fd5b8151620020ce8162004451565b6000808335601e1984360301811262004b1c57600080fd5b83016020810192503590506001600160401b0381111562004b3c57600080fd5b8060051b360382131562004b4f57600080fd5b9250929050565b8183526000602080850194508260005b858110156200491c57813562004b7c8162003c57565b6001600160a01b03168752958201959082019060010162004b66565b60018060a01b038316815260406020820152813560408201526020820135606082015260408201356080820152606082013560a0820152608082013560c082015260a082013560e0820152600061010060c08401358184015261012060e085013581850152610140828601358186015262004c168287018762004b04565b935091506101a0610160818188015262004c366101e08801868662004b56565b945062004c4583890162003c6d565b9350610180925062004c61838801856001600160a01b03169052565b87013590860152909401356101c0909301929092525092915050565b600060018060a01b03808816835260c06020840152600060c084015286604084015262004cae606084018762004852565b80851660808401525060e060a083015262004ccd60e08301846200453d565b979650505050505050565b6000602080838503121562004cec57600080fd5b82516001600160401b0381111562004d0357600080fd5b8301601f8101851362004d1557600080fd5b805162004d2662003f368262003eeb565b81815260059190911b8201830190838101908783111562004d4657600080fd5b928401925b8284101562004ccd57835162004d618162003c57565b8252928401929084019062004d4b565b6020808252602b908201527f496e697469616c697a61626c653a20636f6e7472616374206973206e6f74206960408201526a6e697469616c697a696e6760a81b606082015260800190565b634e487b7160e01b600052603160045260246000fd5b6000825162004de681846020870162004517565b919091019291505056fe60806040526040516109003803806109008339810160408190526100229161045b565b61002e82826000610035565b5050610585565b61003e83610100565b6040516001600160a01b038416907f1cf3b03a6cf19fa2baba4df148e9dcabedea7f8a5c07840e207e5c089be95d3e90600090a260008251118061007f5750805b156100fb576100f9836001600160a01b0316635c60da1b6040518163ffffffff1660e01b8152600401602060405180830381865afa1580156100c5573d6000803e3d6000fd5b505050506040513d601f19601f820116820180604052508101906100e9919061051b565b836102a360201b6100291760201c565b505b505050565b610113816102cf60201b6100551760201c565b6101725760405162461bcd60e51b815260206004820152602560248201527f455243313936373a206e657720626561636f6e206973206e6f74206120636f6e6044820152641d1c9858dd60da1b60648201526084015b60405180910390fd5b6101e6816001600160a01b0316635c60da1b6040518163ffffffff1660e01b8152600401602060405180830381865afa1580156101b3573d6000803e3d6000fd5b505050506040513d601f19601f820116820180604052508101906101d7919061051b565b6102cf60201b6100551760201c565b61024b5760405162461bcd60e51b815260206004820152603060248201527f455243313936373a20626561636f6e20696d706c656d656e746174696f6e206960448201526f1cc81b9bdd08184818dbdb9d1c9858dd60821b6064820152608401610169565b806102827fa3f0ad74e5423aebfd80d3ef4346578335a9a72aeaee59ff6cb3582b35133d5060001b6102de60201b6100641760201c565b80546001600160a01b0319166001600160a01b039290921691909117905550565b60606102c883836040518060600160405280602781526020016108d9602791396102e1565b9392505050565b6001600160a01b03163b151590565b90565b6060600080856001600160a01b0316856040516102fe9190610536565b600060405180830381855af49150503d8060008114610339576040519150601f19603f3d011682016040523d82523d6000602084013e61033e565b606091505b5090925090506103508683838761035a565b9695505050505050565b606083156103c95782516000036103c2576001600160a01b0385163b6103c25760405162461bcd60e51b815260206004820152601d60248201527f416464726573733a2063616c6c20746f206e6f6e2d636f6e74726163740000006044820152606401610169565b50816103d3565b6103d383836103db565b949350505050565b8151156103eb5781518083602001fd5b8060405162461bcd60e51b81526004016101699190610552565b80516001600160a01b038116811461041c57600080fd5b919050565b634e487b7160e01b600052604160045260246000fd5b60005b8381101561045257818101518382015260200161043a565b50506000910152565b6000806040838503121561046e57600080fd5b61047783610405565b60208401519092506001600160401b038082111561049457600080fd5b818501915085601f8301126104a857600080fd5b8151818111156104ba576104ba610421565b604051601f8201601f19908116603f011681019083821181831017156104e2576104e2610421565b816040528281528860208487010111156104fb57600080fd5b61050c836020830160208801610437565b80955050505050509250929050565b60006020828403121561052d57600080fd5b6102c882610405565b60008251610548818460208701610437565b9190910192915050565b6020815260008251806020840152610571816040850160208701610437565b601f01601f19169190910160400192915050565b610345806105946000396000f3fe60806040523661001357610011610017565b005b6100115b610027610022610067565b610100565b565b606061004e83836040518060600160405280602781526020016102e960279139610124565b9392505050565b6001600160a01b03163b151590565b90565b600061009a7fa3f0ad74e5423aebfd80d3ef4346578335a9a72aeaee59ff6cb3582b35133d50546001600160a01b031690565b6001600160a01b0316635c60da1b6040518163ffffffff1660e01b8152600401602060405180830381865afa1580156100d7573d6000803e3d6000fd5b505050506040513d601f19601f820116820180604052508101906100fb919061024c565b905090565b3660008037600080366000845af43d6000803e80801561011f573d6000f35b3d6000fd5b6060600080856001600160a01b0316856040516101419190610299565b600060405180830381855af49150503d806000811461017c576040519150601f19603f3d011682016040523d82523d6000602084013e610181565b606091505b50915091506101928683838761019c565b9695505050505050565b60608315610210578251600003610209576001600160a01b0385163b6102095760405162461bcd60e51b815260206004820152601d60248201527f416464726573733a2063616c6c20746f206e6f6e2d636f6e747261637400000060448201526064015b60405180910390fd5b508161021a565b61021a8383610222565b949350505050565b8151156102325781518083602001fd5b8060405162461bcd60e51b815260040161020091906102b5565b60006020828403121561025e57600080fd5b81516001600160a01b038116811461004e57600080fd5b60005b83811015610290578181015183820152602001610278565b50506000910152565b600082516102ab818460208701610275565b9190910192915050565b60208152600082518060208401526102d4816040850160208701610275565b601f01601f1916919091016040019291505056fe416464726573733a206c6f772d6c6576656c2064656c65676174652063616c6c206661696c6564a264697066735822122022a6bf5ebbb7518c40e703958b5c8e4d70ca6715c1e1ccf9e9591bfc86e066d164736f6c63430008110033416464726573733a206c6f772d6c6576656c2064656c65676174652063616c6c206661696c6564360894a13ba1a3210667c828492db98dca3e2076cc3735a920a3ca505d382bbc416464726573733a206c6f772d6c6576656c2064656c65676174652063616c6c206661696c6564a2646970667358221220a99591e79bf6760370d87c09a45ffff25c82847d77d9154f992e501c9ae8a3c164736f6c63430008110033",
  "linkReferences": {},
  "deployedLinkReferences": {}
}