{
  "_format": "hh-sol-artifact-1",
  "contractName": "TGE",
  "sourceName": "contracts/TGE.sol",
  "abi": [
    {
      "inputs": [],
      "stateMutability": "nonpayable",
      "type": "constructor"
    },
    {
      "anonymous": false,
      "inputs": [
        {
          "indexed": false,
          "internalType": "uint8",
          "name": "version",
          "type": "uint8"
        }
      ],
      "name": "Initialized",
      "type": "event"
    },
    {
      "anonymous": false,
      "inputs": [
        {
          "indexed": false,
          "internalType": "address",
          "name": "token",
          "type": "address"
        },
        {
          "indexed": false,
          "internalType": "uint256",
          "name": "tokenFee",
          "type": "uint256"
        }
      ],
      "name": "ProtocolTokenFeeClaimed",
      "type": "event"
    },
    {
      "anonymous": false,
      "inputs": [
        {
          "indexed": false,
          "internalType": "address",
          "name": "buyer",
          "type": "address"
        },
        {
          "indexed": false,
          "internalType": "uint256",
          "name": "amount",
          "type": "uint256"
        }
      ],
      "name": "Purchased",
      "type": "event"
    },
    {
      "inputs": [],
      "name": "claim",
      "outputs": [],
      "stateMutability": "nonpayable",
      "type": "function"
    },
    {
      "inputs": [],
      "name": "claimAvailable",
      "outputs": [
        {
          "internalType": "bool",
          "name": "",
          "type": "bool"
        }
      ],
      "stateMutability": "view",
      "type": "function"
    },
    {
      "inputs": [],
      "name": "createdAt",
      "outputs": [
        {
          "internalType": "uint256",
          "name": "",
          "type": "uint256"
        }
      ],
      "stateMutability": "view",
      "type": "function"
    },
    {
      "inputs": [],
      "name": "getTotalLockedValue",
      "outputs": [
        {
          "internalType": "uint256",
          "name": "",
          "type": "uint256"
        }
      ],
      "stateMutability": "view",
      "type": "function"
    },
    {
      "inputs": [],
      "name": "getTotalPurchased",
      "outputs": [
        {
          "internalType": "uint256",
          "name": "",
          "type": "uint256"
        }
      ],
      "stateMutability": "view",
      "type": "function"
    },
    {
      "inputs": [],
      "name": "getTotalPurchasedValue",
      "outputs": [
        {
          "internalType": "uint256",
          "name": "",
          "type": "uint256"
        }
      ],
      "stateMutability": "view",
      "type": "function"
    },
    {
      "inputs": [],
      "name": "getTotalVested",
      "outputs": [
        {
          "internalType": "uint256",
          "name": "",
          "type": "uint256"
        }
      ],
      "stateMutability": "view",
      "type": "function"
    },
    {
      "inputs": [],
      "name": "getUserWhitelist",
      "outputs": [
        {
          "internalType": "address[]",
          "name": "",
          "type": "address[]"
        }
      ],
      "stateMutability": "view",
      "type": "function"
    },
    {
      "inputs": [],
      "name": "info",
      "outputs": [
        {
          "internalType": "uint256",
          "name": "price",
          "type": "uint256"
        },
        {
          "internalType": "uint256",
          "name": "hardcap",
          "type": "uint256"
        },
        {
          "internalType": "uint256",
          "name": "softcap",
          "type": "uint256"
        },
        {
          "internalType": "uint256",
          "name": "minPurchase",
          "type": "uint256"
        },
        {
          "internalType": "uint256",
          "name": "maxPurchase",
          "type": "uint256"
        },
        {
          "internalType": "uint256",
          "name": "vestingPercent",
          "type": "uint256"
        },
        {
          "internalType": "uint256",
          "name": "vestingDuration",
          "type": "uint256"
        },
        {
          "internalType": "uint256",
          "name": "vestingTVL",
          "type": "uint256"
        },
        {
          "internalType": "uint256",
          "name": "duration",
          "type": "uint256"
        },
        {
          "internalType": "address",
          "name": "unitOfAccount",
          "type": "address"
        },
        {
          "internalType": "uint256",
          "name": "lockupDuration",
          "type": "uint256"
        },
        {
          "internalType": "uint256",
          "name": "lockupTVL",
          "type": "uint256"
        }
      ],
      "stateMutability": "view",
      "type": "function"
    },
    {
      "inputs": [
        {
          "internalType": "contract IToken",
          "name": "token_",
          "type": "address"
        },
        {
          "components": [
            {
              "internalType": "uint256",
              "name": "price",
              "type": "uint256"
            },
            {
              "internalType": "uint256",
              "name": "hardcap",
              "type": "uint256"
            },
            {
              "internalType": "uint256",
              "name": "softcap",
              "type": "uint256"
            },
            {
              "internalType": "uint256",
              "name": "minPurchase",
              "type": "uint256"
            },
            {
              "internalType": "uint256",
              "name": "maxPurchase",
              "type": "uint256"
            },
            {
              "internalType": "uint256",
              "name": "vestingPercent",
              "type": "uint256"
            },
            {
              "internalType": "uint256",
              "name": "vestingDuration",
              "type": "uint256"
            },
            {
              "internalType": "uint256",
              "name": "vestingTVL",
              "type": "uint256"
            },
            {
              "internalType": "uint256",
              "name": "duration",
              "type": "uint256"
            },
            {
              "internalType": "address[]",
              "name": "userWhitelist",
              "type": "address[]"
            },
            {
              "internalType": "address",
              "name": "unitOfAccount",
              "type": "address"
            },
            {
              "internalType": "uint256",
              "name": "lockupDuration",
              "type": "uint256"
            },
            {
              "internalType": "uint256",
              "name": "lockupTVL",
              "type": "uint256"
            }
          ],
          "internalType": "struct ITGE.TGEInfo",
          "name": "info_",
          "type": "tuple"
        }
      ],
      "name": "initialize",
      "outputs": [],
      "stateMutability": "nonpayable",
      "type": "function"
    },
    {
      "inputs": [],
      "name": "isProtocolTokenFeeClaimed",
      "outputs": [
        {
          "internalType": "bool",
          "name": "",
          "type": "bool"
        }
      ],
      "stateMutability": "view",
      "type": "function"
    },
    {
      "inputs": [
        {
          "internalType": "address",
          "name": "",
          "type": "address"
        }
      ],
      "name": "isUserWhitelisted",
      "outputs": [
        {
          "internalType": "bool",
          "name": "",
          "type": "bool"
        }
      ],
      "stateMutability": "view",
      "type": "function"
    },
    {
      "inputs": [],
      "name": "lockupTVLReached",
      "outputs": [
        {
          "internalType": "bool",
          "name": "",
          "type": "bool"
        }
      ],
      "stateMutability": "view",
      "type": "function"
    },
    {
      "inputs": [
        {
          "internalType": "address",
          "name": "account",
          "type": "address"
        }
      ],
      "name": "maxPurchaseOf",
      "outputs": [
        {
          "internalType": "uint256",
          "name": "",
          "type": "uint256"
        }
      ],
      "stateMutability": "view",
      "type": "function"
    },
    {
      "inputs": [
        {
          "internalType": "uint256",
          "name": "amount",
          "type": "uint256"
        }
      ],
      "name": "purchase",
      "outputs": [],
      "stateMutability": "payable",
      "type": "function"
    },
    {
      "inputs": [
        {
          "internalType": "address",
          "name": "",
          "type": "address"
        }
      ],
      "name": "purchaseOf",
      "outputs": [
        {
          "internalType": "uint256",
          "name": "",
          "type": "uint256"
        }
      ],
      "stateMutability": "view",
      "type": "function"
    },
    {
      "inputs": [],
      "name": "redeem",
      "outputs": [],
      "stateMutability": "nonpayable",
      "type": "function"
    },
    {
      "inputs": [],
      "name": "setLockupTVLReached",
      "outputs": [],
      "stateMutability": "nonpayable",
      "type": "function"
    },
    {
      "inputs": [],
      "name": "setVestingTVLReached",
      "outputs": [],
      "stateMutability": "nonpayable",
      "type": "function"
    },
    {
      "inputs": [],
      "name": "state",
      "outputs": [
        {
          "internalType": "enum ITGE.State",
          "name": "",
          "type": "uint8"
        }
      ],
      "stateMutability": "view",
      "type": "function"
    },
    {
      "inputs": [],
      "name": "test83212",
      "outputs": [
        {
          "internalType": "uint256",
          "name": "",
          "type": "uint256"
        }
      ],
      "stateMutability": "pure",
      "type": "function"
    },
    {
      "inputs": [],
      "name": "token",
      "outputs": [
        {
          "internalType": "contract IToken",
          "name": "",
          "type": "address"
        }
      ],
      "stateMutability": "view",
      "type": "function"
    },
    {
      "inputs": [],
      "name": "transferFunds",
      "outputs": [],
      "stateMutability": "nonpayable",
      "type": "function"
    },
    {
      "inputs": [],
      "name": "transferUnlocked",
      "outputs": [
        {
          "internalType": "bool",
          "name": "",
          "type": "bool"
        }
      ],
      "stateMutability": "view",
      "type": "function"
    },
    {
      "inputs": [
        {
          "internalType": "address",
          "name": "",
          "type": "address"
        }
      ],
      "name": "vestedBalanceOf",
      "outputs": [
        {
          "internalType": "uint256",
          "name": "",
          "type": "uint256"
        }
      ],
      "stateMutability": "view",
      "type": "function"
    },
    {
      "inputs": [],
      "name": "vestingTVLReached",
      "outputs": [
        {
          "internalType": "bool",
          "name": "",
          "type": "bool"
        }
      ],
      "stateMutability": "view",
      "type": "function"
    }
  ],
  "bytecode": "0x60806040523480156200001157600080fd5b506200001c62000022565b620000e4565b600054610100900460ff16156200008f5760405162461bcd60e51b815260206004820152602760248201527f496e697469616c697a61626c653a20636f6e747261637420697320696e697469604482015266616c697a696e6760c81b606482015260840160405180910390fd5b60005460ff9081161015620000e2576000805460ff191660ff9081179091556040519081527f7f26b83ff96e1f2b6a682f133852f6798a09c465da95921460cefb38474024989060200160405180910390a15b565b612eac80620000f46000396000f3fe6080604052600436106101815760003560e01c8063b7597914116100d1578063d9107ce51161008a578063ec76d21511610064578063ec76d2151461047c578063efef39a11461049b578063fb237eb2146104ae578063fc0c546a146104de57600080fd5b8063d9107ce514610431578063df60fa4014610445578063e411d9a91461045a57600080fd5b8063b75979141461038d578063be040fb0146103a2578063bf7fec08146103b7578063c19d93fb146103e4578063c243ce7414610406578063cf09e0d01461041b57600080fd5b806337c62eb11161013e5780634e71d92d116101185780634e71d92d1461033457806367887a77146103495780636a38f3ca1461035e5780637805511d1461037857600080fd5b806337c62eb1146102ea5780633c68eb81146102ff57806342ee5d841461031457600080fd5b80630e2d1a2a14610186578063205decf4146101c65780632c4e8d55146101dd5780633253423f146101fd578063370158ea1461022757806337938720146102d5575b600080fd5b34801561019257600080fd5b506101b36101a136600461288a565b60456020526000908152604090205481565b6040519081526020015b60405180910390f35b3480156101d257600080fd5b506101db610516565b005b3480156101e957600080fd5b506101db6101f83660046128a7565b6108bd565b34801561020957600080fd5b506048546102179060ff1681565b60405190151581526020016101bd565b34801561023357600080fd5b50603454603554603654603754603854603954603a54603b54603c54603e54603f546040546102739b9a99989796959493926001600160a01b031691908c565b604080519c8d5260208d019b909b52998b019890985260608a0196909652608089019490945260a088019290925260c087015260e08601526101008501526001600160a01b0316610120840152610140830152610160820152610180016101bd565b3480156102e157600080fd5b506046546101b3565b3480156102f657600080fd5b50610217610bd3565b34801561030b57600080fd5b506101db610c21565b34801561032057600080fd5b506101b361032f36600461288a565b610ec8565b34801561034057600080fd5b506101db610f0c565b34801561035557600080fd5b506101b361111f565b34801561036a57600080fd5b506044546102179060ff1681565b34801561038457600080fd5b506101db611147565b34801561039957600080fd5b506101b36114df565b3480156103ae57600080fd5b506101db6114fd565b3480156103c357600080fd5b506101b36103d236600461288a565b60436020526000908152604090205481565b3480156103f057600080fd5b506103f961198a565b6040516101bd9190612915565b34801561041257600080fd5b506047546101b3565b34801561042757600080fd5b506101b360425481565b34801561043d57600080fd5b5060036101b3565b34801561045157600080fd5b50610217611ac1565b34801561046657600080fd5b5061046f611aee565b6040516101bd919061293d565b34801561048857600080fd5b5060485461021790610100900460ff1681565b6101db6104a936600461298a565b611b53565b3480156104ba57600080fd5b506102176104c936600461288a565b60416020526000908152604090205460ff1681565b3480156104ea57600080fd5b506033546104fe906001600160a01b031681565b6040516001600160a01b0390911681526020016101bd565b603360009054906101000a90046001600160a01b03166001600160a01b03166316f0115b6040518163ffffffff1660e01b8152600401602060405180830381865afa158015610569573d6000803e3d6000fd5b505050506040513d601f19601f8201168201806040525081019061058d91906129a3565b6001600160a01b0316635c975abb6040518163ffffffff1660e01b8152600401602060405180830381865afa1580156105ca573d6000803e3d6000fd5b505050506040513d601f19601f820116820180604052508101906105ee91906129c0565b156040518060400160405280600e81526020016d14d154959250d157d4105554d15160921b8152509061063d5760405162461bcd60e51b81526004016106349190612a06565b60405180910390fd5b50603360009054906101000a90046001600160a01b03166001600160a01b031663d598d4c96040518163ffffffff1660e01b8152600401602060405180830381865afa158015610691573d6000803e3d6000fd5b505050506040513d601f19601f820116820180604052508101906106b591906129a3565b6001600160a01b0316638da5cb5b6040518163ffffffff1660e01b8152600401602060405180830381865afa1580156106f2573d6000803e3d6000fd5b505050506040513d601f19601f8201168201806040525081019061071691906129a3565b6001600160a01b0316336001600160a01b031614806108115750603360009054906101000a90046001600160a01b03166001600160a01b031663d598d4c96040518163ffffffff1660e01b8152600401602060405180830381865afa158015610783573d6000803e3d6000fd5b505050506040513d601f19601f820116820180604052508101906107a791906129a3565b604051631e101a3d60e01b81523360048201526001600160a01b039190911690631e101a3d90602401602060405180830381865afa1580156107ed573d6000803e3d6000fd5b505050506040513d601f19601f8201168201806040525081019061081191906129c0565b6040518060400160405280600f81526020016e1393d517d5d2125511531254d51151608a1b815250906108575760405162461bcd60e51b81526004016106349190612a06565b506048546040805180820190915260128152711313d0d2d55417d5159317d4915050d2115160721b602082015290610100900460ff16156108ab5760405162461bcd60e51b81526004016106349190612a06565b506048805461ff001916610100179055565b600054610100900460ff16158080156108dd5750600054600160ff909116105b806108f75750303b1580156108f7575060005460ff166001145b61095a5760405162461bcd60e51b815260206004820152602e60248201527f496e697469616c697a61626c653a20636f6e747261637420697320616c72656160448201526d191e481a5b9a5d1a585b1a5e995960921b6064820152608401610634565b6000805460ff19166001179055801561097d576000805461ff0019166101001790555b826001600160a01b031663d598d4c96040518163ffffffff1660e01b8152600401602060405180830381865afa1580156109bb573d6000803e3d6000fd5b505050506040513d601f19601f820116820180604052508101906109df91906129a3565b6001600160a01b031663cb7e90576040518163ffffffff1660e01b8152600401602060405180830381865afa158015610a1c573d6000803e3d6000fd5b505050506040513d601f19601f82011682018060405250810190610a4091906129a3565b6001600160a01b0316637c8478a183856040518363ffffffff1660e01b8152600401610a6d929190612ad2565b602060405180830381865afa158015610a8a573d6000803e3d6000fd5b505050506040513d601f19601f82011682018060405250810190610aae91906129c0565b50603380546001600160a01b0319166001600160a01b038516179055816034610ad78282612ce8565b50506044805460ff191660e08401351517905560488054610180840135156101000261ff001990911617905560005b603d54811015610b8357600160416000610b24610120870187612bad565b85818110610b3457610b34612da9565b9050602002016020810190610b49919061288a565b6001600160a01b031681526020810191909152604001600020805460ff191691151591909117905580610b7b81612dbf565b915050610b06565b50436042558015610bce576000805461ff0019169055604051600181527f7f26b83ff96e1f2b6a682f133852f6798a09c465da95921460cefb38474024989060200160405180910390a15b505050565b60445460009060ff168015610bf75750603a54604254610bf39190612dd8565b4310155b8015610c1c57506001610c0861198a565b6002811115610c1957610c196128ff565b14155b905090565b600280610c2c61198a565b6002811115610c3d57610c3d6128ff565b146040518060400160405280600b81526020016a57524f4e475f535441544560a81b81525090610c805760405162461bcd60e51b81526004016106349190612a06565b50603360009054906101000a90046001600160a01b03166001600160a01b03166316f0115b6040518163ffffffff1660e01b8152600401602060405180830381865afa158015610cd4573d6000803e3d6000fd5b505050506040513d601f19601f82011682018060405250810190610cf891906129a3565b6001600160a01b0316635c975abb6040518163ffffffff1660e01b8152600401602060405180830381865afa158015610d35573d6000803e3d6000fd5b505050506040513d601f19601f82011682018060405250810190610d5991906129c0565b156040518060400160405280600e81526020016d14d154959250d157d4105554d15160921b81525090610d9f5760405162461bcd60e51b81526004016106349190612a06565b50610da86120e4565b603e54603354604080516316f0115b60e01b815290516001600160a01b039384169360009316916316f0115b9160048083019260209291908290030181865afa158015610df9573d6000803e3d6000fd5b505050506040513d601f19601f82011682018060405250810190610e1d91906129a3565b60345490915015610bce576001600160a01b038216610e4957610bce6001600160a01b038216476123d8565b6040516370a0823160e01b8152306004820152610bce9082906001600160a01b038516906370a0823190602401602060405180830381865afa158015610e93573d6000803e3d6000fd5b505050506040513d601f19601f82011682018060405250810190610eb79190612deb565b6001600160a01b03851691906124f1565b6001600160a01b038116600090815260436020526040812054603854610f0691610ef191612e04565b604654603554610f019190612e04565b612554565b92915050565b603360009054906101000a90046001600160a01b03166001600160a01b03166316f0115b6040518163ffffffff1660e01b8152600401602060405180830381865afa158015610f5f573d6000803e3d6000fd5b505050506040513d601f19601f82011682018060405250810190610f8391906129a3565b6001600160a01b0316635c975abb6040518163ffffffff1660e01b8152600401602060405180830381865afa158015610fc0573d6000803e3d6000fd5b505050506040513d601f19601f82011682018060405250810190610fe491906129c0565b156040518060400160405280600e81526020016d14d154959250d157d4105554d15160921b8152509061102a5760405162461bcd60e51b81526004016106349190612a06565b50611033610bd3565b60405180604001604052806013815260200172434c41494d5f4e4f545f415641494c41424c4560681b8152509061107d5760405162461bcd60e51b81526004016106349190612a06565b503360009081526045602090815260409182902054825180840190935260118352704e4f5f4c4f434b45445f42414c414e434560781b918301919091526110d75760405162461bcd60e51b81526004016106349190612a06565b503360009081526045602052604081208054908290556047805491928392611100908490612e04565b909155505060335461111c906001600160a01b031633836124f1565b50565b6000670de0b6b3a764000060346000015460465461113d9190612c23565b610c1c9190612e17565b603360009054906101000a90046001600160a01b03166001600160a01b03166316f0115b6040518163ffffffff1660e01b8152600401602060405180830381865afa15801561119a573d6000803e3d6000fd5b505050506040513d601f19601f820116820180604052508101906111be91906129a3565b6001600160a01b0316635c975abb6040518163ffffffff1660e01b8152600401602060405180830381865afa1580156111fb573d6000803e3d6000fd5b505050506040513d601f19601f8201168201806040525081019061121f91906129c0565b156040518060400160405280600e81526020016d14d154959250d157d4105554d15160921b815250906112655760405162461bcd60e51b81526004016106349190612a06565b50603360009054906101000a90046001600160a01b03166001600160a01b031663d598d4c96040518163ffffffff1660e01b8152600401602060405180830381865afa1580156112b9573d6000803e3d6000fd5b505050506040513d601f19601f820116820180604052508101906112dd91906129a3565b6001600160a01b0316638da5cb5b6040518163ffffffff1660e01b8152600401602060405180830381865afa15801561131a573d6000803e3d6000fd5b505050506040513d601f19601f8201168201806040525081019061133e91906129a3565b6001600160a01b0316336001600160a01b031614806114395750603360009054906101000a90046001600160a01b03166001600160a01b031663d598d4c96040518163ffffffff1660e01b8152600401602060405180830381865afa1580156113ab573d6000803e3d6000fd5b505050506040513d601f19601f820116820180604052508101906113cf91906129a3565b604051631e101a3d60e01b81523360048201526001600160a01b039190911690631e101a3d90602401602060405180830381865afa158015611415573d6000803e3d6000fd5b505050506040513d601f19601f8201168201806040525081019061143991906129c0565b6040518060400160405280600f81526020016e1393d517d5d2125511531254d51151608a1b8152509061147f5760405162461bcd60e51b81526004016106349190612a06565b50604454604080518082019091526013815272159154d5125391d7d5159317d4915050d21151606a1b60208201529060ff16156114cf5760405162461bcd60e51b81526004016106349190612a06565b506044805460ff19166001179055565b6000670de0b6b3a764000060346000015460475461113d9190612c23565b60018061150861198a565b6002811115611519576115196128ff565b146040518060400160405280600b81526020016a57524f4e475f535441544560a81b8152509061155c5760405162461bcd60e51b81526004016106349190612a06565b5061156561256c565b603360009054906101000a90046001600160a01b03166001600160a01b03166316f0115b6040518163ffffffff1660e01b8152600401602060405180830381865afa1580156115b8573d6000803e3d6000fd5b505050506040513d601f19601f820116820180604052508101906115dc91906129a3565b6001600160a01b0316635c975abb6040518163ffffffff1660e01b8152600401602060405180830381865afa158015611619573d6000803e3d6000fd5b505050506040513d601f19601f8201168201806040525081019061163d91906129c0565b156040518060400160405280600e81526020016d14d154959250d157d4105554d15160921b815250906116835760405162461bcd60e51b81526004016106349190612a06565b503360009081526043602090815260409182902054825180840190935260158352745a45524f5f50555243484153455f414d4f554e547360581b918301919091526116e15760405162461bcd60e51b81526004016106349190612a06565b50336000908152604560205260408120549081156117b457336000908152604560209081526040808320839055604390915281208054849290611725908490612e04565b92505081905550816047600082825461173e9190612e04565b9091555061174e90508282612dd8565b603354604051632770a7eb60e21b8152306004820152602481018590529192506001600160a01b031690639dc29fac90604401600060405180830381600087803b15801561179b57600080fd5b505af11580156117af573d6000803e3d6000fd5b505050505b6033546040516363fbe11d60e01b815233600482015260009161183c916001600160a01b03909116906363fbe11d90602401602060405180830381865afa158015611803573d6000803e3d6000fd5b505050506040513d601f19601f820116820180604052508101906118279190612deb565b33600090815260436020526040902054612554565b905080156118d9573360009081526043602052604081208054839290611863908490612e04565b9091555061187390508183612dd8565b603354604051632770a7eb60e21b8152336004820152602481018490529193506001600160a01b031690639dc29fac90604401600060405180830381600087803b1580156118c057600080fd5b505af11580156118d4573d6000803e3d6000fd5b505050505b6040805180820190915260118152704e4f5448494e475f544f5f52454445454d60781b60208201528261191f5760405162461bcd60e51b81526004016106349190612a06565b50603454600090670de0b6b3a76400009061193a9085612c23565b6119449190612e17565b603e549091506001600160a01b03166119665761196133826123d8565b61197d565b603e5461197d906001600160a01b031633836124f1565b5050505061111c60018055565b6000603460010154604654036119a05750600290565b603c546042546119b09190612dd8565b4310156119bd5750600090565b603654604654106119ce5750600290565b603360009054906101000a90046001600160a01b03166001600160a01b03166316f0115b6040518163ffffffff1660e01b8152600401602060405180830381865afa158015611a21573d6000803e3d6000fd5b505050506040513d601f19601f82011682018060405250810190611a4591906129a3565b6001600160a01b0316636685a7786040518163ffffffff1660e01b8152600401602060405180830381865afa158015611a82573d6000803e3d6000fd5b505050506040513d601f19601f82011682018060405250810190611aa691906129a3565b6001600160a01b03163003611abb5750600190565b50600290565b604854600090610100900460ff168015610c1c5750603f54604254611ae69190612dd8565b431015905090565b60606034600901805480602002602001604051908101604052809291908181526020018280548015611b4957602002820191906000526020600020905b81546001600160a01b03168152600190910190602001808311611b2b575b5050505050905090565b603d541580611b7157503360009081526041602052604090205460ff165b6040518060400160405280600f81526020016e1393d517d5d2125511531254d51151608a1b81525090611bb75760405162461bcd60e51b81526004016106349190612a06565b50600080611bc361198a565b6002811115611bd457611bd46128ff565b146040518060400160405280600b81526020016a57524f4e475f535441544560a81b81525090611c175760405162461bcd60e51b81526004016106349190612a06565b50611c2061256c565b603360009054906101000a90046001600160a01b03166001600160a01b03166316f0115b6040518163ffffffff1660e01b8152600401602060405180830381865afa158015611c73573d6000803e3d6000fd5b505050506040513d601f19601f82011682018060405250810190611c9791906129a3565b6001600160a01b0316635c975abb6040518163ffffffff1660e01b8152600401602060405180830381865afa158015611cd4573d6000803e3d6000fd5b505050506040513d601f19601f82011682018060405250810190611cf891906129c0565b156040518060400160405280600e81526020016d14d154959250d157d4105554d15160921b81525090611d3e5760405162461bcd60e51b81526004016106349190612a06565b50603e546033546001600160a01b03918216911681611dcc57603454670de0b6b3a764000090611d6e9086612c23565b611d789190612e17565b34101560405180604001604052806014815260200173125390d3d4949150d517d1551217d41054d4d15160621b81525090611dc65760405162461bcd60e51b81526004016106349190612a06565b50611e07565b611e073330670de0b6b3a764000060346000015488611deb9190612c23565b611df59190612e17565b6001600160a01b0386169291906125c5565b6037546040805180820190915260168152754d494e5f50555243484153455f554e444552464c4f5760501b602082015290851015611e585760405162461bcd60e51b81526004016106349190612a06565b50611e6233610ec8565b841115604051806040016040528060158152602001744d41585f50555243484153455f4f564552464c4f5760581b81525090611eb15760405162461bcd60e51b81526004016106349190612a06565b50603554604654611ec3908690612dd8565b11156040518060400160405280601081526020016f484152444341505f4f564552464c4f5760801b81525090611f0c5760405162461bcd60e51b81526004016106349190612a06565b508360466000828254611f1f9190612dd8565b90915550503360009081526043602052604081208054869290611f43908490612dd8565b9091555050603954600090606490611f5b9087612c23565b611f66906063612dd8565b611f709190612e17565b90506000611f7e8287612e04565b1115611ffd576001600160a01b0382166340c10f1933611f9e8489612e04565b6040516001600160e01b031960e085901b1681526001600160a01b0390921660048301526024820152604401600060405180830381600087803b158015611fe457600080fd5b505af1158015611ff8573d6000803e3d6000fd5b505050505b6040516340c10f1960e01b8152306004820152602481018290526001600160a01b038316906340c10f1990604401600060405180830381600087803b15801561204557600080fd5b505af1158015612059573d6000803e3d6000fd5b5050336000908152604560205260408120805485945090925061207d908490612dd8565b9250508190555080604760008282546120969190612dd8565b909155505060408051338152602081018790527fa512fb2532ca8587f236380171326ebb69670e86a2ba0c4412a3fcca4c3ada9b910160405180910390a15050506120e060018055565b5050565b60485460ff16156120f157565b6033546001600160a01b03166002816001600160a01b03166330fa738c6040518163ffffffff1660e01b8152600401602060405180830381865afa15801561213d573d6000803e3d6000fd5b505050506040513d601f19601f820116820180604052508101906121619190612e39565b6002811115612172576121726128ff565b0361217a5750565b6000816001600160a01b031663d598d4c96040518163ffffffff1660e01b8152600401602060405180830381865afa1580156121ba573d6000803e3d6000fd5b505050506040513d601f19601f820116820180604052508101906121de91906129a3565b6001600160a01b0316639d838ad36046546040518263ffffffff1660e01b815260040161220d91815260200190565b602060405180830381865afa15801561222a573d6000803e3d6000fd5b505050506040513d601f19601f8201168201806040525081019061224e9190612deb565b6048805460ff191660011790556040805163d598d4c960e01b815290519192506001600160a01b038416916340c10f1991839163d598d4c9916004808201926020929091908290030181865afa1580156122ac573d6000803e3d6000fd5b505050506040513d601f19601f820116820180604052508101906122d091906129a3565b6001600160a01b031663803db96d6040518163ffffffff1660e01b8152600401602060405180830381865afa15801561230d573d6000803e3d6000fd5b505050506040513d601f19601f8201168201806040525081019061233191906129a3565b6040516001600160e01b031960e084901b1681526001600160a01b03909116600482015260248101849052604401600060405180830381600087803b15801561237957600080fd5b505af115801561238d573d6000803e3d6000fd5b5050604080516001600160a01b0386168152602081018590527f261ee2056de47cac1d419457dbe29f4c1990ecb02a836ab87921fc97df8544f4935001905060405180910390a15050565b804710156124285760405162461bcd60e51b815260206004820152601d60248201527f416464726573733a20696e73756666696369656e742062616c616e63650000006044820152606401610634565b6000826001600160a01b03168260405160006040518083038185875af1925050503d8060008114612475576040519150601f19603f3d011682016040523d82523d6000602084013e61247a565b606091505b5050905080610bce5760405162461bcd60e51b815260206004820152603a60248201527f416464726573733a20756e61626c6520746f2073656e642076616c75652c207260448201527f6563697069656e74206d617920686176652072657665727465640000000000006064820152608401610634565b6040516001600160a01b038316602482015260448101829052610bce90849063a9059cbb60e01b906064015b60408051601f198184030181529190526020810180516001600160e01b03166001600160e01b031990931692909217909152612603565b60008183106125635781612565565b825b9392505050565b6002600154036125be5760405162461bcd60e51b815260206004820152601f60248201527f5265656e7472616e637947756172643a207265656e7472616e742063616c6c006044820152606401610634565b6002600155565b6040516001600160a01b03808516602483015283166044820152606481018290526125fd9085906323b872dd60e01b9060840161251d565b50505050565b6000612658826040518060400160405280602081526020017f5361666545524332303a206c6f772d6c6576656c2063616c6c206661696c6564815250856001600160a01b03166126d59092919063ffffffff16565b805190915015610bce578080602001905181019061267691906129c0565b610bce5760405162461bcd60e51b815260206004820152602a60248201527f5361666545524332303a204552433230206f7065726174696f6e20646964206e6044820152691bdd081cdd58d8d9595960b21b6064820152608401610634565b60606126e484846000856126ec565b949350505050565b60608247101561274d5760405162461bcd60e51b815260206004820152602660248201527f416464726573733a20696e73756666696369656e742062616c616e636520666f6044820152651c8818d85b1b60d21b6064820152608401610634565b600080866001600160a01b031685876040516127699190612e5a565b60006040518083038185875af1925050503d80600081146127a6576040519150601f19603f3d011682016040523d82523d6000602084013e6127ab565b606091505b50915091506127bc878383876127c7565b979650505050505050565b6060831561283657825160000361282f576001600160a01b0385163b61282f5760405162461bcd60e51b815260206004820152601d60248201527f416464726573733a2063616c6c20746f206e6f6e2d636f6e74726163740000006044820152606401610634565b50816126e4565b6126e4838381511561284b5781518083602001fd5b8060405162461bcd60e51b81526004016106349190612a06565b6001600160a01b038116811461111c57600080fd5b803561288581612865565b919050565b60006020828403121561289c57600080fd5b813561256581612865565b600080604083850312156128ba57600080fd5b82356128c581612865565b9150602083013567ffffffffffffffff8111156128e157600080fd5b83016101a081860312156128f457600080fd5b809150509250929050565b634e487b7160e01b600052602160045260246000fd5b602081016003831061293757634e487b7160e01b600052602160045260246000fd5b91905290565b6020808252825182820181905260009190848201906040850190845b8181101561297e5783516001600160a01b031683529284019291840191600101612959565b50909695505050505050565b60006020828403121561299c57600080fd5b5035919050565b6000602082840312156129b557600080fd5b815161256581612865565b6000602082840312156129d257600080fd5b8151801515811461256557600080fd5b60005b838110156129fd5781810151838201526020016129e5565b50506000910152565b6020815260008251806020840152612a258160408501602087016129e2565b601f01601f19169190910160400192915050565b6000808335601e19843603018112612a5057600080fd5b830160208101925035905067ffffffffffffffff811115612a7057600080fd5b8060051b3603821315612a8257600080fd5b9250929050565b8183526000602080850194508260005b85811015612ac7578135612aac81612865565b6001600160a01b031687529582019590820190600101612a99565b509495945050505050565b60408152823560408201526020830135606082015260408301356080820152606083013560a0820152608083013560c082015260a083013560e0820152600061010060c08501358184015261012060e0860135818501526101408287013581860152612b4082880188612a39565b935091506101a06101608181880152612b5e6101e088018686612a89565b9450612b6b838a0161287a565b93506101809250612b86838801856001600160a01b03169052565b880135908601528601356101c0850152506001600160a01b03841660208401529050612565565b6000808335601e19843603018112612bc457600080fd5b83018035915067ffffffffffffffff821115612bdf57600080fd5b6020019150600581901b3603821315612a8257600080fd5b634e487b7160e01b600052604160045260246000fd5b634e487b7160e01b600052601160045260246000fd5b8082028115828204841417610f0657610f06612c0d565b60008135610f0681612865565b67ffffffffffffffff831115612c5f57612c5f612bf7565b68010000000000000000831115612c7857612c78612bf7565b805483825580841015612caf576000828152602081208581019083015b80821015612cab57828255600182019150612c95565b5050505b5060008181526020812083915b85811015612ce057612ccd83612c3a565b8282015560209290920191600101612cbc565b505050505050565b813581556020820135600182015560408201356002820155606082013560038201556080820135600482015560a0820135600582015560c0820135600682015560e082013560078201556101008201356008820155612d4b610120830183612bad565b612d59818360098601612c47565b5050612d8f612d6b6101408401612c3a565b600a830180546001600160a01b0319166001600160a01b0392909216919091179055565b610160820135600b820155610180820135600c8201555050565b634e487b7160e01b600052603260045260246000fd5b600060018201612dd157612dd1612c0d565b5060010190565b80820180821115610f0657610f06612c0d565b600060208284031215612dfd57600080fd5b5051919050565b81810381811115610f0657610f06612c0d565b600082612e3457634e487b7160e01b600052601260045260246000fd5b500490565b600060208284031215612e4b57600080fd5b81516003811061256557600080fd5b60008251612e6c8184602087016129e2565b919091019291505056fea2646970667358221220dde3bfa9680dd961d149c2c22e36e407b825e38ce0553cefea8a3e79cbca0c9364736f6c63430008110033",
  "linkReferences": {},
  "deployedLinkReferences": {}
}