{
  "_format": "hh-sol-artifact-1",
  "contractName": "TGE",
  "sourceName": "contracts/TGE.sol",
  "abi": [
    {
      "inputs": [],
      "stateMutability": "nonpayable",
      "type": "constructor"
    },
    {
      "anonymous": false,
      "inputs": [
        {
          "indexed": false,
          "internalType": "address",
          "name": "account",
          "type": "address"
        },
        {
          "indexed": false,
          "internalType": "uint256",
          "name": "amount",
          "type": "uint256"
        }
      ],
      "name": "Claimed",
      "type": "event"
    },
    {
      "anonymous": false,
      "inputs": [
        {
          "indexed": false,
          "internalType": "uint256",
          "name": "amount",
          "type": "uint256"
        }
      ],
      "name": "FundsTransferred",
      "type": "event"
    },
    {
      "anonymous": false,
      "inputs": [
        {
          "indexed": false,
          "internalType": "uint8",
          "name": "version",
          "type": "uint8"
        }
      ],
      "name": "Initialized",
      "type": "event"
    },
    {
      "anonymous": false,
      "inputs": [
        {
          "indexed": false,
          "internalType": "address",
          "name": "token",
          "type": "address"
        },
        {
          "indexed": false,
          "internalType": "uint256",
          "name": "tokenFee",
          "type": "uint256"
        }
      ],
      "name": "ProtocolTokenFeeClaimed",
      "type": "event"
    },
    {
      "anonymous": false,
      "inputs": [
        {
          "indexed": false,
          "internalType": "address",
          "name": "buyer",
          "type": "address"
        },
        {
          "indexed": false,
          "internalType": "uint256",
          "name": "amount",
          "type": "uint256"
        }
      ],
      "name": "Purchased",
      "type": "event"
    },
    {
      "anonymous": false,
      "inputs": [
        {
          "indexed": false,
          "internalType": "address",
          "name": "account",
          "type": "address"
        },
        {
          "indexed": false,
          "internalType": "uint256",
          "name": "refundValue",
          "type": "uint256"
        }
      ],
      "name": "Redeemed",
      "type": "event"
    },
    {
      "inputs": [],
      "name": "claim",
      "outputs": [],
      "stateMutability": "nonpayable",
      "type": "function"
    },
    {
      "inputs": [],
      "name": "claimAvailable",
      "outputs": [
        {
          "internalType": "bool",
          "name": "",
          "type": "bool"
        }
      ],
      "stateMutability": "view",
      "type": "function"
    },
    {
      "inputs": [],
      "name": "createdAt",
      "outputs": [
        {
          "internalType": "uint256",
          "name": "",
          "type": "uint256"
        }
      ],
      "stateMutability": "view",
      "type": "function"
    },
    {
      "inputs": [],
      "name": "getTotalLockedValue",
      "outputs": [
        {
          "internalType": "uint256",
          "name": "",
          "type": "uint256"
        }
      ],
      "stateMutability": "view",
      "type": "function"
    },
    {
      "inputs": [],
      "name": "getTotalPurchased",
      "outputs": [
        {
          "internalType": "uint256",
          "name": "",
          "type": "uint256"
        }
      ],
      "stateMutability": "view",
      "type": "function"
    },
    {
      "inputs": [],
      "name": "getTotalPurchasedValue",
      "outputs": [
        {
          "internalType": "uint256",
          "name": "",
          "type": "uint256"
        }
      ],
      "stateMutability": "view",
      "type": "function"
    },
    {
      "inputs": [],
      "name": "getTotalVested",
      "outputs": [
        {
          "internalType": "uint256",
          "name": "",
          "type": "uint256"
        }
      ],
      "stateMutability": "view",
      "type": "function"
    },
    {
      "inputs": [],
      "name": "getUserWhitelist",
      "outputs": [
        {
          "internalType": "address[]",
          "name": "",
          "type": "address[]"
        }
      ],
      "stateMutability": "view",
      "type": "function"
    },
    {
      "inputs": [],
      "name": "info",
      "outputs": [
        {
          "internalType": "uint256",
          "name": "price",
          "type": "uint256"
        },
        {
          "internalType": "uint256",
          "name": "hardcap",
          "type": "uint256"
        },
        {
          "internalType": "uint256",
          "name": "softcap",
          "type": "uint256"
        },
        {
          "internalType": "uint256",
          "name": "minPurchase",
          "type": "uint256"
        },
        {
          "internalType": "uint256",
          "name": "maxPurchase",
          "type": "uint256"
        },
        {
          "internalType": "uint256",
          "name": "vestingPercent",
          "type": "uint256"
        },
        {
          "internalType": "uint256",
          "name": "vestingDuration",
          "type": "uint256"
        },
        {
          "internalType": "uint256",
          "name": "vestingTVL",
          "type": "uint256"
        },
        {
          "internalType": "uint256",
          "name": "duration",
          "type": "uint256"
        },
        {
          "internalType": "address",
          "name": "unitOfAccount",
          "type": "address"
        },
        {
          "internalType": "uint256",
          "name": "lockupDuration",
          "type": "uint256"
        },
        {
          "internalType": "uint256",
          "name": "lockupTVL",
          "type": "uint256"
        }
      ],
      "stateMutability": "view",
      "type": "function"
    },
    {
      "inputs": [
        {
          "internalType": "contract IToken",
          "name": "token_",
          "type": "address"
        },
        {
          "components": [
            {
              "internalType": "uint256",
              "name": "price",
              "type": "uint256"
            },
            {
              "internalType": "uint256",
              "name": "hardcap",
              "type": "uint256"
            },
            {
              "internalType": "uint256",
              "name": "softcap",
              "type": "uint256"
            },
            {
              "internalType": "uint256",
              "name": "minPurchase",
              "type": "uint256"
            },
            {
              "internalType": "uint256",
              "name": "maxPurchase",
              "type": "uint256"
            },
            {
              "internalType": "uint256",
              "name": "vestingPercent",
              "type": "uint256"
            },
            {
              "internalType": "uint256",
              "name": "vestingDuration",
              "type": "uint256"
            },
            {
              "internalType": "uint256",
              "name": "vestingTVL",
              "type": "uint256"
            },
            {
              "internalType": "uint256",
              "name": "duration",
              "type": "uint256"
            },
            {
              "internalType": "address[]",
              "name": "userWhitelist",
              "type": "address[]"
            },
            {
              "internalType": "address",
              "name": "unitOfAccount",
              "type": "address"
            },
            {
              "internalType": "uint256",
              "name": "lockupDuration",
              "type": "uint256"
            },
            {
              "internalType": "uint256",
              "name": "lockupTVL",
              "type": "uint256"
            }
          ],
          "internalType": "struct ITGE.TGEInfo",
          "name": "info_",
          "type": "tuple"
        }
      ],
      "name": "initialize",
      "outputs": [],
      "stateMutability": "nonpayable",
      "type": "function"
    },
    {
      "inputs": [],
      "name": "isProtocolTokenFeeClaimed",
      "outputs": [
        {
          "internalType": "bool",
          "name": "",
          "type": "bool"
        }
      ],
      "stateMutability": "view",
      "type": "function"
    },
    {
      "inputs": [
        {
          "internalType": "address",
          "name": "",
          "type": "address"
        }
      ],
      "name": "isUserWhitelisted",
      "outputs": [
        {
          "internalType": "bool",
          "name": "",
          "type": "bool"
        }
      ],
      "stateMutability": "view",
      "type": "function"
    },
    {
      "inputs": [],
      "name": "lockupTVLReached",
      "outputs": [
        {
          "internalType": "bool",
          "name": "",
          "type": "bool"
        }
      ],
      "stateMutability": "view",
      "type": "function"
    },
    {
      "inputs": [
        {
          "internalType": "address",
          "name": "account",
          "type": "address"
        }
      ],
      "name": "maxPurchaseOf",
      "outputs": [
        {
          "internalType": "uint256",
          "name": "",
          "type": "uint256"
        }
      ],
      "stateMutability": "view",
      "type": "function"
    },
    {
      "inputs": [
        {
          "internalType": "uint256",
          "name": "amount",
          "type": "uint256"
        }
      ],
      "name": "purchase",
      "outputs": [],
      "stateMutability": "payable",
      "type": "function"
    },
    {
      "inputs": [
        {
          "internalType": "address",
          "name": "",
          "type": "address"
        }
      ],
      "name": "purchaseOf",
      "outputs": [
        {
          "internalType": "uint256",
          "name": "",
          "type": "uint256"
        }
      ],
      "stateMutability": "view",
      "type": "function"
    },
    {
      "inputs": [],
      "name": "redeem",
      "outputs": [],
      "stateMutability": "nonpayable",
      "type": "function"
    },
    {
      "inputs": [],
      "name": "setLockupTVLReached",
      "outputs": [],
      "stateMutability": "nonpayable",
      "type": "function"
    },
    {
      "inputs": [],
      "name": "setVestingTVLReached",
      "outputs": [],
      "stateMutability": "nonpayable",
      "type": "function"
    },
    {
      "inputs": [],
      "name": "state",
      "outputs": [
        {
          "internalType": "enum ITGE.State",
          "name": "",
          "type": "uint8"
        }
      ],
      "stateMutability": "view",
      "type": "function"
    },
    {
      "inputs": [],
      "name": "test83212",
      "outputs": [
        {
          "internalType": "uint256",
          "name": "",
          "type": "uint256"
        }
      ],
      "stateMutability": "pure",
      "type": "function"
    },
    {
      "inputs": [],
      "name": "token",
      "outputs": [
        {
          "internalType": "contract IToken",
          "name": "",
          "type": "address"
        }
      ],
      "stateMutability": "view",
      "type": "function"
    },
    {
      "inputs": [],
      "name": "transferFunds",
      "outputs": [],
      "stateMutability": "nonpayable",
      "type": "function"
    },
    {
      "inputs": [],
      "name": "transferUnlocked",
      "outputs": [
        {
          "internalType": "bool",
          "name": "",
          "type": "bool"
        }
      ],
      "stateMutability": "view",
      "type": "function"
    },
    {
      "inputs": [
        {
          "internalType": "address",
          "name": "",
          "type": "address"
        }
      ],
      "name": "vestedBalanceOf",
      "outputs": [
        {
          "internalType": "uint256",
          "name": "",
          "type": "uint256"
        }
      ],
      "stateMutability": "view",
      "type": "function"
    },
    {
      "inputs": [],
      "name": "vestingTVLReached",
      "outputs": [
        {
          "internalType": "bool",
          "name": "",
          "type": "bool"
        }
      ],
      "stateMutability": "view",
      "type": "function"
    }
  ],
  "bytecode": "0x60806040523480156200001157600080fd5b506200001c62000022565b620000e4565b600054610100900460ff16156200008f5760405162461bcd60e51b815260206004820152602760248201527f496e697469616c697a61626c653a20636f6e747261637420697320696e697469604482015266616c697a696e6760c81b606482015260840160405180910390fd5b60005460ff9081161015620000e2576000805460ff191660ff9081179091556040519081527f7f26b83ff96e1f2b6a682f133852f6798a09c465da95921460cefb38474024989060200160405180910390a15b565b61311e80620000f46000396000f3fe6080604052600436106101815760003560e01c8063b7597914116100d1578063d9107ce51161008a578063ec76d21511610064578063ec76d2151461047c578063efef39a11461049b578063fb237eb2146104ae578063fc0c546a146104de57600080fd5b8063d9107ce514610431578063df60fa4014610445578063e411d9a91461045a57600080fd5b8063b75979141461038d578063be040fb0146103a2578063bf7fec08146103b7578063c19d93fb146103e4578063c243ce7414610406578063cf09e0d01461041b57600080fd5b806337c62eb11161013e5780634e71d92d116101185780634e71d92d1461033457806367887a77146103495780636a38f3ca1461035e5780637805511d1461037857600080fd5b806337c62eb1146102ea5780633c68eb81146102ff57806342ee5d841461031457600080fd5b80630e2d1a2a14610186578063205decf4146101c65780632c4e8d55146101dd5780633253423f146101fd578063370158ea1461022757806337938720146102d5575b600080fd5b34801561019257600080fd5b506101b36101a13660046129f8565b60456020526000908152604090205481565b6040519081526020015b60405180910390f35b3480156101d257600080fd5b506101db610516565b005b3480156101e957600080fd5b506101db6101f8366004612a15565b6108bd565b34801561020957600080fd5b506048546102179060ff1681565b60405190151581526020016101bd565b34801561023357600080fd5b50603454603554603654603754603854603954603a54603b54603c54603e54603f546040546102739b9a99989796959493926001600160a01b031691908c565b604080519c8d5260208d019b909b52998b019890985260608a0196909652608089019490945260a088019290925260c087015260e08601526101008501526001600160a01b0316610120840152610140830152610160820152610180016101bd565b3480156102e157600080fd5b506046546101b3565b3480156102f657600080fd5b50610217610cfa565b34801561030b57600080fd5b506101db610d48565b34801561032057600080fd5b506101b361032f3660046129f8565b611031565b34801561034057600080fd5b506101db611075565b34801561035557600080fd5b506101b36112c1565b34801561036a57600080fd5b506044546102179060ff1681565b34801561038457600080fd5b506101db6112e9565b34801561039957600080fd5b506101b3611681565b3480156103ae57600080fd5b506101db61169f565b3480156103c357600080fd5b506101b36103d23660046129f8565b60436020526000908152604090205481565b3480156103f057600080fd5b506103f9611b68565b6040516101bd9190612aa1565b34801561041257600080fd5b506047546101b3565b34801561042757600080fd5b506101b360425481565b34801561043d57600080fd5b5060036101b3565b34801561045157600080fd5b50610217611c64565b34801561046657600080fd5b5061046f611c91565b6040516101bd9190612ab4565b34801561048857600080fd5b5060485461021790610100900460ff1681565b6101db6104a9366004612b01565b611cf6565b3480156104ba57600080fd5b506102176104c93660046129f8565b60416020526000908152604090205460ff1681565b3480156104ea57600080fd5b506033546104fe906001600160a01b031681565b6040516001600160a01b0390911681526020016101bd565b603360009054906101000a90046001600160a01b03166001600160a01b03166316f0115b6040518163ffffffff1660e01b8152600401602060405180830381865afa158015610569573d6000803e3d6000fd5b505050506040513d601f19601f8201168201806040525081019061058d9190612b25565b6001600160a01b0316635c975abb6040518163ffffffff1660e01b8152600401602060405180830381865afa1580156105ca573d6000803e3d6000fd5b505050506040513d601f19601f820116820180604052508101906105ee9190612b42565b156040518060400160405280600e81526020016d14d154959250d157d4105554d15160921b8152509061063d5760405162461bcd60e51b81526004016106349190612b88565b60405180910390fd5b50603360009054906101000a90046001600160a01b03166001600160a01b031663d598d4c96040518163ffffffff1660e01b8152600401602060405180830381865afa158015610691573d6000803e3d6000fd5b505050506040513d601f19601f820116820180604052508101906106b59190612b25565b6001600160a01b0316638da5cb5b6040518163ffffffff1660e01b8152600401602060405180830381865afa1580156106f2573d6000803e3d6000fd5b505050506040513d601f19601f820116820180604052508101906107169190612b25565b6001600160a01b0316336001600160a01b031614806108115750603360009054906101000a90046001600160a01b03166001600160a01b031663d598d4c96040518163ffffffff1660e01b8152600401602060405180830381865afa158015610783573d6000803e3d6000fd5b505050506040513d601f19601f820116820180604052508101906107a79190612b25565b604051631e101a3d60e01b81523360048201526001600160a01b039190911690631e101a3d90602401602060405180830381865afa1580156107ed573d6000803e3d6000fd5b505050506040513d601f19601f820116820180604052508101906108119190612b42565b6040518060400160405280600f81526020016e1393d517d5d2125511531254d51151608a1b815250906108575760405162461bcd60e51b81526004016106349190612b88565b506048546040805180820190915260128152711313d0d2d55417d5159317d4915050d2115160721b602082015290610100900460ff16156108ab5760405162461bcd60e51b81526004016106349190612b88565b506048805461ff001916610100179055565b600054610100900460ff16158080156108dd5750600054600160ff909116105b806108f75750303b1580156108f7575060005460ff166001145b61095a5760405162461bcd60e51b815260206004820152602e60248201527f496e697469616c697a61626c653a20636f6e747261637420697320616c72656160448201526d191e481a5b9a5d1a585b1a5e995960921b6064820152608401610634565b6000805460ff19166001179055801561097d576000805461ff0019166101001790555b826001600160a01b031663d598d4c96040518163ffffffff1660e01b8152600401602060405180830381865afa1580156109bb573d6000803e3d6000fd5b505050506040513d601f19601f820116820180604052508101906109df9190612b25565b6001600160a01b031663cb7e90576040518163ffffffff1660e01b8152600401602060405180830381865afa158015610a1c573d6000803e3d6000fd5b505050506040513d601f19601f82011682018060405250810190610a409190612b25565b6001600160a01b0316634c37d16783856001600160a01b03166330fa738c6040518163ffffffff1660e01b8152600401602060405180830381865afa158015610a8d573d6000803e3d6000fd5b505050506040513d601f19601f82011682018060405250810190610ab19190612bbb565b866001600160a01b031663355274ea6040518163ffffffff1660e01b8152600401602060405180830381865afa158015610aef573d6000803e3d6000fd5b505050506040513d601f19601f82011682018060405250810190610b139190612bdc565b876001600160a01b03166318160ddd6040518163ffffffff1660e01b8152600401602060405180830381865afa158015610b51573d6000803e3d6000fd5b505050506040513d601f19601f82011682018060405250810190610b759190612bdc565b6040518563ffffffff1660e01b8152600401610b949493929190612c9b565b602060405180830381865afa158015610bb1573d6000803e3d6000fd5b505050506040513d601f19601f82011682018060405250810190610bd59190612b42565b50603380546001600160a01b0319166001600160a01b038516179055816034610bfe8282612eb6565b50506044805460ff191660e08401351517905560488054610180840135156101000261ff001990911617905560005b603d54811015610caa57600160416000610c4b610120870187612d7b565b85818110610c5b57610c5b612f77565b9050602002016020810190610c7091906129f8565b6001600160a01b031681526020810191909152604001600020805460ff191691151591909117905580610ca281612f8d565b915050610c2d565b50436042558015610cf5576000805461ff0019169055604051600181527f7f26b83ff96e1f2b6a682f133852f6798a09c465da95921460cefb38474024989060200160405180910390a15b505050565b60445460009060ff168015610d1e5750603a54604254610d1a9190612fa6565b4310155b8015610d4357506001610d2f611b68565b6002811115610d4057610d40612a6d565b14155b905090565b600280610d53611b68565b6002811115610d6457610d64612a6d565b146040518060400160405280600b81526020016a57524f4e475f535441544560a81b81525090610da75760405162461bcd60e51b81526004016106349190612b88565b50603360009054906101000a90046001600160a01b03166001600160a01b03166316f0115b6040518163ffffffff1660e01b8152600401602060405180830381865afa158015610dfb573d6000803e3d6000fd5b505050506040513d601f19601f82011682018060405250810190610e1f9190612b25565b6001600160a01b0316635c975abb6040518163ffffffff1660e01b8152600401602060405180830381865afa158015610e5c573d6000803e3d6000fd5b505050506040513d601f19601f82011682018060405250810190610e809190612b42565b156040518060400160405280600e81526020016d14d154959250d157d4105554d15160921b81525090610ec65760405162461bcd60e51b81526004016106349190612b88565b50610ecf612279565b603e54603354604080516316f0115b60e01b815290516001600160a01b039384169360009316916316f0115b9160048083019260209291908290030181865afa158015610f20573d6000803e3d6000fd5b505050506040513d601f19601f82011682018060405250810190610f449190612b25565b60345490915060009015610ff8576001600160a01b038316610f7a575047610f756001600160a01b03831682612553565b610ff8565b6040516370a0823160e01b81523060048201526001600160a01b038416906370a0823190602401602060405180830381865afa158015610fbe573d6000803e3d6000fd5b505050506040513d601f19601f82011682018060405250810190610fe29190612bdc565b9050610ff86001600160a01b038416838361266c565b6040518181527fe057af857c4cd43c642d89c71d82bfcef75327272b9cc78e3951f824bd5dd6cb9060200160405180910390a150505050565b6001600160a01b03811660009081526043602052604081205460385461106f9161105a91612fb9565b60465460355461106a9190612fb9565b6126c2565b92915050565b603360009054906101000a90046001600160a01b03166001600160a01b03166316f0115b6040518163ffffffff1660e01b8152600401602060405180830381865afa1580156110c8573d6000803e3d6000fd5b505050506040513d601f19601f820116820180604052508101906110ec9190612b25565b6001600160a01b0316635c975abb6040518163ffffffff1660e01b8152600401602060405180830381865afa158015611129573d6000803e3d6000fd5b505050506040513d601f19601f8201168201806040525081019061114d9190612b42565b156040518060400160405280600e81526020016d14d154959250d157d4105554d15160921b815250906111935760405162461bcd60e51b81526004016106349190612b88565b5061119c610cfa565b60405180604001604052806013815260200172434c41494d5f4e4f545f415641494c41424c4560681b815250906111e65760405162461bcd60e51b81526004016106349190612b88565b503360009081526045602090815260409182902054825180840190935260118352704e4f5f4c4f434b45445f42414c414e434560781b918301919091526112405760405162461bcd60e51b81526004016106349190612b88565b503360009081526045602052604081208054908290556047805491928392611269908490612fb9565b9091555050603354611285906001600160a01b0316338361266c565b7fd8138f8a3f377c5259ca548e70e4c2de94f129f5a11036a15b69513cba2b426a33826040516112b6929190612fcc565b60405180910390a150565b6000670de0b6b3a76400006034600001546046546112df9190612df1565b610d439190612fe5565b603360009054906101000a90046001600160a01b03166001600160a01b03166316f0115b6040518163ffffffff1660e01b8152600401602060405180830381865afa15801561133c573d6000803e3d6000fd5b505050506040513d601f19601f820116820180604052508101906113609190612b25565b6001600160a01b0316635c975abb6040518163ffffffff1660e01b8152600401602060405180830381865afa15801561139d573d6000803e3d6000fd5b505050506040513d601f19601f820116820180604052508101906113c19190612b42565b156040518060400160405280600e81526020016d14d154959250d157d4105554d15160921b815250906114075760405162461bcd60e51b81526004016106349190612b88565b50603360009054906101000a90046001600160a01b03166001600160a01b031663d598d4c96040518163ffffffff1660e01b8152600401602060405180830381865afa15801561145b573d6000803e3d6000fd5b505050506040513d601f19601f8201168201806040525081019061147f9190612b25565b6001600160a01b0316638da5cb5b6040518163ffffffff1660e01b8152600401602060405180830381865afa1580156114bc573d6000803e3d6000fd5b505050506040513d601f19601f820116820180604052508101906114e09190612b25565b6001600160a01b0316336001600160a01b031614806115db5750603360009054906101000a90046001600160a01b03166001600160a01b031663d598d4c96040518163ffffffff1660e01b8152600401602060405180830381865afa15801561154d573d6000803e3d6000fd5b505050506040513d601f19601f820116820180604052508101906115719190612b25565b604051631e101a3d60e01b81523360048201526001600160a01b039190911690631e101a3d90602401602060405180830381865afa1580156115b7573d6000803e3d6000fd5b505050506040513d601f19601f820116820180604052508101906115db9190612b42565b6040518060400160405280600f81526020016e1393d517d5d2125511531254d51151608a1b815250906116215760405162461bcd60e51b81526004016106349190612b88565b50604454604080518082019091526013815272159154d5125391d7d5159317d4915050d21151606a1b60208201529060ff16156116715760405162461bcd60e51b81526004016106349190612b88565b506044805460ff19166001179055565b6000670de0b6b3a76400006034600001546047546112df9190612df1565b6001806116aa611b68565b60028111156116bb576116bb612a6d565b146040518060400160405280600b81526020016a57524f4e475f535441544560a81b815250906116fe5760405162461bcd60e51b81526004016106349190612b88565b506117076126da565b603360009054906101000a90046001600160a01b03166001600160a01b03166316f0115b6040518163ffffffff1660e01b8152600401602060405180830381865afa15801561175a573d6000803e3d6000fd5b505050506040513d601f19601f8201168201806040525081019061177e9190612b25565b6001600160a01b0316635c975abb6040518163ffffffff1660e01b8152600401602060405180830381865afa1580156117bb573d6000803e3d6000fd5b505050506040513d601f19601f820116820180604052508101906117df9190612b42565b156040518060400160405280600e81526020016d14d154959250d157d4105554d15160921b815250906118255760405162461bcd60e51b81526004016106349190612b88565b503360009081526043602090815260409182902054825180840190935260158352745a45524f5f50555243484153455f414d4f554e547360581b918301919091526118835760405162461bcd60e51b81526004016106349190612b88565b5033600090815260456020526040812054908115611956573360009081526045602090815260408083208390556043909152812080548492906118c7908490612fb9565b9250508190555081604760008282546118e09190612fb9565b909155506118f090508282612fa6565b603354604051632770a7eb60e21b81529192506001600160a01b031690639dc29fac906119239030908690600401612fcc565b600060405180830381600087803b15801561193d57600080fd5b505af1158015611951573d6000803e3d6000fd5b505050505b6033546040516363fbe11d60e01b81523360048201526000916119de916001600160a01b03909116906363fbe11d90602401602060405180830381865afa1580156119a5573d6000803e3d6000fd5b505050506040513d601f19601f820116820180604052508101906119c99190612bdc565b336000908152604360205260409020546126c2565b90508015611a7b573360009081526043602052604081208054839290611a05908490612fb9565b90915550611a1590508183612fa6565b603354604051632770a7eb60e21b81529193506001600160a01b031690639dc29fac90611a489033908590600401612fcc565b600060405180830381600087803b158015611a6257600080fd5b505af1158015611a76573d6000803e3d6000fd5b505050505b6040805180820190915260118152704e4f5448494e475f544f5f52454445454d60781b602082015282611ac15760405162461bcd60e51b81526004016106349190612b88565b50603454600090670de0b6b3a764000090611adc9085612df1565b611ae69190612fe5565b603e549091506001600160a01b0316611b0857611b033382612553565b611b1f565b603e54611b1f906001600160a01b0316338361266c565b7f4896181ff8f4543cc00db9fe9b6fb7e6f032b7eb772c72ab1ec1b4d2e03b93693382604051611b50929190612fcc565b60405180910390a150505050611b6560018055565b50565b600060346001015460465403611b7e5750600290565b603c54604254611b8e9190612fa6565b431015611b9b5750600090565b60365460465410611bac5750600290565b603360009054906101000a90046001600160a01b03166001600160a01b0316620a04ae6040518163ffffffff1660e01b8152600401600060405180830381865afa158015611bfe573d6000803e3d6000fd5b505050506040513d6000823e601f3d908101601f19168201604052611c269190810190613007565b600081518110611c3857611c38612f77565b60200260200101516001600160a01b0316306001600160a01b031603611c5e5750600190565b50600290565b604854600090610100900460ff168015610d435750603f54604254611c899190612fa6565b431015905090565b60606034600901805480602002602001604051908101604052809291908181526020018280548015611cec57602002820191906000526020600020905b81546001600160a01b03168152600190910190602001808311611cce575b5050505050905090565b603d541580611d1457503360009081526041602052604090205460ff165b6040518060400160405280600f81526020016e1393d517d5d2125511531254d51151608a1b81525090611d5a5760405162461bcd60e51b81526004016106349190612b88565b50600080611d66611b68565b6002811115611d7757611d77612a6d565b146040518060400160405280600b81526020016a57524f4e475f535441544560a81b81525090611dba5760405162461bcd60e51b81526004016106349190612b88565b50611dc36126da565b603360009054906101000a90046001600160a01b03166001600160a01b03166316f0115b6040518163ffffffff1660e01b8152600401602060405180830381865afa158015611e16573d6000803e3d6000fd5b505050506040513d601f19601f82011682018060405250810190611e3a9190612b25565b6001600160a01b0316635c975abb6040518163ffffffff1660e01b8152600401602060405180830381865afa158015611e77573d6000803e3d6000fd5b505050506040513d601f19601f82011682018060405250810190611e9b9190612b42565b156040518060400160405280600e81526020016d14d154959250d157d4105554d15160921b81525090611ee15760405162461bcd60e51b81526004016106349190612b88565b50603e546033546001600160a01b03918216911681611f6f57603454670de0b6b3a764000090611f119086612df1565b611f1b9190612fe5565b34101560405180604001604052806014815260200173125390d3d4949150d517d1551217d41054d4d15160621b81525090611f695760405162461bcd60e51b81526004016106349190612b88565b50611faa565b611faa3330670de0b6b3a764000060346000015488611f8e9190612df1565b611f989190612fe5565b6001600160a01b038616929190612733565b6037546040805180820190915260168152754d494e5f50555243484153455f554e444552464c4f5760501b602082015290851015611ffb5760405162461bcd60e51b81526004016106349190612b88565b5061200533611031565b841115604051806040016040528060158152602001744d41585f50555243484153455f4f564552464c4f5760581b815250906120545760405162461bcd60e51b81526004016106349190612b88565b50603554604654612066908690612fa6565b11156040518060400160405280601081526020016f484152444341505f4f564552464c4f5760801b815250906120af5760405162461bcd60e51b81526004016106349190612b88565b5083604660008282546120c29190612fa6565b909155505033600090815260436020526040812080548692906120e6908490612fa6565b90915550506039546000906064906120fe9087612df1565b612109906063612fa6565b6121139190612fe5565b905060006121218287612fb9565b1115612191576001600160a01b0382166340c10f19336121418489612fb9565b6040518363ffffffff1660e01b815260040161215e929190612fcc565b600060405180830381600087803b15801561217857600080fd5b505af115801561218c573d6000803e3d6000fd5b505050505b6040516340c10f1960e01b81526001600160a01b038316906340c10f19906121bf9030908590600401612fcc565b600060405180830381600087803b1580156121d957600080fd5b505af11580156121ed573d6000803e3d6000fd5b50503360009081526045602052604081208054859450909250612211908490612fa6565b92505081905550806047600082825461222a9190612fa6565b90915550506040517fa512fb2532ca8587f236380171326ebb69670e86a2ba0c4412a3fcca4c3ada9b906122619033908890612fcc565b60405180910390a150505061227560018055565b5050565b60485460ff161561228657565b6033546001600160a01b03166002816001600160a01b03166330fa738c6040518163ffffffff1660e01b8152600401602060405180830381865afa1580156122d2573d6000803e3d6000fd5b505050506040513d601f19601f820116820180604052508101906122f69190612bbb565b600281111561230757612307612a6d565b0361230f5750565b6000816001600160a01b031663d598d4c96040518163ffffffff1660e01b8152600401602060405180830381865afa15801561234f573d6000803e3d6000fd5b505050506040513d601f19601f820116820180604052508101906123739190612b25565b6001600160a01b0316639d838ad36046546040518263ffffffff1660e01b81526004016123a291815260200190565b602060405180830381865afa1580156123bf573d6000803e3d6000fd5b505050506040513d601f19601f820116820180604052508101906123e39190612bdc565b6048805460ff191660011790556040805163d598d4c960e01b815290519192506001600160a01b038416916340c10f1991839163d598d4c9916004808201926020929091908290030181865afa158015612441573d6000803e3d6000fd5b505050506040513d601f19601f820116820180604052508101906124659190612b25565b6001600160a01b031663803db96d6040518163ffffffff1660e01b8152600401602060405180830381865afa1580156124a2573d6000803e3d6000fd5b505050506040513d601f19601f820116820180604052508101906124c69190612b25565b836040518363ffffffff1660e01b81526004016124e4929190612fcc565b600060405180830381600087803b1580156124fe57600080fd5b505af1158015612512573d6000803e3d6000fd5b505050507f261ee2056de47cac1d419457dbe29f4c1990ecb02a836ab87921fc97df8544f48282604051612547929190612fcc565b60405180910390a15050565b804710156125a35760405162461bcd60e51b815260206004820152601d60248201527f416464726573733a20696e73756666696369656e742062616c616e63650000006044820152606401610634565b6000826001600160a01b03168260405160006040518083038185875af1925050503d80600081146125f0576040519150601f19603f3d011682016040523d82523d6000602084013e6125f5565b606091505b5050905080610cf55760405162461bcd60e51b815260206004820152603a60248201527f416464726573733a20756e61626c6520746f2073656e642076616c75652c207260448201527f6563697069656e74206d617920686176652072657665727465640000000000006064820152608401610634565b610cf58363a9059cbb60e01b848460405160240161268b929190612fcc565b60408051601f198184030181529190526020810180516001600160e01b03166001600160e01b031990931692909217909152612771565b60008183106126d157816126d3565b825b9392505050565b60026001540361272c5760405162461bcd60e51b815260206004820152601f60248201527f5265656e7472616e637947756172643a207265656e7472616e742063616c6c006044820152606401610634565b6002600155565b6040516001600160a01b038085166024830152831660448201526064810182905261276b9085906323b872dd60e01b9060840161268b565b50505050565b60006127c6826040518060400160405280602081526020017f5361666545524332303a206c6f772d6c6576656c2063616c6c206661696c6564815250856001600160a01b03166128439092919063ffffffff16565b805190915015610cf557808060200190518101906127e49190612b42565b610cf55760405162461bcd60e51b815260206004820152602a60248201527f5361666545524332303a204552433230206f7065726174696f6e20646964206e6044820152691bdd081cdd58d8d9595960b21b6064820152608401610634565b6060612852848460008561285a565b949350505050565b6060824710156128bb5760405162461bcd60e51b815260206004820152602660248201527f416464726573733a20696e73756666696369656e742062616c616e636520666f6044820152651c8818d85b1b60d21b6064820152608401610634565b600080866001600160a01b031685876040516128d791906130cc565b60006040518083038185875af1925050503d8060008114612914576040519150601f19603f3d011682016040523d82523d6000602084013e612919565b606091505b509150915061292a87838387612935565b979650505050505050565b606083156129a457825160000361299d576001600160a01b0385163b61299d5760405162461bcd60e51b815260206004820152601d60248201527f416464726573733a2063616c6c20746f206e6f6e2d636f6e74726163740000006044820152606401610634565b5081612852565b61285283838151156129b95781518083602001fd5b8060405162461bcd60e51b81526004016106349190612b88565b6001600160a01b0381168114611b6557600080fd5b80356129f3816129d3565b919050565b600060208284031215612a0a57600080fd5b81356126d3816129d3565b60008060408385031215612a2857600080fd5b8235612a33816129d3565b9150602083013567ffffffffffffffff811115612a4f57600080fd5b83016101a08186031215612a6257600080fd5b809150509250929050565b634e487b7160e01b600052602160045260246000fd5b60038110611b6557634e487b7160e01b600052602160045260246000fd5b60208101612aae83612a83565b91905290565b6020808252825182820181905260009190848201906040850190845b81811015612af55783516001600160a01b031683529284019291840191600101612ad0565b50909695505050505050565b600060208284031215612b1357600080fd5b5035919050565b80516129f3816129d3565b600060208284031215612b3757600080fd5b81516126d3816129d3565b600060208284031215612b5457600080fd5b815180151581146126d357600080fd5b60005b83811015612b7f578181015183820152602001612b67565b50506000910152565b6020815260008251806020840152612ba7816040850160208701612b64565b601f01601f19169190910160400192915050565b600060208284031215612bcd57600080fd5b8151600381106126d357600080fd5b600060208284031215612bee57600080fd5b5051919050565b6000808335601e19843603018112612c0c57600080fd5b830160208101925035905067ffffffffffffffff811115612c2c57600080fd5b8060051b3603821315612c3e57600080fd5b9250929050565b8183526000602080850194508260005b85811015612c83578135612c68816129d3565b6001600160a01b031687529582019590820190600101612c55565b509495945050505050565b612c9781612a83565b9052565b6080815284356080820152602085013560a0820152604085013560c0820152606085013560e0820152600061010060808701358184015261012060a08801358185015261014060c08901358186015261016060e08a013581870152610180848b013581880152612d0d848c018c612bf5565b6101a08981015295509350612d2761022088018686612c45565b9450612d34838c016129e8565b6001600160a01b03166101c0880152908a01356101e087015289013561020086015250909150612d6990506020830186612c8e565b60408201939093526060015292915050565b6000808335601e19843603018112612d9257600080fd5b83018035915067ffffffffffffffff821115612dad57600080fd5b6020019150600581901b3603821315612c3e57600080fd5b634e487b7160e01b600052604160045260246000fd5b634e487b7160e01b600052601160045260246000fd5b808202811582820484141761106f5761106f612ddb565b6000813561106f816129d3565b67ffffffffffffffff831115612e2d57612e2d612dc5565b68010000000000000000831115612e4657612e46612dc5565b805483825580841015612e7d576000828152602081208581019083015b80821015612e7957828255600182019150612e63565b5050505b5060008181526020812083915b85811015612eae57612e9b83612e08565b8282015560209290920191600101612e8a565b505050505050565b813581556020820135600182015560408201356002820155606082013560038201556080820135600482015560a0820135600582015560c0820135600682015560e082013560078201556101008201356008820155612f19610120830183612d7b565b612f27818360098601612e15565b5050612f5d612f396101408401612e08565b600a830180546001600160a01b0319166001600160a01b0392909216919091179055565b610160820135600b820155610180820135600c8201555050565b634e487b7160e01b600052603260045260246000fd5b600060018201612f9f57612f9f612ddb565b5060010190565b8082018082111561106f5761106f612ddb565b8181038181111561106f5761106f612ddb565b6001600160a01b03929092168252602082015260400190565b60008261300257634e487b7160e01b600052601260045260246000fd5b500490565b6000602080838503121561301a57600080fd5b825167ffffffffffffffff8082111561303257600080fd5b818501915085601f83011261304657600080fd5b81518181111561305857613058612dc5565b8060051b604051601f19603f8301168101818110858211171561307d5761307d612dc5565b60405291825284820192508381018501918883111561309b57600080fd5b938501935b828510156130c0576130b185612b1a565b845293850193928501926130a0565b98975050505050505050565b600082516130de818460208701612b64565b919091019291505056fea2646970667358221220bfd1620962fc847c382da1fe00befceda861085f613c9efbd9aa75e8c32070ef64736f6c63430008110033",
  "linkReferences": {},
  "deployedLinkReferences": {}
}