{
  "_format": "hh-sol-artifact-1",
  "contractName": "Token",
  "sourceName": "contracts/Token.sol",
  "abi": [
    {
      "inputs": [],
      "stateMutability": "nonpayable",
      "type": "constructor"
    },
    {
      "anonymous": false,
      "inputs": [
        {
          "indexed": true,
          "internalType": "address",
          "name": "owner",
          "type": "address"
        },
        {
          "indexed": true,
          "internalType": "address",
          "name": "spender",
          "type": "address"
        },
        {
          "indexed": false,
          "internalType": "uint256",
          "name": "value",
          "type": "uint256"
        }
      ],
      "name": "Approval",
      "type": "event"
    },
    {
      "anonymous": false,
      "inputs": [
        {
          "indexed": false,
          "internalType": "uint8",
          "name": "version",
          "type": "uint8"
        }
      ],
      "name": "Initialized",
      "type": "event"
    },
    {
      "anonymous": false,
      "inputs": [
        {
          "indexed": true,
          "internalType": "address",
          "name": "previousOwner",
          "type": "address"
        },
        {
          "indexed": true,
          "internalType": "address",
          "name": "newOwner",
          "type": "address"
        }
      ],
      "name": "OwnershipTransferred",
      "type": "event"
    },
    {
      "anonymous": false,
      "inputs": [
        {
          "indexed": true,
          "internalType": "address",
          "name": "from",
          "type": "address"
        },
        {
          "indexed": true,
          "internalType": "address",
          "name": "to",
          "type": "address"
        },
        {
          "indexed": false,
          "internalType": "uint256",
          "name": "value",
          "type": "uint256"
        }
      ],
      "name": "Transfer",
      "type": "event"
    },
    {
      "inputs": [
        {
          "internalType": "address",
          "name": "tge_",
          "type": "address"
        }
      ],
      "name": "addTGE",
      "outputs": [],
      "stateMutability": "nonpayable",
      "type": "function"
    },
    {
      "inputs": [
        {
          "internalType": "address",
          "name": "owner",
          "type": "address"
        },
        {
          "internalType": "address",
          "name": "spender",
          "type": "address"
        }
      ],
      "name": "allowance",
      "outputs": [
        {
          "internalType": "uint256",
          "name": "",
          "type": "uint256"
        }
      ],
      "stateMutability": "view",
      "type": "function"
    },
    {
      "inputs": [
        {
          "internalType": "address",
          "name": "spender",
          "type": "address"
        },
        {
          "internalType": "uint256",
          "name": "amount",
          "type": "uint256"
        }
      ],
      "name": "approve",
      "outputs": [
        {
          "internalType": "bool",
          "name": "",
          "type": "bool"
        }
      ],
      "stateMutability": "nonpayable",
      "type": "function"
    },
    {
      "inputs": [
        {
          "internalType": "address",
          "name": "account",
          "type": "address"
        }
      ],
      "name": "balanceOf",
      "outputs": [
        {
          "internalType": "uint256",
          "name": "",
          "type": "uint256"
        }
      ],
      "stateMutability": "view",
      "type": "function"
    },
    {
      "inputs": [
        {
          "internalType": "address",
          "name": "from",
          "type": "address"
        },
        {
          "internalType": "uint256",
          "name": "amount",
          "type": "uint256"
        }
      ],
      "name": "burn",
      "outputs": [],
      "stateMutability": "nonpayable",
      "type": "function"
    },
    {
      "inputs": [],
      "name": "cap",
      "outputs": [
        {
          "internalType": "uint256",
          "name": "",
          "type": "uint256"
        }
      ],
      "stateMutability": "view",
      "type": "function"
    },
    {
      "inputs": [
        {
          "internalType": "address",
          "name": "wallet",
          "type": "address"
        },
        {
          "internalType": "enum IToken.TokenType",
          "name": "tokenType_",
          "type": "uint8"
        }
      ],
      "name": "containsTGE",
      "outputs": [
        {
          "internalType": "bool",
          "name": "",
          "type": "bool"
        }
      ],
      "stateMutability": "view",
      "type": "function"
    },
    {
      "inputs": [],
      "name": "decimals",
      "outputs": [
        {
          "internalType": "uint8",
          "name": "",
          "type": "uint8"
        }
      ],
      "stateMutability": "pure",
      "type": "function"
    },
    {
      "inputs": [
        {
          "internalType": "address",
          "name": "spender",
          "type": "address"
        },
        {
          "internalType": "uint256",
          "name": "subtractedValue",
          "type": "uint256"
        }
      ],
      "name": "decreaseAllowance",
      "outputs": [
        {
          "internalType": "bool",
          "name": "",
          "type": "bool"
        }
      ],
      "stateMutability": "nonpayable",
      "type": "function"
    },
    {
      "inputs": [],
      "name": "description",
      "outputs": [
        {
          "internalType": "string",
          "name": "",
          "type": "string"
        }
      ],
      "stateMutability": "view",
      "type": "function"
    },
    {
      "inputs": [
        {
          "internalType": "address",
          "name": "account",
          "type": "address"
        },
        {
          "internalType": "uint256",
          "name": "proposalId",
          "type": "uint256"
        }
      ],
      "name": "getLockedInProposal",
      "outputs": [
        {
          "components": [
            {
              "internalType": "uint256",
              "name": "amount",
              "type": "uint256"
            },
            {
              "internalType": "uint256",
              "name": "deadline",
              "type": "uint256"
            }
          ],
          "internalType": "struct Token.LockedBalance",
          "name": "",
          "type": "tuple"
        }
      ],
      "stateMutability": "view",
      "type": "function"
    },
    {
      "inputs": [],
      "name": "getTGEList",
      "outputs": [
        {
          "internalType": "address[]",
          "name": "",
          "type": "address[]"
        }
      ],
      "stateMutability": "view",
      "type": "function"
    },
    {
      "inputs": [],
      "name": "getTotalTGEVestedTokens",
      "outputs": [
        {
          "internalType": "uint256",
          "name": "",
          "type": "uint256"
        }
      ],
      "stateMutability": "view",
      "type": "function"
    },
    {
      "inputs": [
        {
          "internalType": "address",
          "name": "spender",
          "type": "address"
        },
        {
          "internalType": "uint256",
          "name": "addedValue",
          "type": "uint256"
        }
      ],
      "name": "increaseAllowance",
      "outputs": [
        {
          "internalType": "bool",
          "name": "",
          "type": "bool"
        }
      ],
      "stateMutability": "nonpayable",
      "type": "function"
    },
    {
      "inputs": [
        {
          "internalType": "address",
          "name": "pool_",
          "type": "address"
        },
        {
          "internalType": "string",
          "name": "symbol_",
          "type": "string"
        },
        {
          "internalType": "uint256",
          "name": "cap_",
          "type": "uint256"
        },
        {
          "internalType": "enum IToken.TokenType",
          "name": "tokenType_",
          "type": "uint8"
        },
        {
          "internalType": "address",
          "name": "primaryTGE_",
          "type": "address"
        },
        {
          "internalType": "string",
          "name": "description_",
          "type": "string"
        }
      ],
      "name": "initialize",
      "outputs": [],
      "stateMutability": "nonpayable",
      "type": "function"
    },
    {
      "inputs": [],
      "name": "isPrimaryTGESuccessful",
      "outputs": [
        {
          "internalType": "bool",
          "name": "",
          "type": "bool"
        }
      ],
      "stateMutability": "view",
      "type": "function"
    },
    {
      "inputs": [],
      "name": "lastTGE",
      "outputs": [
        {
          "internalType": "address",
          "name": "",
          "type": "address"
        }
      ],
      "stateMutability": "view",
      "type": "function"
    },
    {
      "inputs": [
        {
          "internalType": "address",
          "name": "account",
          "type": "address"
        },
        {
          "internalType": "uint256",
          "name": "amount",
          "type": "uint256"
        },
        {
          "internalType": "uint256",
          "name": "deadline",
          "type": "uint256"
        },
        {
          "internalType": "uint256",
          "name": "proposalId",
          "type": "uint256"
        }
      ],
      "name": "lock",
      "outputs": [],
      "stateMutability": "nonpayable",
      "type": "function"
    },
    {
      "inputs": [
        {
          "internalType": "address",
          "name": "account",
          "type": "address"
        },
        {
          "internalType": "uint256",
          "name": "proposalId",
          "type": "uint256"
        }
      ],
      "name": "lockedBalanceOf",
      "outputs": [
        {
          "internalType": "uint256",
          "name": "",
          "type": "uint256"
        }
      ],
      "stateMutability": "view",
      "type": "function"
    },
    {
      "inputs": [
        {
          "internalType": "address",
          "name": "user",
          "type": "address"
        }
      ],
      "name": "minUnlockedBalanceOf",
      "outputs": [
        {
          "internalType": "uint256",
          "name": "",
          "type": "uint256"
        }
      ],
      "stateMutability": "view",
      "type": "function"
    },
    {
      "inputs": [
        {
          "internalType": "address",
          "name": "to",
          "type": "address"
        },
        {
          "internalType": "uint256",
          "name": "amount",
          "type": "uint256"
        }
      ],
      "name": "mint",
      "outputs": [],
      "stateMutability": "nonpayable",
      "type": "function"
    },
    {
      "inputs": [],
      "name": "name",
      "outputs": [
        {
          "internalType": "string",
          "name": "",
          "type": "string"
        }
      ],
      "stateMutability": "view",
      "type": "function"
    },
    {
      "inputs": [],
      "name": "owner",
      "outputs": [
        {
          "internalType": "address",
          "name": "",
          "type": "address"
        }
      ],
      "stateMutability": "view",
      "type": "function"
    },
    {
      "inputs": [],
      "name": "pool",
      "outputs": [
        {
          "internalType": "address",
          "name": "",
          "type": "address"
        }
      ],
      "stateMutability": "view",
      "type": "function"
    },
    {
      "inputs": [],
      "name": "renounceOwnership",
      "outputs": [],
      "stateMutability": "nonpayable",
      "type": "function"
    },
    {
      "inputs": [],
      "name": "service",
      "outputs": [
        {
          "internalType": "contract IService",
          "name": "",
          "type": "address"
        }
      ],
      "stateMutability": "view",
      "type": "function"
    },
    {
      "inputs": [],
      "name": "symbol",
      "outputs": [
        {
          "internalType": "string",
          "name": "",
          "type": "string"
        }
      ],
      "stateMutability": "view",
      "type": "function"
    },
    {
      "inputs": [],
      "name": "test83122",
      "outputs": [
        {
          "internalType": "uint256",
          "name": "",
          "type": "uint256"
        }
      ],
      "stateMutability": "pure",
      "type": "function"
    },
    {
      "inputs": [],
      "name": "tokenType",
      "outputs": [
        {
          "internalType": "enum IToken.TokenType",
          "name": "",
          "type": "uint8"
        }
      ],
      "stateMutability": "view",
      "type": "function"
    },
    {
      "inputs": [],
      "name": "totalSupply",
      "outputs": [
        {
          "internalType": "uint256",
          "name": "",
          "type": "uint256"
        }
      ],
      "stateMutability": "view",
      "type": "function"
    },
    {
      "inputs": [
        {
          "internalType": "address",
          "name": "to",
          "type": "address"
        },
        {
          "internalType": "uint256",
          "name": "amount",
          "type": "uint256"
        }
      ],
      "name": "transfer",
      "outputs": [
        {
          "internalType": "bool",
          "name": "",
          "type": "bool"
        }
      ],
      "stateMutability": "nonpayable",
      "type": "function"
    },
    {
      "inputs": [
        {
          "internalType": "address",
          "name": "from",
          "type": "address"
        },
        {
          "internalType": "address",
          "name": "to",
          "type": "address"
        },
        {
          "internalType": "uint256",
          "name": "amount",
          "type": "uint256"
        }
      ],
      "name": "transferFrom",
      "outputs": [
        {
          "internalType": "bool",
          "name": "",
          "type": "bool"
        }
      ],
      "stateMutability": "nonpayable",
      "type": "function"
    },
    {
      "inputs": [
        {
          "internalType": "address",
          "name": "newOwner",
          "type": "address"
        }
      ],
      "name": "transferOwnership",
      "outputs": [],
      "stateMutability": "nonpayable",
      "type": "function"
    },
    {
      "inputs": [
        {
          "internalType": "address",
          "name": "account",
          "type": "address"
        },
        {
          "internalType": "uint256",
          "name": "proposalId",
          "type": "uint256"
        }
      ],
      "name": "unlockedBalanceOf",
      "outputs": [
        {
          "internalType": "uint256",
          "name": "",
          "type": "uint256"
        }
      ],
      "stateMutability": "view",
      "type": "function"
    }
  ],
  "bytecode": "0x60806040523480156200001157600080fd5b506200001c62000022565b620000e4565b600054610100900460ff16156200008f5760405162461bcd60e51b815260206004820152602760248201527f496e697469616c697a61626c653a20636f6e747261637420697320696e697469604482015266616c697a696e6760c81b606482015260840160405180910390fd5b60005460ff9081161015620000e2576000805460ff191660ff9081179091556040519081527f7f26b83ff96e1f2b6a682f133852f6798a09c465da95921460cefb38474024989060200160405180910390a15b565b612a3080620000f46000396000f3fe608060405234801561001057600080fd5b50600436106102055760003560e01c806370a082311161011a578063a457c2d7116100ad578063d04d79b51161007c578063d04d79b5146104a4578063d554934b146104ac578063d598d4c9146104b4578063dd62ed3e146104c7578063f2fde38b146104da57600080fd5b8063a457c2d714610458578063a9059cbb1461046b578063c63ee3151461047e578063c97be1801461049157600080fd5b80638ef4c807116100e95780638ef4c8071461042357806395d89b411461043657806398e05aa61461043e5780639dc29fac1461044557600080fd5b806370a08231146103d9578063715018a6146104025780637284e4161461040a5780638da5cb5b1461041257600080fd5b8063313ce5671161019d57806340c10f191161016c57806340c10f1914610378578063468b3b331461038d5780635046f8b8146103a057806363fbe11d146103b357806367867c35146103c657600080fd5b8063313ce56714610346578063355274ea14610355578063395093511461035d5780633eac99981461037057600080fd5b806316f0115b116101d957806316f0115b146102d557806318160ddd1461030057806323b872dd1461031257806330fa738c1461032557600080fd5b80620a04ae1461020a57806306fdde0314610228578063095ea7b31461023d57806313a3d35714610260575b600080fd5b6102126104ed565b60405161021f9190612277565b60405180910390f35b61023061054f565b60405161021f91906122e8565b61025061024b366004612330565b6105d8565b604051901515815260200161021f565b6102ba61026e366004612330565b604080518082018252600080825260209182018190526001600160a01b0394909416845260ce815281842092845291825291829020825180840190935280548352600101549082015290565b6040805182518152602092830151928101929092520161021f565b60cb546102e8906001600160a01b031681565b6040516001600160a01b03909116815260200161021f565b6067545b60405190815260200161021f565b61025061032036600461235c565b6105f2565b60cb5461033990600160a01b900460ff1681565b60405161021f91906123b3565b6040516012815260200161021f565b610304610616565b61025061036b366004612330565b610626565b6102e8610648565b61038b610386366004612330565b610686565b005b61030461039b366004612330565b6107c4565b61038b6103ae3660046123db565b6107fa565b6103046103c13660046123db565b61089b565b6102506103d4366004612405565b61096f565b6103046103e73660046123db565b6001600160a01b031660009081526065602052604090205490565b61038b610ab1565b610230610ac5565b6033546001600160a01b03166102e8565b610304610431366004612330565b610b53565b610230610bb2565b6003610304565b61038b610453366004612330565b610bbc565b610250610466366004612330565b610e1b565b610250610479366004612330565b610e96565b61038b61048c366004612503565b610ea4565b61038b61049f3660046125ab565b61125c565b610250611306565b6103046113a7565b60ca546102e8906001600160a01b031681565b6103046104d53660046125e6565b611548565b61038b6104e83660046123db565b611573565b606060cd80548060200260200160405190810160405280929190818152602001828054801561054557602002820191906000526020600020905b81546001600160a01b03168152600190910190602001808311610527575b5050505050905090565b60606068805461055e90612614565b80601f016020809104026020016040519081016040528092919081815260200182805461058a90612614565b80156105455780601f106105ac57610100808354040283529160200191610545565b820191906000526020600020905b8154815290600101906020018083116105ba57509395945050505050565b6000336105e68185856115ec565b60019150505b92915050565b600033610600858285611710565b61060b85858561178a565b506001949350505050565b600061062160975490565b905090565b6000336105e68185856106398383611548565b6106439190612664565b6115ec565b60cd80546000919061065c90600190612677565b8154811061066c5761066c61268a565b6000918252602090912001546001600160a01b0316919050565b60ca546040805163cb7e905760e01b815290516004926001600160a01b03169163cb7e9057918185019160209190819003860181865afa1580156106ce573d6000803e3d6000fd5b505050506040513d601f19601f820116820180604052508101906106f291906126a0565b604051630db9619f60e31b81523360048201526001600160a01b039190911690636dcb0cf890602401602060405180830381865afa158015610738573d6000803e3d6000fd5b505050506040513d601f19601f8201168201806040525081019061075c91906126bd565b600481111561076d5761076d61239d565b14604051806040016040528060078152602001664e4f545f54474560c81b815250906107b55760405162461bcd60e51b81526004016107ac91906122e8565b60405180910390fd5b506107c08282611c34565b5050565b60006107d08383610b53565b6001600160a01b0384166000908152606560205260409020546107f39190612677565b9392505050565b60ca5460408051808201909152600b81526a4e4f545f5345525649434560a81b6020820152906001600160a01b031633146108485760405162461bcd60e51b81526004016107ac91906122e8565b5060cd80546001810182556000919091527f83978b4c69c48dd978ab43fe30f077615294f938fb7f936d9eb340e51ea7db2e0180546001600160a01b0319166001600160a01b0392909216919091179055565b6001600160a01b038116600090815260656020526040812054600060cb60009054906101000a90046001600160a01b03166001600160a01b031663958b138e6040518163ffffffff1660e01b8152600401602060405180830381865afa158015610909573d6000803e3d6000fd5b505050506040513d601f19601f8201168201806040525081019061092d91906126de565b905060005b81811161096657600061094586836107c4565b905083811015610953578093505b508061095e816126f7565b915050610932565b50909392505050565b60cb5460405163442b606b60e11b815260009182916001600160a01b0390911690638856c0d6906109a49086906004016123b3565b602060405180830381865afa1580156109c1573d6000803e3d6000fd5b505050506040513d601f19601f820116820180604052508101906109e591906126a0565b6001600160a01b0316620a04ae6040518163ffffffff1660e01b8152600401600060405180830381865afa158015610a21573d6000803e3d6000fd5b505050506040513d6000823e601f3d908101601f19168201604052610a499190810190612710565b905060005b8151811015610aa657818181518110610a6957610a6961268a565b60200260200101516001600160a01b0316856001600160a01b031603610a94576001925050506105ec565b80610a9e816126f7565b915050610a4e565b506000949350505050565b610ab9611ca8565b610ac36000611d02565b565b60cc8054610ad290612614565b80601f0160208091040260200160405190810160405280929190818152602001828054610afe90612614565b8015610b4b5780601f10610b2057610100808354040283529160200191610b4b565b820191906000526020600020905b815481529060010190602001808311610b2e57829003601f168201915b505050505081565b6001600160a01b038216600090815260ce602090815260408083208484529091528120600101544310610b88575060006105ec565b506001600160a01b038216600090815260ce602090815260408083208484529091529020546105ec565b6060610621611d54565b60cb60009054906101000a90046001600160a01b03166001600160a01b0316635c975abb6040518163ffffffff1660e01b8152600401602060405180830381865afa158015610c0f573d6000803e3d6000fd5b505050506040513d601f19601f82011682018060405250810190610c3391906127c2565b156040518060400160405280600e81526020016d14d154959250d157d4105554d15160921b81525090610c795760405162461bcd60e51b81526004016107ac91906122e8565b5060ca546040805163cb7e905760e01b815290516004926001600160a01b03169163cb7e9057918185019160209190819003860181865afa158015610cc2573d6000803e3d6000fd5b505050506040513d601f19601f82011682018060405250810190610ce691906126a0565b604051630db9619f60e31b81523360048201526001600160a01b039190911690636dcb0cf890602401602060405180830381865afa158015610d2c573d6000803e3d6000fd5b505050506040513d601f19601f82011682018060405250810190610d5091906126bd565b6004811115610d6157610d6161239d565b1480610d755750336001600160a01b038316145b6040518060400160405280600c81526020016b24a72b20a624a22faaa9a2a960a11b81525090610db85760405162461bcd60e51b81526004016107ac91906122e8565b50610dc28261089b565b811115604051806040016040528060148152602001734c4f575f554e4c4f434b45445f42414c414e434560601b81525090610e105760405162461bcd60e51b81526004016107ac91906122e8565b506107c08282611d63565b60003381610e298286611548565b905083811015610e895760405162461bcd60e51b815260206004820152602560248201527f45524332303a2064656372656173656420616c6c6f77616e63652062656c6f77604482015264207a65726f60d81b60648201526084016107ac565b61060b82868684036115ec565b6000336105e681858561178a565b600054610100900460ff1615808015610ec45750600054600160ff909116105b80610ede5750303b158015610ede575060005460ff166001145b610f415760405162461bcd60e51b815260206004820152602e60248201527f496e697469616c697a61626c653a20636f6e747261637420697320616c72656160448201526d191e481a5b9a5d1a585b1a5e995960921b60648201526084016107ac565b6000805460ff191660011790558015610f64576000805461ff0019166101001790555b610f6d85611e97565b610f75611ec7565b6002846002811115610f8957610f8961239d565b03611100576110ee876001600160a01b031663165610766040518163ffffffff1660e01b8152600401600060405180830381865afa158015610fcf573d6000803e3d6000fd5b505050506040513d6000823e601f3d908101601f19168201604052610ff791908101906127e4565b60405163442b606b60e11b81526001600160a01b038a1690638856c0d690611024906001906004016123b3565b602060405180830381865afa158015611041573d6000803e3d6000fd5b505050506040513d601f19601f8201168201806040525081019061106591906126a0565b6001600160a01b03166395d89b416040518163ffffffff1660e01b8152600401600060405180830381865afa1580156110a2573d6000803e3d6000fd5b505050506040513d6000823e601f3d908101601f191682016040526110ca91908101906127e4565b6040516020016110da919061285b565b604051602081830303815290604052611ef6565b60cc6110fa83826128d2565b5061116f565b61116f876001600160a01b031663165610766040518163ffffffff1660e01b8152600401600060405180830381865afa158015611141573d6000803e3d6000fd5b505050506040513d6000823e601f3d908101601f1916820160405261116991908101906127e4565b87611ef6565b60cd80546001810182556000919091527f83978b4c69c48dd978ab43fe30f077615294f938fb7f936d9eb340e51ea7db2e0180546001600160a01b0319166001600160a01b03851617905560cb805485919060ff60a01b1916600160a01b8360028111156111df576111df61239d565b021790555060ca8054336001600160a01b03199182161790915560cb80549091166001600160a01b0389161790558015611253576000805461ff0019169055604051600181527f7f26b83ff96e1f2b6a682f133852f6798a09c465da95921460cefb38474024989060200160405180910390a15b50505050505050565b60cb546040805180820190915260088152671393d517d413d3d360c21b6020820152906001600160a01b031633146112a75760405162461bcd60e51b81526004016107ac91906122e8565b506040518060400160405280846112be8785610b53565b6112c89190612664565b81526020908101939093526001600160a01b03909416600090815260ce83526040808220928252918352208351815592015160019092019190915550565b6000600260cd60008154811061131e5761131e61268a565b600091825260209182902001546040805163c19d93fb60e01b815290516001600160a01b039092169263c19d93fb926004808401938290030181865afa15801561136c573d6000803e3d6000fd5b505050506040513d601f19601f820116820180604052508101906113909190612992565b60028111156113a1576113a161239d565b14905090565b60008060cd80548060200260200160405190810160405280929190818152602001828054801561140057602002820191906000526020600020905b81546001600160a01b031681526001909101906020018083116113e2575b505050505090506000805b82518110156115415760018382815181106114285761142861268a565b60200260200101516001600160a01b031663c19d93fb6040518163ffffffff1660e01b8152600401602060405180830381865afa15801561146d573d6000803e3d6000fd5b505050506040513d601f19601f820116820180604052508101906114919190612992565b60028111156114a2576114a261239d565b1461152f578281815181106114b9576114b961268a565b60200260200101516001600160a01b031663c243ce746040518163ffffffff1660e01b8152600401602060405180830381865afa1580156114fe573d6000803e3d6000fd5b505050506040513d601f19601f8201168201806040525081019061152291906126de565b61152c9083612664565b91505b80611539816126f7565b91505061140b565b5092915050565b6001600160a01b03918216600090815260666020908152604080832093909416825291909152205490565b61157b611ca8565b6001600160a01b0381166115e05760405162461bcd60e51b815260206004820152602660248201527f4f776e61626c653a206e6577206f776e657220697320746865207a65726f206160448201526564647265737360d01b60648201526084016107ac565b6115e981611d02565b50565b6001600160a01b03831661164e5760405162461bcd60e51b8152602060048201526024808201527f45524332303a20617070726f76652066726f6d20746865207a65726f206164646044820152637265737360e01b60648201526084016107ac565b6001600160a01b0382166116af5760405162461bcd60e51b815260206004820152602260248201527f45524332303a20617070726f766520746f20746865207a65726f206164647265604482015261737360f01b60648201526084016107ac565b6001600160a01b0383811660008181526066602090815260408083209487168084529482529182902085905590518481527f8c5be1e5ebec7d5bd14f71427d1e84f3dd0314c0f7b2291e5b200ac8c7c3b925910160405180910390a3505050565b600061171c8484611548565b9050600019811461178457818110156117775760405162461bcd60e51b815260206004820152601d60248201527f45524332303a20696e73756666696369656e7420616c6c6f77616e636500000060448201526064016107ac565b61178484848484036115ec565b50505050565b60cb60009054906101000a90046001600160a01b03166001600160a01b0316635c975abb6040518163ffffffff1660e01b8152600401602060405180830381865afa1580156117dd573d6000803e3d6000fd5b505050506040513d601f19601f8201168201806040525081019061180191906127c2565b156040518060400160405280600e81526020016d14d154959250d157d4105554d15160921b815250906118475760405162461bcd60e51b81526004016107ac91906122e8565b50600160cb54600160a01b900460ff1660028111156118685761186861239d565b036118cc5760006118788461089b565b905080821115604051806040016040528060148152602001734c4f575f554e4c4f434b45445f42414c414e434560601b815250906118c95760405162461bcd60e51b81526004016107ac91906122e8565b50505b600260cb54600160a01b900460ff1660028111156118ec576118ec61239d565b03611c2457600060cd80548060200260200160405190810160405280929190818152602001828054801561194957602002820191906000526020600020905b81546001600160a01b0316815260019091019060200180831161192b575b505050505090506000611971336001600160a01b031660009081526065602052604090205490565b60ca549091506001600160a01b038681169116148061199d575060ca546001600160a01b038581169116145b806119b5575060cb546001600160a01b038681169116145b806119cd575060cb546001600160a01b038581169116145b806119de57506119de85600161096f565b806119ef57506119ef84600161096f565b80611a005750611a0085600261096f565b80611a115750611a1184600261096f565b611c215760005b8251811015611bd957828181518110611a3357611a3361268a565b60200260200101516001600160a01b031663df60fa406040518163ffffffff1660e01b8152600401602060405180830381865afa158015611a78573d6000803e3d6000fd5b505050506040513d601f19601f82011682018060405250810190611a9c91906127c2565b611bc757828181518110611ab257611ab261268a565b60209081029190910101516040516317effd8160e31b81526001600160a01b0388811660048301529091169063bf7fec0890602401602060405180830381865afa158015611b04573d6000803e3d6000fd5b505050506040513d601f19601f82011682018060405250810190611b2891906126de565b838281518110611b3a57611b3a61268a565b60209081029190910101516040516307168d1560e11b81526001600160a01b03898116600483015290911690630e2d1a2a90602401602060405180830381865afa158015611b8c573d6000803e3d6000fd5b505050506040513d601f19601f82011682018060405250810190611bb091906126de565b611bba9190612677565b611bc49083612664565b91505b80611bd1816126f7565b915050611a18565b5060408051808201909152600d81526c494e56414c49445f56414c554560981b602082015281841115611c1f5760405162461bcd60e51b81526004016107ac91906122e8565b505b50505b611c2f838383611f27565b505050565b611c3c610616565b81611c4660675490565b611c509190612664565b1115611c9e5760405162461bcd60e51b815260206004820152601960248201527f45524332304361707065643a206361702065786365656465640000000000000060448201526064016107ac565b6107c082826120d2565b6033546001600160a01b03163314610ac35760405162461bcd60e51b815260206004820181905260248201527f4f776e61626c653a2063616c6c6572206973206e6f7420746865206f776e657260448201526064016107ac565b603380546001600160a01b038381166001600160a01b0319831681179093556040519116919082907f8be0079c531659141344cd1fd0a4f28419497f9722a3daafe3b4186f6b6457e090600090a35050565b60606069805461055e90612614565b6001600160a01b038216611dc35760405162461bcd60e51b815260206004820152602160248201527f45524332303a206275726e2066726f6d20746865207a65726f206164647265736044820152607360f81b60648201526084016107ac565b6001600160a01b03821660009081526065602052604090205481811015611e375760405162461bcd60e51b815260206004820152602260248201527f45524332303a206275726e20616d6f756e7420657863656564732062616c616e604482015261636560f01b60648201526084016107ac565b6001600160a01b03831660008181526065602090815260408083208686039055606780548790039055518581529192917fddf252ad1be2c89b69c2b068fc378daa952ba7f163c4a11628f55a4df523b3ef910160405180910390a3505050565b600054610100900460ff16611ebe5760405162461bcd60e51b81526004016107ac906129af565b6115e981612193565b600054610100900460ff16611eee5760405162461bcd60e51b81526004016107ac906129af565b610ac3612207565b600054610100900460ff16611f1d5760405162461bcd60e51b81526004016107ac906129af565b6107c08282612237565b6001600160a01b038316611f8b5760405162461bcd60e51b815260206004820152602560248201527f45524332303a207472616e736665722066726f6d20746865207a65726f206164604482015264647265737360d81b60648201526084016107ac565b6001600160a01b038216611fed5760405162461bcd60e51b815260206004820152602360248201527f45524332303a207472616e7366657220746f20746865207a65726f206164647260448201526265737360e81b60648201526084016107ac565b6001600160a01b038316600090815260656020526040902054818110156120655760405162461bcd60e51b815260206004820152602660248201527f45524332303a207472616e7366657220616d6f756e7420657863656564732062604482015265616c616e636560d01b60648201526084016107ac565b6001600160a01b0380851660008181526065602052604080822086860390559286168082529083902080548601905591517fddf252ad1be2c89b69c2b068fc378daa952ba7f163c4a11628f55a4df523b3ef906120c59086815260200190565b60405180910390a3611784565b6001600160a01b0382166121285760405162461bcd60e51b815260206004820152601f60248201527f45524332303a206d696e7420746f20746865207a65726f20616464726573730060448201526064016107ac565b806067600082825461213a9190612664565b90915550506001600160a01b0382166000818152606560209081526040808320805486019055518481527fddf252ad1be2c89b69c2b068fc378daa952ba7f163c4a11628f55a4df523b3ef910160405180910390a35050565b600054610100900460ff166121ba5760405162461bcd60e51b81526004016107ac906129af565b600081116122025760405162461bcd60e51b8152602060048201526015602482015274045524332304361707065643a20636170206973203605c1b60448201526064016107ac565b609755565b600054610100900460ff1661222e5760405162461bcd60e51b81526004016107ac906129af565b610ac333611d02565b600054610100900460ff1661225e5760405162461bcd60e51b81526004016107ac906129af565b606861226a83826128d2565b506069611c2f82826128d2565b6020808252825182820181905260009190848201906040850190845b818110156122b85783516001600160a01b031683529284019291840191600101612293565b50909695505050505050565b60005b838110156122df5781810151838201526020016122c7565b50506000910152565b60208152600082518060208401526123078160408501602087016122c4565b601f01601f19169190910160400192915050565b6001600160a01b03811681146115e957600080fd5b6000806040838503121561234357600080fd5b823561234e8161231b565b946020939093013593505050565b60008060006060848603121561237157600080fd5b833561237c8161231b565b9250602084013561238c8161231b565b929592945050506040919091013590565b634e487b7160e01b600052602160045260246000fd5b60208101600383106123d557634e487b7160e01b600052602160045260246000fd5b91905290565b6000602082840312156123ed57600080fd5b81356107f38161231b565b600381106115e957600080fd5b6000806040838503121561241857600080fd5b82356124238161231b565b91506020830135612433816123f8565b809150509250929050565b634e487b7160e01b600052604160045260246000fd5b604051601f8201601f1916810167ffffffffffffffff8111828210171561247d5761247d61243e565b604052919050565b600067ffffffffffffffff82111561249f5761249f61243e565b50601f01601f191660200190565b600082601f8301126124be57600080fd5b81356124d16124cc82612485565b612454565b8181528460208386010111156124e657600080fd5b816020850160208301376000918101602001919091529392505050565b60008060008060008060c0878903121561251c57600080fd5b86356125278161231b565b9550602087013567ffffffffffffffff8082111561254457600080fd5b6125508a838b016124ad565b96506040890135955060608901359150612569826123f8565b90935060808801359061257b8261231b565b90925060a0880135908082111561259157600080fd5b5061259e89828a016124ad565b9150509295509295509295565b600080600080608085870312156125c157600080fd5b84356125cc8161231b565b966020860135965060408601359560600135945092505050565b600080604083850312156125f957600080fd5b82356126048161231b565b915060208301356124338161231b565b600181811c9082168061262857607f821691505b60208210810361264857634e487b7160e01b600052602260045260246000fd5b50919050565b634e487b7160e01b600052601160045260246000fd5b808201808211156105ec576105ec61264e565b818103818111156105ec576105ec61264e565b634e487b7160e01b600052603260045260246000fd5b6000602082840312156126b257600080fd5b81516107f38161231b565b6000602082840312156126cf57600080fd5b8151600581106107f357600080fd5b6000602082840312156126f057600080fd5b5051919050565b6000600182016127095761270961264e565b5060010190565b6000602080838503121561272357600080fd5b825167ffffffffffffffff8082111561273b57600080fd5b818501915085601f83011261274f57600080fd5b8151818111156127615761276161243e565b8060051b9150612772848301612454565b818152918301840191848101908884111561278c57600080fd5b938501935b838510156127b657845192506127a68361231b565b8282529385019390850190612791565b98975050505050505050565b6000602082840312156127d457600080fd5b815180151581146107f357600080fd5b6000602082840312156127f657600080fd5b815167ffffffffffffffff81111561280d57600080fd5b8201601f8101841361281e57600080fd5b805161282c6124cc82612485565b81815285602083850101111561284157600080fd5b6128528260208301602086016122c4565b95945050505050565b600760fc1b8152600082516128778160018501602087016122c4565b9190910160010192915050565b601f821115611c2f57600081815260208120601f850160051c810160208610156128ab5750805b601f850160051c820191505b818110156128ca578281556001016128b7565b505050505050565b815167ffffffffffffffff8111156128ec576128ec61243e565b612900816128fa8454612614565b84612884565b602080601f831160018114612935576000841561291d5750858301515b600019600386901b1c1916600185901b1785556128ca565b600085815260208120601f198616915b8281101561296457888601518255948401946001909101908401612945565b50858210156129825787850151600019600388901b60f8161c191681555b5050505050600190811b01905550565b6000602082840312156129a457600080fd5b81516107f3816123f8565b6020808252602b908201527f496e697469616c697a61626c653a20636f6e7472616374206973206e6f74206960408201526a6e697469616c697a696e6760a81b60608201526080019056fea264697066735822122075b0cdc717957a4dfea4752fa3147b79edf20d24ee6ac933105c87e95458dbd464736f6c63430008110033",
  "linkReferences": {},
  "deployedLinkReferences": {}
}