{
  "_format": "hh-sol-artifact-1",
  "contractName": "Token",
  "sourceName": "contracts/Token.sol",
  "abi": [
    {
      "inputs": [],
      "stateMutability": "nonpayable",
      "type": "constructor"
    },
    {
      "anonymous": false,
      "inputs": [
        {
          "indexed": true,
          "internalType": "address",
          "name": "owner",
          "type": "address"
        },
        {
          "indexed": true,
          "internalType": "address",
          "name": "spender",
          "type": "address"
        },
        {
          "indexed": false,
          "internalType": "uint256",
          "name": "value",
          "type": "uint256"
        }
      ],
      "name": "Approval",
      "type": "event"
    },
    {
      "anonymous": false,
      "inputs": [
        {
          "indexed": false,
          "internalType": "uint8",
          "name": "version",
          "type": "uint8"
        }
      ],
      "name": "Initialized",
      "type": "event"
    },
    {
      "anonymous": false,
      "inputs": [
        {
          "indexed": true,
          "internalType": "address",
          "name": "previousOwner",
          "type": "address"
        },
        {
          "indexed": true,
          "internalType": "address",
          "name": "newOwner",
          "type": "address"
        }
      ],
      "name": "OwnershipTransferred",
      "type": "event"
    },
    {
      "anonymous": false,
      "inputs": [
        {
          "indexed": true,
          "internalType": "address",
          "name": "from",
          "type": "address"
        },
        {
          "indexed": true,
          "internalType": "address",
          "name": "to",
          "type": "address"
        },
        {
          "indexed": false,
          "internalType": "uint256",
          "name": "value",
          "type": "uint256"
        }
      ],
      "name": "Transfer",
      "type": "event"
    },
    {
      "inputs": [
        {
          "internalType": "address",
          "name": "owner",
          "type": "address"
        },
        {
          "internalType": "address",
          "name": "spender",
          "type": "address"
        }
      ],
      "name": "allowance",
      "outputs": [
        {
          "internalType": "uint256",
          "name": "",
          "type": "uint256"
        }
      ],
      "stateMutability": "view",
      "type": "function"
    },
    {
      "inputs": [
        {
          "internalType": "address",
          "name": "spender",
          "type": "address"
        },
        {
          "internalType": "uint256",
          "name": "amount",
          "type": "uint256"
        }
      ],
      "name": "approve",
      "outputs": [
        {
          "internalType": "bool",
          "name": "",
          "type": "bool"
        }
      ],
      "stateMutability": "nonpayable",
      "type": "function"
    },
    {
      "inputs": [
        {
          "internalType": "address",
          "name": "account",
          "type": "address"
        }
      ],
      "name": "balanceOf",
      "outputs": [
        {
          "internalType": "uint256",
          "name": "",
          "type": "uint256"
        }
      ],
      "stateMutability": "view",
      "type": "function"
    },
    {
      "inputs": [
        {
          "internalType": "address",
          "name": "from",
          "type": "address"
        },
        {
          "internalType": "uint256",
          "name": "amount",
          "type": "uint256"
        }
      ],
      "name": "burn",
      "outputs": [],
      "stateMutability": "nonpayable",
      "type": "function"
    },
    {
      "inputs": [],
      "name": "cap",
      "outputs": [
        {
          "internalType": "uint256",
          "name": "",
          "type": "uint256"
        }
      ],
      "stateMutability": "view",
      "type": "function"
    },
    {
      "inputs": [
        {
          "internalType": "address",
          "name": "wallet",
          "type": "address"
        }
      ],
      "name": "containsTGE",
      "outputs": [
        {
          "internalType": "bool",
          "name": "",
          "type": "bool"
        }
      ],
      "stateMutability": "view",
      "type": "function"
    },
    {
      "inputs": [],
      "name": "decimals",
      "outputs": [
        {
          "internalType": "uint8",
          "name": "",
          "type": "uint8"
        }
      ],
      "stateMutability": "pure",
      "type": "function"
    },
    {
      "inputs": [
        {
          "internalType": "address",
          "name": "spender",
          "type": "address"
        },
        {
          "internalType": "uint256",
          "name": "subtractedValue",
          "type": "uint256"
        }
      ],
      "name": "decreaseAllowance",
      "outputs": [
        {
          "internalType": "bool",
          "name": "",
          "type": "bool"
        }
      ],
      "stateMutability": "nonpayable",
      "type": "function"
    },
    {
      "inputs": [],
      "name": "description",
      "outputs": [
        {
          "internalType": "string",
          "name": "",
          "type": "string"
        }
      ],
      "stateMutability": "view",
      "type": "function"
    },
    {
      "inputs": [
        {
          "internalType": "address",
          "name": "account",
          "type": "address"
        },
        {
          "internalType": "uint256",
          "name": "proposalId",
          "type": "uint256"
        }
      ],
      "name": "getLockedInProposal",
      "outputs": [
        {
          "components": [
            {
              "internalType": "uint256",
              "name": "amount",
              "type": "uint256"
            },
            {
              "internalType": "uint256",
              "name": "deadline",
              "type": "uint256"
            }
          ],
          "internalType": "struct Token.LockedBalance",
          "name": "",
          "type": "tuple"
        }
      ],
      "stateMutability": "view",
      "type": "function"
    },
    {
      "inputs": [
        {
          "internalType": "address",
          "name": "spender",
          "type": "address"
        },
        {
          "internalType": "uint256",
          "name": "addedValue",
          "type": "uint256"
        }
      ],
      "name": "increaseAllowance",
      "outputs": [
        {
          "internalType": "bool",
          "name": "",
          "type": "bool"
        }
      ],
      "stateMutability": "nonpayable",
      "type": "function"
    },
    {
      "inputs": [
        {
          "internalType": "address",
          "name": "pool_",
          "type": "address"
        },
        {
          "internalType": "string",
          "name": "symbol_",
          "type": "string"
        },
        {
          "internalType": "uint256",
          "name": "cap_",
          "type": "uint256"
        },
        {
          "internalType": "enum IToken.TokenType",
          "name": "tokenType_",
          "type": "uint8"
        },
        {
          "internalType": "address",
          "name": "preferenceTGE_",
          "type": "address"
        },
        {
          "internalType": "string",
          "name": "description_",
          "type": "string"
        }
      ],
      "name": "initialize",
      "outputs": [],
      "stateMutability": "nonpayable",
      "type": "function"
    },
    {
      "inputs": [
        {
          "internalType": "address",
          "name": "account",
          "type": "address"
        },
        {
          "internalType": "uint256",
          "name": "amount",
          "type": "uint256"
        },
        {
          "internalType": "uint256",
          "name": "deadline",
          "type": "uint256"
        },
        {
          "internalType": "uint256",
          "name": "proposalId",
          "type": "uint256"
        }
      ],
      "name": "lock",
      "outputs": [],
      "stateMutability": "nonpayable",
      "type": "function"
    },
    {
      "inputs": [
        {
          "internalType": "address",
          "name": "account",
          "type": "address"
        },
        {
          "internalType": "uint256",
          "name": "proposalId",
          "type": "uint256"
        }
      ],
      "name": "lockedBalanceOf",
      "outputs": [
        {
          "internalType": "uint256",
          "name": "",
          "type": "uint256"
        }
      ],
      "stateMutability": "view",
      "type": "function"
    },
    {
      "inputs": [
        {
          "internalType": "address",
          "name": "user",
          "type": "address"
        }
      ],
      "name": "minUnlockedBalanceOf",
      "outputs": [
        {
          "internalType": "uint256",
          "name": "",
          "type": "uint256"
        }
      ],
      "stateMutability": "view",
      "type": "function"
    },
    {
      "inputs": [
        {
          "internalType": "address",
          "name": "to",
          "type": "address"
        },
        {
          "internalType": "uint256",
          "name": "amount",
          "type": "uint256"
        }
      ],
      "name": "mint",
      "outputs": [],
      "stateMutability": "nonpayable",
      "type": "function"
    },
    {
      "inputs": [],
      "name": "name",
      "outputs": [
        {
          "internalType": "string",
          "name": "",
          "type": "string"
        }
      ],
      "stateMutability": "view",
      "type": "function"
    },
    {
      "inputs": [],
      "name": "owner",
      "outputs": [
        {
          "internalType": "address",
          "name": "",
          "type": "address"
        }
      ],
      "stateMutability": "view",
      "type": "function"
    },
    {
      "inputs": [],
      "name": "pool",
      "outputs": [
        {
          "internalType": "address",
          "name": "",
          "type": "address"
        }
      ],
      "stateMutability": "view",
      "type": "function"
    },
    {
      "inputs": [],
      "name": "preferenceTGE",
      "outputs": [
        {
          "internalType": "address",
          "name": "",
          "type": "address"
        }
      ],
      "stateMutability": "view",
      "type": "function"
    },
    {
      "inputs": [],
      "name": "renounceOwnership",
      "outputs": [],
      "stateMutability": "nonpayable",
      "type": "function"
    },
    {
      "inputs": [],
      "name": "service",
      "outputs": [
        {
          "internalType": "contract IService",
          "name": "",
          "type": "address"
        }
      ],
      "stateMutability": "view",
      "type": "function"
    },
    {
      "inputs": [],
      "name": "symbol",
      "outputs": [
        {
          "internalType": "string",
          "name": "",
          "type": "string"
        }
      ],
      "stateMutability": "view",
      "type": "function"
    },
    {
      "inputs": [],
      "name": "test83122",
      "outputs": [
        {
          "internalType": "uint256",
          "name": "",
          "type": "uint256"
        }
      ],
      "stateMutability": "pure",
      "type": "function"
    },
    {
      "inputs": [],
      "name": "tokenType",
      "outputs": [
        {
          "internalType": "enum IToken.TokenType",
          "name": "",
          "type": "uint8"
        }
      ],
      "stateMutability": "view",
      "type": "function"
    },
    {
      "inputs": [],
      "name": "totalSupply",
      "outputs": [
        {
          "internalType": "uint256",
          "name": "",
          "type": "uint256"
        }
      ],
      "stateMutability": "view",
      "type": "function"
    },
    {
      "inputs": [
        {
          "internalType": "address",
          "name": "to",
          "type": "address"
        },
        {
          "internalType": "uint256",
          "name": "amount",
          "type": "uint256"
        }
      ],
      "name": "transfer",
      "outputs": [
        {
          "internalType": "bool",
          "name": "",
          "type": "bool"
        }
      ],
      "stateMutability": "nonpayable",
      "type": "function"
    },
    {
      "inputs": [
        {
          "internalType": "address",
          "name": "from",
          "type": "address"
        },
        {
          "internalType": "address",
          "name": "to",
          "type": "address"
        },
        {
          "internalType": "uint256",
          "name": "amount",
          "type": "uint256"
        }
      ],
      "name": "transferFrom",
      "outputs": [
        {
          "internalType": "bool",
          "name": "",
          "type": "bool"
        }
      ],
      "stateMutability": "nonpayable",
      "type": "function"
    },
    {
      "inputs": [
        {
          "internalType": "address",
          "name": "newOwner",
          "type": "address"
        }
      ],
      "name": "transferOwnership",
      "outputs": [],
      "stateMutability": "nonpayable",
      "type": "function"
    },
    {
      "inputs": [
        {
          "internalType": "address",
          "name": "account",
          "type": "address"
        },
        {
          "internalType": "uint256",
          "name": "proposalId",
          "type": "uint256"
        }
      ],
      "name": "unlockedBalanceOf",
      "outputs": [
        {
          "internalType": "uint256",
          "name": "",
          "type": "uint256"
        }
      ],
      "stateMutability": "view",
      "type": "function"
    }
  ],
  "bytecode": "0x608060405234801561001057600080fd5b5061001961001e565b6100de565b600054610100900460ff161561008a5760405162461bcd60e51b815260206004820152602760248201527f496e697469616c697a61626c653a20636f6e747261637420697320696e697469604482015266616c697a696e6760c81b606482015260840160405180910390fd5b60005460ff90811610156100dc576000805460ff191660ff9081179091556040519081527f7f26b83ff96e1f2b6a682f133852f6798a09c465da95921460cefb38474024989060200160405180910390a15b565b61235e80620000ee6000396000f3fe608060405234801561001057600080fd5b50600436106101da5760003560e01c8063715018a611610104578063a457c2d7116100a2578063d598d4c911610071578063d598d4c914610449578063dd62ed3e1461045c578063f2fde38b1461046f578063fd3fd49e1461048257600080fd5b8063a457c2d7146103fd578063a9059cbb14610410578063c63ee31514610423578063c97be1801461043657600080fd5b80638ef4c807116100de5780638ef4c807146103c857806395d89b41146103db57806398e05aa6146103e35780639dc29fac146103ea57600080fd5b8063715018a6146103a75780637284e416146103af5780638da5cb5b146103b757600080fd5b8063313ce5671161017c578063468b3b331161014b578063468b3b33146103455780635f82684a1461035857806363fbe11d1461036b57806370a082311461037e57600080fd5b8063313ce56714610306578063355274ea14610315578063395093511461031d57806340c10f191461033057600080fd5b806316f0115b116101b857806316f0115b1461029557806318160ddd146102c057806323b872dd146102d257806330fa738c146102e557600080fd5b806306fdde03146101df578063095ea7b3146101fd57806313a3d35714610220575b600080fd5b6101e7610495565b6040516101f49190611c6a565b60405180910390f35b61021061020b366004611cb2565b610527565b60405190151581526020016101f4565b61027a61022e366004611cb2565b604080518082018252600080825260209182018190526001600160a01b0394909416845260ce815281842092845291825291829020825180840190935280548352600101549082015290565b604080518251815260209283015192810192909252016101f4565b60cb546102a8906001600160a01b031681565b6040516001600160a01b0390911681526020016101f4565b6067545b6040519081526020016101f4565b6102106102e0366004611cde565b610541565b60cb546102f990600160a01b900460ff1681565b6040516101f49190611d35565b604051601281526020016101f4565b6102c4610565565b61021061032b366004611cb2565b610575565b61034361033e366004611cb2565b610597565b005b6102c4610353366004611cb2565b6106d7565b60cc546102a8906001600160a01b031681565b6102c4610379366004611d5d565b61070d565b6102c461038c366004611d5d565b6001600160a01b031660009081526065602052604090205490565b6103436107e1565b6101e76107f5565b6033546001600160a01b03166102a8565b6102c46103d6366004611cb2565b610883565b6101e76108e2565b60036102c4565b6103436103f8366004611cb2565b6108ec565b61021061040b366004611cb2565b610b4d565b61021061041e366004611cb2565b610bc8565b610343610431366004611e3f565b610bd6565b610343610444366004611eeb565b610f52565b60ca546102a8906001600160a01b031681565b6102c461046a366004611f26565b610ffc565b61034361047d366004611d5d565b611027565b610210610490366004611d5d565b6110a0565b6060606880546104a490611f5f565b80601f01602080910402602001604051908101604052809291908181526020018280546104d090611f5f565b801561051d5780601f106104f25761010080835404028352916020019161051d565b820191906000526020600020905b81548152906001019060200180831161050057829003601f168201915b5050505050905090565b600033610535818585611184565b60019150505b92915050565b60003361054f8582856112a8565b61055a858585611322565b506001949350505050565b600061057060975490565b905090565b6000336105358185856105888383610ffc565b6105929190611faf565b611184565b60ca546040805163cb7e905760e01b815290516003926001600160a01b03169163cb7e90579160048083019260209291908290030181865afa1580156105e1573d6000803e3d6000fd5b505050506040513d601f19601f820116820180604052508101906106059190611fc2565b604051630db9619f60e31b81523360048201526001600160a01b039190911690636dcb0cf890602401602060405180830381865afa15801561064b573d6000803e3d6000fd5b505050506040513d601f19601f8201168201806040525081019061066f9190611fdf565b600381111561068057610680611d1f565b14604051806040016040528060078152602001664e4f545f54474560c81b815250906106c85760405162461bcd60e51b81526004016106bf9190611c6a565b60405180910390fd5b506106d38282611603565b5050565b60006106e38383610883565b6001600160a01b0384166000908152606560205260409020546107069190612000565b9392505050565b6001600160a01b038116600090815260656020526040812054600060cb60009054906101000a90046001600160a01b03166001600160a01b031663958b138e6040518163ffffffff1660e01b8152600401602060405180830381865afa15801561077b573d6000803e3d6000fd5b505050506040513d601f19601f8201168201806040525081019061079f9190612013565b905060005b8181116107d85760006107b786836106d7565b9050838110156107c5578093505b50806107d08161202c565b9150506107a4565b50909392505050565b6107e9611677565b6107f360006116d1565b565b60cd805461080290611f5f565b80601f016020809104026020016040519081016040528092919081815260200182805461082e90611f5f565b801561087b5780601f106108505761010080835404028352916020019161087b565b820191906000526020600020905b81548152906001019060200180831161085e57829003601f168201915b505050505081565b6001600160a01b038216600090815260ce6020908152604080832084845290915281206001015443106108b85750600061053b565b506001600160a01b038216600090815260ce6020908152604080832084845290915290205461053b565b6060610570611723565b60cb60009054906101000a90046001600160a01b03166001600160a01b0316635c975abb6040518163ffffffff1660e01b8152600401602060405180830381865afa15801561093f573d6000803e3d6000fd5b505050506040513d601f19601f820116820180604052508101906109639190612045565b156040518060400160405280600e81526020016d14d154959250d157d4105554d15160921b815250906109a95760405162461bcd60e51b81526004016106bf9190611c6a565b5060ca546040805163cb7e905760e01b815290516003926001600160a01b03169163cb7e90579160048083019260209291908290030181865afa1580156109f4573d6000803e3d6000fd5b505050506040513d601f19601f82011682018060405250810190610a189190611fc2565b604051630db9619f60e31b81523360048201526001600160a01b039190911690636dcb0cf890602401602060405180830381865afa158015610a5e573d6000803e3d6000fd5b505050506040513d601f19601f82011682018060405250810190610a829190611fdf565b6003811115610a9357610a93611d1f565b1480610aa75750336001600160a01b038316145b6040518060400160405280600c81526020016b24a72b20a624a22faaa9a2a960a11b81525090610aea5760405162461bcd60e51b81526004016106bf9190611c6a565b50610af48261070d565b811115604051806040016040528060148152602001734c4f575f554e4c4f434b45445f42414c414e434560601b81525090610b425760405162461bcd60e51b81526004016106bf9190611c6a565b506106d38282611732565b60003381610b5b8286610ffc565b905083811015610bbb5760405162461bcd60e51b815260206004820152602560248201527f45524332303a2064656372656173656420616c6c6f77616e63652062656c6f77604482015264207a65726f60d81b60648201526084016106bf565b61055a8286868403611184565b600033610535818585611322565b600054610100900460ff1615808015610bf65750600054600160ff909116105b80610c105750303b158015610c10575060005460ff166001145b610c735760405162461bcd60e51b815260206004820152602e60248201527f496e697469616c697a61626c653a20636f6e747261637420697320616c72656160448201526d191e481a5b9a5d1a585b1a5e995960921b60648201526084016106bf565b6000805460ff191660011790558015610c96576000805461ff0019166101001790555b610c9f85611866565b610ca7611896565b6002846002811115610cbb57610cbb611d1f565b03610e4157610e14876001600160a01b031663165610766040518163ffffffff1660e01b8152600401600060405180830381865afa158015610d01573d6000803e3d6000fd5b505050506040513d6000823e601f3d908101601f19168201604052610d299190810190612067565b886001600160a01b031663fc0c546a6040518163ffffffff1660e01b8152600401602060405180830381865afa158015610d67573d6000803e3d6000fd5b505050506040513d601f19601f82011682018060405250810190610d8b9190611fc2565b6001600160a01b03166395d89b416040518163ffffffff1660e01b8152600401600060405180830381865afa158015610dc8573d6000803e3d6000fd5b505050506040513d6000823e601f3d908101601f19168201604052610df09190810190612067565b604051602001610e0091906120de565b6040516020818303038152906040526118c5565b60cc80546001600160a01b0319166001600160a01b03851617905560cd610e3b8382612155565b50610eb0565b610eb0876001600160a01b031663165610766040518163ffffffff1660e01b8152600401600060405180830381865afa158015610e82573d6000803e3d6000fd5b505050506040513d6000823e601f3d908101601f19168201604052610eaa9190810190612067565b876118c5565b60cb805485919060ff60a01b1916600160a01b836002811115610ed557610ed5611d1f565b021790555060ca8054336001600160a01b03199182161790915560cb80549091166001600160a01b0389161790558015610f49576000805461ff0019169055604051600181527f7f26b83ff96e1f2b6a682f133852f6798a09c465da95921460cefb38474024989060200160405180910390a15b50505050505050565b60cb546040805180820190915260088152671393d517d413d3d360c21b6020820152906001600160a01b03163314610f9d5760405162461bcd60e51b81526004016106bf9190611c6a565b50604051806040016040528084610fb48785610883565b610fbe9190611faf565b81526020908101939093526001600160a01b03909416600090815260ce83526040808220928252918352208351815592015160019092019190915550565b6001600160a01b03918216600090815260666020908152604080832093909416825291909152205490565b61102f611677565b6001600160a01b0381166110945760405162461bcd60e51b815260206004820152602660248201527f4f776e61626c653a206e6577206f776e657220697320746865207a65726f206160448201526564647265737360d01b60648201526084016106bf565b61109d816116d1565b50565b60008060cb60009054906101000a90046001600160a01b03166001600160a01b031663d27b3d0b6040518163ffffffff1660e01b8152600401600060405180830381865afa1580156110f6573d6000803e3d6000fd5b505050506040513d6000823e601f3d908101601f1916820160405261111e9190810190612215565b905060005b815181101561117a5781818151811061113e5761113e6122c7565b60200260200101516001600160a01b0316846001600160a01b031603611168575060019392505050565b806111728161202c565b915050611123565b5060009392505050565b6001600160a01b0383166111e65760405162461bcd60e51b8152602060048201526024808201527f45524332303a20617070726f76652066726f6d20746865207a65726f206164646044820152637265737360e01b60648201526084016106bf565b6001600160a01b0382166112475760405162461bcd60e51b815260206004820152602260248201527f45524332303a20617070726f766520746f20746865207a65726f206164647265604482015261737360f01b60648201526084016106bf565b6001600160a01b0383811660008181526066602090815260408083209487168084529482529182902085905590518481527f8c5be1e5ebec7d5bd14f71427d1e84f3dd0314c0f7b2291e5b200ac8c7c3b925910160405180910390a3505050565b60006112b48484610ffc565b9050600019811461131c578181101561130f5760405162461bcd60e51b815260206004820152601d60248201527f45524332303a20696e73756666696369656e7420616c6c6f77616e636500000060448201526064016106bf565b61131c8484848403611184565b50505050565b60cb60009054906101000a90046001600160a01b03166001600160a01b0316635c975abb6040518163ffffffff1660e01b8152600401602060405180830381865afa158015611375573d6000803e3d6000fd5b505050506040513d601f19601f820116820180604052508101906113999190612045565b156040518060400160405280600e81526020016d14d154959250d157d4105554d15160921b815250906113df5760405162461bcd60e51b81526004016106bf9190611c6a565b50600160cb54600160a01b900460ff16600281111561140057611400611d1f565b036114645760006114108461070d565b905080821115604051806040016040528060148152602001734c4f575f554e4c4f434b45445f42414c414e434560601b815250906114615760405162461bcd60e51b81526004016106bf9190611c6a565b50505b600260cb54600160a01b900460ff16600281111561148457611484611d1f565b036115f35760cc60009054906101000a90046001600160a01b03166001600160a01b031663df60fa406040518163ffffffff1660e01b8152600401602060405180830381865afa1580156114dc573d6000803e3d6000fd5b505050506040513d601f19601f820116820180604052508101906115009190612045565b80156115ae575060ca546001600160a01b0384811691161480611530575060ca546001600160a01b038381169116145b80611548575060cb546001600160a01b038481169116145b80611560575060cb546001600160a01b038381169116145b80611578575060cc546001600160a01b038481169116145b80611590575060cc546001600160a01b038381169116145b8061159f575061159f836110a0565b806115ae57506115ae826110a0565b6040518060400160405280600c81526020016b24a72b20a624a22faaa9a2a960a11b815250906115f15760405162461bcd60e51b81526004016106bf9190611c6a565b505b6115fe8383836118f6565b505050565b61160b610565565b8161161560675490565b61161f9190611faf565b111561166d5760405162461bcd60e51b815260206004820152601960248201527f45524332304361707065643a206361702065786365656465640000000000000060448201526064016106bf565b6106d38282611aa1565b6033546001600160a01b031633146107f35760405162461bcd60e51b815260206004820181905260248201527f4f776e61626c653a2063616c6c6572206973206e6f7420746865206f776e657260448201526064016106bf565b603380546001600160a01b038381166001600160a01b0319831681179093556040519116919082907f8be0079c531659141344cd1fd0a4f28419497f9722a3daafe3b4186f6b6457e090600090a35050565b6060606980546104a490611f5f565b6001600160a01b0382166117925760405162461bcd60e51b815260206004820152602160248201527f45524332303a206275726e2066726f6d20746865207a65726f206164647265736044820152607360f81b60648201526084016106bf565b6001600160a01b038216600090815260656020526040902054818110156118065760405162461bcd60e51b815260206004820152602260248201527f45524332303a206275726e20616d6f756e7420657863656564732062616c616e604482015261636560f01b60648201526084016106bf565b6001600160a01b03831660008181526065602090815260408083208686039055606780548790039055518581529192917fddf252ad1be2c89b69c2b068fc378daa952ba7f163c4a11628f55a4df523b3ef910160405180910390a3505050565b600054610100900460ff1661188d5760405162461bcd60e51b81526004016106bf906122dd565b61109d81611b62565b600054610100900460ff166118bd5760405162461bcd60e51b81526004016106bf906122dd565b6107f3611bd6565b600054610100900460ff166118ec5760405162461bcd60e51b81526004016106bf906122dd565b6106d38282611c06565b6001600160a01b03831661195a5760405162461bcd60e51b815260206004820152602560248201527f45524332303a207472616e736665722066726f6d20746865207a65726f206164604482015264647265737360d81b60648201526084016106bf565b6001600160a01b0382166119bc5760405162461bcd60e51b815260206004820152602360248201527f45524332303a207472616e7366657220746f20746865207a65726f206164647260448201526265737360e81b60648201526084016106bf565b6001600160a01b03831660009081526065602052604090205481811015611a345760405162461bcd60e51b815260206004820152602660248201527f45524332303a207472616e7366657220616d6f756e7420657863656564732062604482015265616c616e636560d01b60648201526084016106bf565b6001600160a01b0380851660008181526065602052604080822086860390559286168082529083902080548601905591517fddf252ad1be2c89b69c2b068fc378daa952ba7f163c4a11628f55a4df523b3ef90611a949086815260200190565b60405180910390a361131c565b6001600160a01b038216611af75760405162461bcd60e51b815260206004820152601f60248201527f45524332303a206d696e7420746f20746865207a65726f20616464726573730060448201526064016106bf565b8060676000828254611b099190611faf565b90915550506001600160a01b0382166000818152606560209081526040808320805486019055518481527fddf252ad1be2c89b69c2b068fc378daa952ba7f163c4a11628f55a4df523b3ef910160405180910390a35050565b600054610100900460ff16611b895760405162461bcd60e51b81526004016106bf906122dd565b60008111611bd15760405162461bcd60e51b8152602060048201526015602482015274045524332304361707065643a20636170206973203605c1b60448201526064016106bf565b609755565b600054610100900460ff16611bfd5760405162461bcd60e51b81526004016106bf906122dd565b6107f3336116d1565b600054610100900460ff16611c2d5760405162461bcd60e51b81526004016106bf906122dd565b6068611c398382612155565b5060696115fe8282612155565b60005b83811015611c61578181015183820152602001611c49565b50506000910152565b6020815260008251806020840152611c89816040850160208701611c46565b601f01601f19169190910160400192915050565b6001600160a01b038116811461109d57600080fd5b60008060408385031215611cc557600080fd5b8235611cd081611c9d565b946020939093013593505050565b600080600060608486031215611cf357600080fd5b8335611cfe81611c9d565b92506020840135611d0e81611c9d565b929592945050506040919091013590565b634e487b7160e01b600052602160045260246000fd5b6020810160038310611d5757634e487b7160e01b600052602160045260246000fd5b91905290565b600060208284031215611d6f57600080fd5b813561070681611c9d565b634e487b7160e01b600052604160045260246000fd5b604051601f8201601f1916810167ffffffffffffffff81118282101715611db957611db9611d7a565b604052919050565b600067ffffffffffffffff821115611ddb57611ddb611d7a565b50601f01601f191660200190565b600082601f830112611dfa57600080fd5b8135611e0d611e0882611dc1565b611d90565b818152846020838601011115611e2257600080fd5b816020850160208301376000918101602001919091529392505050565b60008060008060008060c08789031215611e5857600080fd5b8635611e6381611c9d565b9550602087013567ffffffffffffffff80821115611e8057600080fd5b611e8c8a838b01611de9565b9650604089013595506060890135915060038210611ea957600080fd5b909350608088013590611ebb82611c9d565b90925060a08801359080821115611ed157600080fd5b50611ede89828a01611de9565b9150509295509295509295565b60008060008060808587031215611f0157600080fd5b8435611f0c81611c9d565b966020860135965060408601359560600135945092505050565b60008060408385031215611f3957600080fd5b8235611f4481611c9d565b91506020830135611f5481611c9d565b809150509250929050565b600181811c90821680611f7357607f821691505b602082108103611f9357634e487b7160e01b600052602260045260246000fd5b50919050565b634e487b7160e01b600052601160045260246000fd5b8082018082111561053b5761053b611f99565b600060208284031215611fd457600080fd5b815161070681611c9d565b600060208284031215611ff157600080fd5b81516004811061070657600080fd5b8181038181111561053b5761053b611f99565b60006020828403121561202557600080fd5b5051919050565b60006001820161203e5761203e611f99565b5060010190565b60006020828403121561205757600080fd5b8151801515811461070657600080fd5b60006020828403121561207957600080fd5b815167ffffffffffffffff81111561209057600080fd5b8201601f810184136120a157600080fd5b80516120af611e0882611dc1565b8181528560208385010111156120c457600080fd5b6120d5826020830160208601611c46565b95945050505050565b600760fc1b8152600082516120fa816001850160208701611c46565b9190910160010192915050565b601f8211156115fe57600081815260208120601f850160051c8101602086101561212e5750805b601f850160051c820191505b8181101561214d5782815560010161213a565b505050505050565b815167ffffffffffffffff81111561216f5761216f611d7a565b6121838161217d8454611f5f565b84612107565b602080601f8311600181146121b857600084156121a05750858301515b600019600386901b1c1916600185901b17855561214d565b600085815260208120601f198616915b828110156121e7578886015182559484019460019091019084016121c8565b50858210156122055787850151600019600388901b60f8161c191681555b5050505050600190811b01905550565b6000602080838503121561222857600080fd5b825167ffffffffffffffff8082111561224057600080fd5b818501915085601f83011261225457600080fd5b81518181111561226657612266611d7a565b8060051b9150612277848301611d90565b818152918301840191848101908884111561229157600080fd5b938501935b838510156122bb57845192506122ab83611c9d565b8282529385019390850190612296565b98975050505050505050565b634e487b7160e01b600052603260045260246000fd5b6020808252602b908201527f496e697469616c697a61626c653a20636f6e7472616374206973206e6f74206960408201526a6e697469616c697a696e6760a81b60608201526080019056fea26469706673582212204ff73ab0ff54dab10c61d682f59962cfc75ce6e385a2c53f6f3e2bba306b785264736f6c63430008110033",
  "linkReferences": {},
  "deployedLinkReferences": {}
}